:1000000000800020BD01000041240100F92301000F
:10001000F9230100F9230100F9230100F92301006C
:10002000F9230100F9230100F92301004124010013
:1000300041240100F9230100753F0100793F0100CF
:100040004124010041240100412401004124010018
:100050004124010041240100412401004124010008
:1000600041240100412401004124010041240100F8
:1000700041240100412401004124010041240100E8
:1000800041240100412401004124010041240100D8
:1000900041240100412401004124010041240100C8
:1000A000ED0E0100F90E0100412401004124010080
:1000B00041240100412401004124010041240100A8
:1000C0004124010041240100412401004124010098
:1000D0004124010041240100412401004124010088
:1000E0004124010041240100412401004124010078
:1000F00041240100454C010041240100412401003C
:100100004124010041240100412401004124010057
:100110004124010041240100412401004124010047
:100120004124010041240100412401004124010037
:100130004124010041240100412401004124010027
:100140004124010041240100412401004124010017
:1001500065410100794101008D410100A14101008B
:1001600041240100F12A0100412401004124010041
:1001700041240100412401004124010041240100E7
:1001800041240100412401004124010041240100D7
:1001900041240100412401004124010041240100C7
:1001A00041240100412401004124010041240100B7
:1001B000412401004124010041240100564B4CF22E
:1001C000205210B51A804DF628121A8000BF00BFC9
:1001D00012F03AF9514B4FF010621A60504A9A608F
:1001E000504ADA60504A136813F4807304D14F49BF
:1001F0000B604FF4A85313604D4B1A78110703D5C9
:100200001A7842F008021A704A4B4B492A221A7097
:100210004A4A4B4B8B4204D252F8040F43F8040B6A
:10022000F8E7484B484900228B4202D243F8042B9E
:10023000FAE74649464A002352F8230041F82300D2
:1002400001336F2BF8D1434B434A802103F8011B44
:100250009342FBD1414B3D4A1A60414B8A221A70AE
:10026000A3F5805324225A70A0221A709A7992071B
:10027000FCD59A79D406FCD43A4A937903F00C035E
:10028000082B384BF9D103221A7140225A719A79FE
:100290009006FCD5334A9179324B4906FBD5324A58
:1002A000324911600221516020221A709A7902F0BD
:1002B0000C020C2AFAD12E4B2E4A1A602E4B2F4AD2
:1002C0001A6000225A60072243F8042C2C4AC3F813
:1002D0000C2D62B612F0B2FA144B1B68DA0705D582
:1002E000284812F00FFA284B284A1A60284B1B782E
:1002F0005B0609D5244C254B22689A4204D121483B
:1003000012F000FA0023236015F084FD12F0A2F829
:1003100014F0AEF8FEE700BF0E2005403080044028
:10032000823F04000100002B10D0034014D0034092
:1003300002D0074000E0074068AEFF1F68C501001B
:10034000308CFF1F68AEFF1FB8E0FF1F0082FF1F49
:100350000000000000E400E05FE400E008ED00E0E1
:100360000050064000400640448004400000030165
:1003700004800440C010050014E000E0FF76010096
:1003800000002020FD944F5F1CE00340A5C3945A59
:1003900000F00740FFFFFFFFFFFFFFFFFFFFFFFF32
:1003A000FFFFFFFFFFFFFFFFFFFFFFFFFFFFFFFF5D
:1003B000FFFFFFFFFFFFFFFFFFFFFFFFFFFFFFFF4D
:1003C000FFFFFFFFFFFFFFFFFFFFFFFFFFFFFFFF3D
:1003D000FFFFFFFFFFFFFFFFFFFFFFFFFFFFFFFF2D
:1003E000FFFFFFFFFFFFFFFFFFFFFFFFFFFFFFFF1D
:1003F000FFFFFFFFFFFFFFFFFFFFFFFFFFFFFFFF0D
:10040000FFFFFFFFFFFFFFFFFFFFFFFFDEF9FFFF23
:1004100010B5054C237833B9044B13B10448AFF33E
:1004200000800123237010BD68AEFF1F0000000094
:1004300064C50100084B10B51BB108490848AFF36B
:1004400000800848036803B910BD074B002BFBD0A0
:10045000BDE81040184700BF000000006CAEFF1F51
:1004600064C5010068AEFF1F00000000704700BFB8
:10047000064A074908B51378D1F8080E83F001033E
:100480001946137010F024FA012008BDF4B8FF1FBC
:10049000B0C7FF1F70B5294C0546D4F8040E11F003
:1004A0005BF8B4F8B63AB4F8B42A181A83B2934297
:1004B000A4F8B63A2CD014D86A69002AC4BF02F155
:1004C000FF326A61AA685279022A27D04FF0FF30C2
:1004D000FF22A4F8B43A012185F8632285F862125C
:1004E00070BDA8686E690EF0F7FC2B69C01A8642D1
:1004F00002DA6B6901336B61AB685B79022B09D15E
:1005000023780E4A062B12D9B2F8B63AA4F8B43AB8
:10051000002070BDB4F8B63A0120D9E72278074927
:10052000002AF3D0013A0A704FF0FF30D0E70133D0
:1005300013700120B2F8B63ACAE700BFB0C7FF1F78
:10054000024BD3F8040E10F07DBF00BFB0C7FF1FF1
:1005500010B5044600F6FC5013F0E2FD04F6F4502A
:1005600013F0DEFD204610BD234B1B6803F164022F
:10057000904270B504DA643B984201DD022070BD00
:100580001E4B1B6803F16402904204DA643B9842FC
:1005900001DD032070BD1A4B1D680446B5F9480003
:1005A000C0F13C0015F09AF90646B5F94A0015F07D
:1005B00095F90146304615F099FA0646286D15F072
:1005C0008DF90146304615F0DDF90646E86C15F068
:1005D00085F90146304615F0CDF815F099FB00F18C
:1005E00064039C4205DA64388442D4BF00200120B1
:1005F00070BD002070BD00BF24B1FF1F28B1FF1FD8
:1006000080C2FF1FF8B5427A05460E4602B30123A9
:100610000A701C46A97A89B1C7291CD93831C9B2D8
:10062000164FC1EBC1010F44F018394616F0D2F94C
:10063000384616F045FA2044C4B22346EA7A1AB185
:100640000134E4B2F25423460022F2542046F8BDAD
:1006500013461446DEE70A4FC1EBC101F0183944D6
:10066000062216F09BFAA87AC0EBC000384416F0B8
:1006700027FA2044C4B22346E0E700BF9DD2FF1F03
:10068000C8A301002DE9F0411A4D41F23424064679
:10069000285910F08DFE38B3B3685B79022B15D062
:1006A00041F23427DFF84C80E85910F085FE04460B
:1006B00010B92046BDE8F08158F8070010F01EFE82
:1006C0000023C6F854322046BDE8F081D6F85432F3
:1006D000B3F57A7FE4D90124002385F8964C2046AF
:1006E000C6F85432BDE8F081285910F055FEC6F81E
:1006F0005402D1E7B0C7FF1F0120704701207047A7
:100700002DE9F043314C324FD4F8083E83B01A68DB
:1007100000254FF01A080195CDF80080166C294687
:100720002D22814618467B23B047D4F8080E0121BC
:100730000FF044F92A46D4F8080E01210FF044F9CD
:10074000D4F8080E2A2204210FF034F9D4F8086EE8
:100750002049336808225B6830469847304613F0DA
:100760003FFD32220421D4F8080E0FF023F91A4B72
:10077000D4F8086E53F82990484616F0A1F933686A
:10078000024649465B6830469847304613F028FDDC
:10079000D4F8080E012203680192CDF800802946A2
:1007A0002522DD6C7B23A84711F0D8FF3B6847F278
:1007B0002F52C01A904206D9D4F8080E0FF082FFCB
:1007C00011F0CCFF386003B0BDE8F083B0C7FF1F65
:1007D000ACC7FF1F78A70100D898FF1F2DE9F04193
:1007E00090F96332604E0133044686B04FF0010148
:1007F000D6F8080E5FD00FF0E1F825696369A068AC
:100800001D440EF069FB854280F2A880226963696D
:1008100002EB0308E36894F96372D6F8080E9F426E
:1008200007BF012200210022012102AD0FF0CCF808
:1008300029463A4620460EF0B3FB284616F040F90A
:100840000D2807DC28440DF11602202300F8013B97
:100850009042FBD16269E369B4F91810D6F8080E2A
:100860000933BA1A03EBC20212B200278DF81670D0
:100870000FF0A0F8D6F8086E284616F021F9336874
:1008800002465B68294630469847304613F0A8FC7C
:1008900094F8633201335BB2434584F8633202D08B
:1008A00006B0BDE8F081FF2384F8627284F86332F9
:1008B00006B0BDE8F0810FF081F800220121D6F8E2
:1008C000080E0FF081F8A36818461F680EF004FBAD
:1008D00000B200EB400102AD07EBC1010E22284639
:1008E00016F05CF9284616F0EBF80D2807DC2844D2
:1008F0000DF11602202300F8013B9042FBD10023AA
:10090000B4F91C20B4F91810D6F8080E8DF816307A
:100910000FF050F8D6F8087E284616F0D1F83B685C
:10092000024629465B6838469847384613F058FC1B
:10093000E269D6F8080EA1690568083212B20123EF
:100940008DE80C0001F15403AD6C1BB209B2A8474D
:10095000636984F8633206B0BDE8F081A0680EF0E8
:10096000BBFA804656E700BFB0C7FF1F2DE9F04332
:10097000B14CB14F6378012BB04B1B688FB0186935
:100980008CBF93F9406093F93C6014F0A3FFAC492D
:1009900015F0ACF80146AB4815F0A8F8AA4915F0D7
:1009A000A5F88046D4F8080E00250368019540227A
:1009B0000092D3F840902A4680232946C847012157
:1009C000D4F8080E0EF0FAFF2A460121D4F8080EDA
:1009D0000EF0FAFF2A462946D4F8080E0EF0EAFF78
:1009E000D4F8080E9949036803225B689847217878
:1009F000D4F8080E013113F059FC6378022B00F093
:100A00006A81032B00F05F81012B00F0B880904DCC
:100A10002968002940F0AC800122D4F8080E0EF0BD
:100A2000D3FFD4F8080E8B490368834F5B68DFF867
:100A30000892062298472A68D7F8080E012A0EBFA6
:100A40000021002201210EF0BFFFD4F8087E824968
:100A50003B6804225B6838469847384613F0C0FB71
:100A600000220121D4F8080E0EF0AEFF0C22002166
:100A7000D4F8080E0EF09EFFD4F8087E77493B6844
:100A800012225B6838469847384613F0A9FB1422B7
:100A90000021D4F8080E0EF08DFF0221D4F8080EC4
:100AA0000EF08CFF2B68022B71D000220121D4F8AC
:100AB000080E05360EF088FFF3B20A2B75D92B68A5
:100AC000022B00F0848007AE00220121D4F8080E2A
:100AD000594F0EF079FFD4F8080E614903680222DD
:100AE0005B689847404614F01BFB0B4602465D4985
:100AF000304615F049FF2B68032B00F0918000224F
:100B00000121D4F8080E0EF05FFFD4F8087EDFF85C
:100B10002881304615F0D4FF3B6802465B683146B9
:100B200038469847384613F05BFB2B68032B00F0E0
:100B3000A3800121D4F8080E4B4D3F4E0EF03EFF2E
:100B40000022D4F8080E01210EF03EFF11F006FE3F
:100B50002B6847F22F52C01A904206D9D6F8080ED9
:100B60000FF0B0FD11F0FAFD28600FB0BDE8F08382
:100B700000220121D4F8080E0EF026FF51E7D7F825
:100B8000080E3A49036806225B6898473FE7384BEE
:100B90001B78002B89D0D9F8080E012200210536D8
:100BA0000EF012FFF3B20A2B89D8324BD4F8087E2C
:100BB00053F82690484615F083FF3B6802465B6871
:100BC0004946384698472B68022B7FF47CAF284B68
:100BD0001A78002A7FF477AF264BD4F8080E53F822
:100BE00026100DF11A0E06AF0DF1160307AE8DE8B3
:100BF0008840039614230FF029F8D4F8080EBDF9A5
:100C00001C10076800914FF0010ECDF804E0BDF90B
:100C10001A30BDF91820BDF91610FF6CB84753E71C
:100C2000134B1B78002B3FF46AAFD7F8080E012254
:100C300000210EF0C9FE68E7B0C7FF1F80C2FF1F8A
:100C400000007A4400606A470000C04184A70100A8
:100C5000CCB0FF1FA0A70100A8A70100B0A701000A
:100C60009CA70100C4A70100A0B0FF1F88A7010036
:100C70008C99FF1F6894FF1F1B4B1B78002B7FF480
:100C800058AF06AD0DF1160205AB0DF11A07D8F8F5
:100C9000080E0295314601920093039714233C22DB
:100CA0000EF0D4FFD8F8080EBDF91A60056800965A
:100CB00001260196BDF91830BDF91620BDF91410B2
:100CC000ED6CA84735E7D7F8080E084903680622F7
:100CD0005B6898479BE6D7F8080E0549036806222B
:100CE0005B68984793E600BF8C99FF1F98A70100A7
:100CF00090A7010070B5044608460D4615F0E0FEC9
:100D000023680246294620465B68BDE870401847C4
:100D10002DE9F04F002387B00122437000F6B42381
:100D20000270041D0493059000274FF619494FF0F7
:100D30000003237327616761A761E7612762676228
:100D400084F828702771E7802781A4F80A9038205A
:100D500013F096FB39463A46EF4B834610F0D6FF28
:100D600094F84A30C4F82CB003F0800367F3C7133B
:100D700084F84A30E94B63634FF03C0384F83E301B
:100D80004FF0280384F83F30E54B63654FF07F0355
:100D900084F85C3084F85D304FF47A73A4F85E30E8
:100DA000E04BCBF810300125782640F6FF7A4FF063
:100DB000FF084FF07E524FF6FF732264A4F84E6096
:100DC000A4F85A6084F8317084F8387084F844705C
:100DD00084F8457084F8467084F84770A4F84C7025
:100DE000A4F8587084F83C5084F83D50A4F848505A
:100DF000C4F850A084F86480CBF8043084F83050F4
:100E0000382013F03DFB2A4683463946C64B10F086
:100E10007DFF4FF08043C4F860B084F86570A4F89B
:100E20006E906767A767E767C4F88070C4F884703E
:100E3000C4F8887084F88C7084F86870A4F86A70BC
:100E4000A4F86C7084F87070CBF810302781CBF860
:100E500004A0382013F014FB3946AF4B3A468346C2
:100E600010F054FF94F8AE30AC4AC4F898204FF01C
:100E70003C0284F8A22003F080034FF0280284F89B
:100E8000A32067F3C713A64AC4F8B82084F8AE308D
:100E90004FF07F024FF0010384F8C02084F8C12096
:100EA00084F894304FF47A724FF6FF73A4F8C2209E
:100EB000CBF804304FF07E529A4BA4F8B260A4F8FD
:100EC000BE60C4F8A420C4F890B084F8957084F88B
:100ED0009C7084F8A05084F8A15084F8A87084F81D
:100EE000A97084F8AA7084F8AB70A4F8AC50A4F888
:100EF000B070C4F8B4A0A4F8BC7084F8C880CBF873
:100F00001030382013F0BCFA2A4606463946864B84
:100F100010F0FCFE4FF08043C4F8C460A4F8D290F7
:100F2000A4F86C7084F8C970C4F8D870C4F8DC7088
:100F3000C4F8E070C4F8E470C4F8E870C4F8EC7069
:100F400084F8F07084F8CC70A4F8CE70A4F8D07057
:100F500084F8D4703361C6F804A0382013F090FAF6
:100F60006D4B3A463946064610F0D0FE6B4BC4F83E
:100F7000FC304FF03C0384F802314FF0280384F832
:100F800003314FF07E53C4F804314FF6FF737360A2
:100F9000644B3361049BC4F8F46084F8F97084F8FE
:100FA000F85084F8005184F8015184F8087184F8ED
:100FB000097184F80A7184F80B71A4F80C5184F853
:100FC0000E7184F8108184F81471C4F81871C4F893
:100FD000247184F8287184F82C7184F82F7184F8B6
:100FE0002E7184F82D7184F8008004F598749C4269
:100FF0007FF49AAEDDF814904C4999F8E53AC9F8B7
:10100000E01A4FF0FF32A9F8B42A4FF47A744FF087
:10101000000289F8B82AA9F8DC4A414AC9F8C02A6E
:101020004FF000042B4347F23050C9F8D02AC9F8DA
:10103000D82A89F8E44A1122374C89F8E53A39462A
:10104000C9F8E84AA9F8B60A89F8EC2AC9F8BCAA8E
:101050006922C9F8C47AC9F8C8AAC9F8CCAAC9F8DB
:10106000D4AA09F6ED2015F03BFA09F658300DF038
:1010700035FF2F4BC9F8583B4FF0000289F8782B09
:1010800089F8862C3946FB22C9F87C7CA9F8847C37
:10109000C9F8987C09F69C4015F022FA4FF000033D
:1010A00089F8B03D89F8B13D89F8B83D89F8BA3D75
:1010B0004FF0010389F8953C4FF0000389F8963C06
:1010C00089F8973C4FF0010336211A4A89F8E03D30
:1010D00007244FF0000309F6CF5089F8EC3DC9F81A
:1010E000701BC9F8E82DC9F8987DC9F89C7DC9F82E
:1010F000A07DC9F8A47DC9F8A87DC9F8AC7DC9F860
:10110000B47D89F8B98D89F8BB8DC9F8BC7DC9F863
:101110006C7BC9F8747B0FE017B7D1389F8601004C
:1011200001F0FFFF000060420AD7233C9A99993FE3
:1011300030B4010014DAFF1FC9F8E47D7F23C9F839
:10114000684B014609F6BF5202F8013F824201F89E
:10115000013FF9D141F2F01641F2F41541F2F814D1
:1011600041F2FC1041F2322141F23323002249F8CE
:10117000062009F8052049F8042049F800209624A3
:1011800009F801204FF4157009F803204FF4BA61F3
:10119000802340F2124740F28E7689F8F83D89F8B4
:1011A000003E40F64C15C9F80C4EC9F8100E40F63A
:1011B0000A3440F6C84009F58F53C9F8181E09F5DE
:1011C0009151C9F8F42DC9F8FC2D89F82C2EC9F8D5
:1011D000147EC9F81C6EC9F8205EC9F8244EC9F8FF
:1011E000280E1F33113103F8012F8B424FF00004FA
:1011F000F9D1942013F044F9054610F0D7F9C9F855
:10120000F05D182013F03CF90423072206218DE835
:1012100018000546FF2310F0D9F8C9F8045E142021
:1012200013F02EF9044610F037F841F234230F483A
:1012300049F803400FF00CFF0E210C480FF070FF2F
:10124000642013F01DF90A4B0393092108220A2395
:101250008DE80E00054B4022802104460EF0C2FDB1
:101260004846C9F8084E07B0BDE8F08F94A2FF1FAA
:1012700000127A0070B5064E41F23425705910F014
:101280009BF8044610B1705910F038F8204670BD34
:10129000B0C7FF1F38B5144C0546D4F8040E10F043
:1012A0005BF9B4F8B63AB4F8B42A181A83B2934288
:1012B000A4F8B63A15D00D4A11680AD80029CCBF57
:1012C00001F1FF31002111604FF0FF30A4F8B43A72
:1012D00038BDA942B8BF013111600120A4F8B43A69
:1012E00038BD002038BD00BFB0C7FF1FCCB0FF1F06
:1012F0002DE9F04F974FDFF890A2D7F8080E8DB088
:10130000002403680194402200921D6C2246802331
:101310002146A847D7F8080E01210EF04FFB2246C0
:10132000D7F8080E01210EF04FFB22462146D7F8D0
:10133000080E0EF03FFBD7F8080E87490368082215
:101340005B6898473978D7F8080E013112F0AEFF84
:10135000D7F8080E8149036807225B689847DAF8D6
:101360000000002800F0DC8014F0B8FA4FF07C5147
:1013700014F008FB13F0D4FED7F8084E01250246FE
:101380000B462046009512F09BFFD7F8084E744993
:1013900023682A465B6820469847204612F020FFC3
:1013A000704B04930E23039300239946039B049EE2
:1013B000CDF81490043B1BB2029309EB49034D4650
:1013C00000249946DAF80020D7F8080E05EB090347
:1013D0009A424FF001014FF000020FFA84F804BF67
:1013E0000A4600210EF0F0FAD7F8080E029A41469C
:1013F0000EF0E0FA07A8002D00F09E8015F060FBCB
:10140000544BD3F808BEDBF8003002465B6807A9EE
:1014100058469847584612F0E3FE3378002B71D1B6
:101420001E34A4B2782C06F1010605F10105C9D1DC
:10143000039BDDF8149009339BB20393049B09F1DD
:1014400001090433B9F1050F0493AFD1D7F8080EA1
:10145000454C002201210EF0B7FAD7F8080E3722CA
:1014600000210EF0A7FAD7F8080E404903680422BD
:101470005B6898473E4BD7F8080E196812F016FFC4
:10148000D7F8080E3B49036801225B68984721683A
:10149000D7F8080E12F00AFFD7F8080E354903688E
:1014A00001225B689847344B20681C686368C01A47
:1014B00014F014FA0546A06814F010FA0146284604
:1014C00014F014FB2D4914F05DFA13F029FED7F83F
:1014D000084E022502460B460095204612F0F0FE0B
:1014E000D7F8084E1E49236801225B6820469847BA
:1014F000204612F075FED7F8080E0FF0E3F80DB095
:10150000BDE8F08F134BD3F8080E01220368009258
:101510004146BDF90C20D3F83C801823C0477FE733
:10152000D7F8084E1649236820465B68032298477F
:10153000204612F055FE33E7064B1249D3F8088EC9
:10154000D8F80030042240465B689847404612F0C5
:1015500047FE65E7B0C7FF1FCCA70100D8A7010071
:10156000E0A7010048B3FF1F2497FF1FE8A7010071
:101570003492FF1FF0A7010050B1FF1F000020416F
:10158000E4A70100A8A70100CCB0FF1F2DE9F04798
:10159000A94BAA4CAA4A1B681168D4F8080ED3F8C4
:1015A00004809F68026891F8465082B0002640236C
:1015B0008DE8480031468023D2F840903246C84733
:1015C000D4F8080E01210EF0F9F93246D4F8080ECD
:1015D00001210EF0F9F932463146D4F8080E0EF02A
:1015E000E9F9D4F8080E9749036803225B68984725
:1015F00021780729C5F3411540F2F4806378D4F8C7
:10160000080E022B03680CBF8F4990495B680522C6
:1016100098478F4E3168002940F0DD800122D4F8D0
:10162000080E0EF0D1F9D4F8080E8A490368DFF8E5
:101630000C925B68DFF804A2082298473268D9F858
:10164000080E012A0EBF0021002201210EF0BCF974
:10165000D4F8089E8049D9F8003003225B684846D8
:101660009847484612F0BCFD00220121D4F8080E2C
:101670000EF0AAF911220021D4F8080E0EF09AF902
:10168000D4F8089E7549D9F8003010225B684846A6
:101690009847484612F0A4FD3368DAF8080EDFF8E0
:1016A0009C91022B07BF01220021002201210EF094
:1016B0008BF900211B22D4F8080E0EF07BF9D9F823
:1016C000080E0368022D0CBF654966495B6810224D
:1016D00098473368D4F8080E584E032B07BF0122F1
:1016E0000021002201210EF06FF900212522D4F8FB
:1016F000080E0EF05FF9D6F8080E504E0368022D62
:101700000CBF594959495B681022984700220121B2
:10171000D4F8080E0EF058F900220121D4F8080E72
:101720000EF052F937220021D4F8080E0EF042F9DB
:10173000D4F8080E4E49036804225B6898474D4B65
:101740001B68002B0FDD4C49D6F8089E03EB830382
:10175000CE18304615F0B4F9D9F8003002463146BB
:101760005B6848469847D4F8080E44490368334EEE
:101770005B6803229847424B1868022DC8EB0000B3
:1017800041D014F0ABF80546384614F0A7F80146EE
:10179000284614F0ABF93B4914F0F4F813F0C0FC00
:1017A000D6F8085E022602460B460096284612F03E
:1017B00087FDD4F8085E34492B6801225B6828460F
:1017C0009847284612F00CFDD4F8080E02B0BDE888
:1017D000F0470EF077BF00220121D4F8080E0EF07A
:1017E000F3F820E70131D4F8080E12F05FFD6378BA
:1017F000D4F8080E022B03680CBF244924495B6807
:101800000522984705E714F069F88046384614F039
:1018100065F80146404614F069F91E4914F0B2F823
:1018200013F07EFCD6F8086E009502460B46304653
:1018300012F046FDBDE700BF50B1FF1FB0C7FF1F4C
:1018400080C2FF1F84A70100F4A70100FCA70100CC
:10185000CCB0FF1F14A80100E4A7010020A80100DC
:1018600034A8010048A801005CA8010070A801008C
:10187000E8A701003492FF1F18A5010084A8010009
:101880002497FF1F00002041E0A7010004A80100E9
:101890000CA801000000A0402DE9F04F8C4F8D4DA9
:1018A000D7F8080E8BB00024036801944022009200
:1018B0001E6C224680232146B047D7F8080E01212E
:1018C0000EF07CF822462146D7F8080E0EF072F88A
:1018D0002246D7F8080E01210EF076F8D7F8080E48
:1018E0007D4903680A225B6898472968002940F00F
:1018F000E7800122D7F8080E0EF066F8D7F8080E38
:1019000076490368724C5B68DFF8E491DFF8E4A184
:10191000082298472A68D4F8080E012A0EBF002131
:10192000002201210EF050F8D7F8084E6C4A2368C7
:101930006C495B680392204603229847204612F0C8
:101940004FFC0A220021D7F8080E0EF033F80122CE
:101950000021D7F8080E0EF037F8D7F8084E624984
:10196000236814225B6820469847204612F038FC12
:1019700025220021D7F8080E0EF01CF8D7F8084EE3
:101980005A49236814225B6820469847204612F083
:1019900027FC00220121D7F8080E0EF015F84FF0B1
:1019A00000084FEAA80404EB440404EBC40408F064
:1019B0000305A4B2C5EB051504F113026D0012B2C4
:1019C0002946D7F8080E0DF0F5FF59F804BF4FF07F
:1019D000000CE3458DF818C06ADB05AB06AE9C44ED
:1019E000B64601209BFBF0F38AFB0321DA17C2EB1A
:1019F000A10202EB8202A3EB420330330EF8013D59
:101A000000EB8000E6454FEA4000EBD1D7F808BE76
:101A100005A815F055F8DBF8003002465B6805A90B
:101A20005846984704F11C02D7F8080E12B229460E
:101A30000DF0C0FF039B53F8044F03930020844232
:101A40008DF818002EDB05AB1844012194FBF1F34F
:101A50008AFB0325DA17C2EBA50202EB8202A3EB95
:101A60004203303306F8013D01EB8101B0424FEAF9
:101A70004101EBD1D7F8084E154D05A815F020F817
:101A80002368024608F101085B68204605A99847CB
:101A9000B8F1080F85D1D5F8080E0EF013FE0BB083
:101AA000BDE8F08F2D2364428DF814300120CAE781
:101AB0002D23CBF1000B8DF814304FF0010C8CE787
:101AC00022460121D7F8080E0DF07EFF16E700BF71
:101AD000B0C7FF1FCCB0FF1F88A8010094A8010069
:101AE000D0B8FF1FE4A70100A0A80100B8A801001A
:101AF00028B1FF1F676666667C4B1A68F0B4034620
:101B0000D46CB2F9480007290CD8DFE801F0042DA5
:101B100032517292B20D764A1068918892791860AB
:101B200099809A71F0BC7047126D0026A4185E71FE
:101B300000F1BD806F4F1E440120053394FBF0F28D
:101B400087FB0215D117C1EBA50101EB8101A2EBC7
:101B50004102303203F8012D00EB8000B3424FEA1E
:101B60004000EBD1F0BC7047634A10681860F0BCCD
:101B700070470026041E5E71C0F2B2805D4F1E44A5
:101B80000120053394FBF0F287FB0215D117C1EB5E
:101B9000A50101EB8101A2EB4102303203F8012DD6
:101BA00000EB80009E424FEA4000EBD1F0BC704752
:101BB000B2F94A60002536185D7100F18C804D4FF6
:101BC0001D440120053396FBF0F287FB0214D11768
:101BD000C1EBA40101EB8101A2EB4102303203F819
:101BE000012D00EB8000AB424FEA4000EBD1F0BC8E
:101BF0007047B2F954600025AE425D7166DB3D4F1F
:101C00001D440120053396FBF0F287FB0214D11727
:101C1000C1EBA40101EB8101A2EB4102303203F8D8
:101C2000012D00EB8000AB424FEA4000EBD1F0BC4D
:101C30007047B2F956600025AE425D7141DB2D4F11
:101C40001D440120053396FBF0F287FB0214D117E7
:101C5000C1EBA40101EB8101A2EB4102303203F898
:101C6000012D00EB8000AB424FEA4000EBD1F0BC0D
:101C700070470026B4425E711EDB1E4F1E440120D9
:101C8000053394FBF0F287FB0215D117C1EBA501D8
:101C900001EB8101A2EB4102303203F8012D00EB90
:101CA0008000B3424FEA4000EBD1F0BC70472D22D8
:101CB00064421A7001263DE72D2264421A70012603
:101CC000DBE72D2276421A700125B8E72D227642F5
:101CD0001A70012593E72D2276421A7001256EE7CE
:101CE0002D2264421A70012648E700BF80C2FF1F00
:101CF000A0A7010067666666E4A701002DE9F04F22
:101D0000704CDFF8E4A1D4F8080E8BB0002503680E
:101D10000195402200921E6C2A4680232946B04736
:101D2000D4F8080E01210DF049FE2A46D4F8080E19
:101D300001210DF049FE2A462946D4F8080E0DF07F
:101D400039FED4F8080E6049036803225B6898479F
:101D50002178D4F8080E013112F0A8FA6378D4F88B
:101D6000080E022B03680CBF584959495B680522CD
:101D70009847DAF80010002940F093800122D4F847
:101D8000080E0DF021FED4F8080E524903684D4D9F
:101D90005B6808229847DAF80020D5F8080E012A77
:101DA0000EBF0021002201210DF00EFED4F8085EC6
:101DB00049492B6803225B6828469847284612F059
:101DC0000FFA00220121D4F8080E0DF0FDFD1022BB
:101DD0000021D4F8080E0DF0EDFDD4F8085E3F495F
:101DE0002B6810225B6828469847284612F0F8F9BD
:101DF0001C234FF0020B02934FF000084FEA4809F2
:101E0000BDF90830039309F10209182600250022C4
:101E10000121D4F8080E0DF0D7FDB8F1000F47D01E
:101E2000DAF80020D4F8080E09EB05039A424FF0C7
:101E300001014FF0000204BF0A4600210DF0C4FD6D
:101E400032B20399D4F8080E0DF0B4FD0BEB050186
:101E500005A8FFF751FED4F8087E05A814F030FE5F
:101E60003B6802465B6805A9384698470135384605
:101E700012F0B6F90A36022DB6B2C8D1029B08F1AB
:101E800001082A339BB2B8F1020F02930BF1020B47
:101E9000B4D10C4BD3F8080E0EF014FC0BB0BDE817
:101EA000F08F00220121D4F8080E0DF08DFD6AE7B5
:101EB0000B492DB1034BD3F8080EFEF71BFFAFE71C
:101EC0000849F7E7B0C7FF1F84A7010004A8010075
:101ED0000CA8010014A80100E4A70100D0A801008B
:101EE000E4A80100ECA80100CCB0FF1F00B5807B86
:101EF00000F01F03192B13D8DFE803F01414272771
:101F000027333A2727272727201A0D121427272798
:101F100027271414140D002043F6FF730860136084
:101F20005DF804FBC0F34110012812D0022826D02E
:101F300000207F23086013605DF804FB134B0B60E7
:101F400047F6FF7313605DF804FBC0F341100128EE
:101F5000EED16FF07F004FF48073086013605DF87E
:101F600004FB0B4B0B6041F6FF7313605DF804FB41
:101F70006FF063006423086013605DF804FB0020C9
:101F80003C23086013605DF804FB00BF0080FFFF86
:101F900000E0FFFF837B01F01F0161F30403837303
:101FA000192915D8DFE801F0373715151525301533
:101FB000151515151C150D1437151515151537376D
:101FC000370D002243F6FF73028282834382C3836C
:101FD000704700227F23028282834382C38370473B
:101FE0004FF4004247F6FF73028282834382C38329
:101FF00070474FF4604343F6FF7141F6FF7203826E
:1020000083834182C28370470022642302828283D9
:102010004382C3837047837BC3F34113022B07D1F1
:1020200000233C217822038283834182C28370474C
:1020300000227823028282834382C383704700BFD9
:102040002DE9F041554D564C2B78564962780020C9
:10205000012B08607FD0012A40F28680022A7AD0C4
:10206000032A52D0504E306890F84620DFF868813D
:102070004E4FDFF868E1DFF868C112F0600118BF69
:10208000012188F8001000F148013960C16CCEF8D8
:102090000010DFF850E1016DCCF800104449B0F8B1
:1020A00054C0AEF800C0DFF840E1B0F856C0A1F867
:1020B00000C04049B0F848C0AEF800C0B0F84AE0EF
:1020C000A1F800E003F0FD01012908D13A4BC2F369
:1020D0000402383000211A70FFF75CFF2B78374973
:1020E000374A384D38484FF0010EC1F800E04FF044
:1020F000FF31116073454FF00002296002700DD06E
:10210000324B01201870BDE8F0812278264E4FF442
:10211000987000FB02406C303060A5E73568386885
:1021200095F846602A4B2B4962F3461685F84660BF
:10213000D4F8BC5AD4F8C04A8460456003F1140056
:1021400003F8012F834241F8042FF9D11F4B0120DE
:102150001870BDE8F0812278134E4FF4987000FBA0
:102160000240083030607FE7052B01D0BDE8F081E8
:10217000012A7FF477AF114923780A604FF49872EF
:1021800002FB0343084E0E4D0E4C0F494FF0FF3239
:10219000D03333602A6022600870B1E7ADB0FF1F12
:1021A000B0C7FF1F84AEFF1F80C2FF1F50B1FF1FCB
:1021B000F08FFF1F5CB1FF1FC0B0FF1FCCB0FF1F2F
:1021C0002497FF1F3492FF1F54B1FF1FECB0FF1F75
:1021D00047B3FF1F6CB8FF1F00B9FF1F8CC2FF1F62
:1021E000A0C7FF1FFCDCFF1FE0B0FF1F2DE9F0417F
:1021F000DFF8A880234F98F80030052282B03A70AB
:102200007BB1214E3568ADB1A84720B900242046E6
:1022100002B0BDE8F08100242046346002B0BDE881
:10222000F081FFF70DFF0028EBD10124204602B01A
:10223000BDE8F081154B18780238FFF72BF82846D7
:10224000FEF794FBFFF716F804460028DED0104B8B
:102250001B68012B06DD023B0E4A52F82330336027
:102260002C46D4E70C4BD3F8080E402203688DE8C7
:10227000240029461E6C2A468023B04788F8005067
:102280003D70C4E7ADB0FF1F84AEFF1FB9A0FF1FB4
:10229000CCB0FF1FA48DFF1FB0C7FF1FECB0FF1F06
:1022A0002DE9F04FA44BA54D1B78032283B02A7073
:1022B000002B00F0A580A24BA24E1F6897F8464065
:1022C000F86CC4F34114022C00F0B78013F006FB45
:1022D0008046B7F94A00B7F948B013F0FFFA8246D2
:1022E000386D13F0FBFA8146CBF1180013F0F6FAC3
:1022F000514613F0FBFB494613F044FB414613F0F3
:1023000039FA13F005FD3060CBF1600013F0E6FA06
:10231000514613F0EBFB494613F034FB414613F0F2
:1023200029FA13F0F5FCDFF85492C9F80000864949
:10233000864ADFF84CA2B7F9043008787988CAF8E1
:1023400000101360FEF7A6FFFFF720F9FEF792FFDB
:10235000804600283CD0DFF82C82D8F80000012805
:1023600040F3C580022800F0BC80032800F0B38051
:102370003568D9F80000022CA0EB050000F08F8032
:1023800013F0ACFA0446284613F0A8FA2146054695
:10239000204613F0EFF96E4913F0A8FB01462846DA
:1023A00013F0E6F913F0B4FC6A490546204613F031
:1023B000E9FA674913F09AFB13F0AAFC664B1B6815
:1023C0004FF000085D609860404603B0BDE8F08FB4
:1023D0002B78032BF8D1BAF80000FEF7C5F85F4B55
:1023E00093F8B13D002BEFD00028EDD05C4B1A786C
:1023F0008242E9D0DFF88C811870C8F80000AEE79F
:10240000FFF71EFE044600287FF455AF534D554993
:102410004FF00108FF2205F6793085F8788B14F02B
:10242000BDFB4FF4FA621123A5F8804CA5F8844C4B
:10243000C5F87C2CA5F8823CC6E713F04FFA83461A
:10244000B7F94A00B7F948A013F048FA8146386D49
:1024500013F044FA8046CAF10C0013F03FFA4946E3
:1024600013F044FB414613F08DFA594613F082F9FC
:1024700013F04EFC3060CAF1300013F02FFA4946D9
:1024800013F034FB414613F07DFA594613F072F90C
:1024900013F03EFCDFF8E490C9F8000047E713F0C2
:1024A0001DFA0446284613F019FA2F49054620461E
:1024B00013F01CFB0146284613F05AF913F028FCD0
:1024C0002A490546204613F05DFA274913F00EFB12
:1024D00013F01EFC72E7DAF800003568C9F8000056
:1024E00049E7DAF800503560D9F8000043E71B4BA4
:1024F000D3F8080E002203680192402100911C6C61
:1025000011468023A0470E4B1868194B38301978B4
:10251000FFF740FDD8F800303BB90F4B1549164A7C
:102520001B680968126859609A60034A0023137097
:102530002B704FF0010847E7ECB0FF1FADB0FF1F55
:1025400080C2FF1F24B1FF1FB8A1FF1F3492FF1FDD
:102550000000C0400000204150B1FF1FB0C7FF1F66
:1025600054B1FF1FF4A80100000040400000A0404B
:10257000C0B0FF1F8CC2FF1FA0C7FF1F28B1FF1FE5
:102580002497FF1FCCB0FF1F10B582B002AB42F200
:10259000BD6243F8042D0446017004221846002150
:1025A0000FF0B2FE2046012202210FF0ADFE032003
:1025B00002B010BD2DE9F041804682B018F8041B2E
:1025C000744D754F0446FFF7DFFF042206460146AF
:1025D00040460FF099FE311D04F1080004220FF06F
:1025E00093FE06F1080104F10C0004220FF08CFEAA
:1025F00006F10C0104F1100004220FF085FE06F133
:10260000100104F1140004220FF07EFE06F1140103
:1026100004F1180004220FF077FE06F1180104F10E
:102620001C0004220FF070FE06F11C0104F12000D2
:1026300004220FF069FE06F1200104F13500692241
:102640000FF062FE06F1890104F1280004220FF068
:102650005BFE06F18D0104F12C0001220FF054FE07
:1026600006F18E0104F1300004220FF04DFE06F158
:10267000920104F1340001220FF046FE0D2147487B
:1026800011F012FB00230A222178284611F0CEFD1A
:102690000221434811F008FB6168284611F006FE4C
:1026A0003846012111F000FBA168284611F0FEFD1B
:1026B0003846012111F0F8FAE168284611F0F6FDDC
:1026C0003846012111F0F0FA2169284611F0EEFD9B
:1026D0003846012111F0E8FA6169284611F0E6FD5B
:1026E0003846012111F0E0FAA169284611F0DEFD1B
:1026F0003846012111F0D8FAE169284611F0D6FDDB
:102700003846012111F0D0FA216A284611F0CEFD99
:102710003846012111F0C8FAA06A12F001FD4FF00D
:10272000020802460B46CDF80080284611F0C8FD8D
:102730003846012111F0B8FA94F92C10284611F00E
:10274000B5FD3846012111F0AFFA00230A2294F8B2
:102750003410284611F06AFD3846012111F0A4FA20
:10276000206B12F0DDFCCDF8008002460B462846B7
:1027700011F0A6FD3846012111F096FA06F19301F9
:10278000284611F093FD284611F02AFD962002B04C
:10279000BDE8F081E0A3FF1FF0A7010008A9010038
:1027A0008CAE010070B5064684B000200FF048FDE5
:1027B0008DF80E0001200FF043FD8DF80F00BDF8DD
:1027C0000E2042F2BD639A4240F0078102200FF0D2
:1027D00037FD03288ABFFF2330703370F51C0324B4
:1027E00020460FF02DFD0134072C05F8010FF7D11D
:1027F000F51D20460FF024FD01340B2C05F8010FC8
:10280000F7D106F10B0520460FF01AFD01340F2C0D
:1028100005F8010FF7D106F10F0520460FF010FD66
:102820000134132C05F8010FF7D106F113052046EA
:102830000FF006FD0134172C05F8010FF7D106F152
:10284000170520460FF0FCFC01341B2C05F8010F86
:10285000F7D106F11B0520460FF0F2FC01341F2CC6
:1028600005F8010FF7D106F11F0520460FF0E8FC2F
:102870000134232C05F8010FF7D106F13405204669
:102880000FF0DEFC01348C2C05F8010FF7D106F1B6
:10289000270520460FF0D4FC0134902C05F8010FD9
:1028A000F7D120460FF0CCFC06F12F0586F82C005E
:1028B000912420460FF0C4FC0134952C05F8010F3B
:1028C000F7D120460FF0BCFC0C2186F834004848B4
:1028D00011F0EAF900230A223178464811F0A6FCEB
:1028E0000221454811F0E0F97168424811F0DEFC20
:1028F0000121424811F0D8F9B1683E4811F0D6FCE8
:1029000001213E4811F0D0F9F1683A4811F0CEFCAF
:1029100001213A4811F0C8F93169364811F0C6FC76
:102920000121364811F0C0F97169324811F0BEFC3E
:102930000121324811F0B8F9B1692E4811F0B6FC06
:1029400001212E4811F0B0F9F1692A4811F0AEFCCE
:1029500001212A4811F0A8F9316A264811F0A6FC95
:102960000121264811F0A0F9B06A12F0D9FB022427
:1029700002460B4600941F4811F0A2FC01211F489B
:1029800011F092F996F92C101A4811F08FFC0121E0
:102990001A4811F089F900230A2296F834101548D4
:1029A00011F044FC0121154811F07EF9306B12F052
:1029B000B7FB009402460B460E4811F081FC012142
:1029C0000E4811F071F996210A4811F06FFC094880
:1029D00011F006FC962004B070BD1B21084811F0D0
:1029E00063F9044811F0FCFB002004B070BD00BF87
:1029F00034A90100E0A3FF1F8CAE0100F0A7010085
:102A000018A901002DE9F843099C089E0F4690463D
:102A100099461CB1086813F07BF9A0471D4DD5F805
:102A2000040E0EF099FDB5F8B64AB5F8B43A201A7E
:102A300084B29C42A5F8B64A24D094BF06F1004067
:102A40003046396812F096FE4146064613F038F9D2
:102A500058B94946304613F051F968B1C7F80090AB
:102A60000020A5F8B44ABDE8F883C7F8008000202C
:102A7000A5F8B44ABDE8F8833E600020A5F8B44A42
:102A8000BDE8F88341F23423E858BDE8F8430EF07E
:102A900093BC00BFB0C7FF1F2DE9F043284D6B78F2
:102AA000012B85B0274B44D91B68186903F13809FD
:102AB00003F1100412F00EFF234913F017F801463A
:102AC000224813F013F8224913F010F812F09AF983
:102AD00004A9204A41F8040D4FF07E53804601922C
:102AE000009300221C4B1D48FFF78CFF1C4B039FDB
:102AF000187006461449384612F0F8FF014613488C
:102B000012F0F4FF124912F0F1FF13F027F94146D9
:102B10002060384612F0EAFFD9F8001012F032FFB8
:102B20000346C9F800003046C5F8E03A05B0BDE8F4
:102B3000F0831C68206904F13C091034BAE700BF37
:102B4000B0C7FF1F80C2FF1F00007A4400606A47C1
:102B50000000C0416D0900000000FA4308D3FF1FC8
:102B60008C99FF1F70B51F4D6B78022B84B032D04B
:102B7000032B29D0012B02D000231B7AFFDE2B78F8
:102B80004FF4987404FB035404F5827494F908001C
:102B900012F0A4FE04A9144A41F8040D4FF07E532C
:102BA00001920093114A124B1248FFF72BFF124B70
:102BB00006461E70039813F0ABF840B2207285F8F9
:102BC000E40A304604B070BD2B784FF4987404FBCF
:102BD0000354A434DAE72B784FF4987404FB0354BD
:102BE0004034D3E7B0C7FF1F6D0900000000A0C04C
:102BF0000000A04008D3FF1F8C99FF1F2DE9F84368
:102C0000099CDDF820900E4690461F460CB10868DE
:102C1000A0471C4DD5F8040E0EF09EFCB5F8B64A40
:102C2000B5F8B43A201A84B29C42A5F8B64A21D02D
:102C3000E01A12F053FE494612F0A4FE81463068B5
:102C400012F04CFE0146484612F094FD13F060F875
:102C5000404508DB8742A8BF074637600020A5F83B
:102C6000B44ABDE8F883C6F800800020A5F8B44A4D
:102C7000BDE8F88341F23423E858BDE8F8430EF08C
:102C80009BBB00BFB0C7FF1F2DE9F047224CBDF82A
:102C90002090099D0646D4F8040E0F4690469A46A9
:102CA0000EF05AFCB4F8B63AB4F8B41A184480B22C
:102CB000A4F8B60A884296F861221BD2AB5C013BAD
:102CC000DBB22F2B98BF3923AB5428460A220021B0
:102CD00014F034F84045386013DAB4F8B60AC7F88F
:102CE000008041F23423A4F8B40AE058BDE8F0476C
:102CF0000EF062BBF5D95AB909F1FF3986F8619235
:102D0000EFE75045C8BFC7F800A0B4F8B60AE8E737
:102D1000013A86F86122E4E7B0C7FF1FF8B5204CFE
:102D20000546D4F8040E0E4617460EF015FCB4F80E
:102D3000B63AB4F8B41A184480B2A4F8B60A95F8B2
:102D400061228842B35C1ED20133DBB213F0800FE4
:102D500018BF2023B354B4F8B60AA4F8B40A41F259
:102D60003423E0580EF028FB60B195F86132013F42
:102D7000BB4207D013B93278202A0ED0013385F830
:102D800061320020F8BDE8D9013BDBB21F2B98BFB0
:102D90007F23B354B4F8B60ADFE73370F8BD00BF41
:102DA000B0C7FF1FF0B5104883B0D0F8085EBDF87B
:102DB000206008461F46144613F082FE04EB4404CC
:102DC000A4002A68033400EB400312210020019084
:102DD000009104EB43031BB2146C39B2284632B2A3
:102DE000A04703B0F0BD00BFB0C7FF1F2DE9F047FB
:102DF000314D82B01F468946BDF82860D5F8080ECF
:102E00000121144607F102080CF0D8FDD5F8080E90
:102E1000002201210CF0D8FD1FFA88F8721D0FFA6C
:102E200088F112B2D5F8080E0CF0C4FDD5F808AE42
:102E3000484613F045FEDAF8003002465B68494622
:102E400050469847504611F0CBF9D5F8080E0221AC
:102E50000CF0B4FDD5F8080E002201210CF0B4FDF1
:102E6000484613F02DFE00EB400008EB4001721CB9
:102E700009B212B2D5F8080E0CF09CFD484613F0CA
:102E80001FFE04EB4404D5F8085EA400D5F800E06A
:102E900000EB40000334012112220191009204EB67
:102EA00040031BB232B239B22846DEF84C40A0478C
:102EB00002B0BDE8F08700BFB0C7FF1F2DE9F04F9B
:102EC00085B09846BDF83890BDF83CA0CDF800A07C
:102ED0000C464B460546164642460391FFF762FFF5
:102EE0002146CDF800A04B4642462846FFF77EFF1C
:102EF000244F00240BE0D7F8080E16F80B100368D7
:102F00001B68984795F861325B4512D00134304612
:102F100013F0D6FD1FFA84FB584512D995F861329B
:102F20005B45E8D101220021D7F8080E0CF04CFDDA
:102F3000E1E7144B00220121D3F8080E0CF044FD08
:102F4000E4E7D7F8084E1049236800225B68204662
:102F50009847204611F044F9424631462846FFF78B
:102F6000DDFE58B14B462846CDF800A042460399F5
:102F7000FFF718FFFF2385F86132012005B0BDE897
:102F8000F08F00BFB0C7FF1F88AA0100F0B504464C
:102F900090F8610287B0FF28BDF83050BDF834606A
:102FA0000AD08DE860002046FFF788FF10B1FF23AC
:102FB00084F8613207B0F0BD002084F86102104649
:102FC00005930491039213F07BFD059B039A0499EA
:102FD0009842E6D207DA104402EB030E202700F8ED
:102FE000017B7045FBD10020D054DAE7102B2DE98E
:102FF000F84305460C464FF0000E53D8724501F8D1
:1030000003E055DB9E4518DADFF8B4C0E718012667
:1030100092FBF6F18CFB0108C817C0EBA80000EB8F
:103020008000A1EB4001013B06EB86063031734581
:103030004FEA460607F8011DEADCDFF88880002722
:10304000C1460AE0D8F8080EA15D03681B689847DE
:1030500095F86132B34211D00137204613F030FDAC
:10306000BEB2B04211D995F86132B342EAD1012221
:103070000021D8F8080E0CF0A7FCE3E7002201219C
:10308000D9F8080E0CF0A0FCE6E7D8F8084E0B497A
:10309000236820465B68002298472046BDE8F84335
:1030A00011F09EB8724581F810E04FF01003ABDAD2
:1030B0002D21524221704FF0010EA3E788AA010092
:1030C00067666666B0C7FF1F2DE9F04788B0044603
:1030D000BDF84450BDF84860BDF84C70009790466C
:1030E00089462A469A463346FFF75CFE33462A460F
:1030F000494620460097FFF779FE2B46D8F8002076
:10310000204603A9FFF772FF94F86132FF2B17D016
:1031100003AB0193009552464146109B2046FFF7B2
:10312000B3FD50B13346204600972A464946FFF783
:1031300039FEFF2384F86132012008B0BDE8F08732
:1031400000224FF07E530192009352464146109B5D
:103150002046FFF753FDE4E7F0B51B4A11784FF422
:10316000987303FB01F3D11887B091F84E00C006A5
:1031700024D101F58874B1F8101192F8B93D124AC2
:10318000114D0591FF2B04BF032382F8B93D2D2774
:103190004FF47A72002304268DE844000B4903970C
:1031A00005F65830029305AAFFF78EFF10B1FF23F2
:1031B00085F8B93D059B238007B0F0BD1344B1F8F5
:1031C0004C1003F14C04D8E7B0C7FF1F44A901001D
:1031D0002DE9F0432A4D2B49D5F8E80A284E87B04F
:1031E00012F0D0FB12F094FD95F8B93D0590FF2B3D
:1031F00004BF042385F8B93D234B00932D21002300
:1032000005220391019206F65830029305AA1F4940
:10321000FFF75AFF804630B3FF2386F8B93D059883
:1032200012F05CFB174912F061FC34460146C6F807
:10323000E80A06F51867B14601E0D9F8E81A95F8EA
:10324000EC6AD4F8C8000EF093FE304612F042FB50
:1032500004F5987454F8683CA7421861EDD14046D3
:1032600007B0BDE8F083059812F038FB054912F06D
:103270003DFCC6F8E80A404607B0BDE8F08300BF51
:10328000B0C7FF1F0050C3473F420F0050A90100C5
:103290002DE9F0431C4D1D4995F8EC3A87B006AA7C
:1032A000042642F8043D2D2700234FF480748DE856
:1032B000500005F6583003970293FFF705FF9DF87D
:1032C000146085F8EC6A814618B9484607B0BDE835
:1032D000F0832C4605F51867A84601E098F8EC6ADB
:1032E000D4F8C800D5F8E81A0EF042FE304612F0C5
:1032F000F1FA04F5987454F8683CBC421861EDD1B9
:10330000484607B0BDE8F083B0C7FF1F5CA90100C5
:10331000F0B52E4D6B78022B87B030D0032B27D021
:10332000012B02D000235B78FFDE2B784FF49872DC
:1033300002FB035303F5827306AA5B78234E42F81F
:10334000043D03272D23002401977F270393204961
:103350000294234606F658300097FFF7B5FE6B78C7
:10336000022B28D0032B1CD0012B0FD06470FFDE62
:103370002B784FF4987202FB0353A433DCE72B78CD
:103380004FF4987202FB03534033D5E733784FF480
:10339000987202FB036303F58273059A5A7007B0B3
:1033A000F0BD32784FF4987303FB0263A433059A9F
:1033B0005A7007B0F0BD32784FF4987303FB026384
:1033C0004033059A5A7007B0F0BD00BFB0C7FF1F69
:1033D00064A90100F0B52E4C6378022B87B030D081
:1033E000032B27D0012B02D000231B78FFDE23788C
:1033F0004FF4987202FB034303F5827306AA1B780D
:1034000042F8043D224E23492D2303930025102327
:1034100003278DE8880006F6583001230295FFF750
:1034200053FE6378022B28D0BB421CD0012B0FD057
:103430002D70FFDE23784FF4987202FB0343A43310
:10344000DCE723784FF4987202FB03434033D5E75F
:1034500033784FF4987202FB036303F58273059A85
:103460001A7007B0F0BD32784FF4987303FB026313
:10347000A433059A1A7007B0F0BD32784FF49873F0
:1034800003FB02634033059A1A7007B0F0BD00BF1A
:10349000B0C7FF1F70A90100F0B5304C6378022B54
:1034A00087B036D0032B2DD0012B02D000235B68D0
:1034B000FFDE23784FF4987202FB034303F5827317
:1034C0005868264E12F024FC06AA2D270321FF235C
:1034D000002542F8040D03970191009306F6583039
:1034E000012302951E49FFF7EFFD6378022B074683
:1034F0002DD0032B24D0012B12D0059812F0EEF919
:103500006860FFDE23784FF4987202FB0343A43314
:10351000D6E723784FF4987202FB03434033CFE79A
:1035200033784FF4987505FB036505F582750598AA
:1035300012F0D4F96860C4F8E00A384607B0F0BD6C
:1035400033784FF4987505FB0365A435EFE73378BE
:103550004FF4987505FB03654035E8E7B0C7FF1FDA
:1035600080A90100F0B52D4C6378022B87B032D0D2
:10357000032B29D0012B02D000231B7AFFDE2378F6
:103580004FF4987202FB034303F5827306AA93F982
:10359000083042F8043D214E21492D230393002594
:1035A000782304278DE8880006F658306FF07703FB
:1035B0000295FFF789FD6378022B28D0032B1FD0DB
:1035C000012B0FD02D72FFDE23784FF4987202FB8F
:1035D0000343A433DAE723784FF4987202FB0343E2
:1035E0004033D3E733784FF4987202FB036303F55B
:1035F00082739DF914201A7284F8E42A07B0F0BD92
:1036000032784FF4987303FB0263A433F1E7327806
:103610004FF4987303FB02634033EAE7B0C7FF1F20
:103620008CA90100F0B5314D6B78022B87B033D0F7
:10363000032B2AD0012B03D0002393F82030FFDE88
:103640002B784FF4987202FB035303F5827306AA9A
:1036500093F82030254E42F8043D03272D23002403
:1036600001977F27039322490294234606F6583098
:103670000097FFF729FD6B78022B2BD0032B1ED070
:10368000012B10D084F82040FFDE2B784FF4987285
:1036900002FB0353A433DAE72B784FF4987202FB52
:1036A00003534033D3E733784FF4987202FB03633C
:1036B00003F58273059A83F8202007B0F0BD3278B5
:1036C0004FF4987303FB0263A433059A83F8202018
:1036D00007B0F0BD32784FF4987303FB02634033B8
:1036E000059A83F8202007B0F0BD00BFB0C7FF1FC8
:1036F0009CA90100F0B5314D6B78022B87B033D017
:10370000032B2AD0012B03D0002393F82130FFDEB6
:103710002B784FF4987202FB035303F5827306AAC9
:1037200093F82130254E42F8043D03272D23002431
:1037300001977F27039322490294234606F65830C7
:103740000097FFF7C1FC6B78022B2BD0032B1ED008
:10375000012B10D084F82140FFDE2B784FF49872B3
:1037600002FB0353A433DAE72B784FF4987202FB81
:1037700003534033D3E733784FF4987202FB03636B
:1037800003F58273059A83F8212007B0F0BD3278E3
:103790004FF4987303FB0263A433059A83F8212046
:1037A00007B0F0BD32784FF4987303FB02634033E7
:1037B000059A83F8212007B0F0BD00BFB0C7FF1FF6
:1037C000A8A90100F0B5474C6378022B87B047D019
:1037D000032B3BD0012B03D0002393F82030FFDED6
:1037E00023784FF4987202FB034303F5827393F836
:1037F0002020D20193F8213094F8B91D3948394D71
:103800001344FF29059304BF042380F8B93D43F610
:10381000FF722D27002305268DE8440032490397C7
:1038200005F65830029305AAFFF74EFC10B1FF23AE
:1038300085F8B93D63782B4C022B3FD0032B2FD05A
:10384000012B17D0002383F82030FFDE23784FF4BC
:10385000987202FB0343A43393F82020D201C9E7F6
:1038600023784FF4987202FB0343403393F82020EF
:10387000D201BFE7237805994FF4987202FB034207
:10388000002902F582720B4615DBDB1182F820302D
:10389000164B0B40002B1DDB82F8213007B0F0BD2A
:1038A000237805994FF4987202FB0342002902F134
:1038B000A4020B46E9DA01F17F03E6E723780599D4
:1038C0004FF4987202FB0342002902F140020B46BA
:1038D000DBDAF0E7013B63F07F03013382F821304C
:1038E00007B0F0BDB0C7FF1FB4A901007F00008082
:1038F000F0B52E4D6B78022B87B030D0032B27D03C
:10390000012B02D000239B78FFDE2B784FF49872B6
:1039100002FB035303F5827306AA9B78234E42F8F9
:10392000043D03272D230024019777270393204983
:103930000294234606F658300097FFF7C5FB6B78D4
:10394000022B28D0032B1CD0012B0FD0A470FFDE3C
:103950002B784FF4987202FB0353A433DCE72B78E7
:103960004FF4987202FB03534033D5E733784FF49A
:10397000987202FB036303F58273059A9A7007B08D
:10398000F0BD32784FF4987303FB0263A433059AB9
:103990009A7007B0F0BD32784FF4987303FB02635E
:1039A0004033059A9A7007B0F0BD00BFB0C7FF1F43
:1039B000BCA90100F0B52E4D6B78022B87B030D03A
:1039C000032B27D0012B02D00023DB78FFDE2B78DE
:1039D0004FF4987202FB035303F5827306AADB7857
:1039E000234E42F8043D03272D23002401977F270F
:1039F000039320490294234606F658300097FFF7B8
:103A000063FB6B78022B28D0032B1CD0012B0FD02B
:103A1000E470FFDE2B784FF4987202FB0353A4335B
:103A2000DCE72B784FF4987202FB03534033D5E761
:103A300033784FF4987202FB036303F58273059A9F
:103A4000DA7007B0F0BD32784FF4987303FB02636D
:103A5000A433059ADA7007B0F0BD32784FF498734A
:103A600003FB02634033059ADA7007B0F0BD00BF74
:103A7000B0C7FF1FC4A9010038B5214C6378022BE1
:103A800028D0032B1FD0012B0FD000201421FEF7CC
:103A900081FA94F8B03D1A4D7BB9012385F8B03D09
:103AA000FFF736FCE8B9002038BD23784FF4987052
:103AB00000FB034000F58270E8E7012BF0D0022BF9
:103AC00015D0012038BD23784FF4987000FB0340D7
:103AD000A430DBE723784FF4987000FB03404030BC
:103AE000D4E794F8B03D013384F8B03DDBE7FFF74D
:103AF00061FF0028D7D0002385F8B03D38BD00BF56
:103B0000B0C7FF1FF0B5304C6378022B87B036D0BA
:103B1000032B2DD0012B02D000235B68FFDE23781E
:103B20004FF4987202FB034303F582735868264EE4
:103B300012F0EEF806AA2D270321FF23002542F8F4
:103B4000040D03970191009306F658300123029566
:103B50001E49FFF7B9FA6378022B07462DD0032BD5
:103B600024D0012B12D0059811F0B8FE6860FFDE5A
:103B700023784FF4987202FB0343A433D6E72378EB
:103B80004FF4987202FB03434033CFE733784FF48E
:103B9000987505FB036505F58275059811F09EFE85
:103BA0006860C4F8E00A384607B0F0BD33784FF4D7
:103BB000987505FB0365A435EFE733784FF49875E6
:103BC00005FB03654035E8E7B0C7FF1F80A901008A
:103BD000F0B52D4C6378022B87B032D0032B29D05F
:103BE000012B02D000231B7AFFDE23784FF498725A
:103BF00002FB034303F5827306AA93F9083042F8E7
:103C0000043D214E21492D230393002578230427C9
:103C10008DE8880006F658306FF077030295FFF7BD
:103C200053FA6378022B28D0032B1FD0012B0FD01F
:103C30002D72FFDE23784FF4987202FB0343A43306
:103C4000DAE723784FF4987202FB03434033D3E75B
:103C500033784FF4987202FB036303F582739DF986
:103C600014201A7284F8E42A07B0F0BD32784FF4B9
:103C7000987303FB0263A433F1E732784FF498732F
:103C800003FB02634033EAE7B0C7FF1F8CA90100C2
:103C900070B5344C637888B000227F21022B0592E6
:103CA000069136D0032B2AD0012B01D0938BFFDE57
:103CB00023784FF4987000FB034000F58270B0F950
:103CC0001C30079306AA05A9FEF710F9254E069A9F
:103CD00000922D2105220025059B0391019206F6F5
:103CE0005830029507AA2049FFF7EEF96378022BB6
:103CF0002ED0032B22D0012B15D0AD83FFDE2378ED
:103D00004FF4987000FB0340A430B0F91C300793C7
:103D1000D8E723784FF4987000FB03404030B0F9A7
:103D20001C300793CEE733784FF4987202FB03639D
:103D300003F58273079A9A8308B070BD32784FF406
:103D4000987303FB0263A433079A9A8308B070BD8B
:103D500032784FF4987303FB02634033079A9A83D7
:103D600008B070BDB0C7FF1FD0A9010070B5344CBA
:103D7000637888B000227F21022B0592069136D00D
:103D8000032B2AD0012B01D0D38BFFDE23784FF4F5
:103D9000987000FB034000F58270B0F91E30079365
:103DA00006AA05A9FEF7A2F8254E069A00922D2133
:103DB00005220025059B0391019206F658300295D5
:103DC00007AA2049FFF780F96378022B2ED0032B36
:103DD00022D0012B15D0ED83FFDE23784FF49870AD
:103DE00000FB0340A430B0F91E300793D8E72378D6
:103DF0004FF4987000FB03404030B0F91E30079339
:103E0000CEE733784FF4987202FB036303F58273B5
:103E1000079ADA8308B070BD32784FF4987303FBC9
:103E20000263A433079ADA8308B070BD32784FF486
:103E3000987303FB02634033079ADA8308B070BDBE
:103E4000B0C7FF1FDCA9010038B50A4D2C783CB182
:103E5000012C08D1FFF78AFF28B100232B7038BD51
:103E6000FFF716FF08B9002038BD01232B7020464C
:103E700038BD00BF4CB1FF1FF0B52F4D6B78022B42
:103E800087B037D0032B2ED0012B02D000235B69E3
:103E9000FFDE2B784FF4987101FB035101F582711D
:103EA00006AA4B6942F8043D4FF02D0E8C69224F53
:103EB000CDF80CE04FF0060ECDF804E0002644F2F9
:103EC000020E1E4B1E49029607F65830CDF800E050
:103ED000FFF7FAF86B78022B26D0032B1DD0012BAD
:103EE0000FD07661FFDE2B784FF4987101FB035100
:103EF000A431D5E72B784FF4987101FB0351403181
:103F0000CEE73B784FF4987202FB037303F582739C
:103F1000059A9C615A6107B0F0BD3A784FF49873E6
:103F200003FB0273A433F3E73A784FF4987303FB6F
:103F300002734033ECE700BFB0C7FF1FFDBFFFFFB8
:103F4000E8A90100F0B5304D6B78022B87B038D06E
:103F5000032B2FD0012B02D000235B69FFDE2B78CF
:103F60004FF4987202FB035303F582735C699869FE
:103F7000254F264B264906AA20444FF02D0E42F825
:103F8000040DCDF80CE04FF0060ECDF804E000264D
:103F900044F2020E07F658300296CDF800E0FFF723
:103FA00093F86B78022B27D0032B1ED0012B0FD058
:103FB0007661FFDE2B784FF4987202FB0353A43333
:103FC000D4E72B784FF4987202FB03534033CDE7CC
:103FD0003B784FF4987202FB037303F58273059AE2
:103FE0005C61141B9C6107B0F0BD3A784FF4987384
:103FF00003FB0273A433F2E73A784FF4987303FBA0
:1040000002734033EBE700BFB0C7FF1FFDBFFFFFE8
:10401000F0A9010038B50A4D2C783CB1012C08D12B
:10402000FFF790FF28B100232B7038BDFFF724FF66
:1040300008B9002038BD01232B70204638BD00BFD1
:104040004CB1FF1FF0B5354C637889B000227F2159
:10405000022B059206913AD0032B2CD0012B01D0D4
:10406000138AFFDE23784FF4987000FB034000F5BD
:104070008270B0F91030B0F91250079306AA05A962
:10408000FDF734FF254F069A00922D2105220026C8
:10409000059B0391019207F65830029607AA204922
:1040A000FFF712F86378022B30D0032B27D0012BB7
:1040B00019D03682FFDE23784FF4987000FB03405E
:1040C000A430B0F91030B0F912500793D6E7237836
:1040D0004FF4987000FB03404030B0F91030079364
:1040E000B0F91250CAE73B784FF4987202FB0373A1
:1040F00003F58273079A5D821A8209B0F0BD3A789F
:104100004FF4987303FB0273A433F3E73A784FF448
:10411000987303FB02734033ECE700BFB0C7FF1F87
:10412000F8A90100F0B5374C637889B000227F21EF
:10413000022B059206913CD0032B2DD0012B01D0F0
:10414000138AFFDE23784FF4987000FB034000F5DC
:104150008270B0F91050B0F912302B44079306AAC0
:1041600005A9FDF7C3FE274F069A00922D210522CF
:104170000026059B0391019207F65830029607AA84
:104180002149FEF7A1FF6378022B33D0032B2AD0FD
:10419000012B1BD03682FFDE23784FF4987000FB92
:1041A0000340A430B0F91050B0F912302B440793FB
:1041B000D5E723784FF4987000FB03404030B0F906
:1041C0001050B0F912302B440793C8E73B784FF4F6
:1041D000987202FB037303F58273079A1D82551BC5
:1041E0005D8209B0F0BD3A784FF4987303FB027317
:1041F000A433F2E73A784FF4987303FB0273403329
:10420000EBE700BFB0C7FF1F04AA010038B50A4D95
:104210002C783CB1012C08D1FFF784FF28B1002392
:104220002B7038BDFFF70EFF08B9002038BD012301
:104230002B70204638BD00BF4CB1FF1F2DE9F04F59
:1042400089469DB0D0F864120890BDF898A09DF8FA
:104250009C700D921E4629B9754B1B680F930F9BDE
:10426000C0F86432002F00F0BD80724B3D1F83FB0D
:104270000523A3EBE5750235ED00ABB2CAF13F05AE
:104280009D424846A8BF1D4612F01AFC00EB4000B4
:10429000430004339BB2DFF8A081D8F8080E9F4298
:1042A0002AB228BF1F460C9203680092002231B246
:1042B0000FFA8AF401923AB2D3F840B00B92134647
:1042C000099122460A94D847D8F8080E01210BF02C
:1042D00075FB0022D8F8080E01210BF075FB554B39
:1042E000033F83FB07230236ADB2A3EBE77733B27C
:1042F0000593EB1F07931CAB00240AF1040A3B440F
:104300001FFA8AFA06932546A34607E0079BB3EBFC
:10431000C20F2EDD6DB3B4F5807F2AD00AEBC40244
:1043200012B20599D8F8080E0BF044FB09EB050111
:104330003A4611A812F032FC069BD8F8086E03F832
:104340002CBC11A812F0BCFB336802465B6811A9B3
:104350003046984730460FF043FF484612F0B0FB16
:10436000C01BEB19854204F102029DB204F1010465
:10437000CCD9D8F8080E0C9A036800920122019259
:1043800009A9DC6C2C4D0EC9A047089B93F82E316F
:10439000002B38D1D8F8080E0CF094F941F23423F0
:1043A00058F803000DF008F850B9214A089B12682C
:1043B000D3F8643210920D99109A19448A420ED99A
:1043C000D8F8080E0C9B056800930024019409A9F5
:1043D0000EC92D6CA847089B0120C3F864421DB08C
:1043E000BDE8F08F484612F06BFB00EB4000CAF1CD
:1043F0003F0543000433C6F17F07102D9BB2A8BFD1
:104400001025FFB247E7089ED5F8080E96F83C4104
:10441000D6F83431B6F93221B6F93011B6F93A513D
:104420000294B6F938418DE830000BF087F8B1E717
:104430000CDDFF1FABAAAA2AB0C7FF1F2DE9F0476A
:104440000E4601789DF820800829044691464ED0FA
:104450003C4AD0F8C400D2F8BC7AD2F8C81A1D463B
:10446000D2F8C03A6365D2F8C43A27650127C4F888
:10447000B430C4F8B81084F89C7092F8ECAAD2F862
:10448000E81A0DF075FD504611F024FAD4F8C42056
:10449000162310610021184684F8656023710EF020
:1044A00057F90026102084F8680084F8C990E68047
:1044B00031460EF04DF9A4F86A6084F8D46084F8AF
:1044C000CC5028460DB9BDE8F08702210EF040F926
:1044D00084F81081B8F1000F02D13846BDE8F087AA
:1044E000404639460EF034F93846BDE8F087154BA2
:1044F000D3F8CC1AD3F8D82AD3F8D00AD3F8D43AC0
:104500002165102700210D466065C4F8B430C4F859
:10451000B820384684F8656027710EF019F93846DE
:1045200084F8687084F8C990E58029460EF010F987
:1045300084F8CC50A4F86A5084F8D4502846BDE8DA
:10454000F08700BFB0C7FF1F2DE9F8430446884637
:1045500016460EF003F92369A06113B9E369002B35
:1045600044D072B6DFF8AC90254FD9F800103B6804
:104570002448A569E269CB1A80FB0310D917C1EB67
:10458000A000062184F824101F49C5EB030EAA1AC7
:104590000B60236A626185181C4AA06A7344A9B241
:1045A00013600DF0D7FCA26A6369D26A002E62F331
:1045B0000F0528461FDDB040B340D9F800103A6817
:1045C0000B440244C9F800303A6011F083F94146C7
:1045D00011F08CFA0E4911F089FA11F0BFFBA369B2
:1045E0002061E36162B60120BDE8F8832062E061EA
:1045F0001846BDE8F883E0D07642F040F340DCE7AF
:1046000058B1FF1F6766666610B9FF1FE8DCFF1F21
:104610000000C040F0B0FF1F10B50446022094F81F
:10462000611001F001010EF07FF894F86110032091
:10463000C1F340010EF078F894F861100420C1F342
:104640008001BDE810400EF06FB800BF30B50F4BD1
:104650000C4683B09C424FF000014FF07F020546AC
:1046600008BFB0F904408DE80600383001AA694659
:10467000FDF73CFCB5F95400844204DBB5F9560063
:10468000A042A8BF204603B030BD00BFF1D8FFFF55
:1046900038B590F82C31032B36D8DFE803F002113F
:1046A00004021A4838BD90F8AE3003F01F03062B01
:1046B000B0F908301DD0B0F96C1003FB01F104E033
:1046C000B0F90810B0F96C30194490F84A301A4625
:1046D00004466FF3461280F84A200430C3F34115B4
:1046E000FFF7B4FF94F84A3065F3461384F84A3074
:1046F00038BDB0F96C20064903FB02F381FB0321AE
:10470000DB17C3EB6111E0E70049DEE7F1D8FFFFFB
:104710001F85EB51012A08B53DDD90F8463003F0C6
:104720001F03192B40D8DFE803F0101217101010E8
:10473000101C1010101010262610101010102E2E05
:104740000D0D10170B7880F83A30104608BD0B8815
:10475000A0F85A30104608BD0B7880F83930104662
:1047600008BD124BD3F8E01AC16393F9E43A80F81C
:104770004030104608BD0B7880F859304B7880F8EF
:104780005830104608BD0B7880F839304B7880F8E7
:104790003B30104608BD222105480FF085FA054838
:1047A0000FF01EFD002008BD002008BDB0C7FF1F90
:1047B00014AA0100E0A3FF1F2DE9F84390F834602C
:1047C000554D564C002E90460ABF2C460A270D2701
:1047D0007D2900F29F80DFE801F0479D9D9D9D9D12
:1047E0009D9D9D9D9D9D9D9D9D9D9D9D9D9D9D9DF9
:1047F0009D9D9D9D9D9D9D9D9D9D9D9D9D9D9D9DE9
:104800009D9D9D9D9D9D9D9D9D9D9D9D9D9D9D9DD8
:104810009D9D9D9D9D9D9D9D9D9D9D9D9D9D9D9DC8
:104820009D9D9D9D9D9D9D9D9D9D9D9D9D9D9D9DB8
:104830009D9D9D9D9D9D9D9D9D9D9D9D9D9D9D9DA8
:104840009D9D9D9D9D9D9D9D9D9D9D5E6D636872A1
:104850007B8085898D92973F98F8003080F84630AC
:1048600000231846BDE8F88307EB4707033FDFF84E
:10487000B0900646274445462379617919F80330FC
:104880002A463046FFF798FF0334A7420544F3D188
:10489000C8EB0503E5E798F8002080F83820E0E74A
:1048A00098F8002080F84320DBE7B8F80020A0F853
:1048B0004420D6E798F8002080F84220D1E798F805
:1048C000001090F8462061F3040280F84620C8E703
:1048D000B8F90020A0F84820C3E7B8F90020A0F8F4
:1048E0004A20BEE7D8F80020C264BAE7D8F8002012
:1048F0000265B6E7B8F90020A0F85420B1E7B8F98E
:104900000020A0F85620ACE71A464146BDE8F8431F
:10491000FFF700BF0023A4E7988FFF1FAC94FF1F91
:10492000F09FFF1F10B58AB00446242201A80DF0A5
:10493000A1FC01AA204624230021FFF73DFF94F8A3
:104940003430002B14BF0E2018200AB010BD00BF59
:10495000012A08B533DD90F8463003F01F03192B08
:1049600036D8DFE803F010121710101010101010D6
:104970001010101C1C101010101024240D0D1017F6
:1049800090F83A300B70104608BDB0F85A300B80E2
:10499000104608BD90F839300B70104608BD90F8ED
:1049A00059300B7090F858304B70104608BD90F895
:1049B00039300B7090F83B304B70104608BD222107
:1049C00004480FF071F904480FF00AFC002008BDFC
:1049D000002008BD38AA0100E0A3FF1F2DE9F8431D
:1049E00090F83450604E614C002D90460ABF34461A
:1049F0000A270D277D2900F2B380DFE801F046B1D8
:104A0000B1B1B1B1B1B1B1B1B1B1B1B1B1B1B1B196
:104A1000B1B1B1B1B1B1B1B1B1B1B1B1B1B1B1B186
:104A2000B1B1B1B1B1B1B1B1B1B1B1B1B1B1B1B176
:104A3000B1B1B1B1B1B1B1B1B1B1B1B1B1B1B1B166
:104A4000B1B1B1B1B1B1B1B1B1B1B1B1B1B1B1B156
:104A5000B1B1B1B1B1B1B1B1B1B1B1B1B1B1B1B146
:104A6000B1B1B1B1B1B1B1B1B1B1B1B1B1B1B15E89
:104A700073656C7A838A91979DA4AB3F90F846301A
:104A800088F800300020BDE8F88307EB4707033FB4
:104A9000DFF8DC900646274445462379617919F80A
:104AA00003302A463046FFF799FF0334BC420544E1
:104AB000F3D1C8EB0500BDE8F88390F8382088F8FA
:104AC00000201846BDE8F88390F8432088F80020BD
:104AD0001846BDE8F883B0F84420A8F8002018462E
:104AE000BDE8F88390F8422088F800201846BDE819
:104AF000F88390F84620C2F3040288F80020184694
:104B0000BDE8F883B0F94820A8F800201846BDE8B1
:104B1000F883B0F94A20A8F800201846BDE8F883C9
:104B2000C26CC8F800201846BDE8F883026DC8F8CA
:104B300000201846BDE8F883B0F95420A8F80020FA
:104B40001846BDE8F883B0F95620A8F800201846AA
:104B5000BDE8F8831A464146BDE8F843FFF7F8BEC2
:104B60000020BDE8F88300BF988FFF1FAC94FF1FA3
:104B7000F09FFF1FF0B58BB00E4601AA2423002141
:104B80000746FFF72BFF31460246054601A80DF008
:104B9000BBFB97F834301648002B4FF00D0114BFC3
:104BA0000E2418240FF080F800230A2239781148C7
:104BB0000FF03CFB022110480FF076F831460D480B
:104BC0000FF074FB01210D480FF06EF829460948DB
:104BD0000FF06CFB012109480FF066F821460548EB
:104BE0000FF064FB03480FF0FBFA20460BB0F0BD5A
:104BF0005CAA0100E0A3FF1F8CAE0100F0A701003A
:104C0000012A08B524DD90F842300E2B29D8DFE8C0
:104C100003F01A1A0808100E0E0E0E0E0E0E0E0ECF
:104C20000E000B7880F835304B7880F8373010461E
:104C300008BD0D4BD3F8E01A816393F9E43A80F88C
:104C40003C30104608BD0B7880F83630104608BD61
:104C5000222106480FF028F805480FF0C1FA00207D
:104C600008BD002008BD00BFB0C7FF1F14AA010087
:104C7000E0A3FF1F80292DE9F843144641D00AD94B
:104C800082292FD022D3832932D11A462146BDE86A
:104C9000F843FFF7B5BF7E292DD01DD841BB1C4D71
:104CA000DFF870900646174605F1120814462B7976
:104CB000697919F8033022463046FFF7DBFF0335E8
:104CC00045450444F3D1E01BBDE8F8831288A0F801
:104CD00040201846BDE8F883127880F83E20184638
:104CE000BDE8F883127880F842201846BDE8F883C2
:104CF0000020BDE8F883127880F834201846BDE81B
:104D0000F883127880F83F201846BDE8F88300BF8A
:104D10009494FF1FF09FFF1F10B584B0044610222B
:104D200068460DF0A7FA6A46204610230021FFF7D7
:104D3000A1FF082004B010BD70B5054608460E4618
:104D40000DF07EFAB41C85F82C01214605F1CC004B
:104D5000FFF7E2FF04442146281DFFF7E3FD04446A
:104D6000214605F16800FFF7DDFD2044831B2A780A
:104D7000024903480FF04CFA302070BD6CAA0100C4
:104D8000E0A3FF1F012A10B514DD90F842400E2C5D
:104D900017D80123A34047F6F0741C409CB913F0C8
:104DA0000C0F12D113F003030BD090F836300B70B8
:104DB000104610BD222109480EF076FF08480FF07A
:104DC0000FFA002010BD104610BD90F835300B7062
:104DD00090F837304B70104610BD00BF14AA010088
:104DE000E0A3FF1F80292DE9F843144641D00AD9DA
:104DF00082292FD022D3832932D11A462146BDE8F9
:104E0000F843FFF7BFBF7E292DD01DD841BB1C4DF5
:104E1000DFF870900646174605F1120814462B7904
:104E2000697919F8033022463046FFF7DBFF033576
:104E300045450444F3D1E01BBDE8F883B0F84020B9
:104E400022801846BDE8F88390F83E20227018466C
:104E5000BDE8F88390F8422022701846BDE8F88338
:104E60000020BDE8F88390F8342022701846BDE891
:104E7000F88390F83F2022701846BDE8F88300BF01
:104E80009494FF1FF09FFF1F2DE9F04184B00F465F
:104E900010236A4600218046FFF7A4FF184C194DE5
:104EA00002460646394668460DF02EFA0E2116488F
:104EB0000EF0FAFE00230A2298F8001020460FF0A8
:104EC000B5F9022111480EF0EFFE394620460FF0E9
:104ED000EDF9284601210EF0E7FE314620460FF09D
:104EE000E5F9284601210EF0DFFE082120460FF0EB
:104EF000DDF920460FF074F9082004B0BDE8F08118
:104F0000E0A3FF1FF0A701008CAA01008CAE0100F6
:104F100070B5054682B002A895F82C3100F8013D25
:104F200001228C1C0E460DF0EFF9214605F1CC0054
:104F3000FFF7AAFF04442146281DFFF71BFE044487
:104F4000214605F16800FFF715FE132104441648B9
:104F50000EF0AAFE00230A22297814480FF066F901
:104F6000022113480EF0A0FE314610480FF09EF9C2
:104F7000A61B01210F480EF097FE31460B480FF09B
:104F800095F901210B480EF08FFE214607480FF0DE
:104F90008DF906480FF024F92B78082B0CBF30460A
:104FA000302002B070BD00BF9CAA0100E0A3FF1F2B
:104FB0008CAE0100F0A7010070B5FA2982B00C4652
:104FC000054639D3FB2923D9FC2935D1214E224965
:104FD000002385F82030142206F6984011F0DEFDFB
:104FE0001E4B1B68019342F21072019BC6F8982D6C
:104FF000C6F89C3D200240F00F000EF025FBAB6A86
:105000005B6D1868036821461B68984702B070BD45
:10501000104E1349012385F82030142206F69840DB
:1050200011F0BCFD0D4B1B68009342F21072009B07
:10503000C6F8982DC6F89C3D04F10803DBB2072B97
:10504000E4D8012202FA03F313F0DD0FD2D102B04B
:1050500070BD00BFB0C7FF1FBCAA01000CDDFF1F61
:10506000B0AA010038B504460DF078FB236A226926
:10507000C31A9A42054616D36369E26903EB4303F8
:10508000AD1AAB420ED20C4D0C480D490D4A00230F
:105090002B602361E3612362636184F82430036041
:1050A0000B60136038BDF8210748FFF785FF226ABF
:1050B000236913442362DFE7E8DCFF1F10B9FF1FF9
:1050C000F0B0FF1F58B1FF1F70D5FF1F2DE9F84F3B
:1050D0008A46002961D0404BDFF820813F4AC8F85A
:1050E000102093E8030000230A0CC8F80000A8F879
:1050F000041088F8062088F814300127384DC82499
:1051000005F1690B07E0BAF1000F36D1073501341C
:10511000AB45E4B220D02B78002BF4D07E0006EB18
:10512000070908EBC90948460622294611F036FD51
:10513000BAF1000F2BD12B4BC9F810303E4408EBCD
:10514000C6060735002301373475AB4504F1010469
:10515000FFB2B371E4B2DED1234B244C93E80700D5
:1051600007EB470308EBC308A8E803000023A8F8EF
:10517000002063713846BDE8F88F1D4A7E0092E832
:105180000300F31908EBC30248F833009180F319C8
:1051900008EBC303174A1A61D0E7DFF860800E4AB4
:1051A00088F8141092E80300134BC8F800000E0CA6
:1051B000A8F8041093E8070008F1180303C3094D89
:1051C000064CC8F8285088F8066088F82CA0C8F863
:1051D00010401A80022791E7D8AA0100615300000D
:1051E0009DD2FF1F61540000CCAA010084C2FF1FA2
:1051F000C4AA0100A9530000E0AA010020B9FF1FC2
:105200002DE9F84F0021FFF761FFDFF870B0DFF8FC
:105210006090DFF86C80824605460126002705EB8A
:10522000450409EBC404204626755946C4F810808D
:105230000622013611F0B2FC0135302EA771EDB215
:105240000BF1070B0A4B4FF00004E8D1094A0A4D55
:1052500007CA0AF12F0A5FFA8AFA0AEB4A0603EB39
:10526000C60303C31A806C715046BDE8F88F00BFB7
:1052700020B9FF1FECAA010084C2FF1FCFA30100C9
:1052800061540000324B2DE9F04799424FF0000481
:10529000824644614DD02F4B99420E4650D0A046D5
:1052A000DFF8B89000E00134304609F015FE844282
:1052B0002146304618DA09F0F7FD037D002BF2D0C5
:1052C0002146304609F0F0FD07460FCF08EB4805B0
:1052D00009EBC5050FC597E8030008F1010885E84B
:1052E00003005FFA88F8DEE7304609F0F5FD014675
:1052F000304609F0D9FD05460FCD08EB480409EB0F
:10530000C4040FC495E8030084E80300124B7279CB
:105310005A71FF2201218AF8632283F804808AF8F7
:1053200062125046C3F800900B49BDE8F04709F0FF
:105330008FBEFFF765FFDFF82490074B8046E8E754
:105340000121FFF7C3FEDFF81490034B8046E0E72E
:1053500008B9FF1FCCB8FF1F84C2FF1F20B9FF1F71
:1053600070B50F4CD4F8742BD4F8080ED4F8701B19
:105370000568C2F1400382B01BB200268DE84800E8
:10538000C1F1800312B21BB22D6C09B2A84704F61A
:1053900058300449FFF776FF012002B070BD00BF0E
:1053A000B0C7FF1F00DDFF1F30B52A4C94F8B05D79
:1053B00083B0CDB1284B1B78264D2849C3EBC303DE
:1053C000E2182D230024019302F6ED2205F6583051
:1053D00000940623FDF7DAFDA8B185F8B04D03B0BF
:1053E000BDE83040FFF7BCBFD4F8641BD4F8600BB5
:1053F00009F05AFD007D184B00F13802D2B20F2A95
:10540000187002D9012003B030BD6178022905D09F
:10541000032918D001290ED0AD72FFDE21784FF498
:10542000987505FB0141403100F1390588721A7009
:1054300084F8B05DBFE721784FF4987505FB014112
:1054400001F58271F0E721784FF4987505FB014171
:10545000A431E9E7B0C7FF1F10DAFF1FF8AA010067
:1054600010B5194B5A78022A26D0032A1DD0012ADA
:1054700008D0D3F8641BD3F8600B09F015FD0023A6
:105480009B72FFDE1A784FF4987404FB023404F523
:105490008274D3F8641BD3F8600B09F005FD037D1B
:1054A000A372BDE81040FFF75BBF1A784FF4987401
:1054B00004FB0234A434ECE71A784FF4987404FB2C
:1054C00002344034E5E700BFB0C7FF1F30B5304CB1
:1054D000637885B02022022BADF80C2034D0032B4A
:1054E0002BD0012B02D000235B7AFFDE23784FF410
:1054F000987202FB034303F582735B7A03B920239E
:105500008DF80C3000252D23019303AA0123214996
:1055100000952148FDF73AFD9DF80C3062781C4952
:10552000202B08BF8DF80C50022A2AD0032A21D044
:10553000012A10D000235B72FFDE23784FF49872AB
:1055400002FB0343A433D8E723784FF4987202FB9D
:1055500003434033D1E70A784FF4987303FB0213F7
:1055600003F582739DF80C205A7208B1FFF7F8FE1C
:1055700005B030BD0A784FF4987303FB0213A433CF
:10558000F0E70A784FF4987303FB02134033E9E71E
:10559000B0C7FF1F00AB010008D3FF1F30B5304C70
:1055A000637885B02022022BADF80C2034D0032B79
:1055B0002BD0012B02D00023DB7AFFDE23784FF4BF
:1055C000987202FB034303F58273DB7A03B920234D
:1055D0008DF80C3000252D23019303AA01232149C6
:1055E00000952148FDF7D2FC9DF80C3062781C49EB
:1055F000202B08BF8DF80C50022A2AD0032A21D074
:10560000012A10D00023DB72FFDE23784FF498725A
:1056100002FB0343A433D8E723784FF4987202FBCC
:1056200003434033D1E70A784FF4987303FB021326
:1056300003F582739DF80C20DA7208B1FFF790FE33
:1056400005B030BD0A784FF4987303FB0213A433FE
:10565000F0E70A784FF4987303FB02134033E9E74D
:10566000B0C7FF1F08AB010008D3FF1F70B50F4C78
:10567000D4F8742BD4F8080ED4F8701B0568C2F166
:10568000400382B01BB200268DE84800C1F18003C0
:1056900012B21BB22D6C09B2A84704F65830044967
:1056A000FFF7F0FD012002B070BD00BFB0C7FF1FC3
:1056B00008B9FF1F70B50F4CD4F8742BD4F8080E3E
:1056C000D4F8701B0568C2F1400382B01BB20026FB
:1056D0008DE84800C1F1800312B21BB22D6C09B2F3
:1056E000A84704F658300449FFF7CCFD012002B06A
:1056F00070BD00BFB0C7FF1F88B1FF1F08B51C4AAF
:105700005378022B26D0032B17D0012B07D0002073
:105710000121FCF73FFCBDE80840FFF7CBBF137841
:105720004FF4987000FB032000F582700121FCF714
:1057300031FCBDE80840FFF7BDBF13784FF4987007
:1057400000FB0320A4300121FCF724FCBDE8084045
:10575000FFF7B0BF13784FF4987000FB0320403080
:105760000121FCF717FCBDE80840FFF7A3BF00BF0D
:10577000B0C7FF1F70B50F4CD4F8742BD4F8080EC7
:10578000D4F8701B0568C2F1400382B01BB200263A
:105790008DE84800C1F1800312B21BB22D6C09B232
:1057A000A84704F658300449FFF76CFD012002B009
:1057B00070BD00BFB0C7FF1FE4B0FF1F30B5194C6C
:1057C000194883B0012109F027FC2378DA071CD59A
:1057D000072B21D0D4F8742BD4F8080ED4F8701B02
:1057E0000468C2F140031BB200258DE82800C1F116
:1057F000800312B21BB2246C09B2A0470A490B48BD
:10580000FFF740FD012003B030BD0121064809F03B
:10581000E7FB2378072BDDD10221034809F0FCFBCD
:10582000D8E700BFB0C7FF1FECDCFF1F08D3FF1F86
:1058300030B5062183B01748174C09F0EDFB07215E
:10584000144809F0E9FB2378082B1AD0D4F8742BFC
:10585000D4F8080ED4F8701B0468C2F140031BB2E0
:1058600000258DE82800C1F1800312B21BB2246C20
:1058700009B2A04707490948FFF704FD012003B01A
:1058800030BD0621034809F0ABFB0721014809F0B0
:10589000A7FBDBE7B0B0FF1FB0C7FF1F08D3FF1F98
:1058A00070B50F4CD4F8742BD4F8080ED4F8701BD4
:1058B0000568C2F1400382B01BB200268DE84800A3
:1058C000C1F1800312B21BB22D6C09B2A84704F6D5
:1058D00058300449FFF7D6FC012002B070BD00BF6C
:1058E000B0C7FF1F40B3FF1F70B50F4CD4F8742B27
:1058F000D4F8080ED4F8701B0568C2F1400382B0DA
:105900001BB200268DE84800C1F1800312B21BB221
:105910002D6C09B2A84704F658300449FFF7B2FCD1
:10592000012002B070BD00BFB0C7FF1FC4B0FF1F91
:1059300030B5324CD4F8742BD4F8080ED4F8701B60
:10594000012383B06370C2F140031BB2056800936A
:1059500000230193C1F180031BB212B22D6C09B276
:10596000A8470321264809F057FB0421244809F0E1
:1059700053FB0521224809F04FFB0621204809F07E
:105980004BFB07211E4809F047FB08211C4809F082
:1059900043FB23784FF4987505FB034393F81231CA
:1059A000042B14D0012B1DD9023B012B06D914491D
:1059B0001448FFF767FC012003B030BD04211048F4
:1059C00009F00EFB05210E4809F00AFBEFE708215C
:1059D0000B4809F005FB237805FB034595F81231C8
:1059E000012BE1D80321064809F0FAFA23784FF495
:1059F000987202FB034494F81231D5E7B0C7FF1F39
:105A000088AEFF1F08D3FF1F08B5FFF791FF0120E5
:105A100008BD00BF08B513494B78022B1AD0032BE1
:105A200011D0012B02D000239B73FFDE0A784FF4C4
:105A3000987303FB021303F582730D229A73FFF729
:105A400077FF012008BD0A784FF4987303FB021317
:105A5000A433F2E70A784FF4987303FB0213403340
:105A6000EBE700BFB0C7FF1F10B515494B78022BFD
:105A70001ED0032B15D0012B02D000239B73FFDE19
:105A80000A784FF4987303FB021303F58273002224
:105A90009A73FDF72DFF044608B1FFF749FF204632
:105AA00010BD0A784FF4987303FB0213A433EEE79A
:105AB0000A784FF4987303FB02134033E7E700BF03
:105AC000B0C7FF1F10B515494B78022B1ED0032B12
:105AD00015D0012B02D000239B73FFDE0A784FF410
