:1000000000800020BD01000011250100C92401006D
:10001000C9240100C9240100C9240100C924010028
:10002000C9240100C9240100C924010011250100CF
:1000300011250100C924010045400100494001008B
:1000400011250100112501001125010011250100D4
:1000500011250100112501001125010011250100C4
:1000600011250100112501001125010011250100B4
:1000700011250100112501001125010011250100A4
:100080001125010011250100112501001125010094
:100090001125010011250100112501001125010084
:1000A000BD0F0100C90F010011250100112501003C
:1000B0001125010011250100112501001125010064
:1000C0001125010011250100112501001125010054
:1000D0001125010011250100112501001125010044
:1000E0001125010011250100112501001125010034
:1000F00011250100154D01001125010011250100F8
:100100001125010011250100112501001125010013
:100110001125010011250100112501001125010003
:1001200011250100112501001125010011250100F3
:1001300011250100112501001125010011250100E3
:1001400011250100112501001125010011250100D3
:1001500035420100494201005D4201007142010047
:1001600011250100C12B01001125010011250100FD
:1001700011250100112501001125010011250100A3
:100180001125010011250100112501001125010093
:100190001125010011250100112501001125010083
:1001A0001125010011250100112501001125010073
:1001B000112501001125010011250100564B4CF2BB
:1001C000205210B51A804DF628121A8000BF00BFC9
:1001D00012F0A2F9514B4FF010621A60504A9A6027
:1001E000504ADA60504A136813F4807304D14F49BF
:1001F0000B604FF4A85313604D4B1A78110703D5C9
:100200001A7842F008021A704A4B4B492A221A7097
:100210004A4A4B4B8B4204D252F8040F43F8040B6A
:10022000F8E7484B484900228B4202D243F8042B9E
:10023000FAE74649464A002352F8230041F82300D2
:1002400001336F2BF8D1434B434A802103F8011B44
:100250009342FBD1414B3D4A1A60414B8A221A70AE
:10026000A3F5805324225A70A0221A709A7992071B
:10027000FCD59A79D406FCD43A4A937903F00C035E
:10028000082B384BF9D103221A7140225A719A79FE
:100290009006FCD5334A9179324B4906FBD5324A58
:1002A000324911600221516020221A709A7902F0BD
:1002B0000C020C2AFAD12E4B2E4A1A602E4B2F4AD2
:1002C0001A6000225A60072243F8042C2C4AC3F813
:1002D0000C2D62B612F01AFB144B1B68DA0705D519
:1002E000284812F077FA284B284A1A60284B1B78C6
:1002F0005B0609D5244C254B22689A4204D121483B
:1003000012F068FA0023236015F0ECFD12F00AF9F0
:1003100014F016F9FEE700BF0E20054030800440BF
:10032000823F04000100002B10D0034014D0034092
:1003300002D0074000E0074068AEFF1F80C6010002
:10034000308CFF1F68AEFF1FB8E0FF1F0082FF1F49
:100350000000000000E400E05FE400E008ED00E0E1
:100360000050064000400640448004400000030165
:1003700004800440C010050014E000E0FF76010096
:1003800000002020CAFE865F1CE00340A5C3945AEB
:1003900000F00740FFFFFFFFFFFFFFFFFFFFFFFF32
:1003A000FFFFFFFFFFFFFFFFFFFFFFFFFFFFFFFF5D
:1003B000FFFFFFFFFFFFFFFFFFFFFFFFFFFFFFFF4D
:1003C000FFFFFFFFFFFFFFFFFFFFFFFFFFFFFFFF3D
:1003D000FFFFFFFFFFFFFFFFFFFFFFFFFFFFFFFF2D
:1003E000FFFFFFFFFFFFFFFFFFFFFFFFFFFFFFFF1D
:1003F000FFFFFFFFFFFFFFFFFFFFFFFFFFFFFFFF0D
:10040000FFFFFFFFFFFFFFFFFFFFFFFFDEF9FFFF23
:1004100010B5054C237833B9044B13B10448AFF33E
:1004200000800123237010BD68AEFF1F0000000094
:100430007CC60100084B10B51BB108490848AFF352
:1004400000800848036803B910BD074B002BFBD0A0
:10045000BDE81040184700BF000000006CAEFF1F51
:100460007CC6010068AEFF1F00000000704700BF9F
:10047000064A074908B51378D1F8080E83F001033E
:100480001946137010F08CFA012008BDF4B8FF1F54
:10049000B0C7FF1F70B5294C0546D4F8040E11F003
:1004A000C3F8B4F8B63AB4F8B42A181A83B293422F
:1004B000A4F8B63A2CD014D86A69002AC4BF02F155
:1004C000FF326A61AA685279022A27D04FF0FF30C2
:1004D000FF22A4F8B43A012185F8632285F862125C
:1004E00070BDA8686E690EF05FFD2B69C01A864268
:1004F00002DA6B6901336B61AB685B79022B09D15E
:1005000023780E4A062B12D9B2F8B63AA4F8B43AB8
:10051000002070BDB4F8B63A0120D9E72278074927
:10052000002AF3D0013A0A704FF0FF30D0E70133D0
:1005300013700120B2F8B63ACAE700BFB0C7FF1F78
:10054000024BD3F8040E10F0E5BF00BFB0C7FF1F89
:1005500010B5044600F6FC5013F04AFE04F6F450C1
:1005600013F046FE204610BD234B1B6803F16402C6
:10057000904270B504DA643B984201DD022070BD00
:100580001E4B1B6803F16402904204DA643B9842FC
:1005900001DD032070BD1A4B1D680446B5F9480003
:1005A000C0F13C0015F002FA0646B5F94A0015F014
:1005B000FDF90146304615F001FB0646286D15F0A1
:1005C000F5F90146304615F045FA0646E86C15F097
:1005D000EDF90146304615F035F915F001FC00F152
:1005E00064039C4205DA64388442D4BF00200120B1
:1005F00070BD002070BD00BF24B1FF1F28B1FF1FD8
:1006000080C2FF1FF8B5427A05460E4602B30123A9
:100610000A701C46A97A89B1C7291CD93831C9B2D8
:10062000164FC1EBC1010F44F018394616F03AFAE3
:10063000384616F0A5FA2044C4B22346EA7A1AB125
:100640000134E4B2F25423460022F2542046F8BDAD
:1006500013461446DEE70A4FC1EBC101F0183944D6
:10066000062216F0FBFAA87AC0EBC000384416F058
:1006700087FA2044C4B22346E0E700BF9DD2FF1FA3
:1006800088A401002DE9F0411A4D41F234240646B8
:10069000285910F0F5FE38B3B3685B79022B15D0FA
:1006A00041F23427DFF84C80E85910F0EDFE0446A3
:1006B00010B92046BDE8F08158F8070010F086FE1A
:1006C0000023C6F854322046BDE8F081D6F85432F3
:1006D000B3F57A7FE4D90124002385F8964C2046AF
:1006E000C6F85432BDE8F081285910F0BDFEC6F8B6
:1006F0005402D1E7B0C7FF1F0120704701207047A7
:100700002DE9F043314C324FD4F8083E83B01A68DB
:1007100000254FF01A080195CDF80080166C294687
:100720002D22814618467B23B047D4F8080E0121BC
:100730000FF0ACF92A46D4F8080E01210FF0ACF9FD
:10074000D4F8080E2A2204210FF09CF9D4F8086E80
:100750002049336808225B6830469847304613F0DA
:10076000A7FD32220421D4F8080E0FF08BF91A4BA2
:10077000D4F8086E53F82990484616F001FA336809
:10078000024649465B6830469847304613F090FD74
:10079000D4F8080E012203680192CDF800802946A2
:1007A0002522DD6C7B23A84712F040F83B6847F216
:1007B0002F52C01A904206D9D4F8080E0FF0EAFF63
:1007C00012F034F8386003B0BDE8F083B0C7FF1F03
:1007D000ACC7FF1F38A80100D898FF1F2DE9F041D2
:1007E00090F96332604E0133044686B04FF0010148
:1007F000D6F8080E5FD00FF049F925696369A06843
:100800001D440EF0D1FB854280F2A8802269636905
:1008100002EB0308E36894F96372D6F8080E9F426E
:1008200007BF012200210022012102AD0FF034F99F
:1008300029463A4620460EF01BFC284616F0A0F941
:100840000D2807DC28440DF11602202300F8013B97
:100850009042FBD16269E369B4F91810D6F8080E2A
:100860000933BA1A03EBC20212B200278DF81670D0
:100870000FF008F9D6F8086E284616F081F93368AB
:1008800002465B68294630469847304613F010FD13
:1008900094F8633201335BB2434584F8633202D08B
:1008A00006B0BDE8F081FF2384F8627284F86332F9
:1008B00006B0BDE8F0810FF0E9F800220121D6F87A
:1008C000080E0FF0E9F8A36818461F680EF06CFBDD
:1008D00000B200EB400102AD07EBC1010E22284639
:1008E00016F0BCF9284616F04BF90D2807DC284411
:1008F0000DF11602202300F8013B9042FBD10023AA
:10090000B4F91C20B4F91810D6F8080E8DF816307A
:100910000FF0B8F8D6F8087E284616F031F93B6893
:10092000024629465B6838469847384613F0C0FCB3
:10093000E269D6F8080EA1690568083212B20123EF
:100940008DE80C0001F15403AD6C1BB209B2A8474D
:10095000636984F8633206B0BDE8F081A0680EF0E8
:1009600023FB804656E700BFB0C7FF1F70B50446A3
:1009700008460D4616F004F923680246294620462B
:100980005B68BDE8704018472DE9F04F002387B041
:100990000122437000F6B4230270041D04930590F5
:1009A00000274FF619494FF0000323732761676151
:1009B000A761E7612762676284F828702771E78082
:1009C0002781A4F80A90382013F0C2FD39463A4630
:1009D000EF4B834611F002FA94F84A30C4F82CB079
:1009E00003F0800367F3C71384F84A30E94B63636D
:1009F0004FF03C0384F83E304FF0280384F83F303A
:100A0000E54B63654FF07F0384F85C3084F85D301C
:100A10004FF47A73A4F85E30E04BCBF81030012528
:100A2000782640F6FF7A4FF0FF084FF07E524FF6DF
:100A3000FF732264A4F84E60A4F85A6084F8317001
:100A400084F8387084F8447084F8457084F84670EF
:100A500084F84770A4F84C70A4F8587084F83C509F
:100A600084F83D50A4F84850C4F850A084F864803D
:100A7000CBF8043084F83050382013F069FD2A4652
:100A800083463946C64B11F0A9F94FF08043C4F8AC
:100A900060B084F86570A4F86E906767A767E76731
:100AA000C4F88070C4F88470C4F8887084F88C70BE
:100AB00084F86870A4F86A70A4F86C7084F8707098
:100AC000CBF810302781CBF804A0382013F040FD7C
:100AD00039463A46AE4B834611F080F994F8AE3071
:100AE000AC4AC4F898204FF03C0284F8A22003F0EE
:100AF00080034FF0280284F8A32067F3C713A64AA7
:100B0000C4F8B82084F8AE304FF07F024FF00103F4
:100B100084F8C02084F8C12084F894304FF47A72AD
:100B20004FF6FF73A4F8C220CBF804304FF07E528A
:100B30009A4BA4F8B260A4F8BE60C4F8A420C4F82C
:100B400090B084F8957084F89C7084F8A05084F874
:100B5000A15084F8A87084F8A97084F8AA7084F869
:100B6000AB70A4F8AC50A4F8B070C4F8B4A0A4F86A
:100B7000BC7084F8C880CBF81030382013F0E8FC43
:100B80002A4606463946864B11F028F94FF0804335
:100B9000C4F8C460A4F8D290A4F86C7084F8C9704A
:100BA000C4F8D870C4F8DC70C4F8E070C4F8E4701D
:100BB000C4F8E870C4F8EC7084F8F07084F8CC7075
:100BC000A4F8CE70A4F8D07084F8D4703361C6F85D
:100BD00004A0382013F0BCFC6D4B3A46394606465B
:100BE00011F0FCF86B4BC4F8FC304FF03C0384F878
:100BF00002314FF0280384F803314FF07E53C4F8DC
:100C000004314FF6FF737360644B3361049BC4F887
:100C1000F46084F8F97084F8F85084F8005184F88E
:100C2000015184F8087184F8097184F80A7184F814
:100C30000B71A4F80C5184F80E7184F8108184F8BB
:100C40001471C4F81871C4F8247184F8287184F8F8
:100C50002C7184F82F7184F82E7184F82D7184F82A
:100C6000008004F598749C427FF49AAEDDF81490ED
:100C70004C4899F8E53A4C49C9F8E00A4FF0FF3280
:100C8000A9F8B42A4FF0000289F8B82A424AC9F8F4
:100C9000C02AC9F8D02AC9F8D82A4FF47A722B434F
:100CA00047F230544FF00005A9F8DC2A112289F8E8
:100CB000E53AA9F8B64AC9F8E81A89F8EC2A39469B
:100CC0006922C9F8BCAAC9F8C47AC9F8C8AAC9F87F
:100CD000CCAAC9F8D4AA89F8E45A09F6ED2015F08F
:100CE00067FC09F658300EF061F9304BC9F8583BF3
:100CF000FB22394689F8785BC9F87C7CA9F8847CAA
:100D000089F8865CC9F8987C09F69C4015F050FC7F
:100D10004FF001033621264A89F8953C07244FF00D
:100D2000010309F6CF5089F8E03DC9F8701BC9F8F6
:100D3000E82DC9F8987DC9F89C7DC9F8A07DC9F84F
:100D4000A47DC9F8A87DC9F8AC7D89F8B05D89F8A3
:100D5000B15DC9F8B47D89F8B85D89F8B98D89F8B5
:100D6000BA5D89F8BB8DC9F8BC7DC9F86C7BC9F840
:100D7000747B89F8965C89F8975CC9F8E47D89F8FA
:100D8000EC5D7F23C9F8684B014609F6BF5211E0BC
:100D900017B7D1389F86010001F0FFFF00006042C5
:100DA0000AD7233C9A99993F52491D3A48B5010008
:100DB00014DAFF1F02F8013F824201F8013FF9D126
:100DC00041F2F01641F2F41541F2F81441F2FC1030
:100DD00041F2322141F23323002249F8062009F87A
:100DE000052049F8042049F80020962409F801203C
:100DF0004FF4157009F803204FF4BA61802340F2D4
:100E0000124740F28E7689F8F83D89F8003E40F6A8
:100E10004C15C9F80C4EC9F8100E40F60A3440F6CD
:100E2000C84009F58F53C9F8181E09F59151C9F842
:100E3000F42DC9F8FC2D89F82C2EC9F8147EC9F8B8
:100E40001C6EC9F8205EC9F8244EC9F8280E1F335D
:100E5000113103F8012F8B424FF00004F9D1942097
:100E600013F076FB054610F009FCC9F8F05D182078
:100E700013F06EFB0423072206218DE818000546B7
:100E8000FF2310F00BFBC9F8045E142013F060FB85
:100E9000044610F069FA41F234230F4849F8034040
:100EA00010F03EF90E210C4810F0A2F9642013F066
:100EB0004FFB0A4B0393092108220A238DE80E00F9
:100EC000054B4022802104460EF0F4FF4846C9F845
:100ED000084E07B0BDE8F08F94A2FF1F00127A0001
:100EE00070B5064E41F23425705910F0CDFA044623
:100EF00010B1705910F06AFA204670BDB0C7FF1FDC
:100F000038B5144C0546D4F8040E10F08DFBB4F837
:100F1000B63AB4F8B42A181A83B29342A4F8B63A8F
:100F200015D00D4A11680AD80029CCBF01F1FF3154
:100F3000002111604FF0FF30A4F8B43A38BDA94247
:100F4000B8BF013111600120A4F8B43A38BD0020C7
:100F500038BD00BFB0C7FF1FCCB0FF1F2DE9F04F59
:100F6000974FDFF890A2D7F8080E8DB000240368E1
:100F70000194402200921D6C224680232146A847FE
:100F8000D7F8080E01210EF081FD2246D7F8080E91
:100F900001210EF081FD22462146D7F8080E0EF001
:100FA00071FDD7F8080E8749036808225B689847E7
:100FB0003978D7F8080E013113F0E0F9D7F8080EA8
:100FC0008149036807225B689847DAF80000002827
:100FD00000F0DC8014F0EAFC4FF07C5114F03AFD94
:100FE00014F006F9D7F8084E012502460B462046B4
:100FF000009513F0CDF9D7F8084E744923682A46B6
:101000005B6820469847204613F052F9704B0493D2
:101010000E23039300239946039B049ECDF814905E
:10102000043B1BB2029309EB49034D460024994649
:10103000DAF80020D7F8080E05EB09039A424FF0C2
:1010400001014FF000020FFA84F804BF0A460021A4
:101050000EF022FDD7F8080E029A41460EF012FD5E
:1010600007A8002D00F09E8015F08AFD544BD3F8A0
:1010700008BEDBF8003002465B6807A9584698476F
:10108000584613F015F93378002B71D11E34A4B2F1
:10109000782C06F1010605F10105C9D1039BDDF8A5
:1010A000149009339BB20393049B09F101090433A3
:1010B000B9F1050F0493AFD1D7F8080E454C0022C3
:1010C00001210EF0E9FCD7F8080E372200210EF0BE
:1010D000D9FCD7F8080E4049036804225B6898479A
:1010E0003E4BD7F8080E196813F048F9D7F8080EE8
:1010F0003B49036801225B6898472168D7F8080ECE
:1011000013F03CF9D7F8080E3549036801225B68F3
:101110009847344B20681C686368C01A14F046FC7A
:101120000546A06814F042FC0146284614F046FD2E
:101130002D4914F08FFC14F05BF8D7F8084E022507
:1011400002460B460095204613F022F9D7F8084EC8
:101150001E49236801225B6820469847204613F009
:10116000A7F8D7F8080E0FF015FB0DB0BDE8F08F0B
:10117000134BD3F8080E0122036800924146BDF9D3
:101180000C20D3F83C801823C0477FE7D7F8084EDF
:101190001649236820465B6803229847204613F0CF
:1011A00087F833E7064B1249D3F8088ED8F8003099
:1011B000042240465B689847404613F079F865E79B
:1011C000B0C7FF1F44A8010050A8010058A80100A3
:1011D00048B3FF1F2497FF1F68A801003492FF1F28
:1011E00070A8010050B1FF1F000020415CA8010061
:1011F00060A80100CCB0FF1F2DE9F047A94BAA4C15
:10120000AA4A1B681168D4F8080ED3F804809F68B6
:10121000026891F8465082B0002640238DE84800CD
:1012200031468023D2F840903246C847D4F8080EA1
:1012300001210EF02BFC3246D4F8080E01210EF0ED
:101240002BFC32463146D4F8080E0EF01BFCD4F8C5
:10125000080E9749036803225B689847217807299D
:10126000C5F3411540F2F4806378D4F8080E022BE0
:1012700003680CBF8F4990495B68052298478F4EE1
:101280003168002940F0DD800122D4F8080E0EF00C
:1012900003FCD4F8080E8A490368DFF80C925B68F7
:1012A000DFF804A2082298473268D9F8080E012A0C
:1012B0000EBF0021002201210EF0EEFBD4F8089EA3
:1012C0008049D9F8003003225B6848469847484671
:1012D00012F0EEFF00220121D4F8080E0EF0DCFB24
:1012E00011220021D4F8080E0EF0CCFBD4F8089E91
:1012F0007549D9F8003010225B684846984748463F
:1013000012F0D6FF3368DAF8080EDFF89C91022B52
:1013100007BF01220021002201210EF0BDFB0021A8
:101320001B22D4F8080E0EF0ADFBD9F8080E0368A6
:10133000022D0CBF654966495B68102298473368E7
:10134000D4F8080E584E032B07BF012200210022BB
:1013500001210EF0A1FB00212522D4F8080E0EF089
:1013600091FBD6F8080E504E0368022D0CBF594968
:1013700059495B681022984700220121D4F8080ED1
:101380000EF08AFB00220121D4F8080E0EF084FB37
:1013900037220021D4F8080E0EF074FBD4F8080EA2
:1013A0004E49036804225B6898474D4B1B68002B2D
:1013B0000FDD4C49D6F8089E03EB8303CE18304668
:1013C00015F0DEFBD9F80030024631465B6848462E
:1013D0009847D4F8080E44490368334E5B680322EB
:1013E0009847424B1868022DC8EB000041D014F01A
:1013F000DDFA0546384614F0D9FA0146284614F0BD
:10140000DDFB3B4914F026FB13F0F2FED6F8085E34
:10141000022602460B460096284612F0B9FFD4F881
:10142000085E34492B6801225B68284698472846A5
:1014300012F03EFFD4F8080E02B0BDE8F0470FF0FE
:10144000A9B900220121D4F8080E0EF025FB20E7EF
:101450000131D4F8080E12F091FF6378D4F8080E29
:10146000022B03680CBF244924495B680522984776
:1014700005E714F09BFA8046384614F097FA0146C7
:10148000404614F09BFB1E4914F0E4FA13F0B0FE42
:10149000D6F8086E009502460B46304612F078FFEB
:1014A000BDE700BF50B1FF1FB0C7FF1F80C2FF1FC5
:1014B00074A8010078A8010080A80100CCB0FF1F2B
:1014C00098A801005CA80100A4A80100B8A8010028
:1014D000CCA80100E0A80100F4A8010068A8010060
:1014E0003492FF1FD8A5010008A901002497FF1F0F
:1014F0000000204158A8010088A8010090A8010020
:101500000000A0402DE9F04F8C4F8D4DD7F8080E0C
:101510008BB0002403680194402200921E6C224686
:1015200080232146B047D7F8080E01210EF0AEFA0D
:1015300022462146D7F8080E0EF0A4FA2246D7F824
:10154000080E01210EF0A8FAD7F8080E7D490368AD
:101550000A225B6898472968002940F0E780012249
:10156000D7F8080E0EF098FAD7F8080E76490368F7
:10157000724C5B68DFF8E491DFF8E4A10822984739
:101580002A68D4F8080E012A0EBF0021002201218A
:101590000EF082FAD7F8084E6C4A23686C495B68F3
:1015A0000392204603229847204612F081FE0A2229
:1015B0000021D7F8080E0EF065FA01220021D7F8B5
:1015C000080E0EF069FAD7F8084E62492368142213
:1015D0005B6820469847204612F06AFE25220021CB
:1015E000D7F8080E0EF04EFAD7F8084E5A4923687D
:1015F00014225B6820469847204612F059FE0022CC
:101600000121D7F8080E0EF047FA4FF000084FEA14
:10161000A80404EB440404EBC40408F00305A4B2DA
:10162000C5EB051504F113026D0012B22946D7F877
:10163000080E0EF027FA59F804BF4FF0000CE345EE
:101640008DF818C06ADB05AB06AE9C44B646012097
:101650009BFBF0F38AFB0321DA17C2EBA10202EB3A
:101660008202A3EB420330330EF8013D00EB800011
:10167000E6454FEA4000EBD1D7F808BE05A815F0C3
:101680007FFADBF8003002465B6805A958469847A8
:1016900004F11C02D7F8080E12B229460EF0F2F936
:1016A000039B53F8044F0393002084428DF81800E5
:1016B0002EDB05AB1844012194FBF1F38AFB0325D3
:1016C000DA17C2EBA50202EB8202A3EB420330332E
:1016D00006F8013D01EB8101B0424FEA4101EBD137
:1016E000D7F8084E154D05A815F04AFA23680246AA
:1016F00008F101085B68204605A99847B8F1080F72
:1017000085D1D5F8080E0FF045F80BB0BDE8F08F85
:101710002D2364428DF814300120CAE72D23CBF12C
:10172000000B8DF814304FF0010C8CE7224601219C
:10173000D7F8080E0EF0B0F916E700BFB0C7FF1FCC
:10174000CCB0FF1F0CA9010018A90100D0B8FF1FE1
:101750005CA8010024A901003CA9010028B1FF1FD9
:10176000676666667C4B1A68F0B40346D46CB2F9BF
:10177000480007290CD8DFE801F0042D325172929D
:10178000B20D764A106891889279186099809A71A2
:10179000F0BC7047126D0026A4185E7100F1BD8088
:1017A0006F4F1E440120053394FBF0F287FB0215B6
:1017B000D117C1EBA50101EB8101A2EB410230324F
:1017C00003F8012D00EB8000B3424FEA4000EBD15B
:1017D000F0BC7047634A10681860F0BC7047002680
:1017E000041E5E71C0F2B2805D4F1E4401200533BD
:1017F00094FBF0F287FB0215D117C1EBA50101EBB9
:101800008101A2EB4102303203F8012D00EB800090
:101810009E424FEA4000EBD1F0BC7047B2F94A60FB
:10182000002536185D7100F18C804D4F1D4401205C
:10183000053396FBF0F287FB0214D117C1EBA4012C
:1018400001EB8101A2EB4102303203F8012D00EBE4
:101850008000AB424FEA4000EBD1F0BC7047B2F9D8
:1018600054600025AE425D7166DB3D4F1D44012092
:10187000053396FBF0F287FB0214D117C1EBA401EC
:1018800001EB8101A2EB4102303203F8012D00EBA4
:101890008000AB424FEA4000EBD1F0BC7047B2F998
:1018A00056600025AE425D7141DB2D4F1D44012085
:1018B000053396FBF0F287FB0214D117C1EBA401AC
:1018C00001EB8101A2EB4102303203F8012D00EB64
:1018D0008000AB424FEA4000EBD1F0BC70470026DD
:1018E000B4425E711EDB1E4F1E440120053394FB83
:1018F000F0F287FB0215D117C1EBA50101EB8101C5
:10190000A2EB4102303203F8012D00EB8000B3421C
:101910004FEA4000EBD1F0BC70472D2264421A70B0
:1019200001263DE72D2264421A700126DBE72D22B5
:1019300076421A700125B8E72D2276421A700125E9
:1019400093E72D2276421A7001256EE72D2264421C
:101950001A70012648E700BF80C2FF1F54A901008A
:10196000676666665CA801002DE9F04F704CDFF8F1
:10197000E4A1D4F8080E8BB000250368019540223D
:1019800000921E6C2A4680232946B047D4F8080EE0
:1019900001210EF07BF82A46D4F8080E01210EF042
:1019A0007BF82A462946D4F8080E0EF06BF8D4F8D6
:1019B000080E6049036803225B6898472178D4F8D1
:1019C000080E013112F0DAFC6378D4F8080E022B0D
:1019D00003680CBF584959495B6805229847DAF8F3
:1019E0000010002940F093800122D4F8080E0EF078
:1019F00053F8D4F8080E524903684D4D5B6808222D
:101A00009847DAF80020D5F8080E012A0EBF002109
:101A1000002201210EF040F8D4F8085E49492B68F5
:101A200003225B6828469847284612F041FC0022B2
:101A30000121D4F8080E0EF02FF810220021D4F85E
:101A4000080E0EF01FF8D4F8085E3F492B681022EC
:101A50005B6828469847284612F02AFC1C234FF062
:101A6000020B02934FF000084FEA4809BDF9083015
:101A7000039309F102091826002500220121D4F858
:101A8000080E0EF009F8B8F1000F47D0DAF8002080
:101A9000D4F8080E09EB05039A424FF001014FF00C
:101AA000000204BF0A4600210DF0F6FF32B203998E
:101AB000D4F8080E0DF0E6FF0BEB050105A8FFF7C3
:101AC00051FED4F8087E05A815F05AF83B68024686
:101AD0005B6805A9384698470135384612F0E8FB9F
:101AE0000A36022DB6B2C8D1029B08F101082A338A
:101AF0009BB2B8F1020F02930BF1020BB4D10C4B65
:101B0000D3F8080E0EF046FE0BB0BDE8F08F0022B1
:101B10000121D4F8080E0DF0BFFF6AE70B492DB183
:101B2000034BD3F8080EFEF721FFAFE70849F7E7AC
:101B3000B0C7FF1F74A8010088A8010090A8010089
:101B400098A801005CA801005CA9010070A901002F
:101B500078A90100CCB0FF1F30B40D4B5B78012B8E
:101B60000C4B0AD91C68E56B056094F940000870BD
:101B70001B681B69136030BC70471B689C6B04605A
:101B800093F93C0008701B69136030BC704700BFBC
:101B9000B0C7FF1F80C2FF1F2DE9F04190B008AA17
:101BA0000DF1130107A8FFF7D7FF0898C54C13F0F4
:101BB000F9FEC54914F002F80146C44813F0FEFFCF
:101BC000C34913F0FBFF0746D4F8080E002503684D
:101BD0000195402200921E6C2A4680232946B04778
:101BE000D4F8080E01210DF051FF2A46D4F8080E52
:101BF00001210DF051FF2A462946D4F8080E0DF0B8
:101C000041FFD4F8080EB349036803225B68984784
:101C10002178D4F8080E013112F0B0FB6378022B62
:101C200000F07681032B00F06B81012B00F0BB806C
:101C3000A94D2968002940F0AF800122D4F8080E90
:101C40000DF02AFFD4F8080EA44903689D4E5B6886
:101C5000DFF87082062298472A68D6F8080E012A13
:101C60000EBF0021002201210DF016FFD4F8086EEE
:101C70009B49336804225B6830469847304612F02F
:101C800017FB00220121D4F8080E0DF005FF0C22ED
:101C90000021D4F8080E0DF0F5FED4F8086E914935
:101CA000336812225B6830469847304612F000FBDA
:101CB00014220021D4F8080E0DF0E4FE0221D4F81D
:101CC000080E0DF0E3FE2B68022B74D000220121D8
:101CD000D4F8080E0DF0E0FE9DF913300533DAB2AA
:101CE0000A2A78D92B68022B00F0878009AE0022DF
:101CF0000121D4F8080EDFF8CC810DF0CDFED4F828
:101D0000080E7949036802225B689847384613F049
:101D10006FFA0B4602467549304614F09DFE2B685B
:101D2000032B00F09B8000220121D4F8080E0DF057
:101D3000B3FED4F8087EDFF88C81304614F020FF23
:101D40003B6802465B68314638469847384612F091
:101D5000AFFA2B68032B00F08D800121D4F8080E18
:101D6000634D584E0DF092FE0022D4F8080E01216A
:101D70000DF092FE10F05AFD2B6847F22F52C01A58
:101D8000904206D9D6F8080E0EF004FD10F04EFD74
:101D9000286010B0BDE8F08100220121D4F8080EBF
:101DA0000DF07AFE4EE7D4F8080E52490368062279
:101DB0005B6898473CE7504B1B78002B86D001228C
:101DC000D8F8080E00210DF067FE9DF91330053399
:101DD000DAB20A2A86D8494AD4F8086E52F8238023
:101DE000404614F0CDFE336802465B6841463046FB
:101DF00098472B68022B7FF479AF3F4B1A78002A63
:101E00007FF474AF9DF913303C49D4F8080E0533C4
:101E10000DF11A0C51F82310CDF808C00DF1180E71
:101E20000DF1160309AE8DE80840039614230DF05A
:101E300075FFD4F8080EBDF92410D0F800E0009129
:101E40004FF0010CCDF804C0BDF91A30BDF91820CF
:101E5000BDF91610DEF84C80C04748E7264B1B78CA
:101E6000002B3FF460AFD8F8080E012200210DF0DE
:101E700013FE5EE7204B1B78002B7FF46EAF06ADA0
:101E80000DF1160205AB0DF11A07D8F8080E0295F0
:101E9000314601920093039714233C220DF03EFF3C
:101EA000D8F8080EBDF91A6005680096012601965B
:101EB000BDF91830BDF91620BDF91410ED6CA84716
:101EC0004BE700BFB0C7FF1F00007A4400606A47BD
:101ED0000000C04174A80100CCB0FF1F54A901004C
:101EE00060A8010098A9010094A90100ACA9010013
:101EF000A0B0FF1F80A901008C99FF1F6894FF1FED
:101F0000D4F8080E0649036806225B6898478FE6F6
:101F1000D4F8080E0349036806225B68984787E6F1
:101F200090A9010088A9010000B5807B00F01F0383
:101F3000192B13D8DFE803F01414272727333A2787
:101F400027272727201A0D1214272727272714149D
:101F5000140D002043F6FF73086013605DF804FB66
:101F6000C0F34110012812D0022826D000207F2380
:101F7000086013605DF804FB134B0B6047F6FF73BA
:101F800013605DF804FBC0F341100128EED16FF03F
:101F90007F004FF48073086013605DF804FB0B4B07
:101FA0000B6041F6FF7313605DF804FB6FF0630094
:101FB0006423086013605DF804FB00203C23086084
:101FC00013605DF804FB00BF0080FFFF00E0FFFF2F
:101FD000837B01F01F0161F304038373192915D872
:101FE000DFE801F0373715151525301515151515CE
:101FF0001C150D143715151515153737370D00221B
:1020000043F6FF73028282834382C38370470022B8
:102010007F23028282834382C38370474FF400424E
:1020200047F6FF73028282834382C38370474FF473
:10203000604343F6FF7141F6FF720382838341825E
:10204000C283704700226423028282834382C38357
:102050007047837BC3F34113022B07D100233C213C
:102060007822038283834182C283704700227823CF
:10207000028282834382C383704700BF2DE9F0410F
:10208000554D564C2B78564962780020012B08603C
:102090007FD0012A40F28680022A7AD0032A52D0C9
:1020A000504E306890F84620DFF868814E4FDFF8D8
:1020B00068E1DFF868C112F0600118BF012188F8FB
:1020C000001000F148013960C16CCEF80010DFF853
:1020D00050E1016DCCF800104449B0F854C0AEF89E
:1020E00000C0DFF840E1B0F856C0A1F800C0404998
:1020F000B0F848C0AEF800C0B0F84AE0A1F800E07F
:1021000003F0FD01012908D13A4BC2F30402383033
:1021100000211A70FFF75CFF2B783749374A384D9A
:1021200038484FF0010EC1F800E04FF0FF31116068
:1021300073454FF00002296002700DD0324B012030
:102140001870BDE8F0812278264E4FF4987000FB9D
:1021500002406C303060A5E73568386895F8466015
:102160002A4B2B4962F3461685F84660D4F8BC5AD0
:10217000D4F8C04A8460456003F1140003F8012FCD
:10218000834241F8042FF9D11F4B01201870BDE89C
:10219000F0812278134E4FF4987000FB0240083013
:1021A00030607FE7052B01D0BDE8F081012A7FF484
:1021B00077AF114923780A604FF4987202FB03430A
:1021C000084E0E4D0E4C0F494FF0FF32D0333360A6
:1021D0002A6022600870B1E7ADB0FF1FB0C7FF1FD3
:1021E00084AEFF1F80C2FF1F50B1FF1FF08FFF1F83
:1021F0005CB1FF1FC0B0FF1FCCB0FF1F2497FF1FB3
:102200003492FF1F54B1FF1FECB0FF1F47B3FF1FF5
:102210006CB8FF1F00B9FF1F8CC2FF1FA0C7FF1FB4
:10222000FCDCFF1FE0B0FF1F2DE9F043DFF8C480A6
:102230002A4F98F80030052287B03A707BB1284EBB
:102240003568ADB1A84720B90024204607B0BDE8E5
:10225000F08300242046346007B0BDE8F083FFF728
:102260000DFF0028EBD10124204607B0BDE8F08324
:102270001C4B18780238FEF743FE2846FFF78CFC0B
:10228000FEF72EFE04460028DED0174B1B68012BFC
:1022900006DD023B154A52F8233033602C46D4E762
:1022A000134ED6F8080E402203688DE82400294614
:1022B000D3F840902A468023C84705AA0DF10F01A4
:1022C00004A888F800503D70FFF746FC9DF80F20E9
:1022D000049B86F8E42AC6F8E03AB6E7ADB0FF1FE3
:1022E00084AEFF1FB9A0FF1FCCB0FF1FA48DFF1F3E
:1022F000B0C7FF1FECB0FF1F2DE9F04FA44BA54D59
:102300001B78032283B02A70002B00F0A580A24B1B
:10231000A24E1F6897F84640F86CC4F34114022C93
:1023200000F0B78013F042FB8046B7F94A00B7F9D6
:1023300048B013F03BFB8246386D13F037FB814603
:10234000CBF1180013F032FB514613F037FC49462D
:1023500013F080FB414613F075FA13F041FD306035
:10236000CBF1600013F022FB514613F027FC4946E5
:1023700013F070FB414613F065FA13F031FDDFF8FE
:102380005492C9F800008649864ADFF84CA2B7F992
:10239000043008787988CAF800101360FEF7B0FDA1
:1023A000FEF72AFFFEF79CFD804600283CD0DFF8B0
:1023B0002C82D8F80000012840F3C580022800F0E4
:1023C000BC80032800F0B3803568D9F80000022CE7
:1023D000A0EB050000F08F8013F0E8FA04462846D1
:1023E00013F0E4FA21460546204613F02BFA6E4915
:1023F00013F0E4FB0146284613F022FA13F0F0FC38
:102400006A490546204613F025FB674913F0D6FBC1
:1024100013F0E6FC664B1B684FF000085D609860A7
:10242000404603B0BDE8F08F2B78032BF8D1BAF803
:102430000000FEF799F85F4B93F8B13D002BEFD009
:102440000028EDD05C4B1A788242E9D0DFF88C810D
:102450001870C8F80000AEE7FFF710FE0446002829
:102460007FF455AF534D55494FF00108FF2205F653
:10247000793085F8788B14F0F1FB4FF4FA62112370
:10248000A5F8804CA5F8844CC5F87C2CA5F8823CB6
:10249000C6E713F08BFA8346B7F94A00B7F948A0AC
:1024A00013F084FA8146386D13F080FA8046CAF141
:1024B0000C0013F07BFA494613F080FB414613F001
:1024C000C9FA594613F0BEF913F08AFC3060CAF11C
:1024D000300013F06BFA494613F070FB414613F0DD
:1024E000B9FA594613F0AEF913F07AFCDFF8E4902C
:1024F000C9F8000047E713F059FA0446284613F0DC
:1025000055FA2F490546204613F058FB0146284648
:1025100013F096F913F064FC2A490546204613F09F
:1025200099FA274913F04AFB13F05AFC72E7DAF8DC
:1025300000003568C9F8000049E7DAF80050356056
:10254000D9F8000043E71B4BD3F8080E00220368BC
:102550000192402100911C6C11468023A0470E4B34
:102560001868194B38301978FFF732FDD8F8003069
:102570003BB90F4B1549164A1B6809681268596028
:102580009A60034A002313702B704FF0010847E74D
:10259000ECB0FF1FADB0FF1F80C2FF1F24B1FF1FB3
:1025A000B8A1FF1F3492FF1F0000C040000020416F
:1025B00050B1FF1FB0C7FF1F54B1FF1FB4A90100E6
:1025C000000040400000A040C0B0FF1F8CC2FF1FB1
:1025D000A0C7FF1F28B1FF1F2497FF1FCCB0FF1F0C
:1025E00010B582B002AB42F2247243F8042D0446C7
:1025F00001700422184600210FF0EEFE2046012251
:1026000002210FF0E9FE032002B010BD2DE9F041D8
:10261000804682B018F8041B744D754F0446FFF7CE
:10262000DFFF04220646014640460FF0D5FE311D6D
:1026300004F1080004220FF0CFFE06F1080104F1B6
:102640000C0004220FF0C8FE06F10C0104F110008A
:1026500004220FF0C1FE06F1100104F1140004225F
:102660000FF0BAFE06F1140104F1180004220FF075
:10267000B3FE06F1180104F11C0004220FF0ACFEB9
:1026800006F11C0104F1200004220FF0A5FE06F162
:10269000200104F1350069220FF09EFE06F1890148
:1026A00004F1280004220FF097FE06F18D0104F1D9
:1026B0002C0001220FF090FE06F18E0104F1300093
:1026C00004220FF089FE06F1920104F13400012288
:1026D0000FF082FE0D21474811F04EFB00230A2225
:1026E0002178284611F00AFE0221434811F044FBEC
:1026F0006168284611F042FE3846012111F03CFB8A
:10270000A168284611F03AFE3846012111F034FB49
:10271000E168284611F032FE3846012111F02CFB09
:102720002169284611F02AFE3846012111F024FBC8
:102730006169284611F022FE3846012111F01CFB88
:10274000A169284611F01AFE3846012111F014FB48
:10275000E169284611F012FE3846012111F00CFB08
:10276000216A284611F00AFE3846012111F004FBC7
:10277000A06A12F03DFD4FF0020802460B46CDF86C
:102780000080284611F004FE3846012111F0F4FAC9
:1027900094F92C10284611F0F1FD3846012111F072
:1027A000EBFA00230A2294F83410284611F0A6FD13
:1027B0003846012111F0E0FA206B12F019FDCDF836
:1027C000008002460B46284611F0E2FD3846012102
:1027D00011F0D2FA06F19301284611F0CFFD2846F8
:1027E00011F066FD962002B0BDE8F081E0A3FF1F66
:1027F00070A80100C8A9010078AF010070B50646B5
:1028000084B000200FF084FD8DF80E0001200FF041
:102810007FFD8DF80F00BDF80E2042F224739A421E
:1028200040F0078102200FF073FD03288ABFFF23C9
:1028300030703370F51C032420460FF069FD01341D
:10284000072C05F8010FF7D1F51D20460FF060FDAC
:1028500001340B2C05F8010FF7D106F10B052046CA
:102860000FF056FD01340F2C05F8010FF7D106F1DA
:102870000F0520460FF04CFD0134132C05F8010F15
:10288000F7D106F1130520460FF042FD0134172C55
:1028900005F8010FF7D106F1170520460FF038FDB6
:1028A00001341B2C05F8010FF7D106F11B0520465A
:1028B0000FF02EFD01341F2C05F8010FF7D106F1A2
:1028C0001F0520460FF024FD0134232C05F8010FCD
:1028D000F7D106F1340520460FF01AFD01348C2C97
:1028E00005F8010FF7D106F1270520460FF010FD7E
:1028F0000134902C05F8010FF7D120460FF008FDA8
:1029000006F12F0586F82C00912420460FF000FDDB
:102910000134952C05F8010FF7D120460FF0F8FC93
:102920000C2186F83400484811F026FA00230A22C8
:102930003178464811F0E2FC0221454811F01CFABA
:102940007168424811F01AFD0121424811F014FA51
:10295000B1683E4811F012FD01213E4811F00CFA19
:10296000F1683A4811F00AFD01213A4811F004FAE1
:102970003169364811F002FD0121364811F0FCF9A9
:102980007169324811F0FAFC0121324811F0F4F972
:10299000B1692E4811F0F2FC01212E4811F0ECF93A
:1029A000F1692A4811F0EAFC01212A4811F0E4F902
:1029B000316A264811F0E2FC0121264811F0DCF9C9
:1029C000B06A12F015FC022402460B4600941F4820
:1029D00011F0DEFC01211F4811F0CEF996F92C1000
:1029E0001A4811F0CBFC01211A4811F0C5F9002357
:1029F0000A2296F83410154811F080FC0121154880
:102A000011F0BAF9306B12F0F3FB009402460B465A
:102A10000E4811F0BDFC01210E4811F0ADF99621D0
:102A20000A4811F0ABFC094811F042FC962004B0B2
:102A300070BD1B21084811F09FF9044811F038FCC3
:102A4000002004B070BD00BFF4A90100E0A3FF1F87
:102A500078AF010070A80100D8A901002DE9F84362
:102A6000099C089E0F46904699461CB1086813F0D1
:102A7000B7F9A0471D4DD5F8040E0EF0D5FDB5F8F9
:102A8000B64AB5F8B43A201A84B29C42A5F8B64AC0
:102A900024D094BF06F100403046396812F0D2FECF
:102AA0004146064613F074F958B94946304613F0CA
:102AB0008DF968B1C7F800900020A5F8B44ABDE8C8
:102AC000F883C7F800800020A5F8B44ABDE8F88371
:102AD0003E600020A5F8B44ABDE8F88341F23423F3
:102AE000E858BDE8F8430EF0CFBC00BFB0C7FF1FE9
:102AF0002DE9F043284D6B78012B85B0274B44D945
:102B00001B68186903F13C0903F1100412F04AFF35
:102B1000234913F053F80146224813F04FF8224995
:102B200013F04CF812F0D6F904A9204A41F8040D2C
:102B30004FF07E5380460192009300221C4B1D48AB
:102B4000FFF78CFF1C4B039F18700646144938464C
:102B500013F034F80146134813F030F8124913F01B
:102B60002DF813F063F941462060384613F026F83B
:102B7000D9F8001012F06EFF0346C9F80000304685
:102B8000C5F8E03A05B0BDE8F0831C68206904F19F
:102B900038091034BAE700BFB0C7FF1F80C2FF1F5B
:102BA00000007A4400606A470000C041991B0000A1
:102BB0000000FA4308D3FF1F8C99FF1F70B51F4D0B
:102BC0006B78022B84B032D0032B29D0012B02D09A
:102BD00000231B7AFFDE2B784FF4987404FB035418
:102BE00004F5827494F9080012F0E0FE04A9144A76
:102BF00041F8040D4FF07E5301920093114A124B9D
:102C00001248FFF72BFF124B06461E70039813F075
:102C1000E7F840B2207285F8E40A304604B070BD8F
:102C20002B784FF4987404FB0354A434DAE72B7820
:102C30004FF4987404FB03544034D3E7B0C7FF1F2C
:102C4000991B00000000A0C00000A04008D3FF1F97
:102C50008C99FF1F2DE9F843099CDDF820900E4662
:102C600090461F460CB10868A0471C4DD5F8040ECD
:102C70000EF0DAFCB5F8B64AB5F8B43A201A84B2C8
:102C80009C42A5F8B64A21D0E01A12F08FFE4946C0
:102C900012F0E0FE8146306812F088FE0146484698
:102CA00012F0D0FD13F09CF8404508DB8742A8BF26
:102CB000074637600020A5F8B44ABDE8F883C6F897
:102CC00000800020A5F8B44ABDE8F88341F234231F
:102CD000E858BDE8F8430EF0D7BB00BFB0C7FF1FF0
:102CE0002DE9F047224CBDF82090099D0646D4F806
:102CF000040E0F4690469A460EF096FCB4F8B63A8B
:102D0000B4F8B41A184480B2A4F8B60A884296F807
:102D100061221BD2AB5C013BDBB22F2B98BF392366
:102D2000AB5428460A22002114F068F84045386068
:102D300013DAB4F8B60AC7F8008041F23423A4F8D5
:102D4000B40AE058BDE8F0470EF09EBBF5D95AB979
:102D500009F1FF3986F86192EFE75045C8BFC7F81F
:102D600000A0B4F8B60AE8E7013A86F86122E4E781
:102D7000B0C7FF1FF8B5204C0546D4F8040E0E4628
:102D800017460EF051FCB4F8B63AB4F8B41A184429
:102D900080B2A4F8B60A95F861228842B35C1ED2CC
:102DA0000133DBB213F0800F18BF2023B354B4F803
:102DB000B60AA4F8B40A41F23423E0580EF064FBDA
:102DC00060B195F86132013FBB4207D013B9327848
:102DD000202A0ED0013385F861320020F8BDE8D9F1
:102DE000013BDBB21F2B98BF7F23B354B4F8B60A64
:102DF000DFE73370F8BD00BFB0C7FF1FF0B5104864
:102E000083B0D0F8085EBDF8206008461F4614461F
:102E100013F0B6FE04EB4404A4002A68033400EB6C
:102E20004003122100200190009104EB43031BB2E8
:102E3000146C39B2284632B2A04703B0F0BD00BFCF
:102E4000B0C7FF1F2DE9F047314D82B01F468946BC
:102E5000BDF82860D5F8080E0121144607F10208D4
:102E60000CF014FED5F8080E002201210CF014FE1F
:102E70001FFA88F8721D0FFA88F112B2D5F8080E01
:102E80000CF000FED5F808AE484613F079FEDAF8EB
:102E9000003002465B68494650469847504611F05C
:102EA00007FAD5F8080E02210CF0F0FDD5F8080E4F
:102EB000002201210CF0F0FD484613F061FE00EB0A
:102EC000400008EB4001721C09B212B2D5F8080E9E
:102ED0000CF0D8FD484613F053FE04EB4404D5F83B
:102EE000085EA400D5F800E000EB400003340121A7
:102EF00012220191009204EB40031BB232B239B2AC
:102F00002846DEF84C40A04702B0BDE8F08700BF7D
:102F1000B0C7FF1F2DE9F04F85B09846BDF8389037
:102F2000BDF83CA0CDF800A00C464B460546164621
:102F300042460391FFF762FF2146CDF800A04B46C1
:102F400042462846FFF77EFF244F00240BE0D7F8C7
:102F5000080E16F80B1003681B68984795F8613245
:102F60005B4512D00134304613F00AFE1FFA84FB91
:102F7000584512D995F861325B45E8D1012200210C
:102F8000D7F8080E0CF088FDE1E7144B0022012170
:102F9000D3F8080E0CF080FDE4E7D7F8084E10498E
:102FA000236800225B6820469847204611F080F98C
:102FB000424631462846FFF7DDFE58B14B462846CB
:102FC000CDF800A042460399FFF718FFFF2385F8CC
:102FD0006132012005B0BDE8F08F00BFB0C7FF1F10
:102FE00048AB0100F0B5044690F8610287B0FF28B5
:102FF000BDF83050BDF834600AD08DE8600020463E
:10300000FFF788FF10B1FF2384F8613207B0F0BDED
:10301000002084F86102104605930491039213F096
:10302000AFFD059B039A04999842E6D207DA104453
:1030300002EB030E202700F8017B7045FBD1002036
:10304000D054DAE7102B2DE9F84305460C464FF033
:10305000000E53D8724501F803E055DB9E4518DA9F
:10306000DFF8B4C0E718012692FBF6F18CFB0108EB
:10307000C817C0EBA80000EB8000A1EB4001013BAA
:1030800006EB8606303173454FEA460607F8011D08
:10309000EADCDFF888800027C1460AE0D8F8080E8D
:1030A000A15D03681B68984795F86132B34211D05F
:1030B0000137204613F064FDBEB2B04211D995F835
:1030C0006132B342EAD101220021D8F8080E0CF097
:1030D000E3FCE3E700220121D9F8080E0CF0DCFC48
:1030E000E6E7D8F8084E0B49236820465B680022C3
:1030F00098472046BDE8F84311F0DAB8724581F8E8
:1031000010E04FF01003ABDA2D21524221704FF046
:10311000010EA3E748AB010067666666B0C7FF1FF4
:103120002DE9F04788B00446BDF84450BDF848602A
:10313000BDF84C700097904689462A469A46334619
:10314000FFF75CFE33462A46494620460097FFF7C4
:1031500079FE2B46D8F80020204603A9FFF772FF1E
:1031600094F86132FF2B17D003AB019300955246C0
:103170004146109B2046FFF7B3FD50B13346204631
:1031800000972A464946FFF739FEFF2384F861324B
:10319000012008B0BDE8F08700224FF07E53019275
:1031A000009352464146109B2046FFF753FDE4E74B
:1031B000F0B51B4A11784FF4987303FB01F3D11853
:1031C00087B091F84E00C00624D101F58874B1F89B
:1031D000101192F8B93D124A114D0591FF2B04BF11
:1031E000032382F8B93D2D274FF47A720023042679
:1031F0008DE844000B49039705F65830029305AA61
:10320000FFF78EFF10B1FF2385F8B93D059B2380A2
:1032100007B0F0BD1344B1F84C1003F14C04D8E7EB
:10322000B0C7FF1F04AA01002DE9F0432A4D2B4926
:10323000D5F8E80A284E87B012F00CFC12F0D0FD49
:1032400095F8B93D0590FF2B04BF042385F8B93DDF
:10325000234B00932D21002305220391019206F6B2
:103260005830029305AA1F49FFF75AFF804630B332
:10327000FF2386F8B93D059812F098FB174912F024
:103280009DFC34460146C6F8E80A06F51867B146C3
:1032900001E0D9F8E81A95F8EC6AD4F8C8000EF005
:1032A000CFFE304612F07EFB04F5987454F8683C6B
:1032B000A7421861EDD1404607B0BDE8F0830598FC
:1032C00012F074FB054912F079FCC6F8E80A404692
:1032D00007B0BDE8F08300BFB0C7FF1F0050C34771
:1032E0003F420F0010AA01002DE9F0431C4D1D497B
:1032F00095F8EC3A87B006AA042642F8043D2D273B
:1033000000234FF480748DE8500005F65830039781
:103310000293FFF705FF9DF8146085F8EC6A81467B
:1033200018B9484607B0BDE8F0832C4605F5186784
:10333000A84601E098F8EC6AD4F8C800D5F8E81A75
:103340000EF07EFE304612F02DFB04F5987454F812
:10335000683CBC421861EDD1484607B0BDE8F08337
:10336000B0C7FF1F1CAA0100F0B52E4D6B78022BD1
:1033700087B030D0032B27D0012B02D000235B78FD
:10338000FFDE2B784FF4987202FB035303F5827330
:1033900006AA5B78234E42F8043D03272D23002420
:1033A00001977F27039320490294234606F658305D
:1033B0000097FFF7B5FE6B78022B28D0032B1CD0AB
:1033C000012B0FD06470FFDE2B784FF4987202FB54
:1033D0000353A433DCE72B784FF4987202FB0353BA
:1033E0004033D5E733784FF4987202FB036303F55B
:1033F0008273059A5A7007B0F0BD32784FF4987313
:1034000003FB0263A433059A5A7007B0F0BD32780B
:103410004FF4987303FB02634033059A5A7007B068
:10342000F0BD00BFB0C7FF1F24AA0100F0B52E4CAD
:103430006378022B87B030D0032B27D0012B02D02A
:1034400000231B78FFDE23784FF4987202FB0343BE
:1034500003F5827306AA1B7842F8043D224E2349E5
:103460002D2303930025102303278DE8880006F6FB
:10347000583001230295FFF753FE6378022B28D0C2
:10348000BB421CD0012B0FD02D70FFDE23784FF4F0
:10349000987202FB0343A433DCE723784FF498725D
:1034A00002FB03434033D5E733784FF4987202FBB5
:1034B000036303F58273059A1A7007B0F0BD327882
:1034C0004FF4987303FB0263A433059A1A7007B094
:1034D000F0BD32784FF4987303FB02634033059AD2
:1034E0001A7007B0F0BD00BFB0C7FF1F30AA0100BF
:1034F000F0B5304C6378022B87B036D0032B2DD03B
:10350000012B02D000235B68FFDE23784FF4987212
:1035100002FB034303F582735868264E12F060FCE9
:1035200006AA2D270321FF23002542F8040D039747
:103530000191009306F65830012302951E49FFF7CA
:10354000EFFD6378022B07462DD0032B24D0012BEF
:1035500012D0059812F02AFA6860FFDE23784FF443
:10356000987202FB0343A433D6E723784FF4987292
:1035700002FB03434033CFE733784FF4987505FBE4
:10358000036505F58275059812F010FA6860C4F8B5
:10359000E00A384607B0F0BD33784FF4987505FB64
:1035A0000365A435EFE733784FF4987505FB0365A1
:1035B0004035E8E7B0C7FF1F40AA0100F0B52D4C29
:1035C0006378022B87B032D0032B29D0012B02D095
:1035D00000231B7AFFDE23784FF4987202FB03432B
:1035E00003F5827306AA93F9083042F8043D214E90
:1035F00021492D2303930025782304278DE8880093
:1036000006F658306FF077030295FFF789FD63786F
:10361000022B28D0032B1FD0012B0FD02D72FFDEE1
:1036200023784FF4987202FB0343A433DAE723783C
:103630004FF4987202FB03434033D3E733784FF4DF
:10364000987202FB036303F582739DF914201A72CA
:1036500084F8E42A07B0F0BD32784FF4987303FB86
:103660000263A433F1E732784FF4987303FB0263EB
:103670004033EAE7B0C7FF1F4CAA0100F0B5314D57
:103680006B78022B87B033D0032B2AD0012B03D0C9
:10369000002393F82030FFDE2B784FF4987202FB62
:1036A000035303F5827306AA93F82030254E42F89F
:1036B000043D03272D23002401977F2703932249EC
:1036C0000294234606F658300097FFF729FD6B78E1
:1036D000022B2BD0032B1ED0012B10D084F82040BE
:1036E000FFDE2B784FF4987202FB0353A433DAE722
:1036F0002B784FF4987202FB03534033D3E73378AF
:103700004FF4987202FB036303F58273059A83F802
:10371000202007B0F0BD32784FF4987303FB0263AA
:10372000A433059A83F8202007B0F0BD32784FF417
:10373000987303FB02634033059A83F8202007B097
:10374000F0BD00BFB0C7FF1F5CAA0100F0B5314D4E
:103750006B78022B87B033D0032B2AD0012B03D0F8
:10376000002393F82130FFDE2B784FF4987202FB90
:10377000035303F5827306AA93F82130254E42F8CD
:10378000043D03272D23002401977F27039322491B
:103790000294234606F658300097FFF7C1FC6B7879
:1037A000022B2BD0032B1ED0012B10D084F82140EC
:1037B000FFDE2B784FF4987202FB0353A433DAE751
:1037C0002B784FF4987202FB03534033D3E73378DE
:1037D0004FF4987202FB036303F58273059A83F832
:1037E000212007B0F0BD32784FF4987303FB0263D9
:1037F000A433059A83F8212007B0F0BD32784FF446
:10380000987303FB02634033059A83F8212007B0C5
:10381000F0BD00BFB0C7FF1F68AA0100F0B5474C5C
:103820006378022B87B047D0032B3BD0012B03D00A
:10383000002393F82030FFDE23784FF4987202FBC8
:10384000034303F5827393F82020D20193F82130CB
:1038500094F8B91D3948394D1344FF29059304BF25
:10386000042380F8B93D43F6FF722D270023052677
:103870008DE844003249039705F65830029305AAB3
:10388000FFF74EFC10B1FF2385F8B93D63782B4C50
:10389000022B3FD0032B2FD0012B17D0002383F80E
:1038A0002030FFDE23784FF4987202FB0343A433E9
:1038B00093F82020D201C9E723784FF4987202FBD5
:1038C0000343403393F82020D201BFE723780599C2
:1038D0004FF4987202FB0342002902F582720B46F4
:1038E00015DBDB1182F82030164B0B40002B1DDB63
:1038F00082F8213007B0F0BD237805994FF4987213
:1039000002FB0342002902F1A4020B46E9DA01F1AD
:103910007F03E6E7237805994FF4987202FB034290
:10392000002902F140020B46DBDAF0E7013B63F0CD
:103930007F03013382F8213007B0F0BDB0C7FF1F0D
:1039400074AA01007F000080F0B52E4D6B78022B29
:1039500087B030D0032B27D0012B02D000239B78D7
:10396000FFDE2B784FF4987202FB035303F582734A
:1039700006AA9B78234E42F8043D03272D230024FA
:1039800001977727039320490294234606F658307F
:103990000097FFF7C5FB6B78022B28D0032B1CD0B8
:1039A000012B0FD0A470FFDE2B784FF4987202FB2E
:1039B0000353A433DCE72B784FF4987202FB0353D4
:1039C0004033D5E733784FF4987202FB036303F575
:1039D0008273059A9A7007B0F0BD32784FF49873ED
:1039E00003FB0263A433059A9A7007B0F0BD3278E6
:1039F0004FF4987303FB02634033059A9A7007B043
:103A0000F0BD00BFB0C7FF1F7CAA0100F0B52E4D6E
:103A10006B78022B87B030D0032B27D0012B02D03C
:103A20000023DB78FFDE2B784FF4987202FB035300
:103A300003F5827306AADB78234E42F8043D032780
:103A40002D23002401977F270393204902942346C6
:103A500006F658300097FFF763FB6B78022B28D0EF
:103A6000032B1CD0012B0FD0E470FFDE2B784FF41A
:103A7000987202FB0353A433DCE72B784FF498725F
:103A800002FB03534033D5E733784FF4987202FBBF
:103A9000036303F58273059ADA7007B0F0BD3278DC
:103AA0004FF4987303FB0263A433059ADA7007B0EE
:103AB000F0BD32784FF4987303FB02634033059AEC
:103AC000DA7007B0F0BD00BFB0C7FF1F84AA0100C5
:103AD00038B5214C6378022B28D0032B1FD0012B43
:103AE0000FD000201421FEF773FA94F8B03D1A4D60
:103AF0007BB9012385F8B03DFFF736FCE8B900201B
:103B000038BD23784FF4987000FB034000F58270B5
:103B1000E8E7012BF0D0022B15D0012038BD237827
:103B20004FF4987000FB0340A430DBE723784FF498
:103B3000987000FB03404030D4E794F8B03D013367
:103B400084F8B03DDBE7FFF761FF0028D7D0002302
:103B500085F8B03D38BD00BFB0C7FF1FF0B5304C91
:103B60006378022B87B036D0032B2DD0012B02D0E7
:103B700000235B68FFDE23784FF4987202FB034357
:103B800003F582735868264E12F02AF906AA2D27EB
:103B90000321FF23002542F8040D039701910093B0
:103BA00006F65830012302951E49FFF7B9FA6378EB
:103BB000022B07462DD0032B24D0012B12D00598C1
:103BC00011F0F4FE6860FFDE23784FF4987202FB78
:103BD0000343A433D6E723784FF4987202FB0343E0
:103BE0004033CFE733784FF4987505FB036505F54F
:103BF0008275059811F0DAFE6860C4F8E00A38466C
:103C000007B0F0BD33784FF4987505FB0365A43514
:103C1000EFE733784FF4987505FB03654035E8E727
:103C2000B0C7FF1F40AA0100F0B52D4C6378022BEE
:103C300087B032D0032B29D0012B02D000231B7A6E
:103C4000FFDE23784FF4987202FB034303F582737F
:103C500006AA93F9083042F8043D214E21492D234C
:103C600003930025782304278DE8880006F6583052
:103C70006FF077030295FFF753FA6378022B28D091
:103C8000032B1FD0012B0FD02D72FFDE23784FF4B2
:103C9000987202FB0343A433DAE723784FF4987257
:103CA00002FB03434033D3E733784FF4987202FBAF
:103CB000036303F582739DF914201A7284F8E42AD1
:103CC00007B0F0BD32784FF4987303FB0263A4335E
:103CD000F1E732784FF4987303FB02634033EAE76D
:103CE000B0C7FF1F4CAA010070B5344C637888B090
:103CF00000227F21022B0592069136D0032B2AD079
:103D0000012B01D0938BFFDE23784FF4987000FBDA
:103D1000034000F58270B0F91C30079306AA05A98C
:103D2000FEF702F9254E069A00922D210522002564
:103D3000059B0391019206F65830029507AA204987
:103D4000FFF7EEF96378022B2ED0032B22D0012B44
:103D500015D0AD83FFDE23784FF4987000FB03404D
:103D6000A430B0F91C300793D8E723784FF498704B
:103D700000FB03404030B0F91C300793CEE73378A6
:103D80004FF4987202FB036303F58273079A9A83D8
:103D900008B070BD32784FF4987303FB0263A4330C
:103DA000079A9A8308B070BD32784FF4987303FB7A
:103DB00002634033079A9A8308B070BDB0C7FF1FF3
:103DC00090AA010070B5344C637888B000227F213E
:103DD000022B0592069136D0032B2AD0012B01D05D
:103DE000D38BFFDE23784FF4987000FB034000F57F
:103DF0008270B0F91E30079306AA05A9FEF794F861
:103E0000254E069A00922D2105220025059B03913F
:103E1000019206F65830029507AA2049FFF780F96B
:103E20006378022B2ED0032B22D0012B15D0ED83EB
:103E3000FFDE23784FF4987000FB0340A430B0F904
:103E40001E300793D8E723784FF4987000FB0340A7
:103E50004030B0F91E300793CEE733784FF49872B4
:103E600002FB036303F58273079ADA8308B070BD1F
:103E700032784FF4987303FB0263A433079ADA8312
:103E800008B070BD32784FF4987303FB026340337F
:103E9000079ADA8308B070BDB0C7FF1F9CAA010063
:103EA00038B50A4D2C783CB1012C08D1FFF78AFFB8
:103EB00028B100232B7038BDFFF716FF08B900208A
:103EC00038BD01232B70204638BD00BF4CB1FF1F09
:103ED000F0B52F4D6B78022B87B037D0032B2ED047
:103EE000012B02D000235B69FFDE2B784FF4987121
:103EF00001FB035101F5827106AA4B6942F8043DAA
:103F00004FF02D0E8C69224FCDF80CE04FF0060ECD
:103F1000CDF804E0002644F2020E1E4B1E49029624
:103F200007F65830CDF800E0FFF7FAF86B78022B6F
:103F300026D0032B1DD0012B0FD07661FFDE2B780E
:103F40004FF4987101FB0351A431D5E72B784FF45E
:103F5000987101FB03514031CEE73B784FF49872E2
:103F600002FB037303F58273059A9C615A6107B0E3
:103F7000F0BD3A784FF4987303FB0273A433F3E770
:103F80003A784FF4987303FB02734033ECE700BFB9
:103F9000B0C7FF1FFDBFFFFFA8AA0100F0B5304D5D
:103FA0006B78022B87B038D0032B2FD0012B02D097
:103FB00000235B69FFDE2B784FF4987202FB0353FA
:103FC00003F582735C699869254F264B264906AA3A
:103FD00020444FF02D0E42F8040DCDF80CE04FF0C8
:103FE000060ECDF804E0002644F2020E07F6583023
:103FF0000296CDF800E0FFF793F86B78022B27D0FC
:10400000032B1ED0012B0FD07661FFDE2B784FF4EF
:10401000987202FB0353A433D4E72B784FF49872C1
:1040200002FB03534033CDE73B784FF4987202FB19
:10403000037303F58273059A5C61141B9C6107B0DE
:10404000F0BD3A784FF4987303FB0273A433F2E7A0
:104050003A784FF4987303FB02734033EBE700BFE9
:10406000B0C7FF1FFDBFFFFFB0AA010038B50A4D62
:104070002C783CB1012C08D1FFF790FF28B1002328
:104080002B7038BDFFF724FF08B9002038BD01238D
:104090002B70204638BD00BF4CB1FF1FF0B5354C2A
:1040A000637889B000227F21022B059206913AD0D5
:1040B000032B2CD0012B01D0138AFFDE23784FF481
:1040C000987000FB034000F58270B0F91030B0F931
:1040D0001250079306AA05A9FDF726FF254F069A59
:1040E00000922D2105220026059B0391019207F6DF
:1040F0005830029607AA2049FFF712F86378022B7E
:1041000030D0032B27D0012B19D03682FFDE237845
:104110004FF4987000FB0340A430B0F91030B0F9B0
:1041200012500793D6E723784FF4987000FB0340B2
:104130004030B0F910300793B0F91250CAE73B781D
:104140004FF4987202FB037303F58273079A5D8242
:104150001A8209B0F0BD3A784FF4987303FB0273EA
:10416000A433F3E73A784FF4987303FB02734033B8
:10417000ECE700BFB0C7FF1FB8AA0100F0B5374C8D
:10418000637889B000227F21022B059206913CD0F2
:10419000032B2DD0012B01D0138AFFDE23784FF49F
:1041A000987000FB034000F58270B0F91050B0F930
:1041B00012302B44079306AA05A9FDF7B5FE274F39
:1041C000069A00922D2105220026059B039101925B
:1041D00007F65830029607AA2149FEF7A1FF637837
:1041E000022B33D0032B2AD0012B1BD03682FFDECB
:1041F00023784FF4987000FB0340A430B0F91050BE
:10420000B0F912302B440793D5E723784FF4987018
:1042100000FB03404030B0F91050B0F912302B448D
:104220000793C8E73B784FF4987202FB037303F5DA
:104230008273079A1D82551B5D8209B0F0BD3A78E2
:104240004FF4987303FB0273A433F2E73A784FF408
:10425000987303FB02734033EBE700BFB0C7FF1F47
:10426000C4AA010038B50A4D2C783CB1012C08D104
:10427000FFF784FF28B100232B7038BDFFF70EFF36
:1042800008B9002038BD01232B70204638BD00BF7F
:104290004CB1FF1F2DE9F04F89469DB0D0F8641254
:1042A0000890BDF898A09DF89C700D921E4629B903
:1042B000754B1B680F930F9BC0F86432002F00F002
:1042C000BD80724B3D1F83FB0523A3EBE5750235D3
:1042D000ED00ABB2CAF13F059D424846A8BF1D465E
:1042E00012F04EFC00EB4000430004339BB2DFF8B9
:1042F000A081D8F8080E9F422AB228BF1F460C9210
:1043000003680092002231B20FFA8AF401923AB2A5
:10431000D3F840B00B921346099122460A94D8472D
:10432000D8F8080E01210BF0B1FB0022D8F8080ED6
:1043300001210BF0B1FB554B033F83FB07230236F2
:10434000ADB2A3EBE77733B20593EB1F07931CAB3A
:1043500000240AF1040A3B441FFA8AFA0693254610
:10436000A34607E0079BB3EBC20F2EDD6DB3B4F598
:10437000807F2AD00AEBC40212B20599D8F8080E41
:104380000BF080FB09EB05013A4611A812F066FC20
:10439000069BD8F8086E03F82CBC11A812F0F0FBAD
:1043A000336802465B6811A93046984730460FF0E3
:1043B0007FFF484612F0E4FBC01BEB19854204F175
:1043C00002029DB204F10104CCD9D8F8080E0C9A6F
:1043D000036800920122019209A9DC6C2C4D0EC9E0
:1043E000A047089B93F82E31002B38D1D8F8080E3F
:1043F0000CF0D0F941F2342358F803000DF044F8E2
:1044000050B9214A089B1268D3F8643210920D9972
:10441000109A19448A420ED9D8F8080E0C9B0568E8
:1044200000930024019409A90EC92D6CA847089B8C
:104430000120C3F864421DB0BDE8F08F484612F079
:104440009FFB00EB4000CAF13F0543000433C6F177
:104450007F07102D9BB2A8BF1025FFB247E7089E2B
:10446000D5F8080E96F83C41D6F83431B6F9322129
:10447000B6F93011B6F93A510294B6F938418DE8DF
:1044800030000BF0C3F8B1E70CDDFF1FABAAAA2A7E
:10449000B0C7FF1F2DE9F0470E4601789DF8208038
:1044A0000829044691464ED03C4AD0F8C400D2F8C0
:1044B000BC7AD2F8C81A1D46D2F8C03A6365D2F861
:1044C000C43A27650127C4F8B430C4F8B81084F89A
:1044D0009C7092F8ECAAD2F8E81A0DF0B1FD5046A3
:1044E00011F060FAD4F8C420162310610021184698
:1044F00084F8656023710EF093F90026102084F88B
:10450000680084F8C990E68031460EF089F9A4F875
:104510006A6084F8D46084F8CC5028460DB9BDE8B0
:10452000F08702210EF07CF984F81081B8F1000FB9
:1045300002D13846BDE8F087404639460EF070F9A2
:104540003846BDE8F087154BD3F8CC1AD3F8D82AF3
:10455000D3F8D00AD3F8D43A2165102700210D46AC
:104560006065C4F8B430C4F8B820384684F8656093
:1045700027710EF055F9384684F8687084F8C990B0
:10458000E58029460EF04CF984F8CC50A4F86A5026
:1045900084F8D4502846BDE8F08700BFB0C7FF1F9D
:1045A0002DE9F8430446884616460EF03FF9236984
:1045B000A06113B9E369002B44D072B6DFF8AC9068
:1045C000254FD9F800103B682448A569E269CB1A49
:1045D00080FB0310D917C1EBA000062184F824103A
:1045E0001F49C5EB030EAA1A0B60236A6261851886
:1045F0001C4AA06A7344A9B213600DF013FDA26AAD
:104600006369D26A002E62F30F0528461FDDB040B1
:10461000B340D9F800103A680B440244C9F800309E
:104620003A6011F0BFF9414611F0C8FA0E4911F095
:10463000C5FA11F0FBFBA3692061E36162B60120BA
:10464000BDE8F8832062E0611846BDE8F883E0D059
:104650007642F040F340DCE758B1FF1F67666666BC
:1046600010B9FF1FE8DCFF1F0000C040F0B0FF1FC3
:1046700010B50446022094F8611001F001010EF01B
:10468000BBF894F861100320C1F340010EF0B4F8B8
:1046900094F861100420C1F38001BDE810400EF0D1
:1046A000ABB800BF30B50F4B0C4683B09C424FF007
:1046B00000014FF07F02054608BFB0F904408DE8C5
:1046C0000600383001AA6946FDF72EFCB5F9540002
:1046D000844204DBB5F95600A042A8BF204603B0CF
:1046E00030BD00BFF1D8FFFF38B590F82C31032B57
:1046F00036D8DFE803F0021104021A4838BD90F8FA
:10470000AE3003F01F03062BB0F908301DD0B0F90E
:104710006C1003FB01F104E0B0F90810B0F96C3043
:10472000194490F84A301A4604466FF3461280F84E
:104730004A200430C3F34115FFF7B4FF94F84A3020
:1047400065F3461384F84A3038BDB0F96C20064949
:1047500003FB02F381FB0321DB17C3EB6111E0E7ED
:104760000049DEE7F1D8FFFF1F85EB51012A08B5AC
:104770003DDD90F8463003F01F03192B40D8DFE8E9
:1047800003F0101217101010101C1010101010262B
:104790002610101010102E2E0D0D10170B7880F80B
:1047A0003A30104608BD0B88A0F85A30104608BDB4
:1047B0000B7880F83930104608BD124BD3F8E01A58
:1047C000C16393F9E43A80F84030104608BD0B7895
:1047D00080F859304B7880F85830104608BD0B7877
:1047E00080F839304B7880F83B30104608BD2221E4
:1047F00005480FF0C1FA05480FF05AFD002008BD2A
:10480000002008BDB0C7FF1FD4AA0100E0A3FF1F0E
:104810002DE9F84390F83450574E584C002D08BFFE
:104820003446154614BF0A270D277D2900F2A280C1
:10483000DFE801F046A0A0A0A0A0A0A0A0A0A0A09A
:10484000A0A0A0A0A0A0A0A0A0A0A0A0A0A0A0A068
:10485000A0A0A0A0A0A0A0A0A0A0A0A0A0A0A0A058
:10486000A0A0A0A0A0A0A0A0A0A0A0A0A0A0A0A048
:10487000A0A0A0A0A0A0A0A0A0A0A0A0A0A0A0A038
:10488000A0A0A0A0A0A0A0A0A0A0A0A0A0A0A0A028
:10489000A0A0A0A0A0A0A0A0A0A0A0A0A0A0A0A018
:1048A000A0A0A0A0A05D6C6267717A80868A8E94B9
:1048B0009A3F2A7880F846201D462846BDE8F883AE
:1048C00007EB4707033FDFF8B890A84606462744A2
:1048D0002379617919F803302A463046FFF798FFAB
:1048E0000334A7420544F3D1C8EB0505E5E72A7870
:1048F00080F838201D46E0E72A7880F843201D46DE
:10490000DBE72A88A0F844201D46D6E72A7880F8FD
:1049100042201D46D1E7297890F8462061F3040231
:104920001D4680F84620C8E7B5F90020A0F84820C9
:104930001D46C2E7B5F90020A0F84A201D46BCE795
:104940002A68C2641D46B8E72A6802651D46B4E7B6
:10495000B5F90020A0F854201D46AEE7B5F90020B7
:10496000A0F856201D46A8E71A462946BDE8F84398
:10497000FFF7FCBE0025A0E7988FFF1FAC94FF1F38
:10498000F09FFF1F10B58AB00446242201A80DF045
:10499000D9FC01AA204624230021FFF739FF94F80F
:1049A0003430002B14BF0E2018200AB010BD00BFF9
:1049B000012A08B533DD90F8463003F01F03192BA8
:1049C00036D8DFE803F01012171010101010101076
:1049D0001010101C1C101010101024240D0D101796
:1049E00090F83A300B70104608BDB0F85A300B8082
:1049F000104608BD90F839300B70104608BD90F88D
:104A000059300B7090F858304B70104608BD90F834
:104A100039300B7090F83B304B70104608BD2221A6
:104A200004480FF0A9F904480FF042FC002008BD2B
:104A3000002008BDF8AA0100E0A3FF1F2DE9F843FC
:104A400090F83450604E614C002D90460ABF3446B9
:104A50000A270D277D2900F2B380DFE801F046B177
:104A6000B1B1B1B1B1B1B1B1B1B1B1B1B1B1B1B136
:104A7000B1B1B1B1B1B1B1B1B1B1B1B1B1B1B1B126
:104A8000B1B1B1B1B1B1B1B1B1B1B1B1B1B1B1B116
:104A9000B1B1B1B1B1B1B1B1B1B1B1B1B1B1B1B106
:104AA000B1B1B1B1B1B1B1B1B1B1B1B1B1B1B1B1F6
:104AB000B1B1B1B1B1B1B1B1B1B1B1B1B1B1B1B1E6
:104AC000B1B1B1B1B1B1B1B1B1B1B1B1B1B1B15E29
:104AD00073656C7A838A91979DA4AB3F90F84620CA
:104AE00088F800201846BDE8F88307EB4707033F26
:104AF000DFF8DC900646274445462379617919F8AA
:104B000003302A463046FFF799FF0334BC42054480
:104B1000F3D1C8EB0500BDE8F88390F8382088F899
:104B200000201846BDE8F88390F8432088F800205C
:104B30001846BDE8F883B0F84420A8F800201846CD
:104B4000BDE8F88390F8422088F800201846BDE8B8
:104B5000F88390F84620C2F3040288F80020184633
:104B6000BDE8F883B0F94820A8F800201846BDE851
:104B7000F883B0F94A20A8F800201846BDE8F88369
:104B8000C26CC8F800201846BDE8F883026DC8F86A
:104B900000201846BDE8F883B0F95420A8F800209A
:104BA0001846BDE8F883B0F95620A8F8002018464A
:104BB000BDE8F8831A464146BDE8F843FFF7F8BE62
:104BC0000020BDE8F88300BF988FFF1FAC94FF1F43
:104BD000F09FFF1FF0B58BB00E4601AA24230021E1
:104BE0000746FFF72BFF31460246054601A80DF0A8
:104BF000F3FB97F834301648002B4FF00D0114BF2B
:104C00000E2418240FF0B8F800230A22397811482E
:104C10000FF074FB022110480FF0AEF831460D483A
:104C20000FF0ACFB01210D480FF0A6F8294609480A
:104C30000FF0A4FB012109480FF09EF8214605481A
:104C40000FF09CFB03480FF033FB20460BB0F0BD88
:104C50001CAB0100E0A3FF1F78AF010070A80100AA
:104C6000012A08B524DD90F842300E2B29D8DFE860
:104C700003F01A1A0808100E0E0E0E0E0E0E0E0E6F
:104C80000E000B7880F835304B7880F837301046BE
:104C900008BD0D4BD3F8E01A816393F9E43A80F82C
:104CA0003C30104608BD0B7880F83630104608BD01
:104CB000222106480FF060F805480FF0F9FA0020AD
:104CC00008BD002008BD00BFB0C7FF1FD4AA010067
:104CD000E0A3FF1F80292DE9F843144641D00AD9EB
:104CE00082292FD022D3832932D11A462146BDE80A
:104CF000F843FFF7B5BF7E292DD01DD841BB1C4D11
:104D0000DFF870900646174605F1120814462B7915
:104D1000697919F8033022463046FFF7DBFF033587
:104D200045450444F3D1E01BBDE8F8831288A0F8A0
:104D300040201846BDE8F883127880F83E201846D7
:104D4000BDE8F883127880F842201846BDE8F88361
:104D50000020BDE8F883127880F834201846BDE8BA
:104D6000F883127880F83F201846BDE8F88300BF2A
:104D70009494FF1FF09FFF1F10B584B004461022CB
:104D800068460DF0DFFA6A46204610230021FFF73F
:104D9000A1FF082004B010BD70B5054608460E46B8
:104DA0000DF0B6FAB41C85F82C01214605F1CC00B3
:104DB000FFF7E2FF04442146281DFFF7E3FD04440A
:104DC000214605F16800FFF7DDFD2044831B2A78AA
:104DD000024903480FF084FA302070BD2CAB01006B
:104DE000E0A3FF1F012A10B514DD90F842400E2CFD
:104DF00017D80123A34047F6F0741C409CB913F068
:104E00000C0F12D113F003030BD090F836300B7057
:104E1000104610BD222109480EF0AEFF08480FF0E1
:104E200047FA002010BD104610BD90F835300B70C9
:104E300090F837304B70104610BD00BFD4AA010067
:104E4000E0A3FF1F80292DE9F843144641D00AD979
:104E500082292FD022D3832932D11A462146BDE898
:104E6000F843FFF7BFBF7E292DD01DD841BB1C4D95
:104E7000DFF870900646174605F1120814462B79A4
:104E8000697919F8033022463046FFF7DBFF033516
:104E900045450444F3D1E01BBDE8F883B0F8402059
:104EA00022801846BDE8F88390F83E20227018460C
:104EB000BDE8F88390F8422022701846BDE8F883D8
:104EC0000020BDE8F88390F8342022701846BDE831
:104ED000F88390F83F2022701846BDE8F88300BFA1
:104EE0009494FF1FF09FFF1F2DE9F04184B00F46FF
:104EF00010236A4600218046FFF7A4FF184C194D85
:104F000002460646394668460DF066FA0E211648F6
:104F10000EF032FF00230A2298F8001020460FF00E
:104F2000EDF9022111480EF027FF394620460FF017
:104F300025FA284601210EF01FFF314620460FF0CA
:104F40001DFA284601210EF017FF082120460FF018
:104F500015FA20460FF0ACF9082004B0BDE8F08146
:104F6000E0A3FF1F70A801004CAB010078AF010067
:104F700070B5054682B002A895F82C3100F8013DC5
:104F800001228C1C0E460DF027FA214605F1CC00BB
:104F9000FFF7AAFF04442146281DFFF71BFE044427
:104FA000214605F16800FFF715FE13210444164859
:104FB0000EF0E2FE00230A22297814480FF09EF931
:104FC000022113480EF0D8FE314610480FF0D6F9F2
:104FD000A61B01210F480EF0CFFE31460B480FF003
:104FE000CDF901210B480EF0C7FE214607480FF00E
:104FF000C5F906480FF05CF92B78082B0CBF30463A
:10500000302002B070BD00BF5CAB0100E0A3FF1F09
:1050100078AF010070A8010070B5FA2982B00C4683
:10502000054639D3FB2923D9FC2935D1214E224904
:10503000002385F82030142206F6984011F00EFE69
:105040001E4B1B68019342F21072019BC6F8982D0B
:10505000C6F89C3D200240F00F000EF05DFBAB6AED
:105060005B6D1868036821461B68984702B070BDE5
:10507000104E1349012385F82030142206F698407B
:1050800011F0ECFD0D4B1B68009342F21072009B77
:10509000C6F8982DC6F89C3D04F10803DBB2072B37
:1050A000E4D8012202FA03F313F0DD0FD2D102B0EB
:1050B00070BD00BFB0C7FF1F7CAB01000CDDFF1F40
:1050C00070AB010038B504460DF0B0FB236A2269CD
:1050D000C31A9A42054616D36369E26903EB430398
:1050E000AD1AAB420ED20C4D0C480D490D4A0023AF
:1050F0002B602361E3612362636184F824300360E1
:105100000B60136038BDF8210748FFF785FF226A5E
:10511000236913442362DFE7E8DCFF1F10B9FF1F98
:10512000F0B0FF1F58B1FF1F70D5FF1F2DE9F84FDA
:105130008A46002961D0404BDFF820813F4AC8F8F9
:10514000102093E8030000230A0CC8F80000A8F818
:10515000041088F8062088F814300127384DC82438
:1051600005F1690B07E0BAF1000F36D107350134BC
:10517000AB45E4B220D02B78002BF4D07E0006EBB8
:10518000070908EBC90948460622294611F066FDC1
:10519000BAF1000F2BD12B4BC9F810303E4408EB6D
:1051A000C6060735002301373475AB4504F1010409
:1051B000FFB2B371E4B2DED1234B244C93E8070075
:1051C00007EB470308EBC308A8E803000023A8F88F
:1051D000002063713846BDE8F88F1D4A7E0092E8D2
:1051E0000300F31908EBC30248F833009180F31968
:1051F00008EBC303174A1A61D0E7DFF860800E4A54
:1052000088F8141092E80300134BC8F800000E0C45
:10521000A8F8041093E8070008F1180303C3094D28
:10522000064CC8F8285088F8066088F82CA0C8F802
:1052300010401A80022791E798AB0100C15300008B
:105240009DD2FF1FC15400008CAB010084C2FF1F20
:1052500084AB010009540000A0AB010020B9FF1F7E
:105260002DE9F84F0021FFF761FFDFF870B0DFF89C
:105270006090DFF86C80824605460126002705EB2A
:10528000450409EBC404204626755946C4F810802D
:105290000622013611F0E2FC0135302EA771EDB285
:1052A0000BF1070B0A4B4FF00004E8D1094A0A4DF5
:1052B00007CA0AF12F0A5FFA8AFA0AEB4A0603EBD9
:1052C000C60303C31A806C715046BDE8F88F00BF57
:1052D00020B9FF1FACAB010084C2FF1F8FA40100E7
:1052E000C1540000324B2DE9F04799424FF00004C1
:1052F000824644614DD02F4B99420E4650D0A04675
:10530000DFF8B89000E00134304609F04DFE8442E9
:105310002146304618DA09F02FFE037D002BF2D02B
:105320002146304609F028FE07460FCF08EB480516
:1053300009EBC5050FC597E8030008F1010885E8EA
:1053400003005FFA88F8DEE7304609F02DFE0146DB
:10535000304609F011FE05460FCD08EB480409EB75
:10536000C4040FC495E8030084E80300124B72796B
:105370005A71FF2201218AF8632283F804808AF897
:1053800062125046C3F800900B49BDE8F04709F09F
:10539000C7BEFFF765FFDFF82490074B8046E8E7BC
:1053A0000121FFF7C3FEDFF81490034B8046E0E7CE
:1053B00008B9FF1FCCB8FF1F84C2FF1F20B9FF1F11
:1053C00070B50F4CD4F8742BD4F8080ED4F8701BB9
:1053D0000568C2F1400382B01BB200268DE8480088
:1053E000C1F1800312B21BB22D6C09B2A84704F6BA
:1053F00058300449FFF776FF012002B070BD00BFAE
:10540000B0C7FF1F00DDFF1F30B52A4C94F8B05D18
:1054100083B0CDB1284B1B78264D2849C3EBC3037D
:10542000E2182D230024019302F6ED2205F65830F0
:1054300000940623FDF7D6FDA8B185F8B04D03B062
:10544000BDE83040FFF7BCBFD4F8641BD4F8600B54
:1054500009F092FD007D184B00F13802D2B20F2AFC
:10546000187002D9012003B030BD6178022905D03F
:10547000032918D001290ED0AD72FFDE21784FF438
:10548000987505FB0141403100F1390588721A70A9
:1054900084F8B05DBFE721784FF4987505FB0141B2
:1054A00001F58271F0E721784FF4987505FB014111
:1054B000A431E9E7B0C7FF1F10DAFF1FB8AB010046
:1054C00010B5194B5A78022A26D0032A1DD0012A7A
:1054D00008D0D3F8641BD3F8600B09F04DFD00230E
:1054E0009B72FFDE1A784FF4987404FB023404F5C3
:1054F0008274D3F8641BD3F8600B09F03DFD037D83
:10550000A372BDE81040FFF75BBF1A784FF49874A0
:1055100004FB0234A434ECE71A784FF4987404FBCB
:1055200002344034E5E700BFB0C7FF1F30B5304C50
:10553000637885B02022022BADF80C2034D0032BE9
:105540002BD0012B02D000235B7AFFDE23784FF4AF
:10555000987202FB034303F582735B7A03B920233D
:105560008DF80C3000252D23019303AA0123214936
:1055700000952148FDF736FD9DF80C3062781C49F6
:10558000202B08BF8DF80C50022A2AD0032A21D0E4
:10559000012A10D000235B72FFDE23784FF498724B
:1055A00002FB0343A433D8E723784FF4987202FB3D
:1055B00003434033D1E70A784FF4987303FB021397
:1055C00003F582739DF80C205A7208B1FFF7F8FEBC
:1055D00005B030BD0A784FF4987303FB0213A4336F
:1055E000F0E70A784FF4987303FB02134033E9E7BE
:1055F000B0C7FF1FC0AB010008D3FF1F30B5304C50
:10560000637885B02022022BADF80C2034D0032B18
:105610002BD0012B02D00023DB7AFFDE23784FF45E
:10562000987202FB034303F58273DB7A03B92023EC
:105630008DF80C3000252D23019303AA0123214965
:1056400000952148FDF7CEFC9DF80C3062781C498E
:10565000202B08BF8DF80C50022A2AD0032A21D013
:10566000012A10D00023DB72FFDE23784FF49872FA
:1056700002FB0343A433D8E723784FF4987202FB6C
:1056800003434033D1E70A784FF4987303FB0213C6
:1056900003F582739DF80C20DA7208B1FFF790FED3
:1056A00005B030BD0A784FF4987303FB0213A4339E
:1056B000F0E70A784FF4987303FB02134033E9E7ED
:1056C000B0C7FF1FC8AB010008D3FF1F70B50F4C58
:1056D000D4F8742BD4F8080ED4F8701B0568C2F106
:1056E000400382B01BB200268DE84800C1F1800360
:1056F00012B21BB22D6C09B2A84704F65830044907
:10570000FFF7F0FD012002B070BD00BFB0C7FF1F62
:1057100008B9FF1F70B50F4CD4F8742BD4F8080EDD
:10572000D4F8701B0568C2F1400382B01BB200269A
:105730008DE84800C1F1800312B21BB22D6C09B292
:10574000A84704F658300449FFF7CCFD012002B009
:1057500070BD00BFB0C7FF1F88B1FF1F08B51C4A4E
:105760005378022B26D0032B17D0012B07D0002013
:105770000121FCF72DFCBDE80840FFF7CBBF1378F3
:105780004FF4987000FB032000F582700121FCF7B4
:105790001FFCBDE80840FFF7BDBF13784FF49870B9
:1057A00000FB0320A4300121FCF712FCBDE80840F7
:1057B000FFF7B0BF13784FF4987000FB0320403020
:1057C0000121FCF705FCBDE80840FFF7A3BF00BFBF
:1057D000B0C7FF1F70B50F4CD4F8742BD4F8080E67
:1057E000D4F8701B0568C2F1400382B01BB20026DA
:1057F0008DE84800C1F1800312B21BB22D6C09B2D2
:10580000A84704F658300449FFF76CFD012002B0A8
:1058100070BD00BFB0C7FF1FE4B0FF1F30B5194C0B
:10582000194883B0012109F05FFC2378DA071CD501
:10583000072B21D0D4F8742BD4F8080ED4F8701BA1
:105840000468C2F140031BB200258DE82800C1F1B5
:10585000800312B21BB2246C09B2A0470A490B485C
:10586000FFF740FD012003B030BD0121064809F0DB
:105870001FFC2378072BDDD10221034809F034FCFB
:10588000D8E700BFB0C7FF1FECDCFF1F08D3FF1F26
:1058900030B5062183B01748174C09F025FC0721C5
:1058A000144809F021FC2378082B1AD0D4F8742B63
:1058B000D4F8080ED4F8701B0468C2F140031BB280
:1058C00000258DE82800C1F1800312B21BB2246CC0
:1058D00009B2A04707490948FFF704FD012003B0BA
:1058E00030BD0621034809F0E3FB0721014809F018
:1058F000DFFBDBE7B0B0FF1FB0C7FF1F08D3FF1F00
:1059000070B50F4CD4F8742BD4F8080ED4F8701B73
:105910000568C2F1400382B01BB200268DE8480042
:10592000C1F1800312B21BB22D6C09B2A84704F674
:1059300058300449FFF7D6FC012002B070BD00BF0B
:10594000B0C7FF1F40B3FF1F70B50F4CD4F8742BC6
:10595000D4F8080ED4F8701B0568C2F1400382B079
:105960001BB200268DE84800C1F1800312B21BB2C1
:105970002D6C09B2A84704F658300449FFF7B2FC71
:10598000012002B070BD00BFB0C7FF1FC4B0FF1F31
:1059900030B5324CD4F8742BD4F8080ED4F8701B00
:1059A000012383B06370C2F140031BB2056800930A
:1059B00000230193C1F180031BB212B22D6C09B216
:1059C000A8470321264809F08FFB0421244809F049
:1059D0008BFB0521224809F087FB0621204809F0AE
:1059E00083FB07211E4809F07FFB08211C4809F0B2
:1059F0007BFB23784FF4987505FB034393F8123132
:105A0000042B14D0012B1DD9023B012B06D91449BC
:105A10001448FFF767FC012003B030BD0421104893
:105A200009F046FB05210E4809F042FBEFE708218B
:105A30000B4809F03DFB237805FB034595F812312F
:105A4000012BE1D80321064809F032FB23784FF4FB
:105A5000987202FB034494F81231D5E7B0C7FF1FD8
:105A600088AEFF1F08D3FF1F08B5FFF791FF012085
:105A700008BD00BF08B513494B78022B1AD0032B81
:105A800011D0012B02D000239B73FFDE0A784FF464
:105A9000987303FB021303F582730D229A73FFF7C9
:105AA00077FF012008BD0A784FF4987303FB0213B7
:105AB000A433F2E70A784FF4987303FB02134033E0
:105AC000EBE700BFB0C7FF1F10B515494B78022B9D
:105AD0001ED0032B15D0012B02D000239B73FFDEB9
