:1000000000800020BD010000253B0100DD3A010019
:10001000DD3A0100DD3A0100DD3A0100DD3A010080
:10002000DD3A0100DD3A0100DD3A0100253B010027
:10003000253B0100DD3A0100595601005D560100E3
:10004000253B0100253B0100253B0100253B01002C
:10005000253B0100253B0100253B0100253B01001C
:10006000253B0100253B0100253B0100253B01000C
:10007000253B0100253B0100253B0100253B0100FC
:10008000253B0100253B0100253B0100253B0100EC
:10009000253B0100253B0100253B0100253B0100DC
:1000A000B5250100C1250100253B0100253B0100CC
:1000B000253B0100253B0100253B0100253B0100BC
:1000C000253B0100253B0100253B0100253B0100AC
:1000D000253B0100253B0100253B0100253B01009C
:1000E000253B0100253B0100253B0100253B01008C
:1000F000253B010025630100253B0100253B010054
:10010000253B0100253B0100253B0100253B01006B
:10011000253B0100253B0100253B0100253B01005B
:10012000253B0100253B0100253B0100253B01004B
:10013000253B0100253B0100253B0100253B01003B
:10014000253B0100253B0100253B0100253B01002B
:10015000495801005D58010071580100855801009F
:10016000253B0100D5410100253B0100253B010055
:10017000253B0100253B0100253B0100253B0100FB
:10018000253B0100253B0100253B0100253B0100EB
:10019000253B0100253B0100253B0100253B0100DB
:1001A000253B0100253B0100253B0100253B0100CB
:1001B000253B0100253B0100253B0100524B4CF241
:1001C000205210B51A804DF628121A8000BF00BFC9
:1001D00013F0ACFC4D4B4FF010621A604C4A9A6021
:1001E0004C4ADA6003F5533303F2D2331A7811071D
:1001F00003D51A7842F008021A70474B47492A2261
:100200001A70474A474B8B4204D252F8040F43F806
:10021000040BF8E7444B454900228B4202D243F8D5
:10022000042BFAE74249434A002352F8230041F8DD
:10023000230001336F2BF8D13F4B404A802103F854
:10024000011B9342FBD13E4B394A1A603D4B8A2237
:100250001A70A3F5805324225A70A0221A709A793A
:100260009207FCD59A79D406FCD4374A937903F0E7
:100270000C03082B344BF9D103221A7140225A7116
:100280009A799006FCD5304A91792F4B4906FBD5D7
:100290002E4A2F4911600221516020221A709A794A
:1002A00002F00C020C2AFAD12A4B2B4A1A602B4B73
:1002B0002B4A1A6000225A60072243F8042C294A6C
:1002C000C3F80C2D62B613F02BFE274B1B68DA0720
:1002D00005D5264813F088FD254B264A1A60264B83
:1002E0001B785B0609D5224C224B22689A4204D126
:1002F0001E4813F079FD0023236017F0FBF813F07C
:100300001BFC15F025FCFEE70E2005403080044064
:10031000823F04000100002B00E00740C8AFFF1F30
:100320003CE90100308CFF1FC8AFFF1F34E5FF1F01
:100330000082FF1F0000000000E400E05FE400E036
:1003400008ED00E0005006400040064044800440B4
:100350000000030104800440C010050014E000E028
:10036000FF7601000000202014D003402A222460E0
:100370001CE00340A5C3945A00F00740FFFFFFFFB5
:10038000FFFFFFFFFFFFFFFFFFFFFFFFFFFFFFFF7D
:10039000FFFFFFFFFFFFFFFFFFFFFFFFFFFFFFFF6D
:1003A000FFFFFFFFFFFFFFFFFFFFFFFFFFFFFFFF5D
:1003B000FFFFFFFFFFFFFFFFFFFFFFFFFFFFFFFF4D
:1003C000FFFFFFFFFFFFFFFFFFFFFFFFFFFFFFFF3D
:1003D000FFFFFFFFFFFFFFFFFFFFFFFFFFFFFFFF2D
:1003E000FFFFFFFFFFFFFFFFFFFFFFFFFFFFFFFF1D
:1003F000FFFFFFFFFFFFFFFFFFFFFFFFFFFFFFFF0D
:10040000FFFFFFFFFFFFFFFFFFFFFFFFDEF9FFFF23
:1004100010B5054C237833B9044B13B10448AFF33E
:1004200000800123237010BDC8AFFF1F0000000033
:1004300038E90100084B10B51BB108490848AFF373
:1004400000800848036803B910BD074B002BFBD0A0
:10045000BDE81040184700BF00000000CCAFFF1FF0
:1004600038E90100C8AFFF1F00000000704700BF5F
:10047000074A10B51378074C41F2F40083F00103EA
:1004800020581370194611F031FC012010BD00BF37
:1004900058B8FF1F08C9FF1F70B541F2F003284C80
:1004A0000546E05812F0EEF9B4F8863DB4F8842D14
:1004B000181A83B29342A4F8863D2CD014D86A69E6
:1004C000002AC4BF02F1FF326A61AA685279022A87
:1004D00027D04FF0FF30FF22A4F8843D012185F89A
:1004E000632285F8621270BDA8686E690FF026FF5E
:1004F0002B69C01A864202DA6B6901336B61AB6803
:100500005B79022B09D123780D4A062B12D9B2F858
:10051000863DA4F8843D002070BDB4F8863D0120DE
:10052000D9E722780649002AF3D0013A0A704FF041
:10053000FF30D0E7013313700120B2F8863DCAE7DF
:1005400008C9FF1F024A41F2F003D05812F0DEB989
:1005500008C9FF1F10B5044600F58750083015F094
:1005600051F904F5875015F04DF9204610BD00BF34
:10057000234B1B6803F16402904270B504DA643BBC
:10058000984201DD022070BD1E4B1B6803F164021E
:10059000904204DA643B984201DD032070BD1A4B9F
:1005A0001D680446B5F95800C0F13C0016F006FD80
:1005B0000646B5F95A0016F001FD0146304616F020
:1005C00005FE0646286E16F0F9FC0146304616F088
:1005D00049FD0646E86D16F0F1FC0146304616F07E
:1005E00039FC16F005FF00F164039C4205DA64381B
:1005F0008442D4BF0020012070BD002070BD00BF28
:1006000088B0FF1F8CB0FF1FD8C3FF1FF8B5427A18
:1006100005460E4602B301230A701C46A97A89B129
:10062000C7291CD93831C9B2164FC1EBC1010F44DB
:10063000F018394617F03EFD384617F0A1FD20446A
:10064000C4B22346EA7A1AB10134E4B2F254234622
:100650000022F2542046F8BD13461446DEE70A4F46
:10066000C1EBC101F0183944062217F0F7FDA87A52
:10067000C0EBC000384417F083FD2044C4B22346C9
:10068000E0E700BFE1D6FF1FA8BE01002DE9F04161
:100690001A4D41F24C540646285912F091F838B3DD
:1006A000B3685B79022B15D041F24C57DFF84C80D0
:1006B000E85912F089F8044610B92046BDE8F081E7
:1006C00058F8070012F028F80023C6F854322046E4
:1006D000BDE8F081D6F85432B3F57A7FE4D901242D
:1006E000002385F8824F2046C6F85432BDE8F081D9
:1006F000285912F059F8C6F85402D1E708C9FF1F6B
:10070000012070470120704738B50E4B01EB4101C5
:1007100005461944144617F0A1FD00232B550A4A3B
:1007200041F2F4032846D45817F02AFD2368024604
:1007300029465B68204698472046BDE8384015F0BA
:10074000C1B800BFF8BF010008C9FF1F2DE9F04F75
:100750002F4EDFF8C89041F2F40585B0735903902D
:100760001A6800274FF01A080197CDF80080146C22
:1007700018462D227B233946A0477059012110F0DD
:1007800043FB745923492368A7822A224FF0010AA8
:100790004FF0040B5B682282A4F812A00822A4F890
:1007A0000EB020469847204615F08CF8039A1A4B55
:1007B000745953F82210A4F80EB03223238208464D
:1007C000039117F0DDFC236803995B68024620461D
:1007D0009847204615F076F8705903688DE80005B3
:1007E00025223946DC6C7B23A04713F029FBD9F87E
:1007F000003047F22F52C01A904206D9705911F0BA
:100800006FF913F01DFBC9F8000005B0BDE8F08FCB
:1008100008C9FF1F4CC001005C8DFF1F04C9FF1FEA
:100820002DE9F04390F96332664E013387B00446F8
:1008300061D041F2F4030121F05810F0E5FA256986
:100840006369A0681D440FF079FD854280F2A8809D
:100850006369276994F963821F44E368984541F20C
:10086000F40300F0A980F3580121002259829A82F2
:1008700002AD2946424620460FF0C4FD284617F037
:100880007FFC0D2807DC28440DF11602202300F818
:10089000013B9042FBD16269E369A16941F2F40036
:1008A000C2EB08083658093303EBC8034FF00009C0
:1008B0008DF8169028463382F18117F061FC336879
:1008C00002465B68294630469847304614F0FAFFE6
:1008D00094F8633201335BB2BB4284F8633202D0D6
:1008E00007B0BDE8F083FF2384F8629284F8633296
:1008F00007B0BDE8F08341F2F4050121705910F012
:1009000083FAA36872591F680021012050829182E6
:1009100018460FF013FD00B200EB400102AD07EBEB
:10092000C1010E22284617F099FC284617F028FC32
:100930000D2807DC28440DF11602202300F8013BA6
:100940009042FBD141F2F408B4F91C3056F808701B
:10095000A26900218DF816102846FA813B8217F013
:100960000FFC3B68024629465B6838469847384684
:1009700014F0A8FFE26956F80800A169056808327A
:1009800012B201238DE80C0001F15403AD6C1BB2CF
:1009900009B2A847636984F8633207B0BDE8F08301
:1009A000A0680FF0CBFCE36894F963829845074692
:1009B00041F2F4037FF457AFF3580021012259822A
:1009C0009A8255E708C9FF1F70B5044608460D46D0
:1009D00017F0D6FB23680246294620465B68BDE82F
:1009E000704018472DE9F04F002387B00122437073
:1009F00000F684534FF00009027000F1040B0493D9
:100A000005904FF07E53CBF80C304FF000038BF87D
:100A10001E304FF02803002701244FF03C088BF8CC
:100A20000B304FF61943ABF81C308BF810708BF875
:100A300011708BF812708BF81370CBF82070CBF814
:100A40002470CBF82870CBF82C70CBF83070CBF832
:100A500034708BF838708BF80470ABF81870ABF802
:100A60001A708BF808408BF80940ABF814408BF8EB
:100A70000A80382015F074F84FF0010606754FF023
:100A8000814606614FF48066394646603A46EE4B31
:100A9000C0F81890C0F8209080F82470054612F035
:100AA00097FB9BF85A30CBF83C5003F0E00367F318
:100AB00046138BF85A30E54BCBF8443040F6FF73C1
:100AC000CBF86030E24BCBF864304FF07F038BF80B
:100AD0006C308BF86D304FF47A73ABF86E304FF0AA
:100AE000FF338BF874304FF028024FF6FF734FF04E
:100AF000780A8BF84F206B604FF07E52D54BCBF8C5
:100B000050202B618BF841708BF840408BF8487077
:100B10008BF84C408BF84D408BF84E808BF854701E
:100B20008BF855708BF856708BF85770ABF85840AF
:100B30008BF85B70ABF85C70ABF86870ABF85EA0DC
:100B4000ABF86AA0382015F00BF846604FF08146EC
:100B5000224639460661C04B0475C0F81890C0F8AB
:100B6000209080F82470054612F032FB4FF02803E5
:100B70008BF87F304FF61943ABF890304FF07E532F
:100B8000CBF8803040F6FF736B604FF08043CBF8BA
:100B900070508BF884708BF885708BF886708BF8AA
:100BA0008770ABF88840CBF89470CBF89870CBF88E
:100BB0009C70CBF8A070CBF8A470CBF8A8708BF821
:100BC000AC70ABF88C70ABF88E708BF892702B61B8
:100BD000ABF81A708BF875708BF87C408BF87D4001
:100BE0008BF87E808BF87870382014F0B9FF4FF4C2
:100BF000806646604FF08146394606613A46924B20
:100C00000475C0F81890C0F8209080F8247005464C
:100C100012F0DEFA8D4ACBF8B8204FF028029BF88C
:100C2000CE308BF8C32040F6FF72CBF8D420884A30
:100C3000CBF8D82003F0E0034FF07F028BF8E020E0
:100C40008BF8E12067F346134FF47A72ABF8E22099
:100C50008BF8CE304FF0FF324FF6FF738BF8E82061
:100C60006B604FF07E527B4BCBF8B050CBF8C4207A
:100C70008BF8B5708BF8B4408BF8BC708BF8C04023
:100C80008BF8C1408BF8C2808BF8C8708BF8C970A4
:100C90008BF8CA708BF8CB70ABF8CC408BF8CF7068
:100CA000ABF8D070ABF8D2A0ABF8DC70ABF8DEA03C
:100CB0002B61382014F054FF4FF4806646604FF0EB
:100CC0008146224639460661634B0475C0F8189088
:100CD000C0F8209080F82470054612F079FA4FF69B
:100CE0001943ABF804314FF028038BF8F3304FF081
:100CF0007E53CBF8F43040F6FF736B604FF08043C7
:100D0000CBF8E450ABF88E708BF8E9708BF8F040BC
:100D10008BF8F1408BF8F2808BF8F8708BF8F97053
:100D20008BF8FA708BF8FB70ABF8FC40CBF80871CD
:100D3000CBF80C71CBF81071CBF81471CBF818719B
:100D4000CBF81C718BF820718BF8EC70ABF800714C
:100D5000ABF802718BF806712B61382014F000FF9C
:100D60004FF4806646604FF081463A463946364B2E
:100D70000661C0F81890C0F82090047580F82470BF
:100D8000054612F025FA3149CBF82C114FF0280115
:100D90008BF833114FF0FF319BF860218BF8401135
:100DA0004FF07E51CBF834114FF6FF7169604FF070
:100DB000FF3367F303022749CBF824518BF83281C4
:100DC0008BF865818BF829718BF828418BF83041BD
:100DD0008BF831418BF838718BF839718BF83A7197
:100DE0008BF83B71ABF83C418BF83E718BF844714A
:100DF000CBF84871CBF854718BF858718BF85C7153
:100E00008BF862718BF863718BF864718BF86641B3
:100E1000CBF867718BF86021CBF86B7129618BF887
:100E20006F718BF80030049B8BF87071CBF8747184
:100E3000CBF878718BF87E718BF87D718BF87C71B3
:100E40000BF5C07B9B4509E017B7D1389F860100A1
:100E500001F0FFFF000060420AD7233C7FF4D1ADD0
:100E6000DDF814A09AF8882D8AF88D8D67F30302B7
:100E70008AF8882D4FF000024FF0FF338AF8972D43
:100E80008AF8982D8AF8A42D40F6FF72AAF8843DBE
:100E9000CAF8A82D9AF8D13DB04ACAF8AC2D40F650
:100EA000FF7223434FF00001CAF8B42DCAF8B82DE1
:100EB000A4F58054A94A8AF88A1D8AF88B1D8AF8FD
:100EC0008C1D4FF0010047F23051CAF8BC2DCAF812
:100ED000C44D40F6FF724FF47A748AF88E0DAAF86A
:100EE000861D9F489F49CAF8C02DAAF8C84D1122F7
:100EF0004FF000048AF8D13D8AF8D04DCAF8CC0DE5
:100F0000CAF8D41D8AF8D82D39466922CAF88F7DCF
:100F1000CAF8937DCAF89C7DCAF8A07DCAF8B07D56
:100F20000AF6D95016F04CFE0AF644600FF008FAA3
:100F30008D4B8AF8644E8AF8724FCAF8443EFB2201
:100F40003946CAF8687FAAF8707FCAF8847F0AF623
:100F5000887016F035FE41F2840641F2880241F2B3
:100F60008C054AF8067041F290034AF8027041F28B
:100F700094004AF8057041F2980641F29C0241F251
:100F80009D050AF585544FF0000E4AF803704AF8A3
:100F900000704AF8067041F2A4000AF802E00AF86C
:100FA00005E04FF0010E276041F2A5068AF881EFB7
:100FB0004FF0000E8AF882EF8AF883EFCAF8587E65
:100FC000CAF8607E41F2A6020AF800E04FF0FF3E48
:100FD0000AF806E041F2A70541F2A8034FF0000E1F
:100FE0000AF802E007264FF0FF3E0AF805E0362235
:100FF0004AF803702046CAF8546E4FF00106CAF84A
:101000005C2E1B30594D84F82C6023464FF00006AF
:101010007F210246276384F8386065630B3303F849
:10102000011F834202F8011FF9D10AF5875241F2EC
:10103000E80600201446802141F2F8071171106083
:1010400041F2FC054AF806001173962284F8380034
:10105000C4F8280484F82C04C4F83004C4F8340418
:1010600084F86A040AF588534AF8072040F2672298
:101070004AF8052041F204114FF487621A6041F2E8
:10108000081640F209634AF8013041F20C1541F2AA
:10109000101240F2DA734AF8063041F2141140F6A9
:1010A000AB1340F67C364AF805304AF8026040F649
:1010B0004D550AF5A8530AF5AA524AF801501733BC
:1010C000014684F86B04093203F8011F93424FF084
:1010D0000004F9D1942014F043FD054611F0C8FC3A
:1010E00041F2DC0324204AF8035014F039FD0423B4
:1010F000072206218DE818004FF0FF33054611F056
:101100006DFB41F2F00310204AF8035014F028FD63
:10111000044611F0CFFA41F24C5315484AF8034007
:1011200010F00CFF0E21124810F070FF642014F034
:1011300017FD104B0393092108220A238DE80E00A6
:101140000B4B40228021044610F05AF841F2F40380
:1011500050464AF8034007B0BDE8F08F01F0FFFFAA
:101160009A99993F52491D3A34D301008CDEFF1FF2
:101170001CA3FF1F00127A0030B583B00546069C01
:10118000002CCABFE0B2007D28752B614BB942B27A
:10119000002A02DD194612F039FE00232B7003B03D
:1011A00030BD084BA9601B68019343B2019CEA6003
:1011B0000121002B6C602970F1DD12F027FE03B0D5
:1011C00030BD00BF88E1FF1F70B5064E41F24C559F
:1011D000705911F0F9FA044610B1705911F09CFAE7
:1011E000204670BD08C9FF1F38B5144C41F2F0030A
:1011F0000546E05811F046FBB4F8863DB4F8842D5E
:10120000181A83B29342A4F8863D15D00C4A11688F
:101210000AD80029CCBF01F1FF31002111604FF045
:10122000FF30A4F8843D38BDA942B8BF0131116038
:101230000120A4F8843D38BD002038BD08C9FF1F37
:1012400034B0FF1F2DE9F04F914BDFF8789241F257
:10125000F4048FB018590025402203688DE824005B
:1012600029461E6C2A468023B047894B0121185914
:101270000FF0CAFD864B87491859036885820126FD
:101280005B68C5810822058246829847804B1978A1
:101290001859314414F07CFB7D4B7F491859036881
:1012A00007225B689847D9F80000002800F0D98031
:1012B00015F084FE4FF07C5115F0D4FE15F0A0FA25
:1012C000734B1D59009602460B46284614F068FBE6
:1012D0006F4B72491C59236832465B682046984719
:1012E000204614F0EFFA002306936D4B0793DFF8C6
:1012F000D8810E230593059B079E043B1BB20493E4
:10130000069B1D4603EB4303039300240127039B25
:10131000D9F80020D8F800A0EB189A4200F09A8083
:101320004FF00003AAF81270AAF814300FFA84FBE9
:10133000BDF81030AAF8103009A8AAF80EB0002D98
:1013400000F09B8016F01CFFDAF8003002465B6864
:1013500009A950469847504614F0B4FA3378002B48
:101360006CD11E34A4B2782C06F1010605F10105FA
:10137000CDD1059B069A09339BB20593079B013299
:101380000433052A06920793B5D141F2F404404A8A
:101390004449105937230268038201250023566807
:1013A00045828382C3810422B0473F4B384A196883
:1013B00010593E4E14F0ECFA354B3D49185903686C
:1013C0002A465B689847324B3168185914F0E0FAA6
:1013D0002F4B3749185903682A465B689847354BA5
:1013E00030681E687368C01A15F0E8FD0746B068DB
:1013F00015F0E4FD0146384615F0E8FE2E4915F0DB
:1014000031FE15F0FDF9224B1E59022702460B460C
:101410000097304614F0C4FA1D4B20491E5933681A
:101420002A465B6830469847304614F04BFA184B12
:10143000185910F055FB0FB0BDE8F08FD8F8000038
:10144000BDF9142003680097D3F83CA0594618232F
:10145000D04786E74FF00003AAF81230AAF81470BC
:1014600064E70B4B15491C59236820465B6803222F
:101470009847204614F026FA35E7DAF8003010498C
:101480005B68042250469847504614F01BFA68E700
:1014900008C9FF1F58C0010064C001006CC00100F2
:1014A000ACB2FF1F7CC00100CC92FF1FD498FF1F7D
:1014B00084C00100B4B0FF1F0000204170C00100D3
:1014C00074C0010034B0FF1FFCD9FF1F2DE9F04F9D
:1014D0009F4BA04AA04C1B681268596892F856604E
:1014E0009B6841F2F40785B0E05902930025402241
:1014F000036803918DE8240029462A46D3F84080EA
:101500008023C047E05901210FF07EFCE059934948
:101510000368858201224282C58105825B680322BD
:10152000984721780729C6F3411640F2DE80637898
:10153000E059022B03680CBF89498A495B68052280
:101540009847894F3B68002B40F0C78041F2F40177
:101550000122605843828282036884495B680822C2
:1015600098473B68012B00F0D58041F2F40301223B
:10157000E55800236A82AB822B687D495B68DFF8FF
:10158000D8B10322284641F2F40A9847284614F0BD
:1015900099F954F80A5077492B684FF000084FF03A
:1015A000010911225B682A82A5F812901022A5F881
:1015B0001480A5F80E8028469847284614F082F932
:1015C0003B685BF80A00022B4FF01B0303820368A1
:1015D00007BFA0F81280A0F81490A0F81290A0F80D
:1015E00014800022022EC2810CBF634963495B68EC
:1015F000102298473B68032B41F2F40300F08480EB
:10160000E05801220023428283822523038203685B
:10161000022E4FF0000241F2F4050CBF584959491F
:10162000C2815B68102298476059574902680123BC
:10163000438237270023078257688382C3810422AD
:10164000B847524B444A1B68002B0DDD504F55598B
:1016500003EB83031F44384616F092FD2B680246C5
:1016600039465B682846984741F2F40503226059E1
:1016700048490368384F5B689847474B1868039B95
:10168000022EA0EB03004CD015F098FC0646029801
:1016900015F094FC0146304615F098FD3F4915F0D1
:1016A000E1FC15F0ADF87D59022602460B46009686
:1016B000284614F075F941F2F4060122A55938497B
:1016C0002B6828465B689847284614F0FBF8A05919
:1016D00005B0BDE8F04F10F003BA41F2F403012267
:1016E000E05800234282838236E70131E05914F04A
:1016F0004FF96378E059022B03680CBF29492A4946
:101700005B68052298471CE7E058002201234282CB
:1017100083827AE741F2F40100226558AB826A8243
:101720002AE715F04BFC8046029815F047FC01466D
:10173000404615F04BFD1D4915F094FC15F060F87E
:101740007D59009602460B46284614F029F9B2E767
:10175000B4B0FF1FD8C3FF1F08C9FF1F88C0010016
:101760008CC0010094C0010034B0FF1FACC0010068
:1017700070C00100B8C00100CCC00100E0C0010091
:10178000F4C0010008C101007CC00100CC92FF1F21
:1017900060BB01001CC10100D498FF1F0000204164
:1017A0006CC001009CC00100A4C001000000A0406A
:1017B0002DE9F04F884B894E41F2F4050024585929
:1017C0008BB0402203688DE8140021461F6C22462E
:1017D0008023B847804B012158590FF015FB7E4BF1
:1017E0007F4958590368C48101275B680482848259
:1017F00047820A2298473368002B40F0E080764AFF
:10180000505943828782036876495B68082298476B
:101810003368012B00F0D88041F2F4036E49CC58B4
:10182000012200236282A38223686F495B68DFF88C
:10183000D091032220469847204614F043F841F205
:10184000F405654B69495C5923684FF000080A228A
:1018500001265B682282A4F80E801422A4F812806C
:10186000A68220469847204614F02CF85A4B60492F
:101870005C592368A4F80E8025225B6822822046EA
:1018800014229847204614F01DF8534B53F805A036
:10189000584B594D0393AAF81260AAF814804FEAE6
:1018A000A80606EB460659F804BF06EBC60608F084
:1018B00003074FF0000CB6B2C7EB071706F113038E
:1018C0007F00E345AAF81030AAF80E708DF818C012
:1018D00064DB05AB06AC9C44A64601209BFBF0F301
:1018E00085FB0321DA17C2EBA10202EB8202A3EB14
:1018F000420330330EF8013D00EB8000E6454FEA2D
:101900004000EBD105A816F03BFCDAF800300246A7
:101910005B68504605A99847384BD3F800A0039B55
:1019200053F8041F039306F11C030026B142AAF8E2
:101930000E70AAF810308DF8186029DB05AB1E4434
:10194000012091FBF0F385FB0327DA17C2EBA70216
:1019500002EB8202A3EB4203303304F8013D00EBBB
:101960008000A6424FEA4000EBD105A816F008FC23
:10197000DAF80030024608F101085B68504605A914
:101980009847B8F1080F11D01C4BD3F800A086E798
:101990002D2349428DF814300126CFE72D23CBF1BA
:1019A000000B8DF814304FF0010C92E741F2F40374
:1019B000094AD05810F094F80BB0BDE8F08F064BF0
:1019C0005859478284821EE741F2F4010248445884
:1019D0000022A382628227E708C9FF1F34B0FF1FDD
:1019E00020C101002CC1010070C0010038C10100FC
:1019F00050C1010034B8FF1F67666666FCD9FF1F3F
:101A00008CB0FF1F7C4B1A68F0B40346D46DB2F95A
:101A1000580007290CD8DFE801F0042D32517292EA
:101A2000B20D764A106891889279186099809A71FF
:101A3000F0BC7047126E0026A4185E7100F1BD80E4
:101A40006F4F1E440120053394FBF0F287FB021513
:101A5000D117C1EBA50101EB8101A2EB41023032AC
:101A600003F8012D00EB8000B3424FEA4000EBD1B8
:101A7000F0BC7047634A10681860F0BC70470026DD
:101A8000041E5E71C0F2B2805D4F1E44012005331A
:101A900094FBF0F287FB0215D117C1EBA50101EB16
:101AA0008101A2EB4102303203F8012D00EB8000EE
:101AB0009E424FEA4000EBD1F0BC7047B2F95A6049
:101AC000002536185D7100F18C804D4F1D440120BA
:101AD000053396FBF0F287FB0214D117C1EBA4018A
:101AE00001EB8101A2EB4102303203F8012D00EB42
:101AF0008000AB424FEA4000EBD1F0BC7047B2F936
:101B000064600025AE425D7166DB3D4F1D440120DF
:101B1000053396FBF0F287FB0214D117C1EBA40149
:101B200001EB8101A2EB4102303203F8012D00EB01
:101B30008000AB424FEA4000EBD1F0BC7047B2F9F5
:101B400066600025AE425D7141DB2D4F1D440120D2
:101B5000053396FBF0F287FB0214D117C1EBA40109
:101B600001EB8101A2EB4102303203F8012D00EBC1
:101B70008000AB424FEA4000EBD1F0BC704700263A
:101B8000B4425E711EDB1E4F1E440120053394FBE0
:101B9000F0F287FB0215D117C1EBA50101EB810122
:101BA000A2EB4102303203F8012D00EB8000B3427A
:101BB0004FEA4000EBD1F0BC70472D2264421A700E
:101BC00001263DE72D2264421A700126DBE72D2213
:101BD00076421A700125B8E72D2276421A70012547
:101BE00093E72D2276421A7001256EE72D2264427A
:101BF0001A70012648E700BFD8C3FF1F68C1010063
:101C00006766666670C001002DE9F04F684CDFF82A
:101C1000C8A141F2F4068BB0A05900254022036808
:101C20008DE8240029462A461F6C8023B847A05916
:101C300001210FF0E9F8A0595E490368858201226D
:101C40005B684282C5810322058298472178A059AA
:101C5000013113F09DFE6378A059022B036808BF81
:101C600055495B6818BF554905229847DAF8003096
:101C7000002B40F0838041F2F4010122605843823E
:101C8000828203684E495B6808229847DAF8003080
:101C9000012B7BD041F2F4030122E55800236A8234
:101CA000AB822B6847495B68DFF820910322284606
:101CB0009847284613F006FE41F2F4030122E45847
:101CC000414923686282002610225B682282A68234
:101CD000E68120469847204613F0F4FD1C234FF080
:101CE000020B02934FEA4608BDF90830039308F14E
:101CF000020818250024D9F8003001210022598259
:101D00009A82002E49D0DAF8002008EB04019142B3
:101D10004FF001002ED0002258829A82BDF80C208C
:101D2000DA811D820BEB040105A8FFF76BFED9F8E1
:101D3000007005A816F024FA3B6802465B6805A906
:101D4000384698470134384613F0BCFD0A35022C5A
:101D5000ADB2D0D1029B01362A339BB2022E029340
:101D60000BF1020BBED1194B18680FF0B9FE0BB086
:101D7000BDE8F08F002159829882CFE741F2F40349
:101D80000122E0580023428283827AE741F2F40183
:101D900000226558AB826A8283E718460C4924B159
:101DA000FEF712FE094B1B68ADE718460949F7E735
:101DB00008C9FF1F88C001009CC00100A4C0010029
:101DC000ACC0010070C0010070C10100FCD9FF1F50
:101DD00084C101008CC1010034B0FF1F30B40D4B31
:101DE0005B78012B0C4B0AD91C68E56C056094F9F3
:101DF000500008701B681B6A136030BC70471B687A
:101E00009C6C046093F94C0008701B6A136030BC32
:101E1000704700BF08C9FF1FD8C3FF1F2DE9F04F4F
:101E200091B008AA0DF1130107A8FFF7D7FF089892
:101E3000AC4C15F0BFF8AC4915F0C8F90146AB48F9
:101E400015F0C4F9AA4915F0C1F941F2F4060746A4
:101E5000A05900250368019540220092D3F84080E4
:101E60002A4680232946C047A05901210EF0CCFF05
:101E7000A059A0490368858201225B684282C5811E
:101E80000322058298472178A059013113F080FD83
:101E90006378022B00F07981032B00F06F81012B16
:101EA00000F0B580944E3368002B40F0A88041F2DA
:101EB000F401012260584382828203688F495B6883
:101EC000062298473368012B00F0518141F2F40358
:101ED0000122E55800236A82AB822B6888495B683F
:101EE000DFF800A20422284641F2F4099847284668
:101EF00013F0E8FC54F8095082492B684FF00008B1
:101F00000C224FF0010B5B682A82A5F812B0122256
:101F1000A5F81480A5F80E8028469847284613F0A7
:101F2000D1FC54F809001423A0F80E80038202218A
:101F30000EF06AFF3268022A70D041F2F4019DF976
:101F400013306558053301216982D9B200200A296E
:101F5000A88273D9022A00F084800DF124082B682E
:101F600069495B684FF001094FF0000A0222A5F8A9
:101F70001290A5F814A028469847384614F040FC63
:101F80000B4602466149404616F06EF83368032B53
:101F900000F09B8041F2F4030122E55800236A829D
:101FA000AB82404616F0ECF82B6802465B6841466F
:101FB00028469847284613F085FC3368032B00F029
:101FC000AF8041F2F40501216059514E454F0EF0AA
:101FD0001BFF6359002201219A82598211F030FFC0
:101FE000336847F22F52C01A904205D978590FF042
:101FF00077FD11F025FF306011B0BDE8F08F41F2A0
:10200000F4030122E05800234282838255E7A0595D
:102010004049036806225B68984743E73E4B1B78BC
:10202000002B8AD09DF913305AF809500533DAB2E3
:102030000A2AA5F81280A5F814B08ED8374A52F8AB
:102040002380404616F09CF82B6802465B682846C1
:1020500041469847326841F2F403022AE5587FF47A
:102060007CAF2D4B1A78002A7FF477AF9DF913309F
:102070002A4905330DF11A0C51F82310CDF808C088
:102080000DF1180E0DF1160341F2F4090DF12408BB
:1020900028468DE80840CDF80C8014230EF0F4FF9C
:1020A00054F80900BDF92410056800914FF0010EA5
:1020B000CDF804E0ED6CBDF91A30BDF91820BDF97A
:1020C0001610A84754F8095049E7134B1B78002B0A
:1020D0003FF460AF41F2F403E558A5F812A0A5F86B
:1020E00014905EE708C9FF1F00007A4400606A4749
:1020F0000000C04188C0010034B0FF1F68C101006A
:1021000074C00100ACC10100A8C10100C0C1010040
:1021100004B0FF1F94C10100309BFF1F0CBB0100E6
:102120001D4B1B78002B7FF44CAF41F2F4050DF1F1
:102130001A03039306AE0DF1160205AB6059029621
:102140004146019200933C2214230EF09DFF6059FA
:10215000BDF91A600568009601260196BDF9183090
:10216000BDF91620BDF91410ED6CA84729E741F21E
:10217000F40100226558AB826A82AEE6A059074995
:10218000036806225B6898478CE6A05904490368F7
:1021900006225B68984785E6309BFF1FA4C10100BB
:1021A0009CC1010000B5807B00F01F031E2B15D8D9
:1021B000DFE803F01D1D52525252373F5252525225
:1021C000522923161D1D52525252521D1D1D1631E9
:1021D000464C100000200B23088013805DF804FBA0
:1021E000002043F6FF73088013805DF804FBC0F302
:1021F0004110012834D002283AD000207F230880E3
:1022000013805DF804FB4FF4004047F6FF7308802D
:1022100013805DF804FB00200723088013805DF81D
:1022200004FB4FF4604041F6FF73088013805DF8B3
:1022300004FB4FF69C706423088013805DF804FB58
:1022400000203323088013805DF804FB0020132353
:10225000088013805DF804FBC0F341100128CCD145
:102260004FF680704FF48073088013805DF804FB94
:1022700000203C23088013805DF804FB827B01F082
:102280001F0161F304021F29827314D010B50122CB
:10229000194C02FA01F10C4034B9184A0A405AB9F3
:1022A000174A0A40D2B910BD00217F2201828183E2
:1022B0004282C28310BD7047827BC2F34112022A60
:1022C00006D13C217822048284834182C28310BDDE
:1022D0007822048284834282C28310BD044600F1C6
:1022E0001E0200F11C01FFF75DFFB4F91C20E38B17
:1022F00022829B1A6382D6E73C1F7C000300830383
:10230000C0E0007C2DE9F041554D564C2978564BE4
:1023100062780020012918607FD0012A40F286806F
:10232000022A7AD0032A52D0504E306890F85630A4
:10233000DFF868814E4FDFF868E1DFF868C113F01D
:10234000600218BF012288F8002000F158023A60AC
:10235000C26DCEF80020DFF850E1026ECCF800200C
:10236000444AB0F864C0AEF800C0DFF840E1B0F80D
:1023700066C0A2F800C0404AB0F858C0AEF800C02D
:10238000B0F85AE0A2F800E001F0FD02012A08D1FD
:102390003A4AC3F30403002148301370FFF76EFF7D
:1023A0002978374B374A384D38484FF0010EC3F87B
:1023B00000E04FF0FF33136071454FF000022B60D7
:1023C00002700DD0324B01201870BDE8F0812078EA
:1023D000264E00EB400004EBC0107C303060A5E7D7
:1023E0003568386895F856602A4B2B4962F34616D3
:1023F00085F85660D4F8A85DD4F8AC4D846045608B
:1024000003F1140003F8012F834241F8042FF9D19E
:102410001F4B01201870BDE8F0812078134E00EBAF
:10242000400004EBC010083030607FE7052901D080
:10243000BDE8F081012A7FF477AF237810490B4E75
:102440000A6003EB430304EBC3130E4D0E4C0F491C
:102450004FF0FF32F03333602A6022600870B1E73A
:1024600011B0FF1F08C9FF1FE4AFFF1FD8C3FF1F34
:10247000B4B0FF1F1891FF1FC0B0FF1F24B0FF1F93
:1024800034B0FF1FD498FF1FCC92FF1FB8B0FF1FBE
:1024900000B0FF1FABB2FF1FD0B7FF1F64B8FF1F14
:1024A000E4C3FF1FF8C8FF1F74E1FF1F50B0FF1FF8
:1024B0002DE9F043DFF8C8802B4F98F80030052253
:1024C00087B03A707BB1294E3568ADB1A84720B9C5
:1024D0000024204607B0BDE8F08300242046346085
:1024E00007B0BDE8F083FFF70DFF0028EBD1012412
:1024F000204607B0BDE8F0831D4B18780238FEF780
:1025000073FE2846FFF78AFCFEF75EFE04460028AD
:10251000DED0184B1B68012B06DD023B164A52F831
:10252000233033602C46D4E7144E41F2F4034022AA
:10253000F05803688DE824002946D3F840902A46D5
:102540008023C84705AA0DF10F0104A888F80050A0
:102550003D70FFF743FC9DF80F20049B86F8D02DBB
:10256000C6F8CC3DB5E700BF11B0FF1FE4AFFF1FB9
:102570001095FF1F34B0FF1F688DFF1F08C9FF1F94
:1025800000B0FF1F2DE9F04FA54BA64D1B7803228D
:1025900083B02A70002B00F0A680A34BA34E1F68C7
:1025A00097F85640F86DC4F34114022C00F0B8803F
:1025B00014F004FD8046B7F95A00B7F958B014F08A
:1025C000FDFC8246386E14F0F9FC8146CBF1180010
:1025D00014F0F4FC514614F0F9FD494614F042FDA4
:1025E000414614F037FC14F003FF3060CBF160007B
:1025F00014F0E4FC514614F0E9FD494614F032FDB4
:10260000414614F027FC14F0F3FEDFF85892C9F8A5
:1026100000008749874ADFF850A2B7F916300878DA
:10262000B98ACAF800101360FEF7DEFDFEF74EFF10
:10263000FEF7CAFD804600283CD0DFF83082D8F88B
:102640000000012840F3C680022800F0BD80032866
:1026500000F0B4803568D9F80000022CA0EB05002A
:1026600000F0908014F0AAFC0446284614F0A6FC62
:1026700021460546204614F0EDFB6F4914F0A6FDF7
:102680000146284614F0E4FB14F0B2FE6B490546FF
:10269000204614F0E7FC684914F098FD14F0A8FEF9
:1026A000674B1B684FF000085D609860404603B0C0
:1026B000BDE8F08F2B78032BF8D1BAF80000FDF7B6
:1026C00057FF604A41F29D03D35C002BEED00028F7
:1026D000ECD05D4B1A788242E8D0DFF89081187018
:1026E000C8F80000ADE7FFF70DFE044600287FF4B0
:1026F00054AF544D55494FF00108FF2205F665606F
:1027000085F8648E15F0AAFD4FF4FA621123A5F83E
:102710006C4FA5F8704FC5F8682FA5F86E3FC5E758
:1027200014F04CFC8346B7F95A00B7F958A014F0DE
:1027300045FC8146386E14F041FC8046CAF10C001D
:1027400014F03CFC494614F041FD414614F08AFC6B
:10275000594614F07FFB14F04BFE3060CAF1300094
:1027600014F02CFC494614F031FD414614F07AFC7B
:10277000594614F06FFB14F03BFEDFF8E890C9F8FF
:10278000000046E714F01AFC0446284614F016FC34
:102790002F490546204614F019FD0146284614F03D
:1027A00057FB14F025FE2B490546204614F05AFC31
:1027B000274914F00BFD14F01BFE71E7DAF8000056
:1027C0003568C9F8000048E7DAF800503560D9F8F4
:1027D000000042E71B4941F2F4030022C85840219F
:1027E00003688DE8060011461C6C8023A0470E4B41
:1027F0001868194B48301978FFF740FDD8F80030B9
:102800003BB90F4B1549164A1B6809681268596095
:102810009A60034A002313702B704FF0010845E7BC
:1028200000B0FF1F11B0FF1FD8C3FF1F88B0FF1FEC
:1028300018A3FF1FCC92FF1F0000C04000002041E2
:10284000B4B0FF1F08C9FF1FB8B0FF1FC8C1010007
:10285000000040400000A04024B0FF1FE4C3FF1F61
:10286000F8C8FF1F8CB0FF1FD498FF1F34B0FF1FA4
:1028700010B582B002AB42F2257243F8042D044633
:10288000017004221846002111F0B0F82046012200
:10289000022111F0ABF8032002B010BD2DE9F04188
:1028A000804682B018F8041B744D754F0446FFF73C
:1028B000DFFF042206460146404611F097F8311D1D
:1028C00004F10800042211F091F806F1080104F166
:1028D0000C00042211F08AF806F10C0104F110003A
:1028E000042211F083F806F1100104F1140004220F
:1028F00011F07CF806F1140104F11800042211F023
:1029000075F806F1180104F11C00042211F06EF8AC
:1029100006F11C0104F12000042211F067F806F111
:10292000200104F13500692211F060F806F18901F7
:1029300004F12800042211F059F806F18D0104F188
:102940002C00012211F052F806F18E0104F1300042
:10295000042211F04BF806F1920104F13400012237
:1029600011F044F80D21474812F010FD00230A220F
:102970002178284612F0CCFF0221434812F006FDD0
:102980006168284613F004F83846012112F0FEFC75
:10299000A168284612F0FCFF3846012112F0F6FC2F
:1029A000E168284612F0F4FF3846012112F0EEFCEF
:1029B0002169284612F0ECFF3846012112F0E6FCAE
:1029C0006169284612F0E4FF3846012112F0DEFC6E
:1029D000A169284612F0DCFF3846012112F0D6FC2E
:1029E000E169284612F0D4FF3846012112F0CEFCEE
:1029F000216A284612F0CCFF3846012112F0C6FCAD
:102A0000A06A13F0FDFE4FF0020802460B46CDF817
:102A10000080284612F0C4FF3846012112F0B6FCAF
:102A200094F92C10284612F0B3FF3846012112F019
:102A3000ADFC00230A2294F83410284612F068FFF7
:102A40003846012112F0A2FC206B13F0D9FECDF81C
:102A5000008002460B46284612F0A2FF38460121AC
:102A600012F094FC06F19301284612F091FF2846DB
:102A700012F028FF962002B0BDE8F08140A5FF1FAC
:102A800084C00100DCC10100ACC7010070B506467E
:102A900084B0002010F046FF8DF80E00012010F0E9
:102AA00041FF8DF80F00BDF80E2042F225739A42C7
:102AB00040F00781022010F035FF03288ABFFF2372
:102AC00030703370F51C0324204610F02BFF0134C6
:102AD000072C05F8010FF7D1F51D204610F022FF55
:102AE00001340B2C05F8010FF7D106F10B05204638
:102AF00010F018FF01340F2C05F8010FF7D106F183
:102B00000F05204610F00EFF0134132C05F8010FBD
:102B1000F7D106F11305204610F004FF0134172CFD
:102B200005F8010FF7D106F11705204610F0FAFE5F
:102B300001341B2C05F8010FF7D106F11B052046C7
:102B400010F0F0FE01341F2C05F8010FF7D106F14B
:102B50001F05204610F0E6FE0134232C05F8010F76
:102B6000F7D106F13405204610F0DCFE01348C2C40
:102B700005F8010FF7D106F12705204610F0D2FE27
:102B80000134902C05F8010FF7D1204610F0CAFE51
:102B900006F12F0586F82C009124204610F0C2FE85
:102BA0000134952C05F8010FF7D1204610F0BAFE3C
:102BB0000C2186F83400484812F0E8FB00230A2272
:102BC0003178464812F0A4FE0221454812F0DEFB9F
:102BD0007168424812F0DCFE0121424812F0D6FB37
:102BE000B1683E4812F0D4FE01213E4812F0CEFBFF
:102BF000F1683A4812F0CCFE01213A4812F0C6FBC7
:102C00003169364812F0C4FE0121364812F0BEFB8D
:102C10007169324812F0BCFE0121324812F0B6FB55
:102C2000B1692E4812F0B4FE01212E4812F0AEFB1D
:102C3000F1692A4812F0ACFE01212A4812F0A6FBE5
:102C4000316A264812F0A4FE0121264812F09EFBAC
:102C5000B06A13F0D5FD022402460B4600941F48CB
:102C600012F09EFE01211F4812F090FB96F92C10E5
:102C70001A4812F08DFE01211A4812F087FB00233A
:102C80000A2296F83410154812F042FE0121154828
:102C900012F07CFB306B13F0B3FD009402460B4640
:102CA0000E4812F07DFE01210E4812F06FFB9621B6
:102CB0000A4812F06DFE094812F004FE962004B096
:102CC00070BD1B21084812F061FB044812F0FAFDA8
:102CD000002004B070BD00BF08C2010040A5FF1F66
:102CE000ACC7010084C00100ECC101002DE9F8432C
:102CF000099C089E0F46904699461CB1086814F03E
:102D000077FBA0471D4D41F2F003E8580FF0BAFDE4
:102D1000B5F8864DB5F8843D201A84B29C42A5F8DA
:102D2000864D24D094BF06F100403046396814F037
:102D300091F84146064614F033FB58B949463046EF
:102D400014F04CFB68B1C7F800900020A5F8844D42
:102D5000BDE8F883C7F800800020A5F8844DBDE8E1
:102D6000F8833E600020A5F8844DBDE8F88341F269
:102D70004C53E858BDE8F8430FF026BD08C9FF1FC3
:102D80002DE9F043284D6B78012B85B0274B44D9B2
:102D90001B68186A03F14C0903F1200414F00AF9C6
:102DA000234914F013FA0146224814F00FFA22497D
:102DB00014F00CFA13F096FB04A9204A41F8040D14
:102DC0004FF07E5380460192009300221C4B1D4819
:102DD000FFF78CFF1C4B039F1870064614493846BA
:102DE00014F0F4F90146134814F0F0F9124914F004
:102DF000EDF914F023FB41462060384614F0E6F963
:102E0000D9F8001014F02EF90346C9F80000304636
:102E1000C5F8CC3D05B0BDE8F0831C68206A04F11C
:102E200048092034BAE700BF08C9FF1FD8C3FF1FF5
:102E300000007A4400606A470000C0411D1E000087
:102E40000000FA434CD7FF1F309BFF1F70B51F4D8A
:102E50006B78022B84B032D0032B29D0012B02D007
:102E600000231B7AFFDE2C7804EB440405EBC4142A
:102E700004F59A7494F9080014F0A0F804A9144A0F
:102E800041F8040D4FF07E5301920093114A124B0A
:102E90001248FFF72BFF124B06461E70039814F0E2
:102EA000A7FA40B2207285F8D00D304604B070BD4C
:102EB0002C7804EB440405EBC414C434DAE72C7812
:102EC00004EB440405EBC4145034D3E708C9FF1FD6
:102ED0001D1E00000000A0C00000A0404CD7FF1F36
:102EE000309BFF1F2DE9F843099CDDF820900E462A
:102EF00090461F460CB10868A0471C4D41F2F003F4
:102F0000E8580FF0BFFCB5F8864DB5F8843D201A9F
:102F100084B29C42A5F8864D21D0E01A14F04EF8F8
:102F2000494614F09FF88146306814F047F801468E
:102F3000484613F08FFF14F05BFA404508DB8742E8
:102F4000A8BF074637600020A5F8844DBDE8F88388
:102F5000C6F800800020A5F8844DBDE8F88341F252
:102F60004C53E858BDE8F8430FF02EBC08C9FF1FCA
:102F70002DE9F047234CBDF82090099D41F2F00760
:102F80000646E05990460F469A460FF07BFCB4F88F
:102F9000863DB4F8841D184480B2A4F8860D88429A
:102FA00096F861221BD2AB5C013BDBB22F2B98BFA2
:102FB0003923AB5428460A22002115F01FFA404558
:102FC000386013DAB4F8860DC7F8008041F24C532C
:102FD000A4F8840DE058BDE8F0470FF0F5BBF5D933
:102FE0005AB909F1FF3986F86192EFE75045C8BF39
:102FF000C7F800A0B4F8860DE8E7013A86F8612228
:10300000E4E700BF08C9FF1FF8B5204C41F2F00308
:103010000546E0580E4617460FF034FCB4F8863DDE
:10302000B4F8841D184480B2A4F8860D95F8612286
:103030008842B35C1ED20133DBB213F0800F18BF9D
:103040002023B354B4F8860DA4F8840D41F24C53F8
:10305000E0580FF0B9FB60B195F86132013FBB4217
:1030600007D013B93278202A0ED0013385F86132A7
:103070000020F8BDE8D9013BDBB21F2B98BF7F23AE
:10308000B354B4F8860DDFE73370F8BD08C9FF1FED
:10309000F0B5DFF844E041F2F40583B008465EF88D
:1030A0000550BDF820601F46144615F069F804EB82
:1030B0004404A4002A68033400EB400312210020DA
:1030C0000190009104EB43031BB2146C39B2284603
:1030D00032B2A04703B0F0BD08C9FF1F2DE9F04F81
:1030E000DFF8BC8041F2F40785B00E469B4658F8E5
:1030F0000700BDF83890012114460DF085FE0BF154
:10310000020058F8075083B21A464FF0010A09F13D
:1031100005034FF00001EA812B82A5F812A0A982D5
:103120003046039215F02CF82B6802465B68314656
:1031300028469847284612F0C5FB58F80700022198
:103140000DF062FE58F807504FF00001A98230469A
:10315000A5F812A015F014F8039A00EB400002EB5A
:10316000400009EB0A03E8812B82304615F008F88D
:1031700004EB4404A4002E68CDF804A000EB40004A
:1031800003341222009204EB40031BB20FFA89F2BF
:103190000FFA8BF12846F46CA04705B0BDE8F08F1C
:1031A00008C9FF1F2DE9F04F87B01F46BDF840400A
:1031B00004942546BDF844400094A94688460293ED
:1031C00016462B463A46054605940391FFF760FFE5
:1031D0004B463A46009441462846FFF77FFF41F2AE
:1031E000F403254A254F52F803B000245B46A1465C
:1031F000A3464FF001081C4617E095F8613253458D
:10320000236804BFA4F81290A4F814801B6816F871
:103210000A10984795F861323C68534504BFA4F8FA
:103220001280A4F814900BF1010B304614F0A8FFA3
:103230001FFA8BFA50452046DFD822681049A34672
:1032400054680022A047584612F03CFB029A3146CF
:103250002846FFF7D9FE58B1059B00932846049BEA
:10326000029A0399FFF714FFFF2385F861320120CA
:1032700007B0BDE8F08F00BF08C9FF1FFCD9FF1FD2
:1032800068C30100F0B5044690F8610287B0FF28DA
:10329000BDF83050BDF834600AD08DE8600020469B
:1032A000FFF780FF10B1FF2384F8613207B0F0BD53
:1032B000002084F86102104605930491039214F0F3
:1032C0005FFF059B039A04999842E6D207DA1044FF
:1032D00002EB030E202700F8017B7045FBD1002094
:1032E000D054DAE7102B2DE9F84F05460C464FF085
:1032F000000E55D8724501F803E057DB9E4518DAF9
:10330000DFF8BCC0E718012692FBF6F18CFB010840
:10331000C817C0EBA80000EB8000A1EB4001013B07
:1033200006EB8606303173454FEA460607F8011D65
:10333000EADC214ADFF88C9041F2F4034FF00008F8
:10334000D758C3464FF0010A17E095F86132B342EF
:103350003B6804BFA7F812B0A7F814A01B68A15DD2
:10336000984795F86132D9F80070B34204BFA7F8C6
:1033700012A0A7F814B008F10108204614F000FFCD
:103380001FFA88F6B0423846DFD83B680B495B68C5
:103390003846002298473846BDE8F84F12F092BAF6
:1033A000724581F810E04FF01003A9DA2D21524246
:1033B00021704FF0010EA1E708C9FF1F68C301008B
:1033C00067666666FCD9FF1F2DE9F04F89B0054698
:1033D000BDF84C40BDF85060BDF8547000978B4666
:1033E0009046994622463346FFF752FE33460097F1
:1033F000224659462846FFF771FE169B0DF10C0A2E
:103400005BB350462246D8F80010984795F86132D1
:10341000FF2B16D08DE810044A464146129B2846E1
:10342000FFF7A6FD50B1334628460097224659467D
:10343000FFF72EFEFF2385F86132012009B0BDE8B9
:10344000F08F00224FF07E53019200934A4641468E
:10345000129B2846FFF746FDE4E751462346D8F87D
:1034600000202846FFF73EFFD0E700BFF0B51C4A1A
:10347000137803EB4303DB01D11889B091F85E00A8
:10348000C00626D101F5A074B1F84011079141F2B0
:10349000A5031349D25C124DFF2A04BF0322CA546C
:1034A0002D2700234FF47A7204268DE844000D493D
:1034B000049305F644600293039707AAFFF784FF7D
:1034C00018B141F2A503FF22EA54079B238009B0FB
:1034D000F0BD1344B1F85C1003F15C04D6E700BF03
:1034E00008C9FF1F18C201002DE9F0432B4D2C49DC
:1034F000D5F8D40D294E89B013F0B4FD13F078FF40
:1035000041F2A5032D21EA5C0790FF2A04BF0422A3
:10351000EA54244B0093052200230391019206F6FE
:1035200044600493029307AA1F49FFF74DFF8046AA
:1035300038B341F2A503FF22F254079813F03EFD81
:10354000174913F043FE34460146C6F8D40D06F57C
:103550004067B14601E0D9F8D41D95F8D86DD4F88C
:10356000E8000FF057FF304613F024FD04F5C07457
:1035700054F8983CA7421861EDD1404609B0BDE827
:10358000F083079813F01AFD054913F01FFEC6F8E3
:10359000D40D404609B0BDE8F08300BF08C9FF1F45
:1035A0000050C3473F420F0024C20100F0B5154C44
:1035B000154A2378154989B003EB430304EBC31381
:1035C000049293F8643108AA1B0942F8043D2D27A0
:1035D000002302260B25029304F6446003978DE82E
:1035E0006000FFF7F1FE2378079A03EB430304EB37
:1035F000C31494F8643162F3071384F8643109B09A
:10360000F0BD00BF08C9FF1F0907000030C201005C
:103610002DE9F0431D4D1E4995F8D80D89B008AA33
:10362000002304262D274FF4807442F8040D8DE802
:10363000500005F64460049302930397FFF7C4FE1D
:103640009DF81C6085F8D86D814618B9484609B0C8
:10365000BDE8F0832C4605F54067A84601E098F8E0
:10366000D86DD4F8E800D5F8D41D0FF0D3FE30465D
:1036700013F0A0FC04F5C07454F8983CBC421861E7
:10368000EDD1484609B0BDE8F08300BF08C9FF1F6F
:103690003CC20100F0B52F4C6378022B89B032D0C8
:1036A000032B29D0012B02D000235B78FFDE237887
:1036B00003EB430304EBC31303F59A7308AA5B7887
:1036C000244E42F8043D2D27002503974FF0030EAA
:1036D0007F272B462049049506F6446002958DE825
:1036E0008040FFF771FE6378022B28D0032B1CD09B
:1036F000012B0FD06D70FFDE237803EB430304EB47
:10370000C313C433DAE7237803EB430304EBC31397
:103710005033D3E7337803EB430306EBC31606F5C8
:103720009A76079B737009B0F0BD337803EB4303BF
:1037300006EBC316C436079B737009B0F0BD33782F
:1037400003EB430306EBC3165036079B737009B0B7
:10375000F0BD00BF08C9FF1F44C20100F0B52E4CE8
:103760006378022B89B031D0032B28D0012B02D0F3
:1037700000231B78FFDE237803EB430304EBC31322
:1037800003F59A7308AA1B7842F8043D224D234999
:103790002D2300260393032710238DE8880005F6C8
:1037A0004460012304960296FFF70EFE6378022B15
:1037B00028D0BB421CD0012B0FD03670FFDE2378FF
:1037C00003EB430304EBC313C433DBE7237803EBBE
:1037D000430304EBC3135033D4E72B7803EB4303C9
:1037E00005EBC31505F59A75079B2B7009B0F0BD65
:1037F0002B7803EB430305EBC315C435079B2B70F4
:1038000009B0F0BD2B7803EB430305EBC31550352E
:10381000079B2B7009B0F0BD08C9FF1F50C2010003
:10382000F0B5314C6378022B89B037D0032B2ED002
:10383000012B02D000235B68FFDE237803EB4303F8
:1038400004EBC31303F59A735868274D13F0D0FDAA
:1038500008AA00262D270321FF2342F8040D039711
:103860000191009305F644600123049602961F49D6
:10387000FFF7AAFD6378022B07462DD0032B24D037
:10388000012B12D0079813F099FB7060FFDE2378AC
:1038900003EB430304EBC313C433D5E7237803EBF3
:1038A000430304EBC3135033CEE72B7803EB4303FE
:1038B00005EBC31505F59A75079813F07FFB686053
:1038C000C4F8CC0D384609B0F0BD2B7803EB4303A8
:1038D00005EBC315C435EFE72B7803EB430305EB8A
:1038E000C3155035E8E700BF08C9FF1F60C20100DB
:1038F000F0B52E4C6378022B89B033D0032B2AD03D
:10390000012B02D000231B7AFFDE237803EB430355
:1039100004EBC31303F59A7308AA93F9083042F82D
:10392000043D224D22492D230026039304277823AA
:103930008DE8880005F644606FF0770304960296E0
:10394000FFF742FD6378022B28D0032B1FD0012BF9
:103950000FD03672FFDE237803EB430304EBC3136F
:10396000C433D9E7237803EB430304EBC313503389
:10397000D2E72B7803EB430305EBC31505F59A75E6
:103980009DF91C302B7284F8D03D09B0F0BD2B7826
:1039900003EB430305EBC315C435F1E72B7803EBC9
:1039A000430305EBC3155035EAE700BF08C9FF1F05
:1039B0006CC20100F0B5324C6378022B89B035D06F
:1039C000032B2CD0012B03D0002393F82030FFDEF3
:1039D000237803EB430304EBC31303F59A7308AA9C
:1039E00093F82030264E42F8043D2D2700250397FA
:1039F0004FF0030E7F272B462249049506F64460BC
:103A000002958DE88040FFF7DFFC6378022B2BD016
:103A1000032B1ED0012B10D085F82050FFDE237819
:103A200003EB430304EBC313C433D8E7237803EB5E
:103A3000430304EBC3135033D1E7337803EB430361
:103A400006EBC31606F59A76079B86F8203009B078
:103A5000F0BD337803EB430306EBC316C436079B74
:103A600086F8203009B0F0BD337803EB430306EB52
:103A7000C3165036079B86F8203009B0F0BD00BF52
:103A800008C9FF1F7CC20100F0B5324C6378022BDD
:103A900089B035D0032B2CD0012B03D0002393F811
:103AA0002130FFDE237803EB430304EBC31303F55C
:103AB0009A7308AA93F82130264E42F8043D2D2728
:103AC000002503974FF0030E7F272B4622490495CC
:103AD00006F6446002958DE88040FFF775FC637838
:103AE000022B2BD0032B1ED0012B10D085F8215098
:103AF000FFDE237803EB430304EBC313C433D8E79F
:103B0000237803EB430304EBC3135033D1E733783B
:103B100003EB430306EBC31606F59A76079B86F87C
:103B2000213009B0F0BD337803EB430306EBC31635
:103B3000C436079B86F8213009B0F0BD337803EB1B
:103B4000430306EBC3165036079B86F8213009B0B5
:103B5000F0BD00BF08C9FF1F88C20100F0B5484C86
:103B60006378022B89B049D0032B3DD0012B03D0C1
:103B7000002393F82030FFDE237803EB430304EBAC
:103B8000C31303F59A7393F82020D20141F2A501E3
:103B900093F82130605C3A4D1344FF28079304BF2B
:103BA00004236B54364D3749002343F6FF722D270B
:103BB00005268DE8440005F64460049302930397BC
:103BC00007AAFFF701FC18B141F2A503FF22EA544E
:103BD00063782B4A022B3FD0032B2FD0012B17D019
:103BE000002383F82030FFDE237803EB430304EB4C
:103BF000C313C43393F82020D201C7E7237803EB23
:103C0000430304EBC313503393F82020D201BDE7E4
:103C10001378079903EB430302EBC313002903F561
:103C20009A730A4615DBD21183F82020164A0A40FF
:103C3000002A1DDB83F8212009B0F0BD1378079915
:103C400003EB430302EBC313002903F1C4030A4649
:103C5000E9DA01F17F02E6E71378079903EB430302
:103C600002EBC313002903F150030A46DBDAF0E745
:103C7000013A62F07F02013283F8212009B0F0BDE1
:103C800008C9FF1F94C201007F000080F0B52F4CCF
:103C90006378022B89B032D0032B29D0012B02D0BC
:103CA00000239B78FFDE237803EB430304EBC3136D
:103CB00003F59A7308AA9B78244E42F8043D2D27F9
:103CC000002503974FF0030E77272B4620490495D4
:103CD00006F6446002958DE88040FFF775FB637837
:103CE000022B28D0032B1CD0012B0FD0AD70FFDE90
:103CF000237803EB430304EBC313C433DAE72378DD
:103D000003EB430304EBC3135033D3E7337803EBE4
:103D1000430306EBC31606F59A76079BB37009B00A
:103D2000F0BD337803EB430306EBC316C436079BA1
:103D3000B37009B0F0BD337803EB430306EBC31651
:103D40005036079BB37009B0F0BD00BF08C9FF1F14
:103D50009CC20100F0B52F4C6378022B89B032D0A1
:103D6000032B29D0012B02D00023DB78FFDE237840
:103D700003EB430304EBC31303F59A7308AADB7840
:103D8000244E42F8043D2D27002503974FF0030EE3
:103D90007F272B462049049506F6446002958DE85E
:103DA0008040FFF711FB6378022B28D0032B1CD037
:103DB000012B0FD0ED70FFDE237803EB430304EB00
:103DC000C313C433DAE7237803EB430304EBC313D1
:103DD0005033D3E7337803EB430306EBC31606F502
:103DE0009A76079BF37009B0F0BD337803EB430379
:103DF00006EBC316C436079BF37009B0F0BD3378E9
:103E000003EB430306EBC3165036079BF37009B070
:103E1000F0BD00BF08C9FF1FA4C2010070B5214C4E
:103E20006378022B28D0032B1FD0012B0FD000204A
:103E300041F29C051521FEF721FA635D194E73B915
:103E400001237355FFF726FCE8B9002070BD2078E8
:103E500000EB400004EBC01000F59A70E8E7012B7E
:103E6000F0D0022B16D0012070BD207800EB40006E
:103E700004EBC010C430DBE7207800EB400004EB1B
:103E8000C0105030D4E741F29C020020A35C013303
:103E9000A35470BDFFF75EFF0028D6D000237355F2
:103EA00070BD00BF08C9FF1FF0B5314C6378022B0D
:103EB00089B037D0032B2ED0012B02D000235B68B2
:103EC000FFDE237803EB430304EBC31303F59A737C
:103ED0005868274D13F08CFA08AA00262D270321D5
:103EE000FF2342F8040D03970191009305F6446007
:103EF0000123049602961F49FFF766FA6378022BA6
:103F000007462DD0032B24D0012B12D0079813F095
:103F100055F87060FFDE237803EB430304EBC31313
:103F2000C433D5E7237803EB430304EBC3135033C7
:103F3000CEE72B7803EB430305EBC31505F59A7524
:103F4000079813F03BF86860C4F8CC0D384609B008
:103F5000F0BD2B7803EB430305EBC315C435EFE746
:103F60002B7803EB430305EBC3155035E8E700BF9F
:103F700008C9FF1F60C20100F0B52E4C6378022B08
:103F800089B033D0032B2AD0012B02D000231B7A17
:103F9000FFDE237803EB430304EBC31303F59A73AB
:103FA00008AA93F9083042F8043D224D22492D23F6
:103FB00000260393042778238DE8880005F64460E3
:103FC0006FF0770304960296FFF7FEF96378022BF1
:103FD00028D0032B1FD0012B0FD03672FFDE2378A1
:103FE00003EB430304EBC313C433D9E7237803EB98
:103FF000430304EBC3135033D2E72B7803EB4303A3
:1040000005EBC31505F59A759DF91C302B7284F8E4
:10401000D03D09B0F0BD2B7803EB430305EBC3158E
:10402000C435F1E72B7803EB430305EBC31550359B
:10403000EAE700BF08C9FF1F6CC2010070B5374C2A
:10404000637888B000227F21022BADF81820ADF8EC
:104050001A103AD0032B2ED0012B01D0938BFFDE08
:10406000207800EB400004EBC01000F59A70B0F926
:104070001C3007930DF11A0206A9FEF793F8274D9D
:10408000BDF91A20009200262D210522BDF9183015
:104090000391019205F644600496029607AA20490E
:1040A000FFF792F96378022B2ED0032B22D0012B3D
:1040B00015D0B683FFDE207800EB400004EBC01083
:1040C000C430B0F91C300793D4E7207800EB4000EF
:1040D00004EBC0105030B0F91C300793CAE72B78BE
:1040E00003EB430305EBC31505F59A75079BAB83FB
:1040F00008B070BD2B7803EB430305EBC315C43543
:10410000079BAB8308B070BD2B7803EB430305EB33
:10411000C3155035079BAB8308B070BD08C9FF1F9E
:10412000B0C2010070B5374C637888B000227F219F
:10413000022BADF81820ADF81A103AD0032B2ED070
:10414000012B01D0D38BFFDE207800EB400004EB85
:10415000C01000F59A70B0F91E3007930DF11A02E5
:1041600006A9FEF71FF8274DBDF91A200092002678
:104170002D210522BDF918300391019205F6446006
:104180000496029607AA2049FFF71EF96378022BCE
:104190002ED0032B22D0012B15D0F683FFDE207802
:1041A00000EB400004EBC010C430B0F91E300793A0
:1041B000D4E7207800EB400004EBC0105030B0F999
:1041C0001E300793CAE72B7803EB430305EBC315B7
:1041D00005F59A75079BEB8308B070BD2B7803EB50
:1041E000430305EBC315C435079BEB8308B070BDD3
:1041F0002B7803EB430305EBC3155035079BEB838B
:1042000008B070BD08C9FF1FBCC2010038B50A4D17
:104210002C783CB1012C08D1FFF784FF28B1002392
:104220002B7038BDFFF70AFF08B9002038BD012305
:104230002B70204638BD00BFB0B0FF1FF0B52E4C2C
:104240006378022B89B036D0032B2DD0012B02D0FE
:1042500000235B69FFDE217801EB410104EBC11112
:1042600001F59A7108AA4B69234D42F8043D4FF0BD
:104270002D0E8F69CDF80CE0002644F2020C4FF0B1
:10428000060E1E4B1E49049605F6446002968DE804
:104290000050FFF799F86378022B26D0032B1DD02E
:1042A000012B0FD07661FFDE217801EB410104EB99
:1042B000C111C431D6E7217801EB410104EBC111F2
:1042C0005031CFE72B7803EB430305EBC31505F51E
:1042D0009A75079BAF616B6109B0F0BD2B7803EB5A
:1042E000430305EBC315C435F3E72B7803EB430316
:1042F00005EBC3155035ECE708C9FF1FFDBFFFFFF5
:10430000C8C20100F0B52F4C6378022B89B037D0BA
:10431000032B2ED0012B02D000235B69FFDE237814
:1043200003EB430304EBC31303F59A735F699869C6
:10433000244D254B254908AA38444FF02D0E42F84C
:10434000040D0026CDF80CE044F2020C4FF0060EEE
:1043500005F64460049602968DE80050FFF734F8A5
:104360006378022B27D0032B1ED0012B0FD0766150
:10437000FFDE237803EB430304EBC313C433D5E719
:10438000237803EB430304EBC3135033CEE72B78BE
:1043900003EB430305EBC31505F59A75079B6F61A6
:1043A000DB1BAB6109B0F0BD2B7803EB430305EBDE
:1043B000C315C435F2E72B7803EB430305EBC315B4
:1043C0005035EBE708C9FF1FFDBFFFFFD0C201005A
:1043D00038B50A4D2C783CB1012C08D1FFF792FF7B
:1043E00028B100232B7038BDFFF728FF08B9002043
:1043F00038BD01232B70204638BD00BFB0B0FF1F71
:10440000F0B5384C637889B000227F21022BADF8DB
:104410001820ADF81A103ED0032B30D0012B01D05C
:10442000138AFFDE207800EB400004EBC01000F59B
:104430009A70B0F91030B0F9127007930DF11A02AA
:1044400006A9FDF7AFFE274DBDF91A200092002600
:104450002D210522BDF918300391019205F6446023
:104460000496029607AA2049FEF7AEFF6378022B56
:1044700030D0032B27D0012B19D03682FFDE2078D5
:1044800000EB400004EBC010C430B0F91030B0F9BC
:1044900012700793D2E7207800EB400004EBC010C5
:1044A0005030B0F910300793B0F91270C6E72B788E
:1044B00003EB430305EBC31505F59A75079B6F8264
:1044C0002B8209B0F0BD2B7803EB430305EBC3153A
:1044D000C435F3E72B7803EB430305EBC3155035E5
:1044E000ECE700BF08C9FF1FD8C20100F0B53A4C85
:1044F000637889B000227F21022BADF81820ADF837
:104500001A1040D0032B31D0012B01D0138AFFDECB
:10451000207800EB400004EBC01000F59A70B0F971
:104520001070B0F912303B4407930DF11A0206A93E
:10453000FDF738FE284DBDF91A20009200262D21E6
:104540000522BDF918300391019205F644600496E6
:10455000029607AA2149FEF737FF6378022B33D072
:10456000032B2AD0012B1BD03682FFDE207800EBF4
:10457000400004EBC010C430B0F91070B0F9123034
:104580003B440793D1E7207800EB400004EBC010D8
:104590005030B0F91070B0F912303B440793C4E7C3
:1045A0002B7803EB430305EBC31505F59A75079BC1
:1045B0002F82DB1B6B8209B0F0BD2B7803EB43032A
:1045C00005EBC315C435F2E72B7803EB430305EB8A
:1045D000C3155035EBE700BF08C9FF1FE4C2010057
:1045E00038B50A4D2C783CB1012C08D1FFF77EFF7D
:1045F00028B100232B7038BDFFF702FF08B9002057
:1046000038BD01232B70204638BD00BFB0B0FF1F5E
:104610002DE9F04F88469BB0D0F864120790BDF8A2
:1046200090A09DF894500B92994629B97A4B1B683B
:104630000D930D9BC0F86432002D00F0C780774BBE
:104640002E1F83FB0623A3EBE6760236F600B3B2F9
:10465000CAF13F069E424046A8BF1E4613F090FD99
:1046600000EB400047000437BFB241F2F4046C4B4A
:104670001859AF4233B228BF2F464FF0000B1A46ED
:104680000FFA8AF50A93036806950FFA89F10092EA
:10469000CDF804B03AB21D6C099213460891069AFF
:1046A000A8475F4B012118590CF0AEFB5C4A5B4BED
:1046B0001459033F83FB07230AF1040AB6B2A3EBA4
:1046C000E7771FFA8AF30493F31F5D4609F10209A5
:1046D000012205931AABA4F814B00FFA89F962828B
:1046E00003EB070B2E46AA4609E0059BB3EBC20F6E
:1046F0002BDD56B3B5F5807F27D04A4B1C68049B51
:10470000A4F80E9003EBC50308EB060123823A469A
:104710000FA813F0A3FD0FA80BF82CAC13F030FD7D
:10472000236802465B680FA920469847204611F08F
:10473000C9F8404613F024FDC01BF319864205F169
:1047400002029EB205F10105CFD9354B0A9941F21B
:10475000F404012218591E4603688DE80600069AE3
:10476000DD6C0899099BA847079B93F82E31002B15
:104770003DD141F2F4032A4AD0580DF0B1F941F28B
:104780004C53274AD0580EF01FF850B9224A079BC5
:104790001268D3F864320E920B990E9A19448A4229
:1047A00011D941F2F4021E49099B88580A9A0568FA
:1047B000009200240194069A08992D6CA847079B43
:1047C0000120C3F864421BB0BDE8F08F404613F0EF
:1047D000D7FC00EB40004700CAF13F063B1DC9F182
:1047E0007F05102E9FB2A8BF1026EDB23DE73059CD
:1047F000079E96F83C41D6F83431B6F93221B6F925
:104800003011B6F93A510294B6F938418DE83000CA
:104810000CF0C6F8ADE700BF88E1FF1FABAAAA2ADB
:1048200008C9FF1FFCD9FF1F2DE9F0470E4601788C
:104830009DF820800829044691464ED03C4AD0F885
:10484000E400D2F8A87DD2F8B41D1D46D2F8AC3DE4
:104850006366D2F8B03D27660127C4F8D430C4F8A7
:10486000D81084F8BC7092F8D8ADD2F8D41D0EF0F0
:10487000D1FD504612F09EFBD4F8E42016231061BF
:104880000021184684F8756023710FF0D3FA0026D2
:10489000102084F8780084F8E990268331460FF0E0
:1048A000C9FAA4F88C6084F8066184F8EC502846B4
:1048B0000DB9BDE8F08702210FF0BCFA84F8408101
:1048C000B8F1000F02D13846BDE8F08740463946BE
:1048D0000FF0B0FA3846BDE8F087154BD3F8B81D95
:1048E000D3F8C42DD3F8BC0DD3F8C03D21661027F2
:1048F00000210D466066C4F8D430C4F8D82038468C
:1049000084F8756027710FF095FA384684F878704E
:1049100084F8E990258329460FF08CFA84F8EC504E
:10492000A4F88C5084F806512846BDE8F08700BFF3
:1049300008C9FF1F2DE9F8430446884616460FF0C4
:104940007FFA236AA06213B9E36A002B44D072B6DF
:10495000DFF8AC90254FD9F800103B682448A56AD1
:10496000E26ACB1A80FB0310D917C1EBA000062125
:1049700084F834101F49C5EB030EAA1A0B60236B91
:10498000626285181C4AA06B7344A9B213600EF0D2
:1049900031FDA26B636AD26A002E62F30F052846CE
:1049A0001FDDB040B340D9F800103A680B44024410
:1049B000C9F800303A6012F0FDFA414612F006FCE8
:1049C0000E4912F003FC12F039FDA36A2062E36283
:1049D00062B60120BDE8F8832063E0621846BDE8B6
:1049E000F883E0D07642F040F340DCE7BCB0FF1F34
:1049F0006766666628B0FF1F60E1FF1F0000C040C9
:104A00005CB0FF1F10B50446022094F8711001F04D
:104A100001010FF0FBF994F871100320C1F340017C
:104A20000FF0F4F994F871100420C1F38001BDE88F
:104A300010400FF0EBB900BF30B5104B83B00C46FF
:104A40009C424FF000014FF07F02054608BFB0F9CD
:104A50001640ADF80410ADF8062048300DF10602FE
:104A600001A9FDF79FFBB5F96400844204DBB5F9A9
:104A70006600A042A8BF204603B030BDF1D8FFFFBA
:104A800038B590F85C31032B36D8DFE803F002111B
:104A900004021A4838BD90F8CE3003F01F03072BEC
:104AA000B0F91A301DD0B0F98E1003FB01F104E00B
:104AB000B0F91A10B0F98E30194490F85A301A46ED
:104AC00004466FF3461280F85A200430C3F34115B0
:104AD000FFF7B2FF94F85A3065F3461384F85A3062
:104AE00038BDB0F98E20064903FB02F381FB032198
:104AF000DB17C3EB6111E0E70049DEE7F1D8FFFF08
:104B00001F85EB51012A08B545DD90F8563003F0BA
:104B10001F031E2B48D8DFE803F0161D22161616B9
:104B20001616271616161616101016161616163105
:104B3000313939162218181818000B7880F86930A6
:104B40004B7880F86830104608BD0B7880F85730F5
:104B5000104608BD0B88A0F86A30104608BD0B78D7
:104B600080F84930104608BD104BD3F8CC1DC16405
:104B700093F9D03D80F85030104608BD0B7880F88E
:104B800049304B7880F84B30104608BD0B7880F8E0
:104B90004A30104608BD2221054810F0F7FB0548B1
:104BA00010F090FE002008BD002008BD08C9FF1FBE
:104BB000F4C2010040A5FF1F2DE9F84390F84450CE
:104BC000574E584C002D08BF3446154614BF0A27CF
:104BD0000D277D2900F2A280DFE801F046A0A0A009
:104BE000A0A0A0A0A0A0A0A0A0A0A0A0A0A0A0A0C5
:104BF000A0A0A0A0A0A0A0A0A0A0A0A0A0A0A0A0B5
:104C0000A0A0A0A0A0A0A0A0A0A0A0A0A0A0A0A0A4
:104C1000A0A0A0A0A0A0A0A0A0A0A0A0A0A0A0A094
:104C2000A0A0A0A0A0A0A0A0A0A0A0A0A0A0A0A084
:104C3000A0A0A0A0A0A0A0A0A0A0A0A0A0A0A0A074
:104C4000A0A0A0A0A0A0A0A0A0A0A0A0A05D6C6219
:104C500067717A80868A8E949A3F2A7880F85620E7
:104C60001D462846BDE8F88307EB4707033FDFF8FA
:104C7000B890A846064627442379617919F803308D
:104C80002A463046FFF798FF0334A7420544F3D184
:104C9000C8EB0505E5E72A7880F848201D46E0E7DF
:104CA0002A7880F853201D46DBE72A88A0F8542094
:104CB0001D46D6E72A7880F852201D46D1E729788C
:104CC00090F8562061F304021D4680F85620C8E78C
:104CD000B5F90020A0F858201D46C2E7B5F900201C
:104CE000A0F85A201D46BCE72A68C2651D46B8E7F1
:104CF0002A6802661D46B4E7B5F90020A0F86420D2
:104D00001D46AEE7B5F90020A0F866201D46A8E7CD
:104D10001A462946BDE8F843FFF7F4BE0025A0E790
:104D200038BB0100ECBA0100D8BA010010B58AB056
:104D30000446242201A80EF00FFE01AA20462423D7
:104D40000021FFF739FF94F84430002B14BF0E20E8
:104D500018200AB010BD00BF012A08B53BDD90F84D
:104D6000563003F01F031E2B3ED8DFE803F0161D5C
:104D700022161616161616161616161610101616D3
:104D800016161627272F2F1622181818180090F815
:104D900069300B7090F868304B70104608BD90F881
:104DA00057300B70104608BDB0F86A300B801046C3
:104DB00008BD90F849300B70104608BD90F8493096
:104DC0000B7090F84B304B70104608BD90F84A308D
:104DD0000B70104608BD2221044810F0D7FA044891
:104DE00010F070FD002008BD002008BD18C30100B0
:104DF00040A5FF1F2DE9F84390F84450604E614CE8
:104E0000002D90460ABF34460A270D277D2900F25F
:104E1000B380DFE801F046B1B1B1B1B1B1B1B1B128
:104E2000B1B1B1B1B1B1B1B1B1B1B1B1B1B1B1B172
:104E3000B1B1B1B1B1B1B1B1B1B1B1B1B1B1B1B162
:104E4000B1B1B1B1B1B1B1B1B1B1B1B1B1B1B1B152
:104E5000B1B1B1B1B1B1B1B1B1B1B1B1B1B1B1B142
:104E6000B1B1B1B1B1B1B1B1B1B1B1B1B1B1B1B132
:104E7000B1B1B1B1B1B1B1B1B1B1B1B1B1B1B1B122
:104E8000B1B1B1B1B1B1B15E73656C7A838A9197FA
:104E90009DA4AB3F90F8562088F800201846BDE846
:104EA000F88307EB4707033FDFF8DC90064627440B
:104EB00045462379617919F803302A463046FFF7D1
:104EC00099FF0334BC420544F3D1C8EB0500BDE8AB
:104ED000F88390F8482088F800201846BDE8F88349
:104EE00090F8532088F800201846BDE8F883B0F801
:104EF0005420A8F800201846BDE8F88390F8522006
:104F000088F800201846BDE8F88390F85620C2F3D0
:104F1000040288F800201846BDE8F883B0F958204C
:104F2000A8F800201846BDE8F883B0F95A20A8F880
:104F300000201846BDE8F883C26DC8F80020184666
:104F4000BDE8F883026EC8F800201846BDE8F88373
:104F5000B0F96420A8F800201846BDE8F883B0F93D
:104F60006620A8F800201846BDE8F8831A46414696
:104F7000BDE8F843FFF7F0BE0020BDE8F88300BFAE
:104F800038BB0100ECBA0100D8BA0100F0B58BB013
:104F90000E4601AA242300210746FFF72BFF3146C6
:104FA0000246054601A80EF021FD97F84430184846
:104FB000002B4FF00D0114BF0E24182410F0E6F959
:104FC00000230A223978134810F0A2FC022112486B
:104FD00010F0DCF931460F4810F0DAFC01210F48DF
:104FE00010F0D4F929460B4810F0D2FC01210B48EF
:104FF00010F0CCF92146074810F0CAFC054810F023
:1050000061FC0A200EF03EFF20460BB0F0BD00BF51
:105010003CC3010040A5FF1FACC7010084C00100D4
:10502000012A08B524DD90F852300F2B29D8DFE88B
:1050300003F01A1A0808100E0E0E0E0E0E0E0E0EAB
:105040000E0E0B7880F845304B7880F847301046CC
:1050500008BD0D4BD3F8CC1D816493F9D03D80F889
:105060004C30104608BD0B7880F84630104608BD1D
:105070002221064810F08AF9054810F023FC002090
:1050800008BD002008BD00BF08C9FF1FF4C2010011
:1050900040A5FF1F80292DE9F843144644D00AD9C2
:1050A000822932D025D3832935D11A462146BDE83D
:1050B000F843FFF7B5BF7E2930D020D859BB1D4D2E
:1050C000DFF874900646174605F1120814460123CE
:1050D0007E2103E02B79697919F8033022463046A6
:1050E000FFF7D8FF033545450444F3D1E01BBDE885
:1050F000F8831288A0F850201846BDE8F88312788B
:1051000080F84E201846BDE8F883127880F85220C7
:105110001846BDE8F8830020BDE8F883127880F8CF
:1051200044201846BDE8F883127880F84F201846CE
:10513000BDE8F883C0BD0100D8BA010010B584B045
:105140000446102268460EF007FC6A4620461023EB
:105150000021FFF79FFF082004B010BD70B5054681
:1051600008460E460EF0DEFB85F85C01701C0EF062
:10517000D9FB85F86001B01C0EF0D4FB05F5B074C6
:10518000014620460AF07AFFF01C0EF0CBFB0146E8
:105190002046341D0AF076FF214605F1EC00FFF7AA
:1051A000CDFF04442146281DFFF7C0FD04442146DD
:1051B00005F17800FFF7BAFD23189B1B2A780349F5
:1051C000034810F097FB322070BD00BF4CC30100B4
:1051D00040A5FF1F012A10B514DD90F852400F2C96
:1051E00017D80123A3404FF6F0741C409CB913F06C
:1051F0000C0F12D113F003030BD090F846300B7054
:10520000104610BD2221094810F0C0F8084810F0DF
:1052100059FB002010BD104610BD90F845300B70B2
:1052200090F847304B70104610BD00BFF4C201002B
:1052300040A5FF1F80292DE9F843144644D00AD920
:10524000822932D025D3832935D11A462146BDE89B
:10525000F843FFF7BFBF7E2930D020D859BB1D4D82
:10526000DFF874900646174605F11208144601232C
:105270007E2103E02B79697919F803302246304604
:10528000FFF7D8FF033545450444F3D1E01BBDE8E3
:10529000F883B0F8502022801846BDE8F88390F8D3
:1052A0004E2022701846BDE8F88390F852202270F4
:1052B0001846BDE8F8830020BDE8F88390F8442044
:1052C00022701846BDE8F88390F84F2022701846E7
:1052D000BDE8F883C0BD0100D8BA01002DE9F04156
:1052E00084B00F4610236A4600218046FFF7A2FFD4
:1052F000184C194D02460646394668460EF076FBB4
:105300000E21164810F042F800230A2298F80010E7
:10531000204610F0FDFA0221114810F037F8394606
:10532000204610F035FB2846012110F02FF83146B9
:10533000204610F02DFB2846012110F027F8082107
:10534000204610F025FB204610F0BCFA082004B0DF
:10535000BDE8F08140A5FF1F84C001006CC30100BF
:10536000ACC70100F0B583B002AE90F85C3106F82E
:10537000013D05460F46304601220EF037FB95F8F9
:1053800060318DF807303046791C01220EF02EFB7B
:1053900095F862318DF807303046B91C01220EF0C5
:1053A00025FB3C1D95F863318DF80730012230460E
:1053B000F91C0EF01BFB214605F1EC00FFF78EFFF8
:1053C00004442146281DFFF7E1FD0444214605F170
:1053D0007800FFF7DBFD1321044416480FF0D6FFD9
:1053E00000230A222978144810F092FA0221134867
:1053F0000FF0CCFF3946104810F0CAFAE61B012125
:105400000F480FF0C3FF31460B4810F0C1FA0121DD
:105410000B480FF0BBFF2146074810F0B9FA0648C9
:1054200010F050FA2B78082B0CBF3046322003B016
:10543000F0BD00BF7CC3010040A5FF1FACC7010049
:1054400084C0010070B5FA2982B00C4605463DD3F0
:10545000FB2925D9FC2939D1234E2449002385F87D
:105460002030142206F6847012F0F8FE204B1B68E0
:10547000019341F2840141F2880342F21070019AD3
:105480007050F250200240F00F000FF04FFCAB6A5A
:105490005B6D1868036821461B68984702B070BDB1
:1054A000114E1449012385F82030142206F6847029
:1054B00012F0D4FE0E4B1B68009341F2840141F2BE
:1054C000880342F21070009A7050F25004F1080301
:1054D000DBB2072BE2D8012202FA03F313F0DD0F4F
:1054E000D0D102B070BD00BF08C9FF1F9CC301002E
:1054F00088E1FF1F90C3010038B504460EF0A0FC00
:10550000236B226AC31A9A42054616D3636AE26A7B
:1055100003EB4303AD1AAB420ED20C4D0C480D49C0
:105520000D4A00232B602362E3622363636284F8E5
:10553000343003600B60136038BDF8210748FFF773
:1055400081FF226B236A13442363DFE760E1FF1FBF
:1055500028B0FF1F5CB0FF1FBCB0FF1FB4D9FF1FF6
:10556000F0B5304C6378022B89B036D0032B2DD0A8
:10557000012B02D00023DB7BFFDE237803EB430308
:1055800004EBC31303F59A73DB7B264D264908AA67
:10559000C3F3830301332D2742F8043D0026012382
:1055A00003970827019305F6446004960296009736
:1055B000FDF70AFF6378022B2CD0032B23D0012B9D
:1055C00012D0F37B66F38503F373FFDE237803EBDE
:1055D000430304EBC313C433D6E7237803EB43033D
:1055E00004EBC3135033CFE72B7803EB430305EBF6
:1055F000C31505F59A75079BEA7B013B63F38502AA
:10560000EA7309B0F0BD2B7803EB430305EBC31538
:10561000C435F0E72B7803EB430305EBC315503596
:10562000E9E700BF08C9FF1F58C001002DE9F84F86
:105630008A46002961D0404BDFF820813F4AC8F8F4
:10564000102093E8030000230A0CC8F80000A8F813
:10565000041088F8062088F814300127384DC82433
:1056600005F1690B07E0BAF1000F36D107350134B7
:10567000AB45E4B220D02B78002BF4D07E0006EBB3
:10568000070908EBC90948460622294612F0E6FD3B
:10569000BAF1000F2BD12B4BC9F810303E4408EB68
:1056A000C6060735002301373475AB4504F1010404
:1056B000FFB2B371E4B2DED1234B244C93E8070070
:1056C00007EB470308EBC308A8E803000023A8F88A
:1056D000002063713846BDE8F88F1D4A7E0092E8CD
:1056E0000300F31908EBC30248F833009180F31963
:1056F00008EBC303174A1A61D0E7DFF860800E4A4F
:1057000088F8141092E80300134BC8F800000E0C40
:10571000A8F8041093E8070008F1180303C3094D23
:10572000064CC8F8285088F8066088F82CA0C8F8FD
:1057300010401A80022791E7B8C30100C158000049
:10574000E1D6FF1FC9590000ACC30100DCC3FF1F35
:10575000A4C3010009590000C0C3010078BAFF1FAB
:105760002DE9F84F0021FFF761FFDFF870B0DFF897
:105770006090DFF86C80824605460126002705EB25
:10578000450409EBC404204626755946C4F8108028
:105790000622013612F062FD0135302EA771EDB2FE
:1057A0000BF1070B0A4B4FF00004E8D1094A0A4DF0
:1057B00007CA0AF12F0A5FFA8AFA0AEB4A0603EBD4
:1057C000C60303C31A806C715046BDE8F88F00BF52
:1057D00078BAFF1FCCC30100DCC3FF1FAFBE0100BE
:1057E000C9590000324B2DE9F04799424FF00004AF
:1057F000824644614DD02F4B99420E4650D0A04670
:10580000DFF8B89000E0013430460AF097FD84429A
:105810002146304618DA0AF079FD037D002BF2D0DC
:10582000214630460AF072FD07460FCF08EB4805C7
:1058300009EBC5050FC597E8030008F1010885E8E5
:1058400003005FFA88F8DEE730460AF077FD01468C
:1058500030460AF05BFD05460FCD08EB480409EB26
:10586000C4040FC495E8030084E80300124B727966
:105870005A71FF2201218AF8632283F804808AF892
:1058800062125046C3F800900B49BDE8F0470AF099
:1058900011BEFFF765FFDFF82490074B8046E8E76D
:1058A0000121FFF7C3FEDFF81490034B8046E0E7C9
:1058B00080DEFF1F30B8FF1FDCC3FF1F78BAFF1F59
:1058C00070B50F4C41F2F403D4F8602EE058D4F8D0
:1058D0005C1E0568C2F1400382B01BB200268DE851
:1058E0004800C1F1800312B21BB22D6C09B2A84767
:1058F00004F644600349FFF775FF012002B070BD54
:1059000008C9FF1F78E1FF1F70B541F29C032B4CC3
:10591000E55C82B0D5B12A4B1B78284D2949C3EBF1
:10592000C303E2182D230024019302F6D95205F691
:10593000446000940623FDF7A5FCB0B141F29C033E
:10594000EC5402B0BDE87040FFF7BABFD4F8501E67
:10595000D4F84C0E0AF0DAFC007D194B00F1380245
:10596000D2B20F2A187002D9012002B070BD61783E
:10597000022905D0032919D001290FD0AD72FFDE0D
:10598000217801EB410104EBC111503141F29C053A
:1059900000F1390688721A706655BDE7217801EB6F
:1059A000410104EBC11101F59A71EFE7217801EB98
:1059B000410104EBC111C431E8E700BF08C9FF1F72
:1059C00088DEFF1FD8C3010010B5194B5A78022A90
:1059D00026D0032A1DD0012A08D0D3F8501ED3F8B0
:1059E0004C0E0AF093FC00239B72FFDE1C7804EB44
:1059F000440403EBC41404F59A74D3F8501ED3F88E
:105A00004C0E0AF083FC037DA372BDE81040FFF743
:105A100057BF1C7804EB440403EBC414C434ECE714
:105A20001C7804EB440403EBC4145034E5E700BFD6
:105A300008C9FF1F30B5304C637885B02022022B97
:105A4000ADF80C2034D0032B2BD0012B02D0002337
:105A50005B7AFFDE237803EB430304EBC31303F508
:105A60009A735B7A03B920238DF80C3000252D231F
:105A7000019303AA0123009520492148FDF702FC68
:105A80009DF80C306278202B08BF8DF80C50022A4C
:105A9000194B2AD0032A21D0012A10D000235B728F
:105AA000FFDE237803EB430304EBC313C433D8E7CF
:105AB000237803EB430304EBC3135033D1E71A7885
:105AC00002EB420203EBC21303F59A739DF80C201C
:105AD0005A7208B1FFF7F4FE05B030BD1A7802EB38
