:1000000000800020BD01000019370100D136010039
:10001000D1360100D1360100D1360100D1360100C0
:10002000D1360100D1360100D13601001937010067
:1000300019370100D1360100FD50010001510100C6
:10004000193701001937010019370100193701006C
:10005000193701001937010019370100193701005C
:10006000193701001937010019370100193701004C
:10007000193701001937010019370100193701003C
:10008000193701001937010019370100193701002C
:10009000193701001937010019370100193701001C
:1000A000391D0100451D01001937010019370100F4
:1000B00019370100193701001937010019370100FC
:1000C00019370100193701001937010019370100EC
:1000D00019370100193701001937010019370100DC
:1000E00019370100193701001937010019370100CC
:1000F00019370100A55D010019370100193701000A
:1001000019370100193701001937010019370100AB
:10011000193701001937010019370100193701009B
:10012000193701001937010019370100193701008B
:100130001937010019370100692F01001937010033
:10014000193701001937010019370100193701006B
:10015000ED52010001530100155301002953010024
:1001600019370100A93D01001937010019370100B5
:10017000193701001937010019370100193701003B
:10018000193701001937010019370100193701002B
:10019000193701001937010019370100193701001B
:1001A000193701001937010019370100193701000B
:1001B000193701001937010019370100524B4CF271
:1001C000205210B51A804DF628121A8000BF00BFC9
:1001D00013F0A6FA4D4B4FF010621A604C4A9A6029
:1001E0004C4ADA6003F5533303F2D2331A7811071D
:1001F00003D51A7842F008021A70474B47492A2261
:100200001A70474A474B8B4204D252F8040F43F806
:10021000040BF8E7444B454900228B4202D243F8D5
:10022000042BFAE74249434A002352F8230041F8DD
:10023000230001336F2BF8D13F4B404A802103F854
:10024000011B9342FBD13E4B394A1A603D4B8A2237
:100250001A70A3F5805324225A70A0221A709A793A
:100260009207FCD59A79D406FCD4374A937903F0E7
:100270000C03082B344BF9D103221A7140225A7116
:100280009A799006FCD5304A91792F4B4906FBD5D7
:100290002E4A2F4911600221516020221A709A794A
:1002A00002F00C020C2AFAD12A4B2B4A1A602B4B73
:1002B0002B4A1A6000225A60072243F8042C294A6C
:1002C000C3F80C2D62B613F025FC274B1B68DA0728
:1002D00005D5264813F082FB254B264A1A60264B8B
:1002E0001B785B0609D5224C224B22689A4204D126
:1002F0001E4813F073FB0023236017F099F913F0E5
:1003000015FA15F079F9FEE70E200540308004401B
:10031000823F04000100002B00E00740D8ABFF1F24
:1003200018EC01004088FF1FD8ABFF1FA0E2FF1FA1
:100330000082FF1F0000000000E400E05FE400E036
:1003400008ED00E0005006400040064044800440B4
:100350000000030104800440C010050014E000E028
:10036000FF7601000000202014D0034008297F60A0
:100370001CE00340A5C3945A00F00740FFFFFFFFB5
:10038000FFFFFFFFFFFFFFFFFFFFFFFFFFFFFFFF7D
:10039000FFFFFFFFFFFFFFFFFFFFFFFFFFFFFFFF6D
:1003A000FFFFFFFFFFFFFFFFFFFFFFFFFFFFFFFF5D
:1003B000FFFFFFFFFFFFFFFFFFFFFFFFFFFFFFFF4D
:1003C000FFFFFFFFFFFFFFFFFFFFFFFFFFFFFFFF3D
:1003D000FFFFFFFFFFFFFFFFFFFFFFFFFFFFFFFF2D
:1003E000FFFFFFFFFFFFFFFFFFFFFFFFFFFFFFFF1D
:1003F000FFFFFFFFFFFFFFFFFFFFFFFFFFFFFFFF0D
:10040000FFFFFFFFFFFFFFFFFFFFFFFFDEF9FFFF23
:1004100010B5054C237833B9044B13B10448AFF33E
:1004200000800123237010BDD8ABFF1F0000000027
:1004300014EC0100084B10B51BB108490848AFF394
:1004400000800848036803B910BD074B002BFBD0A0
:10045000BDE81040184700BF00000000DCABFF1FE4
:1004600014EC0100D8ABFF1F0000000008307047FB
:10047000483070474C307047704700BF064A074904
:1004800008B51378086883F001031946137010F05B
:10049000EFFF012008BD00BF70B4FF1F88D6FF1F0B
:1004A00070B541F25C13284C0546E05811F0ACFDE4
:1004B000B4F8F23DB4F8F02D181A83B29342A4F8C0
:1004C000F23D2CD014D86A69002AC4BF02F1FF3271
:1004D0006A61AA685279022A27D04FF0FF30FF22C2
:1004E000A4F8F03D012185F8632285F8621270BD01
:1004F000A8686E690FF0DCFA2B69C01A864202DA2E
:100500006B6901336B61AB685B79022B09D123788E
:100510000D4A062B12D9B2F8F23DA4F8F03D0020A6
:1005200070BDB4F8F23D0120D9E722780649002ACF
:10053000F3D0013A0A704FF0FF30D0E70133137067
:100540000120B2F8F23DCAE728C5FF1F024A41F276
:100550005C13D05811F09CBD28C5FF1F10B5044690
:1005600000F58A50143014F09FFE04F58A500C30C8
:1005700014F09AFE204610BD234B1B6803F1640261
:10058000904270B504DA643B984201DD022070BDF0
:100590001E4B1B6803F16402904204DA643B9842EC
:1005A00001DD032070BD1A4B1D680446B5F95C00DF
:1005B000C0F13C0016F0A0FD0646B5F95E0016F04D
:1005C0009BFD0146304616F09FFE0646686E16F00B
:1005D00093FD0146304616F0E3FD0646286E16F000
:1005E0008BFD0146304616F0D3FC16F09FFF00F15C
:1005F00064039C4205DA64388442D4BF00200120A1
:1006000070BD002070BD00BFA0ACFF1FA4ACFF1FD9
:10061000F8BFFF1FF8B5427A05460E4602B3012324
:100620000A701C46A97A89B1C7291CD93831C9B2C8
:10063000164FC1EBC1010F44F018394617F0D8FD31
:10064000384617F03DFE2044C4B22346EA7A1AB178
:100650000134E4B2F25423460022F2542046F8BD9D
:1006600013461446DEE70A4FC1EBC101F0183944C6
:10067000062217F093FEA87AC0EBC000384417F0AA
:100680001FFE2044C4B22346E0E700BF6DD3FF1F26
:1006900078C101002DE9F0411A4D41F2B8540646E7
:1006A000285911F04FFC38B3B3685B79022B15D091
:1006B00041F2B857DFF84C80E85911F047FC044686
:1006C00010B92046BDE8F08158F8070011F0E6FBAC
:1006D0000023C6F854322046BDE8F081D6F85432E3
:1006E000B3F57A7FE4D90124002385F8EE4F204644
:1006F000C6F85432BDE8F081285911F017FCC6F84D
:100700005402D1E728C5FF1F012070470120704720
:1007100038B50D4B01EB410105461446194417F05D
:100720003DFE00232B55094B28461C6817F0C8FDD9
:100730002368024629465B68204698472046BDE864
:10074000384014F011BE00BFC8C2010088D6FF1F98
:100750002DE9F04F2C4D2D4F2B6883B01A680026E1
:100760004FF01A080196CDF80080146C82462D22B5
:10077000184631467B23A047286801210FF006FF69
:100780002C6823492368A6822A224FF001094FF0E2
:10079000040B5B682282A4F812900822A4F80EB021
:1007A00020469847204614F0DFFD1A4B2C6853F87A
:1007B0002AA0A4F80EB032232382504617F080FD01
:1007C0002368024651465B6820469847204614F04D
:1007D000CBFD286803688DE8000325223146DC6CD8
:1007E0007B23A04713F026F93B6847F22F52C01A2B
:1007F000904205D9286810F035FD13F01BF93860D8
:1008000003B0BDE8F08F00BF88D6FF1F24C5FF1FCF
:100810001CC301006C89FF1F2DE9F04390F963327E
:100820005A4E0133044687B04FF0010130685AD068
:100830000FF0ACFE25696369A0681D440FF038F91C
:10084000854280F29D80276963691F4494F9638221
:10085000E3689845336807BF002101220121002287
:1008600002AD59829A822946424620460FF084F909
:10087000284617F025FD0D2807DC28440DF1160247
:10088000202300F8013B9042FBD16169E36936689F
:10089000A269C1EB0808093303EBC8034FF0000954
:1008A0008DF816902846F281338217F009FD3368DF
:1008B00002465B68294630469847304614F054FD9E
:1008C00094F8633201335BB2BB4284F8633202D0E6
:1008D00007B0BDE8F083FF2384F8629284F86332A6
:1008E00007B0BDE8F0830FF051FEA36832681F68BF
:1008F000002101205082918218460FF0D9F800B2F1
:1009000000EB400102AD07EBC1010E22284617F0B3
:1009100045FD284617F0D4FC0D2807DC28440DF1CE
:100920001602202300F8013B9042FBD13768B4F94E
:100930001C30A26900218DF816102846FA813B82EE
:1009400017F0BEFC3B68024629465B68384698476C
:10095000384614F009FDE2693068A169056808327B
:1009600012B201238DE80C0001F15403AD6C1BB2EF
:1009700009B2A847636984F8633207B0BDE8F08321
:10098000A0680FF095F8074660E700BF88D6FF1F04
:1009900070B5044608460D4617F092FC23680246DF
:1009A000294620465B68BDE8704018472DE9F04FA6
:1009B000002387B00122437000F55F6300250270B9
:1009C00000F1040B04930590E74BCBF804304FF093
:1009D0007E53CBF810304FF000038BF822304FF0ED
:1009E000030300274FF0010A4FF03C084FF028099D
:1009F000ABF818304FF61943ABF820308BF8147071
:100A00008BF815708BF816708BF81770CBF8247074
:100A1000CBF82870CBF82C70CBF83070CBF8347052
:100A2000CBF838708BF83C708BF80870ABF81C7002
:100A3000ABF81E708BF80CA08BF80DA08BF80E8015
:100A40008BF80F90382014F0DFFD4FF081460661DF
:100A50004FF48066394646603A46C44B80F814A08D
:100A60008561056280F82470044611F073FF9BF8DD
:100A70005E30CBF8404003F0E00367F346138BF899
:100A80005E30BB4BCBF848304FF07803ABF86230A8
:100A9000ABF86E3040F6FF73CBF86430B54BCBF853
:100AA00068304FF07F038BF870308BF871304FF463
:100AB0007A73ABF872304FF003024FF0FF33ABF8AC
:100AC0005C208BF87830AC4ACBF804204FF6FF73EB
:100AD0004FF07E526360A94BCBF8542023618BF812
:100AE00045708BF844A08BF84C708BF850A08BF8B5
:100AF00051A08BF852808BF853908BF858708BF87C
:100B000059708BF85A708BF85B708BF85F70ABF88C
:100B10006070ABF86C70382014F076FD46604FF0D2
:100B20008146524639460661954B80F814A085618E
:100B3000056280F82470044611F00CFF4FF00303A7
:100B4000ABF890304FF61943ABF898308D4BCBF89B
:100B50000430854BCBF87C304FF07E53CBF8883097
:100B600040F6FF7363604FF08043CBF874408BF81E
:100B70008D708BF88E708BF88F70CBF89C70CBF8E3
:100B8000A070CBF8A470CBF8A870CBF8AC70CBF801
:100B9000B0708BF8B470ABF89470ABF896708BF8BB
:100BA0009A702361ABF81E708BF879708BF884A073
:100BB0008BF885A08BF886808BF887908BF88C70EB
:100BC0008BF88070382014F01FFD4FF4806646606B
:100BD0004FF08146394606613A46644B80F814A0CE
:100BE0008561056280F82470044611F0B3FE604A06
:100BF000CBF8C0204FF00302ABF8D4204FF07802BE
:100C0000ABF8DA2040F6FF72CBF8DC20594A9BF8AB
:100C1000D630CBF8E0204FF07802ABF8E6204FF06A
:100C20007F028BF8E8208BF8E92003F0E0034FF413
:100C30007A72ABF8EA2067F346134FF0FF328BF875
:100C4000F0208BF8D6304C4ACBF87C204FF6FF735F
:100C50004FF07E526360494BCBF8B840CBF8CC20C4
:100C60008BF8BD708BF8BCA08BF8C4708BF8C8A053
:100C70008BF8C9A08BF8CA808BF8CB908BF8D0701A
:100C80008BF8D1708BF8D2708BF8D3708BF8D7704B
:100C9000ABF8D870ABF8E4702361382014F0B4FCE2
:100CA0004FF4806646604FF08146524639460661F1
:100CB000334B80F814A08561056280F824700446E7
:100CC00011F048FE4FF61943ABF810314FF0030313
:100CD000ABF808312B4BCBF87C30234BCBF8F430FE
:100CE0004FF07E53CBF8003140F6FF7363604FF056
:100CF0008043CBF8EC40ABF896708BF8F1708BF832
:100D0000FCA08BF8FDA08BF8FE808BF8FF908BF891
:100D100004718BF805718BF806718BF80771CBF8AD
:100D20001471CBF81871CBF81C71CBF82071CBF88B
:100D30002471CBF828718BF82C718BF8F870ABF814
:100D40000C71ABF80E718BF812712361382014F01E
:100D50005BFC4FF4806646604FF0814604463A469D
:100D60003946024B06610FE04CBB010017B7D13882
:100D70009F86010001F0FFFF64BB0100000060429C
:100D80000AD7233C70BB01008561056280F814A07E
:100D900080F8247011F0DEFD4FF6FF706060EF48C0
:100DA0002061EF48CBF838014FF003009BF86C212D
:100DB000ABF848014FF0FF308BF84C01E948CBF815
:100DC000F4004FF0FF3367F3030208214FF07E5029
:100DD000CBF830418BF83F91CBF840018BF83E8146
:100DE0008BF871818BF835718BF834A18BF83CA1AD
:100DF0008BF83DA18BF844718BF845718BF84671E7
:100E00008BF847718BF84A718BF85071CBF854719D
:100E1000CBF860718BF864718BF868718BF86E7128
:100E20008BF870718BF872A1CBF873718BF86C2111
:100E30008BF86F11CBF877718BF80030049B8BF82F
:100E40007B718BF87C71CBF88071CBF884718BF857
:100E50008A718BF889718BF888710BF5C67B9B457D
:100E60007FF4B2ADDDF814904FF0000489F8104E15
:100E700040F6FF74C9F8144EBB4CC9F8184E40F642
:100E8000FF7499F8F42DC9F8204EC9F8244EB64CD9
:100E9000C9F8284E4FF0FF3340F6FF744FF00000C2
:100EA000A9F8F03D67F3030299F83D3EC9F82C4ECE
:100EB000AD4C89F8F71D89F8F42D47F23051024600
:100EC000C9F8304E4FF47A7443EA0A0389F8F60DF4
:100ED00089F8F80DA9F8F21D89F8030EA349A44872
:100EE00089F8042EA9F8344E11224FF0000489F835
:100EF0003D3E89F83C4EC9F8380EC9F8401E89F8C5
:100F0000442E3946692289F8F98D89F8FAADC9F875
:100F1000FB7DC9F8FF7DC9F8087EC9F80C7EC9F8C9
:100F20001C7E09F6456016F0E9FE09F56B600EF0CF
:100F3000C1FD904B89F8D04E89F8DE4FC9F8B03E1C
:100F4000FB223946C9F8D47FA9F8DC7FC9F8F07FC5
:100F500009F6F47016F0D2FE41F2FC0641F2F003FD
:100F600041F2F40E41F2F80049F8037009F5885493
:100F700049F80E7041F2041549F8007041F2081367
:100F800049F8067041F2091E41F20C1041F21016A8
:100F90004FF0000C41F21112276089F8EECF89F86A
:100FA000EFCFC9F8C47EC9F8CC7E89F8EDAF49F817
:100FB000057009F803C041F2121509F80EC049F88E
:100FC000007009F806C04FF0FF3C09F802C041F27A
:100FD00013134FF0000C41F2141E09F805C0072648
:100FE00009F589504FF0FF3C09F803C0362249F853
:100FF0000E700730C9F8C06E5F4DC9F8C82E234681
:101000004FF000067F21024684F838A0E76384F899
:1010100044602564173303F8011F834202F8011F5F
:10102000F9D109F58A5241F24C110020134641F2E0
:10103000541549F8010009F58B54802141F26417D9
:10104000117441F2681649F805001976962384F860
:101050002400C4F8140484F81804C4F81C04C4F868
:10106000200484F8560441F26C1249F8073040F22B
:10107000672349F8063041F270114FF4876649F84A
:10108000026041F2741540F2096649F8016041F2CC
:10109000781341F27C1240F2DA7649F8056009F5DE
:1010A0008C5140F6AB1540F67C3649F8035049F8B0
:1010B000026040F64D5509F5AC5309F5AD520D608F
:1010C0000333014684F85704153203F8011F934295
:1010D0004FF00004F9D1942014F096FA054611F06F
:1010E00089F841F24813242049F8035014F08CFA8F
:1010F0000423072206218DE818004FF0FF33054630
:1011000010F02EFF41F25C13102049F8035014F048
:101110007BFA044610F090FE41F2B853174849F8A4
:10112000034010F0CDFA0E21144810F031FB64207A
:1011300014F06AFA124B0393092108220A238DE85E
:101140000E000E4B4022802104460FF01BFC09F5D7
:101150008B5348461C6007B0BDE8F08F000060422A
:101160009F86010058BB010001F0FFFF52491D3A64
:101170009A99993FC4CF010020DBFF1F449FFF1FB6
:1011800000127A0030B583B00546069C002CCABF19
:10119000E0B2007D28752B614BB942B2002A02DD16
:1011A000194612F02DFC00232B7003B030BD084B04
:1011B000A9601B68019343B2019CEA600121002BE6
:1011C0006C602970F1DD12F01BFC03B030BD00BF74
:1011D0001CDFFF1F70B5064E41F2B855705910F074
:1011E000B5FE044610B1705910F058FE204670BD8F
:1011F00028C5FF1F38B5144C41F25C130546E05872
:1012000010F002FFB4F8F23DB4F8F02D181A83B2D2
:101210009342A4F8F23D15D00C4A11680AD800296F
:10122000CCBF01F1FF31002111604FF0FF30A4F875
:10123000F03D38BDA942B8BF013111600120A4F8CA
:10124000F03D38BD002038BD28C5FF1F4CACFF1F46
:1012500010B5074B186882B0036800224021009146
:1012600001921C6C11468023A04702B010BD00BF44
:1012700088D6FF1F2DE9F04F904EDFF8748206F5F7
:101280008B598FB0D9F800000024402203688DE804
:10129000140021461D6C22468023A847D9F800007F
:1012A00001210FF073F9D9F80000854903688482A1
:1012B00001255B68C4810822048245829847317801
:1012C000D9F80000294414F0B5F8D9F800007D4998
:1012D000036807225B689847D8F80000002800F0F0
:1012E000D58015F009FF4FF07C5115F059FF15F02E
:1012F000D5FAD9F80040009502460B46204614F076
:10130000A3F8D9F80040704923682A465B68204654
:101310009847204614F028F8002306936B4B079358
:101320000E230593059B079E043B1BB20493069B6B
:101330001D4603EB4303039300240127039BD8F8C6
:101340000020D9F800A0EB189A4200F098804FF0E6
:101350000003AAF81270AAF814300FFA84FBBDF843
:101360001030AAF8103009A8AAF80EB0002D00F02D
:10137000998016F0A5FFDAF8003002465B6809A9EB
:1013800050469847504613F0EFFF3378002B6AD150
:101390001E34A4B2782C06F1010605F10105CDD169
:1013A000059B069A09339BB20593079B01320433D0
:1013B000052A06920793B5D1D9F80000444903687D
:1013C000444D5E68012400233722028244820422B5
:1013D0008382C381B047404BD9F80000196814F0EC
:1013E00029F8D9F800003D49036822465B68984710
:1013F0002968D9F8000014F01DF8D9F80000374921
:10140000036822465B689847354B28681D686B68FF
:10141000C01A15F071FE0646A86815F06DFE01466B
:10142000304615F071FF2F4915F0BAFE15F036FA67
:10143000D9F80050022602460B460096284614F0C2
:1014400003F8D9F8005020492B6822465B682846EB
:101450009847284613F088FFD9F800000FF002FFE4
:101460000FB0BDE8F08FD9F80000BDF91420036873
:101470000097D3F83CA059461823D04788E74FF08F
:101480000003AAF81230AAF8147066E7D9F80040F1
:101490001549236820465B6803229847204613F0CD
:1014A00063FF39E7DAF8003010495B6804225046E0
:1014B0009847504613F058FF6AE700BF28C5FF1F42
:1014C00028C3010034C301003CC30100C4AEFF1FA8
:1014D0004CC301007895FF1F4092FF1F54C30100C9
:1014E000CCACFF1F0000204140C3010044C30100F9
:1014F0004CACFF1F2DE9F04F924F934B934A1B6862
:101500001268D3F804B092F85A609B6807F58B54C0
:1015100085B0206803930025402203688DE82400ED
:1015200029462A46D3F840808023C04720680121FD
:101530000FF02CF8206886490368858201224282D8
:10154000C58105825B680322984739780729C6F36D
:10155000411640F2CD807B782068022B03680CBFD7
:101560007C497D495B68052298477C4F20683B6831
:101570000122002B40F0B8804382828203687849C0
:101580005B68082298473B682568012B00F0BF8004
:10159000012200236A82AB822B6872495B68DFF804
:1015A000CCA1032228469847284613F0DDFE256883
:1015B0006D492B684FF000084FF0010911225B685C
:1015C0002A82A5F812901022A5F81480A5F80E80A2
:1015D00028469847284613F0C7FE3B68DAF8000013
:1015E000624D022B4FF01B030382036807BFA0F874
:1015F0001280A0F81490A0F81290A0F81480002295
:10160000022E0CBF5A495B49C2815B681022984781
:101610003B682068032B0CBF0123002383824FF01B
:1016200025030CBF00220122038203684282022E9E
:101630004FF000020CBF50495049C2815B68102234
:10164000984720684E4903685F6801234382372327
:10165000038200238382C3810422B847494B1B685D
:10166000002B0DDD484F2D6803EB83031F443846E4
:1016700016F026FE2B68024639465B6828469847D6
:10168000206842490368394D5B6803229847404B04
:101690001868022ECBEB00003DD015F02DFD06465C
:1016A000039815F029FD0146304615F02DFE394905
:1016B00015F076FD15F0F2F82D68022602460B466D
:1016C0000096284613F0C0FE256833492B68012296
:1016D0005B6828469847284613F046FE206805B008
:1016E000BDE8F04F0FF0BEBD00234282838245E784
:1016F0000131206813F09EFE7B782068022B03687E
:101700000CBF264926495B68052298472DE7002231
:10171000AB826A8240E715F0EFFC0746039815F0AC
:10172000EBFC0146384615F0EFFD1E4915F038FD7B
:1017300015F0B4F82D68009602460B46284613F0C3
:1017400083FEC1E728C5FF1FCCACFF1FF8BFFF1FFA
:1017500058C301005CC3010064C301004CACFF1F0F
:101760007CC3010040C3010088C3010088D6FF1F6D
:101770009CC30100B0C30100C4C30100D8C3010071
:101780004CC301004092FF1FD0BC0100ECC301001C
:101790007895FF1F000020413CC301006CC301008D
:1017A00074C301000000A0402DE9F04FDFF82C9237
:1017B000814DD9F800008BB00024036801944022C9
:1017C00000921E6C224680232146B047D9F80000C3
:1017D00001210EF0DBFED9F8000078490368C481CE
:1017E00001265B680482848246820A2298472B681D
:1017F000D9F80000002B40F0D7804382868203682E
:101800006F495B68082298472B68D9F80040012B84
:1018100000F0CD80012200236282A3822368694AFE
:1018200069495B680292204603229847204613F0DC
:101830009BFDD9F8004065492368654D5B684FF012
:1018400000080A2201262282A4F80E801422A4F89D
:101850001280A68220469847204613F085FDD9F8CD
:1018600000405C492368A4F80E8025225B68228230
:10187000204614229847204613F076FDD9F800A0A0
:10188000554B0393AAF81260AAF81480029B4FEA02
:10189000A80606EB460653F804BF029306EBC606FD
:1018A00008F003074FF0000CB6B2C7EB071706F1BC
:1018B00013037F00E345AAF81030AAF80E708DF8E4
:1018C00018C062DB05AB06AC9C44A64601209BFB1E
:1018D000F0F385FB0321DA17C2EBA10202EB8202CF
:1018E000A3EB420330330EF8013D00EB8000E645E8
:1018F0004FEA4000EBD105A816F0E2FCDAF8003020
:1019000002465B68504605A99847039BD9F800A09A
:1019100053F8041F039306F11C030026B142AAF8F2
:101920000E70AAF810308DF8186028DB05AB1E4445
:10193000012091FBF0F385FB0327DA17C2EBA70226
:1019400002EB8202A3EB4203303304F8013D00EBCB
:101950008000A6424FEA4000EBD105A816F0B0FC8B
:10196000DAF80030024608F101085B68504605A924
:101970009847B8F1080F10D0D9F800A086E72D23BA
:1019800049428DF814300126D0E72D23CBF1000B0E
:101990008DF814304FF0010C94E7D9F800000FF0E7
:1019A00061FC0BB0BDE8F08F4682848227E70022FD
:1019B000A382628232E700BF4CACFF1FF0C301007C
:1019C000FCC30100A4ACFF1F40C3010008C4010018
:1019D0006766666620C401004CB4FF1F88D6FF1FEF
:1019E0007C4B1A68F0B40346146EB2F95C00072908
:1019F0000CD8DFE801F0042D32517292B20D764A14
:101A0000106891889279186099809A71F0BC70473B
:101A1000526E0026A4185E7100F1BD806F4F1E4407
:101A20000120053394FBF0F287FB0215D117C1EBBF
:101A3000A50101EB8101A2EB4102303203F8012D37
:101A400000EB8000B3424FEA4000EBD1F0BC70479E
:101A5000634A10681860F0BC70470026041E5E716F
:101A6000C0F2B2805D4F1E440120053394FBF0F2BA
:101A700087FB0215D117C1EBA50101EB8101A2EB98
:101A80004102303203F8012D00EB80009E424FEA04
:101A90004000EBD1F0BC7047B2F95E60002536180B
:101AA0005D7100F18C804D4F1D440120053396FB84
:101AB000F0F287FB0214D117C1EBA40101EB810105
:101AC000A2EB4102303203F8012D00EB8000AB4263
:101AD0004FEA4000EBD1F0BC7047B2F968600025D6
:101AE000AE425D7166DB3D4F1D440120053396FB20
:101AF000F0F287FB0214D117C1EBA40101EB8101C5
:101B0000A2EB4102303203F8012D00EB8000AB4222
:101B10004FEA4000EBD1F0BC7047B2F96A60002593
:101B2000AE425D7141DB2D4F1D440120053396FB14
:101B3000F0F287FB0214D117C1EBA40101EB810184
:101B4000A2EB4102303203F8012D00EB8000AB42E2
:101B50004FEA4000EBD1F0BC70470026B4425E7102
:101B60001EDB1E4F1E440120053394FBF0F287FB61
:101B70000215D117C1EBA50101EB8101A2EB4102D6
:101B8000303203F8012D00EB8000B3424FEA4000F1
:101B9000EBD1F0BC70472D2264421A7001263DE75C
:101BA0002D2264421A700126DBE72D2276421A703C
:101BB0000125B8E72D2276421A70012593E72D22E0
:101BC00076421A7001256EE72D2264421A700126B2
:101BD00048E700BFF8BFFF1F38C4010067666666AC
:101BE00040C301002DE9F04F614DDFF8ACA105F5D0
:101BF0008B578BB038680024402203688DE81400AE
:101C0000214622461E6C8023B047386801210EF021
:101C1000BDFC386857490368848201225B684282B0
:101C2000C48103220482984729783868013113F06F
:101C300001FC6B783868022B036808BF4E495B686B
:101C400018BF4E4905229847DAF80030386801225B
:101C5000002B7AD143828282036849495B6808225B
:101C60009847DAF800303C68012B72D0012200233B
:101C70006282A382236843495B6803222046984717
:101C8000204613F071FB3C683F4923680026102270
:101C900001205B6860822282A682E6812046984706
:101CA000204613F061FB1C234FF0020B0293B04659
:101CB0004FEA4809BDF90830039309F102091825D4
:101CC00000243B680121002259829A82B8F1000F5A
:101CD00043D0DAF8002009EB040191424FF00100F3
:101CE0002FD0002258829A82BDF80C20DA811D8202
:101CF0000BEB040105A8FFF773FE3E6805A816F07C
:101D0000DFFA336802465B6805A93046984701341C
:101D1000304613F029FB0A35022CADB2D1D1029B1B
:101D200008F101082A339BB2B8F1020F02930BF1BC
:101D3000020BBDD1154B18680FF094FA0BB0BDE83B
:101D4000F08F002159829882CEE70023428283825D
:101D500082E70022A38262828CE718460C4924B1F4
:101D6000FEF716FE094B1B68B3E718460949F7E76B
:101D700028C5FF1F58C301006CC3010074C30100D4
:101D80007CC3010040C3010040C4010088D6FF1F8E
:101D900054C401005CC401004CACFF1F30B40D4BB7
:101DA0005B78012B0C4B0AD91C68256D056094F9F2
:101DB000540008701B685B6A136030BC70471B6876
:101DC000DC6C046093F9500008705B6A136030BCEF
:101DD000704700BF28C5FF1FF8BFFF1F2DE9F04760
:101DE00090B008AA0DF1130107A8FFF7D7FF0898D4
:101DF000B24E15F07DF9B24915F086FA0146B148A8
:101E000015F082FAB04915F07FFA06F58B540746B3
:101E1000206800250368019540220092D3F8408095
:101E20002A4680232946C047206801210EF0AEFBD8
:101E30002068A6490368858201225B684282C581C9
:101E400003220582984731782068013113F0F2FAB5
:101E50007378022B00F05981032B00F04F81012B86
:101E600000F0A3809A4E206833680122002B40F0D6
:101E7000988043828282036896495B68062298476D
:101E800033682568012B00F01581012200236A8246
:101E9000AB822B6890495B68DFF850A20422284689
:101EA0009847284613F060FA25688C492B684FF054
:101EB00000080C224FF001095B682A82A5F81290F5
:101EC0001222A5F81480A5F80E80284698472846C7
:101ED00013F04AFA20681423A0F80E80038202212E
:101EE0000EF054FB3268022A66D09DF91330256843
:101EF0000533D9B24FF0010E00200A29A5F812E0EF
:101F0000A88269D9022A77D00DF124082B68744978
:101F10005B684FF001094FF0000A0222A5F8129009
:101F2000A5F814A028469847384614F0B7FC0B468D
:101F300002466C49404616F035F933682568032B94
:101F400000F08980012200236A82AB82404616F0AD
:101F5000B7F92B6802465B684146284698472846F1
:101F600013F002FA3368032B7FD0012120685E4D05
:101F70005E4E0EF00BFB2368002201219A825982EB
:101F800011F058FD2B6847F22F52C01A904205D924
:101F900030680FF067F911F04DFD286010B0BDE812
:101FA000F08700234282838265E7206850490368F6
:101FB00006225B68984755E74E4B1B78002B94D060
:101FC0009DF91330DAF800500533DAB20A2AA5F881
:101FD0001280A5F8149097D8474A52F823804046BB
:101FE00016F06EF92B680246414628465B68984712
:101FF00032682568022A87D13E4B1A78002A83D19D
:102000009DF913303C4905330DF11A0C51F823109A
:10201000CDF808C00DF1180E0DF116030DF12408CE
:1020200028468DE80840CDF80C8014230EF0EEFB16
:102030002068BDF92410056800914FF0010ECDF81D
:1020400004E0ED6CBDF91A30BDF91820BDF9161089
:10205000A84725685AE7274B1B78002B3FF472AF3F
:10206000A5F812A0A5F8149070E7224B1B78002B5E
:102070007FF47BAF0DF11A0606AD0DF1160205AB2C
:102080002068039641460295019200933C22142356
:102090000EF0BCFB2068BDF91A60056800960126A9
:1020A0000196BDF91830BDF91620BDF91410ED6C7C
:1020B000A8475AE70022AB826A82EAE628C5FF1FDA
:1020C00000007A4400606A470000C04158C3010024
:1020D0004CACFF1F38C4010044C301007CC40100A4
:1020E00078C4010090C4010014ACFF1F88D6FF1F04
:1020F00064C401002C97FF1F7CBC010020680649C6
:10210000036806225B689847ACE6206803490368C9
:1021100006225B689847A5E674C401006CC4010000
:1021200000B5807B00F01F031E2B15D8DFE803F0FD
:102130001D1D51515151373F5151515151292316B4
:102140001D1D51515151511D1D1D1631454B100082
:1021500000200B23088013805DF804FB002043F669
:10216000FF73088013805DF804FBC0F34110012861
:1021700033D0022839D000207F23088013805DF8F7
:1021800004FB4FF4004047F6FF73088013805DF8AE
:1021900004FB00200723088013805DF804FB4FF444
:1021A000604041F6FF73088013805DF804FB002057
:1021B0006423088013805DF804FB0020332308802B
:1021C00013805DF804FB08201323088013805DF85A
:1021D00004FBC0F341100128CDD14FF680704FF4BD
:1021E0008073088013805DF804FB00203C23088086
:1021F00013805DF804FB00BF827B01F01F0161F3D7
:1022000004021F29827314D010B50122194C02FA5E
:1022100001F10C4034B9184A0A405AB9174A0A4029
:10222000D2B910BD00217F22018281834282C28304
:1022300010BD7047827BC2F34112022A06D13C21B5
:102240007822048284834182C28310BD7822048272
:1022500084834282C28310BD044600F11E0200F155
:102260001C01FFF75DFFB4F91C20E38B22829B1A4F
:102270006382D6E73C1F7C0003008303C0E0007C40
:102280002DE9F041554D564C2B7856496278002087
:10229000012B08607FD0012A40F28680022A7AD082
:1022A000032A52D0504E306890F85A20DFF86881E7
:1022B0004E4FDFF868E1DFF868C112F0600118BF27
:1022C000012188F8001000F15C013960016ECEF840
:1022D0000010DFF850E1416ECCF800104449B0F82E
:1022E00068C0AEF800C0DFF840E1B0F86AC0A1F8FD
:1022F00000C04049B0F85CC0AEF800C0B0F85EE085
:10230000A1F800E003F0FD01012908D13A4BC2F326
:1023100004024C3000211A70FFF76EFF2B7837490A
:10232000374A384D38484FF0010EC1F800E04FF001
:10233000FF31116073454FF00002296002700DD02B
:10234000324B01201870BDE8F0812278264E4FF400
:10235000C67000FB024080303060A5E73568386801
:1023600095F85A602A4B2B4962F3461685F85A6055
:10237000D4F8145ED4F8184E8460456003F114005C
:1023800003F8012F834241F8042FF9D11F4B01209C
:102390001870BDE8F0812278134E4FF4C67000FB30
:1023A0000240083030607FE7052B01D0BDE8F081A6
:1023B000012A7FF477AF114923780A604FF4C6727F
:1023C00002FB0343084E0E4D0E4C0F494FF0FF32F7
:1023D000F83333602A6022600870B1E721ACFF1F38
:1023E00028C5FF1FF4ABFF1FF8BFFF1FCCACFF1FBA
:1023F0005C90FF1FD8ACFF1F3CACFF1F4CACFF1F15
:102400007895FF1F4092FF1FD0ACFF1F10ACFF1F3D
:10241000C3AEFF1FE8B3FF1F84B4FF1F14DBFF1F11
:1024200018C5FF1F08DEFF1F68ACFF1F2DE9F04332
:10243000DFF8C8802B4F98F80030052287B03A703B
:102440007BB1294E3568ADB1A84720B9002420469C
:1024500007B0BDE8F08300242046346007B0BDE833
:10246000F083FFF70DFF0028EBD10124204607B0D1
:10247000BDE8F0831D4B18780238FEF7BBFE2846F6
:10248000FFF7ACFCFEF7A6FE04460028DED0184B92
:102490001B68012B06DD023B164A52F823303360DD
:1024A0002C46D4E7144E06F58B5340221868036877
:1024B0008DE824002946D3F840902A468023C84757
:1024C00005AA0DF10F0104A888F800503D70FFF730
:1024D00065FC9DF80F20049B86F83C2EC6F8383E1C
:1024E000B5E700BF21ACFF1FF4ABFF1F8C92FF1FAD
:1024F0004CACFF1F7889FF1F28C5FF1F10ACFF1FC2
:102500002DE9F04FA44BA54D1B78032283B02A7010
:10251000002B00F0A680A24BA24E1F6897F85A40ED
:10252000386EC4F34114022C00F0B88014F0E4FDBE
:102530008046B7F95E00B7F95CB014F0DDFD824665
:10254000786E14F0D9FD8146CBF1180014F0D4FD5B
:10255000514614F0D9FE494614F022FE414614F0CB
:1025600017FD14F0E3FF3060CBF1600014F0C4FD00
:10257000514614F0C9FE494614F012FE414614F0CB
:1025800007FD14F0D3FFDFF85892C9F80000864920
:10259000864ADFF850A2B7F91A300878398BCAF8A2
:1025A00000101360FEF726FEFEF7A4FFFEF712FEF2
:1025B000804600283CD0DFF83082D8F8000001289F
:1025C00040F3C680022800F0BD80032800F0B480EC
:1025D0003568D9F80000022CA0EB050000F09080CF
:1025E00014F08AFD0446284614F086FD214605466F
:1025F000204614F0CDFC6E4914F086FE01462846B4
:1026000014F0C4FC14F092FF6A490546204614F009
:10261000C7FD674914F078FE14F088FF664B1B680D
:102620004FF000085D609860404603B0BDE8F08F51
:102630002B78032BF8D1BAF80000FDF79DFF5F4A15
:1026400041F20913D35C002BEED00028ECD05C4B98
:102650001A788242E8D0DFF890811870C8F800003C
:10266000ADE7FFF70DFE044600287FF454AF534D4D
:1026700054494FF00108FF2205F6D16085F8D08E4D
:1026800015F08CFE4FF4FA621123A5F8D84FA5F887
:10269000DC4FC5F8D42FA5F8DA3FC5E714F02CFDC0
:1026A0008346B7F95E00B7F95CA014F025FD8146BA
:1026B000786E14F021FD8046CAF10C0014F01CFD68
:1026C000494614F021FE414614F06AFD594614F0C3
:1026D0005FFC14F02BFF3060CAF1300014F00CFDE9
:1026E000494614F011FE414614F05AFD594614F0C3
:1026F0004FFC14F01BFFDFF8E890C9F8000046E734
:1027000014F0FAFC0446284614F0F6FC2E4905465F
:10271000204614F0F9FD0146284614F037FC14F069
:1027200005FF2A490546204614F03AFD264914F0D3
:10273000EBFD14F0FBFE71E7DAF800003568C9F82C
:10274000000048E7DAF800503560D9F8000042E7A9
:102750001F4B1868002203680192402100911C6CF5
:1027600011468023A0470E4B18681A4B4C3019783D
:10277000FFF742FDD8F800303BB90F4B1649174A16
:102780001B680968126859609A60034A0023137035
:102790002B704FF0010847E710ACFF1F21ACFF1F63
:1027A000F8BFFF1FA0ACFF1F409FFF1F4092FF1FFD
:1027B0000000C04000002041CCACFF1F28C5FF1F17
:1027C000D0ACFF1F98C40100000040400000A040B2
:1027D00088D6FF1F3CACFF1F14DBFF1F18C5FF1F6F
:1027E000A4ACFF1F7895FF1F4CACFF1F10B582B043
:1027F00002AB42F2257243F8042D04460170042214
:102800001846002110F0ECFE20460122022110F0B3
:10281000E7FE032002B010BD70B50646044616F868
:10282000041BFFF7E3FF042205460146304610F083
:10283000D7FE291D04F10800042210F0D1FE05F195
:10284000080104F10C00042210F0CAFE05F10C018D
:1028500004F11000042210F0C3FE05F1100104F190
:102860001400042210F0BCFE05F1140104F118005C
:10287000042210F0B5FE05F1180104F11C00042239
:1028800010F0AEFE05F11C0104F12000042210F04E
:10289000A7FE05F1200104F13500692210F0A0FE29
:1028A00005F1890104F12800042210F099FE05F1D8
:1028B0008D0104F12C00012210F092FE05F18E0131
:1028C00004F13000042210F08BFE04F1340005F115
:1028D0009201012210F084FE962070BD70B506466C
:1028E00082B0002010F018FE8DF80600012010F0D4
:1028F00013FE8DF80700BDF8062042F225739A42B8
:1029000003D00023184602B070BD022010F004FE70
:1029100003288ABFFF2330703370F51C0324204640
:1029200010F0FAFD0134072C05F8010FF7D1F51D61
:10293000204610F0F1FD01340B2C05F8010FF7D102
:1029400006F10B05204610F0E7FD01340F2C05F8C9
:10295000010FF7D106F10F05204610F0DDFD01341F
:10296000132C05F8010FF7D106F11305204610F0DE
:10297000D3FD0134172C05F8010FF7D106F1170527
:10298000204610F0C9FD01341B2C05F8010FF7D1CA
:1029900006F11B05204610F0BFFD01341F2C05F881
:1029A000010FF7D106F11F05204610F0B5FD0134E7
:1029B000232C05F8010FF7D106F13405204610F05D
:1029C000ABFD01348C2C05F8010FF7D106F127057A
:1029D000204610F0A1FD0134902C05F8010FF7D12D
:1029E000204610F099FD06F12F0586F82C00912461
:1029F000204610F091FD0134952C05F8010FF7D118
:102A0000204610F089FD962386F83400184602B05F
:102A100070BD00BF2DE9F843099C089E0F46904603
:102A200099461CB1086814F081FDA0471D4D41F284
:102A30005C13E8580FF0E8FAB5F8F24DB5F8F03D40
:102A4000201A84B29C42A5F8F24D24D094BF06F11E
:102A500000403046396814F09BFA4146064614F0AF
:102A60003DFD58B94946304614F056FD68B1C7F8E7
:102A700000900020A5F8F04DBDE8F883C7F800806D
:102A80000020A5F8F04DBDE8F8833E600020A5F8D1
:102A9000F04DBDE8F88341F2B853E858BDE8F8437B
:102AA0000FF054BA28C5FF1F2DE9F043284D6B786D
:102AB000012B85B0274B44D91B68586A03F1500994
:102AC00003F1240414F014FB234914F01DFC014607
:102AD000224814F019FC224914F016FC13F042FAB3
:102AE00004A9204A41F8040D4FF07E53804601921C
:102AF000009300221C4B1D48FFF78CFF1C4B039FCB
:102B0000187006461449384614F0FEFB0146134877
:102B100014F0FAFB124914F0F7FB14F02DFD4146B6
:102B20002060384614F0F0FBD9F8001014F038FBA0
:102B30000346C9F800003046C5F8383E05B0BDE888
:102B4000F0831C68606A04F14C092434BAE700BFC2
:102B500028C5FF1FF8BFFF1F00007A4400606A47C6
:102B60000000C041DD1D00000000FA43D8D3FF1F64
:102B70002C97FF1F70B51F4D6B78022B84B032D09D
:102B8000032B29D0012B02D000231B7AFFDE2B78E8
:102B90004FF4C67404FB035404F5A07494F90800C0
:102BA00014F0AAFA04A9144A41F8040D4FF07E5318
:102BB00001920093114A124B1248FFF72BFF124B60
:102BC00006461E70039814F0B1FC40B2207285F8DE
:102BD0003C0E304604B070BD2B784FF4C67404FB35
:102BE0000354CC34DAE72B784FF4C67404FB035457
:102BF0005434D3E728C5FF1FDD1D00000000A0C02E
:102C00000000A040D8D3FF1F2C97FF1F2DE9F843E9
:102C1000099CDDF820900E4690461F460CB10868CE
:102C2000A0471C4D41F25C13E8580FF0EDF9B5F8E0
:102C3000F24DB5F8F03D201A84B29C42A5F8F24D51
:102C400021D0E01A14F058FA494614F0A9FA814646
:102C5000306814F051FA0146484614F099F914F01E
:102C600065FC404508DB8742A8BF07463760002067
:102C7000A5F8F04DBDE8F883C6F800800020A5F85F
:102C8000F04DBDE8F88341F2B853E858BDE8F84389
:102C90000FF05CB928C5FF1F2DE9F047234CBDF8A4
:102CA0002090099D41F25C170646E05990460F4678
:102CB0009A460FF0A9F9B4F8F23DB4F8F01D1844A3
:102CC00080B2A4F8F20D884296F861221BD2AB5C68
:102CD000013BDBB22F2B98BF3923AB5428460A2285
:102CE000002115F02BFC4045386013DAB4F8F20DE2
:102CF000C7F8008041F2B853A4F8F00DE058BDE8E1
:102D0000F0470FF023B9F5D95AB909F1FF3986F820
:102D10006192EFE75045C8BFC7F800A0B4F8F20DC4
:102D2000E8E7013A86F86122E4E700BF28C5FF1F03
:102D3000F8B5204C41F25C130546E0580E461746A4
:102D40000FF062F9B4F8F23DB4F8F01D184480B207
:102D5000A4F8F20D95F861228842B35C1ED20133CB
:102D6000DBB213F0800F18BF2023B354B4F8F20D78
:102D7000A4F8F00D41F2B853E0580FF0E7F860B155
:102D800095F86132013FBB4207D013B93278202A4F
:102D90000ED0013385F861320020F8BDE8D9013B3F
:102DA000DBB21F2B98BF7F23B354B4F8F20DDFE7DB
:102DB0003370F8BD28C5FF1FF0B50F4883B0056814
:102DC000BDF8206008461F46144615F079FA04EB5A
:102DD0004404A4002A68033400EB400312210020BD
:102DE0000190009104EB43031BB2146C39B22846E6
:102DF00032B2A04703B0F0BD88D6FF1F2DE9F04FD7
:102E00002C4F85B00E469A463868BDF838800121AF
:102E100014460DF0BBFB0AF102003D6883B21A466E
:102E20004FF0010908F105034FF0000BEA812B82F6
:102E3000A5F81290A5F814B03046039215F040FAA8
:102E40002B6802465B68314628469847284612F0B0
:102E50008BFA022138680DF099FB3D683046A5F8E1
:102E600014B0A5F8129015F02BFA039A00EB40006D
:102E700002EB400008EB0903E8812B82304615F095
:102E80001FFA04EB4404A4002E68CDF8049000EB74
:102E9000400003341222009204EB40031BB20FFAED
:102EA00088F20FFA8AF12846F46CA04705B0BDE815
:102EB000F08F00BF88D6FF1F2DE9F04F87B09846EE
:102EC000BDF8404004942546BDF84440009489462E
:102ED0000293AA462B46164605464246294F0594BC
:102EE0000391FFF769FF009453464246494628463E
:102EF000FFF784FFD7F800B000245B46A146A34645
:102F00004FF001081C4617E095F8613253452368DD
:102F100004BFA4F81290A4F814801B6816F80A10D5
:102F2000984795F861323C68534504BFA4F8128075
:102F3000A4F814900BF1010B304615F0C1F91FFAFB
:102F40008BFA50452046DFD822680F49A3465468C3
:102F50000022A047584612F007FA029A3146284646
:102F6000FFF7E6FE58B1059B00932846049B029AA2
:102F70000399FFF721FFFF2385F86132012007B095
:102F8000BDE8F08F88D6FF1F54C60100F0B5044697
:102F900090F8610287B0FF28BDF83050BDF834606A
:102FA0000AD08DE860002046FFF786FF10B1FF23AE
:102FB00084F8613207B0F0BD002084F86102104649
:102FC00005930491039215F07BF9059B039A0499EC
:102FD0009842E6D207DA104402EB030E202700F8ED
:102FE000017B7045FBD10020D054DAE7102B2DE98E
:102FF000F84F05460C464FF0000E53D8724501F8C5
:1030000003E055DB9E4518DADFF8B4C0E718012667
:1030100092FBF6F18CFB0108C817C0EBA80000EB8F
:103020008000A1EB4001013B06EB86063031734581
:103030004FEA460607F8011DEADCDFF888904FF0FA
:103040000008D9F80070C3464FF0010A17E095F860
:103050006132B3423B6804BFA7F812B0A7F814A0CE
:103060001B68A15D984795F86132D9F80070B342AA
:1030700004BFA7F812A0A7F814B008F10108204671
:1030800015F01EF91FFA88F6B0423846DFD83B68C3
:103090000A495B683846002298473846BDE8F84F31
:1030A00012F062B9724581F810E04FF01003ABDA0C
:1030B0002D21524221704FF0010EA3E754C60100AA
:1030C0006766666688D6FF1F2DE9F04F89B0054612
:1030D000BDF84C40BDF85060BDF8547000978B4669
:1030E0009046994622463346FFF766FE33460097E0
:1030F000224659462846FFF781FE169B0DF10C0A21
:103100005BB350462246D8F80010984795F86132D4
:10311000FF2B16D08DE810044A464146129B2846E4
:10312000FFF7BAFD50B1334628460097224659466C
:10313000FFF742FEFF2385F86132012009B0BDE8A8
:10314000F08F00224FF07E53019200934A46414691
:10315000129B2846FFF75AFDE4E751462346D8F86C
:1031600000202846FFF742FFD0E700BFF0B51C4A19
:1031700011784FF4C67303FB01F3D11889B091F8AD
:103180006200C00626D101F5A674B1F84C11079172
:1031900041F211131249D25C114DFF2A04BF0322E0
:1031A000CA542D2700234FF47A7204268DE8440078
:1031B0000C49049305F56B600293039707AAFFF788
:1031C00083FF18B141F21113FF22EA54079B2380B9
:1031D00009B0F0BD1344B1F8601003F16004D6E704
:1031E00028C5FF1FACC401002DE9F0432B4D2C492D
:1031F000D5F8400E294E89B013F0D2FF14F096F99D
:1032000041F211132D21EA5C0790FF2A04BF04222A
:10321000EA54244B0093052200230391019206F502
:103220006B600493029307AA1F49FFF74DFF804686
:1032300038B341F21113FF22F254079813F05CFFE8
:10324000174914F061F834460146C6F8400E06F5F9
:103250004667B14601E0D9F8401E95F8446ED4F8AF
:10326000F0000FF099FC304613F042FF04F5C674ED
:1032700054F89C3CA7421861EDD1404609B0BDE826
:10328000F083079813F038FF054914F03DF8C6F8AD
:10329000400E404609B0BDE8F08300BF28C5FF1FBF
:1032A0000050C3473F420F00B8C40100F0B5144CB2
:1032B000144A2378144989B04FF4C67505FB0343BB
:1032C000049293F8703108AA1B092D2642F8043D98
:1032D0000227002303960B26029304F56B608DE80A
:1032E000C000FFF7F1FE2378079905FB034393F82D
:1032F000702161F3071283F8702109B0F0BD00BF9F
:1033000028C5FF1F11070000C4C401002DE9F043C8
:103310001D4D1E4995F8440E89B008AA00230426C5
:103320002D274FF4807442F8040D8DE8500005F508
:103330006B60049302930397FFF7C6FE9DF81C6031
:1033400085F8446E814618B9484609B0BDE8F08357
:103350002C4605F54667A84601E098F8446ED4F877
:10336000F000D5F8401E0FF017FC304613F0C0FEF9
:1033700004F5C67454F89C3CBC421861EDD1484633
:1033800009B0BDE8F08300BF28C5FF1FD0C401000D
:10339000F0B52F4D6B78022B89B032D0032B29D09A
:1033A000012B02D000235B78FFDE2B784FF4C6722E
:1033B00002FB035303F5A07308AA5B78244E42F87E
:1033C000043D2D27002403974FF0030E7F2723464B
:1033D0002049049406F56B6002948DE88040FFF765
:1033E00073FE6B78022B28D0032B1CD0012B0FD03F
:1033F0006470FFDE2B784FF4C67202FB0353CC33AC
:10340000DAE72B784FF4C67202FB03535433D3E749
:1034100033784FF4C67202FB036303F5A073079A77
:103420005A7009B0F0BD32784FF4C67303FB0263E3
:10343000CC33079A5A7009B0F0BD32784FF4C67396
:1034400003FB02635433079A5A7009B0F0BD00BF02
:1034500028C5FF1FD8C40100F0B52E4D6B78022B94
:1034600089B031D0032B28D0012B02D000231B7848
:10347000FFDE2B784FF4C67202FB035303F5A073F3
:1034800008AA1B7842F8043D224E23492D2300242C
:103490000393032710238DE8880006F56B60012352
:1034A00004940294FFF710FE6B78022B28D0BB42E5
:1034B0001CD0012B0FD02470FFDE2B784FF4C67286
:1034C00002FB0353CC33DBE72B784FF4C67202FBCD
:1034D00003535433D4E733784FF4C67202FB0363CB
:1034E00003F5A073079A1A7009B0F0BD32784FF453
:1034F000C67303FB0263CC33079A1A7009B0F0BDA0
:1035000032784FF4C67303FB02635433079A1A7080
:1035100009B0F0BD28C5FF1FE4C401002DE9F0414A
:10352000314C6378022B88B037D0032B2ED0012B7F
:1035300002D000235B68FFDE23784FF4C67202FBE3
:10354000034303F5A0735868274F13F0EFFF08AA51
:1035500000260321FF232D2542F8040D019100933D
:1035600007F56B6001230496029603951F49FFF748
:10357000ABFD6378022B80462ED0032B25D0012B88
:1035800012D0079813F0B8FD7060FFDE23784FF477
:10359000C67202FB0343CC33D5E723784FF4C672DF
:1035A00002FB03435433CEE73B784FF4C67505FB6B
:1035B000037505F5A075079813F09EFD6860C4F8C3
:1035C000380E404608B0BDE8F0813B784FF4C67530
:1035D00005FB0375CC35EEE73B784FF4C67505FB6C
:1035E00003755435E7E700BF28C5FF1FF4C4010089
:1035F000F0B52E4C6378022B89B033D0032B2AD040
:10360000012B02D000231B7AFFDE23784FF4C67211
:1036100002FB034303F5A07308AA93F9083042F8AC
:10362000043D224E22492D230025039304277823AD
:103630008DE8880006F56B606FF0770304950295BE
:10364000FFF742FD6378022B28D0032B1FD0012BFC
:103650000FD02D72FFDE23784FF4C67202FB0343B6
:10366000CC33D9E723784FF4C67202FB03435433BB
:10367000D2E733784FF4C67202FB036303F5A073FD
:103680009DF91C201A7284F83C2E09B0F0BD3278E6
:103690004FF4C67303FB0263CC33F1E732784FF487
:1036A000C67303FB02635433EAE700BF28C5FF1F5C
:1036B00000C50100F0B5324D6B78022B89B035D0D2
:1036C000032B2CD0012B03D0002393F82030FFDEF6
:1036D0002B784FF4C67202FB035303F5A07308AABC
:1036E00093F82030264E42F8043D2D2700240397FE
:1036F0004FF0030E7F2723462249049406F56B60A2
:1037000002948DE88040FFF7DFFC6B78022B2BD012
:10371000032B1ED0012B10D084F82040FFDE2B7825
:103720004FF4C67202FB0353CC33D8E72B784FF427
:10373000C67202FB03535433D1E733784FF4C67299
:1037400002FB036303F5A073079A83F8202009B0F6
:10375000F0BD32784FF4C67303FB0263CC33079A93
:1037600083F8202009B0F0BD32784FF4C67303FB14
:1037700002635433079A83F8202009B0F0BD00BFDC
:1037800028C5FF1F10C50100F0B5324D6B78022B24
:1037900089B035D0032B2CD0012B03D0002393F814
:1037A0002130FFDE2B784FF4C67202FB035303F582
:1037B000A07308AA93F82130264E42F8043D2D2725
:1037C000002403974FF0030E7F27234622490494D9
:1037D00006F56B6002948DE88040FFF775FC6B780E
:1037E000022B2BD0032B1ED0012B10D084F82140AC
:1037F000FFDE2B784FF4C67202FB0353CC33D8E7BD
:103800002B784FF4C67202FB03535433D1E733785D
:103810004FF4C67202FB036303F5A073079A83F8A3
:10382000212009B0F0BD32784FF4C67303FB026368
:10383000CC33079A83F8212009B0F0BD32784FF4D9
:10384000C67303FB02635433079A83F8212009B03F
:10385000F0BD00BF28C5FF1F1CC50100F0B5484CD6
:103860006378022B89B049D0032B3DD0012B03D0C4
:10387000002393F82030FFDE23784FF4C67202FB5A
:10388000034303F5A07393F82020D20141F21111F4
:1038900093F82130605C3A4D1344FF28079304BF2E
:1038A00004236B54364D3749002343F6FF722D270E
:1038B00005268DE8440005F56B6004930293039799
:1038C00007AAFFF701FC18B141F21113FF22EA54D5
:1038D00063782B4C022B3FD0032B2FD0012B17D01A
:1038E000002383F82030FFDE23784FF4C67202FBFA
:1038F0000343CC3393F82020D201C7E723784FF459
:10390000C67202FB0343543393F82020D201BDE773
:10391000237807994FF4C67202FB0342002902F58F
:10392000A0720B4615DBDB1182F82030164B0B40E2
:10393000002B1DDB82F8213009B0F0BD23780799F8
:103940004FF4C67202FB0342002902F1CC020B467F
:10395000E9DA01F17F03E6E7237807994FF4C672AD
:1039600002FB0342002902F154020B46DBDAF0E7C6
:10397000013B63F07F03013382F8213009B0F0BDD1
:1039800028C5FF1F28C501007F000080F0B52F4D1E
:103990006B78022B89B032D0032B29D0012B02D0B7
:1039A00000239B78FFDE2B784FF4C67202FB035393
:1039B00003F5A07308AA9B78244E42F8043D2D27F6
:1039C000002403974FF0030E7727234620490494E1
:1039D00006F56B6002948DE88040FFF775FB6B780D
:1039E000022B28D0032B1CD0012B0FD0A470FFDE9C
:1039F0002B784FF4C67202FB0353CC33DAE72B78F3
:103A00004FF4C67202FB03535433D3E733784FF4B9
:103A1000C67202FB036303F5A073079A9A7009B09C
:103A2000F0BD32784FF4C67303FB0263CC33079AC0
:103A30009A7009B0F0BD32784FF4C67303FB02638D
:103A40005433079A9A7009B0F0BD00BF28C5FF1F14
:103A500030C50100F0B52F4D6B78022B89B032D004
:103A6000032B29D0012B02D00023DB78FFDE2B783B
:103A70004FF4C67202FB035303F5A07308AADB7868
:103A8000244E42F8043D2D27002403974FF0030EE7
:103A90007F2723462049049406F56B6002948DE845
:103AA0008040FFF711FB6B78022B28D0032B1CD032
:103AB000012B0FD0E470FFDE2B784FF4C67202FBAF
:103AC0000353CC33DAE72B784FF4C67202FB03536F
:103AD0005433D3E733784FF4C67202FB036303F524
:103AE000A073079ADA7009B0F0BD32784FF4C6734C
:103AF00003FB0263CC33079ADA7009B0F0BD327869
:103B00004FF4C67303FB02635433079ADA7009B0AB
:103B1000F0BD00BF28C5FF1F38C5010070B5214C9E
:103B20006378022B28D0032B1FD0012B0FD000204D
:103B300041F208151521FEF75FFB635D194E73B95D
:103B400001237355FFF724FCE8B9002070BD2378EA
:103B50004FF4C67000FB034000F5A070E8E7012BAE
:103B6000F0D0022B16D0012070BD23784FF4C67020
:103B700000FB0340CC30DBE723784FF4C67000FB3A
:103B800003405430D4E741F208120020A35C013313
:103B9000A35470BDFFF75EFF0028D6D000237355F5
:103BA00070BD00BF28C5FF1F2DE9F041314C63787F
:103BB000022B88B037D0032B2ED0012B02D000234C
:103BC0005B68FFDE23784FF4C67202FB034303F504
:103BD000A0735868274F13F0A9FC08AA00260321F8
:103BE000FF232D2542F8040D0191009307F56B602A
:103BF00001230496029603951F49FFF765FA63783F
:103C0000022B80462ED0032B25D0012B12D00798F3
:103C100013F072FA7060FFDE23784FF4C67202FB75
:103C20000343CC33D5E723784FF4C67202FB03433A
:103C30005433CEE73B784FF4C67505FB037505F5A5
:103C4000A075079813F058FA6860C4F8380E40461B
:103C500008B0BDE8F0813B784FF4C67505FB0375ED
:103C6000CC35EEE73B784FF4C67505FB037554354C
:103C7000E7E700BF28C5FF1FF4C40100F0B52E4CD4
:103C80006378022B89B033D0032B2AD0012B02D0CA
:103C900000231B7AFFDE23784FF4C67202FB034336
:103CA00003F5A07308AA93F9083042F8043D224EA8
:103CB00022492D2300250393042778238DE88800CB
:103CC00006F56B606FF0770304950295FFF7FCF93A
:103CD0006378022B28D0032B1FD0012B0FD02D721D
:103CE000FFDE23784FF4C67202FB0343CC33D9E7DF
:103CF00023784FF4C67202FB03435433D2E7337880
:103D00004FF4C67202FB036303F5A0739DF91C20F8
:103D10001A7284F83C2E09B0F0BD32784FF4C673A5
:103D200003FB0263CC33F1E732784FF4C67303FB35
:103D300002635433EAE700BF28C5FF1F00C5010036
:103D400070B5374C637888B000227F21022BADF824
:103D50001820ADF81A103AD0032B2ED0012B01D029
:103D6000938BFFDE23784FF4C67000FB034000F511
:103D7000A070B0F91C3007930DF11A0206A9FEF7E6
:103D8000CFF9274EBDF91A20009200252D210522DA
:103D9000BDF918300391019206F56B600495029508
:103DA00007AA2049FFF790F96378022B2ED0032B46
:103DB00022D0012B15D0AD83FFDE23784FF4C670DF
:103DC00000FB0340CC30B0F91C300793D4E72378D4
:103DD0004FF4C67000FB03405430B0F91C30079319
:103DE000CAE733784FF4C67202FB036303F5A0738E
:103DF000079A9A8308B070BD32784FF4C67303FBFC
:103E00000263CC33079A9A8308B070BD32784FF4BE
:103E1000C67303FB02635433079A9A8308B070BDDC
:103E200028C5FF1F44C5010070B5374C637888B0C2
:103E300000227F21022BADF81820ADF81A103AD0DD
:103E4000032B2ED0012B01D0D38BFFDE23784FF430
:103E5000C67000FB034000F5A070B0F91E30079358
:103E60000DF11A0206A9FEF75BF9274EBDF91A20DB
:103E7000009200252D210522BDF9183003910192F1
:103E800006F56B600495029507AA2049FFF71CF917
:103E90006378022B2ED0032B22D0012B15D0ED837B
:103EA000FFDE23784FF4C67000FB0340CC30B0F93E
:103EB0001E300793D4E723784FF4C67000FB03400D
:103EC0005430B0F91E300793CAE733784FF4C67206
:103ED00002FB036303F5A073079ADA8308B070BD91
:103EE00032784FF4C67303FB0263CC33079ADA834C
:103EF00008B070BD32784FF4C67303FB02635433CD
:103F0000079ADA8308B070BD28C5FF1F50C50100AD
:103F100038B50A4D2C783CB1012C08D1FFF784FF4D
:103F200028B100232B7038BDFFF70AFF08B9002025
:103F300038BD01232B70204638BD00BFC8ACFF1F21
:103F4000F0B52E4D6B78022B89B036D0032B2DD0D7
:103F5000012B02D000235B69FFDE2B784FF4C67182
:103F600001FB035101F5A07108AA4B69234F42F8E8
:103F7000043D4FF02D0E8C69CDF80CE0002644F284
:103F8000020C4FF0060E1E4B1E49049607F56B609F
:103F900002968DE80050FFF797F86B78022B26D039
:103FA000032B1DD0012B0FD07661FFDE2B784FF451
:103FB000C67101FB0351CC31D6E72B784FF4C671A3
:103FC00001FB03515431CFE73B784FF4C67202FB3B
:103FD000037303F5A073079A9C615A6109B0F0BDA1
:103FE0003A784FF4C67303FB0273CC33F3E73A78A5
:103FF0004FF4C67303FB02735433ECE728C5FF1F6D
:10400000FDBFFFFF5CC50100F0B52F4D6B78022BA3
:1040100089B037D0032B2ED0012B02D000235B694F
:10402000FFDE2B784FF4C67202FB035303F5A07337
:104030005C699869244F254B254908AA20444FF014
:104040002D0E42F8040D0026CDF80CE044F2020CCF
:104050004FF0060E07F56B60049602968DE800504F
:10406000FFF732F86B78022B27D0032B1ED0012BE1
:104070000FD07661FFDE2B784FF4C67202FB03533C
:10408000CC33D5E72B784FF4C67202FB035354337D
:10409000CEE73B784FF4C67202FB037303F5A073BF
:1040A000079A5C61141B9C6109B0F0BD3A784FF42B
:1040B000C67303FB0273CC33F2E73A784FF4C6734E
:1040C00003FB02735433EBE728C5FF1FFDBFFFFF5F
:1040D00064C5010038B50A4D2C783CB1012C08D1DB
:1040E000FFF792FF28B100232B7038BDFFF728FFA0
:1040F00008B9002038BD01232B70204638BD00BF11
:10410000C8ACFF1FF0B5384C637889B000227F211E
:10411000022BADF81820ADF81A103ED0032B30D08A
:10412000012B01D0138AFFDE23784FF4C67000FB09
:10413000034000F5A070B0F91030B0F912500793A9
:104140000DF11A0206A9FDF7EBFF274FBDF91A2062
:10415000009200262D210522BDF91830039101920D
:1041600007F56B600496029607AA2049FEF7ACFF9C
:104170006378022B30D0032B27D0012B19D0368245
:10418000FFDE23784FF4C67000FB0340CC30B0F95B
:104190001030B0F912500793D2E723784FF4C6706D
:1041A00000FB03405430B0F910300793B0F91250BF
:1041B000C6E73B784FF4C67202FB037303F5A073A6
:1041C000079A5D821A8209B0F0BD3A784FF4C6733F
:1041D00003FB0273CC33F3E73A784FF4C67303FB67
:1041E00002735433ECE700BF28C5FF1F6CC5010004
:1041F000F0B53A4C637889B000227F21022BADF8EC
:104200001820ADF81A1040D0032B31D0012B01D06B
:10421000138AFFDE23784FF4C67000FB034000F5DD
:10422000A070B0F91050B0F912302B4407930DF183
:104230001A0206A9FDF774FF284FBDF91A20009253
:1042400000262D210522BDF918300391019207F5B2
:104250006B600496029607AA2149FEF735FF637842
:10426000022B33D0032B2AD0012B1BD03682FFDE4A
:1042700023784FF4C67000FB0340CC30B0F91050E7
:10428000B0F912302B440793D1E723784FF4C6706E
:1042900000FB03405430B0F91050B0F912302B44F9
:1042A0000793C4E73B784FF4C67202FB037303F530
:1042B000A073079A1D82551B5D8209B0F0BD3A7844
:1042C0004FF4C67303FB0273CC33F2E73A784FF432
:1042D000C67303FB02735433EBE700BF28C5FF1F0F
:1042E00078C5010038B50A4D2C783CB1012C08D1B5
:1042F000FFF77EFF28B100232B7038BDFFF702FFC8
:1043000008B9002038BD01232B70204638BD00BFFE
:10431000C8ACFF1F2DE9F04F88469DB0D0F864125D
:104320000990BDF898A09DF89C700D929B4629B904
:10433000764B1B680F930F9BC0F86432002F00F080
:10434000BF80734B3D1F83FB0523A3EBE57502354F
:10435000ED00ABB2CAF13F059D424046A8BF1D46E5
:1043600013F0AEFF00EB4000430004339BB2DFF8D4
:10437000A491D9F800009F422AB24FF0000628BF4E
:104380001F4603680C928DE844000FFA8AF43AB293
:104390000FFA8BF108940B921C6C0A911346089A41
:1043A000A0470121D9F800000CF0F0F8584BD9F8DB
:1043B0000040033F83FB07230AF1040AAAB21FFA55
:1043C0008AF10BF1020B073AA3EBE7770591012382
:1043D0000FFA8BF107921CAA3546069102EB070BE8
:1043E000A6826382B24609E0079BB3EBC20F2CDDC5
:1043F0005EB3B5F5807F28D0D9F80040059BBDF8A5
:104400001820E28103EBC50308EB060123823A463C
:1044100011A813F0C3FF11A80BF82CAC13F050FF38
:10442000236802465B6811A920469847204610F091
:104430009BFF404613F044FFC01BF319864205F171
:1044400002029EB205F10105CED9D9F800000C9AFE
:104450000368009201220192DC6C089A0B9B0A9976
:104460002C4DA047099B93F82E31002B39D1D9F858
:104470000000294C0CF0F6FE41F2B853E0580DF064
:1044800065FD50B9214A099B1268D3F86432109235
:104490000D99109A19448A420FD9D9F800000C9B43
:1044A00005680093002401940B9B089A0A992D6CCF
:1044B000A847099B0120C3F864421DB0BDE8F08FF6
:1044C000404613F0FDFE00EB4000CAF13F054300FB
:1044D0000433CBF17F07102D9BB2A8BF1025FFB28C
:1044E00045E7099E286896F83C41D6F83431B6F97C
:1044F0003221B6F93011B6F93A510294B6F9384181
:104500008DE830000BF00EFEB1E700BF1CDFFF1F8F
:10451000ABAAAA2A88D6FF1F28C5FF1F2DE9F0479E
:104520000E4601789DF820800829044691464ED019
:104530003C4AD0F8EC00D2F8147ED2F8201E1D467A
:10454000D2F8183EA366D2F81C3E67660127C4F86D
:10455000DC30C4F8E01084F8C47092F844AED2F8AD
:10456000401E0EF019FB504612F0C2FDD4F8EC20AC
:10457000162310610021184684F8796023720FF029
:1045800053FA0026102084F8800084F8F190A68366
:1045900031460FF049FAA4F8946084F8126184F867
:1045A000F85028460DB9BDE8F08702210FF03CFA1B
:1045B00084F84C81B8F1000F02D13846BDE8F0878D
:1045C000404639460FF030FA3846BDE8F087154BC3
:1045D000D3F8241ED3F8302ED3F8280ED3F82C3E6F
:1045E0006166102700210D46A066C4F8DC30C4F8CF
:1045F000E020384684F8796027720FF015FA3846C3
:1046000084F8807084F8F190A58329460FF00CFAA5
:1046100084F8F850A4F8945084F812512846BDE864
:10462000F08700BF28C5FF1F2DE9F84304468846E0
:1046300016460FF0FFF9636AE06213B9236B002B93
:1046400044D072B6DFF8AC90254FD9F800103B6823
:104650002448E56A226BCB1A80FB0310D917C1EB03
:10466000A000062184F838101F49C5EB030EAA1AD2
:104670000B60636BA26285181C4AE06B7344A9B29D
:1046800013600EF079FAE26BA36AD26A002E62F32D
:104690000F0528461FDDB040B340D9F800103A6836
:1046A0000B440244C9F800303A6012F021FD414643
:1046B00012F02AFE0E4912F027FE12F05DFFE36AA7
:1046C0006062236362B60120BDE8F8836063206303
:1046D0001846BDE8F883E0D07642F040F340DCE7CE
:1046E000D4ACFF1F6766666640ACFF1FF4DDFF1F9A
:1046F0000000C04074ACFF1F10B50446022094F8BF
:10470000751001F001010FF07BF994F8751003208A
:10471000C1F340010FF074F994F875100420C1F34F
:104720008001BDE810400FF06BB900BF30B5104BF1
:1047300083B00C469C424FF000014FF07F020546CB
:1047400008BFB0F91A40ADF80410ADF806204C309F
:104750000DF1060201A9FDF7E3FCB5F968008442FA
:1047600004DBB5F96A00A042A8BF204603B030BD03
:10477000F1D8FFFF38B590F86831032B36D8DFE861
:1047800003F0021104021A4838BD90F8D63003F045
:104790001F03072BB0F91E301DD0B0F9961003FB94
:1047A00001F104E0B0F91E10B0F99630194490F808
:1047B0005E301A4604466FF3461280F85E200430DD
:1047C000C3F34115FFF7B2FF94F85E3065F346136B
:1047D00084F85E3038BDB0F99620064903FB02F339
:1047E00081FB0321DB17C3EB6111E0E70049DEE742
:1047F000F1D8FFFF1F85EB51012A4DDD00B590F880
:104800005A3003F01F031E2B48D8DFE803F01619B7
:104810001F1616161616251616161616101016162C
:1048200016161630303939161F3F3F3F3F000B78C0
:1048300080F86D304B7880F86C3010465DF804FBE2
:104840000B88A0F86E3010465DF804FB0B7880F8FA
:104850004D3010465DF804FB124BD3F8381E01654D
:1048600093F93C3E80F8543010465DF804FB0B7819
:1048700080F84D304B7880F84F3010465DF804FBDF
:104880000B7880F84E3010465DF804FB0B7880F80A
:104890005B3010465DF804FB0020704700205DF897
:1048A00004FB00BF28C5FF1F2DE9F84390F84850CE
:1048B000574E584C002D08BF3446154614BF0A27E2
:1048C0000D277D2900F2A280DFE801F046A0A0A01C
:1048D000A0A0A0A0A0A0A0A0A0A0A0A0A0A0A0A0D8
:1048E000A0A0A0A0A0A0A0A0A0A0A0A0A0A0A0A0C8
:1048F000A0A0A0A0A0A0A0A0A0A0A0A0A0A0A0A0B8
:10490000A0A0A0A0A0A0A0A0A0A0A0A0A0A0A0A0A7
:10491000A0A0A0A0A0A0A0A0A0A0A0A0A0A0A0A097
:10492000A0A0A0A0A0A0A0A0A0A0A0A0A0A0A0A087
:10493000A0A0A0A0A0A0A0A0A0A0A0A0A05D6C622C
:1049400067717A80868A8E949A3F2A7880F85A20F6
:104950001D462846BDE8F88307EB4707033FDFF80D
:10496000B890A846064627442379617919F80330A0
:104970002A463046FFF798FF0334A7420544F3D197
:10498000C8EB0505E5E72A7880F84C201D46E0E7EE
:104990002A7880F857201D46DBE72A88A0F858209F
:1049A0001D46D6E72A7880F856201D46D1E729789B
:1049B00090F85A2061F304021D4680F85A20C8E797
:1049C000B5F90020A0F85C201D46C2E7B5F900202B
:1049D000A0F85E201D46BCE72A6802661D46B8E7BF
:1049E0002A6842661D46B4E7B5F90020A0F86820A1
:1049F0001D46AEE7B5F90020A0F86A201D46A8E7DD
:104A00001A462946BDE8F843FFF7F6BE0025A0E7A1
:104A1000A8BC01005CBC010048BC010010B58AB014
:104A20000446242201A80EF091FD01AA2046242369
:104A30000021FFF739FF94F84830002B14BF0E20F7
:104A400018200AB010BD00BF012A42DD00B590F861
:104A50005A3003F01F031E2B3DD8DFE803F0161F6A
:104A600025161616161616161616161610101616E3
:104A70001616162B2B34341625191919190090F80F
:104A80006D300B7090F86C304B7010465DF804FB85
:104A900090F85B300B7010465DF804FBB0F86E3098
:104AA0000B8010465DF804FB90F84D300B701046FB
:104AB0005DF804FB90F84D300B7090F84F304B7060
:104AC00010465DF804FB90F84E300B7010465DF810
:104AD00004FB0020704700205DF804FB2DE9F8433B
:104AE00090F84850604E614C002D90460ABF344605
:104AF0000A270D277D2900F2B380DFE801F046B1D7
:104B0000B1B1B1B1B1B1B1B1B1B1B1B1B1B1B1B195
:104B1000B1B1B1B1B1B1B1B1B1B1B1B1B1B1B1B185
:104B2000B1B1B1B1B1B1B1B1B1B1B1B1B1B1B1B175
:104B3000B1B1B1B1B1B1B1B1B1B1B1B1B1B1B1B165
:104B4000B1B1B1B1B1B1B1B1B1B1B1B1B1B1B1B155
:104B5000B1B1B1B1B1B1B1B1B1B1B1B1B1B1B1B145
:104B6000B1B1B1B1B1B1B1B1B1B1B1B1B1B1B15E88
:104B700073656C7A838A91979DA4AB3F90F85A2015
:104B800088F800201846BDE8F88307EB4707033F85
:104B9000DFF8DC900646274445462379617919F809
:104BA00003302A463046FFF799FF0334BC420544E0
:104BB000F3D1C8EB0500BDE8F88390F84C2088F8E5
:104BC00000201846BDE8F88390F8572088F80020A8
:104BD0001846BDE8F883B0F85820A8F80020184619
:104BE000BDE8F88390F8562088F800201846BDE804
:104BF000F88390F85A20C2F3040288F8002018467F
:104C0000BDE8F883B0F95C20A8F800201846BDE89C
:104C1000F883B0F95E20A8F800201846BDE8F883B4
:104C2000026EC8F800201846BDE8F883426EC8F846
:104C300000201846BDE8F883B0F96820A8F80020E5
:104C40001846BDE8F883B0F96A20A8F80020184695
:104C5000BDE8F8831A464146BDE8F843FFF7F4BEC5
:104C60000020BDE8F88300BFA8BC01005CBC0100C7
:104C700048BC010030B58BB00D4601AA24230021A9
:104C80000446FFF72BFF2946024601A80EF0A8FCB8
:104C900094F84830002B14BF0E2018200BB030BD04
:104CA00080292DE9F8434ED014D982293FD02FD343
:104CB000832939D1012B37DD90F856100F2933D8CD
:104CC000DFE801F05E5E55554A474747474747478B
:104CD000474747477E2930D020D829BB2B4DDFF8E6
:104CE000B4901746064605F11208144601237E21AA
:104CF00003E02B79697919F8033022463046FFF733
:104D0000CFFF033545450444F3D1E01BBDE8F883EC
:104D10001288A0F854201846BDE8F883127880F86D
:104D200052201846BDE8F8830020BDE8F8831278C9
:104D300080F856201846BDE8F883127880F848209D
:104D40001846BDE8F883127880F853201846BDE86D
:104D5000F8831846BDE8F8830D4AD2F8381EC164BE
:104D600092F93C2E80F850201846BDE8F88311785F
:104D700080F84910527880F84B201846BDE8F88337
:104D8000127880F84A201846BDE8F88390C00100E8
:104D900028C5FF1F48BC010010B584B0044610228E
:104DA00068460EF0D3FB6A46204610230021FFF729
:104DB00077FF082004B010BD70B5054608460C46C4
:104DC0000EF0AAFB85F86801601C0EF0A5FB85F8C3
:104DD0006C01A01C0EF0A0FB05F5B676014630462E
:104DE0000AF006FDE01C0EF097FB04340146304645
:104DF0000AF002FD214605F1F400FFF7CDFF04445F
:104E00002146281DFFF70AFE211805F17C00FFF757
:104E100005FE322070BD00BF012A20DD10B490F8DD
:104E200056400F2C0DD80123A3404FF6F0741C40C0
:104E300054B913F00C0F0AD113F0030311D1184623
:104E400000E0002010BC7047104610BC704790F87E
:104E500049300B7090F84B304B701046F2E7002051
:104E6000704790F84A300B701046EBE780292DE927
:104E7000F843144644D00AD9822932D025D3832955
:104E800035D11A462146BDE8F843FFF7C5BF7E2954
:104E900030D020D859BB1D4DDFF874900646174618
:104EA00005F11208144601237E2103E02B7969796C
:104EB00019F8033022463046FFF7D8FF0335454541
:104EC0000444F3D1E01BBDE8F883B0F854202280FD
:104ED0001846BDE8F88390F8522022701846BDE8C5
:104EE000F88390F8562022701846BDE8F883002019
:104EF000BDE8F88390F8482022701846BDE8F88392
:104F000090F8532022701846BDE8F88390C0010045
:104F100048BC010010B584B00C466A46102300213D
:104F2000FFF7A4FF2146024668460EF059FB082011
:104F300004B010BDF0B583B002AE90F8683106F849
:104F4000013D04460F46304601220EF049FB94F81D
:104F50006C318DF807303046791C01220EF040FB91
:104F600094F86E318DF807303046B91C01220EF0EE
:104F700037FB3D1D94F86F318DF807300122304624
:104F8000F91C0EF02DFB294604F1F400FFF7C2FFD7
:104F900005442946201DFFF76DFE0544294604F10E
:104FA0007C00FFF767FE2378082B06BF2D18E81B4F
:104FB000322003B0F0BD00BF70B5FA2982B00C46B4
:104FC00005463DD3FB2925D9FC2939D1234E244957
:104FD000002385F82030142206F57F6013F0DEF9F7
:104FE000204B1B68019341F2F00141F2F40342F2BD
:104FF0001070019A7050F250200240F00F000FF034
:10500000FFFCAB6A5B6D1868036821461B68984714
:1050100002B070BD114E1449012385F820301422CE
:1050200006F57F6013F0BAF90E4B1B68009341F24E
:10503000F00141F2F40342F21070009A7050F25005
:1050400004F10803DBB2072BE2D8012202FA03F3D2
:1050500013F0DD0FD0D102B070BD00BF28C5FF1F17
:1050600090C501001CDFFF1F84C5010038B5044650
:105070000EF0E0FC636B626AC31A9A42054616D3CF
:10508000A36A226B03EB4303AD1AAB420ED20C4D65
:105090000C480D490D4A00232B6063622363636350
:1050A000A36284F8383003600B60136038BDF821C8
:1050B0000748FFF781FF626B636A13446363DFE7AE
:1050C000F4DDFF1F40ACFF1F74ACFF1FD4ACFF1F0B
:1050D00040D6FF1FF0B5304E7378022B89B036D022
:1050E000032B2DD0012B02D00023DB7BFFDE337896
:1050F0004FF4C67202FB036303F5A073DB7B264DFE
:10510000264908AAC3F3830301332D2742F8043D3F
:105110000024012303970827019305F56B6004948D
:1051200002940097FDF7D0FF7378022B2CD0032B4D
:1051300023D0012B12D0E37B64F38503E373FFDEFE
:1051400033784FF4C67202FB0363CC33D6E733786F
:105150004FF4C67202FB03635433CFE72B784FF44E
:10516000C67202FB035303F5A073079AD97B013A79
:1051700062F38501D97309B0F0BD2A784FF4C67384
:1051800003FB0253CC33F0E72A784FF4C67303FBDA
:1051900002535433E9E700BF28C5FF1F28C30100AD
:1051A0002DE9F84F8A46002961D0404BDFF8208175
:1051B0003F4AC8F8102093E8030000230A0CC8F8FF
:1051C0000000A8F8041088F8062088F81430012799
:1051D000384DC82405F1690B07E0BAF1000F36D14C
:1051E00007350134AB45E4B220D02B78002BF4D046
:1051F0007E0006EB070908EBC90948460622294646
:1052000013F0CCF8BAF1000F2BD12B4BC9F81030AA
:105210003E4408EBC6060735002301373475AB451D
:1052200004F10104FFB2B371E4B2DED1234B244C8C
:1052300093E8070007EB470308EBC308A8E803005F
:105240000023A8F8002063713846BDE8F88F1D4A96
:105250007E0092E80300F31908EBC30248F833001C
:105260009180F31908EBC303174A1A61D0E7DFF8FE
:1052700060800E4A88F8141092E80300134BC8F8B7
:1052800000000E0CA8F8041093E8070008F11803BA
:1052900003C3094D064CC8F8285088F8066088F802
:1052A0002CA0C8F810401A80022791E7ACC5010075
:1052B000155900006DD3FF1F1D5A0000A0C5010045
:1052C000FCBFFF1F98C501005D590000B4C5010077
:1052D00098B6FF1F2DE9F84F0021FFF761FFDFF8B7
:1052E00070B0DFF86090DFF86C80824605460126DA
:1052F000002705EB450409EBC404204626755946F2
:10530000C4F810800622013613F048F80135302E1B
:10531000A771EDB20BF1070B0A4B4FF00004E8D177
:10532000094A0A4D07CA0AF12F0A5FFA8AFA0AEBFC
:105330004A0603EBC60303C31A806C715046BDE8EE
:10534000F88F00BF98B6FF1FC0C50100FCBFFF1F4C
:105350007FC101001D5A0000324B2DE9F0479942F0
:105360004FF00004824644614DD02F4B99420E46C7
:1053700050D0A046DFF8B89000E0013430460AF083
:1053800097FB84422146304618DA0AF079FB037D08
:10539000002BF2D0214630460AF072FB07460FCFB1
:1053A00008EB480509EBC5050FC597E8030008F1B0
:1053B000010885E803005FFA88F8DEE730460AF066
:1053C00077FB014630460AF05BFB05460FCD08EB44
:1053D000480409EBC4040FC495E8030084E8030003
:1053E000124B72795A71FF2201218AF8632283F8E5
:1053F00004808AF862125046C3F800900B49BDE859
:10540000F0470AF011BCFFF765FFDFF82490074B67
:105410008046E8E70121FFF7C3FEDFF81490034B55
:105420008046E0E70CDBFF1F48B4FF1FFCBFFF1FF7
:1054300098B6FF1F70B5584C2378082B82B073D0F4
:10544000022262704FF4C67202FB034393F862308B
:1054500003F01F03182B56D9042150480AF0C8FB4B
:1054600006214E484C4E0AF0C3FB07214B480AF078
:10547000BFFB082149480AF0BBFB092147480AF055
:10548000B7FB0A2145480AF0B3FB0B2143480AF059
:10549000AFFB0C2141480AF0ABFB23784FF4C675F3
:1054A00005FB034393F8621001F01F0108294DD05A
:1054B00001F1120303F01F03012B57D9012937D043
:1054C00069B319292BD00E2134480AF091FBD4F886
:1054D000CC2E334DD4F8C81E2868C2F140031BB24D
:1054E000002604688DE84800C1F1800312B209B2B9
:1054F000246C1BB2A047A5F52C702849FFF72CFFA0
:10550000012002B070BD0121264A99400A400AB923
:10551000002BA1D1042121480AF04EFBA0E70E2167
:105520001E480AF049FBD2E76278012A8AD8E7E7E9
:105530000B211A480AF040FB23784FF4C67202FB95
:10554000034393F8621001F01F01B9E713480AF012
:1055500033FB337805FB036595F8621001F01F01FA
:1055600001F1120303F01F03012BA7D80C210B48F4
:105570000AF022FB0A2109480AF01EFB092107480C
:105580000AF01AFB23784FF4C67202FB034393F828
:10559000621001F01F0191E728C5FF1F30DCFF1FDB
:1055A00088D6FF1F001FFE01FFF744BF054B1A7886
:1055B0004FF4C67101FB0233002283F86C21FFF720
:1055C00039BF00BF28C5FF1F38B50C4C20784FF4F9
:1055D000C67505FB00F02318184693F86210CC300E
:1055E00001F01F01FCF708FE237805FB03440123AB
:1055F00084F86C31BDE83840FFF71CBF28C5FF1F99
:1056000008B5094803784FF4C67202FB03F3C218C9
:105610001046022382F86C31CC300721FCF7ECFDF8
:10562000BDE80840FFF706BF28C5FF1F10B50B4AAD
:105630001378D2F8BC1ED2F8B80E4FF4C67404FB2F
:1056400003240AF01DFA04F5B874017D20460AF01F
:10565000CFF8BDE81040FFF7EDBE00BF28C5FF1F23
:105660002DE9F041214C41F20815635D2BB1012B6E
:1056700029D0BDE8F041FFF7DDBE2678D4F8BC1E86
:10568000D4F8B80E01274FF4C67867550AF0F8F938
:1056900008FB064606F5B876017D30460AF0E8F8C4
:1056A000D4F8BC1ED4F8B80E0AF0EAF9037DABB109
:1056B000207808FB0040394600F5B8700AF098F8E9
:1056C000635D012BD5D1FDF7F1FD60B141F2081307
:1056D0000022E254BDE8F041FFF7ACBE6355BDE8DF
:1056E000F041FFF7A7BEBDE8F08100BF28C5FF1F4E
:1056F00010B50B4A1378D2F8BC1ED2F8B80E4FF48E
:10570000C67404FB03240AF0BBF904F5B874017DE8
:1057100020460AF071F8BDE81040FFF78BBE00BFCD
:1057200028C5FF1F2DE9F0474D4C2078042828BFDD
:1057300004204FF4C67505FB00F6A71981464FF00B
:10574000010A384687F86CA154300021FCF754FD5B
:105750003846CC301021FCF74FFD06F1D00323442E
:105760004FF0180E4FF0000807F5B8764FF6E872C4
:105770003021D9819A813046A7F8EAE0A7F8E820DD
:1057800087F84E8102210AF073F897F8702168F3C8
:10579000071287F87021514609FB055730460AF079
:1057A00027F830460821E6190AF026F8304686F830
:1057B0006C8154301D21FCF71FFD96F8632009F021
:1057C0000F0767F38502304686F86320CC301D2131
:1057D000FCF712FD06F1C80309F10206DA7C05FBAD
:1057E00006F604EB060A67F385025046DA74543075
:1057F0001E218AF86C81FCF7FFFC9AF86320504662
:1058000067F385028AF86320CC301E21FCF7F4FC94
:1058100009F103009AF8DB3005FB00F5661967F320
:10582000850330468AF8DB3054301B2186F86C81C2
:10583000FCF7E2FC96F86320304667F3850286F8B1
:105840006320CC301B21FCF7D7FC96F8DB2067F3F4
:10585000850286F8DB20BDE8F047FFF7EBBD00BF0F
:1058600028C5FF1F024B02225A70FFF7E3BD00BF9D
:1058700028C5FF1F024B03225A70FFF7DBBD00BF94
:1058800028C5FF1F70B50F4CD4F8CC2ED4F8C81E15
:1058900004F58B5382B01868C2F140031BB2002696
:1058A00005688DE84800C1F1800312B21BB22D6C6F
:1058B00009B2A84704F56B600349FFF74DFD0120CD
:1058C00002B070BD28C5FF1F7CB4FF1F70B50F4C20
:1058D000D4F8CC2ED4F8C81E04F58B5382B01868C7
:1058E000C2F140031BB2002605688DE84800C1F1F3
:1058F000800312B21BB22D6C09B2A84704F56B608D
:105900000349FFF729FD012002B070BD28C5FF1F24
:105910002CACFF1F70B50F4CD4F8CC2ED4F8C81E99
:1059200004F58B5382B01868C2F140031BB2002605
:1059300005688DE84800C1F1800312B21BB22D6CDE
:1059400009B2A84704F56B600349FFF705FD012084
:1059500002B070BD28C5FF1F0CDEFF1F70B541F2FD
:1059600008132B4CE55C82B0D5B12A4B1B78284D2F
:105970002949C3EBC303E2182D230024019302F647
:10598000456205F56B6000940623FDF7FFFAB0B1A0
:1059900041F20813EC5402B0BDE87040FFF7BABF03
:1059A000D4F8BC1ED4F8B80E0AF06AF8007D194B82
:1059B00000F13802D2B20F2A187002D9012002B0C9
:1059C00070BD6178022905D0032919D001290FD0B3
:1059D000AD72FFDE21784FF4C67505FB01415431ED
:1059E00041F2081500F1390688721A706655BDE754
:1059F00021784FF4C67505FB014101F5A071EFE771
:105A000021784FF4C67505FB0141CC31E8E700BFB2
:105A100028C5FF1F04C0FF1FCCC5010010B5194BDE
:105A20005A78022A26D0032A1DD0012A08D0D3F89A
:105A3000BC1ED3F8B80E0AF023F800239B72FFDED9
:105A40001A784FF4C67404FB023404F5A074D3F83A
:105A5000BC1ED3F8B80E0AF013F8037DA372BDE89C
:105A60001040FFF757BF1A784FF4C67404FB023496
:105A7000CC34ECE71A784FF4C67404FB0234543487
:105A8000E5E700BF28C5FF1F30B5304C637885B00F
:105A90002022022BADF80C2034D0032B2BD0012B6D
:105AA00002D000235B7AFFDE23784FF4C67202FB3C
:105AB000034303F5A0735B7A03B920238DF80C3000
:105AC00000252D23019303AA012321490095214894
:105AD000FDF75CFA9DF80C3062781C49202B08BF5A
