:1000000000800020BD010000E138010099380100A6
:100010009938010099380100993801009938010098
:10002000993801009938010099380100E138010040
:10003000E138010099380100C5520100C9520100A0
:10004000E1380100E1380100E1380100E138010048
:10005000E1380100E1380100E1380100E138010038
:10006000E1380100E1380100E1380100E138010028
:10007000E1380100E1380100E1380100E138010018
:10008000E1380100E1380100E1380100E138010008
:10009000E1380100E1380100E1380100E1380100F8
:1000A000011F01000D1F0100E1380100E1380100CE
:1000B000E1380100E1380100E1380100E1380100D8
:1000C000E1380100E1380100E1380100E1380100C8
:1000D000E1380100E1380100E1380100E1380100B8
:1000E000E1380100E1380100E1380100E1380100A8
:1000F000E13801006D5F0100E1380100E1380100E5
:10010000E1380100E1380100E1380100E138010087
:10011000E1380100E1380100E1380100E138010077
:10012000E1380100E1380100E1380100E138010067
:10013000E1380100E138010031310100E13801000E
:10014000E1380100E1380100E1380100E138010047
:10015000B5540100C9540100DD540100F1540100FF
:10016000E1380100713F0100E1380100E138010090
:10017000E1380100E1380100E1380100E138010017
:10018000E1380100E1380100E1380100E138010007
:10019000E1380100E1380100E1380100E1380100F7
:1001A000E1380100E1380100E1380100E1380100E7
:1001B000E1380100E1380100E1380100524B4CF216
:1001C000205210B51A804DF628121A8000BF00BFC9
:1001D00013F08AFB4D4B4FF010621A604C4A9A6044
:1001E0004C4ADA6003F5533303F2D2331A7811071D
:1001F00003D51A7842F008021A70474B47492A2261
:100200001A70474A474B8B4204D252F8040F43F806
:10021000040BF8E7444B454900228B4202D243F8D5
:10022000042BFAE74249434A002352F8230041F8DD
:10023000230001336F2BF8D13F4B404A802103F854
:10024000011B9342FBD13E4B394A1A603D4B8A2237
:100250001A70A3F5805324225A70A0221A709A793A
:100260009207FCD59A79D406FCD4374A937903F0E7
:100270000C03082B344BF9D103221A7140225A7116
:100280009A799006FCD5304A91792F4B4906FBD5D7
:100290002E4A2F4911600221516020221A709A794A
:1002A00002F00C020C2AFAD12A4B2B4A1A602B4B73
:1002B0002B4A1A6000225A60072243F8042C294A6C
:1002C000C3F80C2D62B613F009FD274B1B68DA0743
:1002D00005D5264813F066FC254B264A1A60264BA6
:1002E0001B785B0609D5224C224B22689A4204D126
:1002F0001E4813F057FC0023236017F07DFA13F01B
:10030000F9FA15F05DFAFEE70E2005403080044052
:10031000823F04000100002B00E00740D8ABFF1F24
:10032000A8ED01004088FF1FD8ABFF1F34E2FF1F7C
:100330000082FF1F0000000000E400E05FE400E036
:1003400008ED00E0005006400040064044800440B4
:100350000000030104800440C010050014E000E028
:10036000FF7601000000202014D0034009A44F6054
:100370001CE00340A5C3945A00F00740FFFFFFFFB5
:10038000FFFFFFFFFFFFFFFFFFFFFFFFFFFFFFFF7D
:10039000FFFFFFFFFFFFFFFFFFFFFFFFFFFFFFFF6D
:1003A000FFFFFFFFFFFFFFFFFFFFFFFFFFFFFFFF5D
:1003B000FFFFFFFFFFFFFFFFFFFFFFFFFFFFFFFF4D
:1003C000FFFFFFFFFFFFFFFFFFFFFFFFFFFFFFFF3D
:1003D000FFFFFFFFFFFFFFFFFFFFFFFFFFFFFFFF2D
:1003E000FFFFFFFFFFFFFFFFFFFFFFFFFFFFFFFF1D
:1003F000FFFFFFFFFFFFFFFFFFFFFFFFFFFFFFFF0D
:10040000FFFFFFFFFFFFFFFFFFFFFFFFDEF9FFFF23
:1004100010B5054C237833B9044B13B10448AFF33E
:1004200000800123237010BDD8ABFF1F0000000027
:10043000A4ED0100084B10B51BB108490848AFF303
:1004400000800848036803B910BD074B002BFBD0A0
:10045000BDE81040184700BF00000000DCABFF1FE4
:10046000A4ED0100D8ABFF1F00000000704700BFE3
:10047000074A10B51378074C41F2F40083F00103EA
:1004800020581370194611F0D7F8012010BD00BF95
:1004900070B4FF1F28C5FF1F70B541F2F003284C50
:1004A0000546E05811F094FEB4F8863DB4F8842D6A
:1004B000181A83B29342A4F8863D2CD014D86A69E6
:1004C000002AC4BF02F1FF326A61AA685279022A87
:1004D00027D04FF0FF30FF22A4F8843D012185F89A
:1004E000632285F8621270BDA8686E690FF0C4FBC4
:1004F0002B69C01A864202DA6B6901336B61AB6803
:100500005B79022B09D123780D4A062B12D9B2F858
:10051000863DA4F8843D002070BDB4F8863D0120DE
:10052000D9E722780649002AF3D0013A0A704FF041
:10053000FF30D0E7013313700120B2F8863DCAE7DF
:1005400028C5FF1F024A41F2F003D05811F084BEC3
:1005500028C5FF1F10B5044600F58750083014F079
:1005600087FF04F5875014F083FF204610BD00BFBD
:10057000234B1B6803F16402904270B504DA643BBC
:10058000984201DD022070BD1E4B1B6803F164021E
:10059000904204DA643B984201DD032070BD1A4B9F
:1005A0001D680446B5F95800C0F13C0016F088FEFD
:1005B0000646B5F95A0016F083FE0146304616F09D
:1005C00087FF0646286E16F07BFE0146304616F081
:1005D000CBFE0646E86D16F073FE0146304616F077
:1005E000BBFD17F087F800F164039C4205DA64381C
:1005F0008442D4BF0020012070BD002070BD00BF28
:10060000A0ACFF1FA4ACFF1FF8BFFF1FF8B5427AD4
:1006100005460E4602B301230A701C46A97A89B129
:10062000C7291CD93831C9B2164FC1EBC1010F44DB
:10063000F018394617F0C0FE384617F021FF204465
:10064000C4B22346EA7A1AB10134E4B2F254234622
:100650000022F2542046F8BD13461446DEE70A4F46
:10066000C1EBC101F0183944062217F077FFA87AD0
:10067000C0EBC000384417F003FF2044C4B2234647
:10068000E0E700BF01D3FF1F08C301002DE9F041DF
:100690001A4D41F24C540646285911F037FD38B333
:1006A000B3685B79022B15D041F24C57DFF84C80D0
:1006B000E85911F02FFD044610B92046BDE8F0813D
:1006C00058F8070011F0CEFC0023C6F8543220463B
:1006D000BDE8F081D6F85432B3F57A7FE4D901242D
:1006E000002385F8824F2046C6F85432BDE8F081D9
:1006F000285911F0FFFCC6F85402D1E728C5FF1FA6
:10070000012070470120704738B50E4B01EB4101C5
:1007100005461944144617F021FF00232B550A4AB9
:1007200041F2F4032846D45817F0AAFE2368024683
:1007300029465B68204698472046BDE8384014F0BB
:10074000F7BE00BF58C4010028C5FF1F2DE9F04FB8
:100750002F4EDFF8C89041F2F40585B0735903902D
:100760001A6800274FF01A080197CDF80080146C22
:1007700018462D227B233946A047705901210FF0DE
:10078000E9FF745923492368A7822A224FF0010AFE
:100790004FF0040B5B682282A4F812A00822A4F890
:1007A0000EB020469847204614F0C2FE039A1A4B1A
:1007B000745953F82210A4F80EB03223238208464D
:1007C000039117F05DFE236803995B68024620469B
:1007D0009847204614F0ACFE705903688DE8000578
:1007E00025223946DC6C7B23A04713F007FAD9F8A1
:1007F000003047F22F52C01A904206D9705910F0BB
:1008000015FE13F0FBF9C9F8000005B0BDE8F08F44
:1008100028C5FF1FACC401006C89FF1F24C5FF1F42
:100820002DE9F04390F96332664E013387B00446F8
:1008300061D041F2F4030121F0580FF08BFF2569DC
:100840006369A0681D440FF017FA854280F2A88002
:100850006369276994F963821F44E368984541F20C
:10086000F40300F0A980F3580121002259829A82F2
:1008700002AD2946424620460FF062FA284617F09C
:10088000FFFD0D2807DC28440DF11602202300F897
:10089000013B9042FBD16269E369A16941F2F40036
:1008A000C2EB08083658093303EBC8034FF00009C0
:1008B0008DF8169028463382F18117F0E1FD3368F8
:1008C00002465B68294630469847304614F030FEB1
:1008D00094F8633201335BB2BB4284F8633202D0D6
:1008E00007B0BDE8F083FF2384F8629284F8633296
:1008F00007B0BDE8F08341F2F405012170590FF013
:1009000029FFA36872591F6800210120508291823B
:1009100018460FF0B1F900B200EB400102AD07EB51
:10092000C1010E22284617F019FE284617F0A8FD2F
:100930000D2807DC28440DF11602202300F8013BA6
:100940009042FBD141F2F408B4F91C3056F808701B
:10095000A26900218DF816102846FA813B8217F013
:100960008FFD3B68024629465B6838469847384603
:1009700014F0DEFDE26956F80800A1690568083246
:1009800012B201238DE80C0001F15403AD6C1BB2CF
:1009900009B2A847636984F8633207B0BDE8F08301
:1009A000A0680FF069F9E36894F9638298450746F7
:1009B00041F2F4037FF457AFF3580021012259822A
:1009C0009A8255E728C5FF1F70B5044608460D46B4
:1009D00017F056FD23680246294620465B68BDE8AD
:1009E000704018472DE9F04F002387B00122437073
:1009F00000F684530025027000F1040B0493059067
:100A00004FF07E53CBF80C304FF000038BF81E30C4
:100A10004FF0030300274FF001094FF03C084FF05F
:100A2000280AABF814304FF61943ABF81C308BF89A
:100A300010708BF811708BF812708BF81370CBF864
:100A40002070CBF82470CBF82870CBF82C70CBF842
:100A50003070CBF834708BF838708BF80470ABF8CA
:100A60001870ABF81A708BF808908BF809908BF817
:100A70000A808BF80BA0382014F0AAFE4FF08146B4
:100A800006614FF48066394646603A46E94B80F885
:100A900014908561056280F82470044612F03EF8D7
:100AA0009BF85A30CBF83C4003F0E00367F3461361
:100AB0008BF85A30E04BCBF844304FF07803ABF86A
:100AC0005E30ABF86A3040F6FF73CBF86030DB4B3A
:100AD000CBF864304FF07F038BF86C308BF86D30BF
:100AE0004FF47A73ABF86E304FF0FF338BF87430FD
:100AF0004FF003024FF6FF73ABF8582063604FF0DE
:100B00007E52CF4BCBF8502023618BF841708BF88D
:100B100040908BF848708BF84C908BF84D908BF888
:100B20004E808BF84FA08BF854708BF855708BF873
:100B300056708BF857708BF85B70ABF85C70ABF845
:100B40006870382014F044FE46604FF081464A46F3
:100B500039460661BB4B80F814908561056280F8C8
:100B60002470044611F0DAFF4FF00303ABF888302D
:100B70004FF61943ABF890304FF07E53CBF88030EE
:100B800040F6FF7363604FF08043CBF870408BF802
:100B900084708BF885708BF886708BF88770CBF833
:100BA0009470CBF89870CBF89C70CBF8A070CBF811
:100BB000A470CBF8A8708BF8AC70ABF88C70ABF865
:100BC0008E708BF892702361ABF81A708BF8757089
:100BD0008BF87C908BF87D908BF87E808BF87FA0D3
:100BE0008BF87870382014F0F3FD4FF4806646607F
:100BF0004FF08146394606613A468E4B80F8149094
:100C00008561056280F82470044611F087FF8A4AE6
:100C1000CBF8B8204FF00302ABF8CC204FF07802AD
:100C2000ABF8D22040F6FF729BF8CE30CBF8D42040
:100C3000824ACBF8D8204FF07802ABF8DE2003F0E0
:100C4000E0034FF07F028BF8E0208BF8E12067F3A0
:100C500046134FF47A72ABF8E2208BF8CE304FF0A7
:100C6000FF324FF6FF738BF8E82063604FF07E523F
:100C7000734BCBF8B040CBF8C4208BF8B5708BF831
:100C8000B4908BF8BC708BF8C0908BF8C1908BF847
:100C9000C2808BF8C3A08BF8C8708BF8C9708BF832
:100CA000CA708BF8CB708BF8CF70ABF8D070ABF804
:100CB000DC702361382014F08BFD4FF480664660B1
:100CC0004FF081464A46394606615E4B80F81490E3
:100CD0008561056280F82470044611F01FFF4FF60D
:100CE0001943ABF804314FF00303ABF8FC304FF07D
:100CF0007E53CBF8F43040F6FF7363604FF08043CF
:100D0000CBF8E440ABF88E708BF8E9708BF8F0907C
:100D10008BF8F1908BF8F2808BF8F3A08BF8F870D9
:100D20008BF8F9708BF8FA708BF8FB70CBF80871C0
:100D3000CBF80C71CBF81071CBF81471CBF818719B
:100D4000CBF81C718BF820718BF8EC70ABF800714C
:100D5000ABF802718BF806712361382014F038FD6E
:100D60004FF4806646604FF081463A463946314B33
:100D700006618561056280F8149080F8247004464D
:100D800011F0CCFE2C48CBF82C014FF00300ABF84F
:100D90003C014FF0FF309BF860218BF840014FF091
:100DA0007E50CBF834014FF6FF7060604FF0FF3398
:100DB00067F3030208212248CBF824418BF833A1C2
:100DC0008BF832818BF865818BF829718BF828912B
:100DD0008BF830918BF831918BF838718BF8397131
:100DE0008BF83A718BF83B718BF83E718BF844713C
:100DF000CBF84871CBF854718BF858718BF85C7153
:100E00008BF862718BF864718BF86691CBF867711F
:100E10008BF860218BF86311CBF86B7120618BF834
:100E20006F718BF80030049B8BF87071CBF8747184
:100E30000AE000BF17B7D1389F86010001F0FFFF1D
:100E4000000060420AD7233CCBF878718BF87E71A2
:100E50008BF87D718BF87C710BF5C07B9B457FF423
:100E6000CFADDDF814A04FF000048AF8A44D40F691
:100E7000FF74CAF8A84DB74CCAF8AC4D40F6FF74E1
:100E80009AF8882DCAF8B44DCAF8B84DB14CCAF8D2
:100E9000BC4D4FF0FF3340F6FF744FF00000AAF84E
:100EA000843D67F303029AF8D13DCAF8C04DA94CBE
:100EB0008AF88B1D8AF8882D47F230510246CAF80D
:100EC000C44D4FF47A7443EA09038AF88A0D8AF80C
:100ED0008C0DAAF8861D8AF8970D9F499F488AF8BD
:100EE000982DAAF8C84D11224FF000048AF8D13D80
:100EF0008AF8D04DCAF8CC0DCAF8D41D8AF8D82D7E
:100F0000394669228AF88D8D8AF88E9DCAF88F7DC0
:100F1000CAF8937DCAF89C7DCAF8A07DCAF8B07D56
:100F20000AF6D95016F0CEFF0AF644600EF0A6FE7F
:100F30008B4B8AF8644E8AF8724FCAF8443EFB2203
:100F40003946CAF8687FAAF8707FCAF8847F0AF623
:100F5000887016F0B7FF41F2900641F2840E41F21C
:100F6000880041F28C0341F294024AF80E700AF5AF
:100F700085544AF8007041F298054AF8037041F22E
:100F80009C0E4AF8067041F29D0041F2A4064AF810
:100F900002704FF000034FF0000C41F2A5024AF836
:100FA00005700AF80EC041F2A6050AF800C02760D5
:100FB0008AF8823F8AF8833FCAF8587ECAF8607E72
:100FC0008AF8819F0AF806304FF0FF330AF80230A2
:100FD00041F2A70E4FF0000341F2A80C0AF80530C9
:100FE00007264FF0FF3320460AF80E3036224AF823
:100FF0000C701B30CAF8546E5A4DCAF85C2E23464A
:101000004FF000067F21024684F82C90276384F875
:10101000386065630B3303F8011F834202F8011F38
:10102000F9D10AF5875241F2E806002014468021E2
:1010300041F2F8071171106041F2FC054AF8060010
:101040001173962284F83800C4F8280484F82C041C
:10105000C4F83004C4F8340484F86A040AF58853E8
:101060004AF8072040F267224AF8052041F20411AD
:101070004FF487621A6041F2081640F209634AF899
:10108000013041F20C1541F2101240F2DA734AF8C5
:10109000063041F2141140F6AB1340F67C364AF8A4
:1010A00005304AF8026040F64D550AF5A8530AF596
:1010B000AA524AF801501733014684F86B040932EA
:1010C00003F8011F93424FF00004F9D1942014F06B
:1010D0007FFB054611F072F941F2DC0324204AF847
:1010E000035014F075FB0423072206218DE8180035
:1010F0004FF0FF33054611F017F841F2F0031020CE
:101100004AF8035014F064FB044610F079FF41F2F2
:101110004C5315484AF8034010F0B6FB0E21124814
:1011200010F01AFC642014F053FB104B03930921B8
:1011300008220A238DE80E000B4B40228021044632
:101140000FF004FD41F2F40350464AF8034007B0A3
:10115000BDE8F08F01F0FFFF52491D3A9A99993F7F
:1011600054D10100B4DAFF1F449FFF1F00127A0020
:1011700030B583B00546069C002CCABFE0B2007DA6
:1011800028752B614BB942B2002A02DD194612F0D4
:101190001BFD00232B7003B030BD084BA9601B68FA
:1011A000019343B2019CEA600121002B6C6029701D
:1011B000F1DD12F009FD03B030BD00BFB0DEFF1F4E
:1011C00070B5064E41F24C55705910F0A3FF04461D
:1011D00010B1705910F046FF204670BD28C5FF1FA2
:1011E00038B5144C41F2F0030546E05810F0F0FF1A
:1011F000B4F8863DB4F8842D181A83B29342A4F84B
:10120000863D15D00C4A11680AD80029CCBF01F1DF
:10121000FF31002111604FF0FF30A4F8843D38BD4C
:10122000A942B8BF013111600120A4F8843D38BD46
:10123000002038BD28C5FF1F4CACFF1F10B5084962
:1012400041F2F4030022C85882B0402103688DE8BF
:10125000060011461C6C8023A04702B010BD00BFE1
:1012600028C5FF1F2DE9F04F914BDFF8789241F22E
:10127000F4048FB018590025402203688DE824003B
:1012800029461E6C2A468023B047894B01211859F4
:101290000FF060FA864B874918590368858201264A
:1012A0005B68C5810822058246829847804B197881
:1012B0001859314414F0A2F97D4B7F49185903683D
:1012C00007225B689847D9F80000002800F0D98011
:1012D00015F0F6FF4FF07C5116F046F815F0C2FB02
:1012E000734B1D59009602460B46284614F090F9A0
:1012F0006F4B72491C59236832465B6820469847F9
:10130000204614F015F9002306936D4B0793DFF880
:10131000D8810E230593059B079E043B1BB20493C3
:10132000069B1D4603EB4303039300240127039B05
:10133000D9F80020D8F800A0EB189A4200F09A8063
:101340004FF00003AAF81270AAF814300FFA84FBC9
:10135000BDF81030AAF8103009A8AAF80EB0002D78
:1013600000F09B8017F08CF8DAF8003002465B68DA
:1013700009A950469847504614F0DAF83378002B04
:101380006CD11E34A4B2782C06F1010605F10105DA
:10139000CDD1059B069A09339BB20593079B013279
:1013A0000433052A06920793B5D141F2F404404A6A
:1013B00044491059372302680382012500235668E7
:1013C00045828382C3810422B0473F4B384A196863
:1013D00010593E4E14F012F9354B3D491859036827
:1013E0002A465B689847324B3168185914F006F961
:1013F0002F4B3749185903682A465B689847354B85
:1014000030681E687368C01A15F05AFF0746B06846
:1014100015F056FF0146384616F05AF82E4915F0D9
:10142000A3FF15F01FFB224B1E59022702460B4655
:101430000097304614F0ECF81D4B20491E593368D4
:101440002A465B6830469847304614F071F8184BCE
:1014500018590FF0EBFF0FB0BDE8F08FD8F800007F
:10146000BDF9142003680097D3F83CA0594618230F
:10147000D04786E74FF00003AAF81230AAF814709C
:1014800064E70B4B15491C59236820465B6803220F
:101490009847204614F04CF835E7DAF80030104948
:1014A0005B68042250469847504614F041F868E7BC
:1014B00028C5FF1FB8C40100C4C40100CCC401008A
:1014C000C4AEFF1FDCC401004092FF1F7895FF1FD0
:1014D000E4C40100CCACFF1F00002041D0C40100D7
:1014E000D4C401004CACFF1F1CD6FF1F2DE9F04FE8
:1014F0009F4BA04AA04C1B681268596892F856602E
:101500009B6841F2F40785B0E05902930025402220
:10151000036803918DE8240029462A46D3F84080C9
:101520008023C047E05901210FF014F9E059934995
:101530000368858201224282C58105825B6803229D
:10154000984721780729C6F3411640F2DE80637878
:10155000E059022B03680CBF89498A495B68052260
:101560009847894F3B68002B40F0C78041F2F40157
:101570000122605843828282036884495B680822A2
:1015800098473B68012B00F0D58041F2F40301221B
:10159000E55800236A82AB822B687D495B68DFF8DF
:1015A000D8B10322284641F2F40A9847284613F09E
:1015B000BFFF54F80A5077492B684FF000084FF0EE
:1015C000010911225B682A82A5F812901022A5F861
:1015D0001480A5F80E8028469847284613F0A8FFE7
:1015E0003B685BF80A00022B4FF01B030382036881
:1015F00007BFA0F81280A0F81490A0F81290A0F8ED
:1016000014800022022EC2810CBF634963495B68CB
:10161000102298473B68032B41F2F40300F08480CA
:10162000E05801220023428283822523038203683B
:10163000022E4FF0000241F2F4050CBF58495949FF
:10164000C2815B681022984760595749026801239C
:10165000438237270023078257688382C38104228D
:10166000B847524B444A1B68002B0DDD504F55596B
:1016700003EB83031F44384616F002FF2B68024633
:1016800039465B682846984741F2F40503226059C1
:1016900048490368384F5B689847474B1868039B75
:1016A000022EA0EB03004CD015F00AFE064602986D
:1016B00015F006FE0146304615F00AFF3F4915F0C9
:1016C00053FE15F0CFF97D59022602460B460096CF
:1016D000284613F09DFF41F2F4060122A55938492E
:1016E0002B6828465B689847284613F021FFA059CD
:1016F00005B0BDE8F04F0FF099BE41F2F4030122AE
:10170000E05800234282838236E70131E05913F02A
:1017100075FF6378E059022B03680CBF29492A49F9
:101720005B68052298471CE7E058002201234282AB
:1017300083827AE741F2F40100226558AB826A8223
:101740002AE715F0BDFD8046029815F0B9FD014667
:10175000404615F0BDFE1D4915F006FE15F082F954
:101760007D59009602460B46284613F051FFB2E71A
:10177000CCACFF1FF8BFFF1F28C5FF1FE8C4010046
:10178000ECC40100F4C401004CACFF1F0CC5010007
:10179000D0C4010018C501002CC5010040C50100DE
:1017A00054C5010068C50100DCC401004092FF1F60
:1017B00060BE01007CC501007895FF1F000020413C
:1017C000CCC40100FCC4010004C501000000A0401D
:1017D0002DE9F04F884B894E41F2F4050024585909
:1017E0008BB0402203688DE8140021461F6C22460E
:1017F0008023B847804B012158590EF0ABFF7E4B38
:101800007F4958590368C48101275B680482848238
:1018100047820A2298473368002B40F0E080764ADE
:10182000505943828782036876495B68082298474B
:101830003368012B00F0D88041F2F4036E49CC5894
:10184000012200236282A38223686F495B68DFF86C
:10185000D091032220469847204613F069FE41F2BA
:10186000F405654B69495C5923684FF000080A226A
:1018700001265B682282A4F80E801422A4F812804C
:10188000A68220469847204613F052FE5A4B6049E4
:101890005C592368A4F80E8025225B6822822046CA
:1018A00014229847204613F043FE534B53F805A0EB
:1018B000584B594D0393AAF81260AAF814804FEAC6
:1018C000A80606EB460659F804BF06EBC60608F064
:1018D00003074FF0000CB6B2C7EB071706F113036E
:1018E0007F00E345AAF81030AAF80E708DF818C0F2
:1018F00064DB05AB06AC9C44A64601209BFBF0F3E1
:1019000085FB0321DA17C2EBA10202EB8202A3EBF3
:10191000420330330EF8013D00EB8000E6454FEA0C
:101920004000EBD105A816F0ABFDDAF80030024616
:101930005B68504605A99847384BD3F800A0039B35
:1019400053F8041F039306F11C030026B142AAF8C2
:101950000E70AAF810308DF8186029DB05AB1E4414
:10196000012091FBF0F385FB0327DA17C2EBA702F6
:1019700002EB8202A3EB4203303304F8013D00EB9B
:101980008000A6424FEA4000EBD105A816F078FD92
:10199000DAF80030024608F101085B68504605A9F4
:1019A0009847B8F1080F11D01C4BD3F800A086E778
:1019B0002D2349428DF814300126CFE72D23CBF19A
:1019C000000B8DF814304FF0010C92E741F2F40354
:1019D000094AD0580FF02AFD0BB0BDE8F08F064B36
:1019E0005859478284821EE741F2F4010248445864
:1019F0000022A382628227E728C5FF1F4CACFF1F8D
:101A000080C501008CC50100D0C4010098C501004B
:101A1000B0C501004CB4FF1F676666661CD6FF1F89
:101A2000A4ACFF1F7C4B1A68F0B40346D46DB2F926
:101A3000580007290CD8DFE801F0042D32517292CA
:101A4000B20D764A106891889279186099809A71DF
:101A5000F0BC7047126E0026A4185E7100F1BD80C4
:101A60006F4F1E440120053394FBF0F287FB0215F3
:101A7000D117C1EBA50101EB8101A2EB410230328C
:101A800003F8012D00EB8000B3424FEA4000EBD198
:101A9000F0BC7047634A10681860F0BC70470026BD
:101AA000041E5E71C0F2B2805D4F1E4401200533FA
:101AB00094FBF0F287FB0215D117C1EBA50101EBF6
:101AC0008101A2EB4102303203F8012D00EB8000CE
:101AD0009E424FEA4000EBD1F0BC7047B2F95A6029
:101AE000002536185D7100F18C804D4F1D4401209A
:101AF000053396FBF0F287FB0214D117C1EBA4016A
:101B000001EB8101A2EB4102303203F8012D00EB21
:101B10008000AB424FEA4000EBD1F0BC7047B2F915
:101B200064600025AE425D7166DB3D4F1D440120BF
:101B3000053396FBF0F287FB0214D117C1EBA40129
:101B400001EB8101A2EB4102303203F8012D00EBE1
:101B50008000AB424FEA4000EBD1F0BC7047B2F9D5
:101B600066600025AE425D7141DB2D4F1D440120B2
:101B7000053396FBF0F287FB0214D117C1EBA401E9
:101B800001EB8101A2EB4102303203F8012D00EBA1
:101B90008000AB424FEA4000EBD1F0BC704700261A
:101BA000B4425E711EDB1E4F1E440120053394FBC0
:101BB000F0F287FB0215D117C1EBA50101EB810102
:101BC000A2EB4102303203F8012D00EB8000B3425A
:101BD0004FEA4000EBD1F0BC70472D2264421A70EE
:101BE00001263DE72D2264421A700126DBE72D22F3
:101BF00076421A700125B8E72D2276421A70012527
:101C000093E72D2276421A7001256EE72D22644259
:101C10001A70012648E700BFF8BFFF1FC8C50100C2
:101C200067666666D0C401002DE9F04F684CDFF8A6
:101C3000C8A141F2F4068BB0A059002540220368E8
:101C40008DE8240029462A461F6C8023B847A059F6
:101C500001210EF07FFDA0595E49036885820122B3
:101C60005B684282C5810322058298472178A0598A
:101C7000013113F0C3FC6378A059022B036808BF3D
:101C800055495B6818BF554905229847DAF8003076
:101C9000002B40F0838041F2F4010122605843821E
:101CA000828203684E495B6808229847DAF8003060
:101CB000012B7BD041F2F4030122E55800236A8214
:101CC000AB822B6847495B68DFF8209103222846E6
:101CD0009847284613F02CFC41F2F4030122E45803
:101CE000414923686282002610225B682282A68214
:101CF000E68120469847204613F01AFC1C234FF03B
:101D0000020B02934FEA4608BDF90830039308F12D
:101D1000020818250024D9F8003001210022598238
:101D20009A82002E49D0DAF8002008EB0401914293
:101D30004FF001002ED0002258829A82BDF80C206C
:101D4000DA811D820BEB040105A8FFF76BFED9F8C1
:101D5000007005A816F094FB3B6802465B6805A975
:101D6000384698470134384613F0E2FB0A35022C16
:101D7000ADB2D0D1029B01362A339BB2022E029320
:101D80000BF1020BBED1194B18680FF04FFB0BB0D3
:101D9000BDE8F08F002159829882CFE741F2F40329
:101DA0000122E0580023428283827AE741F2F40163
:101DB00000226558AB826A8283E718460C4924B139
:101DC000FEF702FE094B1B68ADE718460949F7E725
:101DD00028C5FF1FE8C40100FCC4010004C50100C0
:101DE0000CC50100D0C40100D0C501001CD6FF1FE6
:101DF000E4C50100ECC501004CACFF1F30B40D4B35
:101E00005B78012B0C4B0AD91C68E56C056094F9D2
:101E1000500008701B681B6A136030BC70471B6859
:101E20009C6C046093F94C0008701B6A136030BC12
:101E3000704700BF28C5FF1FF8BFFF1F2DE9F04FF7
:101E400091B008AA0DF1130107A8FFF7D7FF089872
:101E5000AC4C15F031FAAC4915F03AFB0146AB48F1
:101E600015F036FBAA4915F033FB41F2F40607469C
:101E7000A05900250368019540220092D3F84080C4
:101E80002A4680232946C047A05901210EF062FC52
:101E9000A059A0490368858201225B684282C581FE
:101EA0000322058298472178A059013113F0A6FB3F
:101EB0006378022B00F07981032B00F06F81012BF6
:101EC00000F0B580944E3368002B40F0A88041F2BA
:101ED000F401012260584382828203688F495B6863
:101EE000062298473368012B00F0518141F2F40338
:101EF0000122E55800236A82AB822B6888495B681F
:101F0000DFF800A20422284641F2F4099847284647
:101F100013F00EFB54F8095082492B684FF000086B
:101F20000C224FF0010B5B682A82A5F812B0122236
:101F3000A5F81480A5F80E8028469847284613F087
:101F4000F7FA54F809001423A0F80E800382022146
:101F50000EF000FC3268022A70D041F2F4019DF9C3
:101F600013306558053301216982D9B200200A294E
:101F7000A88273D9022A00F084800DF124082B680E
:101F800069495B684FF001094FF0000A0222A5F889
:101F90001290A5F814A028469847384614F062FD20
:101FA0000B4602466149404616F0E0F93368032BC0
:101FB00000F09B8041F2F4030122E55800236A827D
:101FC000AB82404616F05CFA2B6802465B684146DD
:101FD00028469847284613F0ABFA3368032B00F0E5
:101FE000AF8041F2F40501216059514E454F0EF08A
:101FF000B1FB6359002201219A82598211F0FEFD42
:10200000336847F22F52C01A904205D978590FF021
:102010000DFA11F0F3FD306011B0BDE8F08F41F220
:10202000F4030122E05800234282838255E7A0593D
:102030004049036806225B68984743E73E4B1B789C
:10204000002B8AD09DF913305AF809500533DAB2C3
:102050000A2AA5F81280A5F814B08ED8374A52F88B
:102060002380404616F00CFA2B6802465B6828462F
:1020700041469847326841F2F403022AE5587FF45A
:102080007CAF2D4B1A78002A7FF477AF9DF913307F
:102090002A4905330DF11A0C51F82310CDF808C068
:1020A0000DF1180E0DF1160341F2F4090DF124089B
:1020B00028468DE80840CDF80C8014230EF08AFCE9
:1020C00054F80900BDF92410056800914FF0010E85
:1020D000CDF804E0ED6CBDF91A30BDF91820BDF95A
:1020E0001610A84754F8095049E7134B1B78002BEA
:1020F0003FF460AF41F2F403E558A5F812A0A5F84B
:1021000014905EE728C5FF1F00007A4400606A470C
:102110000000C041E8C401004CACFF1FC8C501006D
:10212000D4C401000CC6010008C6010020C601008D
:1021300014ACFF1FF4C501002C97FF1F0CBE01005B
:102140001D4B1B78002B7FF44CAF41F2F4050DF1D1
:102150001A03039306AE0DF1160205AB6059029601
:102160004146019200933C2214230EF033FC605947
:10217000BDF91A600568009601260196BDF9183070
:10218000BDF91620BDF91410ED6CA84729E741F2FE
:10219000F40100226558AB826A82AEE6A059074975
:1021A000036806225B6898478CE6A05904490368D7
:1021B00006225B68984785E62C97FF1F04C601003E
:1021C000FCC5010000B5807B00F01F031E2B15D855
:1021D000DFE803F01D1D51515151373F515151510D
:1021E000512923161D1D51515151511D1D1D1631CF
:1021F000454B100000200B23088013805DF804FB82
:10220000002043F6FF73088013805DF804FBC0F3E1
:102210004110012833D0022839D000207F230880C4
:1022200013805DF804FB4FF4004047F6FF7308800D
:1022300013805DF804FB00200723088013805DF8FD
:1022400004FB4FF4604041F6FF73088013805DF893
:1022500004FB00206423088013805DF804FB002049
:102260003323088013805DF804FB082013230880C3
:1022700013805DF804FBC0F341100128CDD14FF667
:1022800080704FF48073088013805DF804FB002099
:102290003C23088013805DF804FB00BF827B01F0C3
:1022A0001F0161F304021F29827314D010B50122AB
:1022B000194C02FA01F10C4034B9184A0A405AB9D3
:1022C000174A0A40D2B910BD00217F2201828183C2
:1022D0004282C28310BD7047827BC2F34112022A40
:1022E00006D13C217822048284834182C28310BDBE
:1022F0007822048284834282C28310BD044600F1A6
:102300001E0200F11C01FFF75DFFB4F91C20E38BF6
:1023100022829B1A6382D6E73C1F7C000300830362
:10232000C0E0007C2DE9F041554D564C2978564BC4
:1023300062780020012918607FD0012A40F286804F
:10234000022A7AD0032A52D0504E306890F8563084
:10235000DFF868814E4FDFF868E1DFF868C113F0FD
:10236000600218BF012288F8002000F158023A608C
:10237000C26DCEF80020DFF850E1026ECCF80020EC
:10238000444AB0F864C0AEF800C0DFF840E1B0F8ED
:1023900066C0A2F800C0404AB0F858C0AEF800C00D
:1023A000B0F85AE0A2F800E001F0FD02012A08D1DD
:1023B0003A4AC3F30403002148301370FFF76EFF5D
:1023C0002978374B374A384D38484FF0010EC3F85B
:1023D00000E04FF0FF33136071454FF000022B60B7
:1023E00002700DD0324B01201870BDE8F0812078CA
:1023F000264E00EB400004EBC0107C303060A5E7B7
:102400003568386895F856602A4B2B4962F34616B2
:1024100085F85660D4F8A85DD4F8AC4D846045606A
:1024200003F1140003F8012F834241F8042FF9D17E
:102430001F4B01201870BDE8F0812078134E00EB8F
:10244000400004EBC010083030607FE7052901D060
:10245000BDE8F081012A7FF477AF237810490B4E55
:102460000A6003EB430304EBC3130E4D0E4C0F49FC
:102470004FF0FF32F03333602A6022600870B1E71A
:1024800021ACFF1F28C5FF1FF4ABFF1FF8BFFF1FC4
:10249000CCACFF1F5C90FF1FD8ACFF1F3CACFF1FF4
:1024A0004CACFF1F7895FF1F4092FF1FD0ACFF1F61
:1024B00010ACFF1FC3AEFF1FE8B3FF1F84B4FF1FA4
:1024C000A8DAFF1F18C5FF1F9CDDFF1F68ACFF1FA8
:1024D0002DE9F043DFF8C8802B4F98F80030052233
:1024E00087B03A707BB1294E3568ADB1A84720B9A5
:1024F0000024204607B0BDE8F08300242046346065
:1025000007B0BDE8F083FFF70DFF0028EBD10124F1
:10251000204607B0BDE8F0831D4B18780238FEF75F
:102520005FFE2846FFF78AFCFEF74AFE04460028B5
:10253000DED0184B1B68012B06DD023B164A52F811
:10254000233033602C46D4E7144E41F2F40340228A
:10255000F05803688DE824002946D3F840902A46B5
:102560008023C84705AA0DF10F0104A888F8005080
:102570003D70FFF743FC9DF80F20049B86F8D02D9B
:10258000C6F8CC3DB5E700BF21ACFF1FF4ABFF1F81
:102590008C92FF1F4CACFF1F7889FF1F28C5FF1FBF
:1025A00010ACFF1F2DE9F04FA54BA64D1B78032261
:1025B00083B02A70002B00F0A680A34BA34E1F68A7
:1025C00097F85640F86DC4F34114022C00F0B8801F
:1025D00014F076FE8046B7F95A00B7F958B014F0F7
:1025E0006FFE8246386E14F06BFE8146CBF1180008
:1025F00014F066FE514614F06BFF494614F0B4FE29
:10260000414614F0A9FD15F075F83060CBF160007B
:1026100014F056FE514614F05BFF494614F0A4FE38
:10262000414614F099FD15F065F8DFF85892C9F8A5
:1026300000008749874ADFF850A2B7F916300878BA
:10264000B98ACAF800101360FEF7CAFDFEF74EFF04
:10265000FEF7B6FD804600283CD0DFF83082D8F87F
:102660000000012840F3C680022800F0BD80032846
:1026700000F0B4803568D9F80000022CA0EB05000A
:1026800000F0908014F01CFE0446284614F018FE5A
:1026900021460546204614F05FFD6F4914F018FFEF
:1026A0000146284614F056FD15F024F86B490546FE
:1026B000204614F059FE684914F00AFF15F01AF884
:1026C000674B1B684FF000085D609860404603B0A0
:1026D000BDE8F08F2B78032BF8D1BAF80000FDF796
:1026E00047FF604A41F29D03D35C002BEED00028E7
:1026F000ECD05D4B1A788242E8D0DFF890811870F8
:10270000C8F80000ADE7FFF70DFE044600287FF48F
:1027100054AF544D55494FF00108FF2205F665604E
:1027200085F8648E15F01AFF4FF4FA621123A5F8AC
:102730006C4FA5F8704FC5F8682FA5F86E3FC5E738
:1027400014F0BEFD8346B7F95A00B7F958A014F04B
:10275000B7FD8146386E14F0B3FD8046CAF10C0017
:1027600014F0AEFD494614F0B3FE414614F0FCFDF2
:10277000594614F0F1FC14F0BDFF3060CAF130008E
:1027800014F09EFD494614F0A3FE414614F0ECFD02
:10279000594614F0E1FC14F0ADFFDFF8E890C9F8F9
:1027A000000046E714F08CFD0446284614F088FD2E
:1027B0002F490546204614F08BFE0146284614F0AA
:1027C000C9FC14F097FF2B490546204614F0CCFDB8
:1027D000274914F07DFE14F08DFF71E7DAF8000050
:1027E0003568C9F8000048E7DAF800503560D9F8D4
:1027F000000042E71B4941F2F4030022C85840217F
:1028000003688DE8060011461C6C8023A0470E4B20
:102810001868194B48301978FFF740FDD8F8003098
:102820003BB90F4B1549164A1B6809681268596075
:102830009A60034A002313702B704FF0010845E79C
:1028400010ACFF1F21ACFF1FF8BFFF1FA0ACFF1F84
:10285000409FFF1F4092FF1F0000C040000020412A
:10286000CCACFF1F28C5FF1FD0ACFF1F28C601003E
:10287000000040400000A0403CACFF1FA8DAFF1F52
:1028800018C5FF1FA4ACFF1F7895FF1F4CACFF1F9E
:1028900010B582B002AB42F2257243F8042D044613
:1028A000017004221846002110F07EFF204601220C
:1028B000022110F079FF032002B010BD70B506466A
:1028C000044616F8041BFFF7E3FF04220546014601
:1028D000304610F069FF291D04F10800042210F0B1
:1028E00063FF05F1080104F10C00042210F05CFF05
:1028F00005F10C0104F11000042210F055FF05F160
:10290000100104F11400042210F04EFF05F114012F
:1029100004F11800042210F047FF05F1180104F13A
:102920001C00042210F040FF05F11C0104F12000FE
:10293000042210F039FF05F1200104F1350069226D
:1029400010F032FF05F1890104F12800042210F093
:102950002BFF05F18D0104F12C00012210F024FF62
:1029600005F18E0104F13000042210F01DFF04F186
:10297000340005F19201012210F016FF962070BD7F
:1029800070B5064682B0002010F0AAFE8DF8060051
:10299000012010F0A5FE8DF80700BDF8062042F2D8
:1029A00025739A4203D00023184602B070BD02205E
:1029B00010F096FE03288ABFFF2330703370F51C99
:1029C0000324204610F08CFE0134072C05F8010F7B
:1029D000F7D1F51D204610F083FE01340B2C05F8CD
:1029E000010FF7D106F10B05204610F079FE0134F6
:1029F0000F2C05F8010FF7D106F10F05204610F056
:102A00006FFE0134132C05F8010FF7D106F1130501
:102A1000204610F065FE0134172C05F8010FF7D1A0
:102A200006F11705204610F05BFE01341B2C05F85B
:102A3000010FF7D106F11B05204610F051FE0134BD
:102A40001F2C05F8010FF7D106F11F05204610F0E5
:102A500047FE0134232C05F8010FF7D106F13405A8
:102A6000204610F03DFE01348C2C05F8010FF7D103
:102A700006F12705204610F033FE0134902C05F8AE
:102A8000010FF7D1204610F02BFE06F12F0586F836
:102A90002C009124204610F023FE0134952C05F8DB
:102AA000010FF7D1204610F01BFE962386F8340064
:102AB000184602B070BD00BF2DE9F843099C089E7E
:102AC0000F46904699461CB1086814F013FEA047C3
:102AD0001D4D41F2F003E8580FF07AFBB5F8864D32
:102AE000B5F8843D201A84B29C42A5F8864D24D0C6
:102AF00094BF06F100403046396814F02DFB414682
:102B0000064614F0CFFD58B94946304614F0E8FDAA
:102B100068B1C7F800900020A5F8844DBDE8F8839F
:102B2000C7F800800020A5F8844DBDE8F8833E601A
:102B30000020A5F8844DBDE8F88341F24C53E858D5
:102B4000BDE8F8430FF0E6BA28C5FF1F2DE9F043B2
:102B5000284D6B78012B85B0274B44D91B68186A28
:102B600003F14C0903F1200414F0A6FB234914F0EF
:102B7000AFFC0146224814F0ABFC224914F0A8FC3B
:102B800013F0D4FA04A9204A41F8040D4FF07E5303
:102B900080460192009300221C4B1D48FFF78CFFDA
:102BA0001C4B039F187006461449384614F090FCDD
:102BB0000146134814F08CFC124914F089FC14F0FF
:102BC000BFFD41462060384614F082FCD9F8001061
:102BD00014F0CAFB0346C9F800003046C5F8CC3DE6
:102BE00005B0BDE8F0831C68206A04F14809203470
:102BF000BAE700BF28C5FF1FF8BFFF1F00007A44D7
:102C000000606A470000C0413D1E00000000FA431A
:102C10006CD3FF1F2C97FF1F70B51F4D6B78022BD5
:102C200084B032D0032B29D0012B02D000231B7A91
:102C3000FFDE2C7804EB440405EBC41404F59A740D
:102C400094F9080014F03CFB04A9144A41F8040D5F
:102C50004FF07E5301920093114A124B1248FFF736
:102C60002BFF124B06461E70039814F043FD40B232
:102C7000207285F8D00D304604B070BD2C7804EB7E
:102C8000440405EBC414C434DAE72C7804EB4404A0
:102C900005EBC4145034D3E728C5FF1F3D1E0000C8
:102CA0000000A0C00000A0406CD3FF1F2C97FF1FA6
:102CB0002DE9F843099CDDF820900E4690461F460A
:102CC0000CB10868A0471C4D41F2F003E8580FF022
:102CD0007FFAB5F8864DB5F8843D201A84B29C423F
:102CE000A5F8864D21D0E01A14F0EAFA494614F00E
:102CF0003BFB8146306814F0E3FA0146484614F085
:102D00002BFA14F0F7FC404508DB8742A8BF0746C2
:102D100037600020A5F8844DBDE8F883C6F8008030
:102D20000020A5F8844DBDE8F88341F24C53E858E3
:102D3000BDE8F8430FF0EEB928C5FF1F2DE9F047B5
:102D4000234CBDF82090099D41F2F0070646E0595A
:102D500090460F469A460FF03BFAB4F8863DB4F819
:102D6000841D184480B2A4F8860D884296F861222A
:102D70001BD2AB5C013BDBB22F2B98BF3923AB548A
:102D800028460A22002115F0B9FC4045386013DAC4
:102D9000B4F8860DC7F8008041F24C53A4F8840DB6
:102DA000E058BDE8F0470FF0B5B9F5D95AB909F1C7
:102DB000FF3986F86192EFE75045C8BFC7F800A019
:102DC000B4F8860DE8E7013A86F86122E4E700BF2F
:102DD00028C5FF1FF8B5204C41F2F0030546E05826
:102DE0000E4617460FF0F4F9B4F8863DB4F8841D8A
:102DF000184480B2A4F8860D95F861228842B35C2D
:102E00001ED20133DBB213F0800F18BF2023B3545E
:102E1000B4F8860DA4F8840D41F24C53E0580FF03D
:102E200079F960B195F86132013FBB4207D013B91F
:102E30003278202A0ED0013385F861320020F8BDA7
:102E4000E8D9013BDBB21F2B98BF7F23B354B4F802
:102E5000860DDFE73370F8BD28C5FF1FF0B5DFF83A
:102E600044E041F2F40583B008465EF80550BDF831
:102E700020601F46144615F003FB04EB4404A40035
:102E80002A68033400EB40031221002001900091D6
:102E900004EB43031BB2146C39B2284632B2A0478C
:102EA00003B0F0BD28C5FF1F2DE9F04FDFF8BC804F
:102EB00041F2F40785B00E469B4658F80700BDF86E
:102EC0003890012114460DF045FC0BF1020058F832
:102ED000075083B21A464FF0010A09F105034FF07B
:102EE0000001EA812B82A5F812A0A9823046039244
:102EF00015F0C6FA2B6802465B68314628469847AB
:102F0000284612F015FB58F8070002210DF022FCAC
:102F100058F807504FF00001A9823046A5F812A0DA
:102F200015F0AEFA039A00EB400002EB400009EB0B
:102F30000A03E8812B82304615F0A2FA04EB440420
:102F4000A4002E68CDF804A000EB40000334122248
:102F5000009204EB40031BB20FFA89F20FFA8BF1D7
:102F60002846F46CA04705B0BDE8F08F28C5FF1FC8
:102F70002DE9F04F87B01F46BDF840400494254628
:102F8000BDF844400094A9468846029316462B4655
:102F90003A46054605940391FFF760FF4B463A46D3
:102FA000009441462846FFF77FFF41F2F403254A8B
:102FB000254F52F803B000245B46A146A3464FF0CC
:102FC00001081C4617E095F861325345236804BF99
:102FD000A4F81290A4F814801B6816F80A109847F9
:102FE00095F861323C68534504BFA4F81280A4F8F8
:102FF00014900BF1010B304615F042FA1FFA8BFAD0
:1030000050452046DFD822681049A3465468002264
:10301000A047584612F08CFA029A31462846FFF72C
:10302000D9FE58B1059B00932846049B029A039948
:10303000FFF714FFFF2385F86132012007B0BDE8D8
:10304000F08F00BF28C5FF1F1CD6FF1FE4C701007B
:10305000F0B5044690F8610287B0FF28BDF8305003
:10306000BDF834600AD08DE860002046FFF780FF8D
:1030700010B1FF2384F8613207B0F0BD002084F85E
:103080006102104605930491039215F0F9F9059B2E
:10309000039A04999842E6D207DA104402EB030E31
:1030A000202700F8017B7045FBD10020D054DAE7DF
:1030B000102B2DE9F84F05460C464FF0000E55D861
:1030C000724501F803E057DB9E4518DADFF8BCC013
:1030D000E718012692FBF6F18CFB0108C817C0EB3C
:1030E000A80000EB8000A1EB4001013B06EB860647
:1030F000303173454FEA460607F8011DEADC214AE4
:10310000DFF88C9041F2F4034FF00008D758C34623
:103110004FF0010A17E095F86132B3423B6804BFF3
:10312000A7F812B0A7F814A01B68A15D984795F8FE
:103130006132D9F80070B34204BFA7F812A0A7F813
:1031400014B008F10108204615F09AF91FFA88F624
:10315000B0423846DFD83B680B495B6838460022EE
:1031600098473846BDE8F84F12F0E2B9724581F849
:1031700010E04FF01003A9DA2D21524221704FF0D8
:10318000010EA1E728C5FF1FE4C701006766666658
:103190001CD6FF1F2DE9F04F89B00546BDF84C4005
:1031A000BDF85060BDF8547000978B469046994624
:1031B00022463346FFF752FE3346009722465946D1
:1031C0002846FFF771FE169B0DF10C0A5BB35046C3
:1031D0002246D8F80010984795F86132FF2B16D098
:1031E0008DE810044A464146129B2846FFF7A6FD8B
:1031F00050B133462846009722465946FFF72EFE27
:10320000FF2385F86132012009B0BDE8F08F00226C
:103210004FF07E53019200934A464146129B284646
:10322000FFF746FDE4E751462346D8F8002028463C
:10323000FFF73EFFD0E700BFF0B51C4A137803EB61
:103240004303DB01D11889B091F85E00C00626D196
:1032500001F5A074B1F84011079141F2A50313499B
:10326000D25C124DFF2A04BF0322CA542D2700232B
:103270004FF47A7204268DE844000D49049305F654
:1032800044600293039707AAFFF784FF18B141F245
:10329000A503FF22EA54079B238009B0F0BD134425
:1032A000B1F85C1003F15C04D6E700BF28C5FF1F2E
:1032B0003CC601002DE9F0432B4D2C49D5F8D40D27
:1032C000294E89B014F050F814F014FA41F2A50315
:1032D0002D21EA5C0790FF2A04BF0422EA54244B04
:1032E0000093052200230391019206F644600493A3
:1032F000029307AA1F49FFF74DFF804638B341F2FA
:10330000A503FF22F254079813F0DAFF174914F0CF
:10331000DFF834460146C6F8D40D06F54067B146DD
:1033200001E0D9F8D41D95F8D86DD4F8E8000FF075
:1033300017FD304613F0C0FF04F5C07454F8983CF4
:10334000A7421861EDD1404609B0BDE8F083079867
:1033500013F0B6FF054914F0BBF8C6F8D40D40468B
:1033600009B0BDE8F08300BF28C5FF1F0050C34768
:103370003F420F0048C60100F0B5154C154A2378AE
:10338000154989B003EB430304EBC313049293F88C
:10339000643108AA1B0942F8043D2D2700230226A8
:1033A0000B25029304F6446003978DE86000FFF755
:1033B000F1FE2378079A03EB430304EBC31494F85C
:1033C000643162F3071384F8643109B0F0BD00BFC3
:1033D00028C5FF1F0907000054C601002DE9F0436E
:1033E0001D4D1E4995F8D80D89B008AA0023042662
:1033F0002D274FF4807442F8040D8DE8500005F637
:103400004460049302930397FFF7C4FE9DF81C6089
:1034100085F8D86D814618B9484609B0BDE8F083F3
:103420002C4605F54067A84601E098F8D86DD4F819
:10343000E800D5F8D41D0FF093FC304613F03CFFA4
:1034400004F5C07454F8983CBC421861EDD148466C
:1034500009B0BDE8F08300BF28C5FF1F60C60100AA
:10346000F0B52F4C6378022B89B032D0032B29D0D2
:10347000012B02D000235B78FFDE237803EB4303AC
:1034800004EBC31303F59A7308AA5B78244E42F841
:10349000043D2D27002503974FF0030E7F272B4671
:1034A0002049049506F6446002958DE88040FFF7B8
:1034B00071FE6378022B28D0032B1CD0012B0FD078
:1034C0006D70FFDE237803EB430304EBC313C433B7
:1034D000DAE7237803EB430304EBC3135033D3E75A
:1034E000337803EB430306EBC31606F59A76079B86
:1034F000737009B0F0BD337803EB430306EBC316DA
:10350000C436079B737009B0F0BD337803EB4303F7
:1035100006EBC3165036079B737009B0F0BD00BFB1
:1035200028C5FF1F68C60100F0B52E4C6378022B3A
:1035300089B031D0032B28D0012B02D000231B7877
:10354000FFDE237803EB430304EBC31303F59A7305
:1035500008AA1B7842F8043D224D23492D2300265A
:103560000393032710238DE8880005F644600123A8
:1035700004960296FFF70EFE6378022B28D0BB421A
:103580001CD0012B0FD03670FFDE237803EB4303F2
:1035900004EBC313C433DBE7237803EB430304EBEF
:1035A000C3135033D4E72B7803EB430305EBC31568
:1035B00005F59A75079B2B7009B0F0BD2B7803EBCE
:1035C000430305EBC315C435079B2B7009B0F0BD51
:1035D0002B7803EB430305EBC3155035079B2B708A
:1035E00009B0F0BD28C5FF1F74C60100F0B5314C0D
:1035F0006378022B89B037D0032B2ED0012B02D059
:1036000000235B68FFDE237803EB430304EBC31363
:1036100003F59A735868274D14F06CF808AA002631
:103620002D270321FF2342F8040D039701910093F6
:1036300005F644600123049602961F49FFF7AAFD90
:103640006378022B07462DD0032B24D0012B12D0F8
:10365000079813F035FE7060FFDE237803EB430319
:1036600004EBC313C433D5E7237803EB430304EB24
:10367000C3135033CEE72B7803EB430305EBC3159D
:1036800005F59A75079813F01BFE6860C4F8CC0D19
:10369000384609B0F0BD2B7803EB430305EBC315A7
:1036A000C435EFE72B7803EB430305EBC315503527
:1036B000E8E700BF28C5FF1F84C60100F0B52E4C07
:1036C0006378022B89B033D0032B2AD0012B02D090
:1036D00000231B7AFFDE237803EB430304EBC313C1
:1036E00003F59A7308AA93F9083042F8043D224D75
:1036F00022492D2300260393042778238DE8880090
:1037000005F644606FF0770304960296FFF742FDDA
:103710006378022B28D0032B1FD0012B0FD03672D9
:10372000FFDE237803EB430304EBC313C433D9E771
:10373000237803EB430304EBC3135033D2E72B7816
:1037400003EB430305EBC31505F59A759DF91C3092
:103750002B7284F8D03D09B0F0BD2B7803EB430306
:1037600005EBC315C435F1E72B7803EB430305EBF9
:10377000C3155035EAE700BF28C5FF1F90C60100FA
:10378000F0B5324C6378022B89B035D0032B2CD0A6
:10379000012B03D0002393F82030FFDE237803EBC6
:1037A000430304EBC31303F59A7308AA93F820307C
:1037B000264E42F8043D2D27002503974FF0030EB7
:1037C0007F272B462249049506F6446002958DE832
:1037D0008040FFF7DFFC6378022B2BD0032B1ED039
:1037E000012B10D085F82050FFDE237803EB430334
:1037F00004EBC313C433D8E7237803EB430304EB90
:10380000C3135033D1E7337803EB430306EBC316FE
:1038100006F59A76079B86F8203009B0F0BD33781C
:1038200003EB430306EBC316C436079B86F8203030
:1038300009B0F0BD337803EB430306EBC3165036F3
:10384000079B86F8203009B0F0BD00BF28C5FF1FD8
:10385000A0C60100F0B5324C6378022B89B035D098
:10386000032B2CD0012B03D0002393F82130FFDE53
:10387000237803EB430304EBC31303F59A7308AAFD
:1038800093F82130264E42F8043D2D27002503975A
:103890004FF0030E7F272B462249049506F644601D
:1038A00002958DE88040FFF775FC6378022B2BD0E2
:1038B000032B1ED0012B10D085F82150FFDE23787A
:1038C00003EB430304EBC313C433D8E7237803EBC0
:1038D000430304EBC3135033D1E7337803EB4303C3
:1038E00006EBC31606F59A76079B86F8213009B0D9
:1038F000F0BD337803EB430306EBC316C436079BD6
:1039000086F8213009B0F0BD337803EB430306EBB2
:10391000C3165036079B86F8213009B0F0BD00BFB2
:1039200028C5FF1FACC60100F0B5484C6378022BD8
:1039300089B049D0032B3DD0012B03D0002393F84D
:103940002030FFDE237803EB430304EBC31303F5BE
:103950009A7393F82020D20141F2A50193F8213007
:10396000605C3A4D1344FF28079304BF04236B5453
:10397000364D3749002343F6FF722D2705268DE883
:10398000440005F6446004930293039707AAFFF7E7
:1039900001FC18B141F2A503FF22EA5463782B4AD7
:1039A000022B3FD0032B2FD0012B17D0002383F8FD
:1039B0002030FFDE237803EB430304EBC313C4334F
:1039C00093F82020D201C7E7237803EB430304EBED
:1039D000C313503393F82020D201BDE71378079921
:1039E00003EB430302EBC313002903F59A730A4662
:1039F00015DBD21183F82020164A0A40002A1DDB6D
:103A000083F8212009B0F0BD1378079903EB430335
:103A100002EBC313002903F1C4030A46E9DA01F1FA
:103A20007F02E6E71378079903EB430302EBC31326
:103A3000002903F150030A46DBDAF0E7013A62F0AD
:103A40007F02013283F8212009B0F0BD28C5FF1F95
:103A5000B8C601007F000080F0B52F4C6378022BC0
:103A600089B032D0032B29D0012B02D000239B78C0
:103A7000FFDE237803EB430304EBC31303F59A73D0
:103A800008AA9B78244E42F8043D2D270025039771
:103A90004FF0030E77272B462049049506F6446025
:103AA00002958DE88040FFF775FB6378022B28D0E4
:103AB000032B1CD0012B0FD0AD70FFDE237803EB5E
:103AC000430304EBC313C433DAE7237803EB430364
:103AD00004EBC3135033D3E7337803EB430306EB14
:103AE000C31606F59A76079BB37009B0F0BD33781C
:103AF00003EB430306EBC316C436079BB37009B050
:103B0000F0BD337803EB430306EBC3165036079B37
:103B1000B37009B0F0BD00BF28C5FF1FC0C60100CB
:103B2000F0B52F4C6378022B89B032D0032B29D00B
:103B3000012B02D00023DB78FFDE237803EB430365
:103B400004EBC31303F59A7308AADB78244E42F8FA
:103B5000043D2D27002503974FF0030E7F272B46AA
:103B60002049049506F6446002958DE88040FFF7F1
:103B700011FB6378022B28D0032B1CD0012B0FD014
:103B8000ED70FFDE237803EB430304EBC313C43370
:103B9000DAE7237803EB430304EBC3135033D3E793
:103BA000337803EB430306EBC31606F59A76079BBF
:103BB000F37009B0F0BD337803EB430306EBC31693
:103BC000C436079BF37009B0F0BD337803EB4303B1
:103BD00006EBC3165036079BF37009B0F0BD00BF6B
:103BE00028C5FF1FC8C6010070B5214C6378022BA1
:103BF00028D0032B1FD0012B0FD0002041F29C05B1
:103C00001521FEF74BFB635D194E73B90123735504
:103C1000FFF726FCE8B9002070BD207800EB4000DB
:103C200004EBC01000F59A70E8E7012BF0D0022BEE
:103C300016D0012070BD207800EB400004EBC010CE
:103C4000C430DBE7207800EB400004EBC0105030BC
:103C5000D4E741F29C020020A35C0133A35470BD61
:103C6000FFF75EFF0028D6D00023735570BD00BF5C
:103C700028C5FF1FF0B5314C6378022B89B037D0CF
:103C8000032B2ED0012B02D000235B68FFDE2378AC
:103C900003EB430304EBC31303F59A735868274DF2
:103CA00013F028FD08AA00262D270321FF2342F840
:103CB000040D03970191009305F6446001230496D7
:103CC00002961F49FFF766FA6378022B07462DD04C
:103CD000032B24D0012B12D0079813F0F1FA706057
:103CE000FFDE237803EB430304EBC313C433D5E7B0
:103CF000237803EB430304EBC3135033CEE72B7855
:103D000003EB430305EBC31505F59A75079813F00C
:103D1000D7FA6860C4F8CC0D384609B0F0BD2B78EE
:103D200003EB430305EBC315C435EFE72B7803EB37
:103D3000430305EBC3155035E8E700BF28C5FF1F57
:103D400084C60100F0B52E4C6378022B89B033D0C5
:103D5000032B2AD0012B02D000231B7AFFDE23780D
:103D600003EB430304EBC31303F59A7308AA93F917
:103D7000083042F8043D224D22492D2300260393AA
:103D8000042778238DE8880005F644606FF07703F8
:103D900004960296FFF7FEF96378022B28D0032BD6
:103DA0001FD0012B0FD03672FFDE237803EB4303C5
:103DB00004EBC313C433D9E7237803EB430304EBC9
:103DC000C3135033D2E72B7803EB430305EBC31542
:103DD00005F59A759DF91C302B7284F8D03D09B019
:103DE000F0BD2B7803EB430305EBC315C435F1E7B6
:103DF0002B7803EB430305EBC3155035EAE700BF0F
:103E000028C5FF1F90C6010070B5374C637888B095
:103E100000227F21022BADF81820ADF81A103AD0FD
:103E2000032B2ED0012B01D0938BFFDE207800EBEB
:103E3000400004EBC01000F59A70B0F91C300793F5
:103E40000DF11A0206A9FEF7BDF9274DBDF91A209A
:103E5000009200262D210522BDF918300391019210
:103E600005F644600496029607AA2049FFF792F9E6
:103E70006378022B2ED0032B22D0012B15D0B683D2
:103E8000FFDE207800EB400004EBC010C430B0F936
:103E90001C300793D4E7207800EB400004EBC010FF
:103EA0005030B0F91C300793CAE72B7803EB43037B
:103EB00005EBC31505F59A75079BAB8308B070BD7C
:103EC0002B7803EB430305EBC315C435079BAB838A
:103ED00008B070BD2B7803EB430305EBC3155035D9
:103EE000079BAB8308B070BD28C5FF1FD4C6010077
:103EF00070B5374C637888B000227F21022BADF873
:103F00001820ADF81A103AD0032B2ED0012B01D077
:103F1000D38BFFDE207800EB400004EBC01000F5EF
:103F20009A70B0F91E3007930DF11A0206A9FEF738
:103F300049F9274DBDF91A20009200262D210522AE
:103F4000BDF918300391019205F64460049602967B
:103F500007AA2049FFF71EF96378022B2ED0032B06
:103F600022D0012B15D0F683FFDE207800EB400035
:103F700004EBC010C430B0F91E300793D4E72078AA
:103F800000EB400004EBC0105030B0F91E30079336
:103F9000CAE72B7803EB430305EBC31505F59A75C8
:103FA000079BEB8308B070BD2B7803EB430305EB55
:103FB000C315C435079BEB8308B070BD2B7803EBAA
:103FC000430305EBC3155035079BEB8308B070BD69
:103FD00028C5FF1FE0C6010038B50A4D2C783CB15A
:103FE000012C08D1FFF784FF28B100232B7038BDC6
:103FF000FFF70AFF08B9002038BD01232B702046C7
:1040000038BD00BFC8ACFF1FF0B52E4C6378022B43
:1040100089B036D0032B2DD0012B02D000235B6951
:10402000FFDE217801EB410104EBC11101F59A712A
:1040300008AA4B69234D42F8043D4FF02D0E8F69BD
:10404000CDF80CE0002644F2020C4FF0060E1E4B99
:104050001E49049605F6446002968DE80050FFF76D
:1040600099F86378022B26D0032B1DD0012B0FD09B
:104070007661FFDE217801EB410104EBC111C4310F
:10408000D6E7217801EB410104EBC1115031CFE7B4
:104090002B7803EB430305EBC31505F59A75079BD6
:1040A000AF616B6109B0F0BD2B7803EB430305EB07
:1040B000C315C435F3E72B7803EB430305EBC315B6
:1040C0005035ECE728C5FF1FFDBFFFFFECC6010020
:1040D000F0B52F4C6378022B89B037D0032B2ED04C
:1040E000012B02D000235B69FFDE237803EB43033F
:1040F00004EBC31303F59A735F699869244D254B4C
:10410000254908AA38444FF02D0E42F8040D002628
:10411000CDF80CE044F2020C4FF0060E05F64460B8
:10412000049602968DE80050FFF734F86378022B6E
:1041300027D0032B1ED0012B0FD07661FFDE237812
:1041400003EB430304EBC313C433D5E7237803EB3A
:10415000430304EBC3135033CEE72B7803EB430345
:1041600005EBC31505F59A75079B6F61DB1BAB610A
:1041700009B0F0BD2B7803EB430305EBC315C43541
:10418000F2E72B7803EB430305EBC3155035EBE760
:1041900028C5FF1FFDBFFFFFF4C6010038B50A4D5B
:1041A0002C783CB1012C08D1FFF792FF28B10023F5
:1041B0002B7038BDFFF728FF08B9002038BD012358
:1041C0002B70204638BD00BFC8ACFF1FF0B5384C7F
:1041D000637889B000227F21022BADF81820ADF85A
:1041E0001A103ED0032B30D0012B01D0138AFFDEF2
:1041F000207800EB400004EBC01000F59A70B0F995
:104200001030B0F9127007930DF11A0206A9FDF7EC
:10421000D9FF274DBDF91A20009200262D21052235
:10422000BDF918300391019205F644600496029698
:1042300007AA2049FEF7AEFF6378022B30D0032B8C
:1042400027D0012B19D03682FFDE207800EB40000A
:1042500004EBC010C430B0F91030B0F912700793FD
:10426000D2E7207800EB400004EBC0105030B0F9EA
:1042700010300793B0F91270C6E72B7803EB4303B5
:1042800005EBC31505F59A75079B6F822B8209B064
:10429000F0BD2B7803EB430305EBC315C435F3E7FF
:1042A0002B7803EB430305EBC3155035ECE700BF58
:1042B00028C5FF1FFCC60100F0B53A4C637889B0F1
:1042C00000227F21022BADF81820ADF81A1040D043
:1042D000032B31D0012B01D0138AFFDE207800EBB5
:1042E000400004EBC01000F59A70B0F91070B0F9FE
:1042F00012303B4407930DF11A0206A9FDF762FF45
:10430000284DBDF91A20009200262D210522BDF965
:1043100018300391019205F644600496029607AAAC
:104320002149FEF737FF6378022B33D0032B2AD0C5
:10433000012B1BD03682FFDE207800EB400004EB1F
:10434000C010C430B0F91070B0F912303B4407937C
:10435000D1E7207800EB400004EBC0105030B0F9FA
:104360001070B0F912303B440793C4E72B7803EB8D
:10437000430305EBC31505F59A75079B2F82DB1BDD
:104380006B8209B0F0BD2B7803EB430305EBC3153B
:10439000C435F2E72B7803EB430305EBC315503527
:1043A000EBE700BF28C5FF1F08C7010038B50A4D5D
:1043B0002C783CB1012C08D1FFF77EFF28B10023F7
:1043C0002B7038BDFFF702FF08B9002038BD01236C
:1043D0002B70204638BD00BFC8ACFF1F2DE9F04F41
:1043E00088469BB0D0F864120790BDF890A09DF865
:1043F00094500B92994629B97A4B1B680D930D9BEB
:10440000C0F86432002D00F0C780774B2E1F83FB6D
:104410000623A3EBE6760236F600B3B2CAF13F06F6
:104420009E424046A8BF1E4614F02AF800EB40000A
:1044300047000437BFB241F2F4046C4B1859AF4245
:1044400033B228BF2F464FF0000B1A460FFA8AF5F9
:104450000A93036806950FFA89F10092CDF804B02B
:104460003AB21D6C099213460891069AA8475F4B11
:10447000012118590CF06EF95C4A5B4B1459033F4B
:1044800083FB07230AF1040AB6B2A3EBE7771FFA0E
:104490008AF30493F31F5D4609F102090122059393
:1044A0001AABA4F814B00FFA89F9628203EB070B78
:1044B0002E46AA4609E0059BB3EBC20F2BDD56B38F
:1044C000B5F5807F27D04A4B1C68049BA4F80E905A
:1044D00003EBC50308EB060123823A460FA814F04C
:1044E0003DF80FA80BF82CAC13F0CAFF2368024666
:1044F0005B680FA920469847204611F019F84046FE
:1045000013F0BEFFC01BF319864205F102029EB2F2
:1045100005F10105CFD9354B0A9941F2F404012286
:1045200018591E4603688DE80600069ADD6C089946
:10453000099BA847079B93F82E31002B3DD141F2F0
:10454000F4032A4AD0580CF071FF41F24C53274A29
:10455000D0580DF0DFFD50B9224A079B1268D3F8FE
:1045600064320E920B990E9A19448A4211D941F283
:10457000F4021E49099B88580A9A05680092002493
:104580000194069A08992D6CA847079B0120C3F84F
:1045900064421BB0BDE8F08F404613F071FF00EBA2
:1045A00040004700CAF13F063B1DC9F17F05102EB0
:1045B0009FB2A8BF1026EDB23DE73059079E96F88E
:1045C0003C41D6F83431B6F93221B6F93011B6F99A
:1045D0003A510294B6F938418DE830000BF086FE6E
:1045E000ADE700BFB0DEFF1FABAAAA2A28C5FF1F98
:1045F0001CD6FF1F2DE9F0470E4601789DF820805C
:104600000829044691464ED03C4AD0F8E400D2F83E
:10461000A87DD2F8B41D1D46D2F8AC3D6366D2F831
:10462000B03D27660127C4F8D430C4F8D81084F808
:10463000BC7092F8D8ADD2F8D41D0EF091FB504664
:1046400012F03AFED4F8E420162310610021184637
:1046500084F8756023710FF0CBFA0026102084F8DF
:10466000780084F8E990268331460FF0C1FAA4F867
:104670008C6084F8066184F8EC5028460DB9BDE8DA
:10468000F08702210FF0B4FA84F84081B8F1000FEE
:1046900002D13846BDE8F087404639460FF0A8FA07
:1046A0003846BDE8F087154BD3F8B81DD3F8C42DB4
:1046B000D3F8BC0DD3F8C03D2166102700210D466C
:1046C0006066C4F8D430C4F8D820384684F87560E1
:1046D00027710FF08DFA384684F8787084F8E990E5
:1046E000258329460FF084FA84F8EC50A4F88C5006
:1046F00084F806512846BDE8F08700BF28C5FF1F93
:104700002DE9F8430446884616460FF077FA236AE7
:10471000A06213B9E36A002B44D072B6DFF8AC9004
:10472000254FD9F800103B682448A56AE26ACB1AE5
:1047300080FB0310D917C1EBA000062184F83410C8
:104740001F49C5EB030EAA1A0B60236B6262851822
:104750001C4AA06B7344A9B213600EF0F1FAA26B6D
:10476000636AD26A002E62F30F0528461FDDB0404F
:10477000B340D9F800103A680B440244C9F800303D
:104780003A6012F099FD414612F0A2FE0E4912F075
:104790009FFE12F0D5FFA36A2062E36262B6012099
:1047A000BDE8F8832063E0621846BDE8F883E0D0F6
:1047B0007642F040F340DCE7D4ACFF1F67666666E4
:1047C00040ACFF1F88DDFF1F0000C04074ACFF1F1E
:1047D00010B50446022094F8711001F001010FF0A9
:1047E000F3F994F871100320C1F340010FF0ECF9D4
:1047F00094F871100420C1F38001BDE810400FF05F
:10480000E3B900BF30B5104B83B00C469C424FF06B
:1048100000014FF07F02054608BFB0F91640ADF821
:104820000410ADF8062048300DF1060201A9FDF78D
:10483000C9FCB5F96400844204DBB5F96600A04206
:10484000A8BF204603B030BDF1D8FFFF38B590F8BF
:104850005C31032B36D8DFE803F0021104021A485A
:1048600038BD90F8CE3003F01F03072BB0F91A3093
:104870001DD0B0F98E1003FB01F104E0B0F91A105D
:10488000B0F98E30194490F85A301A4604466FF346
:10489000461280F85A200430C3F34115FFF7B2FFE7
:1048A00094F85A3065F3461384F85A3038BDB0F99D
:1048B0008E20064903FB02F381FB0321DB17C3EBC8
:1048C0006111E0E70049DEE7F1D8FFFF1F85EB51FA
:1048D000012A4DDD00B590F8563003F01F031E2B62
:1048E00048D8DFE803F016191F16161616162516F7
:1048F00016161616101016161616163030393916EA
:104900001F3F3F3F3F000B7880F869304B7880F8BD
:10491000683010465DF804FB0B88A0F86A3010463A
:104920005DF804FB0B7880F8493010465DF804FB15
:10493000124BD3F8CC1DC16493F9D03D80F85030B0
:1049400010465DF804FB0B7880F849304B7880F80E
:104950004B3010465DF804FB0B7880F84A30104667
:104960005DF804FB0B7880F8573010465DF804FBC7
:104970000020704700205DF804FB00BF28C5FF1F22
:104980002DE9F84390F84450574E584C002D08BF7D
:104990003446154614BF0A270D277D2900F2A28050
:1049A000DFE801F046A0A0A0A0A0A0A0A0A0A0A029
:1049B000A0A0A0A0A0A0A0A0A0A0A0A0A0A0A0A0F7
:1049C000A0A0A0A0A0A0A0A0A0A0A0A0A0A0A0A0E7
:1049D000A0A0A0A0A0A0A0A0A0A0A0A0A0A0A0A0D7
:1049E000A0A0A0A0A0A0A0A0A0A0A0A0A0A0A0A0C7
:1049F000A0A0A0A0A0A0A0A0A0A0A0A0A0A0A0A0B7
:104A0000A0A0A0A0A0A0A0A0A0A0A0A0A0A0A0A0A6
:104A1000A0A0A0A0A05D6C6267717A80868A8E9447
:104A20009A3F2A7880F856201D462846BDE8F8832C
:104A300007EB4707033FDFF8B890A8460646274430
:104A40002379617919F803302A463046FFF798FF39
:104A50000334A7420544F3D1C8EB0505E5E72A78FE
:104A600080F848201D46E0E72A7880F853201D464C
:104A7000DBE72A88A0F854201D46D6E72A7880F87C
:104A800052201D46D1E7297890F8562061F30402A0
:104A90001D4680F85620C8E7B5F90020A0F8582038
:104AA0001D46C2E7B5F90020A0F85A201D46BCE714
:104AB0002A68C2651D46B8E72A6802661D46B4E743
:104AC000B5F90020A0F864201D46AEE7B5F9002036
:104AD000A0F866201D46A8E71A462946BDE8F84317
:104AE000FFF7F6BE0025A0E738BE0100ECBD0100CF
:104AF000D8BD010010B58AB00446242201A80EF0EA
:104B000009FE01AA204624230021FFF739FF94F86B
:104B10004430002B14BF0E2018200AB010BD00BF77
:104B2000012A42DD00B590F8563003F01F031E2B1A
:104B30003DD8DFE803F0161F2516161616161616B2
:104B400016161616101016161616162B2B343416AB
:104B500025191919190090F869300B7090F8683010
:104B60004B7010465DF804FB90F857300B70104600
:104B70005DF804FBB0F86A300B8010465DF804FB6A
:104B800090F849300B7010465DF804FB90F84930FE
:104B90000B7090F84B304B7010465DF804FB90F8AA
:104BA0004A300B7010465DF804FB0020704700206F
:104BB0005DF804FB2DE9F84390F84450604E614CD9
:104BC000002D90460ABF34460A270D277D2900F2A2
:104BD000B380DFE801F046B1B1B1B1B1B1B1B1B16B
:104BE000B1B1B1B1B1B1B1B1B1B1B1B1B1B1B1B1B5
:104BF000B1B1B1B1B1B1B1B1B1B1B1B1B1B1B1B1A5
:104C0000B1B1B1B1B1B1B1B1B1B1B1B1B1B1B1B194
:104C1000B1B1B1B1B1B1B1B1B1B1B1B1B1B1B1B184
:104C2000B1B1B1B1B1B1B1B1B1B1B1B1B1B1B1B174
:104C3000B1B1B1B1B1B1B1B1B1B1B1B1B1B1B1B164
:104C4000B1B1B1B1B1B1B15E73656C7A838A91973C
:104C50009DA4AB3F90F8562088F800201846BDE888
:104C6000F88307EB4707033FDFF8DC90064627444D
:104C700045462379617919F803302A463046FFF713
:104C800099FF0334BC420544F3D1C8EB0500BDE8ED
:104C9000F88390F8482088F800201846BDE8F8838B
:104CA00090F8532088F800201846BDE8F883B0F843
:104CB0005420A8F800201846BDE8F88390F8522048
:104CC00088F800201846BDE8F88390F85620C2F313
:104CD000040288F800201846BDE8F883B0F958208F
:104CE000A8F800201846BDE8F883B0F95A20A8F8C3
:104CF00000201846BDE8F883C26DC8F800201846A9
:104D0000BDE8F883026EC8F800201846BDE8F883B5
:104D1000B0F96420A8F800201846BDE8F883B0F97F
:104D20006620A8F800201846BDE8F8831A464146D8
:104D3000BDE8F843FFF7F4BE0020BDE8F88300BFEC
:104D400038BE0100ECBD0100D8BD010030B58BB00C
:104D50000D4601AA242300210446FFF72BFF294614
:104D6000024601A80EF020FD94F84430002B14BF39
:104D70000E2018200BB030BD80292DE9F8434ED00D
:104D800014D982293FD02FD3832939D1012B37DD84
:104D900090F852100F2933D8DFE801F05E5E5555C8
:104DA0004A47474747474747474747477E2930D005
:104DB00020D829BB2B4DDFF8B4901746064605F1E5
:104DC0001208144601237E2103E02B79697919F832
:104DD000033022463046FFF7CFFF033545450444F4
:104DE000F3D1E01BBDE8F8831288A0F850201846E4
:104DF000BDE8F883127880F84E201846BDE8F883A5
:104E00000020BDE8F883127880F852201846BDE8EB
:104E1000F883127880F844201846BDE8F8831278A9
:104E200080F84F201846BDE8F8831846BDE8F8839F
:104E30000D4AD2F8CC1D816492F9D02D80F84C2017
:104E40001846BDE8F883117880F84510527880F84C
:104E500047201846BDE8F883127880F846201846A7
:104E6000BDE8F88320C2010028C5FF1FD8BD01009E
:104E700010B584B00446102268460EF04BFC6A461A
:104E8000204610230021FFF777FF082004B010BD53
:104E900070B5054608460C460EF022FC85F85C010C
:104EA000601C0EF01DFC85F86001A01C0EF018FCC3
:104EB00005F5B076014630460AF07EFDE01C0EF0A6
:104EC0000FFC0434014630460AF07AFD214605F114
:104ED000EC00FFF7CDFF04442146281DFFF70AFE32
:104EE000211805F17800FFF705FE322070BD00BFE4
:104EF000012A20DD10B490F852400F2C0DD8012368
:104F0000A3404FF6F0741C4054B913F00C0F0AD1B3
:104F100013F0030311D1184600E0002010BC7047C5
:104F2000104610BC704790F845300B7090F8473031
:104F30004B701046F2E70020704790F846300B7037
:104F40001046EBE780292DE9F843144644D00AD9EE
:104F5000822932D025D3832935D11A462146BDE88E
:104F6000F843FFF7C5BF7E2930D020D859BB1D4D6F
:104F7000DFF874900646174605F11208144601231F
:104F80007E2103E02B79697919F8033022463046F7
:104F9000FFF7D8FF033545450444F3D1E01BBDE8D6
:104FA000F883B0F8502022801846BDE8F88390F8C6
:104FB0004E2022701846BDE8F88390F852202270E7
:104FC0001846BDE8F8830020BDE8F88390F8442037
:104FD00022701846BDE8F88390F84F2022701846DA
:104FE000BDE8F88320C20100D8BD010010B584B02F
:104FF0000C466A4610230021FFF7A4FF2146024613
:1050000068460EF0D1FB082004B010BDF0B583B0A7
:1050100002AE90F85C3106F8013D04460F4630467A
:1050200001220EF0C1FB94F860318DF80730304654
:10503000791C01220EF0B8FB94F862318DF807302C
:105040003046B91C01220EF0AFFB3D1D94F86331D0
:105050008DF8073001223046F91C0EF0A5FB2946D9
:1050600004F1EC00FFF7C2FF05442946201DFFF7BD
:105070006DFE0544294604F17800FFF767FE2378AA
:10508000082B06BF2D18E81B322003B0F0BD00BF6F
:1050900070B5FA2982B00C4605463DD3FB2925D9C7
:1050A000FC2939D1234E2449002385F820301422CD
:1050B00006F6847013F052FA204B1B68019341F2FC
:1050C000840141F2880342F21070019A7050F2504C
:1050D000200240F00F000FF077FDAB6A5B6D18689F
:1050E000036821461B68984702B070BD114E1449F1
:1050F000012385F82030142206F6847013F02EFA6E
:105100000E4B1B68009341F2840141F2880342F286
:105110001070009A7050F25004F10803DBB2072BB4
:10512000E2D8012202FA03F313F0DD0FD0D102B06E
:1051300070BD00BF28C5FF1F20C70100B0DEFF1FE4
:1051400014C7010038B504460EF058FD236B226ADF
:10515000C31A9A42054616D3636AE26A03EB430315
:10516000AD1AAB420ED20C4D0C480D490D4A00232E
:105170002B602362E3622363636284F8343003604C
:105180000B60136038BDF8210748FFF781FF226BE1
:10519000236A13442363DFE788DDFF1F40ACFF1F52
:1051A00074ACFF1FD4ACFF1FD4D5FF1FF0B5304C3B
:1051B0006378022B89B036D0032B2DD0012B02D07F
:1051C0000023DB7BFFDE237803EB430304EBC313F5
:1051D00003F59A73DB7B264D264908AAC3F38303A4
:1051E00001332D2742F8043D0026012303970827A9
:1051F000019305F64460049602960097FDF7CAFFF6
:105200006378022B2CD0032B23D0012B12D0F37BFD
:1052100066F38503F373FFDE237803EB430304EBAC
:10522000C313C433D6E7237803EB430304EBC31360
:105230005033CFE72B7803EB430305EBC31505F59C
:105240009A75079BEA7B013B63F38502EA7309B019
:10525000F0BD2B7803EB430305EBC315C435F0E732
:105260002B7803EB430305EBC3155035E9E700BF8B
:1052700028C5FF1FB8C401002DE9F84F8A46002950
:1052800061D0404BDFF820813F4AC8F8102093E8F6
:10529000030000230A0CC8F80000A8F8041088F8DE
:1052A000062088F814300127384DC82405F1690B11
:1052B00007E0BAF1000F36D107350134AB45E4B24F
:1052C00020D02B78002BF4D07E0006EB070908EBEA
:1052D000C90948460622294613F040F9BAF1000FE1
:1052E0002BD12B4BC9F810303E4408EBC6060735CE
:1052F000002301373475AB4504F10104FFB2B371EB
:10530000E4B2DED1234B244C93E8070007EB4703BC
:1053100008EBC308A8E803000023A8F80020637185
:105320003846BDE8F88F1D4A7E0092E80300F31965
:1053300008EBC30248F833009180F31908EBC3036C
:10534000174A1A61D0E7DFF860800E4A88F8141017
:1053500092E80300134BC8F800000E0CA8F80410E4
:1053600093E8070008F1180303C3094D064CC8F879
:10537000285088F8066088F82CA0C8F810401A80D9
:10538000022791E73CC70100F959000001D3FF1F34
:10539000015B000030C70100FCBFFF1F28C70100F0
:1053A000415A000044C7010098B6FF1F2DE9F84F8D
:1053B0000021FFF761FFDFF870B0DFF86090DFF8E1
:1053C0006C80824605460126002705EB450409EB63
:1053D000C404204626755946C4F8108006220136BA
:1053E00013F0BCF80135302EA771EDB20BF1070BAD
:1053F0000A4B4FF00004E8D1094A0A4D07CA0AF1E6
:105400002F0A5FFA8AFA0AEB4A0603EBC60303C3C4
:105410001A806C715046BDE8F88F00BF98B6FF1F28
:1054200050C70100FCBFFF1F0FC30100015B00005C
:10543000324B2DE9F04799424FF000048246446117
:105440004DD02F4B99420E4650D0A046DFF8B89071
:1054500000E0013430460AF00FFC84422146304619
:1054600018DA0AF0F1FB037D002BF2D0214630461A
:105470000AF0EAFB07460FCF08EB480509EBC50524
:105480000FC597E8030008F1010885E803005FFAFB
:1054900088F8DEE730460AF0EFFB014630460AF0B6
:1054A000D3FB05460FCD08EB480409EBC4040FC439
:1054B00095E8030084E80300124B72795A71FF22C9
:1054C00001218AF8632283F804808AF86212504628
:1054D000C3F800900B49BDE8F0470AF089BCFFF71C
:1054E00065FFDFF82490074B8046E8E70121FFF7CE
:1054F000C3FEDFF81490034B8046E0E7A0DAFF1FFD
:1055000048B4FF1FFCBFFF1F98B6FF1F30B5594CB2
:105510002378082B83B073D00222627003EB43031D
:1055200004EBC31393F85E3003F01F03182B56D916
:10553000042151480AF040FC06214F484D4D0AF025
:105540003BFC07214C480AF037FC08214A480AF086
:1055500033FC092148480AF02FFC0A2146480AF08A
:105560002BFC0B2144480AF027FC0C2142480AF08E
:1055700023FC237803EB430304EBC31393F85E107F
:1055800001F01F0108294DD001F1120303F01F03A0
:10559000012B59D9012937D069B319292BD00E21F4
:1055A00035480AF009FCD4F8602ED4F85C1E41F2AC
:1055B000F4030025E058C2F140031BB204688DE8F3
:1055C0002800C1F1800312B209B2246C1BB2A047BB
:1055D00029492A48FFF72CFF012003B030BD0121E3
:1055E000274A99400A400AB9002BA1D10421224838
:1055F0000AF0C6FBA0E70E211F480AF0C1FBD2E764
:105600006278012A8AD8E7E70B211B480AF0B8FB29
:10561000237803EB430304EBC31393F85E1001F00C
:105620001F01B9E714480AF0ABFB2B7803EB4303E7
:1056300005EBC31595F85E1001F01F0101F112038F
:1056400003F01F03012BA5D80C210B480AF098FB8F
:105650000A2109480AF094FB092107480AF090FB47
:10566000237803EB430304EBC31393F85E1001F0BC
:105670001F018FE728C5FF1FC4DBFF1F6CD3FF1F6F
:10568000001FFE01FFF742BF054B1A7802EB4202F2
:1056900003EBC213002283F86021FFF737BF00BF7E
:1056A00028C5FF1F10B50D4C207800EB4000C0014D
:1056B0002318184693F85E10C43001F01F01FCF760
:1056C000EDFD237803EB430304EBC314012384F8BB
:1056D0006031BDE81040FFF719BF00BF28C5FF1FAC
:1056E00008B50948037803EB4303DB01C2181046F1
:1056F000022382F86031C4300721FCF7CFFDBDE8FA
:105700000840FFF703BF00BF28C5FF1F10B50B4BB4
:105710001C78D3F8501ED3F84C0E04EB440403EB72
:10572000C41303F5B2740AF08FFA017D20460AF023
:1057300043F9BDE81040FFF7E9BE00BF28C5FF1FD1
:10574000F8B5224C41F29C06A35D2BB1012B2BD066
:10575000BDE8F840FFF7DABE2378D4F8501ED4F83D
:105760004C0E03EB4303012704EBC315A7550AF0C6
:105770006BFA05F5B275017D28460AF05DF9D4F89B
:10578000501ED4F84C0E0AF05FFA037DBBB12078AE
:1057900000EB400004EBC010394600F5B2700AF08F
:1057A0000BF9A35D012BD3D1FDF7E6FD60B141F20A
:1057B0009C030022E254BDE8F840FFF7A7BEA355C2
:1057C000BDE8F840FFF7A2BEF8BD00BF28C5FF1F27
:1057D00010B50B4B1C78D3F8501ED3F84C0E04EBCD
:1057E000440403EBC41303F5B2740AF02DFA017DEF
:1057F00020460AF0E5F8BDE81040FFF787BE00BF7D
:1058000028C5FF1F2DE9F0474E4D2C78042C28BFEA
:10581000042404EB4406F601AF194FF001093846A1
:1058200087F8609150300021FCF738FD3846C430CD
:105830001021FCF733FD06F1D0032B4430214FF645
:10584000E872D9804FF0000807F5B27618219A80E7
:105850003046A7F8E020A7F8E21087F8428102213D
:105860000AF0EAF897F8643168F3071387F86431AF
:10587000494630460AF0A0F8304604EB090606EB2C
:105880004606F60105EB060908210AF099F8484694
:1058900089F8608150301D21FCF700FD99F85F20E8
:1058A00004F00F0767F385024846A61C89F85F20BD
:1058B000C4301D2106EB4606FCF7F0FCF60199F812
:1058C000D32009F1C80305EB060967F385024846B2
:1058D000DA7250301E2189F86081FCF7DFFC99F8FC
:1058E0005F20484667F38502033489F85F20C4309F
:1058F0001E2104EB4404FCF7D1FCE40199F8D330F9
:105900002E1967F38503304689F8D33050301B21B8
:1059100086F86081FCF7C2FC96F85F20304667F39A
:10592000850286F85F20C4301B21FCF7B7FC96F88F
:10593000D33067F3850386F8D330BDE8F047FFF72F
:10594000E5BD00BF28C5FF1F024B02225A70FFF7BA
:10595000DDBD00BF28C5FF1F024B03225A70FFF7B1
:10596000D5BD00BF28C5FF1F70B50F4C41F2F40331
:10597000D4F8602EE058D4F85C1E0568C2F14003EC
:1059800082B01BB200268DE84800C1F1800312B23C
:105990001BB22D6C09B2A84704F644600349FFF717
:1059A00047FD012002B070BD28C5FF1F7CB4FF1F5A
:1059B00070B50F4C41F2F403D4F8602EE058D4F8DF
:1059C0005C1E0568C2F1400382B01BB200268DE860
:1059D0004800C1F1800312B21BB22D6C09B2A84776
:1059E00004F644600349FFF723FD012002B070BDB7
:1059F00028C5FF1F2CACFF1F70B50F4C41F2F403FC
:105A0000D4F8602EE058D4F85C1E0568C2F140035B
:105A100082B01BB200268DE84800C1F1800312B2AB
:105A20001BB22D6C09B2A84704F644600349FFF786
:105A3000FFFC012002B070BD28C5FF1FA0DDFF1FC5
:105A400070B541F29C032B4CE55C82B0D5B12A4B7A
:105A50001B78284D2949C3EBC303E2182D230024EA
:105A6000019302F6D95205F6446000940623FDF72F
:105A7000EFFAB0B141F29C03EC5402B0BDE87040C3
:105A8000FFF7BABFD4F8501ED4F84C0E0AF0DCF879
:105A9000007D194B00F13802D2B20F2A187002D9DA
:105AA000012002B070BD6178022905D0032919D008
:105AB00001290FD0AD72FFDE217801EB410104EB2B
:105AC000C111503141F29C0500F1390688721A70FB
:105AD0006655BDE7217801EB410104EBC11101F5E9
