:1000000000800020BD010000593D0100113D0100AC
:10001000113D0100113D0100113D0100113D0100A4
:10002000113D0100113D0100113D0100593D01004C
:10003000593D0100113D01008D580100915801000A
:10004000593D0100593D0100593D0100593D010054
:10005000593D0100593D0100593D0100593D010044
:10006000593D0100593D0100593D0100593D010034
:10007000593D0100593D0100593D0100593D010024
:10008000593D0100593D0100593D0100593D010014
:10009000593D0100593D0100593D0100593D010004
:1000A000E9270100F5270100593D0100593D0100F4
:1000B000593D0100593D0100593D0100593D0100E4
:1000C000593D0100593D0100593D0100593D0100D4
:1000D000593D0100593D0100593D0100593D0100C4
:1000E000593D0100593D0100593D0100593D0100B4
:1000F000593D01005D650100593D0100593D010078
:10010000593D0100593D0100593D0100593D010093
:10011000593D0100593D0100593D0100593D010083
:10012000593D0100593D0100593D0100593D010073
:10013000593D0100593D0100593D0100593D010063
:10014000593D0100593D0100593D0100593D010053
:100150007D5A0100915A0100A55A0100B95A0100C7
:10016000593D010009440100593D0100593D01007C
:10017000593D0100593D0100593D0100593D010023
:10018000593D0100593D0100593D0100593D010013
:10019000593D0100593D0100593D0100593D010003
:1001A000593D0100593D0100593D0100593D0100F3
:1001B000593D0100593D0100593D0100524B4CF29F
:1001C000205210B51A804DF628121A8000BF00BFC9
:1001D00013F0C6FD4D4B4FF010621A604C4A9A6006
:1001E0004C4ADA6003F5533303F2D2331A7811071D
:1001F00003D51A7842F008021A70474B47492A2261
:100200001A70474A474B8B4204D252F8040F43F806
:10021000040BF8E7444B454900228B4202D243F8D5
:10022000042BFAE74249434A002352F8230041F8DD
:10023000230001336F2BF8D13F4B404A802103F854
:10024000011B9342FBD13E4B394A1A603D4B8A2237
:100250001A70A3F5805324225A70A0221A709A793A
:100260009207FCD59A79D406FCD4374A937903F0E7
:100270000C03082B344BF9D103221A7140225A7116
:100280009A799006FCD5304A91792F4B4906FBD5D7
:100290002E4A2F4911600221516020221A709A794A
:1002A00002F00C020C2AFAD12A4B2B4A1A602B4B73
:1002B0002B4A1A6000225A60072243F8042C294A6C
:1002C000C3F80C2D62B613F045FF274B1B68DA0705
:1002D00005D5264813F0A2FE254B264A1A60264B68
:1002E0001B785B0609D5224C224B22689A4204D126
:1002F0001E4813F093FE0023236017F017FA13F043
:1003000035FD15F041FDFEE70E200540308004402C
:10031000823F04000100002B00E00740C8AFFF1F30
:1003200044EB0100308CFF1FC8AFFF1F34E5FF1FF7
:100330000082FF1F0000000000E400E05FE400E036
:1003400008ED00E0005006400040064044800440B4
:100350000000030104800440C010050014E000E028
:10036000FF7601000000202014D003406B6525605B
:100370001CE00340A5C3945A00F00740FFFFFFFFB5
:10038000FFFFFFFFFFFFFFFFFFFFFFFFFFFFFFFF7D
:10039000FFFFFFFFFFFFFFFFFFFFFFFFFFFFFFFF6D
:1003A000FFFFFFFFFFFFFFFFFFFFFFFFFFFFFFFF5D
:1003B000FFFFFFFFFFFFFFFFFFFFFFFFFFFFFFFF4D
:1003C000FFFFFFFFFFFFFFFFFFFFFFFFFFFFFFFF3D
:1003D000FFFFFFFFFFFFFFFFFFFFFFFFFFFFFFFF2D
:1003E000FFFFFFFFFFFFFFFFFFFFFFFFFFFFFFFF1D
:1003F000FFFFFFFFFFFFFFFFFFFFFFFFFFFFFFFF0D
:10040000FFFFFFFFFFFFFFFFFFFFFFFFDEF9FFFF23
:1004100010B5054C237833B9044B13B10448AFF33E
:1004200000800123237010BDC8AFFF1F0000000033
:1004300040EB0100084B10B51BB108490848AFF369
:1004400000800848036803B910BD074B002BFBD0A0
:10045000BDE81040184700BF00000000CCAFFF1FF0
:1004600040EB0100C8AFFF1F00000000704700BF55
:10047000074A10B51378074C41F2F40083F00103EA
:1004800020581370194611F04BFD012010BD00BF1C
:1004900058B8FF1F08C9FF1F70B541F2F003284C80
:1004A0000546E05812F008FBB4F8863DB4F8842DF8
:1004B000181A83B29342A4F8863D2CD014D86A69E6
:1004C000002AC4BF02F1FF326A61AA685279022A87
:1004D00027D04FF0FF30FF22A4F8843D012185F89A
:1004E000632285F8621270BDA8686E6910F038F852
:1004F0002B69C01A864202DA6B6901336B61AB6803
:100500005B79022B09D123780D4A062B12D9B2F858
:10051000863DA4F8843D002070BDB4F8863D0120DE
:10052000D9E722780649002AF3D0013A0A704FF041
:10053000FF30D0E7013313700120B2F8863DCAE7DF
:1005400008C9FF1F024A41F2F003D05812F0F8BA6E
:1005500008C9FF1F10B5044600F58750083015F094
:100560006BFA04F5875015F067FA204610BD00BFFE
:10057000234B1B6803F16402904270B504DA643BBC
:10058000984201DD022070BD1E4B1B6803F164021E
:10059000904204DA643B984201DD032070BD1A4B9F
:1005A0001D680446B5F95800C0F13C0016F022FE63
:1005B0000646B5F95A0016F01DFE0146304616F003
:1005C00021FF0646286E16F015FE0146304616F04D
:1005D00065FE0646E86D16F00DFE0146304616F043
:1005E00055FD17F021F800F164039C4205DA6438E8
:1005F0008442D4BF0020012070BD002070BD00BF28
:1006000088B0FF1F8CB0FF1FD8C3FF1FF8B5427A18
:1006100005460E4602B301230A701C46A97A89B129
:10062000C7291CD93831C9B2164FC1EBC1010F44DB
:10063000F018394617F05AFE384617F0C1FE20442C
:10064000C4B22346EA7A1AB10134E4B2F254234622
:100650000022F2542046F8BD13461446DEE70A4F46
:10066000C1EBC101F0183944062217F017FFA87A30
:10067000C0EBC000384417F0A3FE2044C4B22346A8
:10068000E0E700BFE1D6FF1FE8C001002DE9F0411F
:100690001A4D41F24C540646285912F0ABF938B3C2
:1006A000B3685B79022B15D041F24C57DFF84C80D0
:1006B000E85912F0A3F9044610B92046BDE8F081CC
:1006C00058F8070012F042F90023C6F854322046C9
:1006D000BDE8F081D6F85432B3F57A7FE4D901242D
:1006E000002385F8824F2046C6F85432BDE8F081D9
:1006F000285912F073F9C6F85402D1E708C9FF1F50
:10070000012070470120704738B50E4B01EB4101C5
:1007100005461944144617F0C1FE00232B550A4A1A
:1007200041F2F4032846D45817F04AFE23680246E3
:1007300029465B68204698472046BDE8384015F0BA
:10074000DBB900BF38C2010008C9FF1F2DE9F04F17
:100750002F4EDFF8C89041F2F40585B0735903902D
:100760001A6800274FF01A080197CDF80080146C22
:1007700018462D227B233946A0477059012110F0DD
:100780005DFC745923492368A7822A224FF0010A8D
:100790004FF0040B5B682282A4F812A00822A4F890
:1007A0000EB020469847204615F0A6F9039A1A4B3A
:1007B000745953F82210A4F80EB03223238208464D
:1007C000039117F0FDFD236803995B6802462046FC
:1007D0009847204615F090F9705903688DE8000598
:1007E00025223946DC6C7B23A04713F043FCD9F863
:1007F000003047F22F52C01A904206D9705911F0BA
:1008000089FA13F037FCC9F8000005B0BDE8F08F95
:1008100008C9FF1F8CC201005C8DFF1F04C9FF1FA8
:100820002DE9F04390F96332664E013387B00446F8
:1008300061D041F2F4030121F05810F0FFFB25696B
:100840006369A0681D440FF08BFE854280F2A8808A
:100850006369276994F963821F44E368984541F20C
:10086000F40300F0A980F3580121002259829A82F2
:1008700002AD2946424620460FF0D6FE284617F024
:100880009FFD0D2807DC28440DF11602202300F8F7
:10089000013B9042FBD16269E369A16941F2F40036
:1008A000C2EB08083658093303EBC8034FF00009C0
:1008B0008DF8169028463382F18117F081FD336858
:1008C00002465B68294630469847304615F014F9D1
:1008D00094F8633201335BB2BB4284F8633202D0D6
:1008E00007B0BDE8F083FF2384F8629284F8633296
:1008F00007B0BDE8F08341F2F4050121705910F012
:100900009DFBA36872591F680021012050829182CB
:1009100018460FF025FE00B200EB400102AD07EBD8
:10092000C1010E22284617F0B9FD284617F048FDF0
:100930000D2807DC28440DF11602202300F8013BA6
:100940009042FBD141F2F408B4F91C3056F808701B
:10095000A26900218DF816102846FA813B8217F013
:100960002FFD3B68024629465B6838469847384663
:1009700015F0C2F8E26956F80800A1690568083266
:1009800012B201238DE80C0001F15403AD6C1BB2CF
:1009900009B2A847636984F8633207B0BDE8F08301
:1009A000A0680FF0DDFDE36894F96382984507467F
:1009B00041F2F4037FF457AFF3580021012259822A
:1009C0009A8255E708C9FF1F70B5044608460D46D0
:1009D00017F0F6FC23680246294620465B68BDE80E
:1009E000704018472DE9F04F002387B00122437073
:1009F00000F684530025027000F1040B0493059067
:100A00004FF07E53CBF80C304FF000038BF81E30C4
:100A10004FF0030300274FF001094FF03C084FF05F
:100A2000280AABF814304FF61943ABF81C308BF89A
:100A300010708BF811708BF812708BF81370CBF864
:100A40002070CBF82470CBF82870CBF82C70CBF842
:100A50003070CBF834708BF838708BF80470ABF8CA
:100A60001870ABF81A708BF808908BF809908BF817
:100A70000A808BF80BA0382015F08EF94FF08146D4
:100A800006614FF48066394646603A46E84B80F886
:100A900014908561056280F82470044612F0B2FC5F
:100AA0009BF85A30CBF83C4003F0E00367F3461361
:100AB0008BF85A30DF4BCBF844304FF07803ABF86B
:100AC0005E30ABF86A3040F6FF73CBF86030DA4B3B
:100AD000CBF864304FF07F038BF86C308BF86D30BF
:100AE0004FF47A73ABF86E304FF0FF338BF87430FD
:100AF0004FF003024FF6FF73ABF8582063604FF0DE
:100B00007E52CE4BCBF8502023618BF841708BF88E
:100B100040908BF848708BF84C908BF84D908BF888
:100B20004E808BF84FA08BF854708BF855708BF873
:100B300056708BF857708BF85B70ABF85C70ABF845
:100B40006870382015F028F946604FF081464A4613
:100B500039460661BA4B80F814908561056280F8C9
:100B60002470044612F04EFC4FF00303ABF88830BB
:100B70004FF61943ABF890304FF07E53CBF88030EE
:100B800040F6FF7363604FF08043CBF870408BF802
:100B900084708BF885708BF886708BF88770CBF833
:100BA0009470CBF89870CBF89C70CBF8A070CBF811
:100BB000A470CBF8A8708BF8AC70ABF88C70ABF865
:100BC0008E708BF892702361ABF81A708BF8757089
:100BD0008BF87C908BF87D908BF87E808BF87FA0D3
:100BE0008BF87870382015F0D7F84FF4806646609F
:100BF0004FF08146394606613A468D4B80F8149095
:100C00008561056280F82470044612F0FBFB894A76
:100C1000CBF8B8204FF00302ABF8CC204FF07802AD
:100C2000ABF8D22040F6FF729BF8CE30CBF8D42040
:100C3000814ACBF8D8204FF07802ABF8DE2003F0E1
:100C4000E0034FF07F028BF8E0208BF8E12067F3A0
:100C500046134FF47A72ABF8E2208BF8CE304FF0A7
:100C6000FF324FF6FF738BF8E82063604FF07E523F
:100C7000724BCBF8B040CBF8C4208BF8B5708BF832
:100C8000B4908BF8BC708BF8C0908BF8C1908BF847
:100C9000C2808BF8C3A08BF8C8708BF8C9708BF832
:100CA000CA708BF8CB708BF8CF70ABF8D070ABF804
:100CB000DC702361382015F06FF84FF480664660D1
:100CC0004FF081464A46394606615D4B80F81490E4
:100CD0008561056280F82470044612F093FB4FF69C
:100CE0001943ABF804314FF00303ABF8FC304FF07D
:100CF0007E53CBF8F43040F6FF7363604FF08043CF
:100D0000CBF8E440ABF88E708BF8E9708BF8F0907C
:100D10008BF8F1908BF8F2808BF8F3A08BF8F870D9
:100D20008BF8F9708BF8FA708BF8FB70CBF80871C0
:100D3000CBF80C71CBF81071CBF81471CBF818719B
:100D4000CBF81C718BF820718BF8EC70ABF800714C
:100D5000ABF802718BF806712361382015F01CF88E
:100D60004FF4806646604FF081463A463946304B34
:100D700006618561056280F8149080F8247004464D
:100D800012F040FB2B49CBF82C114FF00301ABF8CC
:100D90003C114FF0FF319BF860218BF840114FF070
:100DA0007E51CBF834114FF6FF7161604FF0FF3385
:100DB00067F303022149CBF824418BF833A18BF868
:100DC00032818BF865818BF829718BF828918BF82B
:100DD00030918BF831918BF838718BF839718BF831
:100DE0003A718BF83B718BF83E718BF84471CBF8FC
:100DF0004871CBF854718BF858718BF85C718BF893
:100E000062718BF863718BF864718BF86691CBF823
:100E100067718BF86021CBF86B7121618BF86F7172
:100E20008BF80030049B8BF87071CBF8747109E07B
:100E300017B7D1389F86010001F0FFFF0000604224
:100E40000AD7233CCBF878718BF87E718BF87D71D3
:100E50008BF87C710BF5C07B9B457FF4D1ADDDF841
:100E600014A0BA4C9AF8882DCAF8C44D67F303024F
:100E70008AF8882D4FF000028AF8972D8AF8982D6D
:100E80008AF8A42D40F6FF72CAF8A82DAF4ACAF816
:100E9000AC2D4FF0FF3340F6FF724FF00001AAF87F
:100EA000843DCAF8B42D9AF8D13DCAF8B82DA74AA6
:100EB0008AF88A1D8AF88B1D8AF88C1DCAF8BC2D09
:100EC00047F2305140F6FF724FF47A7443EA090357
:100ED000AAF8861D9E489F49CAF8C02DAAF8C84D99
:100EE00011224FF000048AF8D13D8AF8D04DCAF89B
:100EF000CC0DCAF8D41D8AF8D82D394669228AF853
:100F00008D8D8AF88E9DCAF88F7DCAF8937DCAF8B8
:100F10009C7DCAF8A07DCAF8B07D0AF6D95016F0BB
:100F20006BFF0AF644600FF01DFB8B4B8AF8644E92
:100F30008AF8724FCAF8443EFB22394641F28406D1
:100F4000CAF8687FAAF8707FCAF8847F0AF68870AA
:100F500016F052FF41F28C0541F2880241F29003F3
:100F600041F294004AF8067041F298064AF802707D
:100F70000AF585544AF8057041F29C024AF803705C
:100F800041F29D054AF8007041F2A4004AF806704B
:100F90004FF0000E41F2A5060AF802E00AF805E05B
:100FA00041F2A60227608AF882EF8AF883EFCAF836
:100FB000587ECAF8607E8AF8819F0AF800E04FF0F8
:100FC000FF3E0AF806E041F2A70541F2A8034FF000
:100FD000000E0AF802E0072620464FF0FF3E0AF80E
:100FE00005E036224AF803701B30CAF8546E5B4D98
:100FF000CAF85C2E23464FF000067F21024684F893
:101000002C90276384F8386065630B3303F8011F65
:10101000834202F8011FF9D10AF5875241F2E8062E
:1010200000201446802141F2F8071171106041F24E
:10103000FC054AF806001173962284F83800C4F8BB
:10104000280484F82C04C4F83004C4F8340484F868
:101050006A040AF588534AF8072040F267224AF8E2
:10106000052041F204114FF487621A6041F208161C
:1010700040F209634AF8013041F20C1541F21012B6
:1010800040F2DA734AF8063041F2141140F6AB131D
:1010900040F67C364AF805304AF8026040F64D5575
:1010A0000AF5A8530AF5AA524AF801501733014627
:1010B00084F86B04093203F8011F93424FF00004D7
:1010C000F9D1942014F068FE054611F0EBFD41F2D1
:1010D000DC0324204AF8035014F05EFE04230722A8
:1010E00006218DE818004FF0FF33054611F090FC03
:1010F00041F2F00310204AF8035014F04DFE04466C
:1011000011F0F2FB41F24C5315484AF8034011F03C
:101110002FF80E21124811F093F8642014F03CFED1
:10112000104B0393092108220A238DE80E000C4B73
:1011300040228021044610F07DF941F2F40350462C
:101140004AF8034007B0BDE8F08F00BF01F0FFFF91
:101150009A99993F52491D3A3CD501008CDEFF1FF8
:101160001CA3FF1F00127A0030B583B00546069C11
:10117000002CCABFE0B2007D28752B614BB942B28A
:10118000002A02DD194612F05BFF00232B7003B02A
:1011900030BD084BA9601B68019343B2019CEA6013
:1011A0000121002B6C602970F1DD12F049FF03B0C2
:1011B00030BD00BF88E1FF1F70B5064E41F24C55AF
:1011C000705911F01BFC044610B1705911F0BEFBB0
:1011D000204670BD08C9FF1F38B5144C41F2F0031A
:1011E0000546E05811F068FCB4F8863DB4F8842D4B
:1011F000181A83B29342A4F8863D15D00C4A1168A0
:101200000AD80029CCBF01F1FF31002111604FF055
:10121000FF30A4F8843D38BDA942B8BF0131116048
:101220000120A4F8843D38BD002038BD08C9FF1F47
:1012300034B0FF1F2DE9F04F914BDFF8789241F267
:10124000F4048FB018590025402203688DE824006B
:1012500029461E6C2A468023B047894B0121185924
:101260000FF0ECFE864B87491859036885820126EA
:101270005B68C5810822058246829847804B1978B1
:101280001859314414F09EFC7D4B7F49185903686E
:1012900007225B689847D9F80000002800F0D98041
:1012A00015F0A8FF4FF07C5115F0F8FF15F0C4FBC6
:1012B000734B1D59009602460B46284614F08CFCD1
:1012C0006F4B72491C59236832465B682046984729
:1012D000204614F011FC002306936D4B0793DFF8B2
:1012E000D8810E230593059B079E043B1BB20493F4
:1012F000069B1D4603EB4303039300240127039B36
:10130000D9F80020D8F800A0EB189A4200F09A8093
:101310004FF00003AAF81270AAF814300FFA84FBF9
:10132000BDF81030AAF8103009A8AAF80EB0002DA8
:1013300000F09B8017F044F8DAF8003002465B6852
:1013400009A950469847504614F0D6FB3378002B35
:101350006CD11E34A4B2782C06F1010605F101050A
:10136000CDD1059B069A09339BB20593079B0132A9
:101370000433052A06920793B5D141F2F404404A9A
:101380004449105937230268038201250023566817
:1013900045828382C3810422B0473F4B384A196893
:1013A00010593E4E14F00EFC354B3D491859036858
:1013B0002A465B689847324B3168185914F002FC92
:1013C0002F4B3749185903682A465B689847354BB5
:1013D00030681E687368C01A15F00CFF0746B068C5
:1013E00015F008FF0146384616F00CF82E4915F0A6
:1013F00055FF15F021FB224B1E59022702460B46D2
:101400000097304614F0E8FB1D4B20491E59336805
:101410002A465B6830469847304614F06DFB184BFF
:10142000185910F077FC0FB0BDE8F08FD8F8000025
:10143000BDF9142003680097D3F83CA0594618233F
:10144000D04786E74FF00003AAF81230AAF81470CC
:1014500064E70B4B15491C59236820465B6803223F
:101460009847204614F048FB35E7DAF80030104979
:101470005B68042250469847504614F03DFB68E7ED
:1014800008C9FF1F98C20100A4C20100ACC201003C
:10149000ACB2FF1FBCC20100CC92FF1FD498FF1F4B
:1014A000C4C20100B4B0FF1F00002041B0C201005F
:1014B000B4C2010034B0FF1FFCD9FF1F2DE9F04F6B
:1014C0009F4BA04AA04C1B681268596892F856605E
:1014D0009B6841F2F40785B0E05902930025402251
:1014E000036803918DE8240029462A46D3F84080FA
:1014F0008023C047E05901210FF0A0FDE059934936
:101500000368858201224282C58105825B680322CD
:10151000984721780729C6F3411640F2DE806378A8
:10152000E059022B03680CBF89498A495B68052290
:101530009847894F3B68002B40F0C78041F2F40187
:101540000122605843828282036884495B680822D2
:1015500098473B68012B00F0D58041F2F40301224B
:10156000E55800236A82AB822B687D495B68DFF80F
:10157000D8B10322284641F2F40A9847284614F0CD
:10158000BBFA54F80A5077492B684FF000084FF027
:10159000010911225B682A82A5F812901022A5F891
:1015A0001480A5F80E8028469847284614F0A4FA1F
:1015B0003B685BF80A00022B4FF01B0303820368B1
:1015C00007BFA0F81280A0F81490A0F81290A0F81D
:1015D00014800022022EC2810CBF634963495B68FC
:1015E000102298473B68032B41F2F40300F08480FB
:1015F000E05801220023428283822523038203686C
:10160000022E4FF0000241F2F4050CBF584959492F
:10161000C2815B68102298476059574902680123CC
:10162000438237270023078257688382C3810422BD
:10163000B847524B444A1B68002B0DDD504F55599B
:1016400003EB83031F44384616F0BAFE2B680246AC
:1016500039465B682846984741F2F40503226059F1
:1016600048490368384F5B689847474B1868039BA5
:10167000022EA0EB03004CD015F0BCFD06460298EC
:1016800015F0B8FD0146304615F0BCFE3F4915F097
:1016900005FE15F0D1F97D59022602460B4600964B
:1016A000284614F099FA41F2F4060122A559384966
:1016B0002B6828465B689847284614F01DFAA05905
:1016C00005B0BDE8F04F10F025BB41F2F403012254
:1016D000E05800234282838236E70131E05914F05A
:1016E00071FA6378E059022B03680CBF29492A4933
:1016F0005B68052298471CE7E058002201234282DC
:1017000083827AE741F2F40100226558AB826A8253
:101710002AE715F06FFD8046029815F06BFD014633
:10172000404615F06FFE1D4915F0B8FD15F084F91F
:101730007D59009602460B46284614F04DFAB2E752
:10174000B4B0FF1FD8C3FF1F08C9FF1FC8C20100E4
:10175000CCC20100D4C2010034B0FF1FECC20100B2
:10176000B0C20100F8C201000CC3010020C3010097
:1017700034C3010048C30100BCC20100CC92FF1F6A
:10178000A0BD01005CC30100D498FF1F00002041F0
:10179000ACC20100DCC20100E4C201000000A040B4
:1017A0002DE9F04F884B894E41F2F4050024585939
:1017B0008BB0402203688DE8140021461F6C22463E
:1017C0008023B847804B012158590FF037FC7E4BDE
:1017D0007F4958590368C48101275B680482848269
:1017E00047820A2298473368002B40F0E080764A0F
:1017F000505943828782036876495B68082298477C
:101800003368012B00F0D88041F2F4036E49CC58C4
:10181000012200236282A38223686F495B68DFF89C
:10182000D091032220469847204614F065F941F2F2
:10183000F405654B69495C5923684FF000080A229A
:1018400001265B682282A4F80E801422A4F812807C
:10185000A68220469847204614F04EF95A4B60491C
:101860005C592368A4F80E8025225B6822822046FA
:1018700014229847204614F03FF9534B53F805A023
:10188000584B594D0393AAF81260AAF814804FEAF6
:10189000A80606EB460659F804BF06EBC60608F094
:1018A00003074FF0000CB6B2C7EB071706F113039E
:1018B0007F00E345AAF81030AAF80E708DF818C022
:1018C00064DB05AB06AC9C44A64601209BFBF0F311
:1018D00085FB0321DA17C2EBA10202EB8202A3EB24
:1018E000420330330EF8013D00EB8000E6454FEA3D
:1018F0004000EBD105A816F063FDDAF8003002468F
:101900005B68504605A99847384BD3F800A0039B65
:1019100053F8041F039306F11C030026B142AAF8F2
:101920000E70AAF810308DF8186029DB05AB1E4444
:10193000012091FBF0F385FB0327DA17C2EBA70226
:1019400002EB8202A3EB4203303304F8013D00EBCB
:101950008000A6424FEA4000EBD105A816F030FD0A
:10196000DAF80030024608F101085B68504605A924
:101970009847B8F1080F11D01C4BD3F800A086E7A8
:101980002D2349428DF814300126CFE72D23CBF1CA
:10199000000B8DF814304FF0010C92E741F2F40384
:1019A000094AD05810F0B6F90BB0BDE8F08F064BDD
:1019B0005859478284821EE741F2F4010248445894
:1019C0000022A382628227E708C9FF1F34B0FF1FED
:1019D00060C301006CC30100B0C2010078C3010004
:1019E00090C3010034B8FF1F67666666FCD9FF1F0D
:1019F0008CB0FF1F7C4B1A68F0B40346D46DB2F96B
:101A0000580007290CD8DFE801F0042D32517292FA
:101A1000B20D764A106891889279186099809A710F
:101A2000F0BC7047126E0026A4185E7100F1BD80F4
:101A30006F4F1E440120053394FBF0F287FB021523
:101A4000D117C1EBA50101EB8101A2EB41023032BC
:101A500003F8012D00EB8000B3424FEA4000EBD1C8
:101A6000F0BC7047634A10681860F0BC70470026ED
:101A7000041E5E71C0F2B2805D4F1E44012005332A
:101A800094FBF0F287FB0215D117C1EBA50101EB26
:101A90008101A2EB4102303203F8012D00EB8000FE
:101AA0009E424FEA4000EBD1F0BC7047B2F95A6059
:101AB000002536185D7100F18C804D4F1D440120CA
:101AC000053396FBF0F287FB0214D117C1EBA4019A
:101AD00001EB8101A2EB4102303203F8012D00EB52
:101AE0008000AB424FEA4000EBD1F0BC7047B2F946
:101AF00064600025AE425D7166DB3D4F1D440120F0
:101B0000053396FBF0F287FB0214D117C1EBA40159
:101B100001EB8101A2EB4102303203F8012D00EB11
:101B20008000AB424FEA4000EBD1F0BC7047B2F905
:101B300066600025AE425D7141DB2D4F1D440120E2
:101B4000053396FBF0F287FB0214D117C1EBA40119
:101B500001EB8101A2EB4102303203F8012D00EBD1
:101B60008000AB424FEA4000EBD1F0BC704700264A
:101B7000B4425E711EDB1E4F1E440120053394FBF0
:101B8000F0F287FB0215D117C1EBA50101EB810132
:101B9000A2EB4102303203F8012D00EB8000B3428A
:101BA0004FEA4000EBD1F0BC70472D2264421A701E
:101BB00001263DE72D2264421A700126DBE72D2223
:101BC00076421A700125B8E72D2276421A70012557
:101BD00093E72D2276421A7001256EE72D2264428A
:101BE0001A70012648E700BFD8C3FF1FA8C3010031
:101BF00067666666B0C201002DE9F04F684CDFF8F9
:101C0000C8A141F2F4068BB0A05900254022036818
:101C10008DE8240029462A461F6C8023B847A05926
:101C200001210FF00BFAA0595E4903688582012259
:101C30005B684282C5810322058298472178A059BA
:101C4000013113F0BFFF6378A059022B036808BF6E
:101C500055495B6818BF554905229847DAF80030A6
:101C6000002B40F0838041F2F4010122605843824E
:101C7000828203684E495B6808229847DAF8003090
:101C8000012B7BD041F2F4030122E55800236A8244
:101C9000AB822B6847495B68DFF820910322284616
:101CA0009847284613F028FF41F2F4030122E45834
:101CB000414923686282002610225B682282A68244
:101CC000E68120469847204613F016FF1C234FF06C
:101CD000020B02934FEA4608BDF90830039308F15E
:101CE000020818250024D9F8003001210022598269
:101CF0009A82002E49D0DAF8002008EB04019142C4
:101D00004FF001002ED0002258829A82BDF80C209C
:101D1000DA811D820BEB040105A8FFF76BFED9F8F1
:101D2000007005A816F04CFB3B6802465B6805A9ED
:101D3000384698470134384613F0DEFE0A35022C47
:101D4000ADB2D0D1029B01362A339BB2022E029350
:101D50000BF1020BBED1194B18680FF0DBFF0BB073
:101D6000BDE8F08F002159829882CFE741F2F40359
:101D70000122E0580023428283827AE741F2F40193
:101D800000226558AB826A8283E718460C4924B169
:101D9000FEF71AFE094B1B68ADE718460949F7E73D
:101DA00008C9FF1FC8C20100DCC20100E4C2010073
:101DB000ECC20100B0C20100B0C30100FCD9FF1F9A
:101DC000C4C30100CCC3010034B0FF1F30B40D4BBD
:101DD0005B78012B0C4B0AD91C68E56C056094F903
:101DE000500008701B681B6A136030BC70471B688A
:101DF0009C6C046093F94C0008701B6A136030BC43
:101E0000704700BF08C9FF1FD8C3FF1F2DE9F04F5F
:101E100091B008AA0DF1130107A8FFF7D7FF0898A2
:101E2000AC4C15F0E3F9AC4915F0ECFA0146AB48BF
:101E300015F0E8FAAA4915F0E5FA41F2F40607466A
:101E4000A05900250368019540220092D3F84080F4
:101E50002A4680232946C047A05901210FF0EEF8F9
:101E6000A059A0490368858201225B684282C5812E
:101E70000322058298472178A059013113F0A2FE70
:101E80006378022B00F07981032B00F06F81012B26
:101E900000F0B580944E3368002B40F0A88041F2EA
:101EA000F401012260584382828203688F495B6893
:101EB000062298473368012B00F0518141F2F40368
:101EC0000122E55800236A82AB822B6888495B684F
:101ED000DFF800A20422284641F2F4099847284678
:101EE00013F00AFE54F8095082492B684FF000089D
:101EF0000C224FF0010B5B682A82A5F812B0122267
:101F0000A5F81480A5F80E8028469847284613F0B7
:101F1000F3FD54F809001423A0F80E800382022177
:101F20000FF08CF83268022A70D041F2F4019DF96A
:101F300013306558053301216982D9B200200A297E
:101F4000A88273D9022A00F084800DF124082B683E
:101F500069495B684FF001094FF0000A0222A5F8B9
:101F60001290A5F814A028469847384614F064FD4E
:101F70000B4602466149404616F092F93368032B3E
:101F800000F09B8041F2F4030122E55800236A82AD
:101F9000AB82404616F014FA2B6802465B68414655
:101FA00028469847284613F0A7FD3368032B00F016
:101FB000AF8041F2F40501216059514E454F0FF0B9
:101FC0003DF86359002201219A82598212F052F899
:101FD000336847F22F52C01A904205D978590FF052
:101FE00099FE12F047F8306011B0BDE8F08F41F271
:101FF000F4030122E05800234282838255E7A0596E
:102000004049036806225B68984743E73E4B1B78CC
:10201000002B8AD09DF913305AF809500533DAB2F3
:102020000A2AA5F81280A5F814B08ED8374A52F8BB
:102030002380404616F0C4F92B6802465B682846A8
:1020400041469847326841F2F403022AE5587FF48A
:102050007CAF2D4B1A78002A7FF477AF9DF91330AF
:102060002A4905330DF11A0C51F82310CDF808C098
:102070000DF1180E0DF1160341F2F4090DF12408CB
:1020800028468DE80840CDF80C8014230FF016F98F
:1020900054F80900BDF92410056800914FF0010EB5
:1020A000CDF804E0ED6CBDF91A30BDF91820BDF98A
:1020B0001610A84754F8095049E7134B1B78002B1A
:1020C0003FF460AF41F2F403E558A5F812A0A5F87B
:1020D00014905EE708C9FF1F00007A4400606A4759
:1020E0000000C041C8C2010034B0FF1FA8C30100F6
:1020F000B4C20100ECC30100E8C3010000C4010048
:1021000004B0FF1FD4C30100309BFF1F4CBD010072
:102110001D4B1B78002B7FF44CAF41F2F4050DF101
:102120001A03039306AE0DF1160205AB6059029631
:102130004146019200933C2214230FF0BFF86059EE
:10214000BDF91A600568009601260196BDF91830A0
:10215000BDF91620BDF91410ED6CA84729E741F22E
:10216000F40100226558AB826A82AEE6A0590749A5
:10217000036806225B6898478CE6A0590449036807
:1021800006225B68984785E6309BFF1FE4C3010089
:10219000DCC3010000B5807B00F01F031E2B15D8A7
:1021A000DFE803F01D1D52525252373F5252525235
:1021B000522923161D1D52525252521D1D1D1631F9
:1021C000464C100000200B23088013805DF804FBB0
:1021D000002043F6FF73088013805DF804FBC0F312
:1021E0004110012834D002283AD000207F230880F3
:1021F00013805DF804FB4FF4004047F6FF7308803E
:1022000013805DF804FB00200723088013805DF82D
:1022100004FB4FF4604041F6FF73088013805DF8C3
:1022200004FB4FF69C706423088013805DF804FB68
:1022300000203323088013805DF804FB0020132363
:10224000088013805DF804FBC0F341100128CCD155
:102250004FF680704FF48073088013805DF804FBA4
:1022600000203C23088013805DF804FB827B01F092
:102270001F0161F304021F29827314D010B50122DB
:10228000194C02FA01F10C4034B9184A0A405AB903
:10229000174A0A40D2B910BD00217F2201828183F2
:1022A0004282C28310BD7047827BC2F34112022A70
:1022B00006D13C217822048284834182C28310BDEE
:1022C0007822048284834282C28310BD044600F1D6
:1022D0001E0200F11C01FFF75DFFB4F91C20E38B27
:1022E00022829B1A6382D6E73C1F7C000300830393
:1022F000C0E0007C2DE9F041554D564C2978564BF5
:1023000062780020012918607FD0012A40F286807F
:10231000022A7AD0032A52D0504E306890F85630B4
:10232000DFF868814E4FDFF868E1DFF868C113F02D
:10233000600218BF012288F8002000F158023A60BC
:10234000C26DCEF80020DFF850E1026ECCF800201C
:10235000444AB0F864C0AEF800C0DFF840E1B0F81D
:1023600066C0A2F800C0404AB0F858C0AEF800C03D
:10237000B0F85AE0A2F800E001F0FD02012A08D10D
:102380003A4AC3F30403002148301370FFF76EFF8D
:102390002978374B374A384D38484FF0010EC3F88B
:1023A00000E04FF0FF33136071454FF000022B60E7
:1023B00002700DD0324B01201870BDE8F0812078FA
:1023C000264E00EB400004EBC0107C303060A5E7E7
:1023D0003568386895F856602A4B2B4962F34616E3
:1023E00085F85660D4F8A85DD4F8AC4D846045609B
:1023F00003F1140003F8012F834241F8042FF9D1AF
:102400001F4B01201870BDE8F0812078134E00EBBF
:10241000400004EBC010083030607FE7052901D090
:10242000BDE8F081012A7FF477AF237810490B4E85
:102430000A6003EB430304EBC3130E4D0E4C0F492C
:102440004FF0FF32F03333602A6022600870B1E74A
:1024500011B0FF1F08C9FF1FE4AFFF1FD8C3FF1F44
:10246000B4B0FF1F1891FF1FC0B0FF1F24B0FF1FA3
:1024700034B0FF1FD498FF1FCC92FF1FB8B0FF1FCE
:1024800000B0FF1FABB2FF1FD0B7FF1F64B8FF1F24
:10249000E4C3FF1FF8C8FF1F74E1FF1F50B0FF1F08
:1024A0002DE9F043DFF8C8802B4F98F80030052263
:1024B00087B03A707BB1294E3568ADB1A84720B9D5
:1024C0000024204607B0BDE8F08300242046346095
:1024D00007B0BDE8F083FFF70DFF0028EBD1012422
:1024E000204607B0BDE8F0831D4B18780238FEF790
:1024F00073FE2846FFF78AFCFEF75EFE04460028BE
:10250000DED0184B1B68012B06DD023B164A52F841
:10251000233033602C46D4E7144E41F2F4034022BA
:10252000F05803688DE824002946D3F840902A46E5
:102530008023C84705AA0DF10F0104A888F80050B0
:102540003D70FFF743FC9DF80F20049B86F8D02DCB
:10255000C6F8CC3DB5E700BF11B0FF1FE4AFFF1FC9
:102560001095FF1F34B0FF1F688DFF1F08C9FF1FA4
:1025700000B0FF1F2DE9F04FA54BA64D1B7803229D
:1025800083B02A70002B00F0A680A34BA34E1F68D7
:1025900097F85640F86DC4F34114022C00F0B8804F
:1025A00014F028FE8046B7F95A00B7F958B014F075
:1025B00021FE8246386E14F01DFE8146CBF11800D4
:1025C00014F018FE514614F01DFF494614F066FE43
:1025D000414614F05BFD15F027F83060CBF1600048
:1025E00014F008FE514614F00DFF494614F056FE53
:1025F000414614F04BFD15F017F8DFF85892C9F872
:1026000000008749874ADFF850A2B7F916300878EA
:10261000B98ACAF800101360FEF7DEFDFEF74EFF20
:10262000FEF7CAFD804600283CD0DFF83082D8F89B
:102630000000012840F3C680022800F0BD80032876
:1026400000F0B4803568D9F80000022CA0EB05003A
:1026500000F0908014F0CEFD0446284614F0CAFD28
:1026600021460546204614F011FD6F4914F0CAFEBC
:102670000146284614F008FD14F0D6FF6B490546C4
:10268000204614F00BFE684914F0BCFE14F0CCFF99
:10269000674B1B684FF000085D609860404603B0D0
:1026A000BDE8F08F2B78032BF8D1BAF80000FDF7C6
:1026B0005FFF604A41F29D03D35C002BEED00028FF
:1026C000ECD05D4B1A788242E8D0DFF89081187028
:1026D000C8F80000ADE7FFF70DFE044600287FF4C0
:1026E00054AF544D55494FF00108FF2205F665607F
:1026F00085F8648E15F0D2FE4FF4FA621123A5F826
:102700006C4FA5F8704FC5F8682FA5F86E3FC5E768
:1027100014F070FD8346B7F95A00B7F958A014F0C9
:1027200069FD8146386E14F065FD8046CAF10C00E3
:1027300014F060FD494614F065FE414614F0AEFD0C
:10274000594614F0A3FC14F06FFF3060CAF130005A
:1027500014F050FD494614F055FE414614F09EFD1C
:10276000594614F093FC14F05FFFDFF8E890C9F8C5
:10277000000046E714F03EFD0446284614F03AFDFA
:102780002F490546204614F03DFE0146284614F028
:102790007BFC14F049FF2B490546204614F07EFDD2
:1027A000274914F02FFE14F03FFF71E7DAF800001C
:1027B0003568C9F8000048E7DAF800503560D9F804
:1027C000000042E71B4941F2F4030022C8584021AF
:1027D00003688DE8060011461C6C8023A0470E4B51
:1027E0001868194B48301978FFF740FDD8F80030C9
:1027F0003BB90F4B1549164A1B68096812685960A6
:102800009A60034A002313702B704FF0010845E7CC
:1028100000B0FF1F11B0FF1FD8C3FF1F88B0FF1FFC
:1028200018A3FF1FCC92FF1F0000C04000002041F2
:10283000B4B0FF1F08C9FF1FB8B0FF1F08C40100D4
:10284000000040400000A04024B0FF1FE4C3FF1F71
:10285000F8C8FF1F8CB0FF1FD498FF1F34B0FF1FB4
:1028600010B582B002AB42F2257243F8042D044643
:10287000017004221846002111F0D2F920460122ED
:10288000022111F0CDF9032002B010BD2DE9F04175
:10289000804682B018F8041B744D754F0446FFF74C
:1028A000DFFF042206460146404611F0B9F9311D0A
:1028B00004F10800042211F0B3F906F1080104F153
:1028C0000C00042211F0ACF906F10C0104F1100027
:1028D000042211F0A5F906F1100104F114000422FC
:1028E00011F09EF906F1140104F11800042211F010
:1028F00097F906F1180104F11C00042211F090F977
:1029000006F11C0104F12000042211F089F906F1FE
:10291000200104F13500692211F082F906F18901E4
:1029200004F12800042211F07BF906F18D0104F175
:102930002C00012211F074F906F18E0104F130002F
:10294000042211F06DF906F1920104F13400012224
:1029500011F066F90D21474812F032FE00230A22D9
:102960002178284613F0EEF80221434812F028FEA1
:102970006168284613F026F93846012112F020FE3E
:10298000A168284613F01EF93846012112F018FEFE
:10299000E168284613F016F93846012112F010FEBE
:1029A0002169284613F00EF93846012112F008FE7D
:1029B0006169284613F006F93846012112F000FE3D
:1029C000A169284613F0FEF83846012112F0F8FDFF
:1029D000E169284613F0F6F83846012112F0F0FDBF
:1029E000216A284613F0EEF83846012112F0E8FD7E
:1029F000A06A14F021F84FF0020802460B46CDF809
:102A00000080284613F0E8F83846012112F0D8FD7E
:102A100094F92C10284613F0D5F83846012112F00D
:102A2000CFFD00230A2294F83410284613F08AF8C8
:102A30003846012112F0C4FD206B13F0FDFFCDF8E4
:102A4000008002460B46284613F0C6F8384601219E
:102A500012F0B6FD06F19301284613F0B3F82846AC
:102A600013F04AF8962002B0BDE8F08140A5FF1FA0
:102A7000C4C201001CC40100ECC9010070B50646C7
:102A800084B0002011F068F88DF80E00012011F0DC
:102A900063F88DF80F00BDF80E2042F225739A42BC
:102AA00040F00781022011F057F803288ABFFF2366
:102AB00030703370F51C0324204611F04DF80134BA
:102AC000072C05F8010FF7D1F51D204611F044F849
:102AD00001340B2C05F8010FF7D106F10B05204648
:102AE00011F03AF801340F2C05F8010FF7D106F177
:102AF0000F05204611F030F80134132C05F8010FB2
:102B0000F7D106F11305204611F026F80134172CF1
:102B100005F8010FF7D106F11705204611F01CF852
:102B200001341B2C05F8010FF7D106F11B052046D7
:102B300011F012F801341F2C05F8010FF7D106F13E
:102B40001F05204611F008F80134232C05F8010F69
:102B5000F7D106F13405204610F0FEFF01348C2C2D
:102B600005F8010FF7D106F12705204610F0F4FF14
:102B70000134902C05F8010FF7D1204610F0ECFF3E
:102B800006F12F0586F82C009124204610F0E4FF72
:102B90000134952C05F8010FF7D1204610F0DCFF29
:102BA0000C2186F83400484812F00AFD00230A225E
:102BB0003178464812F0C6FF0221454812F000FD68
:102BC0007168424812F0FEFF0121424812F0F8FC01
:102BD000B1683E4812F0F6FF01213E4812F0F0FCC9
:102BE000F1683A4812F0EEFF01213A4812F0E8FC91
:102BF0003169364812F0E6FF0121364812F0E0FC58
:102C00007169324812F0DEFF0121324812F0D8FC1F
:102C1000B1692E4812F0D6FF01212E4812F0D0FCE7
:102C2000F1692A4812F0CEFF01212A4812F0C8FCAF
:102C3000316A264812F0C6FF0121264812F0C0FC76
:102C4000B06A13F0F9FE022402460B4600941F48B6
:102C500012F0C2FF01211F4812F0B2FC96F92C10AD
:102C60001A4812F0AFFF01211A4812F0A9FC002304
:102C70000A2296F83410154812F064FF0121154815
:102C800012F09EFC306B13F0D7FE009402460B4608
:102C90000E4812F0A1FF01210E4812F091FC96217E
:102CA0000A4812F08FFF094812F026FF962004B060
:102CB00070BD1B21084812F083FC044812F01CFF71
:102CC000002004B070BD00BF48C4010040A5FF1F34
:102CD000ECC90100C4C201002CC401002DE9F84375
:102CE000099C089E0F46904699461CB1086814F04E
:102CF0009BFCA0471D4D41F2F003E8580FF0DCFEAD
:102D0000B5F8864DB5F8843D201A84B29C42A5F8EA
:102D1000864D24D094BF06F100403046396814F047
:102D2000B5F94146064614F057FC58B949463046B5
:102D300014F070FC68B1C7F800900020A5F8844D2D
:102D4000BDE8F883C7F800800020A5F8844DBDE8F1
:102D5000F8833E600020A5F8844DBDE8F88341F279
:102D60004C53E858BDE8F8430FF048BE08C9FF1FB0
:102D70002DE9F043284D6B78012B85B0274B44D9C2
:102D80001B68186A03F14C0903F1200414F02EFAB1
:102D9000234914F037FB0146224814F033FB224943
:102DA00014F030FB13F0BAFC04A9204A41F8040DDA
:102DB0004FF07E5380460192009300221C4B1D4829
:102DC000FFF78CFF1C4B039F1870064614493846CA
:102DD00014F018FB0146134814F014FB124914F0C8
:102DE00011FB14F047FC41462060384614F00AFB02
:102DF000D9F8001014F052FA0346C9F80000304622
:102E0000C5F8CC3D05B0BDE8F0831C68206A04F12C
:102E100048092034BAE700BF08C9FF1FD8C3FF1F05
:102E200000007A4400606A470000C0410D1E0000A7
:102E30000000FA434CD7FF1F309BFF1F70B51F4D9A
:102E40006B78022B84B032D0032B29D0012B02D017
:102E500000231B7AFFDE2C7804EB440405EBC4143A
:102E600004F59A7494F9080014F0C4F904A9144AFA
:102E700041F8040D4FF07E5301920093114A124B1A
:102E80001248FFF72BFF124B06461E70039814F0F2
:102E9000CBFB40B2207285F8D00D304604B070BD37
:102EA0002C7804EB440405EBC414C434DAE72C7822
:102EB00004EB440405EBC4145034D3E708C9FF1FE6
:102EC0000D1E00000000A0C00000A0404CD7FF1F56
:102ED000309BFF1F2DE9F843099CDDF820900E463A
:102EE00090461F460CB10868A0471C4D41F2F00304
:102EF000E8580FF0E1FDB5F8864DB5F8843D201A8D
:102F000084B29C42A5F8864D21D0E01A14F072F9E3
:102F1000494614F0C3F98146306814F06BF9014654
:102F2000484614F0B3F814F07FFB404508DB8742B5
:102F3000A8BF074637600020A5F8844DBDE8F88398
:102F4000C6F800800020A5F8844DBDE8F88341F262
:102F50004C53E858BDE8F8430FF050BD08C9FF1FB7
:102F60002DE9F047234CBDF82090099D41F2F00770
:102F70000646E05990460F469A460FF09DFDB4F87C
:102F8000863DB4F8841D184480B2A4F8860D8842AA
:102F900096F861221BD2AB5C013BDBB22F2B98BFB2
:102FA0003923AB5428460A22002115F047FB40453F
:102FB000386013DAB4F8860DC7F8008041F24C533C
:102FC000A4F8840DE058BDE8F0470FF017BDF5D91F
:102FD0005AB909F1FF3986F86192EFE75045C8BF49
:102FE000C7F800A0B4F8860DE8E7013A86F8612238
:102FF000E4E700BF08C9FF1FF8B5204C41F2F00319
:103000000546E0580E4617460FF056FDB4F8863DCB
:10301000B4F8841D184480B2A4F8860D95F8612296
:103020008842B35C1ED20133DBB213F0800F18BFAD
:103030002023B354B4F8860DA4F8840D41F24C5308
:10304000E0580FF0DBFC60B195F86132013FBB4204
:1030500007D013B93278202A0ED0013385F86132B7
:103060000020F8BDE8D9013BDBB21F2B98BF7F23BE
:10307000B354B4F8860DDFE73370F8BD08C9FF1FFD
:10308000F0B5DFF844E041F2F40583B008465EF89D
:103090000550BDF820601F46144615F091F904EB69
:1030A0004404A4002A68033400EB400312210020EA
:1030B0000190009104EB43031BB2146C39B2284613
:1030C00032B2A04703B0F0BD08C9FF1F2DE9F04F91
:1030D000DFF8BC8041F2F40785B00E469B4658F8F5
:1030E0000700BDF83890012114460DF0A7FF0BF141
:1030F000020058F8075083B21A464FF0010A09F14E
:1031000005034FF00001EA812B82A5F812A0A982E5
:103110003046039215F054F92B6802465B6831463D
:1031200028469847284612F0E7FC58F80700022185
:103130000DF084FF58F807504FF00001A982304687
:10314000A5F812A015F03CF9039A00EB400002EB41
:10315000400009EB0A03E8812B82304615F030F974
:1031600004EB4404A4002E68CDF804A000EB40005A
:1031700003341222009204EB40031BB20FFA89F2CF
:103180000FFA8BF12846F46CA04705B0BDE8F08F2C
:1031900008C9FF1F2DE9F04F87B01F46BDF840401A
:1031A00004942546BDF844400094A94688460293FD
:1031B00016462B463A46054605940391FFF760FFF5
:1031C0004B463A46009441462846FFF77FFF41F2BE
:1031D000F403254A254F52F803B000245B46A1466C
:1031E000A3464FF001081C4617E095F8613253459D
:1031F000236804BFA4F81290A4F814801B6816F882
:103200000A10984795F861323C68534504BFA4F80A
:103210001280A4F814900BF1010B304615F0D0F891
:103220001FFA8BFA50452046DFD822681049A34682
:1032300054680022A047584612F05EFC029A3146BC
:103240002846FFF7D9FE58B1059B00932846049BFA
:10325000029A0399FFF714FFFF2385F861320120DA
:1032600007B0BDE8F08F00BF08C9FF1FFCD9FF1FE2
:10327000A8C50100F0B5044690F8610287B0FF28A8
:10328000BDF83050BDF834600AD08DE860002046AB
:10329000FFF780FF10B1FF2384F8613207B0F0BD63
:1032A000002084F86102104605930491039215F002
:1032B00087F8059B039A04999842E6D207DA1044EE
:1032C00002EB030E202700F8017B7045FBD10020A4
:1032D000D054DAE7102B2DE9F84F05460C464FF095
:1032E000000E55D8724501F803E057DB9E4518DA09
:1032F000DFF8BCC0E718012692FBF6F18CFB010851
:10330000C817C0EBA80000EB8000A1EB4001013B17
:1033100006EB8606303173454FEA460607F8011D75
:10332000EADC214ADFF88C9041F2F4034FF0000808
:10333000D758C3464FF0010A17E095F86132B342FF
:103340003B6804BFA7F812B0A7F814A01B68A15DE2
:10335000984795F86132D9F80070B34204BFA7F8D6
:1033600012A0A7F814B008F10108204615F028F8BB
:103370001FFA88F6B0423846DFD83B680B495B68D5
:103380003846002298473846BDE8F84F12F0B4BBE3
:10339000724581F810E04FF01003A9DA2D21524256
:1033A00021704FF0010EA1E708C9FF1FA8C5010059
:1033B00067666666FCD9FF1F2DE9F04F89B00546A8
:1033C000BDF84C40BDF85060BDF8547000978B4676
:1033D0009046994622463346FFF752FE3346009701
:1033E000224659462846FFF771FE169B0DF10C0A3E
:1033F0005BB350462246D8F80010984795F86132E2
:10340000FF2B16D08DE810044A464146129B2846F1
:10341000FFF7A6FD50B1334628460097224659468D
:10342000FFF72EFEFF2385F86132012009B0BDE8C9
:10343000F08F00224FF07E53019200934A4641469E
:10344000129B2846FFF746FDE4E751462346D8F88D
:1034500000202846FFF73EFFD0E700BFF0B51C4A2A
:10346000137803EB4303DB01D11889B091F85E00B8
:10347000C00626D101F5A074B1F84011079141F2C0
:10348000A5031349D25C124DFF2A04BF0322CA547C
:103490002D2700234FF47A7204268DE844000D494D
:1034A000049305F644600293039707AAFFF784FF8D
:1034B00018B141F2A503FF22EA54079B238009B00B
:1034C000F0BD1344B1F85C1003F15C04D6E700BF13
:1034D00008C9FF1F58C401002DE9F0432B4D2C49AA
:1034E000D5F8D40D294E89B013F0D8FE14F09CF80D
:1034F00041F2A5032D21EA5C0790FF2A04BF0422B4
:10350000EA54244B0093052200230391019206F60E
:1035100044600493029307AA1F49FFF74DFF8046BA
:1035200038B341F2A503FF22F254079813F062FE6C
:10353000174913F067FF34460146C6F8D40D06F567
:103540004067B14601E0D9F8D41D95F8D86DD4F89C
:10355000E80010F079F8304613F048FE04F5C07426
:1035600054F8983CA7421861EDD1404609B0BDE837
:10357000F083079813F03EFE054913F043FFC6F8A9
:10358000D40D404609B0BDE8F08300BF08C9FF1F55
:103590000050C3473F420F0064C40100F0B5154C12
:1035A000154A2378154989B003EB430304EBC31391
:1035B000049293F8643108AA1B0942F8043D2D27B0
:1035C000002302260B25029304F6446003978DE83E
:1035D0006000FFF7F1FE2378079A03EB430304EB47
:1035E000C31494F8643162F3071384F8643109B0AA
:1035F000F0BD00BF08C9FF1F0907000070C401002B
:103600002DE9F0431D4D1E4995F8D80D89B008AA43
:10361000002304262D274FF4807442F8040D8DE812
:10362000500005F64460049302930397FFF7C4FE2D
:103630009DF81C6085F8D86D814618B9484609B0D8
:10364000BDE8F0832C4605F54067A84601E098F8F0
:10365000D86DD4F8E800D5F8D41D0FF0F5FF30464A
:1036600013F0C4FD04F5C07454F8983CBC421861D2
:10367000EDD1484609B0BDE8F08300BF08C9FF1F7F
:103680007CC40100F0B52F4C6378022B89B032D096
:10369000032B29D0012B02D000235B78FFDE237897
:1036A00003EB430304EBC31303F59A7308AA5B7897
:1036B000244E42F8043D2D27002503974FF0030EBA
:1036C0007F272B462049049506F6446002958DE835
:1036D0008040FFF771FE6378022B28D0032B1CD0AB
:1036E000012B0FD06D70FFDE237803EB430304EB57
:1036F000C313C433DAE7237803EB430304EBC313A8
:103700005033D3E7337803EB430306EBC31606F5D8
:103710009A76079B737009B0F0BD337803EB4303CF
:1037200006EBC316C436079B737009B0F0BD33783F
:1037300003EB430306EBC3165036079B737009B0C7
:10374000F0BD00BF08C9FF1F84C40100F0B52E4CB6
:103750006378022B89B031D0032B28D0012B02D003
:1037600000231B78FFDE237803EB430304EBC31332
:1037700003F59A7308AA1B7842F8043D224D2349A9
:103780002D2300260393032710238DE8880005F6D8
:103790004460012304960296FFF70EFE6378022B25
:1037A00028D0BB421CD0012B0FD03670FFDE23780F
:1037B00003EB430304EBC313C433DBE7237803EBCE
:1037C000430304EBC3135033D4E72B7803EB4303D9
:1037D00005EBC31505F59A75079B2B7009B0F0BD75
:1037E0002B7803EB430305EBC315C435079B2B7004
:1037F00009B0F0BD2B7803EB430305EBC31550353F
:10380000079B2B7009B0F0BD08C9FF1F90C40100D1
:10381000F0B5314C6378022B89B037D0032B2ED012
:10382000012B02D000235B68FFDE237803EB430308
:1038300004EBC31303F59A735868274D13F0F4FE95
:1038400008AA00262D270321FF2342F8040D039721
:103850000191009305F644600123049602961F49E6
:10386000FFF7AAFD6378022B07462DD0032B24D047
:10387000012B12D0079813F0BDFC7060FFDE237897
:1038800003EB430304EBC313C433D5E7237803EB03
:10389000430304EBC3135033CEE72B7803EB43030E
:1038A00005EBC31505F59A75079813F0A3FC68603E
:1038B000C4F8CC0D384609B0F0BD2B7803EB4303B8
:1038C00005EBC315C435EFE72B7803EB430305EB9A
:1038D000C3155035E8E700BF08C9FF1FA0C40100A9
:1038E000F0B52E4C6378022B89B033D0032B2AD04D
:1038F000012B02D000231B7AFFDE237803EB430366
:1039000004EBC31303F59A7308AA93F9083042F83D
:10391000043D224D22492D230026039304277823BA
:103920008DE8880005F644606FF0770304960296F0
:10393000FFF742FD6378022B28D0032B1FD0012B09
:103940000FD03672FFDE237803EB430304EBC3137F
:10395000C433D9E7237803EB430304EBC313503399
:10396000D2E72B7803EB430305EBC31505F59A75F6
:103970009DF91C302B7284F8D03D09B0F0BD2B7836
:1039800003EB430305EBC315C435F1E72B7803EBD9
:10399000430305EBC3155035EAE700BF08C9FF1F15
:1039A000ACC40100F0B5324C6378022B89B035D03D
:1039B000032B2CD0012B03D0002393F82030FFDE03
:1039C000237803EB430304EBC31303F59A7308AAAC
:1039D00093F82030264E42F8043D2D27002503970A
:1039E0004FF0030E7F272B462249049506F64460CC
:1039F00002958DE88040FFF7DFFC6378022B2BD027
:103A0000032B1ED0012B10D085F82050FFDE237829
:103A100003EB430304EBC313C433D8E7237803EB6E
:103A2000430304EBC3135033D1E7337803EB430371
:103A300006EBC31606F59A76079B86F8203009B088
:103A4000F0BD337803EB430306EBC316C436079B84
:103A500086F8203009B0F0BD337803EB430306EB62
:103A6000C3165036079B86F8203009B0F0BD00BF62
:103A700008C9FF1FBCC40100F0B5324C6378022BAB
:103A800089B035D0032B2CD0012B03D0002393F821
:103A90002130FFDE237803EB430304EBC31303F56C
:103AA0009A7308AA93F82130264E42F8043D2D2738
:103AB000002503974FF0030E7F272B4622490495DC
:103AC00006F6446002958DE88040FFF775FC637848
:103AD000022B2BD0032B1ED0012B10D085F82150A8
:103AE000FFDE237803EB430304EBC313C433D8E7AF
:103AF000237803EB430304EBC3135033D1E733784C
:103B000003EB430306EBC31606F59A76079B86F88C
:103B1000213009B0F0BD337803EB430306EBC31645
:103B2000C436079B86F8213009B0F0BD337803EB2B
:103B3000430306EBC3165036079B86F8213009B0C5
:103B4000F0BD00BF08C9FF1FC8C40100F0B5484C54
:103B50006378022B89B049D0032B3DD0012B03D0D1
:103B6000002393F82030FFDE237803EB430304EBBC
:103B7000C31303F59A7393F82020D20141F2A501F3
:103B800093F82130605C3A4D1344FF28079304BF3B
:103B900004236B54364D3749002343F6FF722D271B
:103BA00005268DE8440005F64460049302930397CC
:103BB00007AAFFF701FC18B141F2A503FF22EA545E
:103BC00063782B4A022B3FD0032B2FD0012B17D029
:103BD000002383F82030FFDE237803EB430304EB5C
:103BE000C313C43393F82020D201C7E7237803EB33
:103BF000430304EBC313503393F82020D201BDE7F5
:103C00001378079903EB430302EBC313002903F571
:103C10009A730A4615DBD21183F82020164A0A400F
:103C2000002A1DDB83F8212009B0F0BD1378079925
:103C300003EB430302EBC313002903F1C4030A4659
:103C4000E9DA01F17F02E6E71378079903EB430312
:103C500002EBC313002903F150030A46DBDAF0E755
:103C6000013A62F07F02013283F8212009B0F0BDF1
:103C700008C9FF1FD4C401007F000080F0B52F4C9D
:103C80006378022B89B032D0032B29D0012B02D0CC
:103C900000239B78FFDE237803EB430304EBC3137D
:103CA00003F59A7308AA9B78244E42F8043D2D2709
:103CB000002503974FF0030E77272B4620490495E4
:103CC00006F6446002958DE88040FFF775FB637847
:103CD000022B28D0032B1CD0012B0FD0AD70FFDEA0
:103CE000237803EB430304EBC313C433DAE72378ED
:103CF00003EB430304EBC3135033D3E7337803EBF5
:103D0000430306EBC31606F59A76079BB37009B01A
:103D1000F0BD337803EB430306EBC316C436079BB1
:103D2000B37009B0F0BD337803EB430306EBC31661
:103D30005036079BB37009B0F0BD00BF08C9FF1F24
:103D4000DCC40100F0B52F4C6378022B89B032D06F
:103D5000032B29D0012B02D00023DB78FFDE237850
:103D600003EB430304EBC31303F59A7308AADB7850
:103D7000244E42F8043D2D27002503974FF0030EF3
:103D80007F272B462049049506F6446002958DE86E
:103D90008040FFF711FB6378022B28D0032B1CD047
:103DA000012B0FD0ED70FFDE237803EB430304EB10
:103DB000C313C433DAE7237803EB430304EBC313E1
:103DC0005033D3E7337803EB430306EBC31606F512
:103DD0009A76079BF37009B0F0BD337803EB430389
:103DE00006EBC316C436079BF37009B0F0BD3378F9
:103DF00003EB430306EBC3165036079BF37009B081
:103E0000F0BD00BF08C9FF1FE4C4010070B5214C1C
:103E10006378022B28D0032B1FD0012B0FD000205A
:103E200041F29C051521FEF721FA635D194E73B925
:103E300001237355FFF726FCE8B9002070BD2078F8
:103E400000EB400004EBC01000F59A70E8E7012B8E
:103E5000F0D0022B16D0012070BD207800EB40007E
:103E600004EBC010C430DBE7207800EB400004EB2B
:103E7000C0105030D4E741F29C020020A35C013313
:103E8000A35470BDFFF75EFF0028D6D00023735502
:103E900070BD00BF08C9FF1FF0B5314C6378022B1D
:103EA00089B037D0032B2ED0012B02D000235B68C2
:103EB000FFDE237803EB430304EBC31303F59A738C
:103EC0005868274D13F0B0FB08AA00262D270321C0
:103ED000FF2342F8040D03970191009305F6446017
:103EE0000123049602961F49FFF766FA6378022BB6
:103EF00007462DD0032B24D0012B12D0079813F0A6
:103F000079F97060FFDE237803EB430304EBC313FE
:103F1000C433D5E7237803EB430304EBC3135033D7
:103F2000CEE72B7803EB430305EBC31505F59A7534
:103F3000079813F05FF96860C4F8CC0D384609B0F3
:103F4000F0BD2B7803EB430305EBC315C435EFE756
:103F50002B7803EB430305EBC3155035E8E700BFAF
:103F600008C9FF1FA0C40100F0B52E4C6378022BD6
:103F700089B033D0032B2AD0012B02D000231B7A27
:103F8000FFDE237803EB430304EBC31303F59A73BB
:103F900008AA93F9083042F8043D224D22492D2306
:103FA00000260393042778238DE8880005F64460F3
:103FB0006FF0770304960296FFF7FEF96378022B01
:103FC00028D0032B1FD0012B0FD03672FFDE2378B1
:103FD00003EB430304EBC313C433D9E7237803EBA8
:103FE000430304EBC3135033D2E72B7803EB4303B3
:103FF00005EBC31505F59A759DF91C302B7284F8F5
:10400000D03D09B0F0BD2B7803EB430305EBC3159E
:10401000C435F1E72B7803EB430305EBC3155035AB
:10402000EAE700BF08C9FF1FACC4010070B5374CF8
:10403000637888B000227F21022BADF81820ADF8FC
:104040001A103AD0032B2ED0012B01D0938BFFDE18
:10405000207800EB400004EBC01000F59A70B0F936
:104060001C3007930DF11A0206A9FEF793F8274DAD
:10407000BDF91A20009200262D210522BDF9183025
:104080000391019205F644600496029607AA20491E
:10409000FFF792F96378022B2ED0032B22D0012B4D
:1040A00015D0B683FFDE207800EB400004EBC01093
:1040B000C430B0F91C300793D4E7207800EB4000FF
:1040C00004EBC0105030B0F91C300793CAE72B78CE
:1040D00003EB430305EBC31505F59A75079BAB830B
:1040E00008B070BD2B7803EB430305EBC315C43553
:1040F000079BAB8308B070BD2B7803EB430305EB44
:10410000C3155035079BAB8308B070BD08C9FF1FAE
:10411000F0C4010070B5374C637888B000227F216D
:10412000022BADF81820ADF81A103AD0032B2ED080
:10413000012B01D0D38BFFDE207800EB400004EB95
:10414000C01000F59A70B0F91E3007930DF11A02F5
:1041500006A9FEF71FF8274DBDF91A200092002688
:104160002D210522BDF918300391019205F6446016
:104170000496029607AA2049FFF71EF96378022BDE
:104180002ED0032B22D0012B15D0F683FFDE207812
:1041900000EB400004EBC010C430B0F91E300793B0
:1041A000D4E7207800EB400004EBC0105030B0F9A9
:1041B0001E300793CAE72B7803EB430305EBC315C7
:1041C00005F59A75079BEB8308B070BD2B7803EB60
:1041D000430305EBC315C435079BEB8308B070BDE3
:1041E0002B7803EB430305EBC3155035079BEB839B
:1041F00008B070BD08C9FF1FFCC4010038B50A4DE6
:104200002C783CB1012C08D1FFF784FF28B10023A2
:104210002B7038BDFFF70AFF08B9002038BD012315
:104220002B70204638BD00BFB0B0FF1FF0B52E4C3C
:104230006378022B89B036D0032B2DD0012B02D00E
:1042400000235B69FFDE217801EB410104EBC11122
:1042500001F59A7108AA4B69234D42F8043D4FF0CD
:104260002D0E8F69CDF80CE0002644F2020C4FF0C1
:10427000060E1E4B1E49049605F6446002968DE814
:104280000050FFF799F86378022B26D0032B1DD03E
:10429000012B0FD07661FFDE217801EB410104EBA9
:1042A000C111C431D6E7217801EB410104EBC11102
:1042B0005031CFE72B7803EB430305EBC31505F52E
:1042C0009A75079BAF616B6109B0F0BD2B7803EB6A
:1042D000430305EBC315C435F3E72B7803EB430326
:1042E00005EBC3155035ECE708C9FF1FFDBFFFFF05
:1042F00008C50100F0B52F4C6378022B89B037D088
:10430000032B2ED0012B02D000235B69FFDE237824
:1043100003EB430304EBC31303F59A735F699869D6
:10432000244D254B254908AA38444FF02D0E42F85C
:10433000040D0026CDF80CE044F2020C4FF0060EFE
:1043400005F64460049602968DE80050FFF734F8B5
:104350006378022B27D0032B1ED0012B0FD0766160
:10436000FFDE237803EB430304EBC313C433D5E729
:10437000237803EB430304EBC3135033CEE72B78CE
:1043800003EB430305EBC31505F59A75079B6F61B6
:10439000DB1BAB6109B0F0BD2B7803EB430305EBEE
:1043A000C315C435F2E72B7803EB430305EBC315C4
:1043B0005035EBE708C9FF1FFDBFFFFF10C5010027
:1043C00038B50A4D2C783CB1012C08D1FFF792FF8B
:1043D00028B100232B7038BDFFF728FF08B9002053
:1043E00038BD01232B70204638BD00BFB0B0FF1F81
:1043F000F0B5384C637889B000227F21022BADF8EC
:104400001820ADF81A103ED0032B30D0012B01D06C
:10441000138AFFDE207800EB400004EBC01000F5AB
:104420009A70B0F91030B0F9127007930DF11A02BA
:1044300006A9FDF7AFFE274DBDF91A200092002610
:104440002D210522BDF918300391019205F6446033
:104450000496029607AA2049FEF7AEFF6378022B66
:1044600030D0032B27D0012B19D03682FFDE2078E5
:1044700000EB400004EBC010C430B0F91030B0F9CC
:1044800012700793D2E7207800EB400004EBC010D5
:104490005030B0F910300793B0F91270C6E72B789E
:1044A00003EB430305EBC31505F59A75079B6F8274
:1044B0002B8209B0F0BD2B7803EB430305EBC3154A
:1044C000C435F3E72B7803EB430305EBC3155035F5
:1044D000ECE700BF08C9FF1F18C50100F0B53A4C52
:1044E000637889B000227F21022BADF81820ADF847
:1044F0001A1040D0032B31D0012B01D0138AFFDEDC
:10450000207800EB400004EBC01000F59A70B0F981
:104510001070B0F912303B4407930DF11A0206A94E
:10452000FDF738FE284DBDF91A20009200262D21F6
:104530000522BDF918300391019205F644600496F6
:10454000029607AA2149FEF737FF6378022B33D082
:10455000032B2AD0012B1BD03682FFDE207800EB04
:10456000400004EBC010C430B0F91070B0F9123044
:104570003B440793D1E7207800EB400004EBC010E8
:104580005030B0F91070B0F912303B440793C4E7D3
:104590002B7803EB430305EBC31505F59A75079BD1
:1045A0002F82DB1B6B8209B0F0BD2B7803EB43033A
:1045B00005EBC315C435F2E72B7803EB430305EB9A
:1045C000C3155035EBE700BF08C9FF1F24C5010024
:1045D00038B50A4D2C783CB1012C08D1FFF77EFF8D
:1045E00028B100232B7038BDFFF702FF08B9002067
:1045F00038BD01232B70204638BD00BFB0B0FF1F6F
:104600002DE9F04F88469BB0D0F864120790BDF8B2
:1046100090A09DF894500B92994629B97A4B1B684B
:104620000D930D9BC0F86432002D00F0C780774BCE
:104630002E1F83FB0623A3EBE6760236F600B3B209
:10464000CAF13F069E424046A8BF1E4613F0B8FE80
:1046500000EB400047000437BFB241F2F4046C4B5A
:104660001859AF4233B228BF2F464FF0000B1A46FD
:104670000FFA8AF50A93036806950FFA89F10092FA
:10468000CDF804B03AB21D6C099213460891069A0F
:10469000A8475F4B012118590CF0D0FC5C4A5B4BDA
:1046A0001459033F83FB07230AF1040AB6B2A3EBB4
:1046B000E7771FFA8AF30493F31F5D4609F10209B5
:1046C000012205931AABA4F814B00FFA89F962829B
:1046D00003EB070B2E46AA4609E0059BB3EBC20F7E
:1046E0002BDD56B3B5F5807F27D04A4B1C68049B61
:1046F000A4F80E9003EBC50308EB060123823A46AB
:104700000FA813F0CBFE0FA80BF82CAC13F058FE3B
:10471000236802465B680FA920469847204611F09F
:10472000EBF9404613F04CFEC01BF319864205F12D
:1047300002029EB205F10105CFD9354B0A9941F22B
:10474000F404012218591E4603688DE80600069AF3
:10475000DD6C0899099BA847079B93F82E31002B25
:104760003DD141F2F4032A4AD0580DF0D3FA41F278
:104770004C53274AD0580EF041F950B9224A079BB2
:104780001268D3F864320E920B990E9A19448A4239
:1047900011D941F2F4021E49099B88580A9A05680A
:1047A000009200240194069A08992D6CA847079B53
:1047B0000120C3F864421BB0BDE8F08F404613F0FF
:1047C000FFFD00EB40004700CAF13F063B1DC9F169
:1047D0007F05102E9FB2A8BF1026EDB23DE73059DD
:1047E000079E96F83C41D6F83431B6F93221B6F935
:1047F0003011B6F93A510294B6F938418DE83000DB
:104800000CF0E8F9ADE700BF88E1FF1FABAAAA2AC8
:1048100008C9FF1FFCD9FF1F2DE9F0470E4601789C
:104820009DF820800829044691464ED03C4AD0F895
:10483000E400D2F8A87DD2F8B41D1D46D2F8AC3DF4
:104840006366D2F8B03D27660127C4F8D430C4F8B7
:10485000D81084F8BC7092F8D8ADD2F8D41D0EF000
:10486000F3FE504612F0C2FCD4F8E4201623106187
:104870000021184684F8756023710FF0F5FB0026BF
:10488000102084F8780084F8E990268331460FF0F0
:10489000EBFBA4F88C6084F8066184F8EC502846A1
:1048A0000DB9BDE8F08702210FF0DEFB84F84081EE
:1048B000B8F1000F02D13846BDE8F08740463946CE
:1048C0000FF0D2FB3846BDE8F087154BD3F8B81D82
:1048D000D3F8C42DD3F8BC0DD3F8C03D2166102702
:1048E00000210D466066C4F8D430C4F8D82038469C
:1048F00084F8756027710FF0B7FB384684F878703C
:1049000084F8E990258329460FF0AEFB84F8EC503B
:10491000A4F88C5084F806512846BDE8F08700BF03
:1049200008C9FF1F2DE9F8430446884616460FF0D4
:10493000A1FB236AA06213B9E36A002B44D072B6CC
:10494000DFF8AC90254FD9F800103B682448A56AE1
:10495000E26ACB1A80FB0310D917C1EBA000062135
:1049600084F834101F49C5EB030EAA1A0B60236BA1
:10497000626285181C4AA06B7344A9B213600EF0E2
:1049800053FEA26B636AD26A002E62F30F052846BB
:104990001FDDB040B340D9F800103A680B44024420
:1049A000C9F800303A6012F021FC414612F02AFDAD
:1049B0000E4912F027FD12F05DFEA36A2062E36249
:1049C00062B60120BDE8F8832063E0621846BDE8C6
:1049D000F883E0D07642F040F340DCE7BCB0FF1F44
:1049E0006766666628B0FF1F60E1FF1F0000C040D9
:1049F0005CB0FF1F10B50446022094F8711001F05E
:104A000001010FF01DFB94F871100320C1F3400168
:104A10000FF016FB94F871100420C1F38001BDE87B
:104A200010400FF00DBB00BF30B5104B83B00C46EB
:104A30009C424FF000014FF07F02054608BFB0F9DD
:104A40001640ADF80410ADF8062048300DF106020E
:104A500001A9FDF79FFBB5F96400844204DBB5F9B9
:104A60006600A042A8BF204603B030BDF1D8FFFFCA
:104A700038B590F85C31032B36D8DFE803F002112B
:104A800004021A4838BD90F8CE3003F01F03072BFC
:104A9000B0F91A301DD0B0F98E1003FB01F104E01B
:104AA000B0F91A10B0F98E30194490F85A301A46FD
:104AB00004466FF3461280F85A200430C3F34115C0
:104AC000FFF7B2FF94F85A3065F3461384F85A3072
:104AD00038BDB0F98E20064903FB02F381FB0321A8
:104AE000DB17C3EB6111E0E70049DEE7F1D8FFFF18
:104AF0001F85EB51012A08B545DD90F8563003F0CB
:104B00001F031E2B48D8DFE803F0161D22161616C9
:104B10001616271616161616101016161616163115
:104B2000313939162218181818000B7880F86930B6
:104B30004B7880F86830104608BD0B7880F8573005
:104B4000104608BD0B88A0F86A30104608BD0B78E7
:104B500080F84930104608BD104BD3F8CC1DC16415
:104B600093F9D03D80F85030104608BD0B7880F89E
:104B700049304B7880F84B30104608BD0B7880F8F0
:104B80004A30104608BD2221054810F019FD05489D
:104B900010F0B2FF002008BD002008BD08C9FF1FAB
:104BA00034C5010040A5FF1F2DE9F84390F844509B
:104BB000574E584C002D08BF3446154614BF0A27DF
:104BC0000D277D2900F2A280DFE801F046A0A0A019
:104BD000A0A0A0A0A0A0A0A0A0A0A0A0A0A0A0A0D5
:104BE000A0A0A0A0A0A0A0A0A0A0A0A0A0A0A0A0C5
:104BF000A0A0A0A0A0A0A0A0A0A0A0A0A0A0A0A0B5
:104C0000A0A0A0A0A0A0A0A0A0A0A0A0A0A0A0A0A4
:104C1000A0A0A0A0A0A0A0A0A0A0A0A0A0A0A0A094
:104C2000A0A0A0A0A0A0A0A0A0A0A0A0A0A0A0A084
:104C3000A0A0A0A0A0A0A0A0A0A0A0A0A05D6C6229
:104C400067717A80868A8E949A3F2A7880F85620F7
:104C50001D462846BDE8F88307EB4707033FDFF80A
:104C6000B890A846064627442379617919F803309D
:104C70002A463046FFF798FF0334A7420544F3D194
:104C8000C8EB0505E5E72A7880F848201D46E0E7EF
:104C90002A7880F853201D46DBE72A88A0F85420A4
:104CA0001D46D6E72A7880F852201D46D1E729789C
:104CB00090F8562061F304021D4680F85620C8E79C
:104CC000B5F90020A0F858201D46C2E7B5F900202C
:104CD000A0F85A201D46BCE72A68C2651D46B8E701
:104CE0002A6802661D46B4E7B5F90020A0F86420E2
:104CF0001D46AEE7B5F90020A0F866201D46A8E7DE
:104D00001A462946BDE8F843FFF7F4BE0025A0E7A0
:104D100078BD01002CBD010018BD010010B58AB09E
:104D20000446242201A80EF031FF01AA20462423C4
:104D30000021FFF739FF94F84430002B14BF0E20F8
:104D400018200AB010BD00BF012A08B53BDD90F85D
:104D5000563003F01F031E2B3ED8DFE803F0161D6C
:104D600022161616161616161616161610101616E3
:104D700016161627272F2F1622181818180090F825
:104D800069300B7090F868304B70104608BD90F891
:104D900057300B70104608BDB0F86A300B801046D3
:104DA00008BD90F849300B70104608BD90F84930A6
:104DB0000B7090F84B304B70104608BD90F84A309D
:104DC0000B70104608BD2221044810F0F9FB04487E
:104DD00010F092FE002008BD002008BD58C501005B
:104DE00040A5FF1F2DE9F84390F84450604E614CF8
:104DF000002D90460ABF34460A270D277D2900F270
:104E0000B380DFE801F046B1B1B1B1B1B1B1B1B138
:104E1000B1B1B1B1B1B1B1B1B1B1B1B1B1B1B1B182
:104E2000B1B1B1B1B1B1B1B1B1B1B1B1B1B1B1B172
:104E3000B1B1B1B1B1B1B1B1B1B1B1B1B1B1B1B162
:104E4000B1B1B1B1B1B1B1B1B1B1B1B1B1B1B1B152
:104E5000B1B1B1B1B1B1B1B1B1B1B1B1B1B1B1B142
:104E6000B1B1B1B1B1B1B1B1B1B1B1B1B1B1B1B132
:104E7000B1B1B1B1B1B1B15E73656C7A838A91970A
:104E80009DA4AB3F90F8562088F800201846BDE856
:104E9000F88307EB4707033FDFF8DC90064627441B
:104EA00045462379617919F803302A463046FFF7E1
:104EB00099FF0334BC420544F3D1C8EB0500BDE8BB
:104EC000F88390F8482088F800201846BDE8F88359
:104ED00090F8532088F800201846BDE8F883B0F811
:104EE0005420A8F800201846BDE8F88390F8522016
:104EF00088F800201846BDE8F88390F85620C2F3E1
:104F0000040288F800201846BDE8F883B0F958205C
:104F1000A8F800201846BDE8F883B0F95A20A8F890
:104F200000201846BDE8F883C26DC8F80020184676
:104F3000BDE8F883026EC8F800201846BDE8F88383
:104F4000B0F96420A8F800201846BDE8F883B0F94D
:104F50006620A8F800201846BDE8F8831A464146A6
:104F6000BDE8F843FFF7F0BE0020BDE8F88300BFBE
:104F700078BD01002CBD010018BD0100F0B58BB05B
:104F80000E4601AA242300210746FFF72BFF3146D6
:104F90000246054601A80EF043FE97F84430184833
:104FA000002B4FF00D0114BF0E24182410F008FB45
:104FB00000230A223978134810F0C4FD0221124858
:104FC00010F0FEFA31460F4810F0FCFD01210F48A9
:104FD00010F0F6FA29460B4810F0F4FD01210B48B9
:104FE00010F0EEFA2146074810F0ECFD054810F0ED
:104FF00083FD0A200FF060F820460BB0F0BD00BF23
:105000007CC5010040A5FF1FECC90100C4C201001E
:10501000012A08B524DD90F852300F2B29D8DFE89B
:1050200003F01A1A0808100E0E0E0E0E0E0E0E0EBB
:105030000E0E0B7880F845304B7880F847301046DC
:1050400008BD0D4BD3F8CC1D816493F9D03D80F899
:105050004C30104608BD0B7880F84630104608BD2D
:105060002221064810F0ACFA054810F045FD00205A
:1050700008BD002008BD00BF08C9FF1F34C50100DE
:1050800040A5FF1F80292DE9F843144644D00AD9D2
:10509000822932D025D3832935D11A462146BDE84D
:1050A000F843FFF7B5BF7E2930D020D859BB1D4D3E
:1050B000DFF874900646174605F1120814460123DE
:1050C0007E2103E02B79697919F8033022463046B6
:1050D000FFF7D8FF033545450444F3D1E01BBDE895
:1050E000F8831288A0F850201846BDE8F88312789B
:1050F00080F84E201846BDE8F883127880F85220D8
:105100001846BDE8F8830020BDE8F883127880F8DF
:1051100044201846BDE8F883127880F84F201846DE
:10512000BDE8F88300C0010018BD010010B584B0CF
:105130000446102268460EF029FD6A4620461023D8
:105140000021FFF79FFF082004B010BD70B5054691
:1051500008460E460EF000FD85F85C01701C0EF04E
:10516000FBFC85F86001B01C0EF0F6FC05F5B07490
:10517000014620460BF094F8F01C0EF0EDFC0146C1
:105180002046341D0BF090F8214605F1EC00FFF7A6
:10519000CDFF04442146281DFFF7C0FD04442146ED
:1051A00005F17800FFF7BAFD23189B1B2A78034905
:1051B000034810F0B9FC322070BD00BF8CC501005F
:1051C00040A5FF1F012A10B514DD90F852400F2CA6
:1051D00017D80123A3404FF6F0741C409CB913F07C
:1051E0000C0F12D113F003030BD090F846300B7064
:1051F000104610BD2221094810F0E2F9084810F0CD
:105200007BFC002010BD104610BD90F845300B709F
:1052100090F847304B70104610BD00BF34C50100F8
:1052200040A5FF1F80292DE9F843144644D00AD930
:10523000822932D025D3832935D11A462146BDE8AB
:10524000F843FFF7BFBF7E2930D020D859BB1D4D92
:10525000DFF874900646174605F11208144601233C
:105260007E2103E02B79697919F803302246304614
:10527000FFF7D8FF033545450444F3D1E01BBDE8F3
:10528000F883B0F8502022801846BDE8F88390F8E3
:105290004E2022701846BDE8F88390F85220227004
:1052A0001846BDE8F8830020BDE8F88390F8442054
:1052B00022701846BDE8F88390F84F2022701846F7
:1052C000BDE8F88300C0010018BD01002DE9F041E0
:1052D00084B00F4610236A4600218046FFF7A2FFE4
:1052E000184C194D02460646394668460EF098FCA1
:1052F0000E21164810F064F900230A2298F80010D5
:10530000204610F01FFC0221114810F059F93946CF
:10531000204610F057FC2846012110F051F9314683
:10532000204610F04FFC2846012110F049F90821D1
:10533000204610F047FC204610F0DEFB082004B0A9
:10534000BDE8F08140A5FF1FC4C20100ACC501004B
:10535000ECC90100F0B583B002AE90F85C3106F8FC
:10536000013D05460F46304601220EF059FC95F8E6
:1053700060318DF807303046791C01220EF050FC68
:1053800095F862318DF807303046B91C01220EF0D5
:1053900047FC3C1D95F863318DF8073001223046FB
:1053A000F91C0EF03DFC214605F1EC00FFF78EFFE5
:1053B00004442146281DFFF7E1FD0444214605F180
:1053C0007800FFF7DBFD13210444164810F0F8F8CD
:1053D00000230A222978144810F0B4FB0221134854
:1053E00010F0EEF83946104810F0ECFBE61B0121F6
:1053F0000F4810F0E5F831460B4810F0E3FB0121AF
:105400000B4810F0DDF82146074810F0DBFB06489A
:1054100010F072FB2B78082B0CBF3046322003B003
:10542000F0BD00BFBCC5010040A5FF1FECC90100D5
:10543000C4C2010070B5FA2982B00C4605463DD3BE
:10544000FB2925D9FC2939D1234E2449002385F88D
:105450002030142206F6847013F020F8204B1B68CD
:10546000019341F2840141F2880342F21070019AE3
:105470007050F250200240F00F000FF071FDAB6A47
:105480005B6D1868036821461B68984702B070BDC1
:10549000114E1449012385F82030142206F6847039
:1054A00012F0FCFF0E4B1B68009341F2840141F2A5
:1054B000880342F21070009A7050F25004F1080311
:1054C000DBB2072BE2D8012202FA03F313F0DD0F5F
:1054D000D0D102B070BD00BF08C9FF1FDCC50100FC
:1054E00088E1FF1FD0C5010038B504460EF0C2FDAB
:1054F000236B226AC31A9A42054616D3636AE26A8C
:1055000003EB4303AD1AAB420ED20C4D0C480D49D0
:105510000D4A00232B602362E3622363636284F8F5
:10552000343003600B60136038BDF8210748FFF783
:1055300081FF226B236A13442363DFE760E1FF1FCF
:1055400028B0FF1F5CB0FF1FBCB0FF1FB4D9FF1F06
:10555000F0B5304C6378022B89B036D0032B2DD0B8
:10556000012B02D00023DB7BFFDE237803EB430318
:1055700004EBC31303F59A73DB7B264D264908AA77
:10558000C3F3830301332D2742F8043D0026012392
:1055900003970827019305F6446004960296009746
:1055A000FDF70AFF6378022B2CD0032B23D0012BAD
:1055B00012D0F37B66F38503F373FFDE237803EBEE
:1055C000430304EBC313C433D6E7237803EB43034D
:1055D00004EBC3135033CFE72B7803EB430305EB06
:1055E000C31505F59A75079BEA7B013B63F38502BA
:1055F000EA7309B0F0BD2B7803EB430305EBC31549
:10560000C435F0E72B7803EB430305EBC3155035A6
:10561000E9E700BF08C9FF1F98C201002DE9F84F54
:105620008A46002961D0404BDFF820813F4AC8F804
:10563000102093E8030000230A0CC8F80000A8F823
:10564000041088F8062088F814300127384DC82443
:1056500005F1690B07E0BAF1000F36D107350134C7
:10566000AB45E4B220D02B78002BF4D07E0006EBC3
:10567000070908EBC90948460622294612F00EFF21
:10568000BAF1000F2BD12B4BC9F810303E4408EB78
:10569000C6060735002301373475AB4504F1010414
:1056A000FFB2B371E4B2DED1234B244C93E8070080
:1056B00007EB470308EBC308A8E803000023A8F89A
:1056C000002063713846BDE8F88F1D4A7E0092E8DD
:1056D0000300F31908EBC30248F833009180F31973
:1056E00008EBC303174A1A61D0E7DFF860800E4A5F
:1056F00088F8141092E80300134BC8F800000E0C51
:10570000A8F8041093E8070008F1180303C3094D33
:10571000064CC8F8285088F8066088F82CA0C8F80D
:1057200010401A80022791E7F8C50100B158000027
:10573000E1D6FF1FB9590000ECC50100DCC3FF1F13
:10574000E4C50100F958000000C6010078BAFF1F47
:105750002DE9F84F0021FFF761FFDFF870B0DFF8A7
:105760006090DFF86C80824605460126002705EB35
:10577000450409EBC404204626755946C4F8108038
:105780000622013612F08AFE0135302EA771EDB2E5
:105790000BF1070B0A4B4FF00004E8D1094A0A4D00
:1057A00007CA0AF12F0A5FFA8AFA0AEB4A0603EBE4
:1057B000C60303C31A806C715046BDE8F88F00BF62
:1057C00078BAFF1F0CC60100DCC3FF1FEFC0010049
:1057D000B9590000324B2DE9F04799424FF00004CF
:1057E000824644614DD02F4B99420E4650D0A04680
:1057F000DFF8B89000E0013430460AF0B1FE844290
:105800002146304618DA0AF093FE037D002BF2D0D1
:10581000214630460AF08CFE07460FCF08EB4805BC
:1058200009EBC5050FC597E8030008F1010885E8F5
:1058300003005FFA88F8DEE730460AF091FE014681
:1058400030460AF075FE05460FCD08EB480409EB1B
:10585000C4040FC495E8030084E80300124B727976
:105860005A71FF2201218AF8632283F804808AF8A2
:1058700062125046C3F800900B49BDE8F0470AF0A9
:105880002BBFFFF765FFDFF82490074B8046E8E762
:105890000121FFF7C3FEDFF81490034B8046E0E7D9
:1058A00080DEFF1F30B8FF1FDCC3FF1F78BAFF1F69
:1058B00070B50F4C41F2F403D4F8602EE058D4F8E0
:1058C0005C1E0568C2F1400382B01BB200268DE861
:1058D0004800C1F1800312B21BB22D6C09B2A84777
:1058E00004F644600349FFF775FF012002B070BD64
:1058F00008C9FF1F78E1FF1F70B541F29C032B4CD4
:10590000E55C82B0D5B12A4B1B78284D2949C3EB01
:10591000C303E2182D230024019302F6D95205F6A1
:10592000446000940623FDF7A5FCB0B141F29C034E
:10593000EC5402B0BDE87040FFF7BABFD4F8501E77
:10594000D4F84C0E0AF0F4FD007D194B00F138023A
:10595000D2B20F2A187002D9012002B070BD61784E
:10596000022905D0032919D001290FD0AD72FFDE1D
:10597000217801EB410104EBC111503141F29C054A
:1059800000F1390688721A706655BDE7217801EB7F
:10599000410104EBC11101F59A71EFE7217801EBA8
:1059A000410104EBC111C431E8E700BF08C9FF1F82
:1059B00088DEFF1F18C6010010B5194B5A78022A5D
:1059C00026D0032A1DD0012A08D0D3F8501ED3F8C0
:1059D0004C0E0AF0ADFD00239B72FFDE1C7804EB39
:1059E000440403EBC41404F59A74D3F8501ED3F89E
:1059F0004C0E0AF09DFD037DA372BDE81040FFF739
:105A000057BF1C7804EB440403EBC414C434ECE724
:105A10001C7804EB440403EBC4145034E5E700BFE6
:105A200008C9FF1F30B5304C637885B02022022BA7
:105A3000ADF80C2034D0032B2BD0012B02D0002347
:105A40005B7AFFDE237803EB430304EBC31303F518
:105A50009A735B7A03B920238DF80C3000252D232F
:105A6000019303AA0123009520492148FDF702FC78
:105A70009DF80C306278202B08BF8DF80C50022A5C
:105A8000194B2AD0032A21D0012A10D000235B729F
:105A9000FFDE237803EB430304EBC313C433D8E7DF
:105AA000237803EB430304EBC3135033D1E71A7895
:105AB00002EB420203EBC21303F59A739DF80C202C
:105AC0005A7208B1FFF7F4FE05B030BD1A7802EB48
:105AD000420203EBC213C433F0E71A7802EB42022E
