:1000000000800020BD010000E9450100A14501007C
:10001000A1450100A1450100A1450100A145010044
:10002000A1450100A1450100A1450100E9450100EC
:10003000E9450100A14501001D62010021620100A6
:10004000E9450100E9450100E9450100E9450100F4
:10005000E9450100E9450100E9450100E9450100E4
:10006000E9450100E9450100E9450100E9450100D4
:10007000E9450100E9450100E9450100E9450100C4
:10008000E9450100E9450100E9450100E9450100B4
:10009000E9450100E9450100E9450100E9450100A4
:1000A000092C0100152C0100E9450100E94501007A
:1000B000E9450100E9450100E9450100E945010084
:1000C000E9450100E9450100E9450100E945010074
:1000D000E9450100E9450100E9450100E945010064
:1000E000E9450100E9450100E9450100E945010054
:1000F000E9450100E96E0100E9450100E94501001B
:10010000E9450100E9450100E9450100E945010033
:10011000E9450100E9450100E9450100E945010023
:10012000E9450100E9450100E9450100E945010013
:10013000E9450100E9450100393E0100E9450100BA
:10014000E9450100E9450100E9450100E9450100F3
:100150000D6401002164010035640100496401005F
:10016000E9450100794C0100E9450100E94501003C
:10017000E9450100E9450100E9450100E9450100C3
:10018000E9450100E9450100E9450100E9450100B3
:10019000E9450100E9450100E9450100E9450100A3
:1001A000E9450100E9450100E9450100E945010093
:1001B000E9450100E9450100E9450100524B4CF2D7
:1001C000205210B51A804DF628121A8000BF00BFC9
:1001D00014F00EFA4D4B4FF010621A604C4A9A60C0
:1001E0004C4ADA6003F5533303F2D2331A7811071D
:1001F00003D51A7842F008021A70474B47492A2261
:100200001A70474A474B8B4204D252F8040F43F806
:10021000040BF8E7444B454900228B4202D243F8D5
:10022000042BFAE74249434A002352F8230041F8DD
:10023000230001336F2BF8D13F4B404A802103F854
:10024000011B9342FBD13E4B394A1A603D4B8A2237
:100250001A70A3F5805324225A70A0221A709A793A
:100260009207FCD59A79D406FCD4374A937903F0E7
:100270000C03082B344BF9D103221A7140225A7116
:100280009A799006FCD5304A91792F4B4906FBD5D7
:100290002E4A2F4911600221516020221A709A794A
:1002A00002F00C020C2AFAD12A4B2B4A1A602B4B73
:1002B0002B4A1A6000225A60072243F8042C294A6C
:1002C000C3F80C2D62B614F08DFB274B1B68DA07C0
:1002D00005D5264814F0EAFA254B264A1A60264B23
:1002E0001B785B0609D5224C224B22689A4204D126
:1002F0001E4814F0DBFA0023236018F039FA14F0DA
:100300007DF916F009FAFEE70E2005403080044022
:10031000823F04000100002B00E00740F0ABFF1F0C
:10032000600302004088FF1FF0ABFF1F50E2FF1F79
:100330000082FF1F0000000000E400E05FE400E036
:1003400008ED00E0005006400040064044800440B4
:100350000000030104800440C010050014E000E028
:10036000FF7601000000202014D00340387D3F605C
:100370001CE00340A5C3945A00F00740FFFFFFFFB5
:10038000FFFFFFFFFFFFFFFFFFFFFFFFFFFFFFFF7D
:10039000FFFFFFFFFFFFFFFFFFFFFFFFFFFFFFFF6D
:1003A000FFFFFFFFFFFFFFFFFFFFFFFFFFFFFFFF5D
:1003B000FFFFFFFFFFFFFFFFFFFFFFFFFFFFFFFF4D
:1003C000FFFFFFFFFFFFFFFFFFFFFFFFFFFFFFFF3D
:1003D000FFFFFFFFFFFFFFFFFFFFFFFFFFFFFFFF2D
:1003E000FFFFFFFFFFFFFFFFFFFFFFFFFFFFFFFF1D
:1003F000FFFFFFFFFFFFFFFFFFFFFFFFFFFFFFFF0D
:10040000FFFFFFFFFFFFFFFFFFFFFFFFDEF9FFFF23
:1004100010B5054C237833B9044B13B10448AFF33E
:1004200000800123237010BDF0ABFF1F000000000F
:100430005C030200084B10B51BB108490848AFF334
:1004400000800848036803B910BD074B002BFBD0A0
:10045000BDE81040184700BF00000000F4ABFF1FCC
:100460005C030200F0ABFF1F00000000704700BFFC
:10047000074A10B51378074C41F2F40083F00103EA
:1004800020581370194611F05BFF012010BD00BF0A
:1004900088B4FF1F40C5FF1F70B541F2F003284C20
:1004A0000546E05812F018FDB4F8863DB4F8842DE6
:1004B000181A83B29342A4F8863D2CD014D86A69E6
:1004C000002AC4BF02F1FF326A61AA685279022A87
:1004D00027D04FF0FF30FF22A4F8843D012185F89A
:1004E000632285F8621270BDA8686E6910F048FA40
:1004F0002B69C01A864202DA6B6901336B61AB6803
:100500005B79022B09D123780D4A062B12D9B2F858
:10051000863DA4F8843D002070BDB4F8863D0120DE
:10052000D9E722780649002AF3D0013A0A704FF041
:10053000FF30D0E7013313700120B2F8863DCAE7DF
:1005400040C5FF1F024A41F2F003D05812F008BD27
:1005500040C5FF1F10B5044600F58750083015F060
:1005600033FF04F5875015F02FFF204610BD00BF64
:10057000234B1B6803F16402904270B504DA643BBC
:10058000984201DD022070BD1E4B1B6803F164021E
:10059000904204DA643B984201DD032070BD1A4B9F
:1005A0001D680446B5F95800C0F13C0017F044FE40
:1005B0000646B5F95A0017F03FFE0146304617F0DF
:1005C00043FF0646286E17F037FE0146304617F007
:1005D00087FE0646E86D17F02FFE0146304617F0FD
:1005E00077FD18F043F800F164039C4205DA6438A3
:1005F0008442D4BF0020012070BD002070BD00BF28
:10060000B8ACFF1FBCACFF1F10C0FF1FF8B5427A8B
:1006100005460E4602B301230A701C46A97A89B129
:10062000C7291CD93831C9B2164FC1EBC1010F44DB
:10063000F018394618F07CFE384618F0E1FE2044E8
:10064000C4B22346EA7A1AB10134E4B2F254234622
:100650000022F2542046F8BD13461446DEE70A4F46
:10066000C1EBC101F0183944062218F037FFA87A0F
:10067000C0EBC000384418F0C3FE2044C4B2234687
:10068000E0E700BF19D3FF1F88D201002DE9F04138
:100690001A4D41F24C540646285912F0BBFB38B3B0
:1006A000B3685B79022B15D041F24C57DFF84C80D0
:1006B000E85912F0B3FB044610B92046BDE8F081BA
:1006C00058F8070012F052FB0023C6F854322046B7
:1006D000BDE8F081D6F85432B3F57A7FE4D901242D
:1006E000002385F8824F2046C6F85432BDE8F081D9
:1006F000285912F083FBC6F85402D1E740C5FF1F0A
:10070000012070470120704738B50E4B01EB4101C5
:1007100005461944144618F0E1FE00232B550A4AF9
:1007200041F2F4032846D45818F06AFE23680246C2
:1007300029465B68204698472046BDE8384015F0BA
:10074000A3BE00BFD8D3010040C5FF1F2DE9F04F65
:100750002F4EDFF8C89041F2F40585B0735903902D
:100760001A6800274FF01A080197CDF80080146C22
:1007700018462D227B233946A0477059012110F0DD
:100780006DFE745923492368A7822A224FF0010A7B
:100790004FF0040B5B682282A4F812A00822A4F890
:1007A0000EB020469847204615F06EFE039A1A4B6D
:1007B000745953F82210A4F80EB03223238208464D
:1007C000039118F01DFE236803995B6802462046DA
:1007D0009847204615F058FE705903688DE80005CB
:1007E00025223946DC6C7B23A04714F08BF8D9F81E
:1007F000003047F22F52C01A904206D9705911F0BA
:1008000099FC14F07FF8C9F8000005B0BDE8F08F3E
:1008100040C5FF1F2CD401006C89FF1F3CC5FF1F82
:100820002DE9F04390F96332664E013387B00446F8
:1008300061D041F2F4030121F05810F00FFE256958
:100840006369A0681D4410F09BF8854280F2A8807F
:100850006369276994F963821F44E368984541F20C
:10086000F40300F0A980F3580121002259829A82F2
:1008700002AD29464246204610F0E6F8284618F018
:10088000BFFD0D2807DC28440DF11602202300F8D7
:10089000013B9042FBD16269E369A16941F2F40036
:1008A000C2EB08083658093303EBC8034FF00009C0
:1008B0008DF8169028463382F18118F0A1FD336837
:1008C00002465B68294630469847304615F0DCFD05
:1008D00094F8633201335BB2BB4284F8633202D0D6
:1008E00007B0BDE8F083FF2384F8629284F8633296
:1008F00007B0BDE8F08341F2F4050121705910F012
:10090000ADFDA36872591F680021012050829182B9
:10091000184610F035F800B200EB400102AD07EBCD
:10092000C1010E22284618F0D9FD284618F068FDAE
:100930000D2807DC28440DF11602202300F8013BA6
:100940009042FBD141F2F408B4F91C3056F808701B
:10095000A26900218DF816102846FA813B8218F012
:100960004FFD3B68024629465B6838469847384643
:1009700015F08AFDE26956F80800A1690568083299
:1009800012B201238DE80C0001F15403AD6C1BB2CF
:1009900009B2A847636984F8633207B0BDE8F08301
:1009A000A0680FF0EDFFE36894F96382984507466D
:1009B00041F2F4037FF457AFF3580021012259822A
:1009C0009A8255E740C5FF1F70B5044608460D469C
:1009D00018F016FD23680246294620465B68BDE8EC
:1009E000704018472DE9F04F002387B00122437073
:1009F00000F684530025027000F1040B0493059067
:100A00004FF07E53CBF80C304FF000038BF81E30C4
:100A10004FF0030300274FF001094FF03C084FF05F
:100A2000280AABF814304FF61943ABF81C308BF89A
:100A300010708BF811708BF812708BF81370CBF864
:100A40002070CBF82470CBF82870CBF82C70CBF842
:100A50003070CBF834708BF838708BF80470ABF8CA
:100A60001870ABF81A708BF808908BF809908BF817
:100A70000A808BF80BA0382015F056FE4FF0814607
:100A800006614FF48066394646603A46E94B80F885
:100A900014908561056280F82470044612F0C2FE4D
:100AA0009BF85A30CBF83C4003F0E00367F3461361
:100AB0008BF85A30E04BCBF844304FF07803ABF86A
:100AC0005E30ABF86A3040F6FF73CBF86030DB4B3A
:100AD000CBF864304FF07F038BF86C308BF86D30BF
:100AE0004FF47A73ABF86E304FF0FF338BF87430FD
:100AF0004FF003024FF6FF73ABF8582063604FF0DE
:100B00007E52CF4BCBF8502023618BF841708BF88D
:100B100040908BF848708BF84C908BF84D908BF888
:100B20004E808BF84FA08BF854708BF855708BF873
:100B300056708BF857708BF85B70ABF85C70ABF845
:100B40006870382015F0F0FD46604FF081464A4647
:100B500039460661BB4B80F814908561056280F8C8
:100B60002470044612F05EFE4FF00303ABF88830A9
:100B70004FF61943ABF890304FF07E53CBF88030EE
:100B800040F6FF7363604FF08043CBF870408BF802
:100B900084708BF885708BF886708BF88770CBF833
:100BA0009470CBF89870CBF89C70CBF8A070CBF811
:100BB000A470CBF8A8708BF8AC70ABF88C70ABF865
:100BC0008E708BF892702361ABF81A708BF8757089
:100BD0008BF87C908BF87D908BF87E808BF87FA0D3
:100BE0008BF87870382015F09FFD4FF480664660D2
:100BF0004FF08146394606613A468E4B80F8149094
:100C00008561056280F82470044612F00BFE8A4A62
:100C1000CBF8B8204FF00302ABF8CC204FF07802AD
:100C2000ABF8D22040F6FF729BF8CE30CBF8D42040
:100C3000824ACBF8D8204FF07802ABF8DE2003F0E0
:100C4000E0034FF07F028BF8E0208BF8E12067F3A0
:100C500046134FF47A72ABF8E2208BF8CE304FF0A7
:100C6000FF324FF6FF738BF8E82063604FF07E523F
:100C7000734BCBF8B040CBF8C4208BF8B5708BF831
:100C8000B4908BF8BC708BF8C0908BF8C1908BF847
:100C9000C2808BF8C3A08BF8C8708BF8C9708BF832
:100CA000CA708BF8CB708BF8CF70ABF8D070ABF804
:100CB000DC702361382015F037FD4FF48066466004
:100CC0004FF081464A46394606615E4B80F81490E3
:100CD0008561056280F82470044612F0A3FD4FF68A
:100CE0001943ABF804314FF00303ABF8FC304FF07D
:100CF0007E53CBF8F43040F6FF7363604FF08043CF
:100D0000CBF8E440ABF88E708BF8E9708BF8F0907C
:100D10008BF8F1908BF8F2808BF8F3A08BF8F870D9
:100D20008BF8F9708BF8FA708BF8FB70CBF80871C0
:100D3000CBF80C71CBF81071CBF81471CBF818719B
:100D4000CBF81C718BF820718BF8EC70ABF800714C
:100D5000ABF802718BF806712361382015F0E4FCC2
:100D60004FF4806646604FF081463A463946314B33
:100D700006618561056280F8149080F8247004464D
:100D800012F050FD2C48CBF82C014FF00300ABF8CB
:100D90003C014FF0FF309BF860218BF840014FF091
:100DA0007E50CBF834014FF6FF7060604FF0FF3398
:100DB00067F3030208212248CBF824418BF833A1C2
:100DC0008BF832818BF865818BF829718BF828912B
:100DD0008BF830918BF831918BF838718BF8397131
:100DE0008BF83A718BF83B718BF83E718BF844713C
:100DF000CBF84871CBF854718BF858718BF85C7153
:100E00008BF862718BF864718BF86691CBF867711F
:100E10008BF860218BF86311CBF86B7120618BF834
:100E20006F718BF80030049B8BF87071CBF8747184
:100E30000AE000BF17B7D1389F86010001F0FFFF1D
:100E4000000060420AD7233CCBF878718BF87E71A2
:100E50008BF87D718BF87C710BF5C07B9B457FF423
:100E6000CFADDDF814A04FF000048AF8A44D40F691
:100E7000FF74CAF8A84DB74CCAF8AC4D40F6FF74E1
:100E80009AF8882DCAF8B44DCAF8B84DB14CCAF8D2
:100E9000BC4D4FF0FF3340F6FF744FF00000AAF84E
:100EA000843D67F303029AF8D13DCAF8C04DA94CBE
:100EB0008AF88B1D8AF8882D47F230510246CAF80D
:100EC000C44D4FF47A7443EA09038AF88A0D8AF80C
:100ED0008C0DAAF8861D8AF8970D9F499F488AF8BD
:100EE000982DAAF8C84D11224FF000048AF8D13D80
:100EF0008AF8D04DCAF8CC0DCAF8D41D8AF8D82D7E
:100F0000394669228AF88D8D8AF88E9DCAF88F7DC0
:100F1000CAF8937DCAF89C7DCAF8A07DCAF8B07D56
:100F20000AF6D95017F08AFF0AF644600FF02AFD3E
:100F30008B4B8AF8644E8AF8724FCAF8443EFB2203
:100F40003946CAF8687FAAF8707FCAF8847F0AF623
:100F5000887017F073FF41F2900641F2840E41F25F
:100F6000880041F28C0341F294024AF80E700AF5AF
:100F700085544AF8007041F298054AF8037041F22E
:100F80009C0E4AF8067041F29D0041F2A4064AF810
:100F900002704FF000034FF0000C41F2A5024AF836
:100FA00005700AF80EC041F2A6050AF800C02760D5
:100FB0008AF8823F8AF8833FCAF8587ECAF8607E72
:100FC0008AF8819F0AF806304FF0FF330AF80230A2
:100FD00041F2A70E4FF0000341F2A80C0AF80530C9
:100FE00007264FF0FF3320460AF80E3036224AF823
:100FF0000C701B30CAF8546E5A4DCAF85C2E23464A
:101000004FF000067F21024684F82C90276384F875
:10101000386065630B3303F8011F834202F8011F38
:10102000F9D10AF5875241F2E806002014468021E2
:1010300041F2F8071171106041F2FC054AF8060010
:101040001173962284F83800C4F8280484F82C041C
:10105000C4F83004C4F8340484F86A040AF58853E8
:101060004AF8072040F267224AF8052041F20411AD
:101070004FF487621A6041F2081640F209634AF899
:10108000013041F20C1541F2101240F2DA734AF8C5
:10109000063041F2141140F6AB1340F67C364AF8A4
:1010A00005304AF8026040F64D550AF5A8530AF596
:1010B000AA524AF801501733014684F86B040932EA
:1010C00003F8011F93424FF00004F9D1942015F06A
:1010D0002BFB054611F0F6FF41F2DC0324204AF811
:1010E000035015F021FB0423072206218DE8180088
:1010F0004FF0FF33054611F09BFE41F2F003102044
:101100004AF8035015F010FB044611F0FDFD41F2C2
:101110004C5315484AF8034011F03AFA0E21124890
:1011200011F09EFA642015F0FFFA104B0393092189
:1011300008220A238DE80E000B4B40228021044632
:1011400010F088FB41F2F40350464AF8034007B020
:10115000BDE8F08F01F0FFFF52491D3A9A99993F7F
:10116000ECE60100CCDAFF1F449FFF1F00127A005B
:1011700030B583B00546069C002CCABFE0B2007DA6
:1011800028752B614BB942B2002A02DD194613F0D3
:101190009FFB00232B7003B030BD084BA9601B6878
:1011A000019343B2019CEA600121002B6C6029701D
:1011B000F1DD13F08DFB03B030BD00BFC8DEFF1FB3
:1011C00070B5064E41F24C55705911F027FE044699
:1011D00010B1705911F0CAFD204670BD40C5FF1F07
:1011E00038B5144C41F2F0030546E05811F074FE96
:1011F000B4F8863DB4F8842D181A83B29342A4F84B
:10120000863D15D00C4A11680AD80029CCBF01F1DF
:10121000FF31002111604FF0FF30A4F8843D38BD4C
:10122000A942B8BF013111600120A4F8843D38BD46
:10123000002038BD40C5FF1F64ACFF1F10B5084932
:1012400041F2F4030022C85882B0402103688DE8BF
:10125000060011461C6C8023A04702B010BD00BFE1
:1012600040C5FF1F2DE9F04F914BDFF8789241F216
:10127000F4048FB018590025402203688DE824003B
:1012800029461E6C2A468023B047894B01211859F4
:1012900010F0E4F8864B87491859036885820126C7
:1012A0005B68C5810822058246829847804B197881
:1012B0001859314415F04EF97D4B7F491859036890
:1012C00007225B689847D9F80000002800F0D98011
:1012D00016F0B2FF4FF07C5117F002F816F07EFBCB
:1012E000734B1D59009602460B46284615F03CF9F3
:1012F0006F4B72491C59236832465B6820469847F9
:10130000204615F0C1F8002306936D4B0793DFF8D4
:10131000D8810E230593059B079E043B1BB20493C3
:10132000069B1D4603EB4303039300240127039B05
:10133000D9F80020D8F800A0EB189A4200F09A8063
:101340004FF00003AAF81270AAF814300FFA84FBC9
:10135000BDF81030AAF8103009A8AAF80EB0002D78
:1013600000F09B8018F04CF8DAF8003002465B6819
:1013700009A950469847504615F086F83378002B57
:101380006CD11E34A4B2782C06F1010605F10105DA
:10139000CDD1059B069A09339BB20593079B013279
:1013A0000433052A06920793B5D141F2F404404A6A
:1013B00044491059372302680382012500235668E7
:1013C00045828382C3810422B0473F4B384A196863
:1013D00010593E4E15F0BEF8354B3D49185903687B
:1013E0002A465B689847324B3168185915F0B2F8B5
:1013F0002F4B3749185903682A465B689847354B85
:1014000030681E687368C01A16F016FF0746B06889
:1014100016F012FF0146384617F016F82E4916F05E
:101420005FFF16F0DBFA224B1E59022702460B46DD
:101430000097304615F098F81D4B20491E59336827
:101440002A465B6830469847304615F01DF8184B21
:10145000185910F06FFE0FB0BDE8F08FD8F80000FB
:10146000BDF9142003680097D3F83CA0594618230F
:10147000D04786E74FF00003AAF81230AAF814709C
:1014800064E70B4B15491C59236820465B6803220F
:101490009847204614F0F8FF35E7DAF80030104995
:1014A0005B68042250469847504614F0EDFF68E709
:1014B00040C5FF1F38D4010044D401004CD40100C2
:1014C000DCAEFF1F5CD401004092FF1F7895FF1F28
:1014D00064D40100E4ACFF1F0000204150D401009F
:1014E00054D4010064ACFF1F34D6FF1F2DE9F04F28
:1014F0009F4BA04AA04C1B681268596892F856602E
:101500009B6841F2F40785B0E05902930025402220
:10151000036803918DE8240029462A46D3F84080C9
:101520008023C047E05901210FF098FFE05993490B
:101530000368858201224282C58105825B6803229D
:10154000984721780729C6F3411640F2DE80637878
:10155000E059022B03680CBF89498A495B68052260
:101560009847894F3B68002B40F0C78041F2F40157
:101570000122605843828282036884495B680822A2
:1015800098473B68012B00F0D58041F2F40301221B
:10159000E55800236A82AB822B687D495B68DFF8DF
:1015A000D8B10322284641F2F40A9847284614F09D
:1015B0006BFF54F80A5077492B684FF000084FF042
:1015C000010911225B682A82A5F812901022A5F861
:1015D0001480A5F80E8028469847284614F054FF3A
:1015E0003B685BF80A00022B4FF01B030382036881
:1015F00007BFA0F81280A0F81490A0F81290A0F8ED
:1016000014800022022EC2810CBF634963495B68CB
:10161000102298473B68032B41F2F40300F08480CA
:10162000E05801220023428283822523038203683B
:10163000022E4FF0000241F2F4050CBF58495949FF
:10164000C2815B681022984760595749026801239C
:10165000438237270023078257688382C38104228D
:10166000B847524B444A1B68002B0DDD504F55596B
:1016700003EB83031F44384617F0C2FE2B68024673
:1016800039465B682846984741F2F40503226059C1
:1016900048490368384F5B689847474B1868039B75
:1016A000022EA0EB03004CD016F0C6FD06460298B1
:1016B00016F0C2FD0146304616F0C6FE3F4916F050
:1016C0000FFE16F08BF97D59022602460B46009656
:1016D000284614F049FF41F2F4060122A559384981
:1016E0002B6828465B689847284614F0CDFEA05921
:1016F00005B0BDE8F04F10F01DBD41F2F40301222A
:10170000E05800234282838236E70131E05914F029
:1017100021FF6378E059022B03680CBF29492A494D
:101720005B68052298471CE7E058002201234282AB
:1017300083827AE741F2F40100226558AB826A8223
:101740002AE716F079FD8046029816F075FD0146ED
:10175000404616F079FE1D4916F0C2FD16F03EF91E
:101760007D59009602460B46284614F0FDFEB2E76E
:10177000E4ACFF1F10C0FF1F40C5FF1F68D401006D
:101780006CD4010074D4010064ACFF1F8CD4010040
:1017900050D4010098D40100ACD40100C0D40100A1
:1017A000D4D40100E8D401005CD401004092FF1FB2
:1017B000E0CD0100FCD401007895FF1F000020411E
:1017C0004CD401007CD4010084D401000000A0406E
:1017D0002DE9F04F884B894E41F2F4050024585909
:1017E0008BB0402203688DE8140021461F6C22460E
:1017F0008023B847804B012158590FF02FFE7E4BB4
:101800007F4958590368C48101275B680482848238
:1018100047820A2298473368002B40F0E080764ADE
:10182000505943828782036876495B68082298474B
:101830003368012B00F0D88041F2F4036E49CC5894
:10184000012200236282A38223686F495B68DFF86C
:10185000D091032220469847204614F015FE41F20D
:10186000F405654B69495C5923684FF000080A226A
:1018700001265B682282A4F80E801422A4F812804C
:10188000A68220469847204614F0FEFD5A4B604938
:101890005C592368A4F80E8025225B6822822046CA
:1018A00014229847204614F0EFFD534B53F805A03F
:1018B000584B594D0393AAF81260AAF814804FEAC6
:1018C000A80606EB460659F804BF06EBC60608F064
:1018D00003074FF0000CB6B2C7EB071706F113036E
:1018E0007F00E345AAF81030AAF80E708DF818C0F2
:1018F00064DB05AB06AC9C44A64601209BFBF0F3E1
:1019000085FB0321DA17C2EBA10202EB8202A3EBF3
:10191000420330330EF8013D00EB8000E6454FEA0C
:101920004000EBD105A817F06BFDDAF80030024655
:101930005B68504605A99847384BD3F800A0039B35
:1019400053F8041F039306F11C030026B142AAF8C2
:101950000E70AAF810308DF8186029DB05AB1E4414
:10196000012091FBF0F385FB0327DA17C2EBA702F6
:1019700002EB8202A3EB4203303304F8013D00EB9B
:101980008000A6424FEA4000EBD105A817F038FDD1
:10199000DAF80030024608F101085B68504605A9F4
:1019A0009847B8F1080F11D01C4BD3F800A086E778
:1019B0002D2349428DF814300126CFE72D23CBF19A
:1019C000000B8DF814304FF0010C92E741F2F40354
:1019D000094AD05810F0AEFB0BB0BDE8F08F064BB3
:1019E0005859478284821EE741F2F4010248445864
:1019F0000022A382628227E740C5FF1F64ACFF1F5D
:101A000000D501000CD5010050D4010018D501000B
:101A100030D5010064B4FF1F6766666634D6FF1FC9
:101A2000BCACFF1F7C4B1A68F0B40346D46DB2F90E
:101A3000580007290CD8DFE801F0042D32517292CA
:101A4000B20D764A106891889279186099809A71DF
:101A5000F0BC7047126E0026A4185E7100F1BD80C4
:101A60006F4F1E440120053394FBF0F287FB0215F3
:101A7000D117C1EBA50101EB8101A2EB410230328C
:101A800003F8012D00EB8000B3424FEA4000EBD198
:101A9000F0BC7047634A10681860F0BC70470026BD
:101AA000041E5E71C0F2B2805D4F1E4401200533FA
:101AB00094FBF0F287FB0215D117C1EBA50101EBF6
:101AC0008101A2EB4102303203F8012D00EB8000CE
:101AD0009E424FEA4000EBD1F0BC7047B2F95A6029
:101AE000002536185D7100F18C804D4F1D4401209A
:101AF000053396FBF0F287FB0214D117C1EBA4016A
:101B000001EB8101A2EB4102303203F8012D00EB21
:101B10008000AB424FEA4000EBD1F0BC7047B2F915
:101B200064600025AE425D7166DB3D4F1D440120BF
:101B3000053396FBF0F287FB0214D117C1EBA40129
:101B400001EB8101A2EB4102303203F8012D00EBE1
:101B50008000AB424FEA4000EBD1F0BC7047B2F9D5
:101B600066600025AE425D7141DB2D4F1D440120B2
:101B7000053396FBF0F287FB0214D117C1EBA401E9
:101B800001EB8101A2EB4102303203F8012D00EBA1
:101B90008000AB424FEA4000EBD1F0BC704700261A
:101BA000B4425E711EDB1E4F1E440120053394FBC0
:101BB000F0F287FB0215D117C1EBA50101EB810102
:101BC000A2EB4102303203F8012D00EB8000B3425A
:101BD0004FEA4000EBD1F0BC70472D2264421A70EE
:101BE00001263DE72D2264421A700126DBE72D22F3
:101BF00076421A700125B8E72D2276421A70012527
:101C000093E72D2276421A7001256EE72D22644259
:101C10001A70012648E700BF10C0FF1F48D5010019
:101C20006766666650D401002DE9F04F684CDFF816
:101C3000C8A141F2F4068BB0A059002540220368E8
:101C40008DE8240029462A461F6C8023B847A059F6
:101C500001210FF003FCA0595E490368858201222F
:101C60005B684282C5810322058298472178A0598A
:101C7000013114F06FFC6378A059022B036808BF90
:101C800055495B6818BF554905229847DAF8003076
:101C9000002B40F0838041F2F4010122605843821E
:101CA000828203684E495B6808229847DAF8003060
:101CB000012B7BD041F2F4030122E55800236A8214
:101CC000AB822B6847495B68DFF8209103222846E6
:101CD0009847284614F0D8FB41F2F4030122E45857
:101CE000414923686282002610225B682282A68214
:101CF000E68120469847204614F0C6FB1C234FF08F
:101D0000020B02934FEA4608BDF90830039308F12D
:101D1000020818250024D9F8003001210022598238
:101D20009A82002E49D0DAF8002008EB0401914293
:101D30004FF001002ED0002258829A82BDF80C206C
:101D4000DA811D820BEB040105A8FFF76BFED9F8C1
:101D5000007005A817F054FB3B6802465B6805A9B4
:101D6000384698470134384614F08EFB0A35022C69
:101D7000ADB2D0D1029B01362A339BB2022E029320
:101D80000BF1020BBED1194B186810F0D3F90BB050
:101D9000BDE8F08F002159829882CFE741F2F40329
:101DA0000122E0580023428283827AE741F2F40163
:101DB00000226558AB826A8283E718460C4924B139
:101DC000FEF702FE094B1B68ADE718460949F7E725
:101DD00040C5FF1F68D401007CD4010084D40100F9
:101DE0008CD4010050D4010050D5010034D6FF1F1F
:101DF00064D501006CD5010064ACFF1F30B40D4BFD
:101E00005B78012B0C4B0AD91C68E56C056094F9D2
:101E1000500008701B681B6A136030BC70471B6859
:101E20009C6C046093F94C0008701B6A136030BC12
:101E3000704700BF40C5FF1F10C0FF1F2DE9F04FC6
:101E400091B008AA0DF1130107A8FFF7D7FF089872
:101E5000AC4C16F0EDF9AC4916F0F6FA0146AB4879
:101E600016F0F2FAAA4916F0EFFA41F2F406074624
:101E7000A05900250368019540220092D3F84080C4
:101E80002A4680232946C047A05901210FF0E6FACF
:101E9000A059A0490368858201225B684282C581FE
:101EA0000322058298472178A059013114F052FB92
:101EB0006378022B00F07981032B00F06F81012BF6
:101EC00000F0B580944E3368002B40F0A88041F2BA
:101ED000F401012260584382828203688F495B6863
:101EE000062298473368012B00F0518141F2F40338
:101EF0000122E55800236A82AB822B6888495B681F
:101F0000DFF800A20422284641F2F4099847284647
:101F100014F0BAFA54F8095082492B684FF00008BF
:101F20000C224FF0010B5B682A82A5F812B0122236
:101F3000A5F81480A5F80E8028469847284614F086
:101F4000A3FA54F809001423A0F80E80038202219A
:101F50000FF084FA3268022A70D041F2F4019DF940
:101F600013306558053301216982D9B200200A294E
:101F7000A88273D9022A00F084800DF124082B680E
:101F800069495B684FF001094FF0000A0222A5F889
:101F90001290A5F814A028469847384615F01EFD63
:101FA0000B4602466149404617F09CF93368032B03
:101FB00000F09B8041F2F4030122E55800236A827D
:101FC000AB82404617F01CFA2B6802465B6841461C
:101FD00028469847284614F057FA3368032B00F038
:101FE000AF8041F2F40501216059514E454F0FF089
:101FF00035FA6359002201219A82598212F082FC3B
:10200000336847F22F52C01A904205D9785910F020
:1020100091F812F077FC306011B0BDE8F08F41F21A
:10202000F4030122E05800234282838255E7A0593D
:102030004049036806225B68984743E73E4B1B789C
:10204000002B8AD09DF913305AF809500533DAB2C3
:102050000A2AA5F81280A5F814B08ED8374A52F88B
:102060002380404617F0CCF92B6802465B6828466F
:1020700041469847326841F2F403022AE5587FF45A
:102080007CAF2D4B1A78002A7FF477AF9DF913307F
:102090002A4905330DF11A0C51F82310CDF808C068
:1020A0000DF1180E0DF1160341F2F4090DF124089B
:1020B00028468DE80840CDF80C8014230FF00EFB65
:1020C00054F80900BDF92410056800914FF0010E85
:1020D000CDF804E0ED6CBDF91A30BDF91820BDF95A
:1020E0001610A84754F8095049E7134B1B78002BEA
:1020F0003FF460AF41F2F403E558A5F812A0A5F84B
:1021000014905EE740C5FF1F00007A4400606A47F4
:102110000000C04168D4010064ACFF1F48D5010035
:1021200054D401008CD5010088D50100A0D5010050
:102130002CACFF1F74D501002C97FF1F8CCD010024
:102140001D4B1B78002B7FF44CAF41F2F4050DF1D1
:102150001A03039306AE0DF1160205AB6059029601
:102160004146019200933C2214230FF0B7FA6059C4
:10217000BDF91A600568009601260196BDF9183070
:10218000BDF91620BDF91410ED6CA84729E741F2FE
:10219000F40100226558AB826A82AEE6A059074975
:1021A000036806225B6898478CE6A05904490368D7
:1021B00006225B68984785E62C97FF1F84D50100AF
:1021C0007CD5010000B5807B00F01F031E2B15D8C5
:1021D000DFE803F01D1D52525252373F5252525205
:1021E000522923161D1D52525252521D1D1D1631C9
:1021F000464C100000200B23088013805DF804FB80
:10220000002043F6FF73088013805DF804FBC0F3E1
:102210004110012834D002283AD000207F230880C2
:1022200013805DF804FB4FF4004047F6FF7308800D
:1022300013805DF804FB00200723088013805DF8FD
:1022400004FB4FF4604041F6FF73088013805DF893
:1022500004FB4FF69C706423088013805DF804FB38
:1022600000203323088013805DF804FB082013232B
:10227000088013805DF804FBC0F341100128CCD125
:102280004FF680704FF48073088013805DF804FB74
:1022900000203C23088013805DF804FB827B01F062
:1022A0001F0161F304021F29827314D010B50122AB
:1022B000194C02FA01F10C4034B9184A0A405AB9D3
:1022C000174A0A40D2B910BD00217F2201828183C2
:1022D0004282C28310BD7047827BC2F34112022A40
:1022E00006D13C217822048284834182C28310BDBE
:1022F0007822048284834282C28310BD044600F1A6
:102300001E0200F11C01FFF75DFFB4F91C20E38BF6
:1023100022829B1A6382D6E73C1F7C000300830362
:10232000C0E0007C2DE9F041554D564C2978564BC4
:1023300062780020012918607FD0012A40F286804F
:10234000022A7AD0032A52D0504E306890F8563084
:10235000DFF868814E4FDFF868E1DFF868C113F0FD
:10236000600218BF012288F8002000F158023A608C
:10237000C26DCEF80020DFF850E1026ECCF80020EC
:10238000444AB0F864C0AEF800C0DFF840E1B0F8ED
:1023900066C0A2F800C0404AB0F858C0AEF800C00D
:1023A000B0F85AE0A2F800E001F0FD02012A08D1DD
:1023B0003A4AC3F30403002148301370FFF76EFF5D
:1023C0002978374B374A384D38484FF0010EC3F85B
:1023D00000E04FF0FF33136071454FF000022B60B7
:1023E00002700DD0324B01201870BDE8F0812078CA
:1023F000264E00EB400004EBC0107C303060A5E7B7
:102400003568386895F856602A4B2B4962F34616B2
:1024100085F85660D4F8A85DD4F8AC4D846045606A
:1024200003F1140003F8012F834241F8042FF9D17E
:102430001F4B01201870BDE8F0812078134E00EB8F
:10244000400004EBC010083030607FE7052901D060
:10245000BDE8F081012A7FF477AF237810490B4E55
:102460000A6003EB430304EBC3130E4D0E4C0F49FC
:102470004FF0FF32F03333602A6022600870B1E71A
:1024800039ACFF1F40C5FF1F0CACFF1F10C0FF1F62
:10249000E4ACFF1F5C90FF1FF0ACFF1F54ACFF1FAC
:1024A00064ACFF1F7895FF1F4092FF1FE8ACFF1F31
:1024B00028ACFF1FDBAEFF1F00B4FF1F9CB4FF1F43
:1024C000C0DAFF1F30C5FF1FB4DDFF1F80ACFF1F48
:1024D0002DE9F043DFF8C8802B4F98F80030052233
:1024E00087B03A707BB1294E3568ADB1A84720B9A5
:1024F0000024204607B0BDE8F08300242046346065
:1025000007B0BDE8F083FFF70DFF0028EBD10124F1
:10251000204607B0BDE8F0831D4B18780238FEF75F
:102520005FFE2846FFF78AFCFEF74AFE04460028B5
:10253000DED0184B1B68012B06DD023B164A52F811
:10254000233033602C46D4E7144E41F2F40340228A
:10255000F05803688DE824002946D3F840902A46B5
:102560008023C84705AA0DF10F0104A888F8005080
:102570003D70FFF743FC9DF80F20049B86F8D02D9B
:10258000C6F8CC3DB5E700BF39ACFF1F0CACFF1F50
:102590008C92FF1F64ACFF1F7889FF1F40C5FF1F8F
:1025A00028ACFF1F2DE9F04FA54BA64D1B78032249
:1025B00083B02A70002B00F0A680A34BA34E1F68A7
:1025C00097F85640F86DC4F34114022C00F0B8801F
:1025D00015F032FE8046B7F95A00B7F958B015F039
:1025E0002BFE8246386E15F027FE8146CBF118008F
:1025F00015F022FE514615F027FF494615F070FEF2
:10260000414615F065FD16F031F83060CBF1600001
:1026100015F012FE514615F017FF494615F060FE01
:10262000414615F055FD16F021F8DFF85892C9F82B
:1026300000008749874ADFF850A2B7F916300878BA
:10264000B98ACAF800101360FEF7CAFDFEF74EFF04
:10265000FEF7B6FD804600283CD0DFF83082D8F87F
:102660000000012840F3C680022800F0BD80032846
:1026700000F0B4803568D9F80000022CA0EB05000A
:1026800000F0908015F0D8FD0446284615F0D4FDE2
:1026900021460546204615F01BFD6F4915F0D4FE76
:1026A0000146284615F012FD15F0E0FF6B4905467E
:1026B000204615F015FE684915F0C6FE15F0D6FF48
:1026C000674B1B684FF000085D609860404603B0A0
:1026D000BDE8F08F2B78032BF8D1BAF80000FDF796
:1026E00047FF604A41F29D03D35C002BEED00028E7
:1026F000ECD05D4B1A788242E8D0DFF890811870F8
:10270000C8F80000ADE7FFF70DFE044600287FF48F
:1027100054AF544D55494FF00108FF2205F665604E
:1027200085F8648E16F0DAFE4FF4FA621123A5F8EC
:102730006C4FA5F8704FC5F8682FA5F86E3FC5E738
:1027400015F07AFD8346B7F95A00B7F958A015F08D
:1027500073FD8146386E15F06FFD8046CAF10C009E
:1027600015F06AFD494615F06FFE414615F0B8FDBB
:10277000594615F0ADFC15F079FF3060CAF1300014
:1027800015F05AFD494615F05FFE414615F0A8FDCB
:10279000594615F09DFC15F069FFDFF8E890C9F87F
:1027A000000046E715F048FD0446284615F044FDB4
:1027B0002F490546204615F047FE0146284615F0EC
:1027C00085FC15F053FF2B490546204615F088FD82
:1027D000274915F039FE15F049FF71E7DAF80000D6
:1027E0003568C9F8000048E7DAF800503560D9F8D4
:1027F000000042E71B4941F2F4030022C85840217F
:1028000003688DE8060011461C6C8023A0470E4B20
:102810001868194B48301978FFF740FDD8F8003098
:102820003BB90F4B1549164A1B6809681268596075
:102830009A60034A002313702B704FF0010845E79C
:1028400028ACFF1F39ACFF1F10C0FF1FB8ACFF1F23
:10285000409FFF1F4092FF1F0000C040000020412A
:10286000E4ACFF1F40C5FF1FE8ACFF1FA8D5010067
:10287000000040400000A04054ACFF1FC0DAFF1F22
:1028800030C5FF1FBCACFF1F7895FF1F64ACFF1F56
:1028900010B582B002AB42F2257243F8042D044613
:1028A000017004221846002111F002FE2046012288
:1028B000022111F0FDFD032002B010BD2DE9F04111
:1028C000804682B018F8041B744D754F0446FFF71C
:1028D000DFFF042206460146404611F0E9FD311DA6
:1028E00004F10800042211F0E3FD06F1080104F1EF
:1028F0000C00042211F0DCFD06F10C0104F11000C3
:10290000042211F0D5FD06F1100104F11400042297
:1029100011F0CEFD06F1140104F11800042211F0AB
:10292000C7FD06F1180104F11C00042211F0C0FDDE
:1029300006F11C0104F12000042211F0B9FD06F19A
:10294000200104F13500692211F0B2FD06F1890180
:1029500004F12800042211F0ABFD06F18D0104F111
:102960002C00012211F0A4FD06F18E0104F13000CB
:10297000042211F09DFD06F1920104F134000122C0
:1029800011F096FD0D21474813F0E8FA00230A22C2
:102990002178284613F09EFD0221434813F0DEFA09
:1029A0006168284613F0D6FD3846012113F0D6FAA7
:1029B000A168284613F0CEFD3846012113F0CEFA67
:1029C000E168284613F0C6FD3846012113F0C6FA27
:1029D0002169284613F0BEFD3846012113F0BEFAE6
:1029E0006169284613F0B6FD3846012113F0B6FAA6
:1029F000A169284613F0AEFD3846012113F0AEFA66
:102A0000E169284613F0A6FD3846012113F0A6FA25
:102A1000216A284613F09EFD3846012113F09EFAE4
:102A2000A06A14F0DBFF4FF0020802460B46CDF817
:102A30000080284613F098FD3846012113F08EFAE5
:102A400094F92C10284613F085FD3846012113F027
:102A500085FA00230A2294F83410284613F03AFD30
:102A60003846012113F07AFA206B14F0B7FFCDF845
:102A7000008002460B46284613F076FD38460121B9
:102A800013F06CFA06F19301284613F063FD284613
:102A900013F0FAFC962002B0BDE8F08168A1FF1F98
:102AA00064D40100BCD501009CDB010070B5064672
:102AB00084B0002011F098FC8DF80E00012011F078
:102AC00093FC8DF80F00BDF80E2042F225739A4258
:102AD00040F00781022011F087FC03288ABFFF2302
:102AE00030703370F51C0324204611F07DFC013456
:102AF000072C05F8010FF7D1F51D204611F074FCE5
:102B000001340B2C05F8010FF7D106F10B05204617
:102B100011F06AFC01340F2C05F8010FF7D106F112
:102B20000F05204611F060FC0134132C05F8010F4D
:102B3000F7D106F11305204611F056FC0134172C8D
:102B400005F8010FF7D106F11705204611F04CFCEE
:102B500001341B2C05F8010FF7D106F11B052046A7
:102B600011F042FC01341F2C05F8010FF7D106F1DA
:102B70001F05204611F038FC0134232C05F8010F05
:102B8000F7D106F13405204611F02EFC01348C2CCF
:102B900005F8010FF7D106F12705204611F024FCB6
:102BA0000134902C05F8010FF7D1204611F01CFCE0
:102BB00006F12F0586F82C009124204611F014FC14
:102BC0000134952C05F8010FF7D1204611F00CFCCB
:102BD0000C2186F83400484813F0C0F900230A227B
:102BE0003178464813F076FC0221454813F0B6F9D7
:102BF0007168424813F0AEFC0121424813F0AEF96F
:102C0000B1683E4813F0A6FC01213E4813F0A6F936
:102C1000F1683A4813F09EFC01213A4813F09EF9FE
:102C20003169364813F096FC0121364813F096F9C5
:102C30007169324813F08EFC0121324813F08EF98D
:102C4000B1692E4813F086FC01212E4813F086F955
:102C5000F1692A4813F07EFC01212A4813F07EF91D
:102C6000316A264813F076FC0121264813F076F9E4
:102C7000B06A14F0B3FE022402460B4600941F48CB
:102C800013F072FC01211F4813F068F996F92C101B
:102C90001A4813F05FFC01211A4813F05FF9002372
:102CA0000A2296F83410154813F014FC0121154837
:102CB00013F054F9306B14F091FE009402460B4669
:102CC0000E4813F051FC01210E4813F047F99621EC
:102CD0000A4813F03FFC094813F0D6FB962004B0D5
:102CE00070BD1B21084813F039F9044813F0CCFBE0
:102CF000002004B070BD00BFE8D5010068A1FF1F2F
:102D00009CDB010064D40100CCD501002DE9F8431F
:102D1000099C089E0F46904699461CB1086815F01C
:102D2000A5FCA0471D4D41F2F003E85810F0D4F87F
:102D3000B5F8864DB5F8843D201A84B29C42A5F8BA
:102D4000864D24D094BF06F100403046396815F016
:102D5000BFF94146064615F061FC58B94946304670
:102D600015F07AFC68B1C7F800900020A5F8844DF2
:102D7000BDE8F883C7F800800020A5F8844DBDE8C1
:102D8000F8833E600020A5F8844DBDE8F88341F249
:102D90004C53E858BDE8F84310F040B840C5FF1F59
:102DA0002DE9F043284D6B78012B85B0274B44D992
:102DB0001B68186A03F14C0903F1200415F038FA76
:102DC000234915F041FB0146224815F03DFB2249FD
:102DD00015F03AFB14F068F904A9204A41F8040DF3
:102DE0004FF07E5380460192009300221C4B1D48F9
:102DF000FFF78CFF1C4B039F18700646144938469A
:102E000015F022FB0146134815F01EFB124915F080
:102E10001BFB15F051FC41462060384615F014FBB1
:102E2000D9F8001015F05CFA0346C9F800003046E6
:102E3000C5F8CC3D05B0BDE8F0831C68206A04F1FC
:102E400048092034BAE700BF40C5FF1F10C0FF1F6C
:102E500000007A4400606A470000C0413D1E000047
:102E60000000FA4384D3FF1F2C97FF1F70B51F4D3E
:102E70006B78022B84B032D0032B29D0012B02D0E7
:102E800000231B7AFFDE2C7804EB440405EBC4140A
:102E900004F59A7494F9080015F0CEF904A9144ABF
:102EA00041F8040D4FF07E5301920093114A124BEA
:102EB0001248FFF72BFF124B06461E70039815F0C1
:102EC000D5FB40B2207285F8D00D304604B070BDFD
:102ED0002C7804EB440405EBC414C434DAE72C78F2
:102EE00004EB440405EBC4145034D3E740C5FF1F82
:102EF0003D1E00000000A0C00000A04084D3FF1FC2
:102F00002C97FF1F2DE9F843099CDDF820900E4611
:102F100090461F460CB10868A0471C4D41F2F003D3
:102F2000E8580FF0D9FFB5F8864DB5F8843D201A62
:102F300084B29C42A5F8864D21D0E01A15F07CF9A8
:102F4000494615F0CDF98146306815F075F901460E
:102F5000484615F0BDF815F089FB404508DB87426F
:102F6000A8BF074637600020A5F8844DBDE8F88368
:102F7000C6F800800020A5F8844DBDE8F88341F232
:102F80004C53E858BDE8F8430FF048BF40C5FF1F59
:102F90002DE9F047234CBDF82090099D41F2F00740
:102FA0000646E05990460F469A460FF095FFB4F852
:102FB000863DB4F8841D184480B2A4F8860D88427A
:102FC00096F861221BD2AB5C013BDBB22F2B98BF82
:102FD0003923AB5428460A22002116F04FFB404506
:102FE000386013DAB4F8860DC7F8008041F24C530C
:102FF000A4F8840DE058BDE8F0470FF00FBFF5D9F5
:103000005AB909F1FF3986F86192EFE75045C8BF18
:10301000C7F800A0B4F8860DE8E7013A86F8612207
:10302000E4E700BF40C5FF1FF8B5204C41F2F003B4
:103030000546E0580E4617460FF04EFFB4F8863DA1
:10304000B4F8841D184480B2A4F8860D95F8612266
:103050008842B35C1ED20133DBB213F0800F18BF7D
:103060002023B354B4F8860DA4F8840D41F24C53D8
:10307000E0580FF0D3FE60B195F86132013FBB42DA
:1030800007D013B93278202A0ED0013385F8613287
:103090000020F8BDE8D9013BDBB21F2B98BF7F238E
:1030A000B354B4F8860DDFE73370F8BD40C5FF1F99
:1030B000F0B5DFF844E041F2F40583B008465EF86D
:1030C0000550BDF820601F46144616F099F904EB30
:1030D0004404A4002A68033400EB400312210020BA
:1030E0000190009104EB43031BB2146C39B22846E3
:1030F00032B2A04703B0F0BD40C5FF1F2DE9F04F2D
:10310000DFF8BC8041F2F40785B00E469B4658F8C4
:103110000700BDF83890012114460EF09FF90BF11D
:10312000020058F8075083B21A464FF0010A09F11D
:1031300005034FF00001EA812B82A5F812A0A982B5
:103140003046039216F05CF92B6802465B68314604
:1031500028469847284613F097F958F807000221A7
:103160000EF07CF958F807504FF00001A982304664
:10317000A5F812A016F044F9039A00EB400002EB08
:10318000400009EB0A03E8812B82304616F038F93B
:1031900004EB4404A4002E68CDF804A000EB40002A
:1031A00003341222009204EB40031BB20FFA89F29F
:1031B0000FFA8BF12846F46CA04705B0BDE8F08FFC
:1031C00040C5FF1F2DE9F04F87B01F46BDF84040B6
:1031D00004942546BDF844400094A94688460293CD
:1031E00016462B463A46054605940391FFF760FFC5
:1031F0004B463A46009441462846FFF77FFF41F28E
:10320000F403254A254F52F803B000245B46A1463B
:10321000A3464FF001081C4617E095F8613253456C
:10322000236804BFA4F81290A4F814801B6816F851
:103230000A10984795F861323C68534504BFA4F8DA
:103240001280A4F814900BF1010B304616F0D8F858
:103250001FFA8BFA50452046DFD822681049A34652
:1032600054680022A047584613F00EF9029A3146DE
:103270002846FFF7D9FE58B1059B00932846049BCA
:10328000029A0399FFF714FFFF2385F861320120AA
:1032900007B0BDE8F08F00BF40C5FF1F34D6FF1F49
:1032A00048D70100F0B5044690F8610287B0FF28C6
:1032B000BDF83050BDF834600AD08DE8600020467B
:1032C000FFF780FF10B1FF2384F8613207B0F0BD33
:1032D000002084F86102104605930491039216F0D1
:1032E0008FF8059B039A04999842E6D207DA1044B6
:1032F00002EB030E202700F8017B7045FBD1002074
:10330000D054DAE7102B2DE9F84F05460C464FF064
:10331000000E55D8724501F803E057DB9E4518DAD8
:10332000DFF8BCC0E718012692FBF6F18CFB010820
:10333000C817C0EBA80000EB8000A1EB4001013BE7
:1033400006EB8606303173454FEA460607F8011D45
:10335000EADC214ADFF88C9041F2F4034FF00008D8
:10336000D758C3464FF0010A17E095F86132B342CF
:103370003B6804BFA7F812B0A7F814A01B68A15DB2
:10338000984795F86132D9F80070B34204BFA7F8A6
:1033900012A0A7F814B008F10108204616F030F882
:1033A0001FFA88F6B0423846DFD83B680B495B68A5
:1033B0003846002298473846BDE8F84F13F064B805
:1033C000724581F810E04FF01003A9DA2D21524226
:1033D00021704FF0010EA1E740C5FF1F48D7010043
:1033E0006766666634D6FF1F2DE9F04F89B0054643
:1033F000BDF84C40BDF85060BDF8547000978B4646
:103400009046994622463346FFF752FE33460097D0
:10341000224659462846FFF771FE169B0DF10C0A0D
:103420005BB350462246D8F80010984795F86132B1
:10343000FF2B16D08DE810044A464146129B2846C1
:10344000FFF7A6FD50B1334628460097224659465D
:10345000FFF72EFEFF2385F86132012009B0BDE899
:10346000F08F00224FF07E53019200934A4641466E
:10347000129B2846FFF746FDE4E751462346D8F85D
:1034800000202846FFF73EFFD0E700BFF0B51C4AFA
:10349000137803EB4303DB01D11889B091F85E0088
:1034A000C00626D101F5A074B1F84011079141F290
:1034B000A5031349D25C124DFF2A04BF0322CA544C
:1034C0002D2700234FF47A7204268DE844000D491D
:1034D000049305F644600293039707AAFFF784FF5D
:1034E00018B141F2A503FF22EA54079B238009B0DB
:1034F000F0BD1344B1F85C1003F15C04D6E700BFE3
:1035000040C5FF1FF8D501002DE9F0432B4D2C4994
:10351000D5F8D40D294E89B014F0E2FE15F0A6F8C6
:1035200041F2A5032D21EA5C0790FF2A04BF042283
:10353000EA54244B0093052200230391019206F6DE
:1035400044600493029307AA1F49FFF74DFF80468A
:1035500038B341F2A503FF22F254079814F06CFE31
:10356000174914F071FF34460146C6F8D40D06F52C
:103570004067B14601E0D9F8D41D95F8D86DD4F86C
:10358000E80010F071FA304614F052FE04F5C074F1
:1035900054F8983CA7421861EDD1404609B0BDE807
:1035A000F083079814F048FE054914F04DFFC6F863
:1035B000D40D404609B0BDE8F08300BF40C5FF1FF1
:1035C0000050C3473F420F0004D60100F0B5154C30
:1035D000154A2378154989B003EB430304EBC31361
:1035E000049293F8643108AA1B0942F8043D2D2780
:1035F000002302260B25029304F6446003978DE80E
:103600006000FFF7F1FE2378079A03EB430304EB16
:10361000C31494F8643162F3071384F8643109B079
:10362000F0BD00BF40C5FF1F0907000010D6010014
:103630002DE9F0431D4D1E4995F8D80D89B008AA13
:10364000002304262D274FF4807442F8040D8DE8E2
:10365000500005F64460049302930397FFF7C4FEFD
:103660009DF81C6085F8D86D814618B9484609B0A8
:10367000BDE8F0832C4605F54067A84601E098F8C0
:10368000D86DD4F8E800D5F8D41D10F0EDF9304627
:1036900014F0CEFD04F5C07454F8983CBC42186197
:1036A000EDD1484609B0BDE8F08300BF40C5FF1F1B
:1036B0001CD60100F0B52F4C6378022B89B032D0B4
:1036C000032B29D0012B02D000235B78FFDE237867
:1036D00003EB430304EBC31303F59A7308AA5B7867
:1036E000244E42F8043D2D27002503974FF0030E8A
:1036F0007F272B462049049506F6446002958DE805
:103700008040FFF771FE6378022B28D0032B1CD07A
:10371000012B0FD06D70FFDE237803EB430304EB26
:10372000C313C433DAE7237803EB430304EBC31377
:103730005033D3E7337803EB430306EBC31606F5A8
:103740009A76079B737009B0F0BD337803EB43039F
:1037500006EBC316C436079B737009B0F0BD33780F
:1037600003EB430306EBC3165036079B737009B097
:10377000F0BD00BF40C5FF1F24D60100F0B52E4CA0
:103780006378022B89B031D0032B28D0012B02D0D3
:1037900000231B78FFDE237803EB430304EBC31302
:1037A00003F59A7308AA1B7842F8043D224D234979
:1037B0002D2300260393032710238DE8880005F6A8
:1037C0004460012304960296FFF70EFE6378022BF5
:1037D00028D0BB421CD0012B0FD03670FFDE2378DF
:1037E00003EB430304EBC313C433DBE7237803EB9E
:1037F000430304EBC3135033D4E72B7803EB4303A9
:1038000005EBC31505F59A75079B2B7009B0F0BD44
:103810002B7803EB430305EBC315C435079B2B70D3
:1038200009B0F0BD2B7803EB430305EBC31550350E
:10383000079B2B7009B0F0BD40C5FF1F30D60100BB
:10384000F0B5314C6378022B89B037D0032B2ED0E2
:10385000012B02D000235B68FFDE237803EB4303D8
:1038600004EBC31303F59A735868274D14F0FEFE5A
:1038700008AA00262D270321FF2342F8040D0397F1
:103880000191009305F644600123049602961F49B6
:10389000FFF7AAFD6378022B07462DD0032B24D017
:1038A000012B12D0079814F0C7FC7060FFDE23785C
:1038B00003EB430304EBC313C433D5E7237803EBD3
:1038C000430304EBC3135033CEE72B7803EB4303DE
:1038D00005EBC31505F59A75079814F0ADFC686003
:1038E000C4F8CC0D384609B0F0BD2B7803EB430388
:1038F00005EBC315C435EFE72B7803EB430305EB6A
:10390000C3155035E8E700BF40C5FF1F40D6010092
:10391000F0B52E4C6378022B89B033D0032B2AD01C
:10392000012B02D000231B7AFFDE237803EB430335
:1039300004EBC31303F59A7308AA93F9083042F80D
:10394000043D224D22492D2300260393042778238A
:103950008DE8880005F644606FF0770304960296C0
:10396000FFF742FD6378022B28D0032B1FD0012BD9
:103970000FD03672FFDE237803EB430304EBC3134F
:10398000C433D9E7237803EB430304EBC313503369
:10399000D2E72B7803EB430305EBC31505F59A75C6
:1039A0009DF91C302B7284F8D03D09B0F0BD2B7806
:1039B00003EB430305EBC315C435F1E72B7803EBA9
:1039C000430305EBC3155035EAE700BF40C5FF1FB1
:1039D0004CD60100F0B5324C6378022B89B035D05B
:1039E000032B2CD0012B03D0002393F82030FFDED3
:1039F000237803EB430304EBC31303F59A7308AA7C
:103A000093F82030264E42F8043D2D2700250397D9
:103A10004FF0030E7F272B462249049506F644609B
:103A200002958DE88040FFF7DFFC6378022B2BD0F6
:103A3000032B1ED0012B10D085F82050FFDE2378F9
:103A400003EB430304EBC313C433D8E7237803EB3E
:103A5000430304EBC3135033D1E7337803EB430341
:103A600006EBC31606F59A76079B86F8203009B058
:103A7000F0BD337803EB430306EBC316C436079B54
:103A800086F8203009B0F0BD337803EB430306EB32
:103A9000C3165036079B86F8203009B0F0BD00BF32
:103AA00040C5FF1F5CD60100F0B5324C6378022B95
:103AB00089B035D0032B2CD0012B03D0002393F8F1
:103AC0002130FFDE237803EB430304EBC31303F53C
:103AD0009A7308AA93F82130264E42F8043D2D2708
:103AE000002503974FF0030E7F272B4622490495AC
:103AF00006F6446002958DE88040FFF775FC637818
:103B0000022B2BD0032B1ED0012B10D085F8215077
:103B1000FFDE237803EB430304EBC313C433D8E77E
:103B2000237803EB430304EBC3135033D1E733781B
:103B300003EB430306EBC31606F59A76079B86F85C
:103B4000213009B0F0BD337803EB430306EBC31615
:103B5000C436079B86F8213009B0F0BD337803EBFB
:103B6000430306EBC3165036079B86F8213009B095
:103B7000F0BD00BF40C5FF1F68D60100F0B5484C3E
:103B80006378022B89B049D0032B3DD0012B03D0A1
:103B9000002393F82030FFDE237803EB430304EB8C
:103BA000C31303F59A7393F82020D20141F2A501C3
:103BB00093F82130605C3A4D1344FF28079304BF0B
:103BC00004236B54364D3749002343F6FF722D27EB
:103BD00005268DE8440005F644600493029303979C
:103BE00007AAFFF701FC18B141F2A503FF22EA542E
:103BF00063782B4A022B3FD0032B2FD0012B17D0F9
:103C0000002383F82030FFDE237803EB430304EB2B
:103C1000C313C43393F82020D201C7E7237803EB02
:103C2000430304EBC313503393F82020D201BDE7C4
:103C30001378079903EB430302EBC313002903F541
:103C40009A730A4615DBD21183F82020164A0A40DF
:103C5000002A1DDB83F8212009B0F0BD13780799F5
:103C600003EB430302EBC313002903F1C4030A4629
:103C7000E9DA01F17F02E6E71378079903EB4303E2
:103C800002EBC313002903F150030A46DBDAF0E725
:103C9000013A62F07F02013283F8212009B0F0BDC1
:103CA00040C5FF1F74D601007F000080F0B52F4C87
:103CB0006378022B89B032D0032B29D0012B02D09C
:103CC00000239B78FFDE237803EB430304EBC3134D
:103CD00003F59A7308AA9B78244E42F8043D2D27D9
:103CE000002503974FF0030E77272B4620490495B4
:103CF00006F6446002958DE88040FFF775FB637817
:103D0000022B28D0032B1CD0012B0FD0AD70FFDE6F
:103D1000237803EB430304EBC313C433DAE72378BC
:103D200003EB430304EBC3135033D3E7337803EBC4
:103D3000430306EBC31606F59A76079BB37009B0EA
:103D4000F0BD337803EB430306EBC316C436079B81
:103D5000B37009B0F0BD337803EB430306EBC31631
:103D60005036079BB37009B0F0BD00BF40C5FF1FC0
:103D70007CD60100F0B52F4C6378022B89B032D08D
:103D8000032B29D0012B02D00023DB78FFDE237820
:103D900003EB430304EBC31303F59A7308AADB7820
:103DA000244E42F8043D2D27002503974FF0030EC3
:103DB0007F272B462049049506F6446002958DE83E
:103DC0008040FFF711FB6378022B28D0032B1CD017
:103DD000012B0FD0ED70FFDE237803EB430304EBE0
:103DE000C313C433DAE7237803EB430304EBC313B1
:103DF0005033D3E7337803EB430306EBC31606F5E2
:103E00009A76079BF37009B0F0BD337803EB430358
:103E100006EBC316C436079BF37009B0F0BD3378C8
:103E200003EB430306EBC3165036079BF37009B050
:103E3000F0BD00BF40C5FF1F84D6010070B5214C06
:103E40006378022B28D0032B1FD0012B0FD000202A
:103E500041F29C051521FEF721FA635D194E73B9F5
:103E600001237355FFF726FCE8B9002070BD2078C8
:103E700000EB400004EBC01000F59A70E8E7012B5E
:103E8000F0D0022B16D0012070BD207800EB40004E
:103E900004EBC010C430DBE7207800EB400004EBFB
:103EA000C0105030D4E741F29C020020A35C0133E3
:103EB000A35470BDFFF75EFF0028D6D000237355D2
:103EC00070BD00BF40C5FF1FF0B5314C6378022BB9
:103ED00089B037D0032B2ED0012B02D000235B6892
:103EE000FFDE237803EB430304EBC31303F59A735C
:103EF0005868274D14F0BAFB08AA00262D27032185
:103F0000FF2342F8040D03970191009305F64460E6
:103F10000123049602961F49FFF766FA6378022B85
:103F200007462DD0032B24D0012B12D0079814F074
:103F300083F97060FFDE237803EB430304EBC313C4
:103F4000C433D5E7237803EB430304EBC3135033A7
:103F5000CEE72B7803EB430305EBC31505F59A7504
:103F6000079814F069F96860C4F8CC0D384609B0B8
:103F7000F0BD2B7803EB430305EBC315C435EFE726
:103F80002B7803EB430305EBC3155035E8E700BF7F
:103F900040C5FF1F40D60100F0B52E4C6378022BC0
:103FA00089B033D0032B2AD0012B02D000231B7AF7
:103FB000FFDE237803EB430304EBC31303F59A738B
:103FC00008AA93F9083042F8043D224D22492D23D6
:103FD00000260393042778238DE8880005F64460C3
:103FE0006FF0770304960296FFF7FEF96378022BD1
:103FF00028D0032B1FD0012B0FD03672FFDE237881
:1040000003EB430304EBC313C433D9E7237803EB77
:10401000430304EBC3135033D2E72B7803EB430382
:1040200005EBC31505F59A759DF91C302B7284F8C4
:10403000D03D09B0F0BD2B7803EB430305EBC3156E
:10404000C435F1E72B7803EB430305EBC31550357B
:10405000EAE700BF40C5FF1F4CD6010070B5374CE2
:10406000637888B000227F21022BADF81820ADF8CC
:104070001A103AD0032B2ED0012B01D0938BFFDEE8
:10408000207800EB400004EBC01000F59A70B0F906
:104090001C3007930DF11A0206A9FEF793F8274D7D
:1040A000BDF91A20009200262D210522BDF91830F5
:1040B0000391019205F644600496029607AA2049EE
:1040C000FFF792F96378022B2ED0032B22D0012B1D
:1040D00015D0B683FFDE207800EB400004EBC01063
:1040E000C430B0F91C300793D4E7207800EB4000CF
:1040F00004EBC0105030B0F91C300793CAE72B789E
:1041000003EB430305EBC31505F59A75079BAB83DA
:1041100008B070BD2B7803EB430305EBC315C43522
:10412000079BAB8308B070BD2B7803EB430305EB13
:10413000C3155035079BAB8308B070BD40C5FF1F4A
:1041400090D6010070B5374C637888B000227F218B
:10415000022BADF81820ADF81A103AD0032B2ED050
:10416000012B01D0D38BFFDE207800EB400004EB65
:10417000C01000F59A70B0F91E3007930DF11A02C5
:1041800006A9FEF71FF8274DBDF91A200092002658
:104190002D210522BDF918300391019205F64460E6
:1041A0000496029607AA2049FFF71EF96378022BAE
:1041B0002ED0032B22D0012B15D0F683FFDE2078E2
:1041C00000EB400004EBC010C430B0F91E30079380
:1041D000D4E7207800EB400004EBC0105030B0F979
:1041E0001E300793CAE72B7803EB430305EBC31597
:1041F00005F59A75079BEB8308B070BD2B7803EB30
:10420000430305EBC315C435079BEB8308B070BDB2
:104210002B7803EB430305EBC3155035079BEB836A
:1042200008B070BD40C5FF1F9CD6010038B50A4DCF
:104230002C783CB1012C08D1FFF784FF28B1002372
:104240002B7038BDFFF70AFF08B9002038BD0123E5
:104250002B70204638BD00BFE0ACFF1FF0B52E4CE0
:104260006378022B89B036D0032B2DD0012B02D0DE
:1042700000235B69FFDE217801EB410104EBC111F2
:1042800001F59A7108AA4B69234D42F8043D4FF09D
:104290002D0E8F69CDF80CE0002644F2020C4FF091
:1042A000060E1E4B1E49049605F6446002968DE8E4
:1042B0000050FFF799F86378022B26D0032B1DD00E
:1042C000012B0FD07661FFDE217801EB410104EB79
:1042D000C111C431D6E7217801EB410104EBC111D2
:1042E0005031CFE72B7803EB430305EBC31505F5FE
:1042F0009A75079BAF616B6109B0F0BD2B7803EB3A
:10430000430305EBC315C435F3E72B7803EB4303F5
:1043100005EBC3155035ECE740C5FF1FFDBFFFFFA0
:10432000A8D60100F0B52F4C6378022B89B037D0A6
:10433000032B2ED0012B02D000235B69FFDE2378F4
:1043400003EB430304EBC31303F59A735F699869A6
:10435000244D254B254908AA38444FF02D0E42F82C
:10436000040D0026CDF80CE044F2020C4FF0060ECE
:1043700005F64460049602968DE80050FFF734F885
:104380006378022B27D0032B1ED0012B0FD0766130
:10439000FFDE237803EB430304EBC313C433D5E7F9
:1043A000237803EB430304EBC3135033CEE72B789E
:1043B00003EB430305EBC31505F59A75079B6F6186
:1043C000DB1BAB6109B0F0BD2B7803EB430305EBBE
:1043D000C315C435F2E72B7803EB430305EBC31594
:1043E0005035EBE740C5FF1FFDBFFFFFB0D6010012
:1043F00038B50A4D2C783CB1012C08D1FFF792FF5B
:1044000028B100232B7038BDFFF728FF08B9002022
:1044100038BD01232B70204638BD00BFE0ACFF1F24
:10442000F0B5384C637889B000227F21022BADF8BB
:104430001820ADF81A103ED0032B30D0012B01D03C
:10444000138AFFDE207800EB400004EBC01000F57B
:104450009A70B0F91030B0F9127007930DF11A028A
:1044600006A9FDF7AFFE274DBDF91A2000920026E0
:104470002D210522BDF918300391019205F6446003
:104480000496029607AA2049FEF7AEFF6378022B36
:1044900030D0032B27D0012B19D03682FFDE2078B5
:1044A00000EB400004EBC010C430B0F91030B0F99C
:1044B00012700793D2E7207800EB400004EBC010A5
:1044C0005030B0F910300793B0F91270C6E72B786E
:1044D00003EB430305EBC31505F59A75079B6F8244
:1044E0002B8209B0F0BD2B7803EB430305EBC3151A
:1044F000C435F3E72B7803EB430305EBC3155035C5
:10450000ECE700BF40C5FF1FB8D60100F0B53A4C3C
:10451000637889B000227F21022BADF81820ADF816
:104520001A1040D0032B31D0012B01D0138AFFDEAB
:10453000207800EB400004EBC01000F59A70B0F951
:104540001070B0F912303B4407930DF11A0206A91E
:10455000FDF738FE284DBDF91A20009200262D21C6
:104560000522BDF918300391019205F644600496C6
:10457000029607AA2149FEF737FF6378022B33D052
:10458000032B2AD0012B1BD03682FFDE207800EBD4
:10459000400004EBC010C430B0F91070B0F9123014
:1045A0003B440793D1E7207800EB400004EBC010B8
:1045B0005030B0F91070B0F912303B440793C4E7A3
:1045C0002B7803EB430305EBC31505F59A75079BA1
:1045D0002F82DB1B6B8209B0F0BD2B7803EB43030A
:1045E00005EBC315C435F2E72B7803EB430305EB6A
:1045F000C3155035EBE700BF40C5FF1FC4D601000F
:1046000038B50A4D2C783CB1012C08D1FFF77EFF5C
:1046100028B100232B7038BDFFF702FF08B9002036
:1046200038BD01232B70204638BD00BFE0ACFF1F12
:104630002DE9F04F88469BB0D0F864120790BDF882
:1046400090A09DF894500B92994629B97A4B1B681B
:104650000D930D9BC0F86432002D00F0C780774B9E
:104660002E1F83FB0623A3EBE6760236F600B3B2D9
:10467000CAF13F069E424046A8BF1E4614F0C0FE47
:1046800000EB400047000437BFB241F2F4046C4B2A
:104690001859AF4233B228BF2F464FF0000B1A46CD
:1046A0000FFA8AF50A93036806950FFA89F10092CA
:1046B000CDF804B03AB21D6C099213460891069ADF
:1046C000A8475F4B012118590CF0C8FE5C4A5B4BB0
:1046D0001459033F83FB07230AF1040AB6B2A3EB84
:1046E000E7771FFA8AF30493F31F5D4609F1020985
:1046F000012205931AABA4F814B00FFA89F962826B
:1047000003EB070B2E46AA4609E0059BB3EBC20F4D
:104710002BDD56B3B5F5807F27D04A4B1C68049B30
:10472000A4F80E9003EBC50308EB060123823A467A
:104730000FA814F0D3FE0FA80BF82CAC14F060FEF9
:10474000236802465B680FA920469847204611F06F
:104750009BFE404614F054FEC01BF319864205F13F
:1047600002029EB205F10105CFD9354B0A9941F2FB
:10477000F404012218591E4603688DE80600069AC3
:10478000DD6C0899099BA847079B93F82E31002BF5
:104790003DD141F2F4032A4AD0580DF0CBFC41F24E
:1047A0004C53274AD0580EF039FB50B9224A079B88
:1047B0001268D3F864320E920B990E9A19448A4209
:1047C00011D941F2F4021E49099B88580A9A0568DA
:1047D000009200240194069A08992D6CA847079B23
:1047E0000120C3F864421BB0BDE8F08F404614F0CE
:1047F00007FE00EB40004700CAF13F063B1DC9F130
:104800007F05102E9FB2A8BF1026EDB23DE73059AC
:10481000079E96F83C41D6F83431B6F93221B6F904
:104820003011B6F93A510294B6F938418DE83000AA
:104830000CF0E0FBADE700BFC8DEFF1FABAAAA2A61
:1048400040C5FF1F34D6FF1F2DE9F0470E46017803
:104850009DF820800829044691464ED03C4AD0F865
:10486000E400D2F8A87DD2F8B41D1D46D2F8AC3DC4
:104870006366D2F8B03D27660127C4F8D430C4F887
:10488000D81084F8BC7092F8D8ADD2F8D41D0FF0CF
:10489000EBF8504613F0CCFCD4F8E420162310615A
:1048A0000021184684F87560237110F025F8002661
:1048B000102084F8780084F8E9902683314610F0BF
:1048C0001BF8A4F88C6084F8066184F8EC50284644
:1048D0000DB9BDE8F087022110F00EF884F8408190
:1048E000B8F1000F02D13846BDE8F087404639469E
:1048F00010F002F83846BDE8F087154BD3F8B81D24
:10490000D3F8C42DD3F8BC0DD3F8C03D21661027D1
:1049100000210D466066C4F8D430C4F8D82038466B
:1049200084F8756027710FF0E7FF384684F87870D7
:1049300084F8E990258329460FF0DEFF84F8EC50D7
:10494000A4F88C5084F806512846BDE8F08700BFD3
:1049500040C5FF1F2DE9F8430446884616460FF070
:10496000D1FF236AA06213B9E36A002B44D072B668
:10497000DFF8AC90254FD9F800103B682448A56AB1
:10498000E26ACB1A80FB0310D917C1EBA000062105
:1049900084F834101F49C5EB030EAA1A0B60236B71
:1049A000626285181C4AA06B7344A9B213600FF0B1
:1049B0004BF8A26B636AD26A002E62F30F05284699
:1049C0001FDDB040B340D9F800103A680B440244F0
:1049D000C9F800303A6013F02BFC414613F034FD67
:1049E0000E4913F031FD13F067FEA36A2062E36203
:1049F00062B60120BDE8F8832063E0621846BDE896
:104A0000F883E0D07642F040F340DCE7ECACFF1FE7
:104A10006766666658ACFF1FA0DDFF1F0000C04040
:104A20008CACFF1F10B50446022094F8711001F001
:104A300001010FF04DFF94F871100320C1F3400104
:104A40000FF046FF94F871100420C1F38001BDE817
:104A500010400FF03DBF00BF30B5104B83B00C4687
:104A60009C424FF000014FF07F02054608BFB0F9AD
:104A70001640ADF80410ADF8062048300DF10602DE
:104A800001A9FDF79FFBB5F96400844204DBB5F989
:104A90006600A042A8BF204603B030BDF1D8FFFF9A
:104AA00038B590F85C31032B36D8DFE803F00211FB
:104AB00004021A4838BD90F8CE3003F01F03072BCC
:104AC000B0F91A301DD0B0F98E1003FB01F104E0EB
:104AD000B0F91A10B0F98E30194490F85A301A46CD
:104AE00004466FF3461280F85A200430C3F3411590
:104AF000FFF7B2FF94F85A3065F3461384F85A3042
:104B000038BDB0F98E20064903FB02F381FB032177
:104B1000DB17C3EB6111E0E70049DEE7F1D8FFFFE7
:104B20001F85EB51012A08B545DD90F8563003F09A
:104B30001F031E2B48D8DFE803F0161D2216161699
:104B400016162716161616161010161616161631E5
:104B5000313939162218181818000B7880F8693086
:104B60004B7880F86830104608BD0B7880F85730D5
:104B7000104608BD0B88A0F86A30104608BD0B78B7
:104B800080F84930104608BD104BD3F8CC1DC164E5
:104B900093F9D03D80F85030104608BD0B7880F86E
:104BA00049304B7880F84B30104608BD0B7880F8C0
:104BB0004A30104608BD2221054811F0CFF90548BA
:104BC00011F062FC002008BD002008BD40C5FF1F99
:104BD000D4D6010068A1FF1F2DE9F84390F8445096
:104BE000574E584C002D08BF3446154614BF0A27AF
:104BF0000D277D2900F2A280DFE801F046A0A0A0E9
:104C0000A0A0A0A0A0A0A0A0A0A0A0A0A0A0A0A0A4
:104C1000A0A0A0A0A0A0A0A0A0A0A0A0A0A0A0A094
:104C2000A0A0A0A0A0A0A0A0A0A0A0A0A0A0A0A084
:104C3000A0A0A0A0A0A0A0A0A0A0A0A0A0A0A0A074
:104C4000A0A0A0A0A0A0A0A0A0A0A0A0A0A0A0A064
:104C5000A0A0A0A0A0A0A0A0A0A0A0A0A0A0A0A054
:104C6000A0A0A0A0A0A0A0A0A0A0A0A0A05D6C62F9
:104C700067717A80868A8E949A3F2A7880F85620C7
:104C80001D462846BDE8F88307EB4707033FDFF8DA
:104C9000B890A846064627442379617919F803306D
:104CA0002A463046FFF798FF0334A7420544F3D164
:104CB000C8EB0505E5E72A7880F848201D46E0E7BF
:104CC0002A7880F853201D46DBE72A88A0F8542074
:104CD0001D46D6E72A7880F852201D46D1E729786C
:104CE00090F8562061F304021D4680F85620C8E76C
:104CF000B5F90020A0F858201D46C2E7B5F90020FC
:104D0000A0F85A201D46BCE72A68C2651D46B8E7D0
:104D10002A6802661D46B4E7B5F90020A0F86420B1
:104D20001D46AEE7B5F90020A0F866201D46A8E7AD
:104D30001A462946BDE8F843FFF7F4BE0025A0E770
:104D4000B8CD01006CCD010058CD010010B58AB07E
:104D50000446242201A80FF061FB01AA2046242367
:104D60000021FFF739FF94F84430002B14BF0E20C8
:104D700018200AB010BD00BF012A08B53BDD90F82D
:104D8000563003F01F031E2B3ED8DFE803F0161D3C
:104D900022161616161616161616161610101616B3
:104DA00016161627272F2F1622181818180090F8F5
:104DB00069300B7090F868304B70104608BD90F861
:104DC00057300B70104608BDB0F86A300B801046A3
:104DD00008BD90F849300B70104608BD90F8493076
:104DE0000B7090F84B304B70104608BD90F84A306D
:104DF0000B70104608BD2221044811F0AFF804489A
:104E000011F042FB002008BD002008BDF8D60100CB
:104E100068A1FF1F2DE9F84390F84450604E614CA3
:104E2000002D90460ABF34460A270D277D2900F23F
:104E3000B380DFE801F046B1B1B1B1B1B1B1B1B108
:104E4000B1B1B1B1B1B1B1B1B1B1B1B1B1B1B1B152
:104E5000B1B1B1B1B1B1B1B1B1B1B1B1B1B1B1B142
:104E6000B1B1B1B1B1B1B1B1B1B1B1B1B1B1B1B132
:104E7000B1B1B1B1B1B1B1B1B1B1B1B1B1B1B1B122
:104E8000B1B1B1B1B1B1B1B1B1B1B1B1B1B1B1B112
:104E9000B1B1B1B1B1B1B1B1B1B1B1B1B1B1B1B102
:104EA000B1B1B1B1B1B1B15E73656C7A838A9197DA
:104EB0009DA4AB3F90F8562088F800201846BDE826
:104EC000F88307EB4707033FDFF8DC9006462744EB
:104ED00045462379617919F803302A463046FFF7B1
:104EE00099FF0334BC420544F3D1C8EB0500BDE88B
:104EF000F88390F8482088F800201846BDE8F88329
:104F000090F8532088F800201846BDE8F883B0F8E0
:104F10005420A8F800201846BDE8F88390F85220E5
:104F200088F800201846BDE8F88390F85620C2F3B0
:104F3000040288F800201846BDE8F883B0F958202C
:104F4000A8F800201846BDE8F883B0F95A20A8F860
:104F500000201846BDE8F883C26DC8F80020184646
:104F6000BDE8F883026EC8F800201846BDE8F88353
:104F7000B0F96420A8F800201846BDE8F883B0F91D
:104F80006620A8F800201846BDE8F8831A46414676
:104F9000BDE8F843FFF7F0BE0020BDE8F88300BF8E
:104FA000B8CD01006CCD010058CD0100F0B58BB03B
:104FB0000E4601AA242300210746FFF72BFF3146A6
:104FC0000246054601A80FF073FA97F844301848D6
:104FD000002B4FF00D0114BF0E24182410F0BEFF5B
:104FE00000230A223978134811F074FA022112487A
:104FF00010F0B4FF31460F4811F0ACFA01210F4810
:1050000010F0ACFF29460B4811F0A4FA01210B481F
:1050100010F0A4FF2146074811F09CFA054811F052
:1050200033FA0A200FF090FC20460BB0F0BD00BF11
:105030001CD7010068A1FF1F9CDB010064D40100A4
:10504000012A08B524DD90F852300F2B29D8DFE86B
:1050500003F01A1A0808100E0E0E0E0E0E0E0E0E8B
:105060000E0E0B7880F845304B7880F847301046AC
:1050700008BD0D4BD3F8CC1D816493F9D03D80F869
:105080004C30104608BD0B7880F84630104608BDFD
:105090002221064810F062FF054811F0F5F90020C2
:1050A00008BD002008BD00BF40C5FF1FD4D60100C9
:1050B00068A1FF1F80292DE9F843144644D00AD97E
:1050C000822932D025D3832935D11A462146BDE81D
:1050D000F843FFF7B5BF7E2930D020D859BB1D4D0E
:1050E000DFF874900646174605F1120814460123AE
:1050F0007E2103E02B79697919F803302246304686
:10510000FFF7D8FF033545450444F3D1E01BBDE864
:10511000F8831288A0F850201846BDE8F88312786A
:1051200080F84E201846BDE8F883127880F85220A7
:105130001846BDE8F8830020BDE8F883127880F8AF
:1051400044201846BDE8F883127880F84F201846AE
:10515000BDE8F883A0D1010058CD010010B584B09E
:105160000446102268460FF059F96A46204610237B
:105170000021FFF79FFF082004B010BD70B5054661
:1051800008460E460FF030F985F85C01701C0FF0F0
:105190002BF985F86001B01C0FF026F905F5B07405
:1051A000014620460BF08CFAF01C0FF01DF9014669
:1051B0002046341D0BF088FA214605F1EC00FFF77C
:1051C000CDFF04442146281DFFF7C0FD04442146BD
:1051D00005F17800FFF7BAFD23189B1B2A780349D5
:1051E000034811F069F9322070BD00BF2CD70100CF
:1051F00068A1FF1F012A10B514DD90F852400F2C52
:1052000017D80123A3404FF6F0741C409CB913F04B
:105210000C0F12D113F003030BD090F846300B7033
:10522000104610BD2221094810F098FE084811F0E0
:105230002BF9002010BD104610BD90F845300B70C2
:1052400090F847304B70104610BD00BFD4D6010017
:1052500068A1FF1F80292DE9F843144644D00AD9DC
:10526000822932D025D3832935D11A462146BDE87B
:10527000F843FFF7BFBF7E2930D020D859BB1D4D62
:10528000DFF874900646174605F11208144601230C
:105290007E2103E02B79697919F8033022463046E4
:1052A000FFF7D8FF033545450444F3D1E01BBDE8C3
:1052B000F883B0F8502022801846BDE8F88390F8B3
:1052C0004E2022701846BDE8F88390F852202270D4
:1052D0001846BDE8F8830020BDE8F88390F8442024
:1052E00022701846BDE8F88390F84F2022701846C7
:1052F000BDE8F883A0D1010058CD01002DE9F041AF
:1053000084B00F4610236A4600218046FFF7A2FFB3
:10531000184C194D02460646394668460FF0C8F843
:105320000E21164810F01AFE00230A2298F80010E9
:10533000204611F0CFF80221114810F00FFE394637
:10534000204611F007F92846012110F007FE3146EA
:10535000204611F0FFF82846012110F0FFFD08213A
:10536000204611F0F7F8204611F08EF8082004B01E
:10537000BDE8F08168A1FF1F64D401004CD7010093
:105380009CDB0100F0B583B002AE90F85C3106F80A
:10539000013D05460F46304601220FF089F895F889
:1053A00060318DF807303046791C01220FF080F80B
:1053B00095F862318DF807303046B91C01220FF0A4
:1053C00077F83C1D95F863318DF80730012230469F
:1053D000F91C0FF06DF8214605F1EC00FFF78EFF88
:1053E00004442146281DFFF7E1FD0444214605F150
:1053F0007800FFF7DBFD13210444164810F0AEFDE2
:1054000000230A222978144811F064F80221134875
:1054100010F0A4FD3946104811F09CF8E61B01215C
:105420000F4810F09BFD31460B4811F093F8012115
:105430000B4810F093FD2146074811F08BF8064801
:1054400011F022F82B78082B0CBF3046322003B025
:10545000F0BD00BF5CD7010068A1FF1F9CDB01000D
:1054600064D4010070B5FA2982B00C4605463DD3DC
:10547000FB2925D9FC2939D1234E2449002385F85D
:105480002030142206F6847014F028F8204B1B6894
:10549000019341F2840141F2880342F21070019AB3
:1054A0007050F250200240F00F0010F011FAAB6A79
:1054B0005B6D1868036821461B68984702B070BD91
:1054C000114E1449012385F82030142206F6847009
:1054D00014F004F80E4B1B68009341F2840141F272
:1054E000880342F21070009A7050F25004F10803E1
:1054F000DBB2072BE2D8012202FA03F313F0DD0F2F
:10550000D0D102B070BD00BF40C5FF1F7CD70100E5
:10551000C8DEFF1F70D7010038B504460FF0F2F95E
:10552000236B226AC31A9A42054616D3636AE26A5B
:1055300003EB4303AD1AAB420ED20C4D0C480D49A0
:105540000D4A00232B602362E3622363636284F8C5
:10555000343003600B60136038BDF8210748FFF753
:1055600081FF226B236A13442363DFE7A0DDFF1F63
:1055700058ACFF1F8CACFF1FECACFF1FECD5FF1F1E
:10558000F0B5304C6378022B89B036D0032B2DD088
:10559000012B02D00023DB7BFFDE237803EB4303E8
:1055A00004EBC31303F59A73DB7B264D264908AA47
:1055B000C3F3830301332D2742F8043D0026012362
:1055C00003970827019305F6446004960296009716
:1055D000FDF70AFF6378022B2CD0032B23D0012B7D
:1055E00012D0F37B66F38503F373FFDE237803EBBE
:1055F000430304EBC313C433D6E7237803EB43031D
:1056000004EBC3135033CFE72B7803EB430305EBD5
:10561000C31505F59A75079BEA7B013B63F3850289
:10562000EA7309B0F0BD2B7803EB430305EBC31518
:10563000C435F0E72B7803EB430305EBC315503576
:10564000E9E700BF40C5FF1F38D401002DE9F84F3E
:105650008A46002961D0404BDFF820813F4AC8F8D4
:10566000102093E8030000230A0CC8F80000A8F8F3
:10567000041088F8062088F814300127384DC82413
:1056800005F1690B07E0BAF1000F36D10735013497
:10569000AB45E4B220D02B78002BF4D07E0006EB93
:1056A000070908EBC90948460622294613F016FFE8
:1056B000BAF1000F2BD12B4BC9F810303E4408EB48
:1056C000C6060735002301373475AB4504F10104E4
:1056D000FFB2B371E4B2DED1234B244C93E8070050
:1056E00007EB470308EBC308A8E803000023A8F86A
:1056F000002063713846BDE8F88F1D4A7E0092E8AD
:105700000300F31908EBC30248F833009180F31942
:1057100008EBC303174A1A61D0E7DFF860800E4A2E
:1057200088F8141092E80300134BC8F800000E0C20
:10573000A8F8041093E8070008F1180303C3094D03
:10574000064CC8F8285088F8066088F82CA0C8F8DD
:1057500010401A80022791E798D70100CD5D000024
:1057600019D3FF1FD55E00008CD7010014C0FF1FA6
:1057700084D70100155E0000A0D70100B0B6FF1F5E
:105780002DE9F84F0021FFF761FFDFF870B0DFF877
:105790006090DFF86C80824605460126002705EB05
:1057A000450409EBC404204626755946C4F8108008
:1057B0000622013613F092FE0135302EA771EDB2AC
:1057C0000BF1070B0A4B4FF00004E8D1094A0A4DD0
:1057D00007CA0AF12F0A5FFA8AFA0AEB4A0603EBB4
:1057E000C60303C31A806C715046BDE8F88F00BF32
:1057F000B0B6FF1FACD7010014C0FF1F8FD201004D
:10580000D55E0000324B2DE9F04799424FF000047D
:10581000824644614DD02F4B99420E4650D0A0464F
:10582000DFF8B89000E0013430460BF0A9F884426C
:105830002146304618DA0BF08BF8037D002BF2D0AE
:10584000214630460BF084F807460FCF08EB480599
:1058500009EBC5050FC597E8030008F1010885E8C5
:1058600003005FFA88F8DEE730460BF089F801465E
:1058700030460BF06DF805460FCD08EB480409EBF8
:10588000C4040FC495E8030084E80300124B727946
:105890005A71FF2201218AF8632283F804808AF872
:1058A00062125046C3F800900B49BDE8F0470BF078
:1058B00023B9FFF765FFDFF82490074B8046E8E740
:1058C0000121FFF7C3FEDFF81490034B8046E0E7A9
:1058D000B8DAFF1F60B4FF1F14C0FF1FB0B6FF1F70
:1058E00030B5594C2378082B83B073D002226270F4
:1058F00003EB430304EBC31393F85E3003F01F0381
:10590000182B56D9042151480BF0DAF806214F48DC
:105910004D4D0BF0D5F807214C480BF0D1F808217C
:105920004A480BF0CDF8092148480BF0C9F80A2184
:1059300046480BF0C5F80B2144480BF0C1F80C2188
:1059400042480BF0BDF8237803EB430304EBC31389
:1059500093F85E1001F01F0108294DD001F11203E8
:1059600003F01F03012B59D9012937D069B3192935
:105970002BD00E2135480BF0A3F8D4F8602ED4F8C4
:105980005C1E41F2F4030025E058C2F140031BB253
:1059900004688DE82800C1F1800312B209B2246CBA
:1059A0001BB2A04729492A48FFF72CFF012003B06A
:1059B00030BD0121274A99400A400AB9002BA1D1E4
:1059C000042122480BF060F8A0E70E211F480BF0DD
:1059D0005BF8D2E76278012A8AD8E7E70B211B48F7
:1059E0000BF052F8237803EB430304EBC31393F853
:1059F0005E1001F01F01B9E714480BF045F82B7851
:105A000003EB430305EBC31595F85E1001F01F018E
:105A100001F1120303F01F03012BA5D80C210B4841
:105A20000BF032F80A2109480BF02EF8092107483B
:105A30000BF02AF8237803EB430304EBC31393F82A
:105A40005E1001F01F018FE740C5FF1FDCDBFF1F69
:105A500084D3FF1F001FFE01FFF742BF054B1A78DA
:105A600002EB420203EBC213002283F86021FFF72E
:105A700037BF00BF40C5FF1F10B50D4C207800EBAD
:105A80004000C0012318184693F85E10C43001F09E
:105A90001F01FCF703FC237803EB430304EBC3145F
:105AA000012384F86031BDE81040FFF719BF00BF43
:105AB00040C5FF1F08B50948037803EB4303DB012A
:105AC000C2181046022382F86031C4300721FCF767
:105AD000E5FBBDE80840FFF703BF00BF40C5FF1F5F
