:1000000000800020BD010000D58301008D83010028
:100010008D8301008D8301008D8301008D8301009C
:100020008D8301008D8301008D830100D583010044
:10003000D58301008D830100099F01000D9F010000
:10004000D5830100D5830100D5830100D58301004C
:10005000D5830100D5830100D5830100D58301003C
:10006000D5830100D5830100D5830100D58301002C
:10007000D5830100D5830100D5830100D58301001C
:10008000D5830100D5830100D5830100D58301000C
:10009000D5830100D5830100D5830100D5830100FC
:1000A000656E0100716E0100D5830100D5830100EA
:1000B000D5830100D5830100D5830100D5830100DC
:1000C000D5830100D5830100D5830100D5830100CC
:1000D000D5830100D5830100D5830100D5830100BC
:1000E000D5830100D5830100D5830100D5830100AC
:1000F000D5830100D5AB0100D5830100D583010074
:10010000D5830100D5830100D5830100D58301008B
:10011000D5830100D5830100D5830100D58301007B
:10012000D5830100D5830100D5830100D58301006B
:10013000D5830100D5830100D5830100D58301005B
:10014000D5830100D5830100D5830100D58301004B
:10015000F9A001000DA1010021A1010035A10100BC
:10016000D5830100858A0100D5830100D583010074
:10017000D5830100D5830100D5830100D58301001B
:10018000D5830100D5830100D5830100D58301000B
:10019000D5830100D5830100D5830100D5830100FB
:1001A000D5830100D5830100D5830100D5830100EB
:1001B000D5830100D5830100D5830100564B4CF255
:1001C000205210B51A804DF628121A8000BF00BFC9
:1001D00018F004F9514B4FF010621A60504A9A60BF
:1001E000504ADA60504A136813F4807304D14F49BF
:1001F0000B604FF4A85313604D4B1A78110703D5C9
:100200001A7842F008021A704A4B4B492A221A7097
:100210004A4A4B4B8B4204D252F8040F43F8040B6A
:10022000F8E7484B484900228B4202D243F8042B9E
:10023000FAE74649464A002352F8230041F82300D2
:1002400001336F2BF8D1434B434A802103F8011B44
:100250009342FBD1414B3D4A1A60414B8A221A70AE
:10026000A3F5805324225A70A0221A709A7992071B
:10027000FCD59A79D406FCD43A4A937903F00C035E
:10028000082B384BF9D103221A7140225A719A79FE
:100290009006FCD5334A9179324B4906FBD5324A58
:1002A000324911600221516020221A709A7902F0BD
:1002B0000C020C2AFAD12E4B2E4A1A602E4B2F4AD2
:1002C0001A6000225A60072243F8042C2C4AC3F813
:1002D0000C2D62B618F07CFA144B1B68DA0705D5B2
:1002E000284818F0D9F9284B284A1A60284B1B785F
:1002F0005B0609D5244C254B22689A4204D121483B
:1003000018F0CAF9002323601BF04CFD18F06CF8BC
:100310001AF076F8FEE700BF0E200540308004405A
:10032000823F04000100002B10D0034014D0034092
:1003300002D0074000E0074098B8FF1FEC4C0200D5
:10034000308CFF1F98B8FF1F4CF4FF1F0082FF1F67
:100350000000000000E400E05FE400E008ED00E0E1
:100360000050064000400640448004400000030165
:1003700004800440C010050014E000E0FF76010096
:1003800000002020F5DA605F1CE00340A5C3945A0A
:1003900000F00740FFFFFFFFFFFFFFFFFFFFFFFF32
:1003A000FFFFFFFFFFFFFFFFFFFFFFFFFFFFFFFF5D
:1003B000FFFFFFFFFFFFFFFFFFFFFFFFFFFFFFFF4D
:1003C000FFFFFFFFFFFFFFFFFFFFFFFFFFFFFFFF3D
:1003D000FFFFFFFFFFFFFFFFFFFFFFFFFFFFFFFF2D
:1003E000FFFFFFFFFFFFFFFFFFFFFFFFFFFFFFFF1D
:1003F000FFFFFFFFFFFFFFFFFFFFFFFFFFFFFFFF0D
:10040000FFFFFFFFFFFFFFFFFFFFFFFFDEF9FFFF23
:1004100010B5054C237833B9044B13B10448AFF33E
:1004200000800123237010BD98B8FF1F000000005A
:10043000E84C0200084B10B51BB108490848AFF35F
:1004400000800848036803B910BD074B002BFBD0A0
:10045000BDE81040184700BF000000009CB8FF1F17
:10046000E84C020098B8FF1F0000000090F8392007
:1004700090F83800101A704790F8383090F839200A
:100480009A4205D95A1C034480F83820187E7047D8
:100490004FF0FF30704700BF704700BF38B53C4C8D
:1004A000D4F8281CD4F8240C10F03AFE6378227893
:1004B000022B41D0032B2AD0012B08D0022B50D085
:1004C000032B55D0012B5AD000231B7CFFDE4FF4A9
:1004D000A47303FB024303F5867319464FF4A47516
:1004E00005FB02441D7C94F81C2182F00402C2F337
:1004F000800262F382051D740B7C13F0040F254B00
:1005000014BF596819681CF02DFA012038BD4FF44A
:10051000A47303FB0243A83319464FF4A47505FBEB
:1005200002441D7C94F8B82082F00402C2F38002D9
:1005300062F382051D74DFE74FF4A47303FB0243EB
:10054000403319464FF4A47505FB02441D7C94F812
:10055000502082F00402C2F3800262F382051D740F
:10056000CAE74FF4A47101FB024140310023E9E7DF
:100570004FF4A47101FB0241A8310023CDE74FF4F1
:10058000A47101FB024101F586710023A6E700BFBB
:1005900070D3FF1F7C91FF1F064A074908B51378E7
:1005A000D1F8CC0E83F001031946137015F07EFECE
:1005B000012008BD08C1FF1F70D3FF1F70B5294C73
:1005C0000546D4F8C80E16F0B5FDB4F88E3BB4F865
:1005D0008C2B181A83B29342A4F88E3B2CD014D8DB
:1005E0006A69002AC4BF02F1FF326A61AA685279BF
:1005F000022A27D04FF0FF30FF22A4F88C3B0121C4
:1006000085F8632285F8621270BDA8686E6910F0E3
:100610009FFD2B69C01A864202DA6B6901336B6158
:10062000AB685B79022B09D123780E4A062B12D9CD
:10063000B2F88E3BA4F88C3B002070BDB4F88E3B22
:100640000120D9E722780749002AF3D0013A0A703D
:100650004FF0FF30D0E7013313700120B2F88E3B2A
:10066000CAE700BF70D3FF1F024BD3F8C80E16F0C5
:10067000A5BD00BF70D3FF1F10B5044600F56C6028
:1006800019F018FD04F6B86019F014FD204610BDED
:10069000254BB3F9003003F16402904270B504DADF
:1006A000643B984201DD022070BD204BB3F900305D
:1006B00003F16402904204DA643B984201DD0320B6
:1006C00070BD1B4B1D680446B5F94E00C0F13C00DF
:1006D0001BF0CCF80646B5F950001BF0C7F80146F0
:1006E00030461BF0CBF90646B5F954001BF0BEF8B6
:1006F000014630461BF00EF90646B5F952001BF0D4
:10070000B5F8014630461AF0FDFF1BF0C9FA00B2F9
:1007100000F164039C4205DA64388442D4BF0020AF
:10072000012070BD002070BD84B9FF1F86B9FF1F76
:10073000ACCDFF1FF8B5427A05460E4602B3012341
:100740000A701C46A97A89B1C7291CD93831C9B2A7
:10075000164FC1EBC1010F44F01839461CF002F9E5
:1007600038461CF06DF92044C4B22346EA7A1AB127
:100770000134E4B2F25423460022F2542046F8BD7C
:1007800013461446DEE70A4FC1EBC101F0183944A5
:1007900006221CF0C3F9A87AC0EBC00038441CF054
:1007A0004FF92044C4B22346E0E700BF21DFFF1F1A
:1007B000DC0302002DE9F0411A4D41F2F82406460F
:1007C000285916F055FC38B3B3685B79022B15D065
:1007D00041F2F827DFF84C80E85916F04DFC04464A
:1007E00010B92046BDE8F08158F8070016F0ECFB80
:1007F0000023C6F854322046BDE8F081D6F85432C2
:10080000B3F57A7FE4D90124002385F85A4D2046B8
:10081000C6F85432BDE8F081285916F01DFCC6F820
:100820005402D1E770D3FF1F0120704701207047A9
:100830002DE9F041174C04F59C573988C9B141F2B4
:100840003E364FF6FF75A25BAA4219D0124B1349F0
:100850001868036841F2FE285B68984734F808205E
:10086000A35B0F490F4819F09DFCA5533D80BDE8DF
:10087000F081094B18680368BDE8F0411B68184710
:100880000D21094819F0DAF90648BDE8F04119F0E0
:1008900071BC00BF70D3FF1FEC8DFF1F6EE6FF1F02
:1008A000D007020014AEFF1FC00702002DE9F04F71
:1008B0002F4D304FD5F8CC3E83B01A6800264FF04C
:1008C0001A080196CDF80080146C82462D22184635
:1008D00031467B23A047D5F8CC0E012114F074FDDE
:1008E000D5F8CC4E24492368A6822A224FF001096C
:1008F0004FF0040B5B682282A4F812900822A4F83F
:100900000EB020469847204619F034FC1B4BD5F812
:10091000CC4E53F82AA0A4F80EB0322323825046BE
:100920001CF08EF82368024651465B6820469847C3
:10093000204619F01FFCD5F8CC0E03688DE80003A3
:1009400025223146DC6C7B23A04717F0D1FE3B68A3
:1009500047F22F52C01A904206D9D5F8CC0E15F0A6
:100960009FFB17F0C5FE386003B0BDE8F08F00BFF5
:1009700070D3FF1F6CD3FF1FF0070200808EFF1F94
:100980002DE9F04390F963325D4E0133044687B0A0
:100990004FF00101D6F8CC0E5CD014F015FD25699E
:1009A0006369A0681D4410F0D3FB854280F2A280E9
:1009B000276963691F4494F96382E3689845D6F810
:1009C000CC3E07BF002101220121002202AD598245
:1009D0009A8229464246204610F01EFC28461CF00A
:1009E0002FF80D2807DC28440DF11602202300F80B
:1009F000013B9042FBD16169E369D6F8CC6EA269F4
:100A0000C1EB0808093303EBC8034FF000098DF868
:100A100016902846F28133821CF012F833680246A1
:100A20005B68294630469847304619F0A3FB94F896
:100A3000633201335BB2BB4284F8633202D007B049
:100A4000BDE8F083FF2384F8629284F8633207B034
:100A5000BDE8F08314F0B8FCA368D6F8CC2E1F686C
:100A60000021012050829182184610F071FB00B2E3
:100A700000EB400102AD07EBC1010E2228461CF03D
:100A80004DF828461BF0DCFF0D2807DC28440DF14B
:100A90001602202300F8013B9042FBD1D6F8CC7E11
:100AA000B4F91C30A26900218DF816102846FA818D
:100AB0003B821BF0C5FF3B68024629465B6838460F
:100AC0009847384619F056FBE269D6F8CC0EA16972
:100AD0000568083212B201238DE80C0001F15403BD
:100AE000AD6C1BB209B2A847636984F8633207B0E2
:100AF000BDE8F083A06810F02BFB07465BE700BF62
:100B000070D3FF1F2DE9F04FBB4CBB4E6378012B18
:100B1000BA4B1B688FB018698CBF93F9407093F97A
:100B20003C701AF09FFEB6491AF0A8FF0146B5487E
:100B30001AF0A4FFB4491AF0A1FF8046D4F8CC0EF5
:100B400000250368019540220092D3F840902A4680
:100B500080232946C8470121D4F8CC0E14F034FC78
:100B6000D4F8CC0EA9490368858201225B684282D1
:100B7000C5810322058298472178D4F8CC0E013133
:100B800019F05EFB6378022B00F05E81032B00F00E
:100B90005381012B00F0A7809D4ED4F8CC0E336812
:100BA0000122002B40F09B80438282820368994996
:100BB0005B68062298473368D4F8CC5E012B00F0BE
:100BC0001681012200236A82AB822B6892495B68FE
:100BD000DFF824A2042228469847284619F0CAFACA
:100BE000D4F8CC5E8D492B684FF000090C224FF0F1
:100BF000010B5B682A82A5F812B01222A5F81490A6
:100C0000A5F80E9028469847284619F0B3FAD4F86C
:100C1000CC0E14230382A0F80E90022114F0D4FB12
:100C20003368022B67D00537D4F8CC5EFAB20120C6
:100C300000210A2A6882A9826BD9022B7AD007AFD9
:100C40002B6877495B684FF001094FF0000A0222D8
:100C5000A5F81290A5F814A02846984740461AF027
:100C600027FA0B4602466F4938461BF055FE33689B
:100C7000D4F8CC5E032B00F08980012200236A8225
:100C8000AB8238461BF0DCFE2B6802465B683946B7
:100C900028469847284619F06DFA3368032B7FD011
:100CA0000121D4F8CC0E604D534E14F08DFBD4F8D6
:100CB000CC3E002201219A82598217F019FD2B683F
:100CC00047F22F52C01A904206D9D6F8CC0E15F032
:100CD000E7F917F00DFD28600FB0BDE8F08F002395
:100CE0004282838262E7D6F8CC0E5049036806221E
:100CF0005B68984750E74E4A1278002A93D0053730
:100D0000DAF8CC5EFBB20A2BA5F81290A5F814B065
:100D100095D8484B53F8279048461BF091FE2B6816
:100D200002465B682846494698473368D4F8CC5E4B
:100D3000022B84D13E4B1A78002A80D13D4B0DF115
:100D40001A0C53F82710CDF808C00DF1180E0DF14C
:100D5000160307AF28468DE808400397142314F0C4
:100D600073FCD4F8CC0EBDF91C10056800914FF04F
:100D7000010ECDF804E0ED6CBDF91A30BDF9182074
:100D8000BDF91610A847D4F8CC5E59E7284B1B785C
:100D9000002B3FF472AFA5F812A0A5F8149070E7ED
:100DA000234B1B78002B7FF47BAF0DF11A0606ADA9
:100DB0000DF1160205ABD4F8CC0E03963946029518
:100DC000019200933C22142314F03EFCD4F8CC0E84
:100DD000BDF91A600568009601260196BDF9183024
:100DE000BDF91620BDF91410ED6CA84758E7002294
:100DF000AB826A82E9E600BF70D3FF1FACCDFF1F54
:100E000000007A4400606A470000C041FC0702000D
:100E100028B9FF1F18080200200802002808020055
:100E2000140802003C0802003CC1FF1F0008020039
:100E3000449BFF1FF8020200D6F8CC0E0649036857
:100E400006225B689847A7E6D6F8CC0E03490368EC
:100E500006225B6898479FE6100802000808020017
:100E600070B5044608460D461BF0EAFD23680246AD
:100E7000294620465B68BDE8704018472DE9F04FD1
:100E8000002387B00122437000F68C33027000F11A
:100E90000408049305904FF00003002688F80C30F6
:100EA0004FF61943A8F80A30C8F81060C8F8146063
:100EB000C8F81860C8F81C60C8F82060C8F824603A
:100EC00088F8286088F80460A8F80660A8F8086028
:100ED000382019F09DFA4FF081474FF001094FF487
:100EE0008065076100270762456032463146F04B56
:100EF00080F8246080F81490044616F0C1FD98F83C
:100F00005030C8F84C6003F0800366F3C71388F8CC
:100F10005030E84BC8F834304FF03C0388F83E308E
:100F20004FF0280388F83F304FF07E53C8F8403028
:100F30004FF20103A8F858304FF07F0388F85E3075
:100F400088F85F304FF47A73A8F8603040F2FF31D0
:100F5000D94B23614FF0000261F38F124FF0780AF2
:100F600040F6FF774FF0FF0B4FF6FF73A8F84C20C9
:100F7000C8F82C40A8F85260A8F85A60A8F854A005
:100F8000A8F85CA0A8F8567088F868B0636088F884
:100F9000316088F8309088F8386088F83C9088F89C
:100FA0003D9088F8446088F8456088F8466088F885
:100FB000476088F84890382019F02AFA4FF0814E9F
:100FC000C0F810E04FF0000EC0F820E04A4631466D
:100FD0004560BA4B80F8149080F82460044616F0FF
:100FE0004FFD4FF61943A8F872304FF08043C8F810
:100FF000644088F86960C8F87860C8F87C60C8F810
:101000008060C8F88460C8F88860C8F88C6088F888
:10101000906088F86C60A8F86E60A8F8706088F836
:1010200074602361A8F808606760382019F0F0F94F
:101030004FF0814EC0F810E04FF0000EC0F820E0F5
:101040004560324631469A4B80F8149080F824600F
:10105000044616F015FD40F2FF314FF0000261F337
:101060008F12944998F8B830C8F89C104FF03C01A2
:1010700088F8A6104FF0280188F8A71003F0800325
:101080004FF07E51C8F8A81066F3C7134FF2010164
:10109000A8F8C01088F8B8304FF07F014FF6FF7302
:1010A00088F8C61088F8C71063604FF47A71824BD5
:1010B000C8F8B460C8F89440A8F8C810A8F8B420DC
:1010C00088F8996088F8989088F8A06088F8A490CB
:1010D00088F8A59088F8AC6088F8AD6088F8AE60B4
:1010E00088F8AF6088F8B090A8F8BA60A8F8BCA0FB
:1010F000A8F8BE70A8F8C260A8F8C4A088F8D0B05C
:101100002361382019F084F94FF0814EC0F810E0C7
:101110004FF0000EC0F820E04A4631464560674B6C
:1011200080F8149080F82460044616F0A9FC4FF66D
:101130001943A8F8DA304FF08043C8F8CC40A8F83B
:10114000706088F8D160C8F8E060C8F8E460C8F85A
:10115000E860C8F8EC60C8F8F060C8F8F46088F897
:10116000F86088F8D460A8F8D660A8F8D86088F845
:10117000DC6023616760382019F04AF945604FF060
:1011800081450561002532463146494B80F814906F
:10119000056280F82460044616F072FC4FF00003EC
:1011A00066F3C503C8F8406188F84031B8F84011CB
:1011B00098F83C31C8F8186140F2FF304FF0000257
:1011C00060F38F1160F38F124FF6FF7060603A4842
:1011D00020613848C8F804014FF03C0088F80A0143
:1011E0004FF0280088F80B0166F301034FF07E50A2
:1011F00088F83C31C8F8FC4088F8016188F8009113
:1012000088F8089188F80991C8F80C0188F81061ED
:1012100088F8116188F8126188F8136188F81491D0
:1012200088F820B188F81C6188F82461C8F8286122
:10123000C8F8346188F8386188F84661A8F8401128
:10124000A8F8182188F800B088F84561049B88F850
:10125000446108F5A47898457FF41DAEDDF814A02C
:1012600017499AF8AA3BCAF8AC1B4FF0FF32AAF80C
:101270008C2B4FF47A744FF000028AF8902BAAF866
:10128000A24B4FF201024FF07E5443EA090347F2AA
:101290003050AAF8942BAAF89C2BAAF8A02BCAF8D5
:1012A000A44B11224FF000048AF8AA3B0AE000BFC9
:1012B00017B7D1389F860100000060420AD7233C4F
:1012C00052491D3A31468AF8A84BAAF88E0B8AF883
:1012D000B02BAAF8927B6922AAF8966BAAF8987BA1
:1012E000AAF89A7BAAF89E7B0AF6B1301BF0C0F8E8
:1012F0000AF61C400FF02EFF844B8AF83C4C8AF80B
:101300004A4DCAF81C3CFB223146CAF8406DAAF887
:10131000486DCAF85C6D0AF556601BF0A9F8072401
:101320004FF0000336217A4A8AF8743E0AF6936039
:101330008AF8753E8AF87C3E8AF87E3E8AF85A3DE5
:101340008AF85B3D8AF8B03ECAF8341CCAF8AC2E65
:10135000CAF85C6ECAF8606ECAF8646ECAF8686E45
:10136000CAF86C6ECAF8706ECAF8786E8AF87DBEDC
:101370008AF87FBECAF8806ECAF8306CCAF8386C3A
:101380008AF8599D8AF8A49ECAF8A86E7F23CAF8E5
:101390002C4C01460AF6836202F8013F824201F8B2
:1013A000013FF9D141F2B421002241F2B82441F2C7
:1013B000BC200AF596534AF8012041F2F626802116
:1013C00041F2F725CAF8B82ECAF8C02E8AF8F02ED6
:1013D0000AF804204AF8002096248AF8BC1E8AF8ED
:1013E000C41E4FF415701A604FF4BA6140F21243F4
:1013F0000AF806200AF8052040F28E7640F64C15D1
:10140000CAF8D04ECAF8D40E40F60A3440F6C840A6
:10141000CAF8D83ECAF8DC1E0AF596530AF5975169
:10142000CAF8E06ECAF8E45ECAF8E84ECAF8EC0EF4
:101430000333153103F8012F8B424FF00004F9D12B
:1014400041F2FC260AF5975301210AF806100AF525
:101450009A5041F2883659770AF59C554FF6FF713C
:101460005522A3F85E10A0F84010C3F8A42021462E
:101470000AF8064005F109004FF480721AF0F8FFEF
:1014800021464FF4806205F586701AF0F1FF942032
:1014900018F0BEFF054615F043FFCAF8B45E2420DD
:1014A00018F0B6FF0423072206218DE81800054630
:1014B0004FF0FF3315F0EAFDCAF8C85E102018F0AF
:1014C000A7FF044615F04EFD41F2F82311484AF8F3
:1014D000034015F013F80E210E4815F077F864203C
:1014E00018F096FF0C4B0393092108220A238DE87C
:1014F0000E00084B40228021044614F061F950464A
:10150000CAF8CC4E07B0BDE8F08F00BFCC16020081
:101510002CEDFF1FF0ABFF1F00127A0070B5064ED6
:1015200041F2F825705915F0A7FD044610B1705925
:1015300015F04AFD204670BD70D3FF1F38B5144C1E
:101540000546D4F8C80E15F0F5FDB4F88E3BB4F896
:101550008C2B181A83B29342A4F88E3B15D00D4AF7
:1015600011680AD80029CCBF01F1FF3100211160B8
:101570004FF0FF30A4F88C3B38BDA942B8BF013111
:1015800011600120A4F88C3B38BD002038BD00BF9D
:1015900070D3FF1F28B9FF1F2DE9F04FDFF87492B9
:1015A000DFF87482D9F8CC0E8FB000240368019460
:1015B000402200921D6C224680232146A847D9F87C
:1015C000CC0E012113F000FFD9F8CC0E8549036839
:1015D000848201255B68C481082204824582984781
:1015E00099F80010D9F8CC0E294418F029FED9F842
:1015F000CC0E7D49036807225B689847D8F8000045
:10160000002800F0D7801AF031F94FF07C511AF021
:1016100081F919F04DFDD9F8CC4E009502460B46E4
:10162000204618F015FED9F8CC4E704923682A469A
:101630005B6820469847204618F09CFD00230693DF
:101640006B4B07930E230593059B079E043B1BB230
:101650000493069B1D4603EB4303039300240127D9
:10166000039BD8F80020D9F8CCAEEB189A4200F0D2
:101670009A804FF00003AAF81270AAF814300FFAFB
:1016800084FBBDF81030AAF8103009A8AAF80EB0F3
:10169000002D00F09B801BF0D3F9DAF800300246F1
:1016A0005B6809A950469847504618F063FD3378A7
:1016B000002B6CD11E34A4B2782C06F1010605F182
:1016C0000105CDD1059B069A09339BB20593079B73
:1016D00001320433052A06920793B5D1D9F8CC0E0E
:1016E00044490368444D5E68012400233722028286
:1016F000448204228382C381B047404BD9F8CC0E88
:10170000196818F09DFDD9F8CC0E3D4903682246B2
:101710005B6898472968D9F8CC0E18F091FDD9F884
:10172000CC0E3749036822465B689847354B2868DA
:101730001D68B5F90430C01A1AF098F80646B5F9D4
:1017400006001AF093F8014630461AF097F92E4930
:101750001AF0E0F819F0ACFCD9F8CC5E022602468B
:101760000B460096284618F073FDD9F8CC5E1F4949
:101770002B6822465B6828469847284618F0FAFCF2
:10178000D9F8CC0E14F08CFC0FB0BDE8F08FD9F86E
:10179000CC0EBDF9142003680097D3F83CA059463D
:1017A0001823D04786E74FF00003AAF81230AAF8B2
:1017B000147064E7D9F8CC4E1449236820465B685E
:1017C00003229847204618F0D5FC37E7DAF80030B6
:1017D0000F495B68042250469847504618F0CAFCEF
:1017E00068E700BF4408020050080200C425020058
:1017F00020BBFF1F5C080200B898FF1FE093FF1F8B
:1018000064080200ACB9FF1F000020415808020024
:101810002008020070D3FF1F28B9FF1F2DE9F04FE9
:10182000994B9A4C9A4A1B681168D4F8CC0EB3F9BC
:1018300004B0B3F906A0026891F84C60002583B0AB
:1018400040238DE8280029468023176C2A46B84794
:10185000D4F8CC0E012113F0B7FDD4F8CC0E8D498D
:101860000368858201224282C58105825B6803226A
:10187000984721780729C6F3411640F2D78063784C
:10188000D4F8CC0E022B03680CBF834983495B68F4
:1018900005229847824FD4F8CC0E3B680122002BDA
:1018A00040F0C0804382828203687E495B680822E0
:1018B00098473B68D4F8CC5E012B00F0C880012229
:1018C00000236A82AB822B6877495B680322284633
:1018D0009847284618F04EFCD4F8CC5E73492B6824
:1018E0004FF000084FF0010911225B682A82A5F829
:1018F00012901022A5F81480A5F80E80284698476B
:10190000284618F037FC3B68604D022B5F4BD3F83C
:10191000CC0E4FF01B030382036807BFA0F81280B0
:10192000A0F81490A0F81290A0F814800022022EC3
:101930000CBF5F495F49C2815B68102298473B68D2
:10194000D4F8CC0E032B0CBF0123002383824FF06D
:1019500025030CBF00220122038203684282022E6B
:101960004FF000020CBF54495449C2815B681022F9
:101970009847D4F8CC0E524903685F68012343822C
:101980003723038200238382C3810422B8474D4B4F
:101990001B68002B0EDD4C4FD5F8CC5E03EB8303A8
:1019A0001F4438461BF04CF82B68024639465B68EA
:1019B00028469847D4F8CC0E44490368334D5B68F9
:1019C00003229847424B1868022ECBEB000042D00E
:1019D00019F04CFF0646504619F048FF01463046C4
:1019E0001AF04CF83B4919F095FF19F061FBD5F856
:1019F000CC5E022602460B460096284618F028FCCC
:101A0000D4F8CC5E34492B6801225B68284698479D
:101A1000284618F0AFFBD4F8CC0E03B0BDE8F04F69
:101A200014F03EBB0023428283823DE70131D4F8AB
:101A3000CC0E18F005FC6378D4F8CC0E022B0368AA
:101A40000CBF264926495B680522984722E70022F9
:101A5000AB826A8237E719F009FF0746504619F052
:101A600005FF014638461AF009F81E4919F052FFE1
:101A700019F01EFBD5F8CC5E009602460B462846B0
:101A800018F0E6FBBCE700BFACB9FF1F70D3FF1F27
:101A9000ACCDFF1FFC0702006808020070080200BE
:101AA00028B9FF1F880802005808020094080200A5
:101AB000A8080200BC080200D0080200E4080200E6
:101AC0005C080200E093FF1F2C050200F8080200EA
:101AD000B898FF1F00002041C425020078080200CA
:101AE000800802000000A0402DE9F04FDFF82C92A2
:101AF000814DD9F8CC0E8BB00024036801944022AC
:101B000000921E6C224680232146B047D9F8CC0EA5
:101B1000012113F059FCD9F8CC0E78490368C4812F
:101B200001265B680482848246820A2298472B68D9
:101B3000D9F8CC0E002B40F0D78043828682036810
:101B40006F495B68082298472B68D9F8CC4E012B67
:101B500000F0CD80012200236282A3822368694ABB
:101B600069495B680292204603229847204618F094
:101B700001FBD9F8CC4E65492368654D5B684FF091
:101B800000080A2201262282A4F80E801422A4F85A
:101B90001280A68220469847204618F0EBFAD9F822
:101BA000CC4E5C492368A4F80E8025225B68228213
:101BB000204614229847204618F0DCFAD9F8CCAE1B
:101BC000554B0393AAF81260AAF81480029B4FEABF
:101BD000A80606EB460653F804BF029306EBC606BA
:101BE00008F003074FF0000CB6B2C7EB071706F179
:101BF00013037F00E345AAF81030AAF80E708DF8A1
:101C000018C062DB05AB06AC9C44A64601209BFBDA
:101C1000F0F385FB0321DA17C2EBA10202EB82028B
:101C2000A3EB420330330EF8013D00EB8000E645A4
:101C30004FEA4000EBD105A81AF002FFDAF80030B5
:101C400002465B68504605A99847039BD9F8CCAE7D
:101C500053F8041F039306F11C030026B142AAF8AF
:101C60000E70AAF810308DF8186028DB05AB1E4402
:101C7000012091FBF0F385FB0327DA17C2EBA702E3
:101C800002EB8202A3EB4203303304F8013D00EB88
:101C90008000A6424FEA4000EBD105A81AF0D0FE22
:101CA000DAF80030024608F101085B68504605A9E1
:101CB0009847B8F1080F10D0D9F8CCAE86E72D239D
:101CC00049428DF814300126D0E72D23CBF1000BCB
:101CD0008DF814304FF0010C94E7D9F8CC0E14F0C5
:101CE000DFF90BB0BDE8F08F4682848227E700223F
:101CF000A382628232E700BF28B9FF1FFC080200FE
:101D00000809020084B9FF1F5808020014090200E4
:101D1000676666662C090200E4C0FF1F70D3FF1FD0
:101D20007D4B1A68F0B40346B2F94E40B2F9520046
:101D300007290CD8DFE801F0042E33527393B30D5A
:101D4000764A106891889279186099809A71F0BCEF
:101D50007047B2F95460002536185D7100F1BD80FE
:101D60006F4F1D440120053396FBF0F287FB0214F0
:101D7000D117C1EBA40101EB8101A2EB410230328A
:101D800003F8012D00EB8000AB424FEA4000EBD19D
:101D9000F0BC7047634A10681860F0BC70470026BA
:101DA000002C5E71C0F2B2805D4F1E4401200533ED
:101DB00094FBF0F287FB0215D117C1EBA50101EBF3
:101DC0008101A2EB4102303203F8012D00EB8000CB
:101DD0009E424FEA4000EBD1F0BC7047B2F9502070
:101DE000002614195E7100F18C804D4F1E440120B5
:101DF000053394FBF0F287FB0215D117C1EBA50167
:101E000001EB8101A2EB4102303203F8012D00EB1E
:101E10008000B3424FEA4000EBD1F0BC7047B2F90A
:101E200056600025AE425D7166DB3D4F1D440120CA
:101E3000053396FBF0F287FB0214D117C1EBA40126
:101E400001EB8101A2EB4102303203F8012D00EBDE
:101E50008000AB424FEA4000EBD1F0BC7047B2F9D2
:101E600058600025AE425D7141DB2D4F1D440120BD
:101E7000053396FBF0F287FB0214D117C1EBA401E6
:101E800001EB8101A2EB4102303203F8012D00EB9E
:101E90008000AB424FEA4000EBD1F0BC7047002617
:101EA000041E5E711EDB1E4F1E440120053394FB91
:101EB000F0F287FB0215D117C1EBA50101EB8101FF
:101EC000A2EB4102303203F8012D00EB8000B34257
:101ED0004FEA4000EBD1F0BC70472D2276421A70D9
:101EE00001253DE72D2264421A700126DBE72D22F1
:101EF00076421A700125B8E72D2276421A70012524
:101F000093E72D2264421A7001266EE72D22644267
:101F10001A70012648E700BFACCDFF1F1808020069
:101F200067666666580802002DE9F04F664EDFF8D6
:101F3000BCA1D6F8CC0E8BB00024036801944022DB
:101F400000921D6C224680232146A847D6F8CC0E6D
:101F5000012113F039FAD6F8CC0E5C49036884826B
:101F600001225B684282C48103220482984731784F
:101F7000D6F8CC0E013118F063F97378D6F8CC0E90
:101F8000022B036808BF52495B6818BF51490522FC
:101F90009847DAF80030D6F8CC0E0122002B7FD11A
:101FA0004382828203684C495B6808229847DAF8CA
:101FB0000030D6F8CC4E012B76D00122002362826D
:101FC000A382236845495B68032220469847204640
:101FD00018F0D0F8D6F8CC4E4149236800271022DB
:101FE00001205B6860822282A782E78120469847B1
:101FF000204618F0BFF81C234FF0020B0293B8469E
:102000004FEA4809BDF90830039309F10209182580
:102010000024D6F8CC3E0121002259829A82B8F1E0
:10202000000F45D0DAF8002009EB040191424FF08F
:10203000010031D0002258829A82BDF80C20DA814A
:102040001D820BEB040105A8FFF76AFED6F8CC7ED3
:1020500005A81AF0F5FC3B6802465B6805A93846FE
:1020600098470134384618F085F80A35022CADB28D
:10207000CFD1029B08F101082A339BB2B8F1020FBD
:1020800002930BF1020BBBD10F4BD3F8CC0E14F023
:1020900007F80BB0BDE8F08F002159829882CCE799
:1020A0000023428283827DE70022A382628288E746
:1020B00018460C492CB1FEF7D3FE034BD3F8CC3EA7
:1020C000B0E718460849F6E770D3FF1FFC07020087
:1020D0007808020080080200880802005808020000
:1020E00044090200580902006009020028B9FF1FD4
:1020F00000B5007D00F01F03192B13D8DFE803F0B3
:102100001414272727333A2727272727201A0D12A9
:102110001427272727271414140D002043F6FF73D4
:10212000086013605DF804FBC0F34110012812D071
:10213000022826D000207F23086013605DF804FB8E
:10214000134B0B6047F6FF7313605DF804FBC0F39D
:1021500041100128EED16FF07F004FF480730860CA
:1021600013605DF804FB0B4B0B6041F6FF731360CB
:102170005DF804FB6FF063006423086013605DF892
:1021800004FB00203C23086013605DF804FB00BFE3
:102190000080FFFF00E0FFFF037D01F01F0161F3FE
:1021A00004030375192915D8DFE801F03737151531
:1021B00015253015151515151C150D143715151584
:1021C00015153737370D002243F6FF73C282C283DD
:1021D00003830384704700227F23C282C283038368
:1021E000038470474FF4004247F6FF73C282C283F4
:1021F0000383038470474FF4604343F6FF7141F655
:10220000FF72C382C3830183028470470022642368
:10221000C282C283038303847047037DC3F34113E7
:10222000022B07D100233C217822C382C383018380
:102230000284704700227823C282C283038303840E
:10224000704700BF2DE9F041574D584C2B78584945
:1022500062780020012B086000F08280012A40F2A1
:102260008880022A7CD0032A54D0524E306890F8DD
:102270004C20DFF87081504FDFF86CE1DFF86CC163
:1022800012F0600118BF012188F8001000F14E0122
:102290003960B0F85210AEF80010DFF854E1B0F831
:1022A0005410ACF800104549B0F856C0AEF800C064
:1022B000DFF840E1B0F858C0A1F800C04049B0F8DC
:1022C0004EC0AEF800C0B0F850E0A1F800E003F056
:1022D000FD01012908D13B4BC2F304023830002133
:1022E0001A70FFF759FF2B783749384A384D39486B
:1022F0004FF0010EC1F800E04FF0FF31116073455F
:102300004FF00002296002700DD0334B012018708D
:10231000BDE8F0812278274E4FF4A47000FB024004
:1023200070303060A3E73568386895F84C602B4B07
:102330002B4962F3461685F84C60B4F9925BB4F908
:10234000944BC480858003F1140003F8012F83426D
:1023500041F8042FF9D1204B01201870BDE8F0811D
:102360002278144E4FF4A47000FB02400830306015
:102370007DE7052B01D0BDE8F081012A7FF475AF20
:10238000114923780A604FF4A47202FB0343094EFB
:102390000E4D0F4C0F494FF0FF32D83333602A6097
:1023A00022600870B1E700BFEDB8FF1F70D3FF1FB8
:1023B000B4B8FF1FACCDFF1FACB9FF1F2C92FF1F9D
:1023C000BCB9FF1F04B9FF1F28B9FF1FB898FF1F32
:1023D000E093FF1FB0B9FF1FD4B8FF1F1FBBFF1F43
:1023E00080EFFF1F14C1FF1F78EFFF1F5CD3FF1F9B
:1023F000D8EFFF1F3CB9FF1F2DE9F041DFF8A8809F
:10240000234F98F80030052282B03A707BB1214EFC
:102410003568ADB1A84720B90024204602B0BDE818
:10242000F08100242046346002B0BDE8F081FFF75F
:1024300009FF0028EBD10124204602B0BDE8F0815D
:10244000154B18780238FFF779F82846FEF75AFB43
:10245000FFF764F804460028DED0104B1B68012B00
:1024600006DD023B0E4A52F8233033602C46D4E797
:102470000C4BD3F8CC0E402203688DE8240029468B
:102480001E6C2A468023B04788F800503D70C4E790
:10249000EDB8FF1FB4B8FF1FC495FF1F28B9FF1F79
:1024A0008C8EFF1F70D3FF1FD4B8FF1F2DE9F04F94
:1024B000A84BA94D1B78032283B02A70002B00F093
:1024C000A980A64BA64E1F6897F84C40B7F952005A
:1024D000C4F34114022C00F0BA8019F0C7F9804609
:1024E000B7F95000B7F94EB019F0C0F98246B7F904
:1024F000540019F0BBF98146CBF1180019F0B6F978
:10250000514619F0BBFA494619F004FA414619F050
:10251000F9F819F0C5FB3080CBF1600019F0A6F98D
:10252000514619F0ABFA494619F0F4F9414619F051
:10253000E9F819F0B5FBDFF86092A9F800008949C5
:10254000894ADFF858A2B7F9043008787988CAF8C0
:1025500000101360FEF7F2FFFFF760F9FEF7DEFFF1
:10256000804600283ED0DFF83882D8F800000128E5
:1025700040F3CA80022800F0C180032800F0B78031
:10258000B6F90050B9F90000022CA0EB050000F0EC
:10259000918019F06BF90446284619F067F9214635
:1025A0000546204619F0AEF8704919F067FA014661
:1025B000284619F0A5F819F073FB6D4905B22046BD
:1025C00019F0A8F9694919F059FA19F069FB00B234
:1025D000684B1B684FF000089D80D880404603B0D0
:1025E000BDE8F08F2B78032BF8D1BAF80000FEF786
:1025F0004FF8614B93F8753E002BEFD00028EDD0DB
:102600005E4B1A788242E9D0DFF894811870C8F8DE
:102610000000ACE7FFF716FE044600287FF451AF38
:10262000554D57494FF00108FF2205F63D4085F80A
:102630003C8C1AF073FA4FF4FA621123A5F8444D5A
:10264000A5F8484DC5F8402DA5F8463DC6E719F058
:102650000DF98346B7F95000B7F94EA019F006F905
:102660008146B7F9540019F001F98046CAF10C000F
:1026700019F0FCF8494619F001FA414619F04AF9F7
:10268000594619F03FF819F00BFB3080CAF13000C1
:1026900019F0ECF8494619F0F1F9414619F03AF908
:1026A000594619F02FF819F0FBFADFF8EC90A9F869
:1026B000000044E719F0DAF80446284619F0D6F885
:1026C00030490546204619F0D9F90146284619F047
:1026D00017F819F0E5FA2C4905B2204619F01AF955
:1026E000284919F0CBF919F0DBFA00B270E7BAF912
:1026F0000000B6F90050A9F8000045E7BAF900500B
:102700003580B9F900003FE71B4BD3F8CC0E00220F
:1027100003680192402100911C6C11468023A04760
:102720000E4B1868194B38301978FFF735FDD8F87B
:10273000003043B90F4B1649164A1B680988B2F995
:1027400000209980DA80034A002313702B704FF029
:10275000010843E7D4B8FF1FEDB8FF1FACCDFF1F42
:1027600084B9FF1F09A2FF1FE093FF1F0000C040B4
:1027700000002041ACB9FF1F70D3FF1FB0B9FF1F8D
:1027800068090200000040400000A04004B9FF1F9B
:1027900078EFFF1F5CD3FF1F86B9FF1FB898FF1F9C
:1027A00028B9FF1F10B582B002AB42F2EB7243F8BA
:1027B000042D0446017004221846002115F06EFD18
:1027C00020460122022115F069FD032002B010BD50
:1027D0002DE9F041804682B018F8021B7A4D7B4FFC
:1027E0000446FFF7DFFF022206460146404615F089
:1027F00055FDB11C201D022215F050FD311DA01DFC
:10280000022215F04BFDB11D04F10800022215F063
:1028100045FD06F1080104F10A00022215F03EFD13
:1028200006F10A0104F10C00022215F037FD06F151
:102830000C0104F10E00022215F030FD06F10E012C
:1028400004F11000022215F029FD06F1100104F137
:102850002100692215F022FD06F1790104F114002E
:10286000042215F01BFD06F17D0104F11800012280
:1028700015F014FD06F17E0104F11C00042215F090
:102880000DFD06F1820104F12000012215F006FD84
:1028900006F1830104F11A00022215F0FFFC0D215C
:1028A0004B4817F0CBF900230A222178284617F06D
:1028B00087FC0221474817F0C1F9B4F902102846F5
:1028C00017F0BEFC3846012117F0B8F9B4F904102E
:1028D000284617F0B5FC3846012117F0AFF9B4F9D6
:1028E0000610284617F0ACFC3846012117F0A6F96F
:1028F000B4F90810284617F0A3FC3846012117F058
:102900009DF9B4F90A10284617F09AFC38460121BF
:1029100017F094F9B4F90C10284617F091FC3846DA
:10292000012117F08BF9B4F90E10284617F088FC36
:102930003846012117F082F9B4F91010284617F033
:102940007FFC3846012117F079F9606918F0B0FB77
:102950004FF0020802460B46CDF80080284617F0DB
:1029600077FC3846012117F069F994F918102846C8
:1029700017F066FC3846012117F060F900230A229F
:1029800094F82010284617F01BFC3846012117F058
:1029900055F9E06918F08CFBCDF8008002460B4633
:1029A000284617F055FC3846012117F047F906F183
:1029B0008501284617F044FC284617F0DBFB9620DB
:1029C00002B0BDE8F08100BF14AEFF1F6408020032
:1029D0007C0902001810020070B5064684B0002081
:1029E00015F0F8FB8DF80E00012015F0F3FB8DF8C3
:1029F0000F00BDF80E2042F2EB739A4240F00881BE
:102A0000022015F0E7FB03288ABFFF2330703370E4
:102A1000032015F0DFFBB070042015F0DBFBF07035
:102A2000052015F0D7FB3071062015F0D3FB70712F
:102A3000072015F0CFFBB071082015F0CBFBF0712B
:102A4000092015F0C7FB30720A2015F0C3FB707225
:102A50000B2015F0BFFBB0720C2015F0BBFBF07221
:102A60000D2015F0B7FB30730E2015F0B3FB70731B
:102A70000F2015F0AFFBB073102015F0ABFBF07317
:102A8000112015F0A7FB3074122015F0A3FB06F1FE
:102A9000200570741324204615F09CFB01347C2C17
:102AA00005F8010FF7D106F11305204615F092FB4A
:102AB0000134802C05F8010FF7D1204615F08AFB70
:102AC00006F11B0530768124204615F083FB013486
:102AD000852C05F8010FF7D1204615F07BFB86F811
:102AE0002000862015F076FBB076872015F072FB6B
:102AF0000C21F0764B4817F0A1F800230A22317818
:102B0000494817F05DFB0221484817F097F8B6F9DD
:102B10000210454817F094FB0121454817F08EF844
:102B2000B6F90410404817F08BFB0121404817F01C
:102B300085F8B6F906103C4817F082FB01213C48A5
:102B400017F07CF8B6F90810374817F079FB012127
:102B5000374817F073F8B6F90A10334817F070FBCE
:102B60000121334817F06AF8B6F90C102E4817F017
:102B700067FB01212E4817F061F8B6F90E102A48BC
:102B800017F05EFB01212A4817F058F8B6F910102B
:102B9000254817F055FB0121254817F04FF87069BB
:102BA00018F086FA022402460B4600941E4817F0DD
:102BB0004FFB01211E4817F041F896F918101A48EA
:102BC00017F03EFB01211A4817F038F800230A22BB
:102BD00096F82010144817F0F3FA0121144817F062
:102BE0002DF8F06918F064FA009402460B460E487E
:102BF00017F02EFB01210E4817F020F888210A4813
:102C000017F01EFB084817F0B5FA962004B070BD07
:102C10001B21084817F012F8034817F0ABFA002000
:102C200004B070BDA809020014AEFF1F1810020006
:102C3000640802008C0902002DE9F843099C089EF3
:102C40000F46904699461CB1086819F029F8A0472C
:102C50001D4DD5F8C80E14F06DFAB5F88E4BB5F8C9
:102C60008C3B201A84B29C42A5F88E4B24D094BF92
:102C700006F100403046396818F044FD41460646EA
:102C800018F0E6FF58B94946304618F0FFFF68B122
:102C9000C7F800900020A5F88C4BBDE8F883C7F872
:102CA00000800020A5F88C4BBDE8F8833E60002032
:102CB000A5F88C4BBDE8F88341F2F823E858BDE84D
:102CC000F84314F0D9B900BF70D3FF1F2DE9F043CA
:102CD000284D6B78012B85B0274B44D91B681869A8
:102CE00003F1380903F1100418F0BCFD234918F072
:102CF000C5FE0146224818F0C1FE224918F0BEFE6A
:102D000018F048F804A9204A41F8040D4FF07E530A
:102D100080460192009300221C4B1D48FFF78CFF58
:102D20001C4B039F187006461449384618F0A6FE3F
:102D30000146134818F0A2FE124918F09FFE18F041
:102D4000D5FF41462060384618F098FED9F80010AB
:102D500018F0E0FD0346C9F800003046C5F8A43B72
:102D600005B0BDE8F0831C68206904F13C0910340B
:102D7000BAE700BF70D3FF1FACCDFF1F00007A443D
:102D800000606A470000C041050B00000000FA43E4
:102D90008CDFFF1F449BFF1F70B51E4D6A782B7898
:102DA000022A84B030D0032A28D0012A02D000237E
:102DB0001B7AFFDE4FF4A47404FB035404F58674FD
:102DC00094F9080018F052FD04A9134A41F8040DC3
:102DD0004FF07E5301920093104A114B1148FFF7B8
:102DE0002BFF114B06461E70039818F059FF40B296
:102DF000207285F8A80B304604B070BD4FF4A4745F
:102E000004FB0354A834DBE74FF4A47404FB03541D
:102E10004034D5E770D3FF1F050B00000000A0C0B1
:102E20000000A0408CDFFF1F449BFF1F2DE9F843EB
:102E3000099CDDF820900E4690461F460CB10868AC
:102E4000A0471C4DD5F8C80E14F074F9B5F88E4B98
:102E5000B5F88C3B201A84B29C42A5F88E4B21D049
:102E6000E01A18F003FD494618F054FD8146306819
:102E700018F0FCFC0146484618F044FC18F010FF1E
:102E8000404508DB8742A8BF074637600020A5F809
:102E90008C4BBDE8F883C6F800800020A5F88C4B69
:102EA000BDE8F88341F2F823E858BDE8F84314F090
:102EB000E3B800BF70D3FF1F2DE9F047224CBDF8E7
:102EC0002090099D0646D4F8C80E0F4690469A46B3
:102ED00014F030F9B4F88E3BB4F88C1B184480B26F
:102EE000A4F88E0B884296F861221BD2AB5C013BA2
:102EF000DBB22F2B98BF3923AB5428460A2200217E
:102F000019F0DCFE4045386013DAB4F88E0BC7F8D0
:102F1000008041F2F823A4F88C0BE058BDE8F0479C
:102F200014F0AAB8F5D95AB909F1FF3986F86192B7
:102F3000EFE75045C8BFC7F800A0B4F88E0BE8E72C
:102F4000013A86F86122E4E770D3FF1FF8B5204C00
:102F50000546D4F8C80E0E46174614F0EBF8B4F840
:102F60008E3BB4F88C1B184480B2A4F88E0B95F8F5
:102F700061228842B35C1ED20133DBB213F0800FB2
:102F800018BF2023B354B4F88E0BA4F88C0B41F275
:102F9000F823E05814F070F860B195F86132013F01
:102FA000BB4207D013B93278202A0ED0013385F8FE
:102FB00061320020F8BDE8D9013BDBB21F2B98BF7E
:102FC0007F23B354B4F88E0BDFE73370F8BD00BF36
:102FD00070D3FF1FF0B5104883B0D0F8CC5EBDF8B9
:102FE000206008461F46144619F02AFD04EB4404ED
:102FF000A4002A68033400EB400312210020019052
:10300000009104EB43031BB2146C39B2284632B270
:10301000A04703B0F0BD00BF70D3FF1F2DE9F04FF4
:103020002E4F85B00E469A46D7F8CC0EBDF83880A4
:103030000121144612F0C8F90AF10200D7F8CC5E5B
:1030400083B21A464FF0010908F105034FF0000B57
:10305000EA812B82A5F81290A5F814B030460392AD
:1030600019F0EEFC2B6802465B683146284698470B
:10307000284617F07FF80221D7F8CC0E12F0A4F9F9
:10308000D7F8CC5E3046A5F814B0A5F8129019F028
:10309000D7FC039A00EB400002EB400008EB090369
:1030A000E8812B82304619F0CBFC04EB4404A400E9
:1030B0002E68CDF8049000EB4000033412220092F9
:1030C00004EB40031BB20FFA88F20FFA8AF128468C
:1030D000F46CA04705B0BDE8F08F00BF70D3FF1FB0
:1030E0002DE9F04F87B09846BDF84040049425463E
:1030F000BDF84440009489460293AA462B461646E2
:10310000054642462A4F05940391FFF763FF00945A
:103110005346424649462846FFF780FFD7F8CCBEC3
:1031200000245B46A146A3464FF001081C4618E068
:1031300095F861325345236804BFA4F81290A4F8AF
:1031400014801B6816F80A10984795F86132D7F872
:10315000CC4E534504BFA4F81280A4F814900BF190
:10316000010B304619F06CFC1FFA8BFA50452046D3
:10317000DED822680F49A34654680022A04758466B
:1031800016F0F8FF029A31462846FFF7DFFE58B1E5
:10319000059B00932846049B029A0399FFF71AFFA8
:1031A000FF2385F86132012007B0BDE8F08F00BF32
:1031B00070D3FF1F940B0200F0B5044690F8610233
:1031C00087B0FF28BDF83050BDF834600AD08DE8D4
:1031D00060002046FFF784FF10B1FF2384F86132BE
:1031E00007B0F0BD002084F86102104605930491F9
:1031F000039219F025FC059B039A04999842E6D2A4
:1032000007DA104402EB030E202700F8017B70451B
:10321000FBD10020D054DAE7102B2DE9F84F0546FA
:103220000C464FF0000E53D8724501F803E055DB11
:103230009E4518DADFF8B4C0E718012692FBF6F1D4
:103240008CFB0108C817C0EBA80000EB8000A1EBC5
:103250004001013B06EB8606303173454FEA4606D6
:1032600007F8011DEADCDFF888904FF00008D9F874
:10327000CC7EC3464FF0010A17E095F86132B342A5
:103280003B6804BFA7F812B0A7F814A01B68A15DA3
:10329000984795F86132D9F8CC7EB34204BFA7F8BD
:1032A00012A0A7F814B008F10108204619F0C8FBD5
:1032B0001FFA88F6B0423846DFD83B680A495B6897
:1032C0003846002298473846BDE8F84F16F052BFFE
:1032D000724581F810E04FF01003ABDA2D21524215
:1032E00021704FF0010EA3E7940B0200676666663B
:1032F00070D3FF1F2DE9F04788B00446BDF8445055
:10330000BDF84860BDF84C700097904689462A4643
:103310009A463346FFF75EFE33462A464946204624
:103320000097FFF77BFE2B46D8F80020204603A924
:10333000FFF772FF94F86132FF2B17D003AB0193B4
:10334000009552464146109B2046FFF7B5FD50B10F
:103350003346204600972A464946FFF73BFEFF23A7
:1033600084F86132012008B0BDE8F08700224FF0F8
:103370007E530192009352464146109B2046FFF730
:1033800055FDE4E7F0B51A4A11784FF4A47303FB36
:1033900001F3D11887B091F85400C00622D101F58D
:1033A0008C7491F8181192F87D3E114A104D0591D8
:1033B000FF2B04BF032382F87D3E2D270422002328
:1033C000FF2601920B49039705F61C4002930096D5
:1033D00005AAFFF78FFF08B185F87D6E059B237066
:1033E00007B0F0BD134491F84C1003F14C04DAE738
:1033F00070D3FF1FB80902002DE9F0432A4D2B4975
:10340000D5F8AC0B284E87B018F084FA18F048FCB9
:1034100095F87D3E0590FF2B04BF042385F87D3E83
:10342000234B00932D21002305220391019206F6E0
:103430001C40029305AA1F49FFF75CFF804630B38A
:10344000FF2386F87D3E059818F010FA174918F00A
:1034500015FB34460146C6F8AC0B06F52467B146A9
:1034600001E0D9F8AC1B95F8B06BD4F8D00014F09B
:1034700029FC304618F0F6F904F5A47454F8783CA9
:10348000A7421861EDD1404607B0BDE8F08305982A
:1034900018F0ECF9054918F0F1FAC6F8AC0B404603
:1034A00007B0BDE8F08300BF70D3FF1F0050C347D3
:1034B0003F420F00C40902002DE9F0431C4D1D4995
:1034C00095F8B03B87B006AA042642F8043D2D27A4
:1034D00000234FF480748DE8500005F61C400397DC
:1034E0000293FFF707FF9DF8146085F8B06B8146E3
:1034F00018B9484607B0BDE8F0832C4605F52467A7
:10350000A84601E098F8B06BD4F8D000D5F8AC1B11
:1035100014F0D8FB304618F0A5F904F5A47454F85B
:10352000783CBC421861EDD1484607B0BDE8F08355
:1035300070D3FF1FD0090200F0B52C4C62782378BD
:10354000022A87B02FD0032A27D0012A02D00023D5
:103550005B78FFDE4FF4A47202FB034303F586732E
:1035600006AA5B78214E42F8043D03272D2300254F
:1035700001977F2703931E4902952B4606F61C40B0
:103580000097FFF7B7FE63782278022B24D0032B35
:1035900019D0012B0DD06D70FFDE4FF4A47202FB29
:1035A0000343A833DCE74FF4A47202FB0343403328
:1035B000D6E74FF4A47303FB026303F58673059A01
:1035C0005A7007B0F0BD4FF4A47303FB0263A83335
:1035D000059A5A7007B0F0BD4FF4A47303FB026361
:1035E0004033059A5A7007B0F0BD00BF70D3FF1F7B
:1035F000D8090200F0B52C4C62782378022A87B0F3
:103600002FD0032A27D0012A02D000231B78FFDE07
:103610004FF4A47202FB034303F5867306AA1B78DA
:1036200042F8043D204E21492D2303930025102309
:1036300003278DE8880006F61C4001230295FFF75A
:1036400059FE63782278022B24D0BB4219D0012B7B
:103650000DD02D70FFDE4FF4A47202FB0343A8339C
:10366000DCE74FF4A47202FB03434033D6E74FF488
:10367000A47303FB026303F58673059A1A7007B0FF
:10368000F0BD4FF4A47303FB0263A833059A1A70CC
:1036900007B0F0BD4FF4A47303FB02634033059AF7
:1036A0001A7007B0F0BD00BF70D3FF1FE40902001D
:1036B0002DE9F0412E4C62782378022A86B035D06D
:1036C000032A2DD0012A02D000235B68FFDE4FF4CD
:1036D000A47202FB034303F586735868244F18F065
:1036E000DFFA06AA0321FF232D25002642F8040D48
:1036F0000191009307F61C400123039502961D4992
:10370000FFF7F8FD62782378022A80462AD0032A40
:1037100022D0012A10D0059818F0A8F87060FFDEBA
:103720004FF4A47202FB0343A833D6E74FF4A4720C
:1037300002FB03434033D0E74FF4A47505FB037548
:1037400005F58675059818F091F86860C4F8A40B23
:10375000404606B0BDE8F0814FF4A47505FB037543
:10376000A835EFE74FF4A47505FB03754035E9E78D
:1037700070D3FF1FF4090200F0B52B4C6278237858
:10378000022A87B031D0032A29D0012A02D000238F
:103790001B7AFFDE4FF4A47202FB034303F586732A
:1037A00006AA93F9083042F8043D1F4E1F492D2305
:1037B00003930025782304278DE8880006F61C4033
:1037C0006FF077030295FFF795FD63782278022B5F
:1037D00024D0032B1CD0012B0DD02D72FFDE4FF413
:1037E000A47202FB0343A833DAE74FF4A47202FB8E
:1037F00003434033D4E74FF4A47303FB026303F5A0
:1038000086739DF914201A7284F8A82B07B0F0BDB6
:103810004FF4A47303FB0263A833F2E74FF4A473DD
:1038200003FB02634033ECE770D3FF1F000A020082
:10383000F0B52F4C62782378022A87B032D0032A61
:103840002AD0012A03D0002393F82230FFDE4FF460
:10385000A47202FB034303F5867306AA93F8223091
:10386000234E42F8043D03272D23002501977F278F
:103870000393204902952B4606F61C400097FFF75C
:1038800039FD63782278022B27D0032B1BD0012B24
:103890000ED085F82250FFDE4FF4A47202FB0343E2
:1038A000A833DAE74FF4A47202FB03434033D4E7B2
:1038B0004FF4A47303FB026303F58673059A83F840
:1038C000222007B0F0BD4FF4A47303FB0263A833BA
:1038D000059A83F8222007B0F0BD4FF4A47303FBD0
:1038E00002634033059A83F8222007B0F0BD00BF81
:1038F00070D3FF1F100A0200F0B52F4C62782378B6
:10390000022A87B032D0032A2AD0012A03D000230A
:1039100093F82330FFDE4FF4A47202FB034303F558
:10392000867306AA93F82330234E42F8043D0327FA
:103930002D23002501977F270393204902952B46CD
:1039400006F61C400097FFF7D5FC63782278022B1F
:1039500027D0032B1BD0012B0ED085F82350FFDE80
:103960004FF4A47202FB0343A833DAE74FF4A472C6
:1039700002FB03434033D4E74FF4A47303FB026319
:1039800003F58673059A83F8232007B0F0BD4FF442
:10399000A47303FB0263A833059A83F8232007B0BE
:1039A000F0BD4FF4A47303FB02634033059A83F820
:1039B000232007B0F0BD00BF70D3FF1F1C0A020018
:1039C000F0B5454C62782378022A87B046D0032AA6
:1039D0003BD0012A03D0002393F82230FFDE4FF4BE
:1039E000A47202FB034303F5867393F82220D201ED
:1039F00093F8233094F87D1E3748374D1344FF2940
:103A0000059304BF042380F87D3E43F6FF722D2703
:103A1000002305268DE844003049039705F61C4035
:103A2000029305AAFFF766FC10B1FF2385F87D3EDF
:103A300061782378284C02293BD003292CD0012916
:103A400015D0002383F82230FFDE4FF4A47202FB6E
:103A50000343A83393F82220D201C9E74FF4A4729C
:103A600002FB0343403393F82220D201C0E70599BB
:103A70004FF4A47202FB0342002902F586720B4642
:103A800014DBDB1182F82230154B0B40002B1BDBC3
:103A900082F8233007B0F0BD05994FF4A47202FB01
:103AA0000342002902F1A8020B46EADA01F17F0382
:103AB000E7E705994FF4A47202FB0342002902F1E3
:103AC00040020B46DDDAF1E7013B63F07F0301338F
:103AD00082F8233007B0F0BD70D3FF1F280A020020
:103AE0007F000080F0B52C4C62782378022A87B0E2
:103AF0002FD0032A27D0012A02D000239B78FFDE93
:103B00004FF4A47202FB034303F5867306AA9B7865
:103B1000214E42F8043D03272D23002501977727E6
:103B200003931E4902952B4606F61C400097FFF7AB
:103B3000E1FB63782278022B24D0032B19D0012BD0
:103B40000DD0AD70FFDE4FF4A47202FB0343A83327
:103B5000DCE74FF4A47202FB03434033D6E74FF493
:103B6000A47303FB026303F58673059A9A7007B08A
:103B7000F0BD4FF4A47303FB0263A833059A9A7057
:103B800007B0F0BD4FF4A47303FB02634033059A02
:103B90009A7007B0F0BD00BF70D3FF1F300A02005B
:103BA000F0B52C4C62782378022A87B02FD0032AF4
:103BB00027D0012A02D00023DB78FFDE4FF4A47265
:103BC00002FB034303F5867306AADB78214E42F815
:103BD000043D03272D23002501977F2703931E49CA
:103BE00002952B4606F61C400097FFF783FB63788F
:103BF0002278022B24D0032B19D0012B0DD0ED708D
:103C0000FFDE4FF4A47202FB0343A833DCE74FF45A
:103C1000A47202FB03434033D6E74FF4A47303FBC3
:103C2000026303F58673059ADA7007B0F0BD4FF4AE
:103C3000A47303FB0263A833059ADA7007B0F0BDE2
:103C40004FF4A47303FB02634033059ADA7007B0A4
:103C5000F0BD00BF70D3FF1F380A020038B5204CFA
:103C600062782378022A26D0032A1ED0012A0FD098
:103C700000201421FEF790FA94F8743E184D73B9A1
:103C8000012385F8743EFFF757FCD0B9002038BDFA
:103C90004FF4A47000FB034000F58670E9E7012BA8
:103CA000F1D0022B13D0012038BD4FF4A47000FBDB
:103CB0000340A830DDE74FF4A47000FB0340403020
:103CC000D7E794F8743E013384F8743EDEE7FFF7DB
:103CD00067FF0028DAD0002385F8743E38BD00BFA6
:103CE00070D3FF1F2DE9F0412E4C62782378022A11
:103CF00086B035D0032A2DD0012A02D000235B687C
:103D0000FFDE4FF4A47202FB034303F58673586889
:103D1000244F17F0C5FF06AA0321FF232D250026F7
:103D200042F8040D0191009307F61C40012303950E
:103D300002961D49FFF7DEFA62782378022A804650
:103D40002AD0032A22D0012A10D0059817F08EFD20
:103D50007060FFDE4FF4A47202FB0343A833D6E782
:103D60004FF4A47202FB03434033D0E74FF4A47531
:103D700005FB037505F58675059817F077FD6860F6
:103D8000C4F8A40B404606B0BDE8F0814FF4A4751A
:103D900005FB0375A835EFE74FF4A47505FB037524
:103DA0004035E9E770D3FF1FF4090200F0B52B4C52
:103DB00062782378022A87B031D0032A29D0012AD9
:103DC00002D000231B7AFFDE4FF4A47202FB0343F0
:103DD00003F5867306AA93F9083042F8043D1F4E96
:103DE0001F492D2303930025782304278DE888009D
:103DF00006F61C406FF077030295FFF77BFA6378B5
:103E00002278022B24D0032B1CD0012B0DD02D7235
:103E1000FFDE4FF4A47202FB0343A833DAE74FF44A
:103E2000A47202FB03434033D4E74FF4A47303FBB3
:103E3000026303F586739DF914201A7284F8A82B87
:103E400007B0F0BD4FF4A47303FB0263A833F2E79D
:103E50004FF4A47303FB02634033ECE770D3FF1FFE
:103E6000000A0200F0B52C4C62782378022A87B051
:103E70002FD0032A27D0012A02D000239B7CFFDE0B
:103E80004FF4A47202FB034303F5867306AA9B7CDE
:103E9000214E42F8043D04272D2300250197642775
:103EA00003931E4902952B4606F61C400097FFF728
:103EB00021FA63782278022B24D0032B19D0012B0E
:103EC0000DD0AD74FFDE4FF4A47202FB0343A833A0
:103ED000DCE74FF4A47202FB03434033D6E74FF410
:103EE000A47303FB026303F58673059A9A7407B003
:103EF000F0BD4FF4A47303FB0263A833059A9A74D0
:103F000007B0F0BD4FF4A47303FB02634033059A7E
:103F10009A7407B0F0BD00BF70D3FF1F440A0200BF
:103F200070B5324C6278237888B000217F20022A55
:103F30000591069035D0032A2AD0012A01D0CB8BD7
:103F4000FFDE4FF4A47000FB034000F58670B0F96B
:103F50001E30079306AA05A9FEF7CAF8234E069A53
:103F600000922D2105220025059B0391019206F662
:103F70001C4007AA02951E49FFF7BCF96378227816
:103F8000022B2AD0032B1FD0012B13D0ED83FFDE91
:103F90004FF4A47000FB0340A830B0F91E30079323
:103FA000D8E74FF4A47000FB03404030B0F91E3056
:103FB0000793CFE74FF4A47303FB026303F5867303
:103FC000079ADA8308B070BD4FF4A47303FB026351
:103FD000A833079ADA8308B070BD4FF4A47303FBCB
:103FE00002634033079ADA8308B070BD70D3FF1FB5
:103FF0004C0A020070B5324C6278237888B00021F8
:104000007F20022A0591069035D0032A2AD0012A62
:1040100001D00B8CFFDE4FF4A47000FB034000F5D1
:104020008670B0F92030079306AA05A9FEF760F85C
:10403000234E069A00922D2105220025059B03910F
:10404000019206F61C4007AA02951E49FFF752F995
:1040500063782278022B2AD0032B1FD0012B13D098
:104060002D84FFDE4FF4A47000FB0340A830B0F9AC
:1040700020300793D8E74FF4A47000FB0340403092
:10408000B0F920300793CFE74FF4A47303FB02632A
:1040900003F58673079A1A8408B070BD4FF4A473B1
:1040A00003FB0263A833079A1A8408B070BD4FF46B
:1040B000A47303FB02634033079A1A8408B070BDEF
:1040C00070D3FF1F580A020038B50A4D2C783CB156
:1040D000012C08D1FFF78EFF28B100232B7038BDCB
:1040E000FFF71EFF08B9002038BD01232B702046C2
:1040F00038BD00BFA8B9FF1FF0B52E4C62782378F9
:10410000022A87B038D0032A30D0012A02D00023F7
:104110005B8BFFDE4FF4A47101FB034101F5867157
:1041200006AAB1F91A3042F8043D4FF02D0EB1F94C
:104130001C60204FCDF80CE04FF0060ECDF804E0E7
:10414000002544F2020E1C4B1C49029507F61C4048
:10415000CDF800E0FFF7CEF863782278022B22D06A
:10416000032B1AD0012B0DD06D83FFDE4FF4A47109
:1041700001FB0341A831D3E74FF4A47101FB0341D4
:104180004031CDE74FF4A47303FB027303F586734C
:10419000059A9E835A8307B0F0BD4FF4A47303FBC6
:1041A0000273A833F4E74FF4A47303FB02734033A4
:1041B000EEE700BF70D3FF1FFDBFFFFF640A0200E0
:1041C000F0B52F4C62782378022A87B039D0032AC1
:1041D00031D0012A02D000235B8BFFDE4FF4A472A2
:1041E00002FB034303F58673B3F91A50B3F91C00BD
:1041F000234F244B244906AA28444FF02D0E42F8A1
:10420000040DCDF80CE04FF0060ECDF804E00026CA
:1042100044F2020E07F61C400296CDF800E0FFF7CC
:1042200069F863782278022B23D0032B1BD0012B53
:104230000DD07683FFDE4FF4A47202FB0343A83354
:10424000D2E74FF4A47202FB03434033CCE74FF4B0
:10425000A47303FB027303F58673059A5D83551BF4
:104260009D8307B0F0BD4FF4A47303FB0273A83322
:10427000F3E74FF4A47303FB02734033EDE700BF91
:1042800070D3FF1FFDBFFFFF6C0A020038B50A4D57
:104290002C783CB1012C08D1FFF792FF28B1002304
:1042A0002B7038BDFFF728FF08B9002038BD012367
:1042B0002B70204638BD00BFA8B9FF1FF0B5334CA6
:1042C0006278237889B000217F20022A0591069028
:1042D00039D0032A2CD0012A01D0CB8AFFDE4FF43B
:1042E000A47000FB034000F58670B0F91630B0F9F9
:1042F0001850079306AA05A9FDF7FAFE234F069A60
:1043000000922D2105220026059B0391019207F6BC
:104310001C4007AA02961E49FEF7ECFF637822783C
:10432000022B2CD0032B24D0012B17D0F682FFDEDA
:104330004FF4A47000FB0340A830B0F91630B0F978
:1043400018500793D6E74FF4A47000FB03404030A9
:10435000B0F916300793B0F91850CBE74FF4A473B7
:1043600003FB027303F58673079A1D83DA8209B093
:10437000F0BD4FF4A47303FB0273A833F4E74FF4CA
:10438000A47303FB02734033EEE700BF70D3FF1F3B
:10439000740A0200F0B5354C6278237889B00021A8
:1043A0007F20022A059106903BD0032A2DD0012AB6
:1043B00001D0CB8AFFDE4FF4A47000FB034000F570
:1043C0008670B0F91650B0F918302B44079306AA3E
:1043D00005A9FDF78DFE254F069A00922D21052295
:1043E0000026059B0391019207F61C4007AA02963E
:1043F0001F49FEF77FFF63782278022B2FD0032B13
:1044000027D0012B19D0F682FFDE4FF4A47000FBF9
:104410000340A830B0F91650B0F918302B44079378
:10442000D5E74FF4A47000FB03404030B0F91650BC
:10443000B0F918302B440793C9E74FF4A47303FB7A
:10444000027303F58673079ADD82551B1D8309B03D
:10445000F0BD4FF4A47303FB0273A833F3E74FF4EA
:10446000A47303FB02734033EDE700BF70D3FF1F5B
:10447000800A020038B50A4D2C783CB1012C08D1D5
:10448000FFF788FF28B100232B7038BDFFF716FF18
:1044900008B9002038BD01232B70204638BD00BF6D
:1044A000A8B9FF1F2DE9F04F88469DB0D0F86412DF
:1044B0000990BDF898A09DF89C700D929B4629B973
:1044C000764B1B680F930F9BC0F86432002F00F0EF
:1044D000BF80734B3D1F83FB0523A3EBE5750235BE
:1044E000ED00ABB2CAF13F059D424046A8BF1D4654
:1044F00018F0A6FA00EB4000430004339BB2DFF84B
:10450000A491D9F8CC0E9F422AB24FF0000628BFE2
:104510001F4603680C928DE844000FFA8AF43AB201
:104520000FFA8BF108940B921C6C0A911346089AAF
:10453000A0470121D9F8CC0E10F046FF584BD9F80E
:10454000CC4E033F83FB07230AF1040AAAB21FFAE9
:104550008AF10BF1020B073AA3EBE77705910123F0
:104560000FFA8BF107921CAA3546069102EB070B56
:10457000A6826382B24609E0079BB3EBC20F2CDD33
:104580005EB3B5F5807F28D0D9F8CC4E059BBDF839
:104590001820E28103EBC50308EB060123823A46AB
:1045A00011A818F0BBFA11A80BF82CAC18F048FAB7
:1045B000236802465B6811A920469847204615F0FB
:1045C000D9FD404618F03CFAC01BF319864205F1AC
:1045D00002029EB205F10105CED9D9F8CC0E0C9A93
:1045E0000368009201220192DC6C089A0B9B0A99E5
:1045F0002C4DA047099B93F82E31002B39D1D9F8C7
:10460000CC0E11F04DFD41F2F82359F8030012F0E1
:1046100033FD50B9214A099B1268D3F864321092D5
:104620000D99109A19448A420FD9D9F8CC0E0C9BD7
:1046300005680093002401940B9B089A0A992D6C3D
:10464000A847099B0120C3F864421DB0BDE8F08F64
:10465000404618F0F5F900EB4000CAF13F05430071
:104660000433CBF17F07102D9BB2A8BF1025FFB2FA
:1046700045E7099ED5F8CC0E96F83C41D6F8343182
:10468000B6F93221B6F93011B6F93A510294B6F9B9
:1046900038418DE8300010F063FCB0E7A0F0FF1F58
:1046A000ABAAAA2A70D3FF1F2DE9F047394C14F0AA
:1046B0001FF8236842F21072C31A934201D8BDE872
:1046C000F087064615F04AFB142860DD324D26605F
:1046D000324F334EA5F1700900244FF4A47808FB43
:1046E000049393F84421510746D493F850305A0765
:1046F00013D435F866AC36F8123CC3EB0A02102A24
:1047000003DCCAEB0303102B07DD01220021A5F116
:1047100068000CF0ABF926F812AC08FB049393F890
:10472000B8305B0714D4B5F802A03388C3EB0A0293
:10473000102A03DCCAEB0303102B09DD1AF1000277
:1047400018BF0122002128460CF090F9A6F800A01D
:1047500008FB049393F81C11C1F3800161B995F82B
:1047600070203B881FFA82FA534505D005F1680096
:104770000CF0E6F9A7F800A00134092C07F10207B4
:1047800005F5A47506F10206A9D1BDE8F087BDE8DC
:10479000F08700BFB8CDFF1FE0D3FF1F14B9FF1F84
:1047A0002AC1FF1F0246B0F884004FF6FF7188420D
:1047B0001ED092F8453018071BD092F84400C0B1C3
:1047C00010B4164803F00F03591E0478C9B2FF292C
:1047D00008BF2146022B14D0032B0CD0012B16D07E
:1047E00000214B88538010BC0223A2F842301846A7
:1047F0007047084670474FF4A47303FB0101703102
:10480000EFE74FF4A47303FB01010831E9E74FF42C
:10481000A47303FB0101D831E3E700BF70D3FF1F8E
:1048200010B51A4B1A4C93F8AA3B9B071AD490F870
:104830008810206812F01CF82068122111F0B4FFD3
:104840002068132111F0E2FF23681249124A996689
:104850005A661821114815F0F1F91148BDE81040C9
:1048600015F088BC206811F039FF2068122111F082
:104870009BFF2068132111F0C9FF1621094815F08C
:10488000DDF90748BDE8104015F074BC70D3FF1F78
:10489000EC8DFF1F9149000031080000A80A0200BA
:1048A00014AEFF1F900A020070B5114DD5F8281CF8
:1048B000D5F8240C0CF034FC95F8AA3B83F00204E4
:1048C000C4F3400464F3410306460A4885F8AA3B52
:1048D000FFF7A6FF084B304624B9196818F042F8D4
:1048E000012070BD596818F03DF8012070BD00BF6F
:1048F00070D3FF1F6CE6FF1FB896FF1F2DE9F84F1E
:10490000204DDFF884902B68DFF880A01A681269C8
:104910004A4507460E4600F1430BA8464FF00004F7
:1049200024D193F8392093F83800101A002801DDBB
:10493000B44203DBA7F88440BDE8F88F2B681A68FF
:104940005269524515D193F8382093F839109142A5
:1049500015D9511C1A4483F83810107E0BF8010F3A
:104960001A6812694A4504F10104DAD018469047E2
:10497000DCE718469047D8F80030C0B2EEE7FF20D9
:10498000ECE700BFEC8DFF1F6D0400007904000010
:1049900010B5054C01462046FFF7B0FF2046BDE8A4
:1049A0001040FFF7FFBE00BF6CE6FF1F38B50D4893
:1049B00014461D460A460C4915F0F4FB45B1254442
:1049C00014F8012B0949074815F0ECFBAC42F7D16C
:1049D0000321074815F032F90248BDE8384015F0C8
:1049E000C9BB00BF14AEFF1FC40A0200D40A0200F4
:1049F000D00A02002DE9F047DFF84490D9F80040D2
:104A00004D0084F83B500E460125216884F85E5025
:104A10001746984684F85D504B68424682463946B0
:104A2000204698472946D9F8000012F083F84346FB
:104A30003A4631465046BDE8F047FFF7B7BF00BFE2
:104A4000EC8DFF1F70B5054619461C461646FFF74C
:104A500055FFB5F88430A34200D070BD224605F161
:104A600044013046BDE8704013F042B970B5C678D5
:104A70008370022562F3030682B04219C670A0F863
:104A800042502B4604460E46FFF7B4FF0E4B2A4613
:104A900031461868012312F0D7F829462046FFF75F
:104AA0002DFFB4F84420B4F8843008490092084837
:104AB000324615F077FBB4F846004FF6FF73A4F8C2
:104AC000843002B070BD00BFEC8DFF1FDC0A020015
:104AD00014AEFF1FF0B5194B194A1B6883B0019340
:104AE0001368019D03F6B833AB4225D20821154C5B
:104AF000154E15600746154815F0A0F8144815F036
:104B000039FB5521237832783846FFF7AFFF3378E9
:104B1000082B1CBF0133D9B2237808BF0021032B17
:104B200018BF01330246317014BFDBB200230949BC
:104B30000748237015F036FB03B0F0BDA0F0FF1F4F
:104B400000B9FF1FD5B8FF1FDAEFFF1FF40A0200FC
:104B500014AEFF1F000B0200437810B5044653B19A
:104B6000204B93F8AA2B91071DD5D3F8783E002B44
:104B700034D1FFF799FD237863B9B4F884204FF658
:104B8000FF739A4204D0174B93F8AA3B9B0713D5A7
:104B9000012010BD134B93F8AA3B9A0706D5204677
:104BA000FFF798FFE9E70378002BE6D0B4F88420FC
:104BB0004FF6FF739A42EBD00B490C4815F0F2FA0E
:104BC00094F88430204604F144025521FFF7EEFEAC
:104BD0004FF6FF73A4F88430012010BD0378002B3A
:104BE000DDD1CAE770D3FF1F100B020014AEFF1F08
:104BF0002DE9F0470E4601789DF8209008290446DB
:104C0000174651D01D463F4BD0F8CC00B3F9942B3A
:104C1000B3F892EBB3F9981BA4F858204FF00108B1
:104C2000B3F8962BA4F8BE20A4F856E0A4F8C01060
:104C300084F8A08093F8B0ABD3F8AC1B13F042F823
:104C4000504616F00FFED4F8CC2016231061002138
:104C5000184684F86960237113F044FD0026102083
:104C600084F86C0084F8D170E680314613F03AFD88
:104C7000A4F86E6084F8DC6084F8D45028460DB93E
:104C8000BDE8F087022113F02DFD84F82091B9F1E1
:104C9000000F02D14046BDE8F0874846414613F078
:104CA00021FD4046BDE8F087164BB3F89A1BB3F9D7
:104CB000A02BB3F99C0BB3F89E3BA4F856104FF011
:104CC000100800210D46A4F85800A4F8BE30A4F83E
:104CD000C020404684F8696084F8048013F002FD27
:104CE000404684F86C8084F8D170E580294613F042
:104CF000F9FC84F8D450A4F86E5084F8DC502846AF
:104D0000BDE8F08770D3FF1F2DE9F84304468846BD
:104D1000164613F0EDFC2369A06113B9E369002B7B
:104D200044D072B6DFF8AC90254FD9F800103B683C
:104D30002448A569E269CB1A80FB0310D917C1EB9F
:104D4000A000062184F824101F49C5EB030EAA1AFF
:104D50000B60236A626185181C4AA06A7344A9B279
:104D6000136012F09FFFA26A6369D26A002E62F399
:104D70000F0528461FDDB040B340D9F800103A684F
:104D80000B440244C9F800303A6016F06BFD41460E
:104D900016F074FE0E4916F071FE16F0A7FFA36917
:104DA0002061E36162B60120BDE8F8832062E06122
:104DB0001846BDE8F883E0D07642F040F340DCE7E7
:104DC00060D3FF1F6766666608B9FF1FD0B8FF1F74
:104DD0000000C04050B9FF1F10B50446022094F8EF
:104DE000651001F0010113F069FC94F865100320CF
:104DF000C1F3400113F062FC94F865100420C1F384
:104E00008001BDE8104013F059BC00BF30B50F4B16
:104E10000C4683B09C424FF000014FF07F020546E4
:104E200008BFB0F904408DE80600383001AA694691
:104E3000FDF75EF9B5F95600844204DBB5F9580078
:104E4000A042A8BF204603B030BD00BFF1D8FFFF8D
:104E500038B590F83C3103F00303012B23D0022B2B
:104E60001FD190F8B83003F01F03062BB0F90830BB
:104E70001FD0B0F9701003FB01F190F850301A46C2
:104E800004466FF3461280F850200430C3F34115F6
:104E9000FFF7BCFF94F8503065F3461384F85030A8
:104EA00038BD094838BDB0F90810B0F97030194460
:104EB000E3E7B0F97020054903FB02F381FB03210E
:104EC000DB17C3EB6111D8E7F1D8FFFF1F85EB516A
:104ED000012A08B53DDD90F84C3003F01F03192B73
:104EE00040D8DFE803F0101217101010101C10103B
:104EF000101010262610101010102E2E0D0D101749
:104F00000B7880F83A30104608BD0B88A0F85C306A
:104F1000104608BD0B7880F83930104608BD124B9A
:104F2000D3F8A41BC16393F9A83B80F84030104626
:104F300008BD0B7880F85B304B7880F85A3010460B
:104F400008BD0B7880F839304B7880F83B3010463C
:104F500008BD2221054814F071FE054815F00AF934
:104F6000002008BD002008BD70D3FF1F200B0200E9
:104F700014AEFF1F2DE9F84390F83450594E5A4CA7
:104F8000002D08BF3446154614BF0A270D277D297A
:104F900000F2A680DFE801F046A4A4A4A4A4A4A47F
:104FA000A4A4A4A4A4A4A4A4A4A4A4A4A4A4A4A4C1
:104FB000A4A4A4A4A4A4A4A4A4A4A4A4A4A4A4A4B1
:104FC000A4A4A4A4A4A4A4A4A4A4A4A4A4A4A4A4A1
:104FD000A4A4A4A4A4A4A4A4A4A4A4A4A4A4A4A491
:104FE000A4A4A4A4A4A4A4A4A4A4A4A4A4A4A4A481
:104FF000A4A4A4A4A4A4A4A4A4A4A4A4A4A4A4A471
:10500000A4A4A4A4A4A4A4A4A45D6C6267717A80DF
:10501000868C92989E3F2A7880F84C201D46284620
:10502000BDE8F88307EB4707033FDFF8C090A846C9
:10503000064627442379617919F803302A46304619
:10504000FFF798FF0334A7420544F3D1C8EB0505E9
:10505000E5E72A7880F838201D46E0E72A7880F8CE
:1050600043201D46DBE72A8880F844201D46D6E70A
:105070002A7880F842201D46D1E7297890F84C2004
:1050800061F304021D4680F84C20C8E7B5F9002002
:10509000A0F84E201D46C2E7B5F90020A0F8502028
:1050A0001D46BCE7B5F90020A0F852201D46B6E722
:1050B000B5F90020A0F854201D46B0E7B5F900204E
:1050C000A0F856201D46AAE7B5F90020A0F8582000
:1050D0001D46A4E71A462946BDE8F843FFF7F8BE87
:1050E00000259CE724030200D8020200C40202004B
:1050F00010B58AB004462822684613F085F86A463F
:10510000204628230021FFF735FF94F83430002B88
:1051100014BF0E2018200AB010BD00BF012A08B528
:1051200033DD90F84C3003F01F03192B36D8DFE83D
:1051300003F0101217101010101010101010101C87
:105140001C101010101024240D0D101790F83A3078
:105150000B70104608BDB0F85C300B80104608BDDF
:1051600090F839300B70104608BD90F85B300B702A
:1051700090F85A304B70104608BD90F839300B70DB
:1051800090F83B304B70104608BD2221044814F0C3
:1051900055FD044814F0EEFF002008BD002008BDB6
:1051A000440B020014AEFF1F2DE9F84390F8345071
:1051B000614E624C002D90460ABF34460A270D27E7
:1051C0007D2900F2B580DFE801F046B3B3B3B3B395
:1051D000B3B3B3B3B3B3B3B3B3B3B3B3B3B3B3B39F
:1051E000B3B3B3B3B3B3B3B3B3B3B3B3B3B3B3B38F
:1051F000B3B3B3B3B3B3B3B3B3B3B3B3B3B3B3B37F
:10520000B3B3B3B3B3B3B3B3B3B3B3B3B3B3B3B36E
:10521000B3B3B3B3B3B3B3B3B3B3B3B3B3B3B3B35E
:10522000B3B3B3B3B3B3B3B3B3B3B3B3B3B3B3B34E
:10523000B3B3B3B3B3B3B3B3B3B3B35E73656C7AA1
:10524000838A91989FA6AD3F90F84C2088F8002063
:105250001846BDE8F88307EB4707033FDFF8E09007
:105260000646274445462379617919F803302A46D2
:105270003046FFF799FF0334BC420544F3D1C8EB35
:105280000500BDE8F88390F8382088F8002018461B
:10529000BDE8F88390F8432088F800201846BDE860
:1052A000F88390F84420A8F800201846BDE8F88359
:1052B00090F8422088F800201846BDE8F88390F85E
:1052C0004C20C2F3040288F800201846BDE8F88399
:1052D000B0F94E20A8F800201846BDE8F883B0F9D0
:1052E0005020A8F800201846BDE8F883B0F95220F5
:1052F000A8F800201846BDE8F883B0F95420A8F8B3
:1053000000201846BDE8F883B0F95620A8F8002020
:105310001846BDE8F883B0F95820A8F800201846D0
:10532000BDE8F8831A464146BDE8F843FFF7F6BEEC
:105330000020BDE8F88300BF24030200D802020069
:10534000C4020200F0B58BB00E466A462823002145
:105350000746FFF729FF314602460546684612F028
:105360009DFF97F834301648002B4FF00D0114BF05
:105370000E24182414F062FC00230A223978114804
:1053800014F01EFF0221104814F058FC31460D485D
:1053900014F056FF01210D4814F050FC294609482D
:1053A00014F04EFF0121094814F048FC214605483D
:1053B00014F046FF034814F0DDFE20460BB0F0BDAC
:1053C000680B020014AEFF1F1810020064080200F0
:1053D000012A08B524DD90F848300E2B29D8DFE8E3
:1053E00003F01A1A0808100E0E0E0E0E0E0E0E0EF8
:1053F0000E000B7880F835304B7880F83730104647
:1054000008BD0D4BD3F8A41B816393F9A83B80F82A
:105410003C30104608BD0B7880F83630104608BD89
:105420002221064814F00AFC054814F0A3FE0020CF
:1054300008BD002008BD00BF70D3FF1F200B020075
:1054400014AEFF1F80292DE9F843144644D00AD931
:10545000822932D025D3832935D11A462146BDE889
:10546000F843FFF7B5BF7E2930D020D859BB1D4D7A
:10547000DFF874900646174605F11208144601231A
:105480007E2103E02B79697919F8033022463046F2
:10549000FFF7D8FF033545450444F3D1E01BBDE8D1
:1054A000F883128880F840201846BDE8F883127807
:1054B00080F83E201846BDE8F883127880F848202E
:1054C0001846BDE8F8830020BDE8F883127880F81C
:1054D00034201846BDE8F883127880F83F2018463B
:1054E000BDE8F8834C030200C402020010B586B088
:1054F00004461822684612F087FE6A4620461823A2
:105500000021FFF79FFF082006B010BD70B50546CB
:1055100008460E4612F05EFE95F83C31B41C60F36E
:10552000010385F83C31214605F1D400FFF7DEFF89
:1055300004442146281DFFF7DBFD0444214605F104
:105540006C00FFF7D5FD2044831B2A7802490348ED
:1055500014F028FE302070BD780B020014AEFF1F3F
:10556000012A10B514DD90F848400E2C17D80123FD
:10557000A34047F6F0741C409CB913F00C0F12D1F5
:1055800013F003030BD090F836300B70104610BDAB
:105590002221094814F052FB084814F0EBFD0020CA
:1055A00010BD104610BD90F835300B7090F83730B4
:1055B0004B70104610BD00BF200B020014AEFF1F41
:1055C00080292DE9F843144644D00AD9822932D0E3
:1055D00025D3832935D11A462146BDE8F843FFF784
:1055E000BFBF7E2930D020D859BB1D4DDFF8749045
:1055F0000646174605F11208144601237E2103E0F2
:105600002B79697919F8033022463046FFF7D8FF25
:10561000033545450444F3D1E01BBDE8F88390F819
:10562000402022801846BDE8F88390F83E20227082
:105630001846BDE8F88390F8482022701846BDE867
:10564000F8830020BDE8F88390F8342022701846D3
:10565000BDE8F88390F83F2022701846BDE8F88333
:105660004C030200C40202002DE9F04186B00F464F
:1056700018236A4600218046FFF7A2FF184C194DF7
:10568000024606463946684612F008FE0E211648C4
:1056900014F0D4FA00230A2298F80010204614F0DF
:1056A0008FFD0221114814F0C9FA3946204614F042
:1056B000C7FD2846012114F0C1FA3146204614F0F6
:1056C000BFFD2846012114F0B9FA0821204614F044
:1056D000B7FD204614F04EFD082006B0BDE8F0816D
:1056E00014AEFF1F64080200980B0200181002009D
:1056F00070B5054682B095F83C3102A8C3F30103AA
:1057000000F8013D01228C1C0E4612F0C7FD214617
:1057100005F1D400FFF7A8FF04442146281DFFF738
:1057200011FE0444214605F16C00FFF70BFE132126
:105730000444164814F082FA00230A2229781448F7
:1057400014F03EFD0221134814F078FA3146104857
:1057500014F076FDA61B01210F4814F06FFA3146B4
:105760000B4814F06DFD01210B4814F067FA214637
:10577000074814F065FD064814F0FCFC2B78082B54
:105780000CBF3046302002B070BD00BFA80B020035
:1057900014AEFF1F181002006408020070B5FA2949
:1057A00082B00C46054639D3FB2923D9FC2935D1D3
:1057B000214E2249002385F82030142206F65C5041
:1057C00017F0ACF91E4B1B68019342F21072019B5B
:1057D000C6F85C2EC6F8603E200240F00F0013F0C1
:1057E000FDFEAB6A5B6D1868036821461B6898472D
:1057F00002B070BD104E1349012385F820301422E9
:1058000006F65C5017F08AF90D4B1B68009342F2C4
:105810001072009BC6F85C2EC6F8603E04F10803C7
:10582000DBB2072BE4D8012202FA03F313F0DD0FF9
:10583000D2D102B070BD00BF70D3FF1FC80B0200F1
:10584000A0F0FF1FBC0B020038B5044612F050FF59
:10585000236A2269C31A9A42054616D36369E2692C
:1058600003EB4303AD1AAB420ED20C4D0C480D496D
:105870000D4A00232B602361E3612362636184F896
:10588000243003600B60136038BDF8210748FFF730
:1058900085FF226A236913442362DFE7D0B8FF1F24
:1058A00008B9FF1F50B9FF1F60D3FF1FF4E1FF1FAE
:1058B0002DE9F84F234A244D41F28833D75C002F5D
:1058C0003ED0DFF890B0DFF890A00BF104092A4633
:1058D00007F10108012411E01BF8013FC2F810A0F4
:1058E0004033167559F823301046996817F03AF886
:1058F00001340246BC4202F118020EDCE6B2731E0D
:105900004445DBB2E8D103EB430305EBC3030022BC
:10591000C3F810A01E759368FFDE37460B4B0C4C86
:1059200093E8070007EB470705EBC70503C525F814
:10593000022B120C00232A7063713046BDE8F88FE9
:105940003E46EBE770D3FF1F4CC4FF1FD00B020095
:10595000B0CDFF1FF8E6FF1F797E00002DE9F84368
:105960003D4B59781A78022965D003295DD0012969
:1059700002D00023DB7CFFDE4FF4A47101FB023375
:1059800003F58673DA7C354B02F1400153F8218030
:10599000B8F1000F55D0324B324E334F376193E898
:1059A0000300FF233060B1803375B8F80250B8F8B7
:1059B00004309D424DDC2D4B012403EB850912E0A0
:1059C00098F8023004EB440006EBC000EB1A0375B4
:1059D0001168076116F0C6FFB8F8043001350134CC
:1059E000AB42E4B20FDB59F8042B002AE8D10521C1
:1059F0001B4814F023F91E4814F0BCFBB8F804301F
:105A00000135AB42EFDA23461A4A1B4D92E80300F8
:105A100003EB4303DB00F218F0500F0C00239180DE
:105A200097716B712046BDE8F8834FF4A47101FBB8
:105A30000233A833A6E74FF4A47101FB02334033CD
:105A4000A0E70E490A48444614F0ACFB2046BDE8E6
:105A5000F88301231C46D7E770D3FF1FFCE6FF1F26
:105A6000E80B02004CC4FF1F057C00000CA2FF1FC6
:105A700014AEFF1FF00B0200B0CDFF1FDC0B0200C5
:105A80002DE9F84F8A46002961D0404BDFF820818C
:105A90003F4AC8F8102093E8030000230A0CC8F816
:105AA0000000A8F8041088F8062088F814300127B0
:105AB000384DC82405F1690B07E0BAF1000F36D163
:105AC00007350134AB45E4B220D02B78002BF4D05D
:105AD0007E0006EB070908EBC9094846062229465D
