:1000000000800020BD010000952801004D2801005E
:100010004D2801004D2801004D2801004D28010008
:100020004D2801004D2801004D28010095280100B0
:10003000952801004D280100C9430100CD4301006E
:1000400095280100952801009528010095280100B8
:1000500095280100952801009528010095280100A8
:100060009528010095280100952801009528010098
:100070009528010095280100952801009528010088
:100080009528010095280100952801009528010078
:100090009528010095280100952801009528010068
:1000A0004D13010059130100952801009528010006
:1000B0009528010095280100952801009528010048
:1000C0009528010095280100952801009528010038
:1000D0009528010095280100952801009528010028
:1000E0009528010095280100952801009528010018
:1000F00095280100955001009528010095280100E0
:1001000095280100952801009528010095280100F7
:1001100095280100952801009528010095280100E7
:1001200095280100952801009528010095280100D7
:1001300095280100952801009528010095280100C7
:1001400095280100952801009528010095280100B7
:10015000B9450100CD450100E1450100F54501002B
:1001600095280100452F01009528010095280100E0
:100170009528010095280100952801009528010087
:100180009528010095280100952801009528010077
:100190009528010095280100952801009528010067
:1001A0009528010095280100952801009528010057
:1001B000952801009528010095280100564B4CF226
:1001C000205210B51A804DF628121A8000BF00BFC9
:1001D00012F064FB514B4FF010621A60504A9A6063
:1001E000504ADA60504A136813F4807304D14F49BF
:1001F0000B604FF4A85313604D4B1A78110703D5C9
:100200001A7842F008021A704A4B4B492A221A7097
:100210004A4A4B4B8B4204D252F8040F43F8040B6A
:10022000F8E7484B484900228B4202D243F8042B9E
:10023000FAE74649464A002352F8230041F82300D2
:1002400001336F2BF8D1434B434A802103F8011B44
:100250009342FBD1414B3D4A1A60414B8A221A70AE
:10026000A3F5805324225A70A0221A709A7992071B
:10027000FCD59A79D406FCD43A4A937903F00C035E
:10028000082B384BF9D103221A7140225A719A79FE
:100290009006FCD5334A9179324B4906FBD5324A58
:1002A000324911600221516020221A709A7902F0BD
:1002B0000C020C2AFAD12E4B2E4A1A602E4B2F4AD2
:1002C0001A6000225A60072243F8042C2C4AC3F813
:1002D0000C2D62B612F0DCFC144B1B68DA0705D556
:1002E000284812F039FC284B284A1A60284B1B7802
:1002F0005B0609D5244C254B22689A4204D121483B
:1003000012F02AFC0023236015F0ACFF12F0CCFAA7
:1003100014F0D6FAFEE700BF0E20054030800440FE
:10032000823F04000100002B10D0034014D0034092
:1003300002D0074000E0074030AEFF1FC8C90100EF
:10034000308CFF1F30AEFF1F78E0FF1F0082FF1FC1
:100350000000000000E400E05FE400E008ED00E0E1
:100360000050064000400640448004400000030165
:1003700004800440C010050014E000E0FF76010096
:100380000000202012C2465F1CE00340A5C3945A1F
:1003900000F00740FFFFFFFFFFFFFFFFFFFFFFFF32
:1003A000FFFFFFFFFFFFFFFFFFFFFFFFFFFFFFFF5D
:1003B000FFFFFFFFFFFFFFFFFFFFFFFFFFFFFFFF4D
:1003C000FFFFFFFFFFFFFFFFFFFFFFFFFFFFFFFF3D
:1003D000FFFFFFFFFFFFFFFFFFFFFFFFFFFFFFFF2D
:1003E000FFFFFFFFFFFFFFFFFFFFFFFFFFFFFFFF1D
:1003F000FFFFFFFFFFFFFFFFFFFFFFFFFFFFFFFF0D
:10040000FFFFFFFFFFFFFFFFFFFFFFFFDEF9FFFF23
:1004100010B5054C237833B9044B13B10448AFF33E
:1004200000800123237010BD30AEFF1F00000000CC
:10043000C4C90100084B10B51BB108490848AFF307
:1004400000800848036803B910BD074B002BFBD0A0
:10045000BDE81040184700BF0000000034AEFF1F89
:10046000C4C9010030AEFF1F00000000704700BF8C
:10047000064A074908B51378D1F8000E83F0010346
:100480001946137010F054FC012008BDBCB8FF1FC2
:1004900078C7FF1F70B5294C0546D4F8FC0D11F044
:1004A00085FAB4F8B63AB4F8B42A181A83B293426B
:1004B000A4F8B63A2CD014D86A69002AC4BF02F155
:1004C000FF326A61AA685279022A27D04FF0FF30C2
:1004D000FF22A4F8B43A012185F8632285F862125C
:1004E00070BDA8686E690EF077FD2B69C01A864250
:1004F00002DA6B6901336B61AB685B79022B09D15E
:1005000023780E4A072B12D9B2F8B63AA4F8B43AB7
:10051000002070BDB4F8B63A0120D9E72278074927
:10052000002AF3D0013A0A704FF0FF30D0E70133D0
:1005300013700120B2F8B63ACAE700BF78C7FF1FB0
:10054000024BD3F8FC0D11F0A7B900BF78C7FF1F0D
:1005500010B5044600F6F45014F00CF804F6EC5014
:1005600014F008F8204610BD234B1B6803F1640209
:10057000904270B504DA643B984201DD022070BD00
:100580001E4B1B6803F16402904204DA643B9842FC
:1005900001DD032070BD1A4B1D680446B5F9480003
:1005A000C0F13C0015F0C2FB0646B5F94A0015F053
:1005B000BDFB0146304615F0C1FC0646286D15F01E
:1005C000B5FB0146304615F005FC0646E86C15F013
:1005D000ADFB0146304615F0F5FA15F0C1FD00F10E
:1005E00064039C4205DA64388442D4BF00200120B1
:1005F00070BD002070BD00BFECB0FF1FF0B0FF1F4A
:1006000048C2FF1FF8B5427A05460E4602B30123E1
:100610000A701C46A97A89B1C7291CD93831C9B2D8
:10062000164FC1EBC1010F44F018394616F0FAFB22
:10063000384616F065FC2044C4B22346EA7A1AB163
:100640000134E4B2F25423460022F2542046F8BDAD
:1006500013461446DEE70A4FC1EBC101F0183944D6
:10066000062216F0BBFCA87AC0EBC000384416F096
:1006700047FC2044C4B22346E0E700BF5ED2FF1F20
:1006800008A801002DE9F0411A4D41F22C2406463C
:10069000285911F0B7F838B3B3685B79022B15D03D
:1006A00041F22C27DFF84C80E85911F0AFF80446EE
:1006B00010B92046BDE8F08158F8070011F04EF857
:1006C0000023C6F854322046BDE8F081D6F85432F3
:1006D000B3F57A7FE4D90124002385F88E4C2046B7
:1006E000C6F85432BDE8F081285911F07FF8C6F8F9
:1006F0005402D1E778C7FF1F0120704701207047DF
:100700002DE9F04F2F4D304FD5F8003E83B01A68D9
:1007100000264FF01A080196CDF80080146C82462E
:100720002D22184631467B23A047D5F8000E012123
:100730000FF08CFBD5F8004E24492368A6822A22AC
:100740004FF001094FF0040B5B682282A4F812906D
:100750000822A4F80EB020469847204613F06AFFFE
:100760001B4BD5F8004E53F82AA0A4F80EB0322344
:100770002382504616F0C4FB2368024651465B684C
:1007800020469847204613F055FFD5F8000E036821
:100790008DE8000325223146DC6C7B23A04712F054
:1007A00007FA3B6847F22F52C01A904206D9D5F893
:1007B000000E10F0B7F912F0FBF9386003B0BDE895
:1007C000F08F00BF78C7FF1F74C7FF1FB8AB0100D1
:1007D000D098FF1F2DE9F04390F963325D4E01334D
:1007E000044687B04FF00101D6F8000E5CD00FF040
:1007F0002DFB25696369A0681D440EF0EDFB854261
:1008000080F2A280276963691F4494F96382E368D8
:100810009845D6F8003E07BF0021012201210022A1
:1008200002AD59829A822946424620460EF038FC93
:10083000284616F065FB0D2807DC28440DF116024A
:10084000202300F8013B9042FBD16169E369D6F8AF
:10085000006EA269C1EB0808093303EBC8034FF02F
:1008600000098DF816902846F281338216F048FB75
:10087000336802465B68294630469847304613F095
:10088000D9FE94F8633201335BB2BB4284F8633221
:1008900002D007B0BDE8F083FF2384F8629284F8A9
:1008A000633207B0BDE8F0830FF0D0FAA368D6F842
:1008B000002E1F68002101205082918218460EF000
:1008C0008BFB00B200EB400102AD07EBC1010E2231
:1008D000284616F083FB284616F012FB0D2807DC8D
:1008E00028440DF11602202300F8013B9042FBD171
:1008F000D6F8007EB4F91C30A26900218DF81610DC
:100900002846FA813B8216F0FBFA3B6802462946EC
:100910005B6838469847384613F08CFEE269D6F893
:10092000000EA1690568083212B201238DE80C009F
:1009300001F15403AD6C1BB209B2A847636984F896
:10094000633207B0BDE8F083A0680EF045FB0746B0
:100950005BE700BF78C7FF1F2DE9F04FBB4CBB4ED4
:100960006378012BBA4B1B688FB018698CBF93F961
:10097000407093F93C7015F0D5F9B64915F0DEFAE0
:100980000146B54815F0DAFAB44915F0D7FA8046B1
:10099000D4F8000E00250368019540220092D3F898
:1009A00040902A4680232946C8470121D4F8000EEA
:1009B0000FF04CFAD4F8000EA94903688582012291
:1009C0005B684282C5810322058298472178D4F86A
:1009D000000E013113F094FE6378022B00F05E816B
:1009E000032B00F05381012B00F0A7809D4ED4F81B
:1009F000000E33680122002B40F09B8043828282EC
:100A0000036899495B68062298473368D4F8005E0A
:100A1000012B00F01681012200236A82AB822B6831
:100A200092495B68DFF824A20422284698472846AA
:100A300013F000FED4F8005E8D492B684FF00009DA
:100A40000C224FF0010B5B682A82A5F812B012222B
:100A5000A5F81490A5F80E9028469847284613F05C
:100A6000E9FDD4F8000E14230382A0F80E900221B1
:100A70000FF0ECF93368022B67D00537D4F8005E2D
:100A8000FAB2012000210A2A6882A9826BD9022BBE
:100A90007AD007AF2B6877495B684FF001094FF0B8
:100AA000000A0222A5F81290A5F814A0284698473B
:100AB000404614F05DFD0B4602466F49384616F07D
:100AC0008BF93368D4F8005E032B00F08980012293
:100AD00000236A82AB82384616F012FA2B6802466F
:100AE0005B68394628469847284613F0A3FD3368CB
:100AF000032B7FD00121D4F8000E604D534E0FF030
:100B0000A5F9D4F8003E002201219A82598212F000
:100B10004FF82B6847F22F52C01A904206D9D6F8E8
:100B2000000E0FF0FFFF12F043F828600FB0BDE891
:100B3000F08F00234282838262E7D6F8000E50498C
:100B4000036806225B68984750E74E4A1278002AED
:100B500093D00537DAF8005EFBB20A2BA5F81290A5
:100B6000A5F814B095D8484B53F82790484616F08E
:100B7000C7F92B6802465B682846494698473368A0
:100B8000D4F8005E022B84D13E4B1A78002A80D123
:100B90003D4B0DF11A0C53F82710CDF808C00DF19C
:100BA000180E0DF1160307AF28468DE8084003978D
:100BB00014230FF08BFAD4F8000EBDF91C10056851
:100BC00000914FF0010ECDF804E0ED6CBDF91A3044
:100BD000BDF91820BDF91610A847D4F8005E59E7F2
:100BE000284B1B78002B3FF472AFA5F812A0A5F894
:100BF000149070E7234B1B78002B7FF47BAF0DF133
:100C00001A0606AD0DF1160205ABD4F8000E0396D8
:100C100039460295019200933C2214230FF056FAB4
:100C2000D4F8000EBDF91A600568009601260196F9
:100C3000BDF91830BDF91620BDF91410ED6CA847A8
:100C400058E70022AB826A82E9E600BF78C7FF1F3F
:100C500048C2FF1F00007A4400606A470000C0419C
:100C6000C4AB01009CB0FF1FE0AB0100E8AB01008A
:100C7000F0AB0100DCAB010004AC010070B0FF1F61
:100C8000C8AB01008499FF1F6094FF1FD6F8000EC7
:100C90000649036806225B689847A7E6D6F8000E67
:100CA0000349036806225B6898479FE6D8AB0100BA
:100CB000D0AB010070B5044608460D4616F020F989
:100CC00023680246294620465B68BDE87040184705
:100CD0002DE9F04F002387B00122437000F6B423C2
:100CE0000270041D0493059000274FF619494FF038
:100CF0000003237327616761A761E7612762676269
:100D000084F828702771E7802781A4F80A9038209A
:100D100013F0DEFD39463A46EF4B834611F020FAD8
:100D200094F84A30C4F82CB003F0800367F3C7137B
:100D300084F84A30E94B63634FF03C0384F83E305B
:100D40004FF0280384F83F30E54B63654FF07F0395
:100D500084F85C3084F85D304FF47A73A4F85E3028
:100D6000E04BCBF810300125782640F6FF7A4FF0A3
:100D7000FF084FF07E524FF6FF732264A4F84E60D6
:100D8000A4F85A6084F8317084F8387084F844709C
:100D900084F8457084F8467084F84770A4F84C7065
:100DA000A4F8587084F83C5084F83D50A4F848509A
:100DB000C4F850A084F86480CBF8043084F8305034
:100DC000382013F085FD2A4683463946C64B11F07C
:100DD000C7F94FF08043C4F860B084F86570A4F898
:100DE0006E906767A767E767C4F88070C4F884707F
:100DF000C4F8887084F88C7084F86870A4F86A70FD
:100E0000A4F86C7084F87070CBF810302781CBF8A0
:100E100004A0382013F05CFD39463A46AE4B8346B9
:100E200011F09EF994F8AE30AC4AC4F898204FF017
:100E30003C0284F8A22003F080034FF0280284F8DB
:100E4000A32067F3C713A64AC4F8B82084F8AE30CD
:100E50004FF07F024FF0010384F8C02084F8C120D6
:100E600084F894304FF47A724FF6FF73A4F8C220DE
:100E7000CBF804304FF07E529A4BA4F8B260A4F83D
:100E8000BE60C4F8A420C4F890B084F8957084F8CB
:100E90009C7084F8A05084F8A15084F8A87084F85D
:100EA000A97084F8AA7084F8AB70A4F8AC50A4F8C8
:100EB000B070C4F8B4A0A4F8BC7084F8C880CBF8B3
:100EC0001030382013F004FD2A4606463946864B7A
:100ED00011F046F94FF08043C4F8C460A4F8D290F2
:100EE000A4F86C7084F8C970C4F8D870C4F8DC70C9
:100EF000C4F8E070C4F8E470C4F8E870C4F8EC70AA
:100F000084F8F07084F8CC70A4F8CE70A4F8D07097
:100F100084F8D4703361C6F804A0382013F0D8FCEC
:100F20006D4B3A463946064611F01AF96B4BC4F838
:100F3000FC304FF03C0384F802314FF0280384F872
:100F400003314FF07E53C4F804314FF6FF737360E2
:100F5000644B3361049BC4F8F46084F8F97084F83E
:100F6000F85084F8005184F8015184F8087184F82D
:100F7000097184F80A7184F80B71A4F80C5184F893
:100F80000E7184F8108184F81471C4F81871C4F8D3
:100F9000247184F8287184F82C7184F82F7184F8F6
:100FA0002E7184F82D7184F8008004F598749C42A9
:100FB0007FF49AAEDDF81490494899F8E53AC9F8FB
:100FC000D80A4FF0FF32A9F8B42A4FF0000289F88E
:100FD000B82A4FF47A70424AC9F8C02A2B4347F224
:100FE0003051C9F8D02AA9F8DC0A404A89F8E53A14
:100FF0004FF0000089F8E40AA9F8B61AC9F8E02A07
:1010000039466922C9F8BCAAC9F8C47AC9F8C8AA7D
:10101000C9F8CCAAC9F8D4AA09F6E62015F088FCCC
:1010200009F535600DF0DAFF314BC9F8503B4FF050
:10103000000289F8702B89F87E2C3946FB22C9F80A
:10104000747CA9F87C7CC9F8907C09F6944015F072
:101050006FFC4FF0000389F8A83D89F8A93D89F895
:10106000B03D89F8B23D4FF0010389F88D3C4FF057
:10107000000389F88E3C89F88F3C4FF0010336213C
:101080001C4A89F8D83D07244FF0000309F6C750E1
:1010900089F8E43DC9F8681BC9F8E02DC9F8907DCE
:1010A000C9F8947DC9F8987DC9F89C7DC9F8A07DE0
:1010B000C9F8A47DC9F8AC7D89F8B18D89F8B38DE4
:1010C000C9F8B47DC9F8647BC9F86C7BC9F8DC7DCC
:1010D0007F23C9F8604B0FE017B7D1389F86010016
:1010E00001F0FFFF000060420AD7233C9A99993F24
:1010F00094B80100D4D9FF1F014609F6B75202F88F
:10110000013F824201F8013FF9D141F2E81641F274
:10111000EC1541F2F01441F2F41041F22A2141F2AF
:101120002B23002249F8062009F8052049F804205D
:1011300049F80020962409F801204FF4157009F8A9
:1011400003204FF4BA61802340F2124740F28E76BA
:1011500089F8F03D89F8F83D40F64C15C9F8044E81
:10116000C9F8080E40F60A3440F6C84009F58F5316
:10117000C9F8101E09F59151C9F8EC2DC9F8F42DE4
:1011800089F8242EC9F80C7EC9F8146EC9F8185EC7
:10119000C9F81C4EC9F8200E1733093103F8012F86
:1011A0008B424FF00004F9D1942013F091FB0546D7
:1011B00010F026FCC9F8E85D182013F089FB042321
:1011C000072206218DE818000546FF2310F028FBB2
:1011D000C9F8FC5D102013F07BFB044610F08CFA7C
:1011E00041F22C230F4849F8034010F061F90E2119
:1011F0000C4810F0C5F9642013F06AFB0A4B039306
:10120000092108220A238DE80E00064B4022802186
:1012100004460FF017F84846C9F8004E07B0BDE87D
:10122000F08F00BF5CA2FF1F00127A000369F3B1C8
:1012300010B516490278096882B0012A0191019916
:1012400016D04468C26822448A420ED2002B416004
:1012500002DD013B036143B1037D5AB20121002A43
:10126000017002DD184611F089FC02B010BD704714
:101270004268836813448B42F7D2037D41605AB2BF
:1012800000218A420170EDDCEFE700BFCCDCFF1FDC
:1012900070B5064E41F22C25705910F0B7FA04468D
:1012A00010B1705910F05AFA204670BD78C7FF1F70
:1012B00038B5144C0546D4F8FC0D10F077FBB4F8A3
:1012C000B63AB4F8B42A181A83B29342A4F8B63ADC
:1012D00015D00D4A11680AD80029CCBF01F1FF31A1
:1012E000002111604FF0FF30A4F8B43A38BDA94294
:1012F000B8BF013111600120A4F8B43A38BD002014
:1013000038BD00BF78C7FF1F9CB0FF1F2DE9F04F0D
:10131000DFF87092DFF87082D9F8000E8FB00024E9
:1013200003680194402200921D6C224680232146CE
:10133000A847D9F8000E01210EF088FDD9F8000E5B
:1013400084490368848201255B68C4810822048281
:101350004582984799F80010D9F8000E294413F0F7
:10136000CFF9D9F8000E7C49036807225B689847DB
:10137000D8F80000002800F0D58014F0D7FC4FF01A
:101380007C5114F027FD14F0F3F8D9F8004E0095C5
:1013900002460B46204613F0BBF9D9F8004E6F49C0
:1013A00023682A465B6820469847204613F042F996
:1013B000002306936A4B07930E230593059B079E14
:1013C000043B1BB20493069B1D4603EB43030393AC
:1013D00000240127039BD8F80020D9F800AEEB18B1
:1013E0009A4200F098804FF00003AAF81270AAF811
:1013F00014300FFA84FBBDF81030AAF8103009A899
:10140000AAF80EB0002D00F0998015F079FDDAF8F9
:10141000003002465B6809A950469847504613F0D1
:1014200009F93378002B6AD11E34A4B2782C06F166
:10143000010605F10105CDD1059B069A09339BB242
:101440000593079B01320433052A06920793B5D111
:10145000D9F8000E43490368434D5E680124002318
:1014600037220282448204228382C381B0473F4BE9
:10147000D9F8000E196813F043F9D9F8000E3C4969
:10148000036822465B6898472968D9F8000E13F074
:1014900037F9D9F8000E3649036822465B68984749
:1014A000344B28681D686B68C01A14F03FFC064670
:1014B000A86814F03BFC0146304614F03FFD2E496D
:1014C00014F088FC14F054F8D9F8005E02260246A5
:1014D0000B460096284613F01BF9D9F8005E1F4909
:1014E0002B6822465B6828469847284613F0A2F8E6
:1014F000D9F8000E0FF016FB0FB0BDE8F08FD9F849
:10150000000EBDF9142003680097D3F83CA059469B
:101510001823D04788E74FF00003AAF81230AAF842
:10152000147066E7D9F8004E1449236820465B68BA
:1015300003229847204613F07DF839E7DAF80030A7
:101540000F495B68042250469847504613F072F8E2
:101550006AE700BF0CAC010018AC010020AC010030
:1015600010B3FF1F28AC01001C97FF1F2C92FF1F18
:1015700030AC010018B1FF1F0000204124AC010075
:10158000E8AB010078C7FF1F9CB0FF1F2DE9F04FAB
:10159000994B9A4C1B689A4AD4F8000E1168D3F8FC
:1015A00004B09B68026891F8466085B000250393FB
:1015B00040238DE8280029468023176C2A46B84727
:1015C000D4F8000E01210EF041FCD4F8000E8D4934
:1015D0000368858201224282C58105825B680322FD
:1015E000984721780729C6F3411640F2D8806378DE
:1015F000D4F8000E022B03680CBF834983495B6853
:1016000005229847824FD4F8000E3B680122002B38
:1016100040F0C1804382828203687E495B68082271
:1016200098473B68D4F8005E012B00F0C980012286
:1016300000236A82AB822B6877495B68DFF8BCA124
:10164000032228469847284612F0F4FFD4F8005E9B
:1016500072492B684FF000084FF0010911225B68B6
:101660002A82A5F812901022A5F81480A5F80E8001
:1016700028469847284612F0DDFF3B68DAF8000E4E
:101680005E4D022B4FF01B030382036807BFA0F8D7
:101690001280A0F81490A0F81290A0F814800022F4
:1016A000022E0CBF5E495F49C2815B6810229847D9
:1016B0003B68D4F8000E032B0CBF01230023838268
:1016C0004FF025030CBF00220122038203684282EF
:1016D000022E4FF000020CBF53495449C2815B688F
:1016E00010229847D4F8000E514903685F6801231F
:1016F00043823723038200238382C3810422B847B5
:101700004C4B1B68002B0EDD4B4FD5F8005E03EBF6
:1017100083031F44384615F0F3FB2B680246394615
:101720005B6828469847D4F8000E44490368334D57
:101730005B6803229847424B1868022ECBEB0000EF
:1017400042D014F0F3FA0646039814F0EFFA01467B
:10175000304614F0F3FB3B4914F03CFB13F008FF58
:10176000D5F8005E022602460B460096284612F087
:10177000CFFFD4F8005E34492B6801225B6828460D
:101780009847284612F056FFD4F8000E05B0BDE881
:10179000F04F0FF0C7B90023428283823CE701314A
:1017A000D4F8000E12F0ACFF6378D4F8000E022BD0
:1017B00003680CBF254926495B680522984721E745
:1017C0000022AB826A8236E714F0B0FA074603982B
:1017D00014F0ACFA0146384614F0B0FB1D4914F081
:1017E000F9FA13F0C5FED5F8005E009602460B46E6
:1017F000284612F08DFFBCE718B1FF1F78C7FF1F06
:1018000048C2FF1FC4AB010034AC01003CAC010076
:101810009CB0FF1F54AC010024AC010060AC01007F
:1018200074AC010088AC01009CAC0100B0AC0100BC
:1018300028AC01002C92FF1F58A90100C4AC010084
:101840001C97FF1F0000204120AC010044AC0100A8
:101850004CAC01000000A0402DE9F04FDFF82C92C5
:10186000814DD9F8000E8BB000240368019440220A
:1018700000921E6C224680232146B047D9F8000E04
:1018800001210EF0E3FAD9F8000E78490368C4810B
:1018900001265B680482848246820A2298472B686C
:1018A000D9F8000E002B40F0D7804382868203686F
:1018B0006F495B68082298472B68D9F8004E012BC6
:1018C00000F0CD80012200236282A3822368694A4E
:1018D00069495B680292204603229847204612F02D
:1018E000A9FED9F8004E65492368654D5B684FF045
:1018F00000080A2201262282A4F80E801422A4F8ED
:101900001280A68220469847204612F093FED9F80E
:10191000004E5C492368A4F80E8025225B68228271
:10192000204614229847204612F084FED9F800AED3
:10193000554B0393AAF81260AAF81480029B4FEA51
:10194000A80606EB460653F804BF029306EBC6064C
:1019500008F003074FF0000CB6B2C7EB071706F10B
:1019600013037F00E345AAF81030AAF80E708DF833
:1019700018C062DB05AB06AC9C44A64601209BFB6D
:10198000F0F385FB0321DA17C2EBA10202EB82021E
:10199000A3EB420330330EF8013D00EB8000E64537
:1019A0004FEA4000EBD105A815F0AAFADAF80030AA
:1019B00002465B68504605A99847039BD9F800AEDC
:1019C00053F8041F039306F11C030026B142AAF842
:1019D0000E70AAF810308DF8186028DB05AB1E4495
:1019E000012091FBF0F385FB0327DA17C2EBA70276
:1019F00002EB8202A3EB4203303304F8013D00EB1B
:101A00008000A6424FEA4000EBD105A815F078FA15
:101A1000DAF80030024608F101085B68504605A973
:101A20009847B8F1080F10D0D9F800AE86E72D23FB
:101A300049428DF814300126D0E72D23CBF1000B5D
:101A40008DF814304FF0010C94E7D9F8000E0FF028
:101A500069F80BB0BDE8F08F4682848227E7002248
:101A6000A382628232E700BF9CB0FF1FC8AC0100B6
:101A7000D4AC0100F0B0FF1F24AC0100E0AC0100C9
:101A800067666666F8AC010098B8FF1F78C7FF1F4D
:101A90007C4B1A68F0B40346D46CB2F948000729AD
:101AA0000CD8DFE801F0042D32517292B20D764A63
:101AB000106891889279186099809A71F0BC70478B
:101AC000126D0026A4185E7100F1BD806F4F1E4498
:101AD0000120053394FBF0F287FB0215D117C1EB0F
:101AE000A50101EB8101A2EB4102303203F8012D87
:101AF00000EB8000B3424FEA4000EBD1F0BC7047EE
:101B0000634A10681860F0BC70470026041E5E71BE
:101B1000C0F2B2805D4F1E440120053394FBF0F209
:101B200087FB0215D117C1EBA50101EB8101A2EBE7
:101B30004102303203F8012D00EB80009E424FEA53
:101B40004000EBD1F0BC7047B2F94A60002536186E
:101B50005D7100F18C804D4F1D440120053396FBD3
:101B6000F0F287FB0214D117C1EBA40101EB810154
:101B7000A2EB4102303203F8012D00EB8000AB42B2
:101B80004FEA4000EBD1F0BC7047B2F95460002539
:101B9000AE425D7166DB3D4F1D440120053396FB6F
:101BA000F0F287FB0214D117C1EBA40101EB810114
:101BB000A2EB4102303203F8012D00EB8000AB4272
:101BC0004FEA4000EBD1F0BC7047B2F956600025F7
:101BD000AE425D7141DB2D4F1D440120053396FB64
:101BE000F0F287FB0214D117C1EBA40101EB8101D4
:101BF000A2EB4102303203F8012D00EB8000AB4232
:101C00004FEA4000EBD1F0BC70470026B4425E7151
:101C10001EDB1E4F1E440120053394FBF0F287FBB0
:101C20000215D117C1EBA50101EB8101A2EB410225
:101C3000303203F8012D00EB8000B3424FEA400040
:101C4000EBD1F0BC70472D2264421A7001263DE7AB
:101C50002D2264421A700126DBE72D2276421A708B
:101C60000125B8E72D2276421A70012593E72D222F
:101C700076421A7001256EE72D2264421A70012601
:101C800048E700BF48C2FF1FE0AB01006766666619
:101C900024AC01002DE9F04F664EDFF8BCA1D6F868
:101CA000000E8BB0002403680194402200921D6C4A
:101CB000224680232146A847D6F8000E01210EF0C7
:101CC000C5F8D6F8000E5C490368848201225B687F
:101CD0004282C4810322048298473178D6F8000EEC
:101CE000013112F00DFD7378D6F8000E022B036857
:101CF00008BF52495B6818BF514905229847DAF876
:101D00000030D6F8000E0122002B7FD14382828260
:101D100003684C495B6808229847DAF80030D6F827
:101D2000004E012B76D0012200236282A382236819
:101D300045495B68032220469847204612F07AFC0A
:101D4000D6F8004E414923680027102201205B6825
:101D500060822282A782E78120469847204612F0BF
:101D600069FC1C234FF0020B0293B8464FEA480966
:101D7000BDF90830039309F1020918250024D6F8AB
:101D8000003E0121002259829A82B8F1000F45D00D
:101D9000DAF8002009EB040191424FF0010031D044
:101DA000002258829A82BDF80C20DA811D820BEB4A
:101DB000040105A8FFF76CFED6F8007E05A815F013
:101DC0009FF83B6802465B6805A93846984701348E
:101DD000384612F02FFC0A35022CADB2CFD1029B4F
:101DE00008F101082A339BB2B8F1020F02930BF1FC
:101DF000020BBBD10F4BD3F8000E0EF093FE0BB0CD
:101E0000BDE8F08F002159829882CCE700234282FE
:101E100083827DE70022A382628288E718460C490C
:101E20002CB1FEF747FF034BD3F8003EB0E718464E
:101E30000849F6E778C7FF1FC4AB010044AC0100B6
:101E40004CAC010054AC010024AC010010AD010009
:101E500024AD01002CAD01009CB0FF1F00B5807BBC
:101E600000F01F03192B13D8DFE803F01414272701
:101E700027333A2727272727201A0D121427272729
:101E800027271414140D002043F6FF730860136015
:101E90005DF804FBC0F34110012812D0022826D0BF
:101EA00000207F23086013605DF804FB134B0B6078
:101EB00047F6FF7313605DF804FBC0F3411001287F
:101EC000EED16FF07F004FF48073086013605DF80F
:101ED00004FB0B4B0B6041F6FF7313605DF804FBD2
:101EE0006FF063006423086013605DF804FB00205A
:101EF0003C23086013605DF804FB00BF0080FFFF17
:101F000000E0FFFF837B01F01F0161F30403837393
:101F1000192915D8DFE801F021211515152F3A15DB
:101F200015151515411A0D14211515151515212115
:101F3000210D002243F6FF73028282834382C38312
:101F40007047837BC3F34113012B2FD000227F23E3
:101F5000028282834382C3837047837BC3F341132E
:101F6000012B34D0022B2AD00022782302828283D4
:101F70004382C38370474FF4604343F6FF7141F6D9
:101F8000FF72038283834182C283704700226423ED
:101F9000028282834382C38370474FF4004247F634
:101FA000FF73028282834382C38370477F230021B1
:101FB0004FF6817201824382C3838283704700237C
:101FC0003C217822038283834182C2837047782335
:101FD0004FF6C4714FF6887201824382C3838283B5
:101FE000704700BF2DE9F041554D564C2B785649AE
:101FF00062780020012B08607FD0012A40F28680A1
:10200000022A7AD0032A52D0504E306890F84620E7
:10201000DFF868814E4FDFF868E1DFF868C112F041
:10202000600118BF012188F8001000F148013960F3
:10203000C16CCEF80010DFF850E1016DCCF8001053
:102040004449B0F854C0AEF800C0DFF840E1B0F841
:1020500056C0A1F800C04049B0F848C0AEF800C072
:10206000B0F84AE0A1F800E003F0FD01012908D131
:102070003A4BC2F30402383000211A70FFF742FFD6
:102080002B783749374A384D38484FF0010EC1F8A0
:1020900000E04FF0FF31116073454FF000022960FE
:1020A00002700DD0324B01201870BDE8F08122780B
:1020B000264E4FF4987000FB02406C303060A5E76C
:1020C0003568386895F846602A4B2B4962F3461606
:1020D00085F84660D4F8BC5AD4F8C04A846045609C
:1020E00003F1140003F8012F834241F8042FF9D1C2
:1020F0001F4B01201870BDE8F0812278134E4FF479
:10210000987000FB0240083030607FE7052B01D05B
:10211000BDE8F081012A7FF477AF114923780A6086
:102120004FF4987202FB0343084E0E4D0E4C0F49BC
:102130004FF0FF32D03333602A6022600870B1E77D
:102140007DB0FF1F78C7FF1F4CAEFF1F48C2FF1FA7
:1021500018B1FF1FE88FFF1F24B1FF1F90B0FF1FB2
:102160009CB0FF1F1C97FF1F2C92FF1F1CB1FF1F6D
:10217000B4B0FF1F0FB3FF1F34B8FF1FC8B8FF1F55
:1021800054C2FF1F68C7FF1FBCDCFF1FA8B0FF1FA2
:102190002DE9F041DFF8A880234F98F800300522A0
:1021A00082B03A707BB1214E3568ADB1A84720B9F5
:1021B0000024204602B0BDE8F081002420463460AF
:1021C00002B0BDE8F081FFF70DFF0028EBD101243C
:1021D000204602B0BDE8F081154B18780238FFF7B1
:1021E00067F82846FEF7B8FBFFF752F804460028C8
:1021F000DED0104B1B68012B06DD023B0E4A52F865
:10220000233033602C46D4E70C4BD3F8000E402229
:1022100003688DE8240029461E6C2A468023B047B7
:1022200088F800503D70C4E77DB0FF1F4CAEFF1F23
:1022300081A0FF1F9CB0FF1F9C8DFF1F78C7FF1F51
:10224000B4B0FF1F2DE9F04FA44BA54D1B7803221E
:1022500083B02A70002B00F0A580A24BA24E1F680D
:1022600097F84640F86CC4F34114022C00F0B78094
:1022700013F05CFD8046B7F94A00B7F948B013F097
:1022800055FD8246386D13F051FD8146CBF11800A3
:1022900013F04CFD514613F051FE494613F09AFDE0
:1022A000414613F08FFC13F05BFF3060CBF1600010
:1022B00013F03CFD514613F041FE494613F08AFDF0
:1022C000414613F07FFC13F04BFFDFF85492C9F83E
:1022D00000008649864ADFF84CA2B7F90430087836
:1022E0007988CAF800101360FEF7E2FFFFF74EF995
:1022F000FEF7CEFF804600283CD0DFF82C82D8F8CD
:102300000000012840F3C580022800F0BC800328AB
:1023100000F0B3803568D9F80000022CA0EB05006E
:1023200000F08F8013F002FD0446284613F0FEFCF7
:1023300021460546204613F045FC6E4913F0FEFD8C
:102340000146284613F03CFC13F00AFF6A49054693
:10235000204613F03FFD674913F0F0FD13F000FF36
:10236000664B1B684FF000085D609860404603B004
:10237000BDE8F08F2B78032BF8D1BAF80000FEF7F8
:10238000F3F85F4B93F8A93D002BEFD00028EDD078
:102390005C4B1A788242E9D0DFF88C811870C8F85B
:1023A0000000AEE7FFF71EFE044600287FF455AF9D
:1023B000534D55494FF00108FF2205F6713085F85D
:1023C000708B14F00BFE4FF4FA621123A5F8784CD1
:1023D000A5F87C4CC5F8742CA5F87A3CC6E713F038
:1023E000A5FC8346B7F94A00B7F948A013F09EFC54
:1023F0008146386D13F09AFC8046CAF10C0013F048
:1024000095FC494613F09AFD414613F0E3FC59460A
:1024100013F0D8FB13F0A4FE3060CAF1300013F0C3
:1024200085FC494613F08AFD414613F0D3FC59461A
:1024300013F0C8FB13F094FEDFF8E490C9F8000035
:1024400047E713F073FC0446284613F06FFC2F494E
:102450000546204613F072FD0146284613F0B0FBF6
:1024600013F07EFE2A490546204613F0B3FC2749A7
:1024700013F064FD13F074FE72E7DAF800003568BB
:10248000C9F8000049E7DAF800503560D9F80000D3
:1024900043E71B4BD3F8000E002203680192402152
:1024A00000911C6C11468023A0470E4B1868194BF5
:1024B00038301978FFF726FDD8F800303BB90F4BBC
:1024C0001549164A1B680968126859609A60034AE0
:1024D000002313702B704FF0010847E7B4B0FF1FC3
:1024E0007DB0FF1F48C2FF1FECB0FF1F80A1FF1F80
:1024F0002C92FF1F0000C0400000204118B1FF1FB8
:1025000078C7FF1F1CB1FF1F34AD01000000404021
:102510000000A04090B0FF1F54C2FF1F68C7FF1FFC
:10252000F0B0FF1F1C97FF1F9CB0FF1F10B582B0BB
:1025300002AB42F2BC6243F8042D0446017004224F
:102540001846002110F00AF920460122022110F05D
:1025500005F9032002B010BD2DE9F041804682B09C
:1025600018F8041B614D624F0446FFF7DFFF042299
:1025700006460146404610F0F1F8311D04F108000E
:10258000042210F0EBF806F1080104F10C0004221B
:1025900010F0E4F806F10C0104F11000042210F030
:1025A000DDF806F1100104F11400042210F0D6F851
:1025B00006F1140104F11800042210F0CFF806F11E
:1025C000180104F11C00042210F0C8F806F11C01E7
:1025D00004F12000042210F0C1F806F1200104F1FA
:1025E0002E00692210F0BAF806F1890104F12800E2
:1025F000042210F0B3F806F18D0104F12C00012241
:1026000010F0ACF80D213B4811F078FD00230A22B0
:102610002178284612F034F80221374811F06EFD77
:102620006168284612F06CF83846012111F066FD09
:10263000A168284612F064F83846012111F05EFDC9
:10264000E168284612F05CF83846012111F056FD89
:102650002169284612F054F83846012111F04EFD48
:102660006169284612F04CF83846012111F046FD08
:10267000A169284612F044F83846012111F03EFDC8
:10268000E169284612F03CF83846012111F036FD88
:10269000216A284612F034F83846012111F02EFD47
:1026A000A06A12F065FF4FF0020E02460B46CDF80D
:1026B00000E0284612F02CF83846012111F01EFDEA
:1026C00094F92C10284612F01BF83846012111F01D
:1026D00015FD06F18E01284612F012F8284611F079
:1026E000A9FF962002B0BDE8F08100BFA8A3FF1F9C
:1026F00030AC010048AD010014B3010070B50646CE
:1027000084B000200FF0C6FF8DF80E0001200FF0FE
:10271000C1FF8DF80F00BDF80E2042F2BC639A4253
:1027200040F0DF8002200FF0B5FF03288ABFFF23AF
:1027300030703370F51C032420460FF0ABFF0134DA
:10274000072C05F8010FF7D1F51D20460FF0A2FF69
:1027500001340B2C05F8010FF7D106F10B052046CB
:102760000FF098FF01340F2C05F8010FF7D106F197
:102770000F0520460FF08EFF0134132C05F8010FD2
:10278000F7D106F1130520460FF084FF0134172C12
:1027900005F8010FF7D106F1170520460FF07AFF73
:1027A00001341B2C05F8010FF7D106F11B0520465B
:1027B0000FF070FF01341F2C05F8010FF7D106F15F
:1027C0001F0520460FF066FF0134232C05F8010F8A
:1027D000F7D106F12D0520460FF05CFF01348C2C5B
:1027E00005F8010FF7D106F1270520460FF052FF3B
:1027F0000134902C05F8010FF7D120460FF04AFF65
:102800000C2186F82C003C4811F078FC00230A22A9
:1028100031783A4811F034FF0221394811F06EFC4A
:102820007168364811F06CFF0121364811F066FCE2
:10283000B168324811F064FF0121324811F05EFCAA
:10284000F1682E4811F05CFF01212E4811F056FC72
:1028500031692A4811F054FF01212A4811F04EFC39
:102860007169264811F04CFF0121264811F046FC01
:10287000B169224811F044FF0121224811F03EFCC9
:10288000F1691E4811F03CFF01211E4811F036FC91
:10289000316A1A4811F034FF01211A4811F02EFC58
:1028A000B06A12F065FE022402460B4600941348FB
:1028B00011F02EFF0121134811F020FC96F92C1085
:1028C0000E4811F01DFF01210E4811F017FC912157
:1028D0000A4811F015FF094811F0ACFE962004B02B
:1028E00070BD1B21084811F009FC044811F0A2FE3C
:1028F000002004B070BD00BF74AD0100A8A3FF1F8D
:1029000014B3010030AC010058AD01002DE9F843CB
:10291000099C089E0F46904699461CB1086813F022
:102920001FFCA0471D4DD5F8FC0D0FF03FF8B5F882
:10293000B64AB5F8B43A201A84B29C42A5F8B64A11
:1029400024D094BF06F100403046396813F03AF9BC
:102950004146064613F0DCFB58B94946304613F0B1
:10296000F5FB68B1C7F800900020A5F8B44ABDE8AF
:10297000F883C7F800800020A5F8B44ABDE8F883C2
:102980003E600020A5F8B44ABDE8F88341F22C234C
:10299000E858BDE8F8430EF039BF00BF78C7FF1F05
:1029A0002DE9F043284D6B78012B85B0274B44D996
:1029B0001B68186903F1380903F1100413F0B2F928
:1029C000234913F0BBFA0146224813F0B7FA224913
:1029D00013F0B4FA12F03EFC04A9204A41F8040DA9
:1029E0004FF07E5380460192009300221C4B1D48FD
:1029F000FFF78CFF1C4B039F18700646144938469E
:102A000013F09CFA0146134813F098FA124913F098
:102A100095FA13F0CBFB41462060384613F08EFA4E
:102A2000D9F8001013F0D6F90346C9F80000304673
:102A3000C5F8E03A05B0BDE8F0831C68206904F1F0
:102A40003C091034BAE700BF78C7FF1F48C2FF1F18
:102A500000007A4400606A470000C0415909000044
:102A60000000FA43C8D2FF1F8499FF1F70B51F4DA5
:102A70006B78022B84B032D0032B29D0012B02D0EB
:102A800000231B7AFFDE2B784FF4987404FB035469
:102A900004F5827494F9080013F048F904A9144A63
:102AA00041F8040D4FF07E5301920093114A124BEE
:102AB0001248FFF72BFF124B06461E70039813F0C7
:102AC0004FFB40B2207285F8E40A304604B070BD76
:102AD0002B784FF4987404FB0354A434DAE72B7872
:102AE0004FF4987404FB03544034D3E778C7FF1FB6
:102AF000590900000000A0C00000A040C8D2FF1F7C
:102B00008499FF1F2DE9F843099CDDF820900E46BB
:102B100090461F460CB10868A0471C4DD5F8FC0D27
:102B20000EF044FFB5F8B64AB5F8B43A201A84B2AC
:102B30009C42A5F8B64A21D0E01A13F0F7F84946AE
:102B400013F048F98146306813F0F0F80146484622
:102B500013F038F813F004FB404508DB8742A8BFA8
:102B6000074637600020A5F8B44ABDE8F883C6F8E8
:102B700000800020A5F8B44ABDE8F88341F22C2378
:102B8000E858BDE8F8430EF041BE00BF78C7FF1F0C
:102B90002DE9F047224CBDF82090099D0646D4F857
:102BA000FC0D0F4690469A460EF000FFB4F8B63A78
:102BB000B4F8B41A184480B2A4F8B60A884296F859
:102BC00061221BD2AB5C013BDBB22F2B98BF3923B8
:102BD000AB5428460A22002114F0D0FA4045386050
:102BE00013DAB4F8B60AC7F8008041F22C23A4F82F
:102BF000B40AE058BDE8F0470EF008BEF5D95AB95E
:102C000009F1FF3986F86192EFE75045C8BFC7F870
:102C100000A0B4F8B60AE8E7013A86F86122E4E7D2
:102C200078C7FF1FF8B5204C0546D4F8FC0D0E46BA
:102C300017460EF0BBFEB4F8B63AB4F8B41A18440E
:102C400080B2A4F8B60A95F861228842B35C1ED21D
:102C50000133DBB213F0800F18BF2023B354B4F854
:102C6000B60AA4F8B40A41F22C23E0580EF0CEFDC7
:102C700060B195F86132013FBB4207D013B9327899
:102C8000202A0ED0013385F861320020F8BDE8D942
:102C9000013BDBB21F2B98BF7F23B354B4F8B60AB5
:102CA000DFE73370F8BD00BF78C7FF1FF0B51048ED
:102CB00083B0D0F8005EBDF8206008461F46144679
:102CC00014F01EF904EB4404A4002A68033400EB5A
:102CD0004003122100200190009104EB43031BB23A
:102CE000146C39B2284632B2A04703B0F0BD00BF21
:102CF00078C7FF1F2DE9F04F2E4F85B00E469A463C
:102D0000D7F8000EBDF83880012114460DF09EF86A
:102D10000AF10200D7F8005E83B21A464FF00109AB
:102D200008F105034FF0000BEA812B82A5F8129001
:102D3000A5F814B03046039214F0E2F82B6802466E
:102D40005B68314628469847284611F073FC0221FB
:102D5000D7F8000E0DF07AF8D7F8005E3046A5F8E7
:102D600014B0A5F8129014F0CBF8039A00EB4000D1
:102D700002EB400008EB0903E8812B82304614F097
:102D8000BFF804EB4404A4002E68CDF8049000EBD7
:102D9000400003341222009204EB40031BB20FFAEE
:102DA00088F20FFA8AF12846F46CA04705B0BDE816
:102DB000F08F00BF78C7FF1F2DE9F04F87B098460E
:102DC000BDF8404004942546BDF84440009489462F
:102DD0000293AA462B461646054642462A4F0594BC
:102DE0000391FFF763FF0094534642464946284645
:102DF000FFF780FFD7F800BE00245B46A146A3463C
:102E00004FF001081C4618E095F8613253452368DD
:102E100004BFA4F81290A4F814801B6816F80A10D6
:102E2000984795F86132D7F8004E534504BFA4F88F
:102E30001280A4F814900BF1010B304614F060F8E6
:102E40001FFA8BFA50452046DED822680F49A34668
:102E500054680022A047584611F0ECFB029A314614
:102E60002846FFF7DFFE58B1059B00932846049BD8
:102E7000029A0399FFF71AFFFF2385F861320120B8
:102E800007B0BDE8F08F00BF78C7FF1FB4AE0100E8
:102E9000F0B5044690F8610287B0FF28BDF83050C5
:102EA000BDF834600AD08DE860002046FFF784FF4B
:102EB00010B1FF2384F8613207B0F0BD002084F820
:102EC0006102104605930491039214F019F8059BD2
:102ED000039A04999842E6D207DA104402EB030EF3
:102EE000202700F8017B7045FBD10020D054DAE7A1
:102EF000102B2DE9F84F05460C464FF0000E53D825
:102F0000724501F803E055DB9E4518DADFF8B4C0DE
:102F1000E718012692FBF6F18CFB0108C817C0EBFD
:102F2000A80000EB8000A1EB4001013B06EB860608
:102F3000303173454FEA460607F8011DEADCDFF839
:102F400088904FF00008D9F8007EC3464FF0010A80
:102F500017E095F86132B3423B6804BFA7F812B09E
:102F6000A7F814A01B68A15D984795F86132D9F8BD
:102F7000007EB34204BFA7F812A0A7F814B008F16E
:102F80000108204613F0BCFF1FFA88F6B04238460D
:102F9000DFD83B680A495B683846002298473846C4
:102FA000BDE8F84F11F046BB724581F810E04FF0D4
:102FB0001003ABDA2D21524221704FF0010EA3E72E
:102FC000B4AE01006766666678C7FF1F2DE9F0475B
:102FD00088B00446BDF84450BDF84860BDF84C7058
:102FE0000097904689462A469A463346FFF75EFE8A
:102FF00033462A46494620460097FFF77BFE2B467C
:10300000D8F80020204603A9FFF772FF94F8613238
:10301000FF2B17D003AB0193009552464146109BFE
:103020002046FFF7B5FD50B13346204600972A46AB
:103030004946FFF73BFEFF2384F86132012008B0C8
:10304000BDE8F08700224FF07E5301920093524674
:103050004146109B2046FFF755FDE4E7F0B51B4ABB
:1030600011784FF4987303FB01F3D11887B091F8EE
:103070004E00C00624D101F58874B1F8101192F801
:10308000B13D124A114D0591FF2B04BF032382F875
:10309000B13D2D274FF47A72002304268DE84400B9
:1030A0000B49039705F53560029305AAFFF78EFFDC
:1030B00010B1FF2385F8B13D059B238007B0F0BD1B
:1030C0001344B1F84C1003F14C04D8E778C7FF1F44
:1030D00084AD0100F0B52E4D6B78022B87B030D057
:1030E000032B27D0012B02D000235B78FFDE2B7847
:1030F0004FF4987202FB035303F5827306AA5B78C0
:10310000234E42F8043D03272D23002401977F27F7
:10311000039320490294234606F535600097FFF794
:1031200055FF6B78022B28D0032B1CD0012B0FD01E
:103130006470FFDE2B784FF4987202FB0353A433C4
:10314000DCE72B784FF4987202FB03534033D5E74A
:1031500033784FF4987202FB036303F58273059A88
:103160005A7007B0F0BD32784FF4987303FB0263D6
:10317000A433059A5A7007B0F0BD32784FF49873B3
:1031800003FB02634033059A5A7007B0F0BD00BFDD
:1031900078C7FF1F90AD0100F0B52E4C6378022B6D
:1031A00087B030D0032B27D0012B02D000231B780F
:1031B000FFDE23784FF4987202FB034303F582731A
:1031C00006AA1B7842F8043D224E23492D2303937F
:1031D0000025102303278DE8880006F535600123BC
:1031E0000295FFF7F3FE6378022B28D0BB421CD078
:1031F000012B0FD02D70FFDE23784FF4987202FB65
:103200000343A433DCE723784FF4987202FB0343B3
:103210004033D5E733784FF4987202FB036303F52C
:103220008273059A1A7007B0F0BD32784FF4987324
:1032300003FB0263A433059A1A7007B0F0BD32781D
:103240004FF4987303FB02634033059A1A7007B07A
:10325000F0BD00BF78C7FF1F9CAD0100F0B5304C3A
:103260006378022B87B036D0032B2DD0012B02D0F0
:1032700000235B68FFDE23784FF4987202FB034360
:1032800003F582735868264E12F06AFF06AA2D27AE
:103290000321FF23002542F8040D039701910093B9
:1032A00006F53560012302951E49FFF78FFE63780E
:1032B000022B07462DD0032B24D0012B12D00598CA
:1032C00012F034FD6860FFDE23784FF4987202FB41
:1032D0000343A433D6E723784FF4987202FB0343E9
:1032E0004033CFE733784FF4987505FB036505F558
:1032F0008275059812F01AFD6860C4F8E00A384635
:1033000007B0F0BD33784FF4987505FB0365A4351D
:10331000EFE733784FF4987505FB03654035E8E730
:1033200078C7FF1FACAD0100F0B52D4C6378022BC0
:1033300087B032D0032B29D0012B02D000231B7A77
:10334000FFDE23784FF4987202FB034303F5827388
:1033500006AA93F9083042F8043D214E21492D2355
:1033600003930025782304278DE8880006F535604F
:103370006FF077030295FFF729FE6378022B28D0C0
:10338000032B1FD0012B0FD02D72FFDE23784FF4BB
:10339000987202FB0343A433DAE723784FF4987260
:1033A00002FB03434033D3E733784FF4987202FBB8
:1033B000036303F582739DF914201A7284F8E42ADA
:1033C00007B0F0BD32784FF4987303FB0263A43367
:1033D000F1E732784FF4987303FB02634033EAE776
:1033E00078C7FF1FB8AD0100F0B5314D6B78022BE7
:1033F00087B033D0032B2AD0012B03D0002393F8BE
:103400002030FFDE2B784FF4987202FB035303F554
:10341000827306AA93F82030254E42F8043D032714
:103420002D23002401977F270393224902942346EA
:1034300006F535600097FFF7C9FD6B78022B2BD09E
:10344000032B1ED0012B10D084F82040FFDE2B78F8
:103450004FF4987202FB0353A433DAE72B784FF44E
:10346000987202FB03534033D3E733784FF49872DA
:1034700002FB036303F58273059A83F8202007B0EB
:10348000F0BD32784FF4987303FB0263A433059ABE
:1034900083F8202007B0F0BD32784FF4987303FB17
:1034A00002634033059A83F8202007B0F0BD00BFC7
:1034B00078C7FF1FC8AD0100F0B5314D6B78022B06
:1034C00087B033D0032B2AD0012B03D0002393F8ED
:1034D0002130FFDE2B784FF4987202FB035303F583
:1034E000827306AA93F82130254E42F8043D032743
:1034F0002D23002401977F2703932249029423461A
:1035000006F535600097FFF761FD6B78022B2BD035
:10351000032B1ED0012B10D084F82140FFDE2B7826
:103520004FF4987202FB0353A433DAE72B784FF47D
:10353000987202FB03534033D3E733784FF4987209
:1035400002FB036303F58273059A83F8212007B019
:10355000F0BD32784FF4987303FB0263A433059AED
:1035600083F8212007B0F0BD32784FF4987303FB45
:1035700002634033059A83F8212007B0F0BD00BFF5
:1035800078C7FF1FD4AD0100F0B5474C6378022B1C
:1035900087B047D0032B3BD0012B03D0002393F8F7
:1035A0002030FFDE23784FF4987202FB034303F5CB
:1035B000827393F82020D20193F8213094F8B11D42
:1035C0003948394D1344FF29059304BF042380F87B
:1035D000B13D43F6FF722D27002305268DE84400F8
:1035E0003249039705F53560029305AAFFF7EEFC13
:1035F00010B1FF2385F8B13D63782B4C022B3FD0EF
:10360000032B2FD0012B17D0002383F82030FFDEAF
:1036100023784FF4987202FB0343A43393F82020DD
:10362000D201C9E723784FF4987202FB0343403379
:1036300093F82020D201BFE7237805994FF49872C0
:1036400002FB0342002902F582720B4615DBDB11F7
:1036500082F82030164B0B40002B1DDB82F8213006
:1036600007B0F0BD237805994FF4987202FB03422E
:10367000002902F1A4020B46E9DA01F17F03E6E733
:10368000237805994FF4987202FB0342002902F156
:1036900040020B46DBDAF0E7013B63F07F030133C6
:1036A00082F8213007B0F0BD78C7FF1FE0AD010000
:1036B0007F000080F0B52E4D6B78022B87B030D0A4
:1036C000032B27D0012B02D000239B78FFDE2B7821
:1036D0004FF4987202FB035303F5827306AA9B789A
:1036E000234E42F8043D03272D230024019777271A
:1036F000039320490294234606F535600097FFF7AF
:1037000065FC6B78022B28D0032B1CD0012B0FD02B
:10371000A470FFDE2B784FF4987202FB0353A4339E
:10372000DCE72B784FF4987202FB03534033D5E764
:1037300033784FF4987202FB036303F58273059AA2
:103740009A7007B0F0BD32784FF4987303FB0263B0
:10375000A433059A9A7007B0F0BD32784FF498738D
:1037600003FB02634033059A9A7007B0F0BD00BFB7
:1037700078C7FF1FE8AD0100F0B52E4D6B78022B26
:1037800087B030D0032B27D0012B02D00023DB7869
:10379000FFDE2B784FF4987202FB035303F582731C
:1037A00006AADB78234E42F8043D03272D2300248C
:1037B00001977F27039320490294234606F535603D
:1037C0000097FFF703FC6B78022B28D0032B1CD04B
:1037D000012B0FD0E470FFDE2B784FF4987202FBC0
:1037E0000353A433DCE72B784FF4987202FB0353A6
:1037F0004033D5E733784FF4987202FB036303F547
:103800008273059ADA7007B0F0BD32784FF498737E
:1038100003FB0263A433059ADA7007B0F0BD327877
:103820004FF4987303FB02634033059ADA7007B0D4
:10383000F0BD00BF78C7FF1FF0AD010038B5214CC7
:103840006378022B28D0032B1FD0012B0FD0002030
:103850001421FEF757FB94F8A83D1A4D7BB90123BC
:1038600085F8A83DFFF736FCE8B9002038BD23787D
:103870004FF4987000FB034000F58270E8E7012BDD
:10388000F0D0022B15D0012038BD23784FF498706A
:1038900000FB0340A430DBE723784FF4987000FB73
:1038A00003404030D4E794F8A83D013384F8A83DA4
:1038B000DBE7FFF761FF0028D7D0002385F8A83D9C
:1038C00038BD00BF78C7FF1FF0B5304C6378022BBE
:1038D00087B036D0032B2DD0012B02D000235B689C
:1038E000FFDE23784FF4987202FB034303F58273E3
:1038F0005868264E12F034FC06AA2D270321FF2318
:10390000002542F8040D03970191009306F53560F8
:10391000012302951E49FFF759FB6378022B0746E6
:103920002DD0032B24D0012B12D0059812F0FEF9D4
:103930006860FFDE23784FF4987202FB0343A433E0
:10394000D6E723784FF4987202FB03434033CFE766
:1039500033784FF4987505FB036505F58275059876
:1039600012F0E4F96860C4F8E00A384607B0F0BD28
:1039700033784FF4987505FB0365A435EFE733788A
:103980004FF4987505FB03654035E8E778C7FF1FDE
:10399000ACAD0100F0B52D4C6378022B87B032D06E
:1039A000032B29D0012B02D000231B7AFFDE2378C2
:1039B0004FF4987202FB034303F5827306AA93F94E
:1039C000083042F8043D214E21492D230393002560
:1039D000782304278DE8880006F535606FF07703BB
:1039E0000295FFF7F3FA6378022B28D0032B1FD040
:1039F000012B0FD02D72FFDE23784FF4987202FB5B
:103A00000343A433DAE723784FF4987202FB0343AD
:103A10004033D3E733784FF4987202FB036303F526
:103A200082739DF914201A7284F8E42A07B0F0BD5D
:103A300032784FF4987303FB0263A433F1E73278D2
:103A40004FF4987303FB02634033EAE778C7FF1F24
:103A5000B8AD010070B5344C637888B000227F2186
:103A6000022B0592069136D0032B2AD0012B01D0D0
:103A7000938BFFDE23784FF4987000FB034000F532
:103A80008270B0F91C30079306AA05A9FEF7E6F983
:103A9000254E069A00922D2105220025059B0391B3
:103AA000019206F53560029507AA2049FFF78EFAC4
:103AB0006378022B2ED0032B22D0012B15D0AD839F
:103AC000FFDE23784FF4987000FB0340A430B0F978
:103AD0001C300793D8E723784FF4987000FB03401D
:103AE0004030B0F91C300793CEE733784FF498722A
:103AF00002FB036303F58273079A9A8308B070BDD3
:103B000032784FF4987303FB0263A433079A9A83C5
:103B100008B070BD32784FF4987303FB02634033F2
:103B2000079A9A8308B070BD78C7FF1FFCAD0100EB
:103B300070B5344C637888B000227F21022B059247
:103B4000069136D0032B2AD0012B01D0D38BFFDE78
:103B500023784FF4987000FB034000F58270B0F9B1
:103B60001E30079306AA05A9FEF778F9254E069A96
:103B700000922D2105220025059B0391019206F557
:103B80003560029507AA2049FFF720FA6378022BD7
:103B90002ED0032B22D0012B15D0ED83FFDE23780E
:103BA0004FF4987000FB0340A430B0F91E30079327
:103BB000D8E723784FF4987000FB03404030B0F909
:103BC0001E300793CEE733784FF4987202FB0363FD
:103BD00003F58273079ADA8308B070BD32784FF428
:103BE000987303FB0263A433079ADA8308B070BDAD
:103BF00032784FF4987303FB02634033079ADA83F9
:103C000008B070BD78C7FF1F08AE010038B50A4D77
:103C10002C783CB1012C08D1FFF78AFF28B1002392
:103C20002B7038BDFFF716FF08B9002038BD0123FF
:103C30002B70204638BD00BF14B1FF1FF0B52F4DCB
:103C40006B78022B87B037D0032B2ED0012B02D0FC
:103C500000235B69FFDE2B784FF4987101FB035161
:103C600001F5827106AA4B6942F8043D4FF02D0E12
:103C70008C69224FCDF80CE04FF0060ECDF804E031
:103C8000002644F2020E1E4B1E49029607F53560CF
:103C9000CDF800E0FFF79AF96B78022B26D0032BC2
:103CA0001DD0012B0FD07661FFDE2B784FF4987179
:103CB00001FB0351A431D5E72B784FF4987101FB38
:103CC00003514031CEE73B784FF4987202FB037307
:103CD00003F58273059A9C615A6107B0F0BD3A788A
:103CE0004FF4987303FB0273A433F3E73A784FF46D
:103CF000987303FB02734033ECE700BF78C7FF1FE4
:103D0000FDBFFFFF14AE0100F0B5304D6B78022B04
:103D100087B038D0032B2FD0012B02D000235B6952
:103D2000FFDE2B784FF4987202FB035303F5827386
:103D30005C699869254F264B264906AA20444FF016
:103D40002D0E42F8040DCDF80CE04FF0060ECDF824
:103D500004E0002644F2020E07F535600296CDF825
:103D600000E0FFF733F96B78022B27D0032B1ED02E
:103D7000012B0FD07661FFDE2B784FF4987202FB97
:103D80000353A433D4E72B784FF4987202FB035308
:103D90004033CDE73B784FF4987202FB037303F591
:103DA0008273059A5C61141B9C6107B0F0BD3A7880
:103DB0004FF4987303FB0273A433F2E73A784FF49D
:103DC000987303FB02734033EBE700BF78C7FF1F14
:103DD000FDBFFFFF1CAE010038B50A4D2C783CB189
:103DE000012C08D1FFF790FF28B100232B7038BDBC
:103DF000FFF724FF08B9002038BD01232B702046AF
:103E000038BD00BF14B1FF1FF0B5354C637889B0E1
:103E100000227F21022B059206913AD0032B2CD051
:103E2000012B01D0138AFFDE23784FF4987000FB3A
:103E3000034000F58270B0F91030B0F912500793CA
:103E400006AA05A9FEF70AF8254F069A00922D2129
:103E500005220026059B0391019207F53560029625
:103E600007AA2049FFF7B2F86378022B30D0032B62
:103E700027D0012B19D03682FFDE23784FF49870BB
:103E800000FB0340A430B0F91030B0F91250079392
:103E9000D6E723784FF4987000FB03404030B0F928
:103EA00010300793B0F91250CAE73B784FF498727C
:103EB00002FB037303F58273079A5D821A8209B0CD
:103EC000F0BD3A784FF4987303FB0273A433F3E721
:103ED0003A784FF4987303FB02734033ECE700BF6A
:103EE00078C7FF1F24AE0100F0B5374C637889B066
:103EF00000227F21022B059206913CD0032B2DD06E
:103F0000012B01D0138AFFDE23784FF4987000FB59
:103F1000034000F58270B0F91050B0F912302B4414
:103F2000079306AA05A9FDF799FF274F069A009265
:103F30002D2105220026059B0391019207F535608E
:103F4000029607AA2149FFF741F86378022B33D084
:103F5000032B2AD0012B1BD03682FFDE23784FF4AF
:103F6000987000FB0340A430B0F91050B0F9123043
:103F70002B440793D5E723784FF4987000FB034058
:103F80004030B0F91050B0F912302B440793C8E715
:103F90003B784FF4987202FB037303F58273079A20
:103FA0001D82551B5D8209B0F0BD3A784FF49873BD
:103FB00003FB0273A433F2E73A784FF4987303FBE0
:103FC00002734033EBE700BF78C7FF1F30AE01003C
:103FD00038B50A4D2C783CB1012C08D1FFF784FF8D
:103FE00028B100232B7038BDFFF70EFF08B9002061
:103FF00038BD01232B70204638BD00BF14B1FF1F10
:104000002DE9F04F88469DB0D0F864120990BDF8B4
:1040100098A09DF89C700D929B4629B9764B1B6821
:104020000F930F9BC0F86432002F00F0BF80734BDA
:104030003D1F83FB0523A3EBE5750235ED00ABB215
:10404000CAF13F059D424046A8BF1D4612F058FFE9
:1040500000EB4000430004339BB2DFF8A491D9F891
:10406000000E9F422AB24FF0000628BF1F46036889
:104070000C928DE844000FFA8AF43AB20FFA8BF1F1
:1040800008940B921C6C0A911346089AA0470121D0
:10409000D9F8000E0BF0DAFE584BD9F8004E033F6A
:1040A00083FB07230AF1040AAAB21FFA8AF10BF173
:1040B000020B073AA3EBE777059101230FFA8BF187
:1040C00007921CAA3546069102EB070BA682638273
:1040D000B24609E0079BB3EBC20F2CDD5EB3B5F52A
:1040E000807F28D0D9F8004E059BBDF81820E281CA
:1040F00003EBC50308EB060123823A4611A812F030
:104100006DFF11A80BF82CAC12F0FAFE23680246E2
:104110005B6811A920469847204610F08BFA40466C
:1041200012F0EEFEC01BF319864205F102029EB2A8
:1041300005F10105CED9D9F8000E0C9A036800925A
:1041400001220192DC6C089A0B9B0A992C4DA04726
:10415000099B93F82E31002B39D1D9F8000E0CF0C1
:10416000E1FC41F22C2359F803000DF04FFB50B94C
:10417000214A099B1268D3F8643210920D99109A63
:1041800019448A420FD9D9F8000E0C9B0568009398
:10419000002401940B9B089A0A992D6CA847099B4F
:1041A0000120C3F864421DB0BDE8F08F404612F014
:1041B000A7FE00EB4000CAF13F0543000433CBF1FA
:1041C0007F07102D9BB2A8BF1025FFB245E7099EBF
:1041D000D5F8000E96F83C41D6F83431B6F93221C4
:1041E000B6F93011B6F93A510294B6F938418DE872
:1041F00030000BF0F7FBB0E7CCDCFF1FABAAAA2A1C
:1042000078C7FF1F2DE9F8430F4601789DF82080FD
:1042100008290446164649D0394A3A49D2F8C00A14
:104220001D46D2F8BC3A23654FF00109D2F8C83ACE
:10423000D2F8C42AC4F8B4206065C4F8B830D4F801
:10424000C40084F89C900EF0BDF8D4F8C4302E4A17
:104250001A61242084F86570207100210EF0A2FC00
:104260000027252084F8680084F8C960E780394673
:104270000EF098FCA4F86A7084F8D47084F8CC50DE
:1042800028460DB9BDE8F88302210EF08BFC84F8B6
:104290001081B8F1000F02D14846BDE8F8834046CE
:1042A00049460EF07FFC4846BDE8F883144B1220C7
:1042B000D3F8D82AD3F8D05AD3F8CC1AD3F8D43AB2
:1042C000C4F8B43065652165C4F8B820207184F85D
:1042D000657000210EF066FC00251A2084F8680045
:1042E00084F8C960E58029460EF05CFC84F8CC5067
:1042F000A4F86A5084F8D4502846BDE8F88300BF7B
:1043000078C7FF1F17B7D138000088412DE9F8435F
:104310000446884616460EF04BFC2369A06113B98B
:10432000E369002B44D072B6DFF8AC90254FD9F882
:1043300000103B682448A569E269CB1A80FB031092
:10434000D917C1EBA000062184F824101F49C5EB42
:10435000030EAA1A0B60236A626185181C4AA06AC0
:104360007344A9B213600EF01FF8A26A6369D26A9F
:10437000002E62F30F0528461FDDB040B340D9F888
:1043800000103A680B440244C9F800303A6011F05A
:10439000C9FC414611F0D2FD0E4911F0CFFD11F0DC
:1043A00005FFA3692061E36162B60120BDE8F883DF
:1043B0002062E0611846BDE8F883E0D07642F04024
:1043C000F340DCE720B1FF1F67666666D8B8FF1FC1
:1043D000A8DCFF1F0000C040B8B0FF1F10B50446A6
:1043E000212094F8611001F001010EF0C7FB94F850
:1043F00061101820C1F340010EF0C0FB94F8611069
:104400002020C1F38001BDE810400EF0B7BB00BF13
:1044100030B50F4B0C4683B09C424FF000014FF07B
:104420007F02054608BFB0F904408DE80600383029
:1044300001AA6946FDF712FDB5F95400844204DB78
:10444000B5F95600A042A8BF204603B030BD00BF5A
:10445000F1D8FFFF38B590F82C31032B36D8DFE8C0
:1044600003F0021104021A4838BD90F8AE3003F090
:104470001F03062BB0F908301DD0B0F96C1003FBF8
:1044800001F104E0B0F90810B0F96C30194490F86B
:104490004A301A4604466FF3461280F84A20043028
:1044A000C3F34115FFF7B4FF94F84A3065F34613A0
:1044B00084F84A3038BDB0F96C20064903FB02F39A
:1044C00081FB0321DB17C3EB6111E0E70049DEE765
:1044D000F1D8FFFF1F85EB51012A08B53DDD90F8AB
:1044E000463003F01F03192B40D8DFE803F0101209
:1044F00017101010101C101010101026261010107D
:1045000010102E2E0D0D10170B7880F83A30104633
:1045100008BD0B88A0F85A30104608BD0B7880F80B
:104520003930104608BD124BD3F8E01AC16393F935
:10453000E43A80F84030104608BD0B7880F85930D6
:104540004B7880F85830104608BD0B7880F8393029
:104550004B7880F83B30104608BD222105480FF00B
:10456000CDFD054810F066F8002008BD002008BD0C
:1045700078C7FF1F40AE0100A8A3FF1F2DE9F84335
:1045800090F83460554D564C002E90460ABF2C468C
:104590000A270D277D2900F29F80DFE801F0479D63
:1045A0009D9D9D9D9D9D9D9D9D9D9D9D9D9D9D9D3B
:1045B0009D9D9D9D9D9D9D9D9D9D9D9D9D9D9D9D2B
:1045C0009D9D9D9D9D9D9D9D9D9D9D9D9D9D9D9D1B
:1045D0009D9D9D9D9D9D9D9D9D9D9D9D9D9D9D9D0B
:1045E0009D9D9D9D9D9D9D9D9D9D9D9D9D9D9D9DFB
:1045F0009D9D9D9D9D9D9D9D9D9D9D9D9D9D9D9DEB
:104600009D9D9D9D9D9D9D9D9D9D9D9D9D9D9D5E19
:104610006D6368727B8085898D92973F98F8003032
:1046200080F8463000231846BDE8F88307EB4707BB
:10463000033FDFF8B0900646274445462379617969
:1046400019F803302A463046FFF798FF0334A74293
:104650000544F3D1C8EB0503E5E798F8002080F89E
:104660003820E0E798F8002080F84320DBE7B8F82E
:104670000020A0F84420D6E798F8002080F84220D7
:10468000D1E798F8001090F8462061F3040280F812
:104690004620C8E7B8F90020A0F84820C3E7B8F9D9
:1046A0000020A0F84A20BEE7D8F80020C264BAE78C
:1046B000D8F800200265B6E7B8F90020A0F8542029
:1046C000B1E7B8F90020A0F85620ACE71A464146F9
:1046D000BDE8F843FFF700BF0023A4E7908FFF1F5A
:1046E000A494FF1FB89FFF1F10B58AB00446242270
:1046F00001A80DF0E9FF01AA204624230021FFF7BD
:104700003DFF94F83430002B14BF0E2018200AB05F
:1047100010BD00BF012A08B533DD90F8463003F024
:104720001F03192B36D8DFE803F0101217101010F2
:10473000101010101010101C1C1010101010242439
:104740000D0D101790F83A300B70104608BDB0F8F8
:104750005A300B80104608BD90F839300B70104667
:1047600008BD90F859300B7090F858304B701046D7
:1047700008BD90F839300B7090F83B304B70104604
:1047800008BD222104480FF0B9FC04480FF052FF85
:10479000002008BD002008BD64AE0100A8A3FF1FD3
:1047A0002DE9F84390F83450604E614C002D90464E
:1047B0000ABF34460A270D277D2900F2B380DFE8BF
:1047C00001F046B1B1B1B1B1B1B1B1B1B1B1B1B1B5
:1047D000B1B1B1B1B1B1B1B1B1B1B1B1B1B1B1B1C9
:1047E000B1B1B1B1B1B1B1B1B1B1B1B1B1B1B1B1B9
:1047F000B1B1B1B1B1B1B1B1B1B1B1B1B1B1B1B1A9
:10480000B1B1B1B1B1B1B1B1B1B1B1B1B1B1B1B198
:10481000B1B1B1B1B1B1B1B1B1B1B1B1B1B1B1B188
:10482000B1B1B1B1B1B1B1B1B1B1B1B1B1B1B1B178
:10483000B1B1B15E73656C7A838A91979DA4AB3FE9
:1048400090F8463088F800300020BDE8F88307EB88
:104850004707033FDFF8DC900646274445462379A7
:10486000617919F803302A463046FFF799FF03347F
:10487000BC420544F3D1C8EB0500BDE8F88390F8CD
:10488000382088F800201846BDE8F88390F84320C7
:1048900088F800201846BDE8F883B0F84420A8F84E
:1048A00000201846BDE8F88390F8422088F80020E0
:1048B0001846BDE8F88390F84620C2F3040288F851
:1048C00000201846BDE8F883B0F94820A8F8002079
:1048D0001846BDE8F883B0F94A20A8F80020184629
:1048E000BDE8F883C26CC8F800201846BDE8F8831C
:1048F000026DC8F800201846BDE8F883B0F95420CE
:10490000A8F800201846BDE8F883B0F95620A8F8AA
:1049100000201846BDE8F8831A464146BDE8F84332
:10492000FFF7F8BE0020BDE8F88300BF908FFF1F9F
:10493000A494FF1FB89FFF1FF0B58BB00E4601AACD
:10494000242300210746FFF72BFF31460246054688
:1049500001A80DF003FF97F834301648002B4FF0F4
:104960000D0114BF0E2418240FF0C8FB00230A22E7
:10497000397811480FF084FE022110480FF0BEFB79
:1049800031460D480FF0BCFE01210D480FF0B6FB7B
:10499000294609480FF0B4FE012109480FF0AEFB8B
:1049A000214605480FF0ACFE03480FF043FE2046B9
:1049B0000BB0F0BD88AE0100A8A3FF1F14B3010027
:1049C00030AC0100012A08B524DD90F842300E2BEE
:1049D00029D8DFE803F01A1A0808100E0E0E0E0E82
:1049E0000E0E0E0E0E000B7880F835304B7880F8E6
:1049F0003730104608BD0D4BD3F8E01A816393F9A8
:104A0000E43A80F83C30104608BD0B7880F8363028
:104A1000104608BD222106480FF070FB05480FF034
:104A200009FE002008BD002008BD00BF78C7FF1F99
:104A300040AE0100A8A3FF1F80292DE9F8431446CA
:104A400041D00AD982292FD022D3832932D11A46C4
:104A50002146BDE8F843FFF7B5BF7E292DD01DD80C
:104A600041BB1C4DDFF870900646174605F1120851
:104A700014462B79697919F8033022463046FFF73E
:104A8000DBFF033545450444F3D1E01BBDE8F88363
:104A90001288A0F840201846BDE8F883127880F804
:104AA0003E201846BDE8F883127880F84220184668
:104AB000BDE8F8830020BDE8F883127880F8342040
:104AC0001846BDE8F883127880F83F201846BDE804
:104AD000F88300BF8C94FF1FB89FFF1F10B584B0F0
:104AE0000446102268460DF0EFFD6A46204610236A
:104AF0000021FFF7A1FF082004B010BD70B50546E6
:104B000008460E460DF0C6FDB41C85F82C01214662
:104B100005F1CC00FFF7E2FF04442146281DFFF712
:104B2000E3FD0444214605F16800FFF7DDFD204464
:104B3000831B2A78024903480FF094FD302070BD92
:104B400098AE0100A8A3FF1F012A10B514DD90F84C
:104B500042400E2C17D80123A34047F6F0741C40A6
:104B60009CB913F00C0F12D113F003030BD090F883
:104B700036300B70104610BD222109480FF0BEFAE6
:104B800008480FF057FD002010BD104610BD90F8EA
:104B900035300B7090F837304B70104610BD00BFA9
:104BA00040AE0100A8A3FF1F80292DE9F843144659
:104BB00041D00AD982292FD022D3832932D11A4653
:104BC0002146BDE8F843FFF7BFBF7E292DD01DD891
:104BD00041BB1C4DDFF870900646174605F11208E0
:104BE00014462B79697919F8033022463046FFF7CD
:104BF000DBFF033545450444F3D1E01BBDE8F883F2
:104C0000B0F8402022801846BDE8F88390F83E2096
:104C100022701846BDE8F88390F8422022701846AA
:104C2000BDE8F8830020BDE8F88390F834202270B6
:104C30001846BDE8F88390F83F2022701846BDE87A
:104C4000F88300BF8C94FF1FB89FFF1F2DE9F04130
:104C500084B00F4610236A4600218046FFF7A4FF68
:104C6000184C194D02460646394668460DF076FD49
:104C70000E2116480FF042FA00230A2298F800107D
:104C800020460FF0FDFC022111480FF037FA39469B
:104C900020460FF035FD284601210FF02FFA31464E
:104CA00020460FF02DFD284601210FF027FA08219C
:104CB00020460FF025FD20460FF0BCFC082004B074
:104CC000BDE8F081A8A3FF1F30AC0100B8AE010021
:104CD00014B3010070B5054682B002A895F82C31D6
:104CE00000F8013D01228C1C0E460DF037FD2146D7
:104CF00005F1CC00FFF7AAFF04442146281DFFF769
:104D00001BFE0444214605F16800FFF715FE132140
:104D1000044416480FF0F2F900230A2229781448B7
:104D20000FF0AEFC022113480FF0E8F931461048AD
:104D30000FF0E6FCA61B01210F480FF0DFF931460A
:104D40000B480FF0DDFC01210B480FF0D7F921468D
:104D500007480FF0D5FC06480FF06CFC2B78082BA9
:104D60000CBF3046302002B070BD00BFC8AE01009D
:104D7000A8A3FF1F14B3010030AC010070B5FA29DD
:104D800082B00C46054639D3FB2923D9FC2935D1FD
:104D9000214E2249002385F82030142206F549606F
:104DA00012F01CF91E4B1B68019342F21072019B1A
:104DB000C6F8902DC6F8943D200240F00F000EF08A
:104DC0006DFEAB6A5B6D1868036821461B689847E7
:104DD00002B070BD104E1349012385F82030142213
:104DE00006F5496012F0FAF80D4B1B68009342F289
:104DF0001072009BC6F8902DC6F8943D04F108038C
:104E0000DBB2072BE4D8012202FA03F313F0DD0F23
:104E1000D2D102B070BD00BF78C7FF1FE8AE01005D
:104E2000CCDCFF1FDCAE010038B504460DF0C0FE3F
:104E3000236A2269C31A9A42054616D36369E26956
:104E400003EB4303AD1AAB420ED20C4D0C480D4997
:104E50000D4A00232B602361E3612362636184F8C0
:104E6000243003600B60136038BDF8210748FFF75A
:104E700085FF226A236913442362DFE7A8DCFF1F52
:104E8000D8B8FF1FB8B0FF1F20B1FF1F30D5FF1FDC
:104E900030B5037883B0002B38D090F842200D2A2B
:104EA000044633D0042A0D464ED018460DF06CFE51
:104EB00094F82C30B3B194F82D30984241D02F4B58
:104EC0001A680192019A22631B680093009BB4F850
:104ED00040109B1A021C18BF012284F82D208B421F
:104EE00098BF0220022811D0638898420ED06080BB
:104EF00080B994F8423003F0FD03012B39D1227AB6
:104F000082F001021346227211460DE00025284668
:104F100003B030BD94F8423003F0FD03012BF5D00F
:104F200000210A460B4622722B6094F844000DF0D3
:104F300025FE94F84230042B11D00125284603B0F9
:104F400030BD226B0D4BBFE70269002AADD090F84F
:104F50002420002AA9D0FFF767FF2378A5E7257A48
:104F6000002DEAD094F93C20A16B2046FFF7CEF942
:104F7000CDE701210A460B46D5E700BFCCDCFF1F79
:104F80002DE9F84F8A46002961D0404BDFF8208197
:104F90003F4AC8F8102093E8030000230A0CC8F821
:104FA0000000A8F8041088F8062088F814300127BB
:104FB000384DC82405F1690B07E0BAF1000F36D16E
:104FC00007350134AB45E4B220D02B78002BF4D068
:104FD0007E0006EB070908EBC90948460622294668
:104FE00011F0FCFFBAF1000F2BD12B4BC9F8103098
:104FF0003E4408EBC6060735002301373475AB4540
:1050000004F10104FFB2B371E4B2DED1234B244CAE
:1050100093E8070007EB470308EBC308A8E8030081
:105020000023A8F8002063713846BDE8F88F1D4AB8
:105030007E0092E80300F31908EBC30248F833003E
:105040009180F31908EBC303174A1A61D0E7DFF820
:1050500060800E4A88F8141092E80300134BC8F8D9
:1050600000000E0CA8F8041093E8070008F11803DC
:1050700003C3094D064CC8F8285088F8066088F824
:105080002CA0C8F810401A80022791E704AF010055
:10509000155200005ED2FF1F15530000F8AE01004C
:1050A0004CC2FF1FF0AE01005D5200000CAF0100CA
:1050B000E8B8FF1F2DE9F84F0021FFF761FFDFF887
:1050C00070B0DFF86090DFF86C80824605460126FC
:1050D000002705EB450409EBC40420462675594614
:1050E000C4F810800622013611F078FF0135302E09
:1050F000A771EDB20BF1070B0A4B4FF00004E8D19A
:10510000094A0A4D07CA0AF12F0A5FFA8AFA0AEB1E
:105110004A0603EBC60303C31A806C715046BDE810
:10512000F88F00BFE8B8FF1F18AF01004CC2FF1F87
:105130000FA8010015530000324B2DE9F0479942AA
:105140004FF00004824644614DD02F4B99420E46E9
:1051500050D0A046DFF8B89000E00134304609F0A6
:105160003BFF84422146304618DA09F01DFF037DDB
:10517000002BF2D02146304609F016FF07460FCF2C
:1051800008EB480509EBC5050FC597E8030008F1D2
:10519000010885E803005FFA88F8DEE7304609F089
:1051A0001BFF0146304609F0FFFE05460FCD08EB18
:1051B000480409EBC4040FC495E8030084E8030025
:1051C000124B72795A71FF2201218AF8632283F807
:1051D00004808AF862125046C3F800900B49BDE87B
:1051E000F04709F0B5BFFFF765FFDFF82490074BE4
:1051F0008046E8E70121FFF7C3FEDFF81490034B78
:105200008046E0E7D0B8FF1F94B8FF1F4CC2FF1FD5
:10521000E8B8FF1F70B50F4CD4F86C2BD4F8000E13
:10522000D4F8681B0568C2F1400382B01BB20026A7
:105230008DE84800C1F1800312B21BB22D6C09B297
:10524000A84704F535600449FFF776FF012002B056
:1052500070BD00BF78C7FF1FC0DCFF1F30B52A4CF0
:1052600094F8A85D83B0CDB1284B1B78264D284912
:10527000C3EBC303E2182D230024019302F6E622B8
:1052800005F5356000940623FDF702FEA8B185F808
:10529000A84D03B0BDE83040FFF7BCBFD4F85C1B9D
:1052A000D4F8580B09F080FE007D184B00F138024D
:1052B000D2B20F2A187002D9012003B030BD617834
:1052C000022905D0032918D001290ED0AD72FFDEC6
:1052D00021784FF4987505FB0141403100F1390503
:1052E00088721A7084F8A85DBFE721784FF498752A
:1052F00005FB014101F58271F0E721784FF49875C3
:1053000005FB0141A431E9E778C7FF1FD0D9FF1F92
:1053100024AF010010B5194B5A78022A26D0032A6F
:105320001DD0012A08D0D3F85C1BD3F8580B09F024
:105330003BFE00239B72FFDE1A784FF4987404FB47
:10534000023404F58274D3F85C1BD3F8580B09F0CF
:105350002BFE037DA372BDE81040FFF75BBF1A78F8
:105360004FF4987404FB0234A434ECE71A784FF439
:10537000987404FB02344034E5E700BF78C7FF1F90
:1053800030B5304C637885B02022022BADF80C206C
:1053900034D0032B2BD0012B02D000235B7AFFDE0D
:1053A00023784FF4987202FB034303F582735B7A10
:1053B00003B920238DF80C3000252D23019303AA77
:1053C0000123214900952148FDF762FD9DF80C302D
:1053D00062781C49202B08BF8DF80C50022A2AD075
:1053E000032A21D0012A10D000235B72FFDE23782C
:1053F0004FF4987202FB0343A433D8E723784FF4A9
:10540000987202FB03434033D1E70A784FF4987354
:1054100003FB021303F582739DF80C205A7208B146
:10542000FFF7F8FE05B030BD0A784FF4987303FB20
:105430000213A433F0E70A784FF4987303FB0213C6
:105440004033E9E778C7FF1F2CAF0100C8D2FF1F28
:1054500030B5304C637885B02022022BADF80C209B
:1054600034D0032B2BD0012B02D00023DB7AFFDEBC
:1054700023784FF4987202FB034303F58273DB7ABF
:1054800003B920238DF80C3000252D23019303AAA6
:105490000123214900952148FDF7FAFC9DF80C30C5
:1054A00062781C49202B08BF8DF80C50022A2AD0A4
:1054B000032A21D0012A10D00023DB72FFDE2378DB
:1054C0004FF4987202FB0343A433D8E723784FF4D8
:1054D000987202FB03434033D1E70A784FF4987384
:1054E00003FB021303F582739DF80C20DA7208B1F6
:1054F000FFF790FE05B030BD0A784FF4987303FBB8
:105500000213A433F0E70A784FF4987303FB0213F5
:105510004033E9E778C7FF1F34AF0100C8D2FF1F4F
:1055200070B50F4CD4F86C2BD4F8000ED4F8681B6F
:105530000568C2F1400382B01BB200268DE8480026
:10554000C1F1800312B21BB22D6C09B2A84704F559
:1055500035600449FFF7F0FD012002B070BD00BFC7
:1055600078C7FF1FD0B8FF1F70B50F4CD4F86C2B55
:10557000D4F8000ED4F8681B0568C2F1400382B06D
:105580001BB200268DE84800C1F1800312B21BB2A5
:105590002D6C09B2A84704F535600449FFF7CCFD2E
:1055A000012002B070BD00BF78C7FF1F50B1FF1FC0
:1055B00008B51C4A5378022B26D0032B17D0012B99
:1055C00007D000200121FCF79DFCBDE80840FFF753
:1055D000CBBF13784FF4987000FB032000F5827066
:1055E0000121FCF78FFCBDE80840FFF7BDBF137831
:1055F0004FF4987000FB0320A4300121FCF782FCDB
:10560000BDE80840FFF7B0BF13784FF4987000FB77
:10561000032040300121FCF775FCBDE80840FFF78E
:10562000A3BF00BF78C7FF1F70B50F4CD4F86C2B19
:10563000D4F8000ED4F8681B0568C2F1400382B0AC
:105640001BB200268DE84800C1F1800312B21BB2E4
:105650002D6C09B2A84704F535600449FFF76CFDCD
:10566000012002B070BD00BF78C7FF1FACB0FF1FA4
:1056700070B50F4CD4F86C2BD4F8000ED4F8681B1E
:105680000568C2F1400382B01BB200268DE84800D5
:10569000C1F1800312B21BB22D6C09B2A84704F508
:1056A00035600449FFF748FD012002B070BD00BF1E
:1056B00078C7FF1FACDCFF1F30B5062183B0174849
:1056C000174C09F029FD0721144809F025FD23781E
:1056D000082B1AD0D4F86C2BD4F8000ED4F8681B21
:1056E0000468C2F140031BB200258DE82800C1F117
:1056F000800312B21BB2246C09B2A04707490948C3
:10570000FFF71AFD012003B030BD0621034809F060
:10571000E7FC0721014809F0E3FCDBE780B0FF1F4D
:1057200078C7FF1FC8D2FF1F70B50F4CD4F86C2B81
:10573000D4F8000ED4F8681B0568C2F1400382B0AB
:105740001BB200268DE84800C1F1800312B21BB2E3
:105750002D6C09B2A84704F535600449FFF7ECFC4D
:10576000012002B070BD00BF78C7FF1F08B3FF1F44
:1057700070B50F4CD4F86C2BD4F8000ED4F8681B1D
:105780000568C2F1400382B01BB200268DE84800D4
:10579000C1F1800312B21BB22D6C09B2A84704F507
:1057A00035600449FFF7C8FC012002B070BD00BF9E
:1057B00078C7FF1F94B0FF1F70B51B4C1B4D21789D
:1057C0001B484FF4987303FB0143002293F83031D8
:1057D0006270013B082918BF0546012B82B084F88E
:1057E0008D2C4FF002011CD909F07AFCD4F86C2BF7
:1057F000D4F8000ED4F8681B0468C2F140031BB251
:1058000000268DE84800C1F1800312B21BB2246C5F
:1058100009B2A04729460748FFF78EFC012002B0D5
:1058200070BD09F079FCE1E778C7FF1FECDAFF1FD4
:1058300048B1FF1FC8D2FF1F054B1A784FF498716B
:1058400001FB0233002283F83021FFF7B5BF00BF10
:1058500078C7FF1F38B50C4C20784FF4987505FBBE
:1058600000F02318184693F84E10A43001F01F01E1
:10587000FCF748FB237805FB0344012384F830310F
:10588000BDE83840FFF798BF78C7FF1F08B5094843
:1058900003784FF4987202FB03F3C21810460223F8
:1058A00082F83031A4300621FCF72CFBBDE808401B
:1058B000FFF782BF78C7FF1F30B5324CD4F86C2B8E
:1058C000D4F8000ED4F8681B012383B06370C2F1D2
:1058D00040031BB20568009300230193C1F18003CC
:1058E0001BB212B22D6C09B2A8470321264809F059
:1058F00013FC0421244809F00FFC0521224809F07B
:105900000BFC0621204809F007FC07211E4809F07E
:1059100003FC08211C4809F0FFFB23784FF498751D
:1059200005FB034393F81231042B14D0012B1DD92E
:10593000023B012B06D914491448FFF7FDFB012057
:1059400003B030BD0421104809F0CAFB05210E4800
:1059500009F0C6FBEFE708210B4809F0C1FB2378EB
:1059600005FB034595F81231012BE1D803210648C8
:1059700009F0B6FB23784FF4987202FB034494F8C5
:105980001231D5E778C7FF1F58AEFF1FC8D2FF1FDF
:1059900008B5FFF791FF012008BD00BF08B5134906
:1059A0004B78022B1AD0032B11D0012B02D00023ED
:1059B0009B73FFDE0A784FF4987303FB021303F521
:1059C00082730D229A73FFF777FF012008BD0A78D2
:1059D0004FF4987303FB0213A433F2E70A784FF4F1
:1059E000987303FB02134033EBE700BF78C7FF1F38
:1059F00010B515494B78022B1ED0032B15D0012B67
:105A000002D000239B73FFDE0A784FF4987303FBE8
:105A1000021303F5827300229A73FDF74BFE0446CE
:105A200008B1FFF749FF204610BD0A784FF498737C
:105A300003FB0213A433EEE70A784FF4987303FBD9
:105A400002134033E7E700BF78C7FF1F10B51549C1
:105A50004B78022B1ED0032B15D0012B02D0002334
:105A60009B73FFDE0A784FF4987303FB021303F570
:105A7000827301229A73FDF71DFE044608B1FFF7F9
:105A80001BFF204610BD0A784FF4987303FB0213E6
:105A9000A433EEE70A784FF4987303FB0213403304
:105AA000E7E700BF78C7FF1F38B5234C6378022BA8
:105AB0002AD0032B21D0012B02D000239B73FFDEC1
:105AC00023784FF4987202FB034303F5827302229A
:105AD0009A7394F8A83D184D3BB9012385F8A83D69
