:1000000000800020BD0100003D470100F5460100D1
:10001000F5460100F5460100F5460100F5460100F0
:10002000F5460100F5460100F54601003D47010097
:100030003D470100F5460100716201007562010053
:100040003D4701003D4701003D4701003D4701009C
:100050003D4701003D4701003D4701003D4701008C
:100060003D4701003D4701003D4701003D4701007C
:100070003D4701003D4701003D4701003D4701006C
:100080003D4701003D4701003D4701003D4701005C
:100090003D4701003D4701003D4701003D4701004C
:1000A000CD310100D93101003D4701003D4701003C
:1000B0003D4701003D4701003D4701003D4701002C
:1000C0003D4701003D4701003D4701003D4701001C
:1000D0003D4701003D4701003D4701003D4701000C
:1000E0003D4701003D4701003D4701003D470100FC
:1000F0003D4701003D6F01003D4701003D470100C4
:100100003D4701003D4701003D4701003D470100DB
:100110003D4701003D4701003D4701003D470100CB
:100120003D4701003D4701003D4701003D470100BB
:100130003D4701003D4701003D4701003D470100AB
:100140003D4701003D4701003D4701003D4701009B
:100150006164010075640100896401009D6401000F
:100160003D470100ED4D01003D4701003D470100C5
:100170003D4701003D4701003D4701003D4701006B
:100180003D4701003D4701003D4701003D4701005B
:100190003D4701003D4701003D4701003D4701004B
:1001A0003D4701003D4701003D4701003D4701003B
:1001B0003D4701003D4701003D470100524B4CF2D5
:1001C000205210B51A804DF628121A8000BF00BFC9
:1001D00014F0B8FA4D4B4FF010621A604C4A9A6016
:1001E0004C4ADA6003F5533303F2D2331A7811071D
:1001F00003D51A7842F008021A70474B47492A2261
:100200001A70474A474B8B4204D252F8040F43F806
:10021000040BF8E7444B454900228B4202D243F8D5
:10022000042BFAE74249434A002352F8230041F8DD
:10023000230001336F2BF8D13F4B404A802103F854
:10024000011B9342FBD13E4B394A1A603D4B8A2237
:100250001A70A3F5805324225A70A0221A709A793A
:100260009207FCD59A79D406FCD4374A937903F0E7
:100270000C03082B344BF9D103221A7140225A7116
:100280009A799006FCD5304A91792F4B4906FBD5D7
:100290002E4A2F4911600221516020221A709A794A
:1002A00002F00C020C2AFAD12A4B2B4A1A602B4B73
:1002B0002B4A1A6000225A60072243F8042C294A6C
:1002C000C3F80C2D62B614F037FC274B1B68DA0715
:1002D00005D5264814F094FB254B264A1A60264B78
:1002E0001B785B0609D5224C224B22689A4204D126
:1002F0001E4814F085FB0023236017F007FF14F05D
:1003000027FA16F031FAFEE70E200540308004404F
:10031000823F04000100002B00E00740C0AFFF1F38
:1003200074F50100308CFF1FC0AFFF1F2CE5FF1FCD
:100330000082FF1F0000000000E400E05FE400E036
:1003400008ED00E0005006400040064044800440B4
:100350000000030104800440C010050014E000E028
:10036000FF7601000000202014D00340D5602560F6
:100370001CE00340A5C3945A00F00740FFFFFFFFB5
:10038000FFFFFFFFFFFFFFFFFFFFFFFFFFFFFFFF7D
:10039000FFFFFFFFFFFFFFFFFFFFFFFFFFFFFFFF6D
:1003A000FFFFFFFFFFFFFFFFFFFFFFFFFFFFFFFF5D
:1003B000FFFFFFFFFFFFFFFFFFFFFFFFFFFFFFFF4D
:1003C000FFFFFFFFFFFFFFFFFFFFFFFFFFFFFFFF3D
:1003D000FFFFFFFFFFFFFFFFFFFFFFFFFFFFFFFF2D
:1003E000FFFFFFFFFFFFFFFFFFFFFFFFFFFFFFFF1D
:1003F000FFFFFFFFFFFFFFFFFFFFFFFFFFFFFFFF0D
:10040000FFFFFFFFFFFFFFFFFFFFFFFFDEF9FFFF23
:1004100010B5054C237833B9044B13B10448AFF33E
:1004200000800123237010BDC0AFFF1F000000003B
:1004300070F50100084B10B51BB108490848AFF32F
:1004400000800848036803B910BD074B002BFBD0A0
:10045000BDE81040184700BF00000000C4AFFF1FF8
:1004600070F50100C0AFFF1F00000000704700BF23
:10047000074A10B51378074C41F2F40083F00103EA
:1004800020581370194612F03DFA012010BD00BF2C
:1004900048B8FF1FF8C8FF1F70B541F2F003284CA1
:1004A0000546E05812F0FAFFB4F8863DB4F8842D02
:1004B000181A83B29342A4F8863D2CD014D86A69E6
:1004C000002AC4BF02F1FF326A61AA685279022A87
:1004D00027D04FF0FF30FF22A4F8843D012185F89A
:1004E000632285F8621270BDA8686E6910F056FB31
:1004F0002B69C01A864202DA6B6901336B61AB6803
:100500005B79022B09D123780D4A072B12D9B2F857
:10051000863DA4F8843D002070BDB4F8863D0120DE
:10052000D9E722780649002AF3D0013A0A704FF041
:10053000FF30D0E7013313700120B2F8863DCAE7DF
:10054000F8C8FF1F024A41F2F003D05812F0EABF88
:10055000F8C8FF1F10B5044600F58750083015F0A5
:100560005DFF04F5875015F059FF204610BD00BF10
:10057000234B1B6803F16402904270B504DA643BBC
:10058000984201DD022070BD1E4B1B6803F164021E
:10059000904204DA643B984201DD032070BD1A4B9F
:1005A0001D680446B5F95800C0F13C0017F012FB75
:1005B0000646B5F95A0017F00DFB0146304617F014
:1005C00011FC0646286E17F005FB0146304617F071
:1005D00055FB0646E86D17F0FDFA0146304617F068
:1005E00045FA17F011FD00F164039C4205DA643806
:1005F0008442D4BF0020012070BD002070BD00BF28
:1006000078B0FF1F7CB0FF1FC8C3FF1FF8B5427A48
:1006100005460E4602B301230A701C46A97A89B129
:10062000C7291CD93831C9B2164FC1EBC1010F44DB
:10063000F018394618F04AFB384618F0C1FB204440
:10064000C4B22346EA7A1AB10134E4B2F254234622
:100650000022F2542046F8BD13461446DEE70A4F46
:10066000C1EBC101F0183944062218F017FCA87A32
:10067000C0EBC000384418F0A3FB2044C4B22346AA
:10068000E0E700BFD1D6FF1F90CA01002DE9F0417D
:100690001A4D41F24C540646285912F09DFE38B3CB
:1006A000B3685B79022B15D041F24C57DFF84C80D0
:1006B000E85912F095FE044610B92046BDE8F081D5
:1006C00058F8070012F034FE0023C6F854322046D2
:1006D000BDE8F081D6F85432B3F57A7FE4D901242D
:1006E000002385F8824F2046C6F85432BDE8F081D9
:1006F000285912F065FEC6F85402D1E7F8C8FF1F6A
:10070000012070470120704738B50E4B01EB4101C5
:1007100005461944144618F0C1FB00232B550A4A1C
:1007200041F2F4032846D45818F04AFB23680246E5
:1007300029465B68204698472046BDE8384015F0BA
:10074000CDBE00BFE0CB0100F8C8FF1F2DE9F04F80
:100750002F4EDFF8C89041F2F40585B0735903902D
:100760001A6800274FF01A080197CDF80080146C22
:1007700018462D227B233946A0477059012111F0DC
:100780004FF9745923492368A7822A224FF0010A9E
:100790004FF0040B5B682282A4F812A00822A4F890
:1007A0000EB020469847204615F098FE039A1A4B43
:1007B000745953F82210A4F80EB03223238208464D
:1007C000039118F0FDFA236803995B6802462046FE
:1007D0009847204615F082FE705903688DE80005A1
:1007E00025223946DC6C7B23A04714F035F9D9F873
:1007F000003047F22F52C01A904206D9705911F0BA
:100800007BFF14F029F9C9F8000005B0BDE8F08FAE
:10081000F8C8FF1F34CC0100548DFF1FF4C8FF1F20
:100820002DE9F04390F96332664E013387B00446F8
:1008300061D041F2F4030121F05811F0F1F825697B
:100840006369A0681D4410F0A9F9854280F2A88070
:100850006369276994F963821F44E368984541F20C
:10086000F40300F0A980F3580121002259829A82F2
:1008700002AD29464246204610F0F4F9284618F009
:100880009FFA0D2807DC28440DF11602202300F8FA
:10089000013B9042FBD16269E369A16941F2F40036
:1008A000C2EB08083658093303EBC8034FF00009C0
:1008B0008DF8169028463382F18118F081FA33685A
:1008C00002465B68294630469847304615F006FEDA
:1008D00094F8633201335BB2BB4284F8633202D0D6
:1008E00007B0BDE8F083FF2384F8629284F8633296
:1008F00007B0BDE8F08341F2F4050121705911F011
:100900008FF8A36872591F680021012050829182DC
:10091000184610F043F900B200EB400102AD07EBBE
:10092000C1010E22284618F0B9FA284618F048FAF4
:100930000D2807DC28440DF11602202300F8013BA6
:100940009042FBD141F2F408B4F91C3056F808701B
:10095000A26900218DF816102846FA813B8218F012
:100960002FFA3B68024629465B6838469847384666
:1009700015F0B4FDE26956F80800A169056808326F
:1009800012B201238DE80C0001F15403AD6C1BB2CF
:1009900009B2A847636984F8633207B0BDE8F08301
:1009A000A06810F0FBF8E36894F963829845074665
:1009B00041F2F4037FF457AFF3580021012259822A
:1009C0009A8255E7F8C8FF1F70B5044608460D46E1
:1009D00018F0F6F923680246294620465B68BDE810
:1009E000704018472DE9F04F002387B00122437073
:1009F00000F684530025027000F1040B0493059067
:100A00004FF07E53CBF80C304FF000038BF81E30C4
:100A10004FF0030300274FF001094FF03C084FF05F
:100A2000280AABF814304FF61943ABF81C308BF89A
:100A300010708BF811708BF812708BF81370CBF864
:100A40002070CBF82470CBF82870CBF82C70CBF842
:100A50003070CBF834708BF838708BF80470ABF8CA
:100A60001870ABF81A708BF808908BF809908BF817
:100A70000A808BF80BA0382015F07EFE4FF08146DF
:100A800006614FF48066394646603A46E84B80F886
:100A900014908561056280F82470044613F0A4F96F
:100AA0009BF85A30CBF83C4003F0E00367F3461361
:100AB0008BF85A30DF4BCBF844304FF07803ABF86B
:100AC0005E30ABF86A3040F6FF73CBF86030DA4B3B
:100AD000CBF864304FF07F038BF86C308BF86D30BF
:100AE0004FF47A73ABF86E304FF0FF338BF87430FD
:100AF0004FF003024FF6FF73ABF8582063604FF0DE
:100B00007E52CE4BCBF8502023618BF841708BF88E
:100B100040908BF848708BF84C908BF84D908BF888
:100B20004E808BF84FA08BF854708BF855708BF873
:100B300056708BF857708BF85B70ABF85C70ABF845
:100B40006870382015F018FE46604FF081464A461E
:100B500039460661BA4B80F814908561056280F8C9
:100B60002470044613F040F94FF00303ABF88830CB
:100B70004FF61943ABF890304FF07E53CBF88030EE
:100B800040F6FF7363604FF08043CBF870408BF802
:100B900084708BF885708BF886708BF88770CBF833
:100BA0009470CBF89870CBF89C70CBF8A070CBF811
:100BB000A470CBF8A8708BF8AC70ABF88C70ABF865
:100BC0008E708BF892702361ABF81A708BF8757089
:100BD0008BF87C908BF87D908BF87E808BF87FA0D3
:100BE0008BF87870382015F0C7FD4FF480664660AA
:100BF0004FF08146394606613A468D4B80F8149095
:100C00008561056280F82470044613F0EDF8894A86
:100C1000CBF8B8204FF00302ABF8CC204FF07802AD
:100C2000ABF8D22040F6FF729BF8CE30CBF8D42040
:100C3000814ACBF8D8204FF07802ABF8DE2003F0E1
:100C4000E0034FF07F028BF8E0208BF8E12067F3A0
:100C500046134FF47A72ABF8E2208BF8CE304FF0A7
:100C6000FF324FF6FF738BF8E82063604FF07E523F
:100C7000724BCBF8B040CBF8C4208BF8B5708BF832
:100C8000B4908BF8BC708BF8C0908BF8C1908BF847
:100C9000C2808BF8C3A08BF8C8708BF8C9708BF832
:100CA000CA708BF8CB708BF8CF70ABF8D070ABF804
:100CB000DC702361382015F05FFD4FF480664660DC
:100CC0004FF081464A46394606615D4B80F81490E4
:100CD0008561056280F82470044613F085F84FF6AC
:100CE0001943ABF804314FF00303ABF8FC304FF07D
:100CF0007E53CBF8F43040F6FF7363604FF08043CF
:100D0000CBF8E440ABF88E708BF8E9708BF8F0907C
:100D10008BF8F1908BF8F2808BF8F3A08BF8F870D9
:100D20008BF8F9708BF8FA708BF8FB70CBF80871C0
:100D3000CBF80C71CBF81071CBF81471CBF818719B
:100D4000CBF81C718BF820718BF8EC70ABF800714C
:100D5000ABF802718BF806712361382015F00CFD99
:100D60004FF4806646604FF081463A463946304B34
:100D700006618561056280F8149080F8247004464D
:100D800013F032F82B49CBF82C114FF00301ABF8DC
:100D90003C114FF0FF319BF860218BF840114FF070
:100DA0007E51CBF834114FF6FF7161604FF0FF3385
:100DB00067F303022149CBF824418BF833A18BF868
:100DC00032818BF865818BF829718BF828918BF82B
:100DD00030918BF831918BF838718BF839718BF831
:100DE0003A718BF83B718BF83E718BF84471CBF8FC
:100DF0004871CBF854718BF858718BF85C718BF893
:100E000062718BF863718BF864718BF86691CBF823
:100E100067718BF86021CBF86B7121618BF86F7172
:100E20008BF80030049B8BF87071CBF8747109E07B
:100E300017B7D1389F86010001F0FFFF0000604224
:100E40000AD7233CCBF878718BF87E718BF87D71D3
:100E50008BF87C710BF5C07B9B457FF4D1ADDDF841
:100E600014A0BA4C9AF8882DCAF8C44D67F303024F
:100E70008AF8882D4FF000028AF8972D8AF8982D6D
:100E80008AF8A42D40F6FF72CAF8A82DAF4ACAF816
:100E9000AC2D4FF0FF3340F6FF724FF00001AAF87F
:100EA000843DCAF8B42D9AF8D13DCAF8B82DA74AA6
:100EB0008AF88A1D8AF88B1D8AF88C1DCAF8BC2D09
:100EC00047F2305140F6FF724FF47A7443EA090357
:100ED000AAF8861D9E489F49CAF8C02DAAF8C84D99
:100EE00011224FF000048AF8D13D8AF8D04DCAF89B
:100EF000CC0DCAF8D41D8AF8D82D394669228AF853
:100F00008D8D8AF88E9DCAF88F7DCAF8937DCAF8B8
:100F10009C7DCAF8A07DCAF8B07D0AF6D95017F0BA
:100F20005BFC0AF644600FF03BFE8B4B8AF8644E84
:100F30008AF8724FCAF8443EFB22394641F28406D1
:100F4000CAF8687FAAF8707FCAF8847F0AF68870AA
:100F500017F042FC41F28C0541F2880241F2900305
:100F600041F294004AF8067041F298064AF802707D
:100F70000AF585544AF8057041F29C024AF803705C
:100F800041F29D054AF8007041F2A4004AF806704B
:100F90004FF0000E41F2A5060AF802E00AF805E05B
:100FA00041F2A60227608AF882EF8AF883EFCAF836
:100FB000587ECAF8607E8AF8819F0AF800E04FF0F8
:100FC000FF3E0AF806E041F2A70541F2A8034FF000
:100FD000000E0AF802E0072620464FF0FF3E0AF80E
:100FE00005E036224AF803701B30CAF8546E5B4D98
:100FF000CAF85C2E23464FF000067F21024684F893
:101000002C90276384F8386065630B3303F8011F65
:10101000834202F8011FF9D10AF5875241F2E8062E
:1010200000201446802141F2F8071171106041F24E
:10103000FC054AF806001173962284F83800C4F8BB
:10104000280484F82C04C4F83004C4F8340484F868
:101050006A040AF588534AF8072040F267224AF8E2
:10106000052041F204114FF487621A6041F208161C
:1010700040F209634AF8013041F20C1541F21012B6
:1010800040F2DA734AF8063041F2141140F6AB131D
:1010900040F67C364AF805304AF8026040F64D5575
:1010A0000AF5A8530AF5AA524AF801501733014627
:1010B00084F86B04093203F8011F93424FF00004D7
:1010C000F9D1942015F058FB054612F0DDFA41F2F3
:1010D000DC0324204AF8035015F04EFB04230722BA
:1010E00006218DE818004FF0FF33054612F082F913
:1010F00041F2F00310204AF8035015F03DFB04467E
:1011000012F0E4F841F24C5315484AF8034011F04C
:1011100021FD0E21124811F085FD642015F02CFBF5
:10112000104B0393092108220A238DE80E000C4B73
:1011300040228021044610F06FFE41F2F403504635
:101140004AF8034007B0BDE8F08F00BF01F0FFFF91
:101150009A99993F52491D3A10DF01007CDEFF1F2A
:1011600014A3FF1F00127A0030B583B00546069C19
:10117000002CCABFE0B2007D28752B614BB942B28A
:10118000002A02DD194613F04DFC00232B7003B03A
:1011900030BD084BA9601B68019343B2019CEA6013
:1011A0000121002B6C602970F1DD13F03BFC03B0D2
:1011B00030BD00BF80E1FF1F0369F3B110B51649D0
:1011C0000278096882B0012A0191019916D0446819
:1011D000C26822448A420ED2002B416002DD013BEC
:1011E000036143B1037D5AB20121002A017002DD7F
:1011F000184613F017FC02B010BD704742688368B0
:1012000013448B42F7D2037D41605AB200218A42D7
:101210000170EDDCEFE700BF80E1FF1F70B5064E07
:1012200041F24C55705912F0DBF8044610B1705978
:1012300012F07EF8204670BDF8C8FF1F38B5144C78
:1012400041F2F0030546E05812F028F9B4F8863D63
:10125000B4F8842D181A83B29342A4F8863D15D0B1
:101260000C4A11680AD80029CCBF01F1FF310021D6
:1012700011604FF0FF30A4F8843D38BDA942B8BFDB
:10128000013111600120A4F8843D38BD002038BD33
:10129000F8C8FF1F2CB0FF1F2DE9F04F914BDFF86E
:1012A000789241F2F4048FB0185900254022036867
:1012B0008DE8240029461E6C2A468023B047894BBE
:1012C0000121185910F0ACFB864B87491859036867
:1012D000858201265B68C58108220582468298477F
:1012E000804B19781859314415F05EF97D4B7F49D0
:1012F0001859036807225B689847D9F8000000284E
:1013000000F0D98016F066FC4FF07C5116F0B6FC68
:1013100016F082F8734B1D59009602460B4628467C
:1013200015F04AF96F4B72491C59236832465B68C5
:1013300020469847204615F0D1F8002306936D4BC0
:101340000793DFF8D8810E230593059B079E043B86
:101350001BB20493069B1D4603EB43030393002437
:101360000127039BD9F80020D8F800A0EB189A4277
:1013700000F09A804FF00003AAF81270AAF8143017
:101380000FFA84FBBDF81030AAF8103009A8AAF8AB
:101390000EB0002D00F09B8017F012FDDAF800303F
:1013A00002465B6809A950469847504615F096F8E2
:1013B0003378002B6CD11E34A4B2782C06F10106D0
:1013C00005F10105CDD1059B069A09339BB2059322
:1013D000079B01320433052A06920793B5D141F2E7
:1013E000F404404A44491059372302680382012516
:1013F0000023566845828382C3810422B0473F4B55
:10140000384A196810593E4E15F0CEF8354B3D4913
:10141000185903682A465B689847324B3168185957
:1014200015F0C2F82F4B3749185903682A465B68F4
:101430009847354B30681E687368C01A16F0CAFBAF
:101440000746B06816F0C6FB0146384616F0CAFCDF
:101450002E4916F013FC15F0DFFF224B1E59022710
:1014600002460B460097304615F0A6F81D4B204962
:101470001E5933682A465B6830469847304615F057
:101480002DF8184B185911F037F90FB0BDE8F08F4F
:10149000D8F80000BDF9142003680097D3F83CA0E9
:1014A00059461823D04786E74FF00003AAF81230B8
:1014B000AAF8147064E70B4B15491C5923682046A1
:1014C0005B6803229847204615F008F835E7DAF8FC
:1014D000003010495B68042250469847504614F08B
:1014E000FDFF68E7F8C8FF1F40CC01004CCC0100AD
:1014F00054CC01009CB2FF1F64CC0100C892FF1FB6
:10150000D098FF1F6CCC0100A4B0FF1F0000204149
:1015100058CC01005CCC01002CB0FF1FECD9FF1FA0
:101520002DE9F04F9F4BA04AA04C1B6812685968E8
:1015300092F856609B6841F2F40785B0E059029337
:1015400000254022036803918DE8240029462A469D
:10155000D3F840808023C047E059012110F060FAA1
:10156000E05993490368858201224282C581058240
:101570005B680322984721780729C6F3411640F299
:10158000DE806378E059022B03680CBF89498A49E1
:101590005B6805229847894F3B68002B40F0C78065
:1015A00041F2F40101226058438282820368844937
:1015B0005B68082298473B68012B00F0D58041F218
:1015C000F4030122E55800236A82AB822B687D492F
:1015D0005B68DFF8D8B10322284641F2F40A984745
:1015E000284614F07BFF54F80A5077492B684FF0D7
:1015F00000084FF0010911225B682A82A5F81290B9
:101600001022A5F81480A5F80E8028469847284691
:1016100014F064FF3B685BF80A00022B4FF01B03D9
:101620000382036807BFA0F81280A0F81490A0F806
:101630001290A0F814800022022EC2810CBF6349D0
:1016400063495B68102298473B68032B41F2F4031F
:1016500000F08480E0580122002342828382252307
:1016600003820368022E4FF0000241F2F4050CBF22
:1016700058495949C2815B681022984760595749B7
:101680000268012343823727002307825768838239
:10169000C3810422B847524B444A1B68002B0DDD1E
:1016A000504F555903EB83031F44384617F088FB0E
:1016B0002B68024639465B682846984741F2F40594
:1016C0000322605948490368384F5B689847474B85
:1016D0001868039B022EA0EB03004CD016F07AFA98
:1016E0000646029816F076FA0146304616F07AFB66
:1016F0003F4916F0C3FA15F08FFE7D5902260246C7
:101700000B460096284614F057FF41F2F4060122DA
:10171000A55938492B6828465B689847284614F035
:10172000DDFEA05905B0BDE8F04F10F0E5BF41F275
:10173000F4030122E05800234282838236E701311C
:10174000E05914F031FF6378E059022B03680CBFB5
:1017500029492A495B68052298471CE7E05800227E
:101760000123428283827AE741F2F4010022655824
:10177000AB826A822AE716F02DFA8046029816F0AC
:1017800029FA0146404616F02DFB1D4916F076FA5F
:1017900015F042FE7D59009602460B46284614F08D
:1017A0000BFFB2E7A4B0FF1FC8C3FF1FF8C8FF1F9D
:1017B00070CC010074CC01007CCC01002CB0FF1F68
:1017C00094CC010058CC0100A0CC0100B4CC0100A5
:1017D000C8CC0100DCCC0100F0CC010064CC0100DD
:1017E000C892FF1FA0C7010004CD0100D098FF1FC1
:1017F0000000204154CC010084CC01008CCC0100BD
:101800000000A0402DE9F04F884B894E41F2F405CD
:10181000002458598BB0402203688DE814002146FB
:101820001F6C22468023B847804B0121585910F085
:10183000F7F87E4B7F4958590368C48101275B68DC
:101840000482848247820A2298473368002B40F042
:10185000E080764A505943828782036876495B6804
:10186000082298473368012B00F0D88041F2F40336
:101870006E49CC58012200236282A38223686F49FB
:101880005B68DFF8D091032220469847204614F089
:1018900025FE41F2F405654B69495C5923684FF018
:1018A00000080A2201265B682282A4F80E80142216
:1018B000A4F81280A68220469847204614F00EFE17
:1018C0005A4B60495C592368A4F80E8025225B6856
:1018D0002282204614229847204614F0FFFD534BE5
:1018E00053F805A0584B594D0393AAF81260AAF873
:1018F00014804FEAA80606EB460659F804BF06EB2B
:10190000C60608F003074FF0000CB6B2C7EB071786
:1019100006F113037F00E345AAF81030AAF80E7011
:101920008DF818C064DB05AB06AC9C44A6460120CC
:101930009BFBF0F385FB0321DA17C2EBA10202EB5C
:101940008202A3EB420330330EF8013D00EB80002E
:10195000E6454FEA4000EBD105A817F031FADAF876
:10196000003002465B68504605A99847384BD3F8CB
:1019700000A0039B53F8041F039306F11C030026E9
:10198000B142AAF80E70AAF810308DF8186029DB61
:1019900005AB1E44012091FBF0F385FB0327DA170A
:1019A000C2EBA70202EB8202A3EB4203303304F83E
:1019B000013D00EB8000A6424FEA4000EBD105A8B4
:1019C00017F0FEF9DAF80030024608F101085B680A
:1019D000504605A99847B8F1080F11D01C4BD3F811
:1019E00000A086E72D2349428DF814300126CFE769
:1019F0002D23CBF1000B8DF814304FF0010C92E742
:101A000041F2F403094AD05810F076FE0BB0BDE85D
:101A1000F08F064B5859478284821EE741F2F40149
:101A2000024844580022A382628227E7F8C8FF1FB9
:101A30002CB0FF1F08CD010014CD010058CC0100CF
:101A400020CD010038CD010024B8FF1F676666660F
:101A5000ECD9FF1F7CB0FF1F7C4B1A68F0B4034623
:101A6000D46DB2F9580007290CD8DFE801F0042D35
:101A700032517292B20D764A10689188927918604C
:101A800099809A71F0BC7047126E0026A4185E719E
:101A900000F1BD806F4F1E440120053394FBF0F22E
:101AA00087FB0215D117C1EBA50101EB8101A2EB68
:101AB0004102303203F8012D00EB8000B3424FEABF
:101AC0004000EBD1F0BC7047634A10681860F0BC6E
:101AD00070470026041E5E71C0F2B2805D4F1E4446
:101AE0000120053394FBF0F287FB0215D117C1EBFF
:101AF000A50101EB8101A2EB4102303203F8012D77
:101B000000EB80009E424FEA4000EBD1F0BC7047F2
:101B1000B2F95A60002536185D7100F18C804D4F86
:101B20001D440120053396FBF0F287FB0214D11708
:101B3000C1EBA40101EB8101A2EB4102303203F8B9
:101B4000012D00EB8000AB424FEA4000EBD1F0BC2E
:101B50007047B2F964600025AE425D7166DB3D4FAF
:101B60001D440120053396FBF0F287FB0214D117C8
:101B7000C1EBA40101EB8101A2EB4102303203F879
:101B8000012D00EB8000AB424FEA4000EBD1F0BCEE
:101B90007047B2F966600025AE425D7141DB2D4FA2
:101BA0001D440120053396FBF0F287FB0214D11788
:101BB000C1EBA40101EB8101A2EB4102303203F839
:101BC000012D00EB8000AB424FEA4000EBD1F0BCAE
:101BD00070470026B4425E711EDB1E4F1E4401207A
:101BE000053394FBF0F287FB0215D117C1EBA50179
:101BF00001EB8101A2EB4102303203F8012D00EB31
:101C00008000B3424FEA4000EBD1F0BC70472D2278
:101C100064421A7001263DE72D2264421A700126A3
:101C2000DBE72D2276421A700125B8E72D22764295
:101C30001A70012593E72D2276421A7001256EE76E
:101C40002D2264421A70012648E700BFC8C3FF1F57
:101C500050CD01006766666658CC01002DE9F04F53
:101C6000684CDFF8C8A141F2F4068BB0A0590025FA
:101C7000402203688DE8240029462A461F6C8023F1
:101C8000B847A05901210FF0CBFEA0595E49036867
:101C9000858201225B684282C581032205829847C2
:101CA0002178A059013114F07FFC6378A059022BF0
:101CB000036808BF55495B6818BF55490522984716
:101CC000DAF80030002B40F0838041F2F401012269
:101CD00060584382828203684E495B6808229847B5
:101CE000DAF80030012B7BD041F2F4030122E558F1
:101CF00000236A82AB822B6847495B68DFF820913A
:101D0000032228469847284614F0E8FB41F2F403E2
:101D10000122E458414923686282002610225B6850
:101D20002282A682E68120469847204614F0D6FB00
:101D30001C234FF0020B02934FEA4608BDF908300E
:101D4000039308F1020818250024D9F80030012176
:101D5000002259829A82002E49D0DAF8002008EB3E
:101D6000040191424FF001002ED0002258829A8245
:101D7000BDF80C20DA811D820BEB040105A8FFF7EA
:101D80006BFED9F8007005A817F01AF83B680246F8
:101D90005B6805A9384698470134384614F09EFB25
:101DA0000A35022CADB2D0D1029B01362A339BB248
:101DB000022E02930BF1020BBED1194B186810F0E2
:101DC0009BFC0BB0BDE8F08F002159829882CFE7D1
:101DD00041F2F4030122E0580023428283827AE731
:101DE00041F2F40100226558AB826A8283E718460B
:101DF0000C4924B1FEF7E8FD094B1B68ADE7184616
:101E00000949F7E7F8C8FF1F70CC010084CC010036
:101E10008CCC010094CC010058CC010058CD0100BD
:101E2000ECD9FF1F6CCD010074CD01002CB0FF1F59
:101E300030B40D4B5B78012B0C4B0AD91C68E56C58
:101E4000056094F9500008701B681B6A136030BC71
:101E500070471B689C6C046093F94C0008701B6A07
:101E6000136030BC704700BFF8C8FF1FC8C3FF1F16
:101E70002DE9F04F91B008AA0DF1130107A8FFF763
:101E8000D7FF0898AC4C15F0A1FEAC4915F0AAFF9D
:101E90000146AB4815F0A6FFAA4915F0A3FF41F291
:101EA000F4060746A05900250368019540220092D8
:101EB000D3F840802A4680232946C047A0590121F3
:101EC0000FF0AEFDA059A0490368858201225B682E
:101ED0004282C5810322058298472178A0590131A9
:101EE00014F062FB6378022B00F07981032B00F081
:101EF0006F81012B00F0B580944E3368002B40F0C9
:101F0000A88041F2F4010122605843828282036872
:101F10008F495B68062298473368012B00F0518196
:101F200041F2F4030122E55800236A82AB822B6858
:101F300088495B68DFF800A20422284641F2F409D0
:101F40009847284614F0CAFA54F8095082492B6879
:101F50004FF000080C224FF0010B5B682A82A5F8B5
:101F600012B01222A5F81480A5F80E8028469847D2
:101F7000284614F0B3FA54F809001423A0F80E8090
:101F8000038202210FF04CFD3268022A70D041F228
:101F9000F4019DF913306558053301216982D9B2E6
:101FA00000200A29A88273D9022A00F084800DF14A
:101FB00024082B6869495B684FF001094FF0000A5B
:101FC0000222A5F81290A5F814A028469847384692
:101FD00015F022FA0B4602466149404616F050FEC3
:101FE0003368032B00F09B8041F2F4030122E55893
:101FF00000236A82AB82404616F0E2FE2B6802465E
:102000005B68414628469847284614F067FA3368CB
:10201000032B00F0AF8041F2F40501216059514ECD
:10202000454F0FF0FDFC6359002201219A8259822D
:1020300012F012FD336847F22F52C01A904205D9B0
:10204000785910F059FB12F007FD306011B0BDE86F
:10205000F08F41F2F4030122E05800234282838290
:1020600055E7A0594049036806225B68984743E753
:102070003E4B1B78002B8AD09DF913305AF809503B
:102080000533DAB20A2AA5F81280A5F814B08ED862
:10209000374A52F82380404616F092FE2B680246DB
:1020A0005B68284641469847326841F2F403022AA9
:1020B000E5587FF47CAF2D4B1A78002A7FF477AF78
:1020C0009DF913302A4905330DF11A0C51F82310EC
:1020D000CDF808C00DF1180E0DF1160341F2F40908
:1020E0000DF1240828468DE80840CDF80C80142313
:1020F0000FF0D6FD54F80900BDF9241005680091D1
:102100004FF0010ECDF804E0ED6CBDF91A30BDF9C9
:102110001820BDF91610A84754F8095049E7134B89
:102120001B78002B3FF460AF41F2F403E558A5F8AB
:1021300012A0A5F814905EE7F8C8FF1F00007A44CB
:1021400000606A470000C04170CC01002CB0FF1F46
:1021500050CD01005CCC010094CD010090CD010078
:10216000A8CD0100FCAFFF1F7CCD01002C9BFF1F01
:102170004CC701001D4B1B78002B7FF44CAF41F284
:10218000F4050DF11A03039306AE0DF1160205AB2B
:10219000605902964146019200933C2214230FF0AD
:1021A0007FFD6059BDF91A60056800960126019609
:1021B000BDF91830BDF91620BDF91410ED6CA84713
:1021C00029E741F2F40100226558AB826A82AEE64B
:1021D000A0590749036806225B6898478CE6A05916
:1021E0000449036806225B68984785E62C9BFF1F1D
:1021F0008CCD010084CD010000B5807B00F01F0371
:102200001E2B15D8DFE803F01D1D52525252373FE6
:1022100052525252522923161D1D52525252521DD1
:102220001D1D1631464C100000200B230880138022
:102230005DF804FB002043F6FF73088013805DF80F
:1022400004FBC0F34110012834D002283AD000200A
:102250007F23088013805DF804FB4FF4004047F6AD
:10226000FF73088013805DF804FB002007230880BB
:1022700013805DF804FB4FF4604041F6FF73088063
:1022800013805DF804FB4FF69C7064230880138074
:102290005DF804FB00203323088013805DF804FB05
:1022A00000201323088013805DF804FBC0F3411065
:1022B0000128CCD14FF680704FF4807308801380D2
:1022C0005DF804FB00203C23088013805DF804FBCC
:1022D000827B01F01F0161F304021F29827323D066
:1022E00010B50122274C02FA01F10C4003465CB103
:1022F000827BC2F34112012A1BD000217F2201827E
:1023000081834282C28310BD1F4A0A406AB1827B28
:10231000C2F34112012A2AD0022A21D07822048253
:1023200084834282C28310BD7047184A0A404AB96A
:1023300010BD7F2200204FF6817118825A82DA8305
:10234000998310BD044600F11E0200F11C01FFF745
:1023500053FFB4F91C20E38B22829B1A6382E7E7C8
:102360003C217822048284834182C28310BD78227A
:102370004FF6C4704FF6887118825A82DA839983B7
:1023800010BD00BF3C1F7C0003008303C0E0007C45
:102390002DE9F041554D564C2978564B6278002076
:1023A000012918607FD0012A40F28680022A7AD063
:1023B000032A52D0504E306890F85630DFF86881CA
:1023C0004E4FDFF868E1DFF868C113F0600218BF14
:1023D000012288F8002000F158023A60C26DCEF860
:1023E0000020DFF850E1026ECCF80020444AB0F83B
:1023F00064C0AEF800C0DFF840E1B0F866C0A2F8F3
:1024000000C0404AB0F858C0AEF800C0B0F85AE07A
:10241000A2F800E001F0FD02012A08D13A4AC3F314
:102420000403002148301370FFF752FF2978374B1F
:10243000374A384D38484FF0010EC3F800E04FF0EE
:10244000FF33136071454FF000022B6002700DD016
:10245000324B01201870BDE8F0812078264E00EB49
:10246000400004EBC0107C303060A5E73568386868
:1024700095F856602A4B2B4962F3461685F856604C
:10248000D4F8A85DD4F8AC4D8460456003F1140025
:1024900003F8012F834241F8042FF9D11F4B01208B
:1024A0001870BDE8F0812078134E00EB400004EB7B
:1024B000C010083030607FE7052901D0BDE8F08109
:1024C000012A7FF477AF237810490B4E0A6003EBA3
:1024D000430304EBC3130E4D0E4C0F494FF0FF3274
:1024E000F03333602A6022600870B1E709B0FF1F43
:1024F000F8C8FF1FDCAFFF1FC8C3FF1FA4B0FF1F3A
:102500001491FF1FB0B0FF1F1CB0FF1F2CB0FF1FA6
:10251000D098FF1FC892FF1FA8B0FF1FF8AFFF1F82
:102520009BB2FF1FC0B7FF1F54B8FF1FD4C3FF1FCC
:10253000E8C8FF1F64E1FF1F38B0FF1F2DE9F0431B
:10254000DFF8C8802B4F98F80030052287B03A702A
:102550007BB1294E3568ADB1A84720B9002420468B
:1025600007B0BDE8F08300242046346007B0BDE822
:10257000F083FFF70DFF0028EBD10124204607B0C0
:10258000BDE8F0831D4B18780238FEF757FE284649
:10259000FFF76EFCFEF742FE04460028DED0184B23
:1025A0001B68012B06DD023B164A52F823303360CC
:1025B0002C46D4E7144E41F2F4034022F05803684D
:1025C0008DE824002946D3F840902A468023C84746
:1025D00005AA0DF10F0104A888F800503D70FFF71F
:1025E00027FC9DF80F20049B86F8D02DC6F8CC3D23
:1025F000B5E700BF09B0FF1FDCAFFF1F0C95FF1F41
:102600002CB0FF1F608DFF1FF8C8FF1FF8AFFF1F22
:102610002DE9F04FA54BA64D1B78032283B02A70FD
:10262000002B00F0A680A34BA34E1F6897F85640DE
:10263000F86DC4F34114022C00F0B88015F0CAFA0A
:102640008046B7F95A00B7F958B015F0C3FA824678
:10265000386E15F0BFFA8146CBF1180015F0BAFAC2
:10266000514615F0BFFB494615F008FB414615F0F1
:10267000FDF915F0C9FC3060CBF1600015F0AAFA45
:10268000514615F0AFFB494615F0F8FA414615F0F2
:10269000EDF915F0B9FCDFF85892C9F80000874948
:1026A000874ADFF850A2B7F916300878B98ACAF815
:1026B00000101360FEF7C2FDFEF732FFFEF7AEFD1D
:1026C000804600283CD0DFF83082D8F8000001288E
:1026D00040F3C680022800F0BD80032800F0B480DB
:1026E0003568D9F80000022CA0EB050000F09080BE
:1026F00015F070FA0446284615F06CFA2146054696
:10270000204615F0B3F96F4915F06CFB01462846D9
:1027100015F0AAF915F078FC6B490546204615F02E
:10272000ADFA684915F05EFB15F06EFC674B1B684F
:102730004FF000085D609860404603B0BDE8F08F40
:102740002B78032BF8D1BAF80000FDF711FF604A8F
:1027500041F29D03D35C002BEED00028ECD05D4B02
:102760001A788242E8D0DFF890811870C8F800002B
:10277000ADE7FFF70DFE044600287FF454AF544D3B
:1027800055494FF00108FF2205F6656085F8648E13
:1027900016F084FB4FF4FA621123A5F86C4FA5F8EC
:1027A000704FC5F8682FA5F86E3FC5E715F012FA0F
:1027B0008346B7F95A00B7F958A015F00BFA8146CD
:1027C000386E15F007FA8046CAF10C0015F002FACF
:1027D000494615F007FB414615F050FA594615F0E9
:1027E00045F915F011FC3060CAF1300015F0F2F92E
:1027F000494615F0F7FA414615F040FA594615F0EA
:1028000035F915F001FCDFF8E890C9F8000046E75B
:1028100015F0E0F90446284615F0DCF92F49054685
:10282000204615F0DFFA0146284615F01DF915F08F
:10283000EBFB2B490546204615F020FA274915F0F9
:10284000D1FA15F0E1FB71E7DAF800003568C9F854
:10285000000048E7DAF800503560D9F8000042E798
:102860001B4941F2F4030022C858402103688DE857
:10287000060011461C6C8023A0470E4B1868194BAC
:1028800048301978FFF724FDD8F800303BB90F4BDA
:102890001549164A1B680968126859609A60034A0C
:1028A000002313702B704FF0010845E7F8AFFF1FAE
:1028B00009B0FF1FC8C3FF1F78B0FF1F10A3FF1F81
:1028C000C892FF1F0000C04000002041A4B0FF1FBD
:1028D000F8C8FF1FA8B0FF1FB0CD010000004040A6
:1028E0000000A0401CB0FF1FD4C3FF1FE8C8FF1F9B
:1028F0007CB0FF1FD098FF1F2CB0FF1F10B582B017
:1029000002AB42F2257243F8042D04460170042202
:102910001846002111F076FE20460122022111F016
:1029200071FE032002B010BD2DE9F041804682B057
:1029300018F8041B744D754F0446FFF7DFFF04229F
:1029400006460146404611F05DFE311D04F10800C7
:10295000042211F057FE06F1080104F10C000422D4
:1029600011F050FE06F10C0104F11000042211F0E8
:1029700049FE06F1100104F11400042211F042FE98
:1029800006F1140104F11800042211F03BFE06F1D7
:10299000180104F11C00042211F034FE06F11C01A0
:1029A00004F12000042211F02DFE06F1200104F1B3
:1029B0003500692211F026FE06F1890104F1280094
:1029C000042211F01FFE06F18D0104F12C000122FA
:1029D00011F018FE06F18E0104F13000042211F00E
:1029E00011FE06F1920104F13400012211F00AFEF9
:1029F0000D21474813F0D6FA00230A2221782846F1
:102A000013F092FD0221434813F0CCFA6168284686
:102A100013F0CAFD3846012113F0C4FAA168284614
:102A200013F0C2FD3846012113F0BCFAE1682846D4
:102A300013F0BAFD3846012113F0B4FA2169284693
:102A400013F0B2FD3846012113F0ACFA6169284653
:102A500013F0AAFD3846012113F0A4FAA169284613
:102A600013F0A2FD3846012113F09CFAE1692846D3
:102A700013F09AFD3846012113F094FA216A284692
:102A800013F092FD3846012113F08CFAA06A14F07D
:102A9000C3FC4FF0020802460B46CDF800802846E2
:102AA00013F08AFD3846012113F07CFA94F92C10BA
:102AB000284613F079FD3846012113F073FA0023FC
:102AC0000A2294F83410284613F02EFD38460121CE
:102AD00013F068FA206B14F09FFCCDF800800246DA
:102AE0000B46284613F068FD3846012113F05AFAC8
:102AF00006F19301284613F057FD284613F0EEFC2B
:102B0000962002B0BDE8F08138A5FF1F6CCC010013
:102B1000C4CD0100C0D3010070B5064684B00020CA
:102B200011F00CFD8DF80E00012011F007FD8DF85D
:102B30000F00BDF80E2042F225739A4240F0078143
:102B4000022011F0FBFC03288ABFFF233070337092
:102B5000F51C0324204611F0F1FC0134072C05F884
:102B6000010FF7D1F51D204611F0E8FC01340B2CC4
:102B700005F8010FF7D106F10B05204611F0DEFC38
:102B800001340F2C05F8010FF7D106F10F0520468F
:102B900011F0D4FC0134132C05F8010FF7D106F124
:102BA0001305204611F0CAFC0134172C05F8010F5B
:102BB000F7D106F11705204611F0C0FC01341B2C9B
:102BC00005F8010FF7D106F11B05204611F0B6FC00
:102BD00001341F2C05F8010FF7D106F11F0520461F
:102BE00011F0ACFC0134232C05F8010FF7D106F1EC
:102BF0003405204611F0A2FC01348C2C05F8010F9D
:102C0000F7D106F12705204611F098FC0134902CED
:102C100005F8010FF7D1204611F090FC06F12F05C1
:102C200086F82C009124204611F088FC0134952C64
:102C300005F8010FF7D1204611F080FC0C2186F831
:102C40003400484813F0AEF900230A223178464890
:102C500013F06AFC0221454813F0A4F97168424858
:102C600013F0A2FC0121424813F09CF9B1683E48E0
:102C700013F09AFC01213E4813F094F9F1683A48A8
:102C800013F092FC01213A4813F08CF9316936486F
:102C900013F08AFC0121364813F084F97169324837
:102CA00013F082FC0121324813F07CF9B1692E48FF
:102CB00013F07AFC01212E4813F074F9F1692A48C7
:102CC00013F072FC01212A4813F06CF9316A26488E
:102CD00013F06AFC0121264813F064F9B06A14F07D
:102CE0009BFB022402460B4600941F4813F064FC31
:102CF00001211F4813F056F996F92C101A4813F0C9
:102D000053FC01211A4813F04DF900230A2296F8CA
:102D10003410154813F008FC0121154813F042F94E
:102D2000306B14F079FB009402460B460E4813F00A
:102D300043FC01210E4813F035F996210A4813F09F
:102D400033FC094813F0CAFB962004B070BD1B2168
:102D5000084813F027F9044813F0C0FB002004B022
:102D600070BD00BFF0CD010038A5FF1FC0D301002A
:102D70006CCC0100D4CD01002DE9F843099C089EDC
:102D80000F46904699461CB1086815F03DF9A047DA
:102D90001D4D41F2F003E85810F080FBB5F8864D68
:102DA000B5F8843D201A84B29C42A5F8864D24D003
:102DB00094BF06F100403046396814F057FE414692
:102DC000064615F0F9F858B94946304615F012F99B
:102DD00068B1C7F800900020A5F8844DBDE8F883DD
:102DE000C7F800800020A5F8844DBDE8F8833E6058
:102DF0000020A5F8844DBDE8F88341F24C53E85813
:102E0000BDE8F84310F0ECBAF8C8FF1F2DE9F04315
:102E1000284D6B78012B85B0274B44D91B68186A65
:102E200003F14C0903F1200414F0D0FE234914F0FF
:102E3000D9FF0146224814F0D5FF224914F0D2FFF1
:102E400014F05CF904A9204A41F8040D4FF07E53B8
:102E500080460192009300221C4B1D48FFF78CFF17
:102E60001C4B039F187006461449384614F0BAFFED
:102E70000146134814F0B6FF124914F0B3FF15F0E1
:102E8000E9F841462060384614F0ACFFD9F800104C
:102E900014F0F4FE0346C9F800003046C5F8CC3DF6
:102EA00005B0BDE8F0831C68206A04F148092034AD
:102EB000BAE700BFF8C8FF1FC8C3FF1F00007A446D
:102EC00000606A470000C041711E00000000FA4324
:102ED0003CD7FF1F2C9BFF1F70B51F4D6B78022B3B
:102EE00084B032D0032B29D0012B02D000231B7ACF
:102EF000FFDE2C7804EB440405EBC41404F59A744B
:102F000094F9080014F066FE04A9144A41F8040D6F
:102F10004FF07E5301920093114A124B1248FFF773
:102F20002BFF124B06461E70039815F06DF840B249
:102F3000207285F8D00D304604B070BD2C7804EBBB
:102F4000440405EBC414C434DAE72C7804EB4404DD
:102F500005EBC4145034D3E7F8C8FF1F711E0000FE
:102F60000000A0C00000A0403CD7FF1F2C9BFF1F0B
:102F70002DE9F843099CDDF820900E4690461F4647
:102F80000CB10868A0471C4D41F2F003E85810F05E
:102F900085FAB5F8864DB5F8843D201A84B29C4276
:102FA000A5F8864D21D0E01A14F014FE494614F01D
:102FB00065FE8146306814F00DFE0146484614F067
:102FC00055FD15F021F8404508DB8742A8BF0746AC
:102FD00037600020A5F8844DBDE8F883C6F800806E
:102FE0000020A5F8844DBDE8F88341F24C53E85821
:102FF000BDE8F84310F0F4B9F8C8FF1F2DE9F04719
:10300000234CBDF82090099D41F2F0070646E05997
:1030100090460F469A4610F041FAB4F8863DB4F84F
:10302000841D184480B2A4F8860D884296F8612267
:103030001BD2AB5C013BDBB22F2B98BF3923AB54C7
:1030400028460A22002115F0F9FF4045386013DABE
:10305000B4F8860DC7F8008041F24C53A4F8840DF3
:10306000E058BDE8F04710F0BBB9F5D95AB909F1FD
:10307000FF3986F86192EFE75045C8BFC7F800A056
:10308000B4F8860DE8E7013A86F86122E4E700BF6C
:10309000F8C8FF1FF8B5204C41F2F0030546E05890
:1030A0000E46174610F0FAF9B4F8863DB4F8841DC0
:1030B000184480B2A4F8860D95F861228842B35C6A
:1030C0001ED20133DBB213F0800F18BF2023B3549C
:1030D000B4F8860DA4F8840D41F24C53E05810F07A
:1030E0007FF960B195F86132013FBB4207D013B957
:1030F0003278202A0ED0013385F861320020F8BDE5
:10310000E8D9013BDBB21F2B98BF7F23B354B4F83F
:10311000860DDFE73370F8BDF8C8FF1FF0B5DFF8A4
:1031200044E041F2F40583B008465EF80550BDF86E
:1031300020601F46144615F043FE04EB4404A4002F
:103140002A68033400EB4003122100200190009113
:1031500004EB43031BB2146C39B2284632B2A047C9
:1031600003B0F0BDF8C8FF1F2DE9F04FDFF8BC80B9
:1031700041F2F40785B00E469B4658F80700BDF8AB
:103180003890012114460EF04BFC0BF1020058F868
:10319000075083B21A464FF0010A09F105034FF0B8
:1031A0000001EA812B82A5F812A0A9823046039281
:1031B00015F006FE2B6802465B68314628469847A4
:1031C000284613F08BF958F8070002210EF028FC6E
:1031D00058F807504FF00001A9823046A5F812A018
:1031E00015F0EEFD039A00EB400002EB400009EB06
:1031F0000A03E8812B82304615F0E2FD04EB44041B
:10320000A4002E68CDF804A000EB40000334122285
:10321000009204EB40031BB20FFA89F20FFA8BF114
:103220002846F46CA04705B0BDE8F08FF8C8FF1F32
:103230002DE9F04F87B01F46BDF840400494254665
:10324000BDF844400094A9468846029316462B4692
:103250003A46054605940391FFF760FF4B463A4610
:10326000009441462846FFF77FFF41F2F403254AC8
:10327000254F52F803B000245B46A146A3464FF009
:1032800001081C4617E095F861325345236804BFD6
:10329000A4F81290A4F814801B6816F80A10984736
:1032A00095F861323C68534504BFA4F81280A4F835
:1032B00014900BF1010B304615F082FD1FFA8BFACA
:1032C00050452046DFD822681049A34654680022A2
:1032D000A047584613F002F9029A31462846FFF7F4
:1032E000D9FE58B1059B00932846049B029A039986
:1032F000FFF714FFFF2385F86132012007B0BDE816
:10330000F08F00BFF8C8FF1FECD9FF1F50CF01009E
:10331000F0B5044690F8610287B0FF28BDF8305040
:10332000BDF834600AD08DE860002046FFF780FFCA
:1033300010B1FF2384F8613207B0F0BD002084F89B
:103340006102104605930491039215F039FD059B27
:10335000039A04999842E6D207DA104402EB030E6E
:10336000202700F8017B7045FBD10020D054DAE71C
:10337000102B2DE9F84F05460C464FF0000E55D89E
:10338000724501F803E057DB9E4518DADFF8BCC050
:10339000E718012692FBF6F18CFB0108C817C0EB79
:1033A000A80000EB8000A1EB4001013B06EB860684
:1033B000303173454FEA460607F8011DEADC214A21
:1033C000DFF88C9041F2F4034FF00008D758C34661
:1033D0004FF0010A17E095F86132B3423B6804BF31
:1033E000A7F812B0A7F814A01B68A15D984795F83C
:1033F0006132D9F80070B34204BFA7F812A0A7F851
:1034000014B008F10108204615F0DAFC1FFA88F61E
:10341000B0423846DFD83B680B495B68384600222B
:1034200098473846BDE8F84F13F058B8724581F810
:1034300010E04FF01003A9DA2D21524221704FF015
:10344000010EA1E7F8C8FF1F50CF0100676666664E
:10345000ECD9FF1F2DE9F04F89B00546BDF84C406F
:10346000BDF85060BDF8547000978B469046994661
:1034700022463346FFF752FE33460097224659460E
:103480002846FFF771FE169B0DF10C0A5BB3504600
:103490002246D8F80010984795F86132FF2B16D0D5
:1034A0008DE810044A464146129B2846FFF7A6FDC8
:1034B00050B133462846009722465946FFF72EFE64
:1034C000FF2385F86132012009B0BDE8F08F0022AA
:1034D0004FF07E53019200934A464146129B284684
:1034E000FFF746FDE4E751462346D8F8002028467A
:1034F000FFF73EFFD0E700BFF0B51C4A137803EB9F
:103500004303DB01D11889B091F85E00C00626D1D3
:1035100001F5A074B1F84011079141F2A5031349D8
:10352000D25C124DFF2A04BF0322CA542D27002368
:103530004FF47A7204268DE844000D49049305F691
:1035400044600293039707AAFFF784FF18B141F282
:10355000A503FF22EA54079B238009B0F0BD134462
:10356000B1F85C1003F15C04D6E700BFF8C8FF1F98
:1035700000CE01002DE9F0432B4D2C49D5F8D40D98
:10358000294E89B014F07AFB14F03EFD41F2A503F8
:103590002D21EA5C0790FF2A04BF0422EA54244B41
:1035A0000093052200230391019206F644600493E0
:1035B000029307AA1F49FFF74DFF804638B341F237
:1035C000A503FF22F254079814F004FB174914F0E6
:1035D00009FC34460146C6F8D40D06F54067B146ED
:1035E00001E0D9F8D41D95F8D86DD4F8E80010F0B2
:1035F0001DFD304614F0EAFA04F5C07454F8983C06
:10360000A7421861EDD1404609B0BDE8F0830798A4
:1036100014F0E0FA054914F0E5FBC6F8D40D404675
:1036200009B0BDE8F08300BFF8C8FF1F0050C347D2
:103630003F420F000CCE0100F0B5154C154A23781F
:10364000154989B003EB430304EBC313049293F8C9
:10365000643108AA1B0942F8043D2D2700230226E5
:103660000B25029304F6446003978DE86000FFF792
:10367000F1FE2378079A03EB430304EBC31494F899
:10368000643162F3071384F8643109B0F0BD00BF00
:10369000F8C8FF1F0907000018CE01002DE9F0430C
:1036A0001D4D1E4995F8D80D89B008AA002304269F
:1036B0002D274FF4807442F8040D8DE8500005F674
:1036C0004460049302930397FFF7C4FE9DF81C60C7
:1036D00085F8D86D814618B9484609B0BDE8F08331
:1036E0002C4605F54067A84601E098F8D86DD4F857
:1036F000E800D5F8D41D10F099FC304614F066FAB5
:1037000004F5C07454F8983CBC421861EDD14846A9
:1037100009B0BDE8F08300BFF8C8FF1F24CE010048
:10372000F0B52F4C6378022B89B032D0032B29D00F
:10373000012B02D000235B78FFDE237803EB4303E9
:1037400004EBC31303F59A7308AA5B78244E42F87E
:10375000043D2D27002503974FF0030E7F272B46AE
:103760002049049506F6446002958DE88040FFF7F5
:1037700071FE6378022B28D0032B1CD0012B0FD0B5
:103780006D70FFDE237803EB430304EBC313C433F4
:10379000DAE7237803EB430304EBC3135033D3E797
:1037A000337803EB430306EBC31606F59A76079BC3
:1037B000737009B0F0BD337803EB430306EBC31617
:1037C000C436079B737009B0F0BD337803EB430335
:1037D00006EBC3165036079B737009B0F0BD00BFEF
:1037E000F8C8FF1F2CCE0100F0B52E4C6378022BD9
:1037F00089B031D0032B28D0012B02D000231B78B5
:10380000FFDE237803EB430304EBC31303F59A7342
:1038100008AA1B7842F8043D224D23492D23002697
:103820000393032710238DE8880005F644600123E5
:1038300004960296FFF70EFE6378022B28D0BB4257
:103840001CD0012B0FD03670FFDE237803EB43032F
:1038500004EBC313C433DBE7237803EB430304EB2C
:10386000C3135033D4E72B7803EB430305EBC315A5
:1038700005F59A75079B2B7009B0F0BD2B7803EB0B
:10388000430305EBC315C435079B2B7009B0F0BD8E
:103890002B7803EB430305EBC3155035079B2B70C7
:1038A00009B0F0BDF8C8FF1F38CE0100F0B5314CAB
:1038B0006378022B89B037D0032B2ED0012B02D096
:1038C00000235B68FFDE237803EB430304EBC313A1
:1038D00003F59A735868274D14F096FB08AA002642
:1038E0002D270321FF2342F8040D03970191009334
:1038F00005F644600123049602961F49FFF7AAFDCE
:103900006378022B07462DD0032B24D0012B12D035
:10391000079814F05FF97060FFDE237803EB430330
:1039200004EBC313C433D5E7237803EB430304EB61
:10393000C3135033CEE72B7803EB430305EBC315DA
:1039400005F59A75079814F045F96860C4F8CC0D30
:10395000384609B0F0BD2B7803EB430305EBC315E4
:10396000C435EFE72B7803EB430305EBC315503564
:10397000E8E700BFF8C8FF1F48CE0100F0B52E4CA5
:103980006378022B89B033D0032B2AD0012B02D0CD
:1039900000231B7AFFDE237803EB430304EBC313FE
:1039A00003F59A7308AA93F9083042F8043D224DB2
:1039B00022492D2300260393042778238DE88800CD
:1039C00005F644606FF0770304960296FFF742FD18
:1039D0006378022B28D0032B1FD0012B0FD0367217
:1039E000FFDE237803EB430304EBC313C433D9E7AF
:1039F000237803EB430304EBC3135033D2E72B7854
:103A000003EB430305EBC31505F59A759DF91C30CF
:103A10002B7284F8D03D09B0F0BD2B7803EB430343
:103A200005EBC315C435F1E72B7803EB430305EB36
:103A3000C3155035EAE700BFF8C8FF1F54CE010098
:103A4000F0B5324C6378022B89B035D0032B2CD0E3
:103A5000012B03D0002393F82030FFDE237803EB03
:103A6000430304EBC31303F59A7308AA93F82030B9
:103A7000264E42F8043D2D27002503974FF0030EF4
:103A80007F272B462249049506F6446002958DE86F
:103A90008040FFF7DFFC6378022B2BD0032B1ED076
:103AA000012B10D085F82050FFDE237803EB430371
:103AB00004EBC313C433D8E7237803EB430304EBCD
:103AC000C3135033D1E7337803EB430306EBC3163C
:103AD00006F59A76079B86F8203009B0F0BD33785A
:103AE00003EB430306EBC316C436079B86F820306E
:103AF00009B0F0BD337803EB430306EBC316503631
:103B0000079B86F8203009B0F0BD00BFF8C8FF1F42
:103B100064CE0100F0B5324C6378022B89B035D009
:103B2000032B2CD0012B03D0002393F82130FFDE90
:103B3000237803EB430304EBC31303F59A7308AA3A
:103B400093F82130264E42F8043D2D270025039797
:103B50004FF0030E7F272B462249049506F644605A
:103B600002958DE88040FFF775FC6378022B2BD01F
:103B7000032B1ED0012B10D085F82150FFDE2378B7
:103B800003EB430304EBC313C433D8E7237803EBFD
:103B9000430304EBC3135033D1E7337803EB430300
:103BA00006EBC31606F59A76079B86F8213009B016
:103BB000F0BD337803EB430306EBC316C436079B13
:103BC00086F8213009B0F0BD337803EB430306EBF0
:103BD000C3165036079B86F8213009B0F0BD00BFF0
:103BE000F8C8FF1F70CE0100F0B5484C6378022B77
:103BF00089B049D0032B3DD0012B03D0002393F88B
:103C00002030FFDE237803EB430304EBC31303F5FB
:103C10009A7393F82020D20141F2A50193F8213044
:103C2000605C3A4D1344FF28079304BF04236B5490
:103C3000364D3749002343F6FF722D2705268DE8C0
:103C4000440005F6446004930293039707AAFFF724
:103C500001FC18B141F2A503FF22EA5463782B4A14
:103C6000022B3FD0032B2FD0012B17D0002383F83A
:103C70002030FFDE237803EB430304EBC313C4338C
:103C800093F82020D201C7E7237803EB430304EB2A
:103C9000C313503393F82020D201BDE7137807995E
:103CA00003EB430302EBC313002903F59A730A469F
:103CB00015DBD21183F82020164A0A40002A1DDBAA
:103CC00083F8212009B0F0BD1378079903EB430373
:103CD00002EBC313002903F1C4030A46E9DA01F138
:103CE0007F02E6E71378079903EB430302EBC31364
:103CF000002903F150030A46DBDAF0E7013A62F0EB
:103D00007F02013283F8212009B0F0BDF8C8FF1FFF
:103D10007CCE01007F000080F0B52F4C6378022B31
:103D200089B032D0032B29D0012B02D000239B78FD
:103D3000FFDE237803EB430304EBC31303F59A730D
:103D400008AA9B78244E42F8043D2D2700250397AE
:103D50004FF0030E77272B462049049506F6446062
:103D600002958DE88040FFF775FB6378022B28D021
:103D7000032B1CD0012B0FD0AD70FFDE237803EB9B
:103D8000430304EBC313C433DAE7237803EB4303A1
:103D900004EBC3135033D3E7337803EB430306EB51
:103DA000C31606F59A76079BB37009B0F0BD337859
:103DB00003EB430306EBC316C436079BB37009B08D
:103DC000F0BD337803EB430306EBC3165036079B75
:103DD000B37009B0F0BD00BFF8C8FF1F84CE01006A
:103DE000F0B52F4C6378022B89B032D0032B29D049
:103DF000012B02D00023DB78FFDE237803EB4303A3
:103E000004EBC31303F59A7308AADB78244E42F837
:103E1000043D2D27002503974FF0030E7F272B46E7
:103E20002049049506F6446002958DE88040FFF72E
:103E300011FB6378022B28D0032B1CD0012B0FD051
:103E4000ED70FFDE237803EB430304EBC313C433AD
:103E5000DAE7237803EB430304EBC3135033D3E7D0
:103E6000337803EB430306EBC31606F59A76079BFC
:103E7000F37009B0F0BD337803EB430306EBC316D0
:103E8000C436079BF37009B0F0BD337803EB4303EE
:103E900006EBC3165036079BF37009B0F0BD00BFA8
:103EA000F8C8FF1F8CCE010070B5214C6378022B3F
:103EB00028D0032B1FD0012B0FD0002041F29C05EE
:103EC0001521FEF705FA635D194E73B90123735589
:103ED000FFF726FCE8B9002070BD207800EB400019
:103EE00004EBC01000F59A70E8E7012BF0D0022B2C
:103EF00016D0012070BD207800EB400004EBC0100C
:103F0000C430DBE7207800EB400004EBC0105030F9
:103F1000D4E741F29C020020A35C0133A35470BD9E
:103F2000FFF75EFF0028D6D00023735570BD00BF99
:103F3000F8C8FF1FF0B5314C6378022B89B037D039
:103F4000032B2ED0012B02D000235B68FFDE2378E9
:103F500003EB430304EBC31303F59A735868274D2F
:103F600014F052F808AA00262D270321FF2342F857
:103F7000040D03970191009305F644600123049614
:103F800002961F49FFF766FA6378022B07462DD089
:103F9000032B24D0012B12D0079813F01BFE706066
:103FA000FFDE237803EB430304EBC313C433D5E7ED
:103FB000237803EB430304EBC3135033CEE72B7892
:103FC00003EB430305EBC31505F59A75079813F04A
:103FD00001FE6860C4F8CC0D384609B0F0BD2B78FE
:103FE00003EB430305EBC315C435EFE72B7803EB75
:103FF000430305EBC3155035E8E700BFF8C8FF1FC2
:1040000048CE0100F0B52E4C6378022B89B033D036
:10401000032B2AD0012B02D000231B7AFFDE23784A
:1040200003EB430304EBC31303F59A7308AA93F954
:10403000083042F8043D224D22492D2300260393E7
:10404000042778238DE8880005F644606FF0770335
:1040500004960296FFF7FEF96378022B28D0032B13
:104060001FD0012B0FD03672FFDE237803EB430302
:1040700004EBC313C433D9E7237803EB430304EB06
:10408000C3135033D2E72B7803EB430305EBC3157F
:1040900005F59A759DF91C302B7284F8D03D09B056
:1040A000F0BD2B7803EB430305EBC315C435F1E7F3
:1040B0002B7803EB430305EBC3155035EAE700BF4C
:1040C000F8C8FF1F54CE010070B5374C637888B034
:1040D00000227F21022BADF81820ADF81A103AD03B
:1040E000032B2ED0012B01D0938BFFDE207800EB29
:1040F000400004EBC01000F59A70B0F91C30079333
:104100000DF11A0206A9FEF777F8274DBDF91A201E
:10411000009200262D210522BDF91830039101924D
:1041200005F644600496029607AA2049FFF792F923
:104130006378022B2ED0032B22D0012B15D0B6830F
:10414000FFDE207800EB400004EBC010C430B0F973
:104150001C300793D4E7207800EB400004EBC0103C
:104160005030B0F91C300793CAE72B7803EB4303B8
:1041700005EBC31505F59A75079BAB8308B070BDB9
:104180002B7803EB430305EBC315C435079BAB83C7
:1041900008B070BD2B7803EB430305EBC315503516
:1041A000079BAB8308B070BDF8C8FF1F98CE010015
:1041B00070B5374C637888B000227F21022BADF8B0
:1041C0001820ADF81A103AD0032B2ED0012B01D0B5
:1041D000D38BFFDE207800EB400004EBC01000F52D
:1041E0009A70B0F91E3007930DF11A0206A9FEF776
:1041F00003F8274DBDF91A20009200262D21052233
:10420000BDF918300391019205F6446004960296B8
:1042100007AA2049FFF71EF96378022B2ED0032B43
:1042200022D0012B15D0F683FFDE207800EB400072
:1042300004EBC010C430B0F91E300793D4E72078E7
:1042400000EB400004EBC0105030B0F91E30079373
:10425000CAE72B7803EB430305EBC31505F59A7505
:10426000079BEB8308B070BD2B7803EB430305EB92
:10427000C315C435079BEB8308B070BD2B7803EBE7
:10428000430305EBC3155035079BEB8308B070BDA6
:10429000F8C8FF1FA4CE010038B50A4D2C783CB1F8
:1042A000012C08D1FFF784FF28B100232B7038BD03
:1042B000FFF70AFF08B9002038BD01232B70204604
:1042C00038BD00BFA0B0FF1FF0B52E4C6378022BA5
:1042D00089B036D0032B2DD0012B02D000235B698F
:1042E000FFDE217801EB410104EBC11101F59A7168
:1042F00008AA4B69234D42F8043D4FF02D0E8F69FB
:10430000CDF80CE0002644F2020C4FF0060E1E4BD6
:104310001E49049605F6446002968DE80050FFF7AA
:1043200099F86378022B26D0032B1DD0012B0FD0D8
:104330007661FFDE217801EB410104EBC111C4314C
:10434000D6E7217801EB410104EBC1115031CFE7F1
:104350002B7803EB430305EBC31505F59A75079B13
:10436000AF616B6109B0F0BD2B7803EB430305EB44
:10437000C315C435F3E72B7803EB430305EBC315F3
:104380005035ECE7F8C8FF1FFDBFFFFFB0CE0100BE
:10439000F0B52F4C6378022B89B037D0032B2ED089
:1043A000012B02D000235B69FFDE237803EB43037C
:1043B00004EBC31303F59A735F699869244D254B89
:1043C000254908AA38444FF02D0E42F8040D002666
:1043D000CDF80CE044F2020C4FF0060E05F64460F6
:1043E000049602968DE80050FFF734F86378022BAC
:1043F00027D0032B1ED0012B0FD07661FFDE237850
:1044000003EB430304EBC313C433D5E7237803EB77
:10441000430304EBC3135033CEE72B7803EB430382
:1044200005EBC31505F59A75079B6F61DB1BAB6147
:1044300009B0F0BD2B7803EB430305EBC315C4357E
:10444000F2E72B7803EB430305EBC3155035EBE79D
:10445000F8C8FF1FFDBFFFFFB8CE010038B50A4DF9
:104460002C783CB1012C08D1FFF792FF28B1002332
:104470002B7038BDFFF728FF08B9002038BD012395
:104480002B70204638BD00BFA0B0FF1FF0B5384CE0
:10449000637889B000227F21022BADF81820ADF897
:1044A0001A103ED0032B30D0012B01D0138AFFDE2F
:1044B000207800EB400004EBC01000F59A70B0F9D2
:1044C0001030B0F9127007930DF11A0206A9FDF72A
:1044D00093FE274DBDF91A20009200262D210522BA
:1044E000BDF918300391019205F6446004960296D6
:1044F00007AA2049FEF7AEFF6378022B30D0032BCA
:1045000027D0012B19D03682FFDE207800EB400047
:1045100004EBC010C430B0F91030B0F9127007933A
:10452000D2E7207800EB400004EBC0105030B0F927
:1045300010300793B0F91270C6E72B7803EB4303F2
:1045400005EBC31505F59A75079B6F822B8209B0A1
:10455000F0BD2B7803EB430305EBC315C435F3E73C
:104560002B7803EB430305EBC3155035ECE700BF95
:10457000F8C8FF1FC0CE0100F0B53A4C637889B08F
:1045800000227F21022BADF81820ADF81A1040D080
:10459000032B31D0012B01D0138AFFDE207800EBF2
:1045A000400004EBC01000F59A70B0F91070B0F93B
:1045B00012303B4407930DF11A0206A9FDF71CFEC9
:1045C000284DBDF91A20009200262D210522BDF9A3
:1045D00018300391019205F644600496029607AAEA
:1045E0002149FEF737FF6378022B33D0032B2AD003
:1045F000012B1BD03682FFDE207800EB400004EB5D
:10460000C010C430B0F91070B0F912303B440793B9
:10461000D1E7207800EB400004EBC0105030B0F937
:104620001070B0F912303B440793C4E72B7803EBCA
:10463000430305EBC31505F59A75079B2F82DB1B1A
:104640006B8209B0F0BD2B7803EB430305EBC31578
:10465000C435F2E72B7803EB430305EBC315503564
:10466000EBE700BFF8C8FF1FCCCE010038B50A4DFC
:104670002C783CB1012C08D1FFF77EFF28B1002334
:104680002B7038BDFFF702FF08B9002038BD0123A9
:104690002B70204638BD00BFA0B0FF1F2DE9F04FA2
:1046A00088469BB0D0F864120790BDF890A09DF8A2
:1046B00094500B92994629B97A4B1B680D930D9B28
:1046C000C0F86432002D00F0C780774B2E1F83FBAB
:1046D0000623A3EBE6760236F600B3B2CAF13F0634
:1046E0009E424046A8BF1E4614F06AFB00EB400005
:1046F00047000437BFB241F2F4046C4B1859AF4283
:1047000033B228BF2F464FF0000B1A460FFA8AF536
:104710000A93036806950FFA89F10092CDF804B068
:104720003AB21D6C099213460891069AA8475F4B4E
:10473000012118590DF074F95C4A5B4B1459033F81
:1047400083FB07230AF1040AB6B2A3EBE7771FFA4B
:104750008AF30493F31F5D4609F1020901220593D0
:104760001AABA4F814B00FFA89F9628203EB070BB5
:104770002E46AA4609E0059BB3EBC20F2BDD56B3CC
:10478000B5F5807F27D04A4B1C68049BA4F80E9097
:1047900003EBC50308EB060123823A460FA814F089
:1047A0007DFB0FA80BF82CAC14F00AFB2368024623
:1047B0005B680FA920469847204611F08FFE4046BF
:1047C00014F0FEFAC01BF319864205F102029EB2F4
:1047D00005F10105CFD9354B0A9941F2F4040122C4
:1047E00018591E4603688DE80600069ADD6C089984
:1047F000099BA847079B93F82E31002B3DD141F22E
:10480000F4032A4AD0580DF077FF41F24C53274A5F
:10481000D0580EF0E5FD50B9224A079B1268D3F834
:1048200064320E920B990E9A19448A4211D941F2C0
:10483000F4021E49099B88580A9A056800920024D0
:104840000194069A08992D6CA847079B0120C3F88C
:1048500064421BB0BDE8F08F404614F0B1FA00EBA3
:1048600040004700CAF13F063B1DC9F17F05102EED
:104870009FB2A8BF1026EDB23DE73059079E96F8CB
:104880003C41D6F83431B6F93221B6F93011B6F9D7
:104890003A510294B6F938418DE830000CF08CFEA4
:1048A000ADE700BF80E1FF1FABAAAA2AF8C8FF1F2F
:1048B000ECD9FF1F2DE9F0470E4601789DF82080C6
:1048C0000829044691464ED03B4AD0F8E400D2F87D
:1048D000A87DD2F8B41D1D46D2F8AC3D6366D2F86F
:1048E000B03D27660127C4F8D430C4F8D81084F846
:1048F000BC7092F8D8ADD2F8D41D0FF097FB50469B
:1049000013F064F9D4F8E420242310610021184640
:1049100084F87560237110F099F80026252084F83A
:10492000780084F8E9902683314610F08FF8A4F8D7
:104930008C6084F8066184F8EC5028460DB9BDE817
:10494000F087022110F082F884F84081B8F1000F5E
:1049500002D13846BDE8F0874046394610F076F877
:104960003846BDE8F087144B1220D3F8C42DD3F895
:10497000BC5DD3F8B81DD3F8C03DC4F8D43065662B
:104980002166C4F8D820207184F87560002110F0E9
:104990005DF800251A2084F8780084F8E9902583D2
:1049A000294610F053F884F8EC50A4F88C5084F8A1
:1049B00006512846BDE8F087F8C8FF1F2DE9F843E7
:1049C00004468846164610F047F8236AA06213B9D9
:1049D000E36A002B44D072B6DFF8AC90254FD9F8CB
:1049E00000103B682448A56AE26ACB1A80FB0310DA
:1049F000D917C1EBA000062184F834101F49C5EB7C
:104A0000030EAA1A0B60236B626285181C4AA06B06
:104A10007344A9B213600FF0F9FAA26B636AD26A09
:104A2000002E62F30F0528461FDDB040B340D9F8D1
:104A300000103A680B440244C9F800303A6013F0A1
:104A4000C5F8414613F0CEF90E4913F0CBF913F037
:104A500001FBA36A2062E36262B60120BDE8F8832D
:104A60002063E0621846BDE8F883E0D07642F0406B
:104A7000F340DCE7ACB0FF1F6766666620B0FF1F3F
:104A800050E1FF1F0000C04044B0FF1F10B50446B6
:104A9000212094F8711001F001010FF0C3FF94F888
:104AA00071101820C1F340010FF0BCFF94F8711091
:104AB0002020C1F38001BDE810400FF0B3BF00BF5C
:104AC00030B5104B83B00C469C424FF000014FF0C4
:104AD0007F02054608BFB0F91640ADF80410ADF8E6
:104AE000062048300DF1060201A9FDF785FBB5F956
:104AF0006400844204DBB5F96600A042A8BF2046EA
:104B000003B030BDF1D8FFFF38B590F85C31032B0E
:104B100036D8DFE803F0021104021A4838BD90F8D5
:104B2000CE3003F01F03072BB0F91A301DD0B0F9B7
:104B30008E1003FB01F104E0B0F91A10B0F98E30C9
:104B4000194490F85A301A4604466FF3461280F81A
:104B50005A200430C3F34115FFF7B2FF94F85A30DE
:104B600065F3461384F85A3038BDB0F98E200649F3
:104B700003FB02F381FB0321DB17C3EB6111E0E7C9
:104B80000049DEE7F1D8FFFF1F85EB51012A08B588
:104B900045DD90F8563003F01F031E2B48D8DFE8A0
:104BA00003F0161D221616161616271616161616BA
:104BB0001010161616161631313939162218181813
:104BC00018000B7880F869304B7880F86830104610
:104BD00008BD0B7880F85730104608BD0B88A0F848
:104BE0006A30104608BD0B7880F84930104608BD81
:104BF000104BD3F8CC1DC16493F9D03D80F85030F0
:104C0000104608BD0B7880F849304B7880F84B305F
:104C1000104608BD0B7880F84A30104608BD2221A6
:104C2000054811F0BFF9054811F058FC002008BDF7
:104C3000002008BDF8C8FF1FDCCE010038A5FF1F0B
:104C40002DE9F84390F84450574E584C002D08BFBA
:104C50003446154614BF0A270D277D2900F2A2808D
:104C6000DFE801F046A0A0A0A0A0A0A0A0A0A0A066
:104C7000A0A0A0A0A0A0A0A0A0A0A0A0A0A0A0A034
:104C8000A0A0A0A0A0A0A0A0A0A0A0A0A0A0A0A024
:104C9000A0A0A0A0A0A0A0A0A0A0A0A0A0A0A0A014
:104CA000A0A0A0A0A0A0A0A0A0A0A0A0A0A0A0A004
:104CB000A0A0A0A0A0A0A0A0A0A0A0A0A0A0A0A0F4
:104CC000A0A0A0A0A0A0A0A0A0A0A0A0A0A0A0A0E4
:104CD000A0A0A0A0A05D6C6267717A80868A8E9485
:104CE0009A3F2A7880F856201D462846BDE8F8836A
:104CF00007EB4707033FDFF8B890A846064627446E
:104D00002379617919F803302A463046FFF798FF76
:104D10000334A7420544F3D1C8EB0505E5E72A783B
:104D200080F848201D46E0E72A7880F853201D4689
:104D3000DBE72A88A0F854201D46D6E72A7880F8B9
:104D400052201D46D1E7297890F8562061F30402DD
:104D50001D4680F85620C8E7B5F90020A0F8582075
:104D60001D46C2E7B5F90020A0F85A201D46BCE751
:104D70002A68C2651D46B8E72A6802661D46B4E780
:104D8000B5F90020A0F864201D46AEE7B5F9002073
:104D9000A0F866201D46A8E71A462946BDE8F84354
:104DA000FFF7F4BE0025A0E778C701002CC701007B
:104DB00018C7010010B58AB00446242201A80FF0DC
:104DC000D7FB01AA204624230021FFF739FF94F8DE
:104DD0004430002B14BF0E2018200AB010BD00BFB5
:104DE000012A08B53BDD90F8563003F01F031E2B57
:104DF0003ED8DFE803F0161D2216161616161616F4
:104E0000161616161010161616161627272F2F16FA
:104E100022181818180090F869300B7090F8683054
:104E20004B70104608BD90F857300B70104608BD07
:104E3000B0F86A300B80104608BD90F849300B700E
:104E4000104608BD90F849300B7090F84B304B700D
:104E5000104608BD90F84A300B70104608BD22215C
:104E6000044811F09FF8044811F038FB002008BDF9
:104E7000002008BD00CF010038A5FF1F2DE9F84331
:104E800090F84450604E614C002D90460ABF344665
:104E90000A270D277D2900F2B380DFE801F046B133
:104EA000B1B1B1B1B1B1B1B1B1B1B1B1B1B1B1B1F2
:104EB000B1B1B1B1B1B1B1B1B1B1B1B1B1B1B1B1E2
:104EC000B1B1B1B1B1B1B1B1B1B1B1B1B1B1B1B1D2
:104ED000B1B1B1B1B1B1B1B1B1B1B1B1B1B1B1B1C2
:104EE000B1B1B1B1B1B1B1B1B1B1B1B1B1B1B1B1B2
:104EF000B1B1B1B1B1B1B1B1B1B1B1B1B1B1B1B1A2
:104F0000B1B1B1B1B1B1B1B1B1B1B1B1B1B1B15EE4
:104F100073656C7A838A91979DA4AB3F90F8562075
:104F200088F800201846BDE8F88307EB4707033FE1
:104F3000DFF8DC900646274445462379617919F865
:104F400003302A463046FFF799FF0334BC4205443C
:104F5000F3D1C8EB0500BDE8F88390F8482088F845
:104F600000201846BDE8F88390F8532088F8002008
:104F70001846BDE8F883B0F85420A8F80020184679
:104F8000BDE8F88390F8522088F800201846BDE864
:104F9000F88390F85620C2F3040288F800201846DF
:104FA000BDE8F883B0F95820A8F800201846BDE8FD
:104FB000F883B0F95A20A8F800201846BDE8F88315
:104FC000C26DC8F800201846BDE8F883026EC8F824
:104FD00000201846BDE8F883B0F96420A8F8002046
:104FE0001846BDE8F883B0F96620A8F800201846F6
:104FF000BDE8F8831A464146BDE8F843FFF7F0BE26
:105000000020BDE8F88300BF78C701002CC701006D
:1050100018C70100F0B58BB00E4601AA2423002169
:105020000746FFF72BFF31460246054601A80FF061
:10503000E9FA97F844301848002B4FF00D0114BFDF
:105040000E24182410F0AEFF00230A2239781348EA
:1050500011F06AFA0221124810F0A4FF31460F48FD
:1050600011F0A2FA01210F4810F09CFF29460B48CD
:1050700011F09AFA01210B4810F094FF21460748DD
:1050800011F092FA054811F029FA0A200FF006FDF6
:1050900020460BB0F0BD00BF24CF010038A5FF1F94
:1050A000C0D301006CCC0100012A08B524DD90F8C2
:1050B00052300F2B29D8DFE803F01A1A0808100E17
:1050C0000E0E0E0E0E0E0E0E0E0E0B7880F84530E4
:1050D0004B7880F84730104608BD0D4BD3F8CC1DF7
:1050E000816493F9D03D80F84C30104608BD0B78B0
:1050F00080F84630104608BD2221064810F052FFC5
:10510000054811F0EBF9002008BD002008BD00BFE4
:10511000F8C8FF1FDCCE010038A5FF1F80292DE94C
:10512000F843144644D00AD9822932D025D38329A2
:1051300035D11A462146BDE8F843FFF7B5BF7E29B1
:1051400030D020D859BB1D4DDFF874900646174665
:1051500005F11208144601237E2103E02B796979B9
:1051600019F8033022463046FFF7D8FF033545458E
:105170000444F3D1E01BBDE8F8831288A0F8502066
:105180001846BDE8F883127880F84E201846BDE82E
:10519000F883127880F852201846BDE8F883002082
:1051A000BDE8F883127880F844201846BDE8F883FB
:1051B000127880F84F201846BDE8F88300CA010035
:1051C00018C7010010B584B00446102268460FF0DD
:1051D000CFF96A46204610230021FFF79FFF0820E1
:1051E00004B010BD70B5054608460E460FF0A6F98E
:1051F00085F85C01701C0FF0A1F985F86001B01C06
:105200000FF09CF905F5B074014620460BF066FBE3
:10521000F01C0FF093F901462046341D0BF062FBA1
:10522000214605F1EC00FFF7CDFF04442146281D7F
:10523000FFF7C0FD0444214605F17800FFF7BAFDF1
:1052400023189B1B2A780349034811F05FF9322089
:1052500070BD00BF34CF010038A5FF1F012A10B573
:1052600014DD90F852400F2C17D80123A3404FF6BD
:10527000F0741C409CB913F00C0F12D113F003030F
:105280000BD090F846300B70104610BD2221094813
:1052900010F088FE084811F021F9002010BD1046DA
:1052A00010BD90F845300B7090F847304B701046A9
:1052B00010BD00BFDCCE010038A5FF1F80292DE9FD
:1052C000F843144644D00AD9822932D025D3832901
:1052D00035D11A462146BDE8F843FFF7BFBF7E2906
:1052E00030D020D859BB1D4DDFF8749006461746C4
:1052F00005F11208144601237E2103E02B79697918
:1053000019F8033022463046FFF7D8FF03354545EC
:105310000444F3D1E01BBDE8F883B0F850202280AC
:105320001846BDE8F88390F84E2022701846BDE874
:10533000F88390F8522022701846BDE8F8830020C8
:10534000BDE8F88390F8442022701846BDE8F88341
:1053500090F84F2022701846BDE8F88300CA01007B
:1053600018C701002DE9F04184B00F4610236A46AA
:1053700000218046FFF7A2FF184C194D0246064651
:10538000394668460FF03EF90E21164810F00AFE25
:1053900000230A2298F80010204611F0C5F80221D7
:1053A000114810F0FFFD3946204611F0FDF828465F
:1053B000012110F0F7FD3146204611F0F5F828469E
:1053C000012110F0EFFD0821204611F0EDF82046F4
:1053D00011F084F8082004B0BDE8F08138A5FF1F63
:1053E0006CCC010054CF0100C0D30100F0B583B0F4
:1053F00002AE90F85C3106F8013D05460F46304696
:1054000001220FF0FFF895F860318DF80730304633
:10541000791C01220FF0F6F895F862318DF807300B
:105420003046B91C01220FF0EDF83C1D95F86331B0
:105430008DF8073001223046F91C0FF0E3F82146C1
:1054400005F1EC00FFF78EFF04442146281DFFF70D
:10545000E1FD0444214605F17800FFF7DBFD13214F
:105460000444164810F09EFD00230A2229781448AF
:1054700011F05AF80221134810F094FD39461048F3
:1054800011F092F8E61B01210F4810F08BFD314618
:105490000B4811F089F801210B4810F083FD2146DB
:1054A000074811F081F8064811F018F82B78082BFE
:1054B0000CBF3046322003B0F0BD00BF64CF010006
:1054C00038A5FF1FC0D301006CCC010070B5FA29CC
:1054D00082B00C4605463DD3FB2925D9FC2939D19C
:1054E000234E2449002385F82030142206F68470C8
:1054F00013F0D4FC204B1B68019341F2840141F26C
:10550000880342F21070019A7050F250200240F06D
:105510000F0010F017FAAB6A5B6D1868036821463C
:105520001B68984702B070BD114E1449012385F8DD
:105530002030142206F6847013F0B0FC0E4B1B686A
:10554000009341F2840141F2880342F21070009A04
:105550007050F25004F10803DBB2072BE2D80122AD
:1055600002FA03F313F0DD0FD0D102B070BD00BF1B
:10557000F8C8FF1F84CF010080E1FF1F78CF010032
:1055800038B504460FF068FA236B226AC31A9A42B0
:10559000054616D3636AE26A03EB4303AD1AAB42D6
:1055A0000ED20C4D0C480D490D4A00232B6023628E
:1055B000E3622363636284F8343003600B6013603A
:1055C00038BDF8210748FFF781FF226B236A134497
:1055D0002363DFE750E1FF1F20B0FF1F44B0FF1F30
:1055E000ACB0FF1FA4D9FF1F30B5037883B0002BE8
:1055F00038D090F852200D2A044633D0042A0D46A4
:105600004ED018460FF014FA94F83C30B3B194F829
:105610003D30984241D02F4B1A680192019A226482
:105620001B680093009BB4F850109B1A021C18BF13
:10563000012284F83D208B4298BF0220022811D01D
:10564000A38A98420ED0A08280B994F8523003F019
:10565000FD03012B39D1A27E82F001021346A2760E
:1056600011460DE00025284603B030BD94F85230B5
:1056700003F0FD03012BF5D000210A460B46A2766C
:105680002B6094F854000FF0CDF994F85230042BAD
:1056900011D00125284603B030BD226C0D4BBFE769
:1056A000026A002AADD090F83420002AA9D0FFF772
:1056B00067FF2378A5E7A57E002DEAD094F94C205A
:1056C000A16C2046FFF77AF9CDE701210A460B4687
:1056D000D5E700BF80E1FF1FF0B5304C6378022BA7
:1056E00089B036D0032B2DD0012B02D00023DB7BD9
:1056F000FFDE237803EB430304EBC31303F59A7334
:10570000DB7B264D264908AAC3F3830301332D27EB
:1057100042F8043D0026012303970827019305F66C
:105720004460049602960097FDF794FE6378022B7E
:105730002CD0032B23D0012B12D0F37B66F38503EF
:10574000F373FFDE237803EB430304EBC313C4338B
:10575000D6E7237803EB430304EBC3135033CFE7BF
:105760002B7803EB430305EBC31505F59A75079BEF
:10577000EA7B013B63F38502EA7309B0F0BD2B7845
:1057800003EB430305EBC315C435F0E72B7803EBBC
:10579000430305EBC3155035E9E700BFF8C8FF1F09
:1057A00040CC01002DE9F84F8A46002961D0404BDA
:1057B000DFF820813F4AC8F8102093E80300002357
:1057C0000A0CC8F80000A8F8041088F8062088F829
:1057D00014300127384DC82405F1690B07E0BAF1F0
:1057E000000F36D107350134AB45E4B220D02B7819
:1057F000002BF4D07E0006EB070908EBC9094846E8
:105800000622294613F04AFBBAF1000F2BD12B4B8D
:10581000C9F810303E4408EBC606073500230137AF
:105820003475AB4504F10104FFB2B371E4B2DED1CB
:10583000234B244C93E8070007EB470308EBC3080E
:10584000A8E803000023A8F8002063713846BDE8EB
:10585000F88F1D4A7E0092E80300F31908EBC3029B
:1058600048F833009180F31908EBC303174A1A6113
:10587000D0E7DFF860800E4A88F8141092E8030041
:10588000134BC8F800000E0CA8F8041093E80700AA
:1058900008F1180303C3094D064CC8F8285088F8CE
:1058A000066088F82CA0C8F810401A80022791E7FB
:1058B000A0CF0100395A0000D1D6FF1F415B000084
:1058C00094CF0100CCC3FF1F8CCF0100815A000090
:1058D000A8CF010068BAFF1F2DE9F84F0021FFF79C
:1058E00061FFDFF870B0DFF86090DFF86C8082460F
:1058F00005460126002705EB450409EBC4042046B4
:1059000026755946C4F810800622013613F0C6FAEF
:105910000135302EA771EDB20BF1070B0A4B4FF09A
:105920000004E8D1094A0A4D07CA0AF12F0A5FFAB2
:105930008AFA0AEB4A0603EBC60303C31A806C71AA
:105940005046BDE8F88F00BF68BAFF1FB4CF010012
:10595000CCC3FF1F97CA0100415B0000324B2DE909
:10596000F04799424FF00004824644614DD02F4BDE
:1059700099420E4650D0A046DFF8B89000E00134BE
:1059800030460BF00BF984422146304618DA0BF012
:10599000EDF8037D002BF2D0214630460BF0E6F8FF
:1059A00007460FCF08EB480509EBC5050FC597E87B
:1059B000030008F1010885E803005FFA88F8DEE7D4
:1059C00030460BF0EBF8014630460BF0CFF80546B9
:1059D0000FCD08EB480409EBC4040FC495E803009D
:1059E00084E80300124B72795A71FF2201218AF870
:1059F000632283F804808AF862125046C3F800904C
:105A00000B49BDE8F0470BF085B9FFF765FFDFF8FC
:105A10002490074B8046E8E70121FFF7C3FEDFF83B
:105A20001490034B8046E0E770DEFF1F20B8FF1F95
:105A3000CCC3FF1F68BAFF1F70B50F4C41F2F403CF
:105A4000D4F8602EE058D4F85C1E0568C2F140031B
:105A500082B01BB200268DE84800C1F1800312B26B
:105A60001BB22D6C09B2A84704F644600349FFF746
:105A700075FF012002B070BDF8C8FF1F70E1FF1F65
:105A800070B541F29C032B4CE55C82B0D5B12A4B3A
:105A90001B78284D2949C3EBC303E2182D230024AA
:105AA000019302F6D95205F6446000940623FDF7EF
:105AB0002FFCB0B141F29C03EC5402B0BDE8704041
:105AC000FFF7BABFD4F8501ED4F84C0E0BF04EF8C6
:105AD000007D194B00F13802D2B20F2A187002D99A
