:1000000000800020BD010000054D0100BD4C010035
:10001000BD4C0100BD4C0100BD4C0100BD4C0100B8
:10002000BD4C0100BD4C0100BD4C0100054D01005F
:10003000054D0100BD4C0100396901003D69010019
:10004000054D0100054D0100054D0100054D010064
:10005000054D0100054D0100054D0100054D010054
:10006000054D0100054D0100054D0100054D010044
:10007000054D0100054D0100054D0100054D010034
:10008000054D0100054D0100054D0100054D010024
:10009000054D0100054D0100054D0100054D010014
:1000A0002533010031330100054D0100054D0100EC
:1000B000054D0100054D0100054D0100054D0100F4
:1000C000054D0100054D0100054D0100054D0100E4
:1000D000054D0100054D0100054D0100054D0100D4
:1000E000054D0100054D0100054D0100054D0100C4
:1000F000054D010001760100054D0100054D01008F
:10010000054D0100054D0100054D0100054D0100A3
:10011000054D0100054D0100054D0100054D010093
:10012000054D0100054D0100054D0100054D010083
:10013000054D0100054D010055450100054D01002B
:10014000054D0100054D0100054D0100054D010063
:10015000296B01003D6B0100516B0100656B0100D3
:10016000054D010095530100054D0100054D0100AD
:10017000054D0100054D0100054D0100054D010033
:10018000054D0100054D0100054D0100054D010023
:10019000054D0100054D0100054D0100054D010013
:1001A000054D0100054D0100054D0100054D010003
:1001B000054D0100054D0100054D0100524B4CF26B
:1001C000205210B51A804DF628121A8000BF00BFC9
:1001D00014F09CFD4D4B4FF010621A604C4A9A602F
:1001E0004C4ADA6003F5533303F2D2331A7811071D
:1001F00003D51A7842F008021A70474B47492A2261
:100200001A70474A474B8B4204D252F8040F43F806
:10021000040BF8E7444B454900228B4202D243F8D5
:10022000042BFAE74249434A002352F8230041F8DD
:10023000230001336F2BF8D13F4B404A802103F854
:10024000011B9342FBD13E4B394A1A603D4B8A2237
:100250001A70A3F5805324225A70A0221A709A793A
:100260009207FCD59A79D406FCD4374A937903F0E7
:100270000C03082B344BF9D103221A7140225A7116
:100280009A799006FCD5304A91792F4B4906FBD5D7
:100290002E4A2F4911600221516020221A709A794A
:1002A00002F00C020C2AFAD12A4B2B4A1A602B4B73
:1002B0002B4A1A6000225A60072243F8042C294A6C
:1002C000C3F80C2D62B614F01BFF274B1B68DA072E
:1002D00005D5264814F078FE254B264A1A60264B91
:1002E0001B785B0609D5224C224B22689A4204D126
:1002F0001E4814F069FE0023236018F0C5FD14F0B9
:100300000BFD16F095FDFEE70E2005403080044001
:10031000823F04000100002B00E0074048ACFF1FB3
:10032000100B02004088FF1F48ACFF1FBCE7FF1FF7
:100330000082FF1F0000000000E400E05FE400E036
:1003400008ED00E0005006400040064044800440B4
:100350000000030104800440C010050014E000E028
:10036000FF7601000000202014D00340F51CBD6082
:100370001CE00340A5C3945A00F00740FFFFFFFFB5
:10038000FFFFFFFFFFFFFFFFFFFFFFFFFFFFFFFF7D
:10039000FFFFFFFFFFFFFFFFFFFFFFFFFFFFFFFF6D
:1003A000FFFFFFFFFFFFFFFFFFFFFFFFFFFFFFFF5D
:1003B000FFFFFFFFFFFFFFFFFFFFFFFFFFFFFFFF4D
:1003C000FFFFFFFFFFFFFFFFFFFFFFFFFFFFFFFF3D
:1003D000FFFFFFFFFFFFFFFFFFFFFFFFFFFFFFFF2D
:1003E000FFFFFFFFFFFFFFFFFFFFFFFFFFFFFFFF1D
:1003F000FFFFFFFFFFFFFFFFFFFFFFFFFFFFFFFF0D
:10040000FFFFFFFFFFFFFFFFFFFFFFFFDEF9FFFF23
:1004100010B5054C237833B9044B13B10448AFF33E
:1004200000800123237010BD48ACFF1F00000000B6
:100430000C0B0200084B10B51BB108490848AFF37C
:1004400000800848036803B910BD074B002BFBD0A0
:10045000BDE81040184700BF000000004CACFF1F73
:100460000C0B020048ACFF1F000000000023FF221D
:10047000427183618375437503750371C360836043
:1004800003617047083070475430704754307047EC
:10049000704700BF074A10B51378074C41F2D87077
:1004A00083F0010320581370194612F0D7FA012087
:1004B00010BD00BFD0CFFF1FC8ACFF1F70B541F209
:1004C000D473284C0546E05813F094F8B4F8EE3E87
:1004D000B4F8EC2E181A83B29342A4F8EE3E2CD056
:1004E00014D86A69002AC4BF02F1FF326A61AA689F
:1004F0005279022A27D04FF0FF30FF22A4F8EC3EB9
:10050000012185F8632285F8621270BDA8686E69C2
:1005100010F0CEFB2B69C01A864202DA6B690133F8
:100520006B61AB685B79022B09D123780D4A072BED
:1005300012D9B2F8EE3EA4F8EC3E002070BDB4F83B
:10054000EE3E0120D9E722780649002AF3D0013A8D
:100550000A704FF0FF30D0E7013313700120B2F87A
:10056000EE3ECAE7C8ACFF1F024A41F2D473D0582E
:1005700013F084B8C8ACFF1F10B5044600F5BE5098
:100580000C3016F0AFFA04F5BE50043016F0AAFA9B
:10059000204610BD254BB3F9003003F164029042B0
:1005A00070B504DA643B984201DD022070BD204B37
:1005B000B3F9003003F16402904204DA643B9842DC
:1005C00001DD032070BD1B4B1D680446B5F96400B6
:1005D000C0F13C0018F0BCF90646B5F9660018F009
:1005E000B7F90146304618F0BBFA0646B5F96A007D
:1005F00018F0AEF90146304618F0FEF90646B5F996
:10060000680018F0A5F90146304618F0EDF818F02A
:10061000B9FB00B200F164039C4205DA64388442FD
:10062000D4BF0020012070BD002070BD3CC9FF1F59
:100630003EC9FF1F58DBFF1FF8B5427A05460E463C
:1006400002B301230A701C46A97A89B1C7291CD9B3
:100650003831C9B2164FC1EBC1010F44F018394609
:1006600019F012FA384619F08BFA2044C4B2234626
:10067000EA7A1AB10134E4B2F25423460022F25469
:100680002046F8BD13461446DEE70A4FC1EBC10110
:10069000F0183944062219F0E1FAA87AC0EBC0003C
:1006A000384419F06DFA2044C4B22346E0E700BF95
:1006B00085C1FF1F4CDF01002DE9F0411B4D41F6C4
:1006C00030440646285912F033FF40B3B3685B79D3
:1006D000022B15D041F63047DFF85080E85912F070
:1006E0002BFF044610B92046BDE8F08158F80700FA
:1006F00012F0CAFE0023C6F854322046BDE8F0814D
:10070000D6F85432B3F57A7FE4D941F26662012417
:100710000023AC542046C6F85432BDE8F081285975
:1007200012F0FAFEC6F85402D0E700BFC8ACFF1FB3
:1007300001207047012070470268084952688A42C8
:100740000BD10022FF218261827542750275027110
:10075000C260826002614171704710476D04000001
:1007600038B50E4B01EB410105461944144619F00A
:1007700075FA00232B550A4A41F2D8732846D458FB
:1007800019F0FEF92368024629465B68204698471F
:100790002046BDE8384016F005BA00BF9CE00100D5
:1007A000C8ACFF1F30B5044685B0A9B108460D4658
:1007B00019F0E6F90146284615F05EFFA07D617D3F
:1007C000A569237D6279019000910295054906484B
:1007D00016F000FA05B030BD0221044815F04CFFB8
:1007E000ECE700BF68E10100C0A1FF1FE4E20100E7
:1007F0002DE9F04F2F4EDFF8C89041F2D87585B043
:10080000735903901A6800274FF01A080197CDF822
:100810000080146C18462D227B233946A04770595E
:10082000012111F0A9F9745923492368A7822A22CA
:100830004FF0010A4FF0040B5B682282A4F812A06B
:100840000822A4F80EB020469847204616F0AAF9D0
:10085000039A1A4B745953F82210A4F80EB032239D
:1008600023820846039119F08BF9236803995B688A
:10087000024620469847204616F094F970590368BE
:100880008DE8000525223946DC6C7B23A04714F057
:10089000C7FBD9F8003047F22F52C01A904206D950
:1008A000705911F0D5FF14F0BBFBC9F8000005B07A
:1008B000BDE8F08FC8ACFF1F88E101006489FF1F0D
:1008C00008E0FF1F2DE9F04390F96332664E0133D3
:1008D00087B0044661D041F2D8730121F05811F07D
:1008E0004BF925696369A0681D4410F0E1F9854260
:1008F00080F2A8806369276994F963821F44E368E2
:10090000984541F2D87300F0A980F35801210022E4
:1009100059829A8202AD29464246204610F02CFAAE
:10092000284619F02DF90D2807DC28440DF1160290
:10093000202300F8013B9042FBD16269E369A16981
:1009400041F2D870C2EB08083658093303EBC803EC
:100950004FF000098DF8169028463382F18119F086
:100960000FF9336802465B6829463046984730469F
:1009700016F018F994F8633201335BB2BB4284F885
:10098000633202D007B0BDE8F083FF2384F862929F
:1009900084F8633207B0BDE8F08341F2D8750121D5
:1009A000705911F0E9F8A36872591F6800210120FD
:1009B00050829182184610F07BF900B200EB4001A2
:1009C00002AD07EBC1010E22284619F047F928466F
:1009D00019F0D6F80D2807DC28440DF11602202363
:1009E00000F8013B9042FBD141F2D878B4F91C30B9
:1009F00056F80870A26900218DF816102846FA8171
:100A00003B8219F0BDF83B68024629465B683846D0
:100A10009847384616F0C6F8E26956F80800A1690A
:100A20000568083212B201238DE80C0001F154036D
:100A3000AD6C1BB209B2A847636984F8633207B092
:100A4000BDE8F083A06810F033F9E36894F963829D
:100A50009845074641F2D8737FF457AFF358002109
:100A6000012259829A8255E7C8ACFF1F70B504462F
:100A700008460D4619F084F82368024629462046A8
:100A80005B68BDE8704018472DE9F04F002387B040
:100A90000122437000F6EC6304904FF07E564FF055
:100AA0000008027000F1040B0593EF4BCBF8043003
:100AB0004FF000038BF83C304FF0280300274FF035
:100AC00001094FF03C0A8BF80F304FF61943ABF891
:100AD0002030CBF810608BF814708BF815708BF801
:100AE00016708BF81770ABF81870CBF82470CBF831
:100AF0002870CBF82C70CBF83070CBF83470CBF872
:100B00003870CBF84C70CBF850708BF854708BF871
:100B10000870ABF81C70ABF81E708BF822708BF865
:100B20000C908BF80D908BF80EA0382016F088F9F9
:100B30004FF0814505614FF48065394645603A467E
:100B4000CA4B80F81490C0F81880C0F8208080F854
:100B50002470044613F0F4F99BF86630CBF840405B
:100B600003F0C00367F387138BF866304FF4FA7312
:100B7000CBF84C30BE4BCBF848304FF07803ABF895
:100B80006A30ABF8723040F6FF73ABF86C304FF25E
:100B90000103ABF86E304FF07F038BF874308BF8A5
:100BA00075304FF47A73ABF876304FF0FF338BF833
:100BB0007C304FF028024FF6FF738BF85B206360A8
:100BC000AC4AAD4BCBF8042023618BF845708BF811
:100BD00044908BF855708BF858908BF859908BF89F
:100BE0005AA08BF860708BF861708BF862708BF88C
:100BF0006370ABF864708BF86770ABF86870ABF833
:100C00007070CBF85C60382016F01AF945604FF030
:100C100081454A4639460561984B80F81490C0F8E2
:100C20001880C0F8208080F82470044613F088F9FA
:100C30004FF028038BF88B304FF61943ABF89C30FC
:100C40008F4BCBF80430884BCBF8803040F6FF73E5
:100C500063604FF08043CBF87840CBF8AC70CBF8B2
:100C6000B070CBF8B4708BF8B870CBF8C870CBF814
:100C7000CC708BF8D0702361ABF81E708BF87D7050
:100C80008BF888908BF889908BF88AA08BF89070FD
:100C90008BF891708BF892708BF89370ABF894701E
:100CA000CBF8A070CBF8A470CBF8A8708BF8847048
:100CB000ABF89870ABF89A708BF89E70CBF88C609C
:100CC000382016F0BDF84FF4806545604FF081453F
:100CD000394605613A46654B80F81490C0F8188093
:100CE000C0F8208080F82470044613F029F94FF4EE
:100CF000FA72CBF8C8205E4ACBF8C4204FF0280225
:100D00008BF8D7204FF07802ABF8E62040F6FF7260
:100D10009BF8E230ABF8E8204FF20102ABF8EA2092
:100D20004FF07802ABF8EE2003F0C0034FF07F02E3
:100D30008BF8F0208BF8F12067F387134FF47A7269
:100D4000ABF8F2208BF8E2304FF0FF324FF6FF7332
:100D50008BF8F8206360474A474BCBF8BC408BF8D0
:100D6000C1708BF8C0908BF8D1708BF8D4908BF851
:100D7000D5908BF8D6A08BF8DC708BF8DD708BF8F3
:100D8000DE708BF8DF70ABF8E0708BF8E370ABF8D7
:100D9000E470ABF8EC70CBF88020CBF8D86023611E
:100DA000382016F04DF84FF4806545604FF08145CE
:100DB0004A4639460561314B80F81490C0F81880D6
:100DC000C0F8208080F82470044613F0B9F84FF67C
:100DD0001943ABF818314FF028038BF80731284B33
:100DE000CBF88030204BCBF8FC3040F6FF736360CB
:100DF0004FF08043CBF8F4408BF8F9708BF80491F6
:100E00008BF805918BF806A18BF80C718BF80D719E
:100E10008BF80E718BF80F71ABF81071CBF81C7159
:100E2000CBF80861CBF82071CBF82471CBF828718E
:100E3000CBF82C71CBF830718BF83471CBF844714E
:100E4000CBF848718BF84C718BF80071ABF81471CA
:100E5000ABF816718BF81A712361ABF89A703820D1
:100E600015F0EEFF0EE000BF20D4010017B7D13817
:100E70009F86010038D40100000060420AD7233C5D
:100E800044D401004FF4806545604FF0814504462D
:100E90003A463946D64B0561C0F81880C0F8208024
:100EA00080F8149080F8247013F04AF84FF6FF7021
:100EB0006060D04820614FF4FA70CBF84401CE480E
:100EC0009BF88021CBF840014FF028008BF85301AC
:100ED0004FF0FF308BF860014FF0FF3367F30302F0
:100EE0000821C648CBF838418BF852A1CBF8FC005A
:100EF000CBF854618BF885A18BF83D718BF83C9150
:100F00008BF850918BF851918BF858718BF859717F
:100F10008BF85A718BF85B718BF88691ABF85C712A
:100F20008BF85E718BF86471CBF86871CBF87471D3
:100F30008BF878718BF87C718BF882718BF88471E7
:100F40008BF880218BF88311CBF887718BF80030F8
:100F5000059BCBF88B718BF88F718BF89071CBF868
:100F60009471CBF89871CBF8A071ABF89C71ABF889
:100F70009E718BF8A6718BF8A5718BF8A4710BF597
:100F8000D47B9B457FF491AD04984FF0FF3403462A
:100F900090F8F02EA0F8EC4E04464FF0000083F8D5
:100FA000F20E83F8F31E4FF0000047F23051A3F821
:100FB000EE1E83F8000F67F303024FF000054FF0B9
:100FC00000014FF0000083F8F45E83F8F02E83F800
:100FD000FF1E83F8140F83F8F5AE83F8F69EC3F86E
:100FE000F77E4FF4AF62C3F8FB7E8549C3F8047FF8
:100FF000C3F8087FC3F8107FA3F80C7FA3F80E7F17
:1010000003F6187013F00CFB41F2904041F294414A
:1010100041F2984241F29C432750675004F5A45096
:101020004FF00001A7502646E15440F6FF74C483F8
:101030004FF20104048440F6FF748484C4844FF2A8
:10104000010490F83530048540F6FF7444854FF470
:101050007A7E4FF2010443EA09038485A0F82EE06A
:1010600006F5A9544FF0000E6649674A80F834E04F
:101070001125083480F835300163826380F83C50D4
:101080006922394647843D3018F064FA41F2285508
:1010900020460FF00FFE5D4B73514FF0000384F8B4
:1010A000203084F82E3104F5A270C4F82471A4F81D
:1010B0002C71C4F84071FB22394618F04BFA4FF0FE
:1010C000000384F8583284F8593284F860324FF0C3
:1010D000FF3384F861324FF0000306F5BC5584F805
:1010E00062324FF0FF3384F8633236214FF0000351
:1010F00028464FF0070E84F83E3184F83F31A16155
:10110000C4F84072C4F84472C4F84872C4F84C720F
:10111000C4F85072C4F85472C4F85C72C4F86472B3
:101120006761E76184F83D91C4F810E0384E85F8B6
:1011300030901F302A464FF000047F2301466F6332
:1011400085F83C40AE630F3202F8013F824201F85D
:10115000013FF9D1049F41F2C47107F5BE5300204D
:101160001A4641F2CC7578501C46802141F2DC7E53
:101170001972785107F5BF531174962284F83C0018
:10118000C4F82C0484F83004C4F83404C4F83804D7
:1011900084F86E0441F2E47647F80E2040F26722AC
:1011A0001A6041F2E8714FF48762BA5141F2EC756E
:1011B00040F209667E5041F2F07341F2F47240F25F
:1011C000DA767E5141F2F87140F6AB1540F67C3686
:1011D000FD50BE5040F64D5507F5DF5307F5E1527F
:1011E0007D501B33014684F86F040D3212E000BFBE
:1011F00017B7D138000060429F8601002CD401004F
:1012000048D401009A99993F52491D3A8CEE010049
:10121000BCE0FF1F03F8011F93424FF00004F9D117
:10122000942015F00DFE054612F0DAFA049E06F53C
:10123000BE5324201D6015F003FE0423072206215F
:101240008DE818004FF0FF33054612F07FF941F2A8
:10125000D4731020F55015F0F3FD044612F0E2F8B7
:1012600041F630430F48F45011F020FD0E210D4897
:1012700011F084FD642015F0E3FD0B4B039309216D
:1012800008220A238DE80E00064B402280210446E6
:1012900010F06EFE41F2D8733046F45007B0BDE84E
:1012A000F08F00BF9C9FFF1F00127A0030B583B003
:1012B0000546069C002CCABFE0B2007D28752B6154
:1012C0004BB942B2002A02DD194613F08FFE00230B
:1012D0002B7003B030BD084BA9601B68019343B26B
:1012E000019CEA600121002B6C602970F1DD13F094
:1012F0007DFE03B030BD00BF34E4FF1F0369F3B1CE
:1013000010B516490278096882B0012A0191019945
:1013100016D04468C26822448A420ED2002B416033
:1013200002DD013B036143B1037D5AB20121002A72
:10133000017002DD184613F059FE02B010BD70476F
:101340004268836813448B42F7D2037D41605AB2EE
:1013500000218A420170EDDCEFE700BF34E4FF1F9B
:1013600070B5064E41F63045705912F0E5F8044666
:1013700010B1705912F088F8204670BDC8ACFF1F3C
:1013800038B5144C41F2D4730546E05812F032F9E6
:10139000B4F8EE3EB4F8EC2E181A83B29342A4F8D7
:1013A000EE3E15D00C4A11680AD80029CCBF01F1D5
:1013B000FF31002111604FF0FF30A4F8EC3E38BD42
:1013C000A942B8BF013111600120A4F8EC3E38BD3C
:1013D000002038BDC8ACFF1FBCACFF1F10B50849CA
:1013E00041F2D8730022C85882B0402103688DE8CA
:1013F000060011461C6C8023A04702B010BD00BF40
:10140000C8ACFF1F2DE9F04F924BDFF87C9241F200
:10141000D8748FB018590025402203688DE8240045
:1014200029461E6C2A468023B0478A4B0121185951
:1014300010F0A2FB874B8849185903688582012662
:101440005B68C5810822058246829847814B1978DE
:101450001859314415F00CFC7E4B8049185903682B
:1014600007225B689847D9F80000002800F0DB806D
:1014700017F06EFA4FF07C5117F0BEFA16F03AFEF4
:10148000744B1D59009602460B46284615F0F8FB92
:10149000704B73491C59236832465B682046984755
:1014A000204615F07FFB002306936E4B0793DFF871
:1014B000DC810E230593059B079E043B1BB204931E
:1014C000069B1D4603EB4303039300240127039B64
:1014D000D9F80020D8F800A0EB189A4200F09C80C0
:1014E0004FF00003AAF81270AAF814300FFA84FB28
:1014F000BDF81030AAF8103009A8AAF80EB0002DD7
:1015000000F09D8018F03CFBDAF8003002465B6882
:1015100009A950469847504615F044FB3378002BF4
:101520006ED11E34A4B2782C06F1010605F1010536
:10153000CDD1059B069A09339BB20593079B0132D7
:101540000433052A06920793B5D141F2D874414A73
:101550004549105937230268038201250023566844
:1015600045828382C3810422B047404B394A1968BF
:1015700010593F4E15F07CFB364B3E491859036815
:101580002A465B689847334B3168185915F070FB51
:10159000304B3849185903682A465B689847364BE0
:1015A00030681E68B6F90430C01A17F0D1F9074642
:1015B000B6F9060017F0CCF90146384617F0D0FA14
:1015C0002E4917F019FA16F095FD224B1E590227E5
:1015D00002460B460097304615F052FB1D4B204942
:1015E0001E5933682A465B6830469847304615F0E6
:1015F000D9FA184B185911F02BF90FB0BDE8F08F3C
:10160000D8F80000BDF9142003680097D3F83CA077
:1016100059461823D04784E74FF00003AAF8123048
:10162000AAF8147062E70B4B15491C592368204631
:101630005B6803229847204615F0B4FA33E7DAF8DE
:10164000003010495B68042250469847504615F018
:10165000A9FA66E7C8ACFF1F94E10100A0E1010010
:10166000A8E10100E8DFFF1FB8E101001093FF1FB0
:10167000A896FF1FC0E1010064C9FF1F00002041C0
:10168000ACE10100B0E10100BCACFF1FA0C4FF1F32
:101690002DE9F04F9F4AA04CA04B12681B6892F8AE
:1016A0006260B3F90410B3F906B041F2D8770025AF
:1016B000E05985B04022036803918DE82400294653
:1016C0002A46D3F840808023C047E059012110F01A
:1016D00053FAE05992490368858201224282C5810A
:1016E00005825B6803229847217807294FEA9616FE
:1016F00040F2DD806378E059022B03680CBF894912
:1017000089495B6805229847884F3B68002B40F069
:10171000C68041F2D87101226058438282820368F8
:1017200083495B68082298473B68012B00F0D4800E
:1017300041F2D8730122E55800236A82AB822B68FC
:101740007C495B680322284641F2D87A98472846AC
:1017500015F028FA54F80A5077492B684FF0000822
:101760004FF0010911225B682A82A5F8129010221D
:10177000A5F81480A5F80E8028469847284615F04D
:1017800011FA3B68022B644B53F80A004FF01B031D
:101790000382036807BFA0F81280A0F81490A0F895
:1017A0001290A0F814800022022EC2810CBF63495F
:1017B00063495B68102298473B68032B41F2D8735A
:1017C00000F08480E0580122002342828382252396
:1017D00003820368022E4FF0000241F2D8750CBF5D
:1017E00058495949C2815B68102298476059574946
:1017F00002680123438237270023078257688382C8
:10180000C3810422B847524B434A1B68002B0DDDAD
:10181000504F555903EB83031F44384618F0B0F975
:101820002B68024639465B682846984741F2D875CE
:101830000322605948490368374F5B689847474B14
:101840001868039B022EA0EB03004CD017F080F821
:101850000646584617F07CF80146304617F080F9E6
:101860003F4917F0C9F816F045FC7D59022602469B
:101870000B460096284615F003FA41F2D87601226D
:10188000A55938492B6828465B689847284615F0C3
:1018900089F9A05905B0BDE8F04F10F0D9BF41F269
:1018A000D8730122E05800234282838237E7013156
:1018B000E05915F0DDF96378E059022B03680CBF9D
:1018C00029492A495B68052298471DE7E05800220C
:1018D0000123428283827AE741F2D871002265585F
:1018E000AB826A822BE717F033F88046584617F030
:1018F0002FF80146404617F033F91D4917F07CF8E0
:1019000016F0F8FB7D59009602460B46284615F066
:10191000B7F9B2E758DBFF1FC8ACFF1F64C9FF1F50
:10192000C4E10100C8E10100D0E10100BCACFF1F2F
:10193000E8E10100ACE10100F4E1010008E201008E
:101940001CE2010030E2010044E20100B8E10100C4
:101950001093FF1F74DB010058E20100A896FF1FDF
:1019600000002041A8E10100D8E10100E0E1010010
:101970000000A0402DE9F04F884B894E41F2D87508
:10198000002458598BB0402203688DE8140021468A
:101990001F6C22468023B847804B0121585910F014
:1019A000EBF87E4B7F4958590368C48101275B6877
:1019B0000482848247820A2298473368002B40F0D1
:1019C000E080764A505943828782036876495B6893
:1019D000082298473368012B00F0D88041F2D87371
:1019E0006E49CC58012200236282A38223686F498A
:1019F0005B68DFF8D091032220469847204615F017
:101A0000D1F841F2D875654B69495C5923684FF0AC
:101A100000080A2201265B682282A4F80E801422A4
:101A2000A4F81280A68220469847204615F0BAF8FE
:101A30005A4B60495C592368A4F80E8025225B68E4
:101A40002282204614229847204615F0ABF8534BCB
:101A500053F805A0584B594D0393AAF81260AAF801
:101A600014804FEAA80606EB460659F804BF06EBB9
:101A7000C60608F003074FF0000CB6B2C7EB071715
:101A800006F113037F00E345AAF81030AAF80E70A0
:101A90008DF818C064DB05AB06AC9C44A64601205B
:101AA0009BFBF0F385FB0321DA17C2EBA10202EBEB
:101AB0008202A3EB420330330EF8013D00EB8000BD
:101AC000E6454FEA4000EBD105A818F059F8DAF8DE
:101AD000003002465B68504605A99847384BD3F85A
:101AE00000A0039B53F8041F039306F11C03002678
:101AF000B142AAF80E70AAF810308DF8186029DBF0
:101B000005AB1E44012091FBF0F385FB0327DA1798
:101B1000C2EBA70202EB8202A3EB4203303304F8CC
:101B2000013D00EB8000A6424FEA4000EBD105A842
:101B300018F026F8DAF80030024608F101085B6870
:101B4000504605A99847B8F1080F11D01C4BD3F89F
:101B500000A086E72D2349428DF814300126CFE7F7
:101B60002D23CBF1000B8DF814304FF0010C92E7D0
:101B700041F2D873094AD05810F06AFE0BB0BDE8A4
:101B8000F08F064B5859478284821EE741F2D87184
:101B9000024844580022A382628227E7C8ACFF1F94
:101BA000BCACFF1F5CE2010068E20100ACE1010097
:101BB00074E201008CE20100ACCFFF1F676666662D
:101BC000A0C4FF1F3CC9FF1F7D4B1A68F0B4034639
:101BD000B2F96440B2F9680007290CD8DFE801F0D7
:101BE000042E33527393B30D764A1068918892791C
:101BF000186099809A71F0BC7047B2F96A6000254C
:101C000036185D7100F1BD806F4F1D440120053312
:101C100096FBF0F287FB0214D117C1EBA40101EB94
:101C20008101A2EB4102303203F8012D00EB80006C
:101C3000AB424FEA4000EBD1F0BC7047634A1068FA
:101C40001860F0BC70470026002C5E71C0F2B280B4
:101C50005D4F1E440120053394FBF0F287FB021513
:101C6000D117C1EBA50101EB8101A2EB410230329A
:101C700003F8012D00EB80009E424FEA4000EBD1BB
:101C8000F0BC7047B2F96620002614195E7100F1AD
:101C90008C804D4F1E440120053394FBF0F287FBEE
:101CA0000215D117C1EBA50101EB8101A2EB4102A5
:101CB000303203F8012D00EB8000B3424FEA4000C0
:101CC000EBD1F0BC7047B2F96C600025AE425D719B
:101CD00066DB3D4F1D440120053396FBF0F287FB88
:101CE0000214D117C1EBA40101EB8101A2EB410267
:101CF000303203F8012D00EB8000AB424FEA400088
:101D0000EBD1F0BC7047B2F96E600025AE425D7158
:101D100041DB2D4F1D440120053396FBF0F287FB7C
:101D20000214D117C1EBA40101EB8101A2EB410226
:101D3000303203F8012D00EB8000AB424FEA400047
:101D4000EBD1F0BC70470026041E5E711EDB1E4FF7
:101D50001E440120053394FBF0F287FB0215D117D6
:101D6000C1EBA50101EB8101A2EB4102303203F886
:101D7000012D00EB8000B3424FEA4000EBD1F0BCF4
:101D800070472D2276421A7001253DE72D226442CC
:101D90001A700126DBE72D2276421A700125B8E77A
:101DA0002D2276421A70012593E72D2264421A7083
:101DB00001266EE72D2264421A70012648E700BF13
:101DC00058DBFF1FA4E2010067666666ACE1010014
:101DD0002DE9F04F684CDFF8C8A141F2D8768BB0FE
:101DE000A0590025402203688DE8240029462A4690
:101DF0001F6C8023B847A05901210FF0BDFEA059E8
:101E00005E490368858201225B684282C5810322A4
:101E1000058298472178A059013114F029FF637891
:101E2000A059022B036808BF55495B6818BF554984
:101E300005229847DAF80030002B40F0838041F209
:101E4000D871012260584382828203684E495B68E0
:101E500008229847DAF80030012B7BD041F2D87382
:101E60000122E55800236A82AB822B6847495B68F0
:101E7000DFF82091032228469847284614F092FE66
:101E800041F2D8730122E458414923686282002656
:101E900010225B682282A682E6812046984720466F
:101EA00014F080FE1C234FF0020B02934FEA460809
:101EB000BDF90830039308F1020818250024D9F869
:101EC00000300121002259829A82002E49D0DAF88E
:101ED000002008EB040191424FF001002ED00022B7
:101EE00058829A82BDF80C20DA811D820BEB040126
:101EF00005A8FFF769FED9F8007005A817F040FEA5
:101F00003B6802465B6805A9384698470134384665
:101F100014F048FE0A35022CADB2D0D1029B013636
:101F20002A339BB2022E02930BF1020BBED1194B46
:101F3000186810F08DFC0BB0BDE8F08F00215982BD
:101F40009882CFE741F2D8730122E0580023428201
:101F500083827AE741F2D87100226558AB826A82A7
:101F600083E718460C4924B1FEF780FD094B1B6836
:101F7000ADE718460949F7E7C8ACFF1FC4E1010007
:101F8000D8E10100E0E10100E8E10100ACE101007D
:101F9000ACE20100A0C4FF1FC0E20100C8E20100E2
:101FA000BCACFF1F30B40D4B5B78012B0C4B0AD936
:101FB0001C68A56D056094F95C0008701B685B6A7D
:101FC000136030BC70471B689C6D046093F95C0023
:101FD00008705B6A136030BC704700BFC8ACFF1F5D
:101FE00058DBFF1F2DE9F04F91B008AA0DF1130146
:101FF00007A8FFF7D7FF0898AC4C16F0A5FCAC4932
:1020000016F0AEFD0146AB4816F0AAFDAA4916F03F
:10201000A7FD41F2D8760746A0590025036801952F
:1020200040220092D3F840802A4680232946C047A8
:10203000A05901210FF0A0FDA059A0490368858295
:1020400001225B684282C58103220582984721787C
:10205000A059013114F00CFE6378022B00F0798155
:10206000032B00F06F81012B00F0B580944E336894
:10207000002B40F0A88041F2D871012260584382C1
:10208000828203688F495B68062298473368012B78
:1020900000F0518141F2D8730122E55800236A8291
:1020A000AB822B6888495B68DFF800A204222846CF
:1020B00041F2D8799847284614F074FD54F8095035
:1020C00082492B684FF000080C224FF0010B5B682F
:1020D0002A82A5F812B01222A5F81480A5F80E8065
:1020E00028469847284614F05DFD54F8090014234B
:1020F000A0F80E80038202210FF03EFD3268022A12
:1021000070D041F2D8719DF9133065580533012123
:102110006982D9B200200A29A88273D9022A00F064
:1021200084800DF124082B6869495B684FF0010930
:102130004FF0000A0222A5F81290A5F814A0284634
:102140009847384615F0D6FF0B460246614940468F
:1021500017F074FC3368032B00F09B8041F2D873B6
:102160000122E55800236A82AB82404617F008FD41
:102170002B6802465B68414628469847284614F07B
:1021800011FD3368032B00F0AF8041F2D8750121B7
:102190006059514E454F0FF0EFFC63590022012169
:1021A0009A82598212F03CFF336847F22F52C01ACC
:1021B000904205D9785910F04BFB12F031FF306096
:1021C00011B0BDE8F08F41F2D8730122E05800232E
:1021D0004282838255E7A0594049036806225B6822
:1021E000984743E73E4B1B78002B8AD09DF913306C
:1021F0005AF809500533DAB20A2AA5F81280A5F870
:1022000014B08ED8374A52F82380404617F0B8FCF5
:102210002B6802465B68284641469847326841F27F
:10222000D873022AE5587FF47CAF2D4B1A78002A28
:102230007FF477AF9DF913302A4905330DF11A0C5D
:1022400051F82310CDF808C00DF1180E0DF116034A
:1022500041F2D8790DF1240828468DE80840CDF8E0
:102260000C8014230FF0C8FD54F80900BDF92410A8
:10227000056800914FF0010ECDF804E0ED6CBDF95A
:102280001A30BDF91820BDF91610A84754F80950A6
:1022900049E7134B1B78002B3FF460AF41F2D87332
:1022A000E558A5F812A0A5F814905EE7C8ACFF1F8A
:1022B00000007A4400606A470000C041C4E10100A8
:1022C000BCACFF1FA4E20100B0E10100E8E20100A4
:1022D000E4E20100FCE2010084ACFF1FD0E2010057
:1022E0005C98FF1F20DB01001D4B1B78002B7FF447
:1022F0004CAF41F2D8750DF11A03039306AE0DF100
:10230000160205AB605902964146019200933C22A9
:1023100014230FF071FD6059BDF91A60056800962D
:1023200001260196BDF91830BDF91620BDF914102B
:10233000ED6CA84729E741F2D87100226558AB82BD
:102340006A82AEE6A0590749036806225B6898478F
:102350008CE6A0590449036806225B68984785E625
:102360005C98FF1FE0E20100D8E2010000B5807B2D
:1023700000F03F03202B17D8DFE803F01F1F5F5F3B
:102380005F5F323A5F5F5F5F5F2A24181F1F5F5FE6
:102390005F5F5F1F1F1F1840464C525811000020FE
:1023A0004FF49673088013805DF804FB002043F619
:1023B000FF73088013805DF804FB800901283FD07B
:1023C000022845D000207F23088013805DF804FB9D
:1023D0004FF4004047F6FF73088013805DF804FB5C
:1023E0004FF4604041F6FF73088013805DF804FBF2
:1023F00000206423088013805DF804FB002007237D
:10240000088013805DF804FB0020332308801380CC
:102410005DF804FB08201323088013805DF804FB9B
:1024200000200B23088013805DF804FB00204FF48C
:102430007A73088013805DF804FB80090128C1D1FC
:102440004FF680704FF48073088013805DF804FBB2
:1024500000203C23088013805DF804FB837B01F09F
:102460003F0161F30503837320291ED8DFE801F0E3
:102470002D2D111111111E1E11111111111E1E1ED3
:102480002D2D11111111112D2D2D1E1E1E1E1E1E62
:102490001E00837B9B09012B24D17F2300214FF653
:1024A00081720182438243830283704710B50446E0
:1024B00000F11A0200F11801FFF758FFB4F91820D3
:1024C000638B22829B1A638210BD837B9B09012B45
:1024D00017D0022B0DD00022782302820283438280
:1024E0004383704700227F23028202834382438317
:1024F000704700233C217822038203834182428378
:10250000704778234FF6C4714FF688720182438278
:1025100043830283704700BF2DE9F0415B4D5C4C63
:102520002B785C4962780020012B086000F08980DC
:10253000012A40F28F80022A00F08380032A57D0BC
:10254000554E306890F86220DFF880C1534FDFF8B5
:1025500080E153495FEA921814BF4FF001084FF031
:1025600000088CF8008000F1640CC7F800C0B0F8D7
:1025700068C0AEF800C0DFF85CE1B0F86AC0A1F84E
:1025800000C04849B0F86CC0AEF800C0DFF848E1C0
:10259000B0F86EC0A1F800C04349B0F864C0AEF80E
:1025A00000C0B0F866E0A1F800E003F0FD010129E9
:1025B00008D13E4BC2F30502543000211A70FFF7D8
:1025C0004DFF2B783A493B4A3B4D3C484FF0010EBA
:1025D000C1F800E04FF0FF31116073454FF0000289
:1025E000296002700DD0364B01201870BDE8F081D3
:1025F0002278294E4FF4D47000FB024084303060C2
:10260000A0E73568DFF8D4E095F8626038682D4BB4
:102610002D4962F3871685F8626041F29E46BEF945
:102620000050A45F8480C58003F1140003F8012FDB
:10263000834241F8042FF9D1214B01201870BDE8E5
:10264000F0812278144E4FF4D47000FB0240083021
:10265000306077E7052B01D0BDE8F081012A7FF4D7
:102660006FAF134923780A604FF4D47202FB03431F
:10267000094E104D104C11494FF0FF3203F5807395
:1026800033602A6022600870ADE700BF91ACFF1F85
:10269000C8ACFF1F64ACFF1F58DBFF1F64C9FF1FDE
:1026A000FEDFFF1F7C8FFF1F70C9FF1FACACFF1F39
:1026B000BCACFF1FA896FF1F1093FF1F68C9FF1F28
:1026C00080ACFF1FE7DFFF1F48CFFF1FE4CFFF1FD6
:1026D000B0E0FF1F14E3FF1FFCC8FF1F68C1FF1F0E
:1026E0002DE9F043DFF8CC802C4F98F8003005221C
:1026F00087B03A707BB12A4E3568ADB1A84720B992
:102700000024204607B0BDE8F08300242046346052
:1027100007B0BDE8F083FFF7FFFE0028EBD10124EE
:10272000204607B0BDE8F0831E4B18780238FEF74C
:1027300027FE2846FFF756FCFEF712FE0446002847
:10274000DED0194B1B68012B06DD023B174A52F8FD
:10275000233033602C46D4E7154E41F2D873402223
:10276000F05803688DE824002946D3F840902A46A3
:102770008023C84705AA0DF10F0104A888F800506E
:102780003D70FFF70FFC41F2B44141F2B0439DF8B8
:102790000F00049A7054F250B3E700BF91ACFF1FD2
:1027A00064ACFF1F5C93FF1FBCACFF1F7089FF1F51
:1027B000C8ACFF1F80ACFF1F2DE9F04FAB4BAC4DF9
:1027C0001B78032283B02A70002B00F0A980A94B4C
:1027D000A94E1F6897F86240B7F96800A409022C57
:1027E00000F0C08016F0B4F88046B7F96600B7F97B
:1027F00064B016F0ADF88246B7F96A0016F0A8F892
:102800008146CBF1180016F0A3F8514616F0A8F94E
:10281000494616F0F1F8414615F0E6FF16F0B2FA17
:102820003080CBF1600016F093F8514616F098F91D
:10283000494616F0E1F8414615F0D6FF16F0A2FA27
:10284000DFF87092A9F800008C498D4ADFF868A281
:10285000B7F91A300878398BCAF800101360FEF700
:102860008FFDFEF715FFFEF77BFD804600283ED06A
:10287000DFF84882D8F80000012840F3D080022811
:1028800000F0C780032800F0BD80B6F90050B9F908
:102890000000022CA0EB050000F0978016F058F81D
:1028A0000446284616F054F821460546204615F001
:1028B0009BFF744916F054F90146284615F092FF23
:1028C00016F060FA704905B2204616F095F86D4989
:1028D00016F046F916F056FA00B26C4B1B684FF032
:1028E00000089D80D880404603B0BDE8F08F2B786B
:1028F000032BF8D1BAF80000FDF74CFE644A41F210
:102900008173D35C002BEED00028ECD0614B1A7899
:102910008242E8D0DFF8A4811870C8F80000ABE765
:10292000FFF7FAFD044600287FF451AF584D5A498D
:102930005A4841F248534FF00108FF2205F803803E
:1029400017F08CF941F24C6141F2506041F2526251
:1029500041F254634FF4FA666E5011212C52A95281
:10296000EC52C0E715F0F4FF8346B7F96600B7F9FB
:1029700064A015F0EDFF8146B7F96A0015F0E8FF95
:102980008046CAF10C0015F0E3FF494616F0E8F85E
:10299000414616F031F8594615F026FF16F0F2F9C7
:1029A0003080CAF1300015F0D3FF494616F0D8F850
:1029B000414616F021F8594615F016FF16F0E2F9D7
:1029C000DFF8F090A9F800003EE715F0C1FF0446DB
:1029D000284615F0BDFF32490546204616F0C0F8DE
:1029E0000146284615F0FEFE16F0CCF92D4905B239
:1029F000204616F001F82A4916F0B2F816F0C2F98E
:102A000000B26AE7BAF90000B6F90050A9F8000070
:102A10003FE7BAF900503580B9F9000039E71C49A1
:102A200041F2D8730022C858402103688DE806009F
:102A300011461C6C8023A0470E4B18681A4B54306B
:102A40001978FFF70BFDD8F8003043B90F4B174941
:102A5000174A1B680988B2F900209980DA80034A76
:102A6000002313702B704FF001083CE780ACFF1F70
:102A700091ACFF1F58DBFF1F3CC9FF1F989FFF1F32
:102A80001093FF1F0000C0400000204164C9FF1FD9
:102A9000C8ACFF1F68C9FF1F04E3010011C2FF1F7C
:102AA000000040400000A040ACACFF1FB0E0FF1FA2
:102AB000FEDFFF1F3EC9FF1FA896FF1FBCACFF1F14
:102AC00010B582B002AB42F2277243F8042D0446DF
:102AD000017004221846002112F078F820460122E5
:102AE000022112F073F8032002B010BD70B5064643
:102AF000044616F8021BFFF7E3FF022205460146D3
:102B0000304612F063F8A91C201D022212F05EF874
:102B1000291DA01D022212F059F8A91D04F1080078
:102B2000022212F053F805F1080104F10A00022212
:102B300012F04CF805F10A0104F10C00022212F027
:102B400045F805F10C0104F10E00022212F03EF8E6
:102B500005F10E0104F11000022212F037F805F120
:102B6000100104F12100692212F030F805F1790119
:102B700004F11400042212F029F805F17D0104F19A
:102B80001800012212F022F805F17E0104F11C0068
:102B9000042212F01BF804F1200005F18201012249
:102BA00012F014F8962070BD70B5064682B0002071
:102BB00011F0A8FF8DF80600012011F0A3FF8DF899
:102BC0000700BDF8062042F227739A4203D0002383
:102BD000184602B070BD022011F094FF03288ABF8E
:102BE000FF2330703370032011F08CFFB07004208D
:102BF00011F088FFF070052011F084FF307106207D
:102C000011F080FF7071072011F07CFFB071082077
:102C100011F078FFF071092011F074FF30720A2072
:102C200011F070FF70720B2011F06CFFB0720C206D
:102C300011F068FFF0720D2011F064FF30730E2068
:102C400011F060FF70730F2011F05CFFB073102063
:102C500011F058FFF073112011F054FF307412205E
:102C600011F050FF06F1200570741324204611F076
:102C700049FF01347C2C05F8010FF7D106F113054B
:102C8000204611F03FFF0134802C05F8010FF7D1E9
:102C9000204611F037FF06F11B05307681242046CF
:102CA00011F030FF0134852C05F8010FF7D12046D3
:102CB00011F028FF962386F82000184602B070BD58
:102CC0002DE9F843099C089E0F46904699461CB191
:102CD000086816F057F8A0471D4D41F2D473E85824
:102CE00010F088FCB5F8EE4EB5F8EC3E201A84B230
:102CF0009C42A5F8EE4E24D094BF06F10040304629
:102D0000396815F071FD4146064616F013F858B9BA
:102D10004946304616F02CF868B1C7F800900020FC
:102D2000A5F8EC4EBDE8F883C7F800800020A5F8B0
:102D3000EC4EBDE8F8833E600020A5F8EC4EBDE8FF
:102D4000F88341F63043E858BDE8F84310F0F4BB8F
:102D5000C8ACFF1F2DE9F043284D6B78012B85B0DF
:102D6000274B45D91B68586A03F1580903F124041D
:102D700015F0EAFD234915F0F3FE0146224815F04F
:102D8000EFFE224915F0ECFE14F01AFD04A9204ACA
:102D900041F8040D4FF07E538046019200930022CB
:102DA0001C4B1D48FFF78CFF1C4B039F18700646F9
:102DB0001449384615F0D4FE0146134815F0D0FEEC
:102DC000124915F0CDFE16F003F841462060384652
:102DD00015F0C6FED9F8001015F00EFE41F2B04213
:102DE0000346C9F800003046AB5005B0BDE8F0839B
:102DF0001C68606A04F158092434B9E7C8ACFF1FA5
:102E000058DBFF1F00007A4400606A470000C041A1
:102E1000E51F00000000FA43F0C1FF1F5C98FF1F90
:102E200070B5204D6B78022B84B033D0032B2AD0A1
:102E3000012B02D000231B7AFFDE2B784FF4D474D1
:102E400004FB035404F5AA7494F9080015F080FDFE
:102E500004A9154A41F8040D4FF07E5301920093E6
:102E6000124A134B1348FFF72BFF134B06461E70F5
:102E7000039815F087FF41F2B44340B22072E85442
:102E8000304604B070BD2B784FF4D47404FB035467
:102E9000D834D9E72B784FF4D47404FB03545C3452
:102EA000D2E700BFC8ACFF1FE51F00000000A0C0B4
:102EB0000000A040F0C1FF1F5C98FF1F2DE9F84300
:102EC000099CDDF820900E4690461F460CB108681C
:102ED000A0471C4D41F2D473E85810F08BFBB5F8B5
:102EE000EE4EB5F8EC3E201A84B29C42A5F8EE4EA8
:102EF00021D0E01A15F02CFD494615F07DFD8146E4
:102F0000306815F025FD0146484615F06DFC15F0BA
:102F100039FF404508DB8742A8BF074637600020DD
:102F2000A5F8EC4EBDE8F883C6F800800020A5F8AF
:102F3000EC4EBDE8F88341F63043E858BDE8F8436D
:102F400010F0FABAC8ACFF1F2DE9F047234CBDF8CA
:102F50002090099D41F2D4770646E05990460F46ED
:102F60009A4610F047FBB4F8EE3EB4F8EC1E184455
:102F700080B2A4F8EE0E884296F861221BD2AB5CB8
:102F8000013BDBB22F2B98BF3923AB5428460A22D2
:102F9000002116F033FF4045386013DAB4F8EE0E26
:102FA000C7F8008041F63043A4F8EC0EE058BDE8C5
:102FB000F04710F0C1BAF5D95AB909F1FF3986F8CE
:102FC0006192EFE75045C8BFC7F800A0B4F8EE0E15
:102FD000E8E7013A86F86122E4E700BFC8ACFF1FCA
:102FE000F8B5204C41F2D4730546E0580E4617461A
:102FF00010F000FBB4F8EE3EB4F8EC1E184480B2BA
:10300000A4F8EE0E95F861228842B35C1ED201331B
:10301000DBB213F0800F18BF2023B354B4F8EE0EC8
:10302000A4F8EC0E41F63043E05810F085FA60B198
:1030300095F86132013FBB4207D013B93278202A9C
:103040000ED0013385F861320020F8BDE8D9013B8C
:10305000DBB21F2B98BF7F23B354B4F8EE0EDFE72B
:103060003370F8BDC8ACFF1FF0B5DFF844E041F2A3
:10307000D87583B008465EF80550BDF820601F463D
:10308000144616F07DFD04EB4404A4002A680334C2
:1030900000EB4003122100200190009104EB430358
:1030A0001BB2146C39B2284632B2A04703B0F0BD4F
:1030B000C8ACFF1F2DE9F04FDFF8BC8041F2D87794
:1030C00085B00E469B4658F80700BDF838900121A0
:1030D00014460EF051FD0BF1020058F8075083B270
:1030E0001A464FF0010A09F105034FF00001EA8189
:1030F0002B82A5F812A0A9823046039216F040FD5B
:103100002B6802465B68314628469847284613F0EC
:1031100049FD58F8070002210EF02EFD58F807501F
:103120004FF00001A9823046A5F812A016F028FD44
:10313000039A00EB400002EB400009EB0A03E88130
:103140002B82304616F01CFD04EB4404A4002E68CC
:10315000CDF804A000EB400003341222009204EBEF
:1031600040031BB20FFA89F20FFA8BF12846F46C78
:10317000A04705B0BDE8F08FC8ACFF1F2DE9F04FA8
:1031800087B01F46BDF8404004942546BDF8444032
:103190000094A9468846029316462B463A460546B1
:1031A00005940391FFF760FF4B463A460094414671
:1031B0002846FFF77FFF41F2D873254A254F52F882
:1031C00003B000245B46A146A3464FF001081C460D
:1031D00017E095F861325345236804BFA4F81290B4
:1031E000A4F814801B6816F80A10984795F8613205
:1031F0003C68534504BFA4F81280A4F814900BF166
:10320000010B304616F0BCFC1FFA8BFA50452046E5
:10321000DFD822681049A34654680022A0475846C8
:1032200013F0C0FC029A31462846FFF7D9FE58B188
:10323000059B00932846049B029A0399FFF714FF0D
:10324000FF2385F86132012007B0BDE8F08F00BF91
:10325000C8ACFF1FA0C4FF1F84E10100F0B5044605
:1032600090F8610287B0FF28BDF83050BDF8346097
:103270000AD08DE860002046FFF780FF10B1FF23E1
:1032800084F8613207B0F0BD002084F86102104676
:1032900005930491039216F073FC059B039A04991D
:1032A0009842E6D207DA104402EB030E202700F81A
:1032B000017B7045FBD10020D054DAE7102B2DE9BB
:1032C000F84F05460C464FF0000E55D8724501F8F0
:1032D00003E057DB9E4518DADFF8BCC0E71801268B
:1032E00092FBF6F18CFB0108C817C0EBA80000EBBD
:1032F0008000A1EB4001013B06EB860630317345AF
:103300004FEA460607F8011DEADC214ADFF88C90F7
:1033100041F2D8734FF00008D758C3464FF0010A66
:1033200017E095F86132B3423B6804BFA7F812B0CA
:10333000A7F814A01B68A15D984795F86132D9F8E9
:103340000070B34204BFA7F812A0A7F814B008F1A8
:103350000108204616F014FC1FFA88F6B0423846E1
:10336000DFD83B680B495B683846002298473846EF
:10337000BDE8F84F13F016BC724581F810E04FF02D
:103380001003A9DA2D21524221704FF0010EA1E75E
:10339000C8ACFF1F84E1010067666666A0C4FF1F1A
:1033A0002DE9F04F89B00546BDF84C40BDF850609E
:1033B000BDF8547000978B46904699462246334696
:1033C000FFF752FE33460097224659462846FFF73C
:1033D00071FE169B0DF10C0A5BB350462246D8F8DD
:1033E0000010984795F86132FF2B16D08DE8100435
:1033F0004A464146129B2846FFF7A6FD50B1334688
:103400002846009722465946FFF72EFEFF2385F8EF
:103410006132012009B0BDE8F08F00224FF07E53E9
:10342000019200934A464146129B2846FFF746FD0B
:10343000E4E751462346D8F800202846FFF73EFF30
:10344000D0E700BF30B51C4A11784FF4D47303FBAA
:1034500001F3D11889B091F86A00800625D101F5F1
:10346000B074B1F86011079141F289731249D25CCE
:10347000114DFF2A04BF0322CA542D20002304212A
:103480004FF4FA620390019100920493029307AA09
:103490000A490B48FFF784FF18B141F28973FF22F4
:1034A000EA54079B238009B030BD1344B1F868107B
:1034B00003F16804D7E700BFC8ACFF1F18E30100A1
:1034C000F0C1FF1F2DE9F04341F2B8432B4C2C49CA
:1034D000E0582A4D89B015F08FFA15F053FC41F2EF
:1034E00089730790E25CFF2A04BF0422E2542D2076
:1034F00000230521234A0390019100920493029333
:1035000007AA21492148FFF74BFF814648B341F202
:103510008973FF22EA5407981D4F15F019FA1849CC
:1035200015F01EFB41F2B843A7F1040801462C46F2
:10353000E85005F5546601E0D8F800103D78D4F85D
:10354000F80010F01FFE284615F0FEF904F5D474BB
:1035500054F8B03CA6421861EED1484609B0BDE827
:10356000F083079815F0F4F9054915F0F9FA41F2DE
:10357000B843E850484609B0BDE8F083C8ACFF1F27
:103580000050C3473F420F0024E30100F0C1FF1F7A
:1035900084C1FF1FF0B5144C144A2378144989B034
:1035A0004FF4D47505FB0343049293F8843108AAC1
:1035B0001B092D2642F8043D04F5A950002303966B
:1035C00002270B2602938DE8C0000830FFF7E8FEC3
:1035D0002378079905FB034393F8842161F30712CD
:1035E00083F8842109B0F0BDC8ACFF1F610700005B
:1035F00030E30100F0B5124C124923784FF4D47532
:1036000089B005FB034308AAB3F8A03142F8043D92
:103610002D260023039604F5A950032740F2E73630
:10362000049302938DE8C0000830FFF7B9FE2378B9
:10363000079A05FB0344A4F8A02109B0F0BD00BF20
:10364000C8ACFF1F3CE30100F0B5124C12492378CF
:103650004FF4D47589B005FB034308AAB3F8A2312F
:1036600042F8043D2D260023039604F5A9500327B4
:103670004FF49676049302938DE8C0000830FFF76C
:103680008FFE2378079A05FB0344A4F8A22109B012
:10369000F0BD00BFC8ACFF1F48E301002DE9F043B7
:1036A0001C4C1D491D4889B041F2BC4608AAA35DC7
:1036B00042F8043D2D250023039504274FF480751F
:1036C0008DE8A00004930293FFF76AFE9DF81C505A
:1036D000A555814618B9484609B0BDE8F083104F9A
:1036E00004F5546607F1040801E098F80050D4F896
:1036F000F800396810F046FD284615F025F904F564
:10370000D47454F8B03CB4421861EED1484609B0C4
:10371000BDE8F083C8ACFF1F54E30100F0C1FF1FF8
:1037200080C1FF1F70B52E4D6B78022B88B030D052
:10373000032B27D0012B02D000235B78FFDE2B78F0
:103740004FF4D47202FB035303F5AA7308AA5B7803
:1037500042F8043D00242D2603207F2123460396B2
:1037600001900091049402941E491F481C4EFFF7DB
:1037700017FE6B78022B28D0032B1CD0012B0FD007
:103780006470FFDE2B784FF4D47202FB0353D833FE
:10379000DCE72B784FF4D47202FB03535C33D5E79C
:1037A00033784FF4D47202FB036303F5AA73079ACC
:1037B0005A7008B070BD32784FF4D47303FB0263C3
:1037C000D833079A5A7008B070BD32784FF4D4736A
:1037D00003FB02635C33079A5A7008B070BD00BFE8
:1037E000C8ACFF1F5CE30100F0C1FF1F70B52E4D98
:1037F0006B78022B88B030D0032B27D0012B02D05E
:1038000000231B78FFDE2B784FF4D47202FB0353A6
:1038100003F5AA7308AA1B7842F8043D00242D2062
:103820000321102303900191009304940123029437
:103830001E491F481C4EFFF7B3FD6B78022B28D0A2
:10384000032B1CD0012B0FD02470FFDE2B784FF4FC
:10385000D47202FB0353D833DCE72B784FF4D472D5
:1038600002FB03535C33D5E733784FF4D47202FB89
:10387000036303F5AA73079A1A7008B070BD327813
:103880004FF4D47303FB0263D833079A1A7008B05D
:1038900070BD32784FF4D47303FB02635C33079A34
:1038A0001A7008B070BD00BFC8ACFF1F68E301000C
:1038B000F0C1FF1F2DE9F041314C6378022B88B035
:1038C00036D0032B2DD0012B02D000235B68FFDE06
:1038D00023784FF4D47202FB034303F5AA735868AC
:1038E000274F15F04FFA08AA002642F8040D0321CD
:1038F0002D20FF230390019100930496012302964B
:1039000020492148FFF74CFD6378022B80462FD0D9
:10391000032B26D0012B12D0079815F019F87060F0
:10392000FFDE23784FF4D47202FB0343D833D6E78B
:1039300023784FF4D47202FB03435C33CFE73B7828
:103940004FF4D47505FB037505F5AA75079814F0B7
:10395000FFFF41F2B0436860E050404608B0BDE868
:10396000F0813B784FF4D47505FB0375D835EDE74E
:103970003B784FF4D47505FB03755C35E6E700BF73
:10398000C8ACFF1F78E30100F0C1FF1F70B52E4CDB
:103990006378022B88B032D0032B29D0012B02D0C0
:1039A00000231B7AFFDE23784FF4D47202FB03431B
:1039B00003F5AA7308AA93F9083042F8043D0025DC
:1039C0002D200421782303900191009304956FF03A
:1039D000770302951D491E481B4EFFF7E1FC6378F3
:1039E000022B29D0032B20D0012B0FD02D72FFDE0C
:1039F00023784FF4D47202FB0343D833DAE72378F9
:103A00004FF4D47202FB03435C33D3E733784FF4B3
:103A1000D47202FB036303F5AA739DF91C201A728A
:103A200041F2B441625408B070BD32784FF4D4739F
:103A300003FB0263D833F0E732784FF4D47303FB0F
:103A400002635C33E9E700BFC8ACFF1F84E30100F9
:103A5000F0C1FF1F70B52E4D6B78022B88B030D0AF
:103A6000032B27D0012B02D000231B7FFFDE2B78F6
:103A70004FF4D47202FB035303F5AA7308AA1B7F09
:103A800042F8043D00242D2603207F21234603967F
:103A900001900091049402941E491F481C4EFFF7A8
:103AA0007FFC6B78022B28D0032B1CD0012B0FD06E
:103AB0002477FFDE2B784FF4D47202FB0353D83304
:103AC000DCE72B784FF4D47202FB03535C33D5E769
:103AD00033784FF4D47202FB036303F5AA73079A99
:103AE0001A7708B070BD32784FF4D47303FB0263C9
:103AF000D833079A1A7708B070BD32784FF4D47370
:103B000003FB02635C33079A1A7708B070BD00BFED
:103B1000C8ACFF1F94E30100F0C1FF1F70B52E4D2C
:103B20006B78022B88B030D0032B27D0012B02D02A
:103B300000235B7FFFDE2B784FF4D47202FB03532C
:103B400003F5AA7308AA5B7F42F8043D00242D26E2
:103B500003207F2123460396019000910494029450
:103B60001E491F481C4EFFF71BFC6B78022B28D008
:103B7000032B1CD0012B0FD06477FFDE2B784FF482
:103B8000D47202FB0353D833DCE72B784FF4D472A2
:103B900002FB03535C33D5E733784FF4D47202FB56
:103BA000036303F5AA73079A5A7708B070BD327899
:103BB0004FF4D47303FB0263D833079A5A7708B0E3
:103BC00070BD32784FF4D47303FB02635C33079A01
:103BD0005A7708B070BD00BFC8ACFF1FA0E301005A
:103BE000F0C1FF1F30B5434C6378022B89B043D03E
:103BF000032B38D0012B02D000231B7FFFDE23785C
:103C00004FF4D47202FB034303F5AA731A7FD20167
:103C100041F289715B7F605C364D1344FF28079346
:103C200004BF04236B542D200023052143F6FF72AB
:103C30000390019100920493029307AA2E492F4802
:103C40002C4DFFF7ADFB18B141F28973FF22EA5406
:103C50006378284C022B3AD0032B2AD0012B14D0A6
:103C600000231B77FFDE23784FF4D47202FB03435B
:103C7000D8331A7FD201CBE723784FF4D47202FBFA
:103C800003435C331A7FD201C2E7237807994FF4CC
:103C9000D47202FB0342002902F5AA720B4613DB21
:103CA000DB111377164B0B40002B1CDB537709B04D
:103CB00030BD237807994FF4D47202FB03420029E8
:103CC00002F1D8020B46EBDA01F17F03E8E7237833
:103CD00007994FF4D47202FB0342002902F15C02FF
:103CE0000B46DDDAF0E7013B63F07F0301335377E6
:103CF00009B030BDC8ACFF1FACE30100F0C1FF1F2D
:103D00007F00008070B52E4D6B78022B88B030D0CC
:103D1000032B27D0012B02D000239B78FFDE2B78CA
:103D20004FF4D47202FB035303F5AA7308AA9B78DD
:103D300042F8043D00242D260320772123460396D4
:103D400001900091049402941E491F481C4EFFF7F5
:103D500027FB6B78022B28D0032B1CD0012B0FD014
:103D6000A470FFDE2B784FF4D47202FB0353D833D8
:103D7000DCE72B784FF4D47202FB03535C33D5E7B6
:103D800033784FF4D47202FB036303F5AA73079AE6
:103D90009A7008B070BD32784FF4D47303FB02639D
:103DA000D833079A9A7008B070BD32784FF4D47344
:103DB00003FB02635C33079A9A7008B070BD00BFC2
:103DC000C8ACFF1FB4E30100F0C1FF1F70B52E4D5A
:103DD0006B78022B88B030D0032B27D0012B02D078
:103DE0000023DB78FFDE2B784FF4D47202FB035301
:103DF00003F5AA7308AADB7842F8043D00242D26B7
:103E000003207F212346039601900091049402949D
:103E10001E491F481C4EFFF7C3FA6B78022B28D0AF
:103E2000032B1CD0012B0FD0E470FFDE2B784FF456
:103E3000D47202FB0353D833DCE72B784FF4D472EF
:103E400002FB03535C33D5E733784FF4D47202FBA3
:103E5000036303F5AA73079ADA7008B070BD32786D
:103E60004FF4D47303FB0263D833079ADA7008B0B7
:103E700070BD32784FF4D47303FB02635C33079A4E
:103E8000DA7008B070BD00BFC8ACFF1FBCE3010012
:103E9000F0C1FF1F10B51E4A5378022B26D0032B0A
:103EA0001DD0012B0DD000201A4C1521FEF7D6FA9B
:103EB000237873B901232370FFF734FCE8B900209D
:103EC00010BD13784FF4D47000FB032000F5AA70E6
:103ED000EAE7012BF0D0022B13D0012010BD13789C
:103EE0004FF4D47000FB0320D830DDE713784FF493
:103EF000D47000FB03205C30D6E7237801332370B5
:103F0000DDE7FFF763FF0028D9D00023237010BD41
:103F1000C8ACFF1F48C4FF1F2DE9F041314C637846
:103F2000022B88B036D0032B2DD0012B02D00023DA
:103F30005B68FFDE23784FF4D47202FB034303F582
:103F4000AA735868274F14F01DFF08AA002642F8EC
:103F5000040D03212D20FF2303900191009304966B
:103F60000123029620492148FFF71AFA6378022BB1
:103F700080462FD0032B26D0012B12D0079814F0A7
:103F8000E7FC7060FFDE23784FF4D47202FB03433A
:103F9000D833D6E723784FF4D47202FB03435C3363
:103FA000CFE73B784FF4D47505FB037505F5AA758B
:103FB000079814F0CDFC41F2B0436860E0504046F1
:103FC00008B0BDE8F0813B784FF4D47505FB03756C
:103FD000D835EDE73B784FF4D47505FB03755C35B8
:103FE000E6E700BFC8ACFF1F78E30100F0C1FF1F88
:103FF00070B52E4C6378022B88B032D0032B29D0B9
:10400000012B02D000231B7AFFDE23784FF4D472F9
:1040100002FB034303F5AA7308AA93F9083042F898
:10402000043D00252D200421782303900191009365
:1040300004956FF0770302951D491E481B4EFFF74C
:10404000AFF96378022B29D0032B20D0012B0FD09E
:104050002D72FFDE23784FF4D47202FB0343D83372
:10406000DAE723784FF4D47202FB03435C33D3E7DF
:1040700033784FF4D47202FB036303F5AA739DF9FE
:104080001C201A7241F2B441625408B070BD3278FB
:104090004FF4D47303FB0263D833F0E732784FF464
:1040A000D47303FB02635C33E9E700BFC8ACFF1FB6
:1040B00084E30100F0C1FF1F70B5374C637888B00E
:1040C00000227F21022BADF81820ADF81A1039D04C
:1040D000032B2DD0012B01D0138BFFDE23784FF45F
:1040E000D47000FB034000F5AA70B0F918300793B4
:1040F0000DF11A0206A9FEF739F9BDF91A2000924E
:1041000000252D210522BDF9183003910192049557
:10411000029507AA214922481F4EFFF741F963780B
:10412000022B2ED0032B22D0012B15D02D83FFDEA6
:1041300023784FF4D47000FB0340D830B0F9183026
:104140000793D5E723784FF4D47000FB03405C302D
:10415000B0F918300793CBE733784FF4D47202FBF1
:10416000036303F5AA73079A1A8308B070BD327807
:104170004FF4D47303FB0263D833079A1A8308B051
:1041800070BD32784FF4D47303FB02635C33079A3B
:104190001A8308B070BD00BFC8ACFF1FC8E30100A0
:1041A000F0C1FF1F70B5374C637888B000227F21C3
:1041B000022BADF81820ADF81A1039D0032B2DD0F2
:1041C000012B01D0538BFFDE23784FF4D47000FB1A
:1041D000034000F5AA70B0F91A3007930DF11A02E6
:1041E00006A9FEF7C3F8BDF91A20009200252D217B
:1041F0000522BDF91830039101920495029507AA92
:10420000214922481F4EFFF7CBF86378022B2ED0AE
:10421000032B22D0012B15D06D83FFDE23784FF4C2
:10422000D47000FB0340D830B0F91A300793D5E7BB
:1042300023784FF4D47000FB03405C30B0F91A309F
:104240000793CBE733784FF4D47202FB036303F593
:10425000AA73079A5A8308B070BD32784FF4D473AA
:1042600003FB0263D833079A5A8308B070BD3278D3
:104270004FF4D47303FB02635C33079A5A8308B08C
:1042800070BD00BFC8ACFF1FD4E30100F0C1FF1F29
:1042900038B50A4D2C783CB1012C08D1FFF782FFCC
:1042A00028B100232B7038BDFFF706FF08B90020A6
:1042B00038BD01232B70204638BD00BF60C9FF1FE9
:1042C000F0B52D4D6B78022B89B034D0032B2BD059
:1042D000012B02D000239B8AFFDE2B784FF4D4748D
:1042E00004FB035404F5AA7408AAB4F9143042F884
:1042F000043D00262D20062144F202030390019183
:104300000093049602961D4B1D491E48B4F91640B1
:10431000194FFFF745F86B78022B26D0032B1DD0E1
:10432000012B0FD0B682FFDE2B784FF4D47404FB40
:104330000354D834D8E72B784FF4D47404FB0354D7
:104340005C34D1E73B784FF4D47202FB037303F57E
:10435000AA73079ADC829A8209B0F0BD3A784FF4CA
:10436000D47303FB0273D833F3E73A784FF4D47372
:1043700003FB02735C33ECE7C8ACFF1FFDBFFFFF1C
:10438000E0E30100F0C1FF1FF0B52F4D6B78022B69
:1043900089B036D0032B2DD0012B02D000239B8A6D
:1043A000FFDE2B784FF4D47202FB035303F5AA739C
:1043B000B3F91440B3F916602449254B254808AADF
:1043C00026442D2742F8046D4FF0060E0026039771
:1043D00044F20207049602968DE88040FEF7E0FF63
:1043E0006A781949022A27D0032A1ED0012A0FD041
:1043F000B682FFDE2B784FF4D47202FB0353D8331E
:10440000D6E72B784FF4D47202FB03535C33CFE72B
:104410000A784FF4D47303FB021303F5AA73079AC7
:104420009C82141BDC8209B0F0BD0A784FF4D4736F
:1044300003FB0213D833F2E70A784FF4D47303FB7B
:1044400002135C33EBE700BFC8ACFF1FE8E30100D9
:10445000FDBFFFFFF0C1FF1F38B50A4D2C783CB1FE
:10446000012C08D1FFF790FF28B100232B7038BD35
:10447000FFF726FF08B9002038BD01232B70204626
:1044800038BD00BF60C9FF1FF0B5374C637889B0F5
:1044900000227F21022BADF81820ADF81A103DD074
:1044A000032B2FD0012B01D0138AFFDE23784FF48A
:1044B000D47000FB034000F5AA70B0F91030B0F9D9
:1044C000125007930DF11A0206A9FDF74FFFBDF92F
:1044D0001A20009200262D210522BDF918300391E3
:1044E00001920496029607AA204921481E4FFEF722
:1044F00057FF6378022B30D0032B27D0012B19D024
:104500003682FFDE23784FF4D47000FB0340D830AE
:10451000B0F91030B0F912500793D3E723784FF475
:10452000D47000FB03405C30B0F910300793B0F951
:104530001250C7E73B784FF4D47202FB037303F5C4
:10454000AA73079A5D821A8209B0F0BD3A784FF4D7
:10455000D47303FB0273D833F3E73A784FF4D47380
:1045600003FB02735C33ECE7C8ACFF1FF0E3010010
:10457000F0C1FF1FF0B5394C637889B000227F216C
:10458000022BADF81820ADF81A103FD0032B30D015
:10459000012B01D0138AFFDE23784FF4D47000FB87
:1045A000034000F5AA70B0F91050B0F912302B4456
:1045B00007930DF11A0206A9FDF7D8FEBDF91A20DE
:1045C000009200262D210522BDF918300391019299
:1045D0000496029607AA22492248204FFEF7E0FEE1
:1045E0006378022B33D0032B2AD0012B1BD03682C9
:1045F000FFDE23784FF4D47000FB0340D830B0F9CD
:104600001050B0F912302B440793D2E723784FF4BF
:10461000D47000FB03405C30B0F91050B0F9123098
:104620002B440793C5E73B784FF4D47202FB037326
:1046300003F5AA73079A1D82551B5D8209B0F0BD70
:104640003A784FF4D47303FB0273D833F2E73A7825
:104650004FF4D47303FB02735C33EBE7C8ACFF1F6A
:10466000FCE30100F0C1FF1F38B50A4D2C783CB1C6
:10467000012C08D1FFF77EFF28B100232B7038BD35
:10468000FFF702FF08B9002038BD01232B70204638
:1046900038BD00BF60C9FF1F2DE9F04F88469BB0B1
:1046A000D0F864120790BDF890A09DF894500B923A
:1046B000994629B97A4B1B680D930D9BC0F864325B
:1046C000002D00F0C780774B2E1F83FB0623A3EB42
:1046D000E6760236F600B3B2CAF13F069E42404685
:1046E000A8BF1E4615F04CFA00EB40004700043707
:1046F000BFB241F2D8746C4B1859AF4233B228BFE5
:104700002F464FF0000B1A460FFA8AF50A930368FA
:1047100006950FFA89F10092CDF804B03AB21D6CFB
:10472000099213460891069AA8475F4B0121185930
:104730000DF022FA5C4A5B4B1459033F83FB0723BD
:104740000AF1040AB6B2A3EBE7771FFA8AF30493DF
:10475000F31F5D4609F10209012205931AABA4F883
:1047600014B00FFA89F9628203EB070B2E46AA46B2
:1047700009E0059BB3EBC20F2BDD56B3B5F5807F87
:1047800027D04A4B1C68049BA4F80E9003EBC5038A
:1047900008EB060123823A460FA815F05FFA0FA82E
:1047A0000BF82CAC15F0ECF9236802465B680FA9F6
:1047B00020469847204612F0F5F9404615F0E0F9FA
:1047C000C01BF319864205F102029EB205F10105F4
:1047D000CFD9354B0A9941F2D874012218591E4697
:1047E00003688DE80600069ADD6C0899099BA847C6
:1047F000079B93F82E31002B3DD141F2D8732A4A02
:10480000D0580EF025F841F63043274AD0580EF024
:1048100093FE50B9224A079B1268D3F864320E9275
:104820000B990E9A19448A4211D941F2D8721E4945
:10483000099B88580A9A0568009200240194069AF8
:1048400008992D6CA847079B0120C3F864421BB050
:10485000BDE8F08F404615F093F900EB40004700AB
:10486000CAF13F063B1DC9F17F05102E9FB2A8BFBC
:104870001026EDB23DE73059079E96F83C41D6F838
:104880003431B6F93221B6F93011B6F93A51029401
:10489000B6F938418DE830000CF03AFFADE700BFC3
:1048A00034E4FF1FABAAAA2AC8ACFF1FA0C4FF1F95
:1048B0002DE9F0470E4601789DF82090082904461E
:1048C00017465AD01D46444BD0F8F40041F2A4419B
:1048D00003F5A55C41F29E4E41F2A242595E33F8C7
:1048E0000EE0BCF900C09A5AA4F8EA104FF0010893
:1048F00041F2BC41A4F86EC0A4F86CE0A4F8E82032
:1049000084F8D18041F2B84213F801A099580FF011
:1049100039FC504614F018F8D4F8F4202423106120
:104920000021184684F87D60237210F073FB002686
:10493000252084F8840084F8F970A683314610F0AD
:1049400069FBA4F8986084F81A6184F8005128463D
:104950000DB9BDE8F087022110F05CFB84F860918E
:10496000B9F1000F02D14046BDE8F0874846414604
:1049700010F050FB4046BDE8F087174B41F2A840CD
:1049800041F2AA4541F2A64141F2AC42185E9A5E5C
:10499000595A5B5BA4F86E001220A4F86C10A4F8BE
:1049A000EA20A4F8E830207284F87D60002110F03D
:1049B00031FB00251A2084F8840084F8F970A5835F
:1049C000294610F027FB84F80051A4F8985084F889
:1049D0001A512846BDE8F087C8ACFF1F2DE9F843FF
:1049E00004468846164610F01BFB636AE06213B962
:1049F000236B002B44D072B6DFF8AC90254FD9F86A
:104A000000103B682448E56A226BCB1A80FB031038
:104A1000D917C1EBA000062184F838101F49C5EB57
:104A2000030EAA1A0B60636BA26285181C4AE06B26
:104A30007344A9B213600FF095FBE26BA36AD26ACC
:104A4000002E62F30F0528461FDDB040B340D9F8B1
:104A500000103A680B440244C9F800303A6013F081
:104A600073FF414614F07CF80E4914F079F814F005
:104A7000AFF9E36A6062236362B60120BDE8F883A0
:104A8000606320631846BDE8F883E0D07642F040CA
:104A9000F340DCE76CC9FF1F67666666B0ACFF1FBA
:104AA00000E3FF1F0000C04008C9FF1F10B5044607
:104AB000212094F8791001F0010110F097FA94F890
:104AC00079101820C1F3400110F090FA94F8791091
:104AD0002020C1F38001BDE8104010F087BA00BF6C
:104AE00030B5104B83B00C469C424FF000014FF0A4
:104AF0007F02054608BFB0F91A40ADF80410ADF8C2
:104B0000062054300DF1060201A9FDF72FFCB5F97E
:104B10006C00844204DBB5F96E00A042A8BF2046B9
:104B200003B030BDF1D8FFFF38B590F87C31032BCE
:104B300035D8DFE803F0021104021A4838BD90F8B6
:104B4000E23003F03F03072BB0F91E301CD0B0F960
:104B50009A1003FB01F104E0B0F91E10B0F99A308D
:104B6000194490F866301A4604466FF3871280F8AD
:104B7000662004309D09FFF7B3FF94F8663065F3B3
:104B8000871384F8663038BDB0F99A20064903FBD4
:104B900002F381FB0321DB17C3EB6111E1E701495C
:104BA000DFE700BFF1D8FFFF1F85EB51012A49DD88
:104BB00010B490F8623003F03F031E2B44D8DFE8B6
:104BC00003F016191E1616161616231616161616A6
:104BD000101016161616162F2F3737161E3C3C3C93
:104BE0003C000B7880F871304B7880F870301046BC
:104BF00010BC70470B88A0F872301046F8E70B78AD
:104C000080F855301046F3E7104B41F2B04441F2C2
:104C1000B4411C5984655B5680F85C301046E7E768
:104C20000B7880F855304B7880F857301046DFE726
:104C30000B7880F856301046DAE70B7880F863304E
:104C40001046D5E7002070470020D1E7C8ACFF1F11
:104C50002DE9F84390F85150594E5A4C002D08BF99
:104C60003446154614BF0A270D277D2900F2A68079
:104C7000DFE801F046A4A4A4A4A4A4A4A4A4A4A42A
:104C8000A4A4A4A4A4A4A4A4A4A4A4A4A4A4A4A4E4
:104C9000A4A4A4A4A4A4A4A4A4A4A4A4A4A4A4A4D4
:104CA000A4A4A4A4A4A4A4A4A4A4A4A4A4A4A4A4C4
:104CB000A4A4A4A4A4A4A4A4A4A4A4A4A4A4A4A4B4
:104CC000A4A4A4A4A4A4A4A4A4A4A4A4A4A4A4A4A4
:104CD000A4A4A4A4A4A4A4A4A4A4A4A4A4A4A4A494
:104CE000A4A4A4A4A45D6C6267717A80868C929857
:104CF0009E3F2A7880F862201D462846BDE8F8834A
:104D000007EB4707033FDFF8C090A8460646274455
:104D10002379617919F803302A463046FFF798FF66
:104D20000334A7420544F3D1C8EB0505E5E72A782B
:104D300080F854201D46E0E72A7880F85F201D4661
:104D4000DBE72A88A0F860201D46D6E72A7880F89D
:104D50005E201D46D1E7297890F8622061F30502B4
:104D60001D4680F86220C8E7B5F90020A0F864204D
:104D70001D46C2E7B5F90020A0F866201D46BCE735
:104D8000B5F90020A0F868201D46B6E7B5F9002067
:104D9000A0F86A201D46B0E7B5F90020A0F86C2005
:104DA0001D46AAE7B5F90020A0F86E201D46A4E72D
:104DB0001A462946BDE8F843FFF7F8BE00259CE7F0
:104DC0004CDB010000DB0100ECDA010010B588B01B
:104DD0000446202268460FF0AFFE6A462046202394
:104DE0000021FFF735FF94F85130002B14BF0E203F
:104DF000182008B010BD00BF012A42DD00B590F8B0
:104E0000623003F03F031E2B3DD8DFE803F0161F8E
:104E1000251616161616161616161616101016162F
:104E20001616162B2B34341625191919190090F85B
:104E300071300B7090F870304B7010465DF804FBC9
:104E400090F863300B7010465DF804FBB0F87230D8
:104E50000B8010465DF804FB90F855300B7010463F
:104E60005DF804FB90F855300B7090F857304B709C
:104E700010465DF804FB90F856300B7010465DF854
:104E800004FB0020704700205DF804FB2DE9F84387
:104E900090F85150614E624C002D90460ABF344646
:104EA0000A270D277D2900F2B580DFE801F046B31F
:104EB000B3B3B3B3B3B3B3B3B3B3B3B3B3B3B3B3C2
:104EC000B3B3B3B3B3B3B3B3B3B3B3B3B3B3B3B3B2
:104ED000B3B3B3B3B3B3B3B3B3B3B3B3B3B3B3B3A2
:104EE000B3B3B3B3B3B3B3B3B3B3B3B3B3B3B3B392
:104EF000B3B3B3B3B3B3B3B3B3B3B3B3B3B3B3B382
:104F0000B3B3B3B3B3B3B3B3B3B3B3B3B3B3B3B371
:104F1000B3B3B3B3B3B3B3B3B3B3B3B3B3B3B35EB6
:104F200073656C7A838A91989FA6AD3F90F8622052
:104F300088F800201846BDE8F88307EB4707033FD1
:104F4000DFF8E0900646274445462379617919F851
:104F500003302A463046FFF799FF0334BC4205442C
:104F6000F3D1C8EB0500BDE8F88390F8542088F829
:104F700000201846BDE8F88390F85F2088F80020EC
:104F80001846BDE8F883B0F86020A8F8002018465D
:104F9000BDE8F88390F85E2088F800201846BDE848
:104FA000F88390F86220C2F3050288F800201846C2
:104FB000BDE8F883B0F96420A8F800201846BDE8E1
:104FC000F883B0F96620A8F800201846BDE8F883F9
:104FD000B0F96820A8F800201846BDE8F883B0F9B9
:104FE0006A20A8F800201846BDE8F883B0F96C20C4
:104FF000A8F800201846BDE8F883B0F96E20A8F89C
:1050000000201846BDE8F8831A464146BDE8F8433B
:10501000FFF7F2BE0020BDE8F88300BF4CDB0100C3
:1050200000DB0100ECDA010030B589B00D466A46BC
:10503000202300210446FFF729FF2946024668463F
:105040000FF0C4FD94F85130002B14BF0E2018202F
:1050500009B030BD80292DE9F8434ED014D98229FA
:105060003FD02FD3832939D1012B37DD90F862103F
:105070000F2933D8DFE801F0606057574A474747A8
:1050800047474747474747477E2930D020D829BB65
:105090002C4DDFF8B8901746064605F11208144665
:1050A00001237E2103E02B79697919F80330224628
:1050B0003046FFF7CFFF033545450444F3D1E01BED
:1050C000BDE8F8831288A0F860201846BDE8F88390
:1050D000127880F85E201846BDE8F8830020BDE80D
:1050E000F883127880F862201846BDE8F8831278B9
:1050F00080F854201846BDE8F883127880F85F20C5
:105100001846BDE8F8831846BDE8F8830E4A41F218
:10511000B04441F2B44114598465525680F85C2081
:105120001846BDE8F883117880F85510527880F859
:1051300057201846BDE8F883127880F856201846A4
:10514000BDE8F88334DF0100C8ACFF1FECDA0100D2
:1051500010B584B00446102268460FF0EDFC6A4694
:10516000204610230021FFF775FF082004B010BD72
:1051700070B5054608460C460FF0C4FC85F87C0166
:10518000601C0FF0BFFC85F88001A01C0FF0BAFC7A
:1051900005F5C076014630460BF0D4FBE01C0FF05D
:1051A000B1FC0434014630460BF0D0FB214605F13A
:1051B000FC00FFF7CDFF04442146281DFFF706FE43
:1051C000211805F18000FFF701FE322070BD00BFFD
:1051D000012A20DD10B490F862400F2C0DD8012375
:1051E000A3404FF6F0741C4054B913F00C0F0AD1D1
:1051F00013F0030311D1184600E0002010BC7047E3
:10520000104610BC704790F855300B7090F857302E
:105210004B701046F2E70020704790F856300B7044
:105220001046EBE780292DE9F843144644D00AD90B
:10523000822932D025D3832935D11A462146BDE8AB
:10524000F843FFF7C5BF7E2930D020D859BB1D4D8C
:10525000DFF874900646174605F11208144601233C
:105260007E2103E02B79697919F803302246304614
:10527000FFF7D8FF033545450444F3D1E01BBDE8F3
:10528000F883B0F8602022801846BDE8F88390F8D3
:105290005E2022701846BDE8F88390F862202270E4
:1052A0001846BDE8F8830020BDE8F88390F8542044
:1052B00022701846BDE8F88390F85F2022701846E7
:1052C000BDE8F88334DF0100ECDA010010B584B0EA
:1052D0000C466A4610230021FFF7A4FF2146024630
:1052E00068460FF073FC082004B010BDF0B583B021
:1052F00002AE90F87C3106F8013D04460F46304678
:1053000001220FF063FC94F880318DF807303046AD
:10531000791C01220FF05AFC94F882318DF8073085
:105320003046B91C01220FF051FC3D1D94F8833129
:105330008DF8073001223046F91C0FF047FC294652
:1053400004F1FC00FFF7C2FF05442946201DFFF7CA
:105350006BFE0544294604F18000FFF765FE2378C3
:10536000082B06BF2D18E81B322003B0F0BD00BF8C
:1053700070B5FA2982B00C4605463BD3FB2924D9E7
:10538000FC2937D1002380F82030142220492148FD
:10539000214E14F063FC214B1B68019341F26C72A7
:1053A00041F268730199B15042F21072F25020023A
:1053B00040F00F0010F01AFEAB6A5B6D18680368CE
:1053C00021461B68984702B070BD012380F8203049
:1053D000142213490F48104E14F040FC0F4B1B6869
:1053E000009341F26C7241F268730099B15042F23D
:1053F0001072F25004F10803DBB2072BE3D801224C
:1054000002FA03F313F0DD0FD1D102B070BD00BF7B
:1054100014E4010030C3FF1FC8ACFF1F34E4FF1FBA
:1054200008E4010038B504460FF0FAFD636B626AC8
:10543000C31A9A42054616D3A36A226B03EB4303B1
:10544000AD1AAB420ED20C4D0C480D490D4A00234B
:105450002B60636223636363A36284F83830036064
:105460000B60136038BDF8210748FFF781FF626BBE
:10547000636A13446363DFE700E3FF1FB0ACFF1F01
:1054800008C9FF1F6CC9FF1F58C4FF1F70B50379FF
:10549000002B41D090F862300D2B04463CD0042BF9
:1054A0000D4652D0E36C002B39D120790FF0A4FDCA
:1054B00094F840300546002B51D094F841309D427D
:1054C00002D00FF0ADFD60640FF0AAFD636CA26C1A
:1054D000C01A2B1C18BF012384F8413090428CBFA6
:1054E00028460220022817D0238B984214D020830C
:1054F000002840D194F8623003F0FD03012B42D024
:105500000126B4F860500FF08BFD4FF47A7303FB63
:10551000050084F85060E0640025284670BD0FF057
:105520007FFDE36C9842C0D9002394F85010E364E7
:10553000A177296094F864000FF058FD94F8623068
:10554000042B0ED00125284670BD436A002BA9D03C
:1055500090F83830002BA5D0FFF764FFA2E728466B
:10556000C0E7A57F002DEDD094F95C20A16D204609
:10557000FFF734FAD1E794F8623003F0FD03012B12
:10558000CAD00026BDE7A67F86F00106B9E700BFB6
:10559000F0B52F4E7378022B89B035D0032B2CD069
:1055A000012B02D00023DB7BFFDE33784FF4D47273
:1055B00002FB036303F5AA73DB7B26492648244DCF
:1055C00008AAC3F3830301332D2742F8043D0024C6
:1055D0000123039708270193049402940097FDF791
:1055E000DFFE7378022B2CD0032B23D0012B12D09B
:1055F000E37B64F38503E373FFDE33784FF4D47207
:1056000002FB0363D833D7E733784FF4D47202FB3D
:1056100003635C33D0E72B784FF4D47202FB03535F
:1056200003F5AA73079AD97B013A62F38501D9730E
:1056300009B0F0BD2A784FF4D47303FB0253D8337A
:10564000F0E72A784FF4D47303FB02535C33E9E7A5
:10565000C8ACFF1F94E10100F0C1FF1F2DE9F84F16
:105660008A46002961D0404BDFF820813F4AC8F8C4
:10567000102093E8030000230A0CC8F80000A8F8E3
:10568000041088F8062088F814300127384DC82403
:1056900005F1690B07E0BAF1000F36D10735013487
:1056A000AB45E4B220D02B78002BF4D07E0006EB83
:1056B000070908EBC90948460622294614F0CEFA24
:1056C000BAF1000F2BD12B4BC9F810303E4408EB38
:1056D000C6060735002301373475AB4504F10104D4
:1056E000FFB2B371E4B2DED1234B244C93E8070040
:1056F00007EB470308EBC308A8E803000023A8F85A
:10570000002063713846BDE8F88F1D4A7E0092E89C
:105710000300F31908EBC30248F833009180F31932
:1057200008EBC303174A1A61D0E7DFF860800E4A1E
:1057300088F8141092E80300134BC8F800000E0C10
:10574000A8F8041093E8070008F1180303C3094DF3
:10575000064CC8F8285088F8066088F82CA0C8F8CD
:1057600010401A80022791E730E40100015B00003D
:1057700085C1FF1F0D5C000024E401005CDBFF1FFE
:105780001CE40100515B000038E40100F8D1FF1F68
:105790002DE9F84F0021FFF761FFDFF870B0DFF867
:1057A0006090DFF86C80824605460126002705EBF5
:1057B000450409EBC404204626755946C4F81080F8
:1057C0000622013614F04AFA0135302EA771EDB2E7
:1057D0000BF1070B0A4B4FF00004E8D1094A0A4DC0
:1057E00007CA0AF12F0A5FFA8AFA0AEB4A0603EBA4
:1057F000C60303C31A806C715046BDE8F88F00BF22
:10580000F8D1FF1F44E401005CDBFF1F53DF010000
:105810000D5C0000324B2DE9F04799424FF0000437
:10582000824644614DD02F4B99420E4650D0A0463F
:10583000DFF8B89000E0013430460BF039FA8442CA
:105840002146304618DA0BF01BFA037D002BF2D00C
:10585000214630460BF014FA07460FCF08EB4805F7
:1058600009EBC5050FC597E8030008F1010885E8B5
:1058700003005FFA88F8DEE730460BF019FA0146BC
:1058800030460BF0FDF905460FCD08EB480409EB57
:10589000C4040FC495E8030084E80300124B727936
:1058A0005A71FF2201218AF8632283F804808AF862
:1058B00062125046C3F800900B49BDE8F0470BF068
:1058C000B3BAFFF765FFDFF82490074B8046E8E79F
:1058D0000121FFF7C3FEDFF81490034B8046E0E799
:1058E000A8E0FF1FA8CFFF1F5CDBFF1FF8D1FF1F41
:1058F00070B54F4C2378082B82B069D002226270B9
:105900004FF4D47202FB034393F86A3003F03F0371
:10591000182B51D9042147480BF06AFA0621454853
:10592000434E0BF065FA072142480BF061FA08215B
:1059300040480BF05DFA09213E480BF059FA0A2164
:105940003C480BF055FA0B213A480BF051FA0C2168
:1059500038480BF04DFA23784FF4D47505FB034318
:1059600093F86A1001F03F01082935D001F13203A4
:1059700003F03F03012B3FD9012954D041F2445297
:1059800041F2D873A258E0582B4D04682968C2F13F
:1059900040031BB200268DE84800C1F1800312B21B
:1059A00009B2246C1BB2A047A5F118002149FFF7EA
:1059B00031FF012002B070BD0121204A99400A4008
:1059C0000AB9002BA6D104211A480BF0F5F9A5E776
:1059D0006278012A94D8ECE716480BF0EDF9337899
:1059E00005FB036595F86A1001F03F0101F13203F0
:1059F00003F03F03012BBFD80C210E480BF0DCF95C
:105A00000A210C480BF0D8F909210A480BF0D4F907
:105A100023784FF4D47202FB034393F86A1001F029
:105A20003F010129AAD10B2102480BF0C5F9A5E7D6
:105A3000C8ACFF1FCCE1FF1F08C2FF1F001FFE0103
:105A4000024B02225A70FFF753BF00BFC8ACFF1FC2
:105A5000024B03225A70FFF74BBF00BFC8ACFF1FB9
:105A600070B541F24452104C41F2D873A258E0583C
:105A700004F5AA51C2F1400382B01BB200260968A6
:105A800005688DE84800C1F1800312B21BB22D6C8D
:105A900009B2A84704F5A95008300449FFF7BAFE37
:105AA000012002B070BD00BFC8ACFF1FDCCFFF1FDC
:105AB00070B541F24452104C41F2D873A258E058EC
:105AC00004F5AA51C2F1400382B01BB20026096856
:105AD00005688DE84800C1F1800312B21BB22D6C3D
