:1000000000800020BD010000614101001941010094
:100010001941010019410100194101001941010074
:10002000194101001941010019410100614101001C
:100030006141010019410100955C0100995C0100DA
:100040006141010061410100614101006141010024
:100050006141010061410100614101006141010014
:100060006141010061410100614101006141010004
:1000700061410100614101006141010061410100F4
:1000800061410100614101006141010061410100E4
:1000900061410100614101006141010061410100D4
:1000A000F12B0100FD2B01006141010061410100C4
:1000B00061410100614101006141010061410100B4
:1000C00061410100614101006141010061410100A4
:1000D0006141010061410100614101006141010094
:1000E0006141010061410100614101006141010084
:1000F0006141010065690100614101006141010048
:100100006141010061410100614101006141010063
:100110006141010061410100614101006141010053
:100120006141010061410100614101006141010043
:100130006141010061410100614101006141010033
:100140006141010061410100614101006141010023
:10015000855E0100995E0100AD5E0100C15E010097
:10016000614101001148010061410100614101004C
:1001700061410100614101006141010061410100F3
:1001800061410100614101006141010061410100E3
:1001900061410100614101006141010061410100D3
:1001A00061410100614101006141010061410100C3
:1001B000614101006141010061410100524B4CF27B
:1001C000205210B51A804DF628121A8000BF00BFC9
:1001D00013F0CAFF4D4B4FF010621A604C4A9A6000
:1001E0004C4ADA6003F5533303F2D2331A7811071D
:1001F00003D51A7842F008021A70474B47492A2261
:100200001A70474A474B8B4204D252F8040F43F806
:10021000040BF8E7444B454900228B4202D243F8D5
:10022000042BFAE74249434A002352F8230041F8DD
:10023000230001336F2BF8D13F4B404A802103F854
:10024000011B9342FBD13E4B394A1A603D4B8A2237
:100250001A70A3F5805324225A70A0221A709A793A
:100260009207FCD59A79D406FCD4374A937903F0E7
:100270000C03082B344BF9D103221A7140225A7116
:100280009A799006FCD5304A91792F4B4906FBD5D7
:100290002E4A2F4911600221516020221A709A794A
:1002A00002F00C020C2AFAD12A4B2B4A1A602B4B73
:1002B0002B4A1A6000225A60072243F8042C294A6C
:1002C000C3F80C2D62B614F049F9274B1B68DA0706
:1002D00005D5264814F0A6F8254B264A1A60264B69
:1002E0001B785B0609D5224C224B22689A4204D126
:1002F0001E4814F097F80023236017F01BFC13F03E
:1003000039FF15F045FFFEE70E2005403080044020
:10031000823F04000100002B00E0074018AFFF1FE0
:100320003CEE0100308CFF1F18AFFF1F58E4FF1F89
:100330000082FF1F0000000000E400E05FE400E036
:1003400008ED00E0005006400040064044800440B4
:100350000000030104800440C010050014E000E028
:10036000FF7601000000202014D00340527C196069
:100370001CE00340A5C3945A00F00740FFFFFFFFB5
:10038000FFFFFFFFFFFFFFFFFFFFFFFFFFFFFFFF7D
:10039000FFFFFFFFFFFFFFFFFFFFFFFFFFFFFFFF6D
:1003A000FFFFFFFFFFFFFFFFFFFFFFFFFFFFFFFF5D
:1003B000FFFFFFFFFFFFFFFFFFFFFFFFFFFFFFFF4D
:1003C000FFFFFFFFFFFFFFFFFFFFFFFFFFFFFFFF3D
:1003D000FFFFFFFFFFFFFFFFFFFFFFFFFFFFFFFF2D
:1003E000FFFFFFFFFFFFFFFFFFFFFFFFFFFFFFFF1D
:1003F000FFFFFFFFFFFFFFFFFFFFFFFFFFFFFFFF0D
:10040000FFFFFFFFFFFFFFFFFFFFFFFFDEF9FFFF23
:1004100010B5054C237833B9044B13B10448AFF33E
:1004200000800123237010BD18AFFF1F00000000E3
:1004300038EE0100084B10B51BB108490848AFF36E
:1004400000800848036803B910BD074B002BFBD0A0
:10045000BDE81040184700BF000000001CAFFF1FA0
:1004600038EE010018AFFF1F00000000704700BF0A
:10047000074A10B51378074C41F2F40083F00103EA
:1004800020581370194611F04FFF012010BD00BF16
:10049000A0B7FF1F50C8FF1F70B541F2F003284CF2
:1004A0000546E05812F00CFDB4F8863DB4F8842DF2
:1004B000181A83B29342A4F8863D2CD014D86A69E6
:1004C000002AC4BF02F1FF326A61AA685279022A87
:1004D00027D04FF0FF30FF22A4F8843D012185F89A
:1004E000632285F8621270BDA8686E6910F070F81A
:1004F0002B69C01A864202DA6B6901336B61AB6803
:100500005B79022B09D123780D4A072B12D9B2F857
:10051000863DA4F8843D002070BDB4F8863D0120DE
:10052000D9E722780649002AF3D0013A0A704FF041
:10053000FF30D0E7013313700120B2F8863DCAE7DF
:1005400050C8FF1F024A41F2F003D05812F0FCBC21
:1005500050C8FF1F10B5044600F58750083015F04D
:100560006FFC04F5875015F06BFC204610BD00BFF2
:10057000234B1B6803F16402904270B504DA643BBC
:10058000984201DD022070BD1E4B1B6803F164021E
:10059000904204DA643B984201DD032070BD1A4B9F
:1005A0001D680446B5F95800C0F13C0017F026F864
:1005B0000646B5F95A0017F021F80146304617F003
:1005C00025F90646286E17F019F80146304617F04F
:1005D00069F80646E86D17F011F80146304616F046
:1005E00059FF17F025FA00F164039C4205DA6438DC
:1005F0008442D4BF0020012070BD002070BD00BF28
:10060000D0AFFF1FD4AFFF1F20C3FF1FF8B5427A42
:1006100005460E4602B301230A701C46A97A89B129
:10062000C7291CD93831C9B2164FC1EBC1010F44DB
:10063000F018394618F05EF8384618F0C1F8204432
:10064000C4B22346EA7A1AB10134E4B2F254234622
:100650000022F2542046F8BD13461446DEE70A4F46
:10066000C1EBC101F0183944062218F017F9A87A35
:10067000C0EBC000384418F0A3F82044C4B22346AD
:10068000E0E700BF29D6FF1F68C2010070B5174C14
:100690000546206812F0B2FB08B3AB685B79022B09
:1006A0000FD02068114E12F0ADFB044608B9204669
:1006B00070BD306812F04EFB0023C5F8543220465E
:1006C00070BDD5F85432B3F57A7FEAD9084A0124CF
:1006D000002382F8824F2046C5F8543270BD20684E
:1006E00012F080FBC5F85402D7E700BF70DDFF1F92
:1006F00050C8FF1F01207047012070472DE9F04FBF
:100700002F4EDFF8C89041F2F40585B0735903907D
:100710001A6800274FF01A080197CDF80080146C72
:1007200018462D227B233946A0477059012110F02D
:1007300089FE745923492368A7822A224FF0010AAF
:100740004FF0040B5B682282A4F812A00822A4F8E0
:100750000EB020469847204615F0D2FB039A1A4B5C
:10076000745953F82210A4F80EB03223238208469D
:10077000039118F025F8236803995B680246204628
:100780009847204615F0BCFB705903688DE80005BA
:1007900025223946DC6C7B23A04713F06FFED9F885
:1007A000003047F22F52C01A904206D9705911F00A
:1007B000B5FC13F063FEC9F8000005B0BDE8F08F8A
:1007C00050C8FF1F48C60100548DFF1F4CC8FF1FB3
:1007D0002DE9F04390F96332664E013387B0044649
:1007E00061D041F2F4030121F05810F02BFE25698D
:1007F0006369A0681D440FF0EBFE854280F2A8807B
:100800006369276994F963821F44E368984541F25C
:10081000F40300F0A980F3580121002259829A8242
:1008200002AD2946424620460FF036FF284617F013
:10083000C7FF0D2807DC28440DF11602202300F81D
:10084000013B9042FBD16269E369A16941F2F40086
:10085000C2EB08083658093303EBC8034FF0000910
:100860008DF8169028463382F18117F0A9FF33687E
:1008700002465B68294630469847304615F040FBF3
:1008800094F8633201335BB2BB4284F8633202D026
:1008900007B0BDE8F083FF2384F8629284F86332E6
:1008A00007B0BDE8F08341F2F4050121705910F062
:1008B000C9FDA36872591F680021012050829182EE
:1008C00018460FF085FE00B200EB400102AD07EBC9
:1008D000C1010E22284617F0E1FF284617F070FFED
:1008E0000D2807DC28440DF11602202300F8013BF7
:1008F0009042FBD141F2F408B4F91C3056F808706C
:10090000A26900218DF816102846FA813B8217F063
:1009100057FF3B68024629465B6838469847384689
:1009200015F0EEFAE26956F80800A1690568083288
:1009300012B201238DE80C0001F15403AD6C1BB21F
:1009400009B2A847636984F8633207B0BDE8F08351
:10095000A0680FF03DFEE36894F96382984507466E
:1009600041F2F4037FF457AFF3580021012259827A
:100970009A8255E750C8FF1F70B5044608460D46D9
:1009800017F01EFF23680246294620465B68BDE833
:10099000704018472DE9F04F002387B001224370C3
:1009A00000F684534FF00009027000F1040B049329
:1009B00005904FF07E53CBF80C304FF000038BF8CE
:1009C0001E304FF02803002701244FF03C088BF81D
:1009D0000B304FF61943ABF81C308BF810708BF8C6
:1009E00011708BF812708BF81370CBF82070CBF865
:1009F0002470CBF82870CBF82C70CBF83070CBF883
:100A000034708BF838708BF80470ABF81870ABF852
:100A10001A708BF808408BF80940ABF814408BF83B
:100A20000A80382015F0BCFB4FF0010606754FF028
:100A3000814606614FF48066394646603A46ED4B82
:100A4000C0F81890C0F8209080F82470054612F085
:100A5000DDFE9BF85A30CBF83C5003F0E00367F31F
:100A600046138BF85A30E44BCBF8443040F6FF7312
:100A7000CBF86030E14BCBF864304FF07F038BF85C
:100A80006C308BF86D304FF47A73ABF86E304FF0FA
:100A9000FF338BF874304FF028024FF6FF734FF09E
:100AA000780A8BF84F206B604FF07E52D44BCBF816
:100AB00050202B618BF841708BF840408BF84870C8
:100AC0008BF84C408BF84D408BF84E808BF854706F
:100AD0008BF855708BF856708BF85770ABF8584000
:100AE0008BF85B70ABF85C70ABF86870ABF85EA02D
:100AF000ABF86AA0382015F053FB46604FF08146F2
:100B0000224639460661BF4B0475C0F81890C0F8FC
:100B1000209080F82470054612F078FE4FF02803EC
:100B20008BF87F304FF61943ABF890304FF07E537F
:100B3000CBF8803040F6FF736B604FF08043CBF80A
:100B400070508BF884708BF885708BF886708BF8FA
:100B50008770ABF88840CBF89470CBF89870CBF8DE
:100B60009C70CBF8A070CBF8A470CBF8A8708BF871
:100B7000AC70ABF88C70ABF88E708BF892702B6108
:100B8000ABF81A708BF875708BF87C408BF87D4051
:100B90008BF87E808BF87870382015F001FB4FF4CD
:100BA000806646604FF08146394606613A46914B71
:100BB0000475C0F81890C0F8209080F8247005469D
:100BC00012F024FE8C4ACBF8B8204FF028029BF894
:100BD000CE308BF8C32040F6FF72CBF8D420874A82
:100BE000CBF8D82003F0E0034FF07F028BF8E02031
:100BF0008BF8E12067F346134FF47A72ABF8E220EA
:100C00008BF8CE304FF0FF324FF6FF738BF8E820B1
:100C10006B604FF07E527A4BCBF8B050CBF8C420CB
:100C20008BF8B5708BF8B4408BF8BC708BF8C04073
:100C30008BF8C1408BF8C2808BF8C8708BF8C970F4
:100C40008BF8CA708BF8CB70ABF8CC408BF8CF70B8
:100C5000ABF8D070ABF8D2A0ABF8DC70ABF8DEA08C
:100C60002B61382015F09CFA4FF4806646604FF0F7
:100C70008146224639460661624B0475C0F81890D9
:100C8000C0F8209080F82470054612F0BFFD4FF6A2
:100C90001943ABF804314FF028038BF8F3304FF0D1
:100CA0007E53CBF8F43040F6FF736B604FF0804317
:100CB000CBF8E450ABF88E708BF8E9708BF8F0400D
:100CC0008BF8F1408BF8F2808BF8F8708BF8F970A4
:100CD0008BF8FA708BF8FB70ABF8FC40CBF808711E
:100CE000CBF80C71CBF81071CBF81471CBF81871EC
:100CF000CBF81C718BF820718BF8EC70ABF800719D
:100D0000ABF802718BF806712B61382015F048FAA8
:100D10004FF4806646604FF081463A46354B066197
:100D20003946C0F81890C0F82090047580F82470F7
:100D3000054612F06BFD304ACBF82C214FF028020B
:100D40008BF833214FF0FF328BF840214FF07E5269
:100D5000CBF834214FF6FF726A604FF0FF33284A18
:100D6000CBF824518BF832818BF865818BF829718F
:100D70008BF828418BF830418BF831418BF8387172
:100D80008BF839718BF83A718BF83B71ABF83C41B9
:100D90008BF83E718BF84471CBF84871CBF85471E5
:100DA0008BF858718BF85C718BF860718BF86171FE
:100DB0008BF862718BF864718BF86641CBF86771C0
:100DC000CBF86B718BF86F712A618BF870718BF8AF
:100DD0000030049BCBF87471CBF878718BF87E717E
:100DE0008BF87D718BF87C710BF5C07B9B457FF494
:100DF000E0AD09E017B7D1389F86010001F0FFFF91
:100E0000000060420AD7233CDDF814A0BB489AF8E2
:100E1000D13DCAF8CC0D4FF0FF32AAF8842D47F22D
:100E20003052AAF8862D4FF000028AF8972D8AF8E2
:100E3000982D8AF8A42D40F6FF72CAF8A82DB04A62
:100E4000CAF8AC2D40F6FF724FF000012343CAF8F8
:100E5000B42DCAF8B82DA4F58054A94A8AF8881D83
:100E60008AF8891D8AF88A1D8AF88C1DCAF8BC2D5B
:100E70004FF0010140F6FF72CAF8C44D4FF47A7486
:100E80008AF88E1DCAF8C02D9E49AAF8C84D1122B5
:100E90004FF000048AF8D13D8AF8D04DCAF8D41D2D
:100EA0008AF8D82D394669228AF88D8DCAF88F7D47
:100EB000CAF8937DCAF89C7DCAF8A07DCAF8B07DB7
:100EC0000AF6D95017F09CF90AF644600FF082FB3D
:100ED0008D4B8AF8644E8AF8724FCAF8443EFB2262
:100EE0003946CAF8687FAAF8707FCAF8847F0AF684
:100EF000887017F085F941F2840641F2880241F2C8
:100F00008C054AF8067041F290034AF8027041F2EB
:100F100094004AF8057041F2980641F29C0241F2B1
:100F20009D050AF585544FF0000E4AF803704AF803
:100F300000704AF8067041F2A4000AF802E00AF8CC
:100F400005E04FF0010E276041F2A5068AF881EF17
:100F50004FF0000E8AF882EF8AF883EFCAF8587EC5
:100F6000CAF8607E41F2A6020AF800E04FF0FF3EA8
:100F70000AF806E041F2A70541F2A8034FF0000E7F
:100F80000AF802E007264FF0FF3E0AF805E0362295
:100F90004AF803702046CAF8546E4FF00106CAF8AA
:100FA0005C2E1B30594D84F82C6023464FF0000610
:100FB0007F210246276384F8386065630B3303F8AA
:100FC000011F834202F8011FF9D10AF5875241F24D
:100FD000E80600201446802141F2F80711711060E4
:100FE00041F2FC054AF806001173962284F8380095
:100FF000C4F8FC0384F80004C4F80404C4F808042A
:1010000084F83E040AF588534AF807204FF4157215
:101010004AF8052041F2041140F212421A6041F2EE
:1010200008164FF4BA634AF8013041F20C1541F248
:10103000101240F28E734AF8063041F2141140F655
:101040004C1340F60A364AF805304AF8026040F67A
:10105000C8450AF5A7530AF5A8524AF801500B33C0
:10106000014684F83F041D3203F8011F93424FF0FC
:101070000004F9D1942015F093F8054612F016F803
:1010800041F2DC0324204AF8035015F089F80423C8
:10109000072206218DE818004FF0FF33054611F0B6
:1010A000BBFE41F2F00310204AF8035015F078F827
:1010B000044611F01DFE0AF5A95315481C6011F0F5
:1010C0005BFA0E21124811F0BFFA642015F068F89F
:1010D000104B0393092108220A238DE80E000C4BC4
:1010E00040228021044610F0A9FB41F2F40350464F
:1010F0004AF8034007B0BDE8F08F00BF9A99993FC6
:1011000001F0FFFF52491D3AD0D80100A8DDFF1FB2
:101110006CA2FF1F00127A0030B583B00546069C12
:10112000002CCABFE0B2007D28752B614BB942B2DA
:10113000002A02DD194613F087F900232B7003B053
:1011400030BD084BA9601B68019343B2019CEA6063
:101150000121002B6C602970F1DD13F075F903B0EB
:1011600030BD00BFACE0FF1F0369F3B110B51649F5
:101170000278096882B0012A0191019916D0446869
:10118000C26822448A420ED2002B416002DD013B3C
:10119000036143B1037D5AB20121002A017002DDCF
:1011A000184613F051F902B010BD704742688368C9
:1011B00013448B42F7D2037D41605AB200218A4228
:1011C0000170EDDCEFE700BFACE0FF1F38B5054D67
:1011D000286811F017FE044610B1286811F0BAFD16
:1011E000204638BD70DDFF1F38B5144C41F2F003C6
:1011F0000546E05811F064FEB4F8863DB4F8842D3D
:10120000181A83B29342A4F8863D15D00C4A11688F
:101210000AD80029CCBF01F1FF31002111604FF045
:10122000FF30A4F8843D38BDA942B8BF0131116038
:101230000120A4F8843D38BD002038BD50C8FF1FF0
:1012400084AFFF1F2DE9F04F914BDFF8789241F208
:10125000F4048FB018590025402203688DE824005B
:1012600029461E6C2A468023B047894B0121185914
:1012700010F0E8F8864B87491859036885820126E3
:101280005B68C5810822058246829847804B1978A1
:101290001859314414F09AFE7D4B7F491859036860
:1012A00007225B689847D9F80000002800F0D98031
:1012B00016F0A4F94FF07C5116F0F4F915F0C0FDCA
:1012C000734B1D59009602460B46284614F088FEC3
:1012D0006F4B72491C59236832465B682046984719
:1012E000204614F00DFE002306936D4B0793DFF8A4
:1012F000D8810E230593059B079E043B1BB20493E4
:10130000069B1D4603EB4303039300240127039B25
:10131000D9F80020D8F800A0EB189A4200F09A8083
:101320004FF00003AAF81270AAF814300FFA84FBE9
:10133000BDF81030AAF8103009A8AAF80EB0002D98
:1013400000F09B8017F03CFADAF8003002465B6848
:1013500009A950469847504614F0D2FD3378002B27
:101360006CD11E34A4B2782C06F1010605F10105FA
:10137000CDD1059B069A09339BB20593079B013299
:101380000433052A06920793B5D141F2F404404A8A
:101390004449105937230268038201250023566807
:1013A00045828382C3810422B0473F4B384A196883
:1013B00010593E4E14F00AFE354B3D49185903684A
:1013C0002A465B689847324B3168185914F0FEFD85
:1013D0002F4B3749185903682A465B689847354BA5
:1013E00030681E687368C01A16F008F90746B068BE
:1013F00016F004F90146384616F008FA2E4916F0A0
:1014000051F915F01DFD224B1E59022702460B46CD
:101410000097304614F0E4FD1D4B20491E593368F7
:101420002A465B6830469847304614F069FD184BF1
:10143000185910F073FE0FB0BDE8F08FD8F8000017
:10144000BDF9142003680097D3F83CA0594618232F
:10145000D04786E74FF00003AAF81230AAF81470BC
:1014600064E70B4B15491C59236820465B6803222F
:101470009847204614F044FD35E7DAF8003010496B
:101480005B68042250469847504614F039FD68E7DF
:1014900050C8FF1F54C6010060C6010068C60100A5
:1014A000F4B1FF1F78C60100C492FF1F6C98FF1FA4
:1014B00080C60100FCAFFF1F000020416CC6010088
:1014C00070C6010084AFFF1F44D9FF1F2DE9F04F04
:1014D0009F4BA04AA04C1B681268596892F856604E
:1014E0009B6841F2F40785B0E05902930025402241
:1014F000036803918DE8240029462A46D3F84080EA
:101500008023C047E05901210FF09CFFE059934927
:101510000368858201224282C58105825B680322BD
:10152000984721780729C6F3411640F2DE80637898
:10153000E059022B03680CBF89498A495B68052280
:101540009847894F3B68002B40F0C78041F2F40177
:101550000122605843828282036884495B680822C2
:1015600098473B68012B00F0D58041F2F40301223B
:10157000E55800236A82AB822B687D495B68DFF8FF
:10158000D8B10322284641F2F40A9847284614F0BD
:10159000B7FC54F80A5077492B684FF000084FF019
:1015A000010911225B682A82A5F812901022A5F881
:1015B0001480A5F80E8028469847284614F0A0FC11
:1015C0003B685BF80A00022B4FF01B0303820368A1
:1015D00007BFA0F81280A0F81490A0F81290A0F80D
:1015E00014800022022EC2810CBF634963495B68EC
:1015F000102298473B68032B41F2F40300F08480EB
:10160000E05801220023428283822523038203685B
:10161000022E4FF0000241F2F4050CBF584959491F
:10162000C2815B68102298476059574902680123BC
:10163000438237270023078257688382C3810422AD
:10164000B847524B444A1B68002B0DDD504F55598B
:1016500003EB83031F44384617F0B2F82B680246A9
:1016600039465B682846984741F2F40503226059E1
:1016700048490368384F5B689847474B1868039B95
:10168000022EA0EB03004CD015F0B8FF06460298DE
:1016900015F0B4FF0146304616F0B8F83F4916F091
:1016A00001F815F0CDFB7D59022602460B46009647
:1016B000284614F095FC41F2F4060122A559384958
:1016C0002B6828465B689847284614F019FCA059F7
:1016D00005B0BDE8F04F10F021BD41F2F403012246
:1016E000E05800234282838236E70131E05914F04A
:1016F0006DFC6378E059022B03680CBF29492A4925
:101700005B68052298471CE7E058002201234282CB
:1017100083827AE741F2F40100226558AB826A8243
:101720002AE715F06BFF8046029815F067FF014627
:10173000404616F06BF81D4915F0B4FF15F080FB1C
:101740007D59009602460B46284614F049FCB2E744
:10175000FCAFFF1F20C3FF1F50C8FF1F84C601003E
:1017600088C6010090C6010084AFFF1FA8C6010013
:101770006CC60100B4C60100C8C60100DCC6010089
:10178000F0C6010004C7010078C60100C492FF1F23
:10179000B8C3010018C701006C98FF1F000020416A
:1017A00068C6010098C60100A0C601000000A04064
:1017B0002DE9F04F884B894E41F2F4050024585929
:1017C0008BB0402203688DE8140021461F6C22462E
:1017D0008023B847804B012158590FF033FE7E4BD0
:1017E0007F4958590368C48101275B680482848259
:1017F00047820A2298473368002B40F0E080764AFF
:10180000505943828782036876495B68082298476B
:101810003368012B00F0D88041F2F4036E49CC58B4
:10182000012200236282A38223686F495B68DFF88C
:10183000D091032220469847204614F061FB41F2E4
:10184000F405654B69495C5923684FF000080A228A
:1018500001265B682282A4F80E801422A4F812806C
:10186000A68220469847204614F04AFB5A4B60490E
:101870005C592368A4F80E8025225B6822822046EA
:1018800014229847204614F03BFB534B53F805A015
:10189000584B594D0393AAF81260AAF814804FEAE6
:1018A000A80606EB460659F804BF06EBC60608F084
:1018B00003074FF0000CB6B2C7EB071706F113038E
:1018C0007F00E345AAF81030AAF80E708DF818C012
:1018D00064DB05AB06AC9C44A64601209BFBF0F301
:1018E00085FB0321DA17C2EBA10202EB8202A3EB14
:1018F000420330330EF8013D00EB8000E6454FEA2D
:101900004000EBD105A816F05BFFDAF80030024684
:101910005B68504605A99847384BD3F800A0039B55
:1019200053F8041F039306F11C030026B142AAF8E2
:101930000E70AAF810308DF8186029DB05AB1E4434
:10194000012091FBF0F385FB0327DA17C2EBA70216
:1019500002EB8202A3EB4203303304F8013D00EBBB
:101960008000A6424FEA4000EBD105A816F028FF00
:10197000DAF80030024608F101085B68504605A914
:101980009847B8F1080F11D01C4BD3F800A086E798
:101990002D2349428DF814300126CFE72D23CBF1BA
:1019A000000B8DF814304FF0010C92E741F2F40374
:1019B000094AD05810F0B2FB0BB0BDE8F08F064BCF
:1019C0005859478284821EE741F2F4010248445884
:1019D0000022A382628227E750C8FF1F84AFFF1F47
:1019E0001CC7010028C701006CC6010034C70100F4
:1019F0004CC701007CB7FF1F6766666644D9FF1FAE
:101A0000D4AFFF1F7C4B1A68F0B40346D46DB2F913
:101A1000580007290CD8DFE801F0042D32517292EA
:101A2000B20D764A106891889279186099809A71FF
:101A3000F0BC7047126E0026A4185E7100F1BD80E4
:101A40006F4F1E440120053394FBF0F287FB021513
:101A5000D117C1EBA50101EB8101A2EB41023032AC
:101A600003F8012D00EB8000B3424FEA4000EBD1B8
:101A7000F0BC7047634A10681860F0BC70470026DD
:101A8000041E5E71C0F2B2805D4F1E44012005331A
:101A900094FBF0F287FB0215D117C1EBA50101EB16
:101AA0008101A2EB4102303203F8012D00EB8000EE
:101AB0009E424FEA4000EBD1F0BC7047B2F95A6049
:101AC000002536185D7100F18C804D4F1D440120BA
:101AD000053396FBF0F287FB0214D117C1EBA4018A
:101AE00001EB8101A2EB4102303203F8012D00EB42
:101AF0008000AB424FEA4000EBD1F0BC7047B2F936
:101B000064600025AE425D7166DB3D4F1D440120DF
:101B1000053396FBF0F287FB0214D117C1EBA40149
:101B200001EB8101A2EB4102303203F8012D00EB01
:101B30008000AB424FEA4000EBD1F0BC7047B2F9F5
:101B400066600025AE425D7141DB2D4F1D440120D2
:101B5000053396FBF0F287FB0214D117C1EBA40109
:101B600001EB8101A2EB4102303203F8012D00EBC1
:101B70008000AB424FEA4000EBD1F0BC704700263A
:101B8000B4425E711EDB1E4F1E440120053394FBE0
:101B9000F0F287FB0215D117C1EBA50101EB810122
:101BA000A2EB4102303203F8012D00EB8000B3427A
:101BB0004FEA4000EBD1F0BC70472D2264421A700E
:101BC00001263DE72D2264421A700126DBE72D2213
:101BD00076421A700125B8E72D2276421A70012547
:101BE00093E72D2276421A7001256EE72D2264427A
:101BF0001A70012648E700BF20C3FF1F64C7010019
:101C0000676666666CC601002DE9F04F684CDFF828
:101C1000C8A141F2F4068BB0A05900254022036808
:101C20008DE8240029462A461F6C8023B847A05916
:101C300001210FF007FCA0595E490368858201224B
:101C40005B684282C5810322058298472178A059AA
:101C5000013114F0BBF96378A059022B036808BF67
:101C600055495B6818BF554905229847DAF8003096
:101C7000002B40F0838041F2F4010122605843823E
:101C8000828203684E495B6808229847DAF8003080
:101C9000012B7BD041F2F4030122E55800236A8234
:101CA000AB822B6847495B68DFF820910322284606
:101CB0009847284614F024F941F2F4030122E4582D
:101CC000414923686282002610225B682282A68234
:101CD000E68120469847204614F012F91C234FF065
:101CE000020B02934FEA4608BDF90830039308F14E
:101CF000020818250024D9F8003001210022598259
:101D00009A82002E49D0DAF8002008EB04019142B3
:101D10004FF001002ED0002258829A82BDF80C208C
:101D2000DA811D820BEB040105A8FFF76BFED9F8E1
:101D3000007005A816F044FD3B6802465B6805A9E3
:101D4000384698470134384614F0DAF80A35022C40
:101D5000ADB2D0D1029B01362A339BB2022E029340
:101D60000BF1020BBED1194B186810F0D7F90BB06C
:101D7000BDE8F08F002159829882CFE741F2F40349
:101D80000122E0580023428283827AE741F2F40183
:101D900000226558AB826A8283E718460C4924B159
:101DA000FEF7EAFD094B1B68ADE718460949F7E75E
:101DB00050C8FF1F84C6010098C60100A0C60100DC
:101DC000A8C601006CC601006CC7010044D9FF1F02
:101DD00080C7010088C7010084AFFF1F30B40D4BDE
:101DE0005B78012B0C4B0AD91C68E56C056094F9F3
:101DF000500008701B681B6A136030BC70471B687A
:101E00009C6C046093F94C0008701B6A136030BC32
:101E1000704700BF50C8FF1F20C3FF1F2DE9F04FC0
:101E200091B008AA0DF1130107A8FFF7D7FF089892
:101E3000AC4C15F0DFFBAC4915F0E8FC0146AB48B3
:101E400015F0E4FCAA4915F0E1FC41F2F40607465E
:101E5000A05900250368019540220092D3F84080E4
:101E60002A4680232946C047A05901210FF0EAFAEB
:101E7000A059A0490368858201225B684282C5811E
:101E80000322058298472178A059013114F09EF869
:101E90006378022B00F07981032B00F06F81012B16
:101EA00000F0B580944E3368002B40F0A88041F2DA
:101EB000F401012260584382828203688F495B6883
:101EC000062298473368012B00F0518141F2F40358
:101ED0000122E55800236A82AB822B6888495B683F
:101EE000DFF800A20422284641F2F4099847284668
:101EF00014F006F854F8095082492B684FF0000896
:101F00000C224FF0010B5B682A82A5F812B0122256
:101F1000A5F81480A5F80E8028469847284613F0A7
:101F2000EFFF54F809001423A0F80E800382022169
:101F30000FF088FA3268022A70D041F2F4019DF95C
:101F400013306558053301216982D9B200200A296E
:101F5000A88273D9022A00F084800DF124082B682E
:101F600069495B684FF001094FF0000A0222A5F8A9
:101F70001290A5F814A028469847384614F060FF40
:101F80000B4602466149404616F08EFB3368032B30
:101F900000F09B8041F2F4030122E55800236A829D
:101FA000AB82404616F00CFC2B6802465B6841464B
:101FB00028469847284613F0A3FF3368032B00F008
:101FC000AF8041F2F40501216059514E454F0FF0A9
:101FD00039FA6359002201219A82598212F04EFA8D
:101FE000336847F22F52C01A904205D9785910F041
:101FF00095F812F043FA306011B0BDE8F08F41F26D
:10200000F4030122E05800234282838255E7A0595D
:102010004049036806225B68984743E73E4B1B78BC
:10202000002B8AD09DF913305AF809500533DAB2E3
:102030000A2AA5F81280A5F814B08ED8374A52F8AB
:102040002380404616F0BCFB2B6802465B6828469E
:1020500041469847326841F2F403022AE5587FF47A
:102060007CAF2D4B1A78002A7FF477AF9DF913309F
:102070002A4905330DF11A0C51F82310CDF808C088
:102080000DF1180E0DF1160341F2F4090DF12408BB
:1020900028468DE80840CDF80C8014230FF012FB81
:1020A00054F80900BDF92410056800914FF0010EA5
:1020B000CDF804E0ED6CBDF91A30BDF91820BDF97A
:1020C0001610A84754F8095049E7134B1B78002B0A
:1020D0003FF460AF41F2F403E558A5F812A0A5F86B
:1020E00014905EE750C8FF1F00007A4400606A4702
:1020F0000000C04184C6010084AFFF1F64C7010017
:1021000070C60100A8C70100A4C70100BCC7010038
:1021100054AFFF1F90C70100C89AFF1F4CC10100B8
:102120001D4B1B78002B7FF44CAF41F2F4050DF1F1
:102130001A03039306AE0DF1160205AB6059029621
:102140004146019200933C2214230FF0BBFA6059E0
:10215000BDF91A600568009601260196BDF9183090
:10216000BDF91620BDF91410ED6CA84729E741F21E
:10217000F40100226558AB826A82AEE6A059074995
:10218000036806225B6898478CE6A05904490368F7
:1021900006225B68984785E6C89AFF1FA0C7010022
:1021A00098C7010000B5807B00F01F031D2B14D8D9
:1021B000DFE803F01C1C4B4B4B4B30384B4B4B4B6D
:1021C0004B2822151C1C4B4B4B4B4B1C1C1C153F0E
:1021D000450F00200B23088013805DF804FB0020CE
:1021E00043F6FF73088013805DF804FBC0F34110D1
:1021F00001282ED0022834D000207F2308801380AD
:102200005DF804FB4FF4004047F6FF73088013802D
:102210005DF804FB4FF4604041F6FF7308801380C3
:102220005DF804FB4FF69C706423088013805DF812
:1022300004FB00200923088013805DF804FB0020C4
:102240003323088013805DF804FBC0F3411001289C
:10225000D2D14FF680704FF48073088013805DF800
:1022600004FB00203C23088013805DF804FB00BFC2
:10227000827B01F01F0161F304021D29827323D8C0
:1022800010B50122274C02FA01F10C4003465CB163
:10229000827BC2F34112012A1BD000217F220182DE
:1022A00081834282C28310BD1F4A0A406AB1827B89
:1022B000C2F34112012A2AD0022A21D078220482B4
:1022C00084834282C28310BD7047184A0A404AB9CB
:1022D00010BD7F2200204FF6817118825A82DA8366
:1022E000998310BD044600F11E0200F11C01FFF7A6
:1022F00059FFB4F91C20E38B22829B1A6382E7E723
:102300003C217822048284834182C28310BD7822DA
:102310004FF6C4704FF6887118825A82DA83998317
:1023200010BD00BF3C1F7C0003008303C0E0003CE5
:102330002DE9F041554D564C2978564B62780020D6
:10234000012918607FD0012A40F28680022A7AD0C3
:10235000032A52D0504E306890F85630DFF868812A
:102360004E4FDFF868E1DFF868C113F0600218BF74
:10237000012288F8002000F158023A60C26DCEF8C0
:102380000020DFF850E1026ECCF80020444AB0F89B
:1023900064C0AEF800C0DFF840E1B0F866C0A2F853
:1023A00000C0404AB0F858C0AEF800C0B0F85AE0DB
:1023B000A2F800E001F0FD02012A08D13A4AC3F375
:1023C0000403002148301370FFF752FF2978374B80
:1023D000374A384D38484FF0010EC3F800E04FF04F
:1023E000FF33136071454FF000022B6002700DD077
:1023F000324B01201870BDE8F0812078264E00EBAA
:10240000400004EBC0107C303060A5E735683868C8
:1024100095F856602A4B2B4962F3461685F85660AC
:10242000D4F8A85DD4F8AC4D8460456003F1140085
:1024300003F8012F834241F8042FF9D11F4B0120EB
:102440001870BDE8F0812078134E00EB400004EBDB
:10245000C010083030607FE7052901D0BDE8F08169
:10246000012A7FF477AF237810490B4E0A6003EB03
:10247000430304EBC3130E4D0E4C0F494FF0FF32D4
:10248000F03333602A6022600870B1E761AFFF1F4C
:1024900050C8FF1F34AFFF1F20C3FF1FFCAFFF1F3B
:1024A0001091FF1F08B0FF1F74AFFF1F84AFFF1F05
:1024B0006C98FF1FC492FF1F00B0FF1F50AFFF1F9B
:1024C000F3B1FF1F18B7FF1FACB7FF1F2CC3FF1FCF
:1024D00040C8FF1F90E0FF1F98AFFF1F2DE9F0439A
:1024E000DFF8C8802B4F98F80030052287B03A708B
:1024F0007BB1294E3568ADB1A84720B900242046EC
:1025000007B0BDE8F08300242046346007B0BDE882
:10251000F083FFF70DFF0028EBD10124204607B020
:10252000BDE8F0831D4B18780238FEF75DFE2846A3
:10253000FFF774FCFEF74AFE04460028DED0184B75
:102540001B68012B06DD023B164A52F8233033602C
:102550002C46D4E7144E41F2F4034022F0580368AD
:102560008DE824002946D3F840902A468023C847A6
:1025700005AA0DF10F0104A888F800503D70FFF77F
:102580002DFC9DF80F20049B86F8D02DC6F8CC3D7D
:10259000B5E700BF61AFFF1F34AFFF1FF094FF1F0F
:1025A00084AFFF1F608DFF1F50C8FF1F50AFFF1F7C
:1025B0002DE9F04FA54BA64D1B78032283B02A705E
:1025C000002B00F0A680A34BA34E1F6897F856403F
:1025D000F86DC4F34114022C00F0B88015F00EF829
:1025E0008046B7F95A00B7F958B015F007F8824697
:1025F000386E15F003F88146CBF1180014F0FEFF99
:10260000514615F003F9494615F04CF8414614F0CF
:1026100041FF15F00DFA3060CBF1600014F0EEFFD1
:10262000514615F0F3F8494615F03CF8414614F0D0
:1026300031FF15F0FDF9DFF85892C9F8000087491D
:10264000874ADFF850A2B7F916300878B98ACAF875
:1026500000101360FEF7C8FDFEF738FFFEF7B6FD69
:10266000804600283CD0DFF83082D8F800000128EE
:1026700040F3C680022800F0BD80032800F0B4803B
:102680003568D9F80000022CA0EB050000F090801E
:1026900014F0B4FF0446284614F0B0FF2146054666
:1026A000204614F0F7FE6F4915F0B0F801462846B1
:1026B00014F0EEFE15F0BCF96B490546204614F007
:1026C000F1FF684915F0A2F815F0B2F9674B1B68E5
:1026D0004FF000085D609860404603B0BDE8F08FA1
:1026E0002B78032BF8D1BAF80000FDF741FF604AC0
:1026F00041F29D03D35C002BEED00028ECD05D4B63
:102700001A788242E8D0DFF890811870C8F800008B
:10271000ADE7FFF70DFE044600287FF454AF544D9B
:1027200055494FF00108FF2205F6656085F8648E73
:1027300016F0B4F84FF4FA621123A5F86C4FA5F81F
:10274000704FC5F8682FA5F86E3FC5E714F056FF27
:102750008346B7F95A00B7F958A014F04FFF8146E5
:10276000386E14F04BFF8046CAF10C0014F046FF9F
:10277000494615F04BF8414614F094FF594614F0C1
:1027800089FE15F055F93060CAF1300014F036FFBB
:10279000494615F03BF8414614F084FF594614F0C1
:1027A00079FE15F045F9DFF8E890C9F8000046E732
:1027B00014F024FF0446284614F020FF2F49054654
:1027C000204615F023F80146284614F061FE15F066
:1027D0002FF92B490546204614F064FF274915F0D0
:1027E00015F815F025F971E7DAF800003568C9F831
:1027F000000048E7DAF800503560D9F8000042E7F9
:102800001B4941F2F4030022C858402103688DE8B7
:10281000060011461C6C8023A0470E4B1868194B0C
:1028200048301978FFF724FDD8F800303BB90F4B3A
:102830001549164A1B680968126859609A60034A6C
:10284000002313702B704FF0010845E750AFFF1FB6
:1028500061AFFF1F20C3FF1FD0AFFF1F68A2FF1F84
:10286000C492FF1F0000C04000002041FCAFFF1FCA
:1028700050C8FF1F00B0FF1FC4C701000000404048
:102880000000A04074AFFF1F2CC3FF1F40C8FF1FF4
:10289000D4AFFF1F6C98FF1F84AFFF1F10B582B02D
:1028A00002AB42F2247243F8042D04460170042264
:1028B0001846002111F0B8FB20460122022111F038
:1028C000B3FB032002B010BD2DE9F041804682B079
:1028D00018F8041B744D754F0446FFF7DFFF042200
:1028E00006460146404611F09FFB311D04F10800E9
:1028F000042211F099FB06F1080104F10C000422F6
:1029000011F092FB06F10C0104F11000042211F009
:102910008BFB06F1100104F11400042211F084FB7A
:1029200006F1140104F11800042211F07DFB06F1F8
:10293000180104F11C00042211F076FB06F11C01C1
:1029400004F12000042211F06FFB06F1200104F1D4
:102950003500692211F068FB06F1890104F12800B5
:10296000042211F061FB06F18D0104F12C0001221B
:1029700011F05AFB06F18E0104F13000042211F02F
:1029800053FB06F1920104F13400012211F04CFBDB
:102990000D21474813F018F800230A222178284611
:1029A00013F0D4FA0221434813F00EF86168284668
:1029B00013F00CFB3846012113F006F8A1682846F5
:1029C00013F004FB3846012112F0FEFFE1682846AF
:1029D00013F0FCFA3846012112F0F6FF216928466F
:1029E00013F0F4FA3846012112F0EEFF616928462F
:1029F00013F0ECFA3846012112F0E6FFA1692846EF
:102A000013F0E4FA3846012112F0DEFFE1692846AE
:102A100013F0DCFA3846012112F0D6FF216A28466D
:102A200013F0D4FA3846012112F0CEFFA06A14F058
:102A300007FA4FF0020802460B46CDF80080284600
:102A400013F0CEFA3846012112F0BEFF94F92C1093
:102A5000284613F0BBFA3846012112F0B5FF0023D7
:102A60000A2294F83410284613F070FA38460121EF
:102A700012F0AAFF206B14F0E3F9CDF800800246B3
:102A80000B46284613F0ACFA3846012112F09CFFA1
:102A900006F19301284613F099FA284613F030FA0C
:102AA000962002B0BDE8F08190A4FF1F80C601000F
:102AB000D8C70100C8CD010070B5064684B000201B
:102AC00011F04EFA8DF80E00012011F049FA8DF840
:102AD0000F00BDF80E2042F224739A4240F00781A5
:102AE000022011F03DFA03288ABFFF2330703370B3
:102AF000F51C0324204611F033FA0134072C05F8A5
:102B0000010FF7D1F51D204611F02AFA01340B2CE4
:102B100005F8010FF7D106F10B05204611F020FA58
:102B200001340F2C05F8010FF7D106F10F052046EF
:102B300011F016FA0134132C05F8010FF7D106F144
:102B40001305204611F00CFA0134172C05F8010F7B
:102B5000F7D106F11705204611F002FA01341B2CBB
:102B600005F8010FF7D106F11B05204611F0F8F921
:102B700001341F2C05F8010FF7D106F11F0520467F
:102B800011F0EEF90134232C05F8010FF7D106F10D
:102B90003405204611F0E4F901348C2C05F8010FBE
:102BA000F7D106F12705204611F0DAF90134902C0F
:102BB00005F8010FF7D1204611F0D2F906F12F05E3
:102BC00086F82C009124204611F0CAF90134952C86
:102BD00005F8010FF7D1204611F0C2F90C2186F853
:102BE0003400484812F0F0FE00230A2231784648AB
:102BF00013F0ACF90221454812F0E6FE7168424834
:102C000013F0E4F90121424812F0DEFEB1683E48BB
:102C100013F0DCF901213E4812F0D6FEF1683A4883
:102C200013F0D4F901213A4812F0CEFE316936484A
:102C300013F0CCF90121364812F0C6FE7169324812
:102C400013F0C4F90121324812F0BEFEB1692E48DA
:102C500013F0BCF901212E4812F0B6FEF1692A48A2
:102C600013F0B4F901212A4812F0AEFE316A264869
:102C700013F0ACF90121264812F0A6FEB06A14F058
:102C8000DFF8022402460B4600941F4813F0A8F90F
:102C900001211F4812F098FE96F92C101A4813F0E3
:102CA00095F901211A4812F08FFE00230A2296F8A6
:102CB0003410154813F04AF90121154812F084FE2A
:102CC000306B14F0BDF8009402460B460E4813F02A
:102CD00087F901210E4812F077FE96210A4813F079
:102CE00075F9094813F00CF9962004B070BD1B214A
:102CF000084812F069FE044813F002F9002004B0FD
:102D000070BD00BF04C8010090A4FF1FC8CD010022
:102D100080C60100E8C701002DE9F843099C089E20
:102D20000F46904699461CB1086814F081FEA047F2
:102D30001D4D41F2F003E85810F0C2F8B5F8864D89
:102D4000B5F8843D201A84B29C42A5F8864D24D063
:102D500094BF06F100403046396814F09BFB4146B1
:102D6000064614F03DFE58B94946304614F056FE6A
:102D700068B1C7F800900020A5F8844DBDE8F8833D
:102D8000C7F800800020A5F8844DBDE8F8833E60B8
:102D90000020A5F8844DBDE8F88305F5A9552868FD
:102DA000BDE8F84310F02EB850C8FF1F2DE9F043DE
:102DB000284D6B78012B85B0274B44D91B68186AC6
:102DC00003F14C0903F1200414F014FC234914F01E
:102DD0001DFD0146224814F019FD224914F016FD8C
:102DE00013F0A0FE04A9204A41F8040D4FF07E53D1
:102DF00080460192009300221C4B1D48FFF78CFF78
:102E00001C4B039F187006461449384614F0FEFC0C
:102E10000146134814F0FAFC124914F0F7FC14F0C0
:102E20002DFE41462060384614F0F0FCD9F8001021
:102E300014F038FC0346C9F800003046C5F8CC3D14
:102E400005B0BDE8F0831C68206A04F1480920340D
:102E5000BAE700BF50C8FF1F20C3FF1F00007A441D
:102E600000606A470000C0411D1E00000000FA43D8
:102E700094D6FF1FC89AFF1F70B51F4D6B78022BA9
:102E800084B032D0032B29D0012B02D000231B7A2F
:102E9000FFDE2C7804EB440405EBC41404F59A74AB
:102EA00094F9080014F0AAFB04A9144A41F8040D8F
:102EB0004FF07E5301920093114A124B1248FFF7D4
:102EC0002BFF124B06461E70039814F0B1FD40B262
:102ED000207285F8D00D304604B070BD2C7804EB1C
:102EE000440405EBC414C434DAE72C7804EB44043E
:102EF00005EBC4145034D3E750C8FF1F1D1E00005B
:102F00000000A0C00000A04094D6FF1FC89AFF1F79
:102F10002DE9F843099CDDF820900E4690461F46A7
:102F20000CB10868A0471C4D41F2F003E8580FF0BF
:102F3000C7FFB5F8864DB5F8843D201A84B29C428F
:102F4000A5F8864D21D0E01A14F058FB494614F03C
:102F5000A9FB8146306814F051FB0146484614F045
:102F600099FA14F065FD404508DB8742A8BF074683
:102F700037600020A5F8844DBDE8F883C6F80080CE
:102F80000020A5F8844DBDE8F88305F5A95528680B
:102F9000BDE8F8430FF036BF50C8FF1F2DE9F047DA
:102FA000224CBDF82090099D41F2F0070646E059F9
:102FB00090460F469A460FF083FFB4F8863DB4F86A
:102FC000841D184480B2A4F8860D884296F86122C8
:102FD0001AD2AB5C013BDBB22F2B98BF3923AB5429
:102FE00028460A22002115F029FD4045386012DAF2
:102FF000B4F8860DC7F800800D4BA4F8840D18684E
:10300000BDE8F0470FF0FEBEF6D95AB909F1FF3915
:1030100086F86192F0E75045C8BFC7F800A0B4F841
:10302000860DE9E7013A86F86122E5E750C8FF1FFF
:1030300070DDFF1FF8B5204F41F2F0030446F85849
:103040000D4616460FF03CFFB7F8863DB7F8841DD5
:10305000184480B2A7F8860D94F861228842AB5CD0
:103060001DD20133DBB213F0800F18BF2023AB5405
:10307000B7F8860D114BA7F8840D18680FF0C2FE43
:1030800060B194F86132013EB34207D013B92A7897
:10309000202A0ED0013384F861320020F8BDE9D92E
:1030A000013BDBB21F2B98BF7F23AB54B7F8860DD3
:1030B000E0E72B70F8BD00BF50C8FF1F70DDFF1F99
:1030C000F0B5DFF844E041F2F40583B008465EF85D
:1030D0000550BDF820601F46144615F071FB04EB47
:1030E0004404A4002A68033400EB400312210020AA
:1030F0000190009104EB43031BB2146C39B22846D3
:1031000032B2A04703B0F0BD50C8FF1F2DE9F04F09
:10311000DFF8BC8041F2F40785B00E469B4658F8B4
:103120000700BDF83890012114460EF08BF90BF121
:10313000020058F8075083B21A464FF0010A09F10D
:1031400005034FF00001EA812B82A5F812A0A982A5
:103150003046039215F034FB2B6802465B6831461B
:1031600028469847284612F0CBFE58F8070002215F
:103170000EF068F958F807504FF00001A982304668
:10318000A5F812A015F01CFB039A00EB400002EB1F
:10319000400009EB0A03E8812B82304615F010FB52
:1031A00004EB4404A4002E68CDF804A000EB40001A
:1031B00003341222009204EB40031BB20FFA89F28F
:1031C0000FFA8BF12846F46CA04705B0BDE8F08FEC
:1031D00050C8FF1F2DE9F04F87B01F46BDF8404093
:1031E00004942546BDF844400094A94688460293BD
:1031F00016462B463A46054605940391FFF760FFB5
:103200004B463A46009441462846FFF77FFF41F27D
:10321000F403254A254F52F803B000245B46A1462B
:10322000A3464FF001081C4617E095F8613253455C
:10323000236804BFA4F81290A4F814801B6816F841
:103240000A10984795F861323C68534504BFA4F8CA
:103250001280A4F814900BF1010B304615F0B0FA6F
:103260001FFA8BFA50452046DFD822681049A34642
:1032700054680022A047584612F042FE029A314696
:103280002846FFF7D7FE58B1059B00932846049BBC
:10329000029A0399FFF714FFFF2385F8613201209A
:1032A00007B0BDE8F08F00BF50C8FF1F44D9FF1F13
:1032B00058C90100F0B5044690F8610287B0FF28B4
:1032C000BDF83050BDF834600AD08DE8600020466B
:1032D000FFF780FF10B1FF2384F8613207B0F0BD23
:1032E000002084F86102104605930491039215F0C2
:1032F00067FA059B039A04999842E6D207DA1044CC
:1033000002EB030E202700F8017B7045FBD1002063
:10331000D054DAE7102B2DE9F84F05460C464FF054
:10332000000E55D8724501F803E057DB9E4518DAC8
:10333000DFF8BCC0E718012692FBF6F18CFB010810
:10334000C817C0EBA80000EB8000A1EB4001013BD7
:1033500006EB8606303173454FEA460607F8011D35
:10336000EADC214ADFF88C9041F2F4034FF00008C8
:10337000D758C3464FF0010A17E095F86132B342BF
:103380003B6804BFA7F812B0A7F814A01B68A15DA2
:10339000984795F86132D9F80070B34204BFA7F896
:1033A00012A0A7F814B008F10108204615F008FA99
:1033B0001FFA88F6B0423846DFD83B680B495B6895
:1033C0003846002298473846BDE8F84F12F098BDBD
:1033D000724581F810E04FF01003A9DA2D21524216
:1033E00021704FF0010EA1E750C8FF1F58C901001E
:1033F0006766666644D9FF1F2DE9F04788B004462A
:10340000BDF84450BDF84860BDF84C700097904638
:1034100089462A469A463346FFF752FE33462A46E5
:10342000494620460097FFF771FE2B46D8F800204A
:10343000204603A9FFF76EFF94F86132FF2B17D0E7
:1034400003AB0193009552464146109B2046FFF77F
:10345000A5FD50B13346204600972A464946FFF75E
:103460002FFEFF2384F86132012008B0BDE8F08709
:1034700000224FF07E530192009352464146109B2A
:103480002046FFF745FDE4E7F0B51B4A137803EB50
:103490004303DB01D11887B091F85E00C00625D147
:1034A00001F5A074B1F84011059141F2A50312494C
:1034B000D25C114DFF2A04BF0322CA542D274FF4BA
:1034C0007A72002304268DE844000C49039705F620
:1034D0004460029305AAFFF78FFF18B141F2A503DC
:1034E000FF22EA54059B238007B0F0BD1344B1F8D6
:1034F0005C1003F15C04D7E750C8FF1F14C801003B
:103500002DE9F0432A4D2B49D5F8D40D284E87B02C
:1035100014F0C8F814F08CFA41F2A5032D21EA5CEE
:103520000590FF2A04BF0422EA54234B009305228E
:1035300000230391019206F64460029305AA1F49F5
:10354000FFF75AFF804638B341F2A503FF22F25439
:10355000059814F053F8174914F058F93446014609
:10356000C6F8D40D06F54067B14601E0D9F8D41D80
:1035700095F8D86DD4F8E80010F06AFA304614F0E7
:1035800039F804F5C07454F8983CA7421861EDD19D
:10359000404607B0BDE8F083059814F02FF80549C0
:1035A00014F034F9C6F8D40D404607B0BDE8F083F6
:1035B00050C8FF1F0050C3473F420F0020C8010002
:1035C0002DE9F0431C4D1D4995F8D83D87B006AA5A
:1035D000042642F8043D2D2700234FF480748DE823
:1035E000500005F6446003970293FFF705FF9DF82E
:1035F000146085F8D86D814618B9484607B0BDE813
:10360000F0832C4605F54067A84601E098F8D86D90
:10361000D4F8E800D5F8D41D10F01AFA304613F0AB
:10362000E9FF04F5C07454F8983CBC421861EDD130
:10363000484607B0BDE8F08350C8FF1F2CC8010002
:10364000F0B52E4C6378022B87B030D0032B27D0F7
:10365000012B02D000235B78FFDE237803EB4303CA
:1036600004EBC31303F59A7306AA5B78234D42F863
:10367000043D03272D23002601977F27039320492C
:103680000296334605F644600097FFF7B5FE63786F
:10369000022B28D0032B1CD0012B0FD07670FFDE1D
:1036A000237803EB430304EBC313C433DCE7237831
:1036B00003EB430304EBC3135033D5E72B7803EB41
:1036C000430305EBC31505F59A75059B6B7007B0B1
:1036D000F0BD2B7803EB430305EBC315C435059B05
:1036E0006B7007B0F0BD2B7803EB430305EBC315FC
:1036F0005035059B6B7007B0F0BD00BF50C8FF1F71
:1037000034C80100F0B52E4C6378022B87B030D05E
:10371000032B27D0012B02D000231B78FFDE237858
:1037200003EB430304EBC31303F59A7306AA1B7858
:1037300042F8043D224D23492D23039300261023F4
:1037400003278DE8880005F6446001230296FFF701
:1037500053FE6378022B28D0BB421CD0012B0FD024
:103760003670FFDE237803EB430304EBC313C4334B
:10377000DCE7237803EB430304EBC3135033D5E7B3
:103780002B7803EB430305EBC31505F59A75059BF1
:103790002B7007B0F0BD2B7803EB430305EBC3158B
:1037A000C435059B2B7007B0F0BD2B7803EB4303AA
:1037B00005EBC3155035059B2B7007B0F0BD00BF5E
:1037C00050C8FF1F40C80100F0B5304C6378022B91
:1037D00087B036D0032B2DD0012B02D000235B689D
:1037E000FFDE237803EB430304EBC31303F59A7363
:1037F0005868264D14F01CF906AA2D270321FF2333
:10380000002642F8040D03970191009305F64460E9
:10381000012302961E49FFF7EFFD6378022B07464E
:103820002DD0032B24D0012B12D0059813F0E6FEE7
:103830007060FFDE237803EB430304EBC313C43350
:10384000D6E7237803EB430304EBC3135033CFE7EE
:103850002B7803EB430305EBC31505F59A75059823
:1038600013F0CCFE6860C4F8CC0D384607B0F0BD4C
:103870002B7803EB430305EBC315C435EFE72B7837
:1038800003EB430305EBC3155035E8E750C8FF1FB2
:1038900050C80100F0B52D4C6378022B87B032D0B0
:1038A000032B29D0012B02D000231B7AFFDE2378C3
:1038B00003EB430304EBC31303F59A7306AA93F9CE
:1038C000083042F8043D214D21492D230393002661
:1038D000782304278DE8880005F644606FF07703AD
:1038E0000296FFF789FD6378022B28D0032B1FD0A7
:1038F000012B0FD03672FFDE237803EB430304EB7A
:10390000C313C433DAE7237803EB430304EBC31395
:103910005033D3E72B7803EB430305EBC31505F5D1
:103920009A759DF914302B7284F8D03D07B0F0BD24
:103930002B7803EB430305EBC315C435F1E72B7874
:1039400003EB430305EBC3155035EAE750C8FF1FEF
:103950005CC80100F0B5314C6378022B87B033D0DE
:10396000032B2AD0012B03D0002393F82030FFDE55
:10397000237803EB430304EBC31303F59A7306AAFE
:1039800093F82030254D42F8043D03272D230026CF
:1039900001977F27039322490296334605F6446038
:1039A0000097FFF729FD6378022B2BD0032B1ED045
:1039B000012B10D086F82060FFDE237803EB430351
:1039C00004EBC313C433DAE7237803EB430304EBBC
:1039D000C3135033D3E72B7803EB430305EBC31535
:1039E00005F59A75059B85F8203007B0F0BD2B785A
:1039F00003EB430305EBC315C435059B85F8203065
:103A000007B0F0BD2B7803EB430305EBC31550352E
:103A1000059B85F8203007B0F0BD00BF50C8FF1FE0
:103A20006CC80100F0B5314C6378022B87B033D0FD
:103A3000032B2AD0012B03D0002393F82130FFDE83
:103A4000237803EB430304EBC31303F59A7306AA2D
:103A500093F82130254D42F8043D03272D230026FD
:103A600001977F27039322490296334605F6446067
:103A70000097FFF7C1FC6378022B2BD0032B1ED0DD
:103A8000012B10D086F82160FFDE237803EB43037F
:103A900004EBC313C433DAE7237803EB430304EBEB
:103AA000C3135033D3E72B7803EB430305EBC31564
:103AB00005F59A75059B85F8213007B0F0BD2B7888
:103AC00003EB430305EBC315C435059B85F8213093
:103AD00007B0F0BD2B7803EB430305EBC31550355E
:103AE000059B85F8213007B0F0BD00BF50C8FF1F0F
:103AF00078C80100F0B5484C6378022B87B048D0F5
:103B0000032B3CD0012B03D0002393F82030FFDEA1
:103B1000237803EB430304EBC31303F59A7393F881
:103B20002020D20141F2A50193F82130605C3A4D8A
:103B30001344FF28059304BF04236B54364D3749C3
:103B400043F6FF722D27002305268DE8440005F675
:103B500044600397029305AAFFF74EFC18B141F2A7
:103B6000A503FF22EA5463782B4A022B3FD0032B94
:103B70002FD0012B17D0002383F82030FFDE2378CD
:103B800003EB430304EBC313C43393F82020D201A7
:103B9000C8E7237803EB430304EBC313503393F8D4
:103BA0002020D201BEE71378059903EB430302EB13
:103BB000C313002903F59A730A4615DBD21183F863
:103BC0002020174A0A40002A1DDB83F8212007B075
:103BD000F0BD1378059903EB430302EBC3130029EF
:103BE00003F1C4030A46E9DA01F17F02E6E713783C
:103BF000059903EB430302EBC313002903F15003C0
:103C00000A46DBDAF0E7013A62F07F02013283F81C
:103C1000212007B0F0BD00BF50C8FF1F84C80100BD
:103C20007F000080F0B52E4C6378022B87B030D037
:103C3000032B27D0012B02D000239B78FFDE2378B3
:103C400003EB430304EBC31303F59A7306AA9B78B3
:103C5000234D42F8043D03272D23002601977727A3
:103C6000039320490296334605F644600097FFF718
:103C7000C3FB6378022B28D0032B1CD0012B0FD061
:103C8000B670FFDE237803EB430304EBC313C433A6
:103C9000DCE7237803EB430304EBC3135033D5E78E
:103CA0002B7803EB430305EBC31505F59A75059BCC
:103CB000AB7007B0F0BD2B7803EB430305EBC315E6
:103CC000C435059BAB7007B0F0BD2B7803EB430305
:103CD00005EBC3155035059BAB7007B0F0BD00BFB9
:103CE00050C8FF1F8CC80100F0B52E4C6378022B22
:103CF00087B030D0032B27D0012B02D00023DB78F4
:103D0000FFDE237803EB430304EBC31303F59A733D
:103D100006AADB78234D42F8043D03272D23002615
:103D200001977F27039320490296334605F64460A6
:103D30000097FFF761FB6378022B28D0032B1CD080
:103D4000012B0FD0F670FFDE237803EB430304EB67
:103D5000C313C433DCE7237803EB430304EBC3133F
:103D60005033D5E72B7803EB430305EBC31505F57B
:103D70009A75059BEB7007B0F0BD2B7803EB4303FE
:103D800005EBC315C435059BEB7007B0F0BD2B7870
:103D900003EB430305EBC3155035059BEB7007B0F0
:103DA000F0BD00BF50C8FF1F94C8010070B5214C82
:103DB0006378022B28D0032B1FD0012B0FD00020BB
:103DC00041F29C051521FEF753FA635D194E73B954
:103DD00001237355FFF734FCE8B9002070BD20784B
:103DE00000EB400004EBC01000F59A70E8E7012BEF
:103DF000F0D0022B16D0012070BD207800EB4000DF
:103E000004EBC010C430DBE7207800EB400004EB8B
:103E1000C0105030D4E741F29C020020A35C013373
:103E2000A35470BDFFF760FF0028D6D00023735560
:103E300070BD00BF50C8FF1FF0B5304C6378022B37
:103E400087B036D0032B2DD0012B02D000235B6826
:103E5000FFDE237803EB430304EBC31303F59A73EC
:103E60005868264D13F0E4FD06AA2D270321FF23F1
:103E7000002642F8040D03970191009305F6446073
:103E8000012302961E49FFF7B7FA6378022B074613
:103E90002DD0032B24D0012B12D0059813F0AEFBAC
:103EA0007060FFDE237803EB430304EBC313C433DA
:103EB000D6E7237803EB430304EBC3135033CFE778
:103EC0002B7803EB430305EBC31505F59A750598AD
:103ED00013F094FB6860C4F8CC0D384607B0F0BD11
:103EE0002B7803EB430305EBC315C435EFE72B78C1
:103EF00003EB430305EBC3155035E8E750C8FF1F3C
:103F000050C80100F0B52D4C6378022B87B032D039
:103F1000032B29D0012B02D000231B7AFFDE23784C
:103F200003EB430304EBC31303F59A7306AA93F957
:103F3000083042F8043D214D21492D2303930026EA
:103F4000782304278DE8880005F644606FF0770336
:103F50000296FFF751FA6378022B28D0032B1FD06B
:103F6000012B0FD03672FFDE237803EB430304EB03
:103F7000C313C433DAE7237803EB430304EBC3131F
:103F80005033D3E72B7803EB430305EBC31505F55B
:103F90009A759DF914302B7284F8D03D07B0F0BDAE
:103FA0002B7803EB430305EBC315C435F1E72B78FE
:103FB00003EB430305EBC3155035EAE750C8FF1F79
:103FC0005CC8010070B5374C637886B000227F2151
:103FD000022BADF81020ADF8121039D0032B2DD0E4
:103FE000012B01D0938BFFDE207800EB400004EB27
:103FF000C01000F59A70B0F91C3005930DF1120253
:1040000004A9FEF7CFF8274DBDF9122000922D210B
:1040100005220026BDF910300391019205F6446097
:10402000029605AA2049FFF7E7F96378022B2ED004
:10403000032B22D0012B15D0B683FFDE207800EBB6
:10404000400004EBC010C430B0F91C300593D5E734
:10405000207800EB400004EBC0105030B0F91C3069
:104060000593CBE72B7803EB430305EBC31505F56D
:104070009A75059BAB8306B070BD2B7803EB4303A9
:1040800005EBC315C435059BAB8306B070BD2B781B
:1040900003EB430305EBC3155035059BAB8306B01B
:1040A00070BD00BF50C8FF1FA0C8010070B5374CDD
:1040B000637886B000227F21022BADF81020ADF886
:1040C000121039D0032B2DD0012B01D0D38BFFDE62
:1040D000207800EB400004EBC01000F59A70B0F9B6
:1040E0001E3005930DF1120204A9FEF75BF8274D6F
:1040F000BDF9122000922D2105220026BDF91030B5
:104100000391019205F64460029605AA2049FFF743
:1041100073F96378022B2ED0032B22D0012B15D0FC
:10412000F683FFDE207800EB400004EBC010C430C3
:10413000B0F91E300593D5E7207800EB400004EB82
:10414000C0105030B0F91E300593CBE72B7803EB4D
:10415000430305EBC31505F59A75059BEB8306B084
:1041600070BD2B7803EB430305EBC315C435059BEA
:10417000EB8306B070BD2B7803EB430305EBC3154F
:104180005035059BEB8306B070BD00BF50C8FF1FC4
:10419000ACC8010038B50A4D2C783CB1012C08D1CF
:1041A000FFF784FF28B100232B7038BDFFF70AFF0B
:1041B00008B9002038BD01232B70204638BD00BF50
:1041C000F8AFFF1FF0B52F4C6378022B87B037D0C4
:1041D000032B2ED0012B02D000235B69FFDE217858
:1041E00001EB410104EBC11101F59A7106AA4B697B
:1041F00042F8043D4FF02D0E8F69224DCDF80CE0B2
:104200004FF0060ECDF804E0002644F2020E1E4BDD
:104210001E49029605F64460CDF800E0FFF7ECF881
:104220006378022B26D0032B1DD0012B0FD0766193
:10423000FFDE217801EB410104EBC111C431D5E768
:10424000217801EB410104EBC1115031CEE72B780D
:1042500003EB430305EBC31505F59A75059BAF61A9
:104260006B6107B0F0BD2B7803EB430305EBC3157F
:10427000C435F3E72B7803EB430305EBC315503547
:10428000ECE700BF50C8FF1FFDBFFFFFB8C801002B
:10429000F0B5304C6378022B87B038D0032B2FD089
:1042A000012B02D000235B69FFDE237803EB43037D
:1042B00004EBC31303F59A735F699869254D264B88
:1042C000264906AA38444FF02D0E42F8040DCDF8C9
:1042D0000CE04FF0060ECDF804E0002644F2020E8A
:1042E00005F644600296CDF800E0FFF785F86378A4
:1042F000022B27D0032B1ED0012B0FD07661FFDEBF
:10430000237803EB430304EBC313C433D4E72378CC
:1043100003EB430304EBC3135033CDE72B7803EBDC
:10432000430305EBC31505F59A75059B6F61DB1B10
:10433000AB6107B0F0BD2B7803EB430305EBC3156E
:10434000C435F2E72B7803EB430305EBC315503577
:10435000EBE700BF50C8FF1FFDBFFFFFC0C8010053
:1043600038B50A4D2C783CB1012C08D1FFF790FFED
:1043700028B100232B7038BDFFF724FF08B90020B7
:1043800038BD01232B70204638BD00BFF8AFFF1F9A
:10439000F0B5374C637887B000227F21022BADF84F
:1043A0001020ADF812103DD0032B2FD0012B01D0DF
:1043B000138AFFDE207800EB400004EBC01000F50C
:1043C0009A70B0F91030B0F9127005930DF1120225
:1043D00004A9FDF7E7FE264DBDF9122000922D211C
:1043E00005220026BDF910300391019205F64460C4
:1043F000029605AA1F49FEF7FFFF6378022B30D013
:10440000032B27D0012B19D03682FFDE207800EB5A
:10441000400004EBC010C430B0F91030B0F9127095
:104420000593D3E7207800EB400004EBC010503038
:10443000B0F910300593B0F91270C7E72B7803EB91
:10444000430305EBC31505F59A75059B6F822B8217
:1044500007B0F0BD2B7803EB430305EBC315C43560
:10446000F3E72B7803EB430305EBC3155035ECE77B
:1044700050C8FF1FC8C80100F0B5394C637887B039
:1044800000227F21022BADF81020ADF812103FD092
:10449000032B30D0012B01D0138AFFDE207800EBF4
:1044A000400004EBC01000F59A70B0F91070B0F93C
:1044B00012303B4405930DF1120204A9FDF772FE80
:1044C000274DBDF9122000922D2105220026BDF9AD
:1044D00010300391019205F64460029605AA214925
:1044E000FEF78AFF6378022B33D0032B2AD0012BEF
:1044F0001BD03682FFDE207800EB400004EBC010BA
:10450000C430B0F91070B0F912303B440593D2E7D3
:10451000207800EB400004EBC0105030B0F9107070
:10452000B0F912303B440593C5E72B7803EB430306
:1045300005EBC31505F59A75059B2F82DB1B6B8276
:1045400007B0F0BD2B7803EB430305EBC315C4356F
:10455000F2E72B7803EB430305EBC3155035EBE78C
:1045600050C8FF1FD4C8010038B50A4D2C783CB1A3
:10457000012C08D1FFF780FF28B100232B7038BD34
:10458000FFF706FF08B9002038BD01232B70204635
:1045900038BD00BFF8AFFF1F2DE9F04F88469BB034
:1045A000D0F864120790BDF890A09DF894500B923B
:1045B000994629B9794B1B680D930D9BC0F864325D
:1045C000002D00F0C580764B2E1F83FB0623A3EB46
:1045D000E6760236F600B3B2CAF13F069E42404686
:1045E000A8BF1E4614F0ECF800EB4000470004376B
:1045F000BFB241F2F4046B4B1859AF4233B228BF3B
:104600002F464FF0000B1A460FFA8AF50A930368FB
:1046100006950FFA89F10092CDF804B03AB21D6CFC
:10462000099213460891069AA8475E4B0121185932
:104630000CF008FF5B4A5A4B1459033F83FB0723D6
:104640000AF1040AB6B2A3EBE7771FFA8AF30493E0
:10465000F31F5D4609F10209012205931AABA4F884
:1046600014B00FFA89F9628203EB070B2E46AA46B3
:1046700009E0059BB3EBC20F2BDD56B3B5F5807F88
:1046800027D0494B1C68049BA4F80E9003EBC5038C
:1046900008EB060123823A460FA814F0FFF80FA892
:1046A0000BF82CAC14F08CF8236802465B680FA959
:1046B00020469847204611F023FC404614F080F82D
:1046C000C01BF319864205F102029EB205F10105F5
:1046D000CFD9344B0A9941F2F404012218591E46ED
:1046E00003688DE80600069ADD6C0899099BA847C7
:1046F000079B93F82E31002B3BD141F2F403294A5A
:10470000D0580DF00BFD294B18680EF07BFB50B90B
:10471000224A079B1268D3F864320E920B990E9AC4
:1047200019448A4211D941F2F4021E49099B885862
:104730000A9A0568009200240194069A08992D6C43
:10474000A847079B0120C3F864421BB0BDE8F08F67
:10475000404614F035F800EB40004700CAF13F0630
:104760003B1DC9F17F05102E9FB2A8BF1026EDB2E8
:104770003FE73059079E96F83C41D6F83431B6F9F8
:104780003221B6F93011B6F93A510294B6F93841EE
:104790008DE830000CF022FCAFE700BFACE0FF1F5B
:1047A000ABAAAA2A50C8FF1F44D9FF1F70DDFF1F04
:1047B0002DE9F0470E4601789DF82080082904462F
:1047C00091464ED03B4AD0F8E400D2F8A87DD2F80A
:1047D000B41D1D46D2F8AC3D6366D2F8B03D2766E5
:1047E0000127C4F8D430C4F8D81084F8BC7092F80B
:1047F000D8ADD2F8D41D0FF02BF9504612F0FAFEC6
:10480000D4F8E420242310610021184684F8756050
:1048100023710FF02DFE0026252084F8780084F8FF
:10482000E990268331460FF023FEA4F88C6084F8CB
:10483000066184F8EC5028460DB9BDE8F0870221E6
:104840000FF016FE84F84081B8F1000F02D138460F
:10485000BDE8F087404639460FF00AFE3846BDE80D
:10486000F087144B1220D3F8C42DD3F8BC5DD3F8D5
:10487000B81DD3F8C03DC4F8D43065662166C4F8CD
:10488000D820207184F8756000210FF0F1FD00251B
:104890001A2084F8780084F8E990258329460FF0DF
:1048A000E7FD84F8EC50A4F88C5084F806512846B3
:1048B000BDE8F08750C8FF1F2DE9F843044688463D
:1048C00016460FF0DBFD236AA06213B9E36A002BE2
:1048D00044D072B6DFF8AC90254FD9F800103B6891
:1048E0002448A56AE26ACB1A80FB0310D917C1EBF2
:1048F000A000062184F834101F49C5EB030EAA1A44
:104900000B60236B626285181C4AA06B7344A9B2CA
:1049100013600FF08DF8A26B636AD26A002E62F307
:104920000F0528461FDDB040B340D9F800103A68A3
:104930000B440244C9F800303A6012F05BFE414675
:1049400012F064FF0E4912F061FF13F097F8A36AAA
:104950002062E36262B60120BDE8F8832063E06272
:104960001846BDE8F883E0D07642F040F340DCE73B
:1049700004B0FF1F6766666678AFFF1F7CE0FF1F0D
:104980000000C040A4AFFF1F10B50446212094F8DA
:10499000711001F001010FF057FD94F8711018200B
:1049A000C1F340010FF050FD94F871102020C1F3C5
:1049B0008001BDE810400FF047BD00BF30B5104B7F
:1049C00083B00C469C424FF000014FF07F02054639
:1049D00008BFB0F91640ADF80410ADF80620483015
:1049E0000DF1060201A9FDF7DDFBB5F96400844273
:1049F00004DBB5F96600A042A8BF204603B030BD75
:104A0000F1D8FFFF38B590F85C31032B36D8DFE8DA
:104A100003F0021104021A4838BD90F8CE3003F0BA
:104A20001F03072BB0F91A301DD0B0F98E1003FB0D
:104A300001F104E0B0F91A10B0F98E30194490F881
:104A40005A301A4604466FF3461280F85A20043052
:104A5000C3F34115FFF7B2FF94F85A3065F34613DC
:104A600084F85A3038BDB0F98E20064903FB02F3B2
:104A700081FB0321DB17C3EB6111E0E70049DEE7AF
:104A8000F1D8FFFF1F85EB51012A08B544DD90F8EE
:104A9000563003F01F031D2B47D8DFE803F0151C29
:104AA0002115151515152615151515150F0F1515A5
:104AB0001515153030383815211717170B7880F871
:104AC00069304B7880F86830104608BD0B7880F864
:104AD0005730104608BD0B88A0F86A30104608BD54
:104AE0000B7880F84930104608BD114BD3F8CC1D27
:104AF000C16493F9D03D80F85030104608BD0B7862
:104B000080F849304B7880F84B30104608BD0B7860
:104B100080F84A30104608BD2221064810F054FFA4
:104B2000054811F0EDF9002008BD002008BD00BFC8
:104B300050C8FF1FE4C8010090A4FF1F2DE9F843EF
:104B400090F84450574E584C002D08BF3446154637
:104B500014BF0A270D277D2900F2A280DFE801F0AB
:104B600046A0A0A0A0A0A0A0A0A0A0A0A0A0A0A09F
:104B7000A0A0A0A0A0A0A0A0A0A0A0A0A0A0A0A035
:104B8000A0A0A0A0A0A0A0A0A0A0A0A0A0A0A0A025
:104B9000A0A0A0A0A0A0A0A0A0A0A0A0A0A0A0A015
:104BA000A0A0A0A0A0A0A0A0A0A0A0A0A0A0A0A005
:104BB000A0A0A0A0A0A0A0A0A0A0A0A0A0A0A0A0F5
:104BC000A0A0A0A0A0A0A0A0A0A0A0A0A0A0A0A0E5
:104BD000A05D6C6267717A80868A8E949A3F2A788B
:104BE00080F856201D462846BDE8F88307EB4707A6
:104BF000033FDFF8B890A846064627442379617939
:104C000019F803302A463046FFF798FF0334A742CD
:104C10000544F3D1C8EB0505E5E72A7880F848207C
:104C20001D46E0E72A7880F853201D46DBE72A88F6
:104C3000A0F854201D46D6E72A7880F852201D4659
:104C4000D1E7297890F8562061F304021D4680F8D8
:104C50005620C8E7B5F90020A0F858201D46C2E745
:104C6000B5F90020A0F85A201D46BCE72A68C265A5
:104C70001D46B8E72A6802661D46B4E7B5F900206C
:104C8000A0F864201D46AEE7B5F90020A0F8662024
:104C90001D46A8E71A462946BDE8F843FFF7F4BECB
:104CA0000025A0E778C101002CC1010018C1010056
:104CB00010B58AB00446242201A80FF06BF901AAAE
:104CC000204624230021FFF739FF94F84430002BBD
:104CD00014BF0E2018200AB010BD00BF012A08B56D
:104CE0003ADD90F8563003F01F031D2B3DD8DFE866
:104CF00003F0151C21151515151515151515151588
:104D00000F0F151515151526262E2E1521171717F9
:104D100090F869300B7090F868304B70104608BD01
:104D200090F857300B70104608BDB0F86A300B8011
:104D3000104608BD90F849300B70104608BD90F839
:104D400049300B7090F84B304B70104608BD90F80E
:104D50004A300B70104608BD2221054810F034FE81
:104D6000044811F0CDF8002008BD002008BD00BFA8
:104D700008C9010090A4FF1F2DE9F84390F84450A2
:104D8000604E614C002D90460ABF34460A270D271D
:104D90007D2900F2B380DFE801F046B1B1B1B1B1D5
:104DA000B1B1B1B1B1B1B1B1B1B1B1B1B1B1B1B1F3
:104DB000B1B1B1B1B1B1B1B1B1B1B1B1B1B1B1B1E3
:104DC000B1B1B1B1B1B1B1B1B1B1B1B1B1B1B1B1D3
:104DD000B1B1B1B1B1B1B1B1B1B1B1B1B1B1B1B1C3
:104DE000B1B1B1B1B1B1B1B1B1B1B1B1B1B1B1B1B3
:104DF000B1B1B1B1B1B1B1B1B1B1B1B1B1B1B1B1A3
:104E0000B1B1B1B1B1B1B1B1B1B1B15E73656C7AEB
:104E1000838A91979DA4AB3F90F8562088F8002094
:104E20001846BDE8F88307EB4707033FDFF8DC903F
:104E30000646274445462379617919F803302A4606
:104E40003046FFF799FF0334BC420544F3D1C8EB69
:104E50000500BDE8F88390F8482088F8002018463F
:104E6000BDE8F88390F8532088F800201846BDE884
:104E7000F883B0F85420A8F800201846BDE8F8835D
:104E800090F8522088F800201846BDE8F88390F882
:104E90005620C2F3040288F800201846BDE8F883C3
:104EA000B0F95820A8F800201846BDE8F883B0F9FA
:104EB0005A20A8F800201846BDE8F883C26DC8F84B
:104EC00000201846BDE8F883026EC8F80020184696
:104ED000BDE8F883B0F96420A8F800201846BDE8C2
:104EE000F883B0F96620A8F800201846BDE8F883DA
:104EF0001A464146BDE8F843FFF7F0BE0020BDE882
:104F0000F88300BF78C101002CC1010018C1010065
:104F1000F0B58BB00E4601AA242300210746FFF707
:104F20002BFF31460246054601A80FF07DF897F8A1
:104F300044301648002B4FF00D0114BF0E241824E6
:104F400010F042FD00230A223978114810F0FEFFCC
:104F50000221104810F038FD31460D4811F036F8A6
:104F600001210D4810F030FD2946094811F02EF8B6
:104F70000121094810F028FD2146054811F026F8C6
:104F8000034810F0BDFF20460BB0F0BD2CC9010056
:104F900090A4FF1FC8CD010080C60100012A08B5FA
:104FA00024DD90F852300F2B29D8DFE803F01A1ACD
:104FB0000808100E0E0E0E0E0E0E0E0E0E0E0B78B4
:104FC00080F845304B7880F84730104608BD0D4BCF
:104FD000D3F8CC1D816493F9D03D80F84C30104655
:104FE00008BD0B7880F84630104608BD22210648DF
:104FF00010F0EAFC054810F083FF002008BD0020F7
:1050000008BD00BF50C8FF1FE4C8010090A4FF1FE7
:1050100080292DE9F843144644D00AD9822932D098
:1050200025D3832935D11A462146BDE8F843FFF739
:10503000B5BF7E2930D020D859BB1D4DDFF8749004
:105040000646174605F11208144601237E2103E0A7
:105050002B79697919F8033022463046FFF7D8FFDB
:10506000033545450444F3D1E01BBDE8F8831288BD
:10507000A0F850201846BDE8F883127880F84E203A
:105080001846BDE8F883127880F852201846BDE82B
:10509000F8830020BDE8F883127880F84420184691
:1050A000BDE8F883127880F84F201846BDE8F883F1
:1050B000A0C1010018C1010010B584B0044610223F
:1050C00068460EF067FF6A46204610230021FFF76E
:1050D0009FFF082004B010BD70B5054608460E4677
:1050E0000EF03EFFB41C85F85C01214605F1EC0092
:1050F000FFF7E2FF04442146281DFFF7D9FD0444D1
:10510000214605F17800FFF7D3FD2044831B2A7860
:105110000249034810F00CFF302070BD3CC901006B
:1051200090A4FF1F012A10B514DD90F852400F2CF7
:1051300017D80123A3404FF6F0741C409CB913F01C
:105140000C0F12D113F003030BD090F846300B7004
:10515000104610BD2221094810F036FC084810F016
:10516000CFFE002010BD104610BD90F845300B70EA
:1051700090F847304B70104610BD00BFE4C80100E6
:1051800090A4FF1F80292DE9F843144644D00AD982
:10519000822932D025D3832935D11A462146BDE84C
:1051A000F843FFF7BFBF7E2930D020D859BB1D4D33
:1051B000DFF874900646174605F1120814460123DD
:1051C0007E2103E02B79697919F8033022463046B5
:1051D000FFF7D8FF033545450444F3D1E01BBDE894
:1051E000F883B0F8502022801846BDE8F88390F884
:1051F0004E2022701846BDE8F88390F852202270A5
:105200001846BDE8F8830020BDE8F88390F84420F4
:1052100022701846BDE8F88390F84F202270184697
:10522000BDE8F883A0C1010018C101002DE9F041DB
:1052300084B00F4610236A4600218046FFF7A2FF84
:10524000184C194D02460646394668460EF0ECFEEB
:105250000E21164810F0B8FB00230A2298F800101F
:10526000204610F073FE0221114810F0ADFB3946C4
:10527000204610F0ABFE2846012110F0A5FB314678
:10528000204610F0A3FE2846012110F09DFB0821C6
:10529000204610F09BFE204610F032FE082004B09D
:1052A000BDE8F08190A4FF1F80C601005CC9010029
:1052B000C8CD010070B5054682B002A895F85C31F2
:1052C00000F8013D01228C1C0E460EF0ADFE214679
:1052D00005F1EC00FFF7AAFF04442146281DFFF763
:1052E00017FE0444214605F17800FFF711FE132153
:1052F0000444164810F068FB00230A222978144859
:1053000010F024FE0221134810F05EFB31461048D5
:1053100010F05CFEA61B01210F4810F055FB314632
:105320000B4810F053FE01210B4810F04DFB2146B5
:10533000074810F04BFE064810F0E2FD2B78082BD2
:105340000CBF3046302002B070BD00BF6CC90100F8
:1053500090A4FF1FC8CD010080C6010070B5FA29D6
:1053600082B00C4605463DD3FB2925D9FC2939D10D
:10537000234E2449002385F82030142206F6847039
:1053800013F08CFA204B1B68019341F2840141F227
:10539000880342F21070019A7050F250200240F0DF
:1053A0000F000FF0E1FFAB6A5B6D186803682146E0
:1053B0001B68984702B070BD114E1449012385F84F
:1053C0002030142206F6847013F068FA0E4B1B6826
:1053D000009341F2840141F2880342F21070009A76
:1053E0007050F25004F10803DBB2072BE2D801221F
:1053F00002FA03F313F0DD0FD0D102B070BD00BF8D
:1054000050C8FF1F8CC90100ACE0FF1F80C901001C
:1054100038B504460FF032F8236B226AC31A9A4259
:10542000054616D3636AE26A03EB4303AD1AAB4247
:105430000ED20C4D0C480D490D4A00232B602362FF
:10544000E3622363636284F8343003600B601360AB
:1054500038BDF8210748FFF781FF226B236A134408
:105460002363DFE77CE0FF1F78AFFF1FA4AFFF1FC0
:1054700004B0FF1FFCD8FF1F30B5037883B0002BAA
:1054800038D090F852200D2A044633D0042A0D4615
:105490004ED018460EF0DEFF94F83C30B3B194F8CD
:1054A0003D30984241D02F4B1A680192019A2264F4
:1054B0001B680093009BB4F850109B1A021C18BF85
:1054C000012284F83D208B4298BF0220022811D08F
:1054D000A38A98420ED0A08280B994F8523003F08B
:1054E000FD03012B39D1A27E82F001021346A27680
:1054F00011460DE00025284603B030BD94F8523027
:1055000003F0FD03012BF5D000210A460B46A276DD
:105510002B6094F854000EF097FF94F85230042B4F
:1055200011D00125284603B030BD226C0D4BBFE7DA
:10553000026A002AADD090F83420002AA9D0FFF7E3
:1055400067FF2378A5E7A57E002DEAD094F94C20CB
:10555000A16C2046FFF7B0F9CDE701210A460B46C2
:10556000D5E700BFACE0FF1FF0B52F4C6378022BEE
:1055700087B035D0032B2CD0012B02D00023DB7B4E
:10558000FFDE237803EB430304EBC31303F59A73A5
:10559000DB7B254D254906AAC3F3830301332D2761
:1055A00042F8043D0026012303970827019305F6DE
:1055B000446002960097FDF71FFF6378022B2CD002
:1055C000032B23D0012B12D0F37B66F38503F373F7
:1055D000FFDE237803EB430304EBC313C433D7E7A5
:1055E000237803EB430304EBC3135033D0E72B784A
:1055F00003EB430305EBC31505F59A75059BEA7BA1
:10560000013B63F38502EA7307B0F0BD2B7803EB2F
:10561000430305EBC315C435F0E72B7803EB4303D5
:1056200005EBC3155035E9E750C8FF1F54C601000C
:105630002DE9F84F8A46002961D0404BDFF82081E0
:105640003F4AC8F8102093E8030000230A0CC8F86A
:105650000000A8F8041088F8062088F81430012704
:10566000384DC82405F1690B07E0BAF1000F36D1B7
:1056700007350134AB45E4B220D02B78002BF4D0B1
:105680007E0006EB070908EBC909484606222946B1
:1056900013F004F9BAF1000F2BD12B4BC9F81030DD
:1056A0003E4408EBC6060735002301373475AB4589
:1056B00004F10104FFB2B371E4B2DED1234B244CF8
:1056C00093E8070007EB470308EBC308A8E80300CB
:1056D0000023A8F8002063713846BDE8F88F1D4A02
:1056E0007E0092E80300F31908EBC30248F8330088
:1056F0009180F31908EBC303174A1A61D0E7DFF86A
:1057000060800E4A88F8141092E80300134BC8F822
:1057100000000E0CA8F8041093E8070008F1180325
:1057200003C3094D064CC8F8285088F8066088F86D
:105730002CA0C8F810401A80022791E7A8C90100E0
:10574000C558000029D6FF1FCD5900009CC9010093
:1057500024C3FF1F94C901000D590000B0C9010006
:10576000C0B9FF1F2DE9F84F0021FFF761FFDFF8F7
:1057700070B0DFF86090DFF86C8082460546012645
:10578000002705EB450409EBC4042046267559465D
:10579000C4F810800622013613F080F80135302E4F
:1057A000A771EDB20BF1070B0A4B4FF00004E8D1E3
:1057B000094A0A4D07CA0AF12F0A5FFA8AFA0AEB68
:1057C0004A0603EBC60303C31A806C715046BDE85A
:1057D000F88F00BFC0B9FF1FBCC9010024C3FF1F61
:1057E0006FC20100CD590000324B2DE9F0479942BC
:1057F0004FF00004824644614DD02F4B99420E4633
:1058000050D0A046DFF8B89000E0013430460AF0EE
:10581000DFFE84422146304618DA0AF0C1FE037DDD
:10582000002BF2D0214630460AF0BAFE07460FCFD1
:1058300008EB480509EBC5050FC597E8030008F11B
:10584000010885E803005FFA88F8DEE730460AF0D1
:10585000BFFE014630460AF0A3FE05460FCD08EB19
:10586000480409EBC4040FC495E8030084E803006E
:10587000124B72795A71FF2201218AF8632283F850
:1058800004808AF862125046C3F800900B49BDE8C4
:10589000F0470AF059BFFFF765FFDFF82490074B88
:1058A0008046E8E70121FFF7C3FEDFF81490034BC1
:1058B0008046E0E79CDDFF1F78B7FF1F24C3FF1F72
:1058C000C0B9FF1F70B50F4C41F2F403D4F8602E3D
:1058D000E058D4F85C1E0568C2F1400382B01BB2E8
:1058E00000268DE84800C1F1800312B21BB22D6C76
:1058F00009B2A84704F644600349FFF775FF012089
:1059000002B070BD50C8FF1F9CE0FF1F70B541F290
:105910009C032B4CE55C82B0D5B12A4B1B78284DFB
:105920002949C3EBC303E2182D230024019302F697
:10593000D95205F6446000940623FDF7BBFCB0B1D4
:1059400041F29C03EC5402B0BDE87040FFF7BABFCF
:10595000D4F8501ED4F84C0E0AF022FE007D194BEC
:1059600000F13802D2B20F2A187002D9012002B019
:1059700070BD6178022905D0032919D001290FD003
:10598000AD72FFDE217801EB410104EBC111503112
:1059900041F29C0500F1390688721A706655BDE720
:1059A000217801EB410104EBC11101F59A71EFE798
:1059B000217801EB410104EBC111C431E8E700BFDC
:1059C00050C8FF1FA4DDFF1FC8C9010010B5194B47
:1059D0005A78022A26D0032A1DD0012A08D0D3F8EB
:1059E000501ED3F84C0E0AF0DBFD00239B72FFDE45
:1059F0001C7804EB440403EBC41404F59A74D3F844
:105A0000501ED3F84C0E0AF0CBFD037DA372BDE807
:105A10001040FFF757BF1C7804EB440403EBC41499
:105A2000C434ECE71C7804EB440403EBC414503496
:105A3000E5E700BF50C8FF1F30B5304C637885B034
:105A40002022022BADF80C2034D0032B2BD0012BBD
:105A500002D000235B7AFFDE237803EB430304EBE1
:105A6000C31303F59A735B7A03B920238DF80C30C6
:105A700000252D23019303AA0123009520492148E5
:105A8000FDF718FC9DF80C306278202B08BF8DF8CC
:105A90000C50022A194B2AD0032A21D0012A10D0F7
:105AA00000235B72FFDE237803EB430304EBC31395
:105AB000C433D8E7237803EB430304EBC313503319
:105AC000D1E71A7802EB420203EBC21303F59A7393
:105AD0009DF80C205A7208B1FFF7F4FE05B030BDF6
