:1000000000800020BD010000A13801005938010026
:100010005938010059380100593801005938010098
:10002000593801005938010059380100A138010040
:10003000A138010059380100D5530100D9530100FE
:10004000A1380100A1380100A1380100A138010048
:10005000A1380100A1380100A1380100A138010038
:10006000A1380100A1380100A1380100A138010028
:10007000A1380100A1380100A1380100A138010018
:10008000A1380100A1380100A1380100A138010008
:10009000A1380100A1380100A1380100A1380100F8
:1000A000312301003D230100A1380100A1380100E6
:1000B000A1380100A1380100A1380100A1380100D8
:1000C000A1380100A1380100A1380100A1380100C8
:1000D000A1380100A1380100A1380100A1380100B8
:1000E000A1380100A1380100A1380100A1380100A8
:1000F000A1380100A5600100A1380100A13801006C
:10010000A1380100A1380100A1380100A138010087
:10011000A1380100A1380100A1380100A138010077
:10012000A1380100A1380100A1380100A138010067
:10013000A1380100A1380100A1380100A138010057
:10014000A1380100A1380100A1380100A138010047
:10015000C5550100D9550100ED55010001560100BA
:10016000A1380100513F0100A1380100A138010070
:10017000A1380100A1380100A1380100A138010017
:10018000A1380100A1380100A1380100A138010007
:10019000A1380100A1380100A1380100A1380100F7
:1001A000A1380100A1380100A1380100A1380100E7
:1001B000A1380100A1380100A1380100564B4CF2D2
:1001C000205210B51A804DF628121A8000BF00BFC9
:1001D00013F06AFB514B4FF010621A60504A9A605C
:1001E000504ADA60504A136813F4807304D14F49BF
:1001F0000B604FF4A85313604D4B1A78110703D5C9
:100200001A7842F008021A704A4B4B492A221A7097
:100210004A4A4B4B8B4204D252F8040F43F8040B6A
:10022000F8E7484B484900228B4202D243F8042B9E
:10023000FAE74649464A002352F8230041F82300D2
:1002400001336F2BF8D1434B434A802103F8011B44
:100250009342FBD1414B3D4A1A60414B8A221A70AE
:10026000A3F5805324225A70A0221A709A7992071B
:10027000FCD59A79D406FCD43A4A937903F00C035E
:10028000082B384BF9D103221A7140225A719A79FE
:100290009006FCD5334A9179324B4906FBD5324A58
:1002A000324911600221516020221A709A7902F0BD
:1002B0000C020C2AFAD12E4B2E4A1A602E4B2F4AD2
:1002C0001A6000225A60072243F8042C2C4AC3F813
:1002D0000C2D62B613F0E2FC144B1B68DA0705D54F
:1002E000284813F03FFC284B284A1A60284B1B78FB
:1002F0005B0609D5244C254B22689A4204D121483B
:1003000013F030FC0023236016F0B4FF13F0D2FA90
:1003100015F0DEFAFEE700BF0E20054030800440F5
:10032000823F04000100002B10D0034014D0034092
:1003300002D0074000E0074008AFFF1FE4E40100DF
:10034000308CFF1F08AFFF1FC0E3FF1F0082FF1F9D
:100350000000000000E400E05FE400E008ED00E0E1
:100360000050064000400640448004400000030165
:1003700004800440C010050014E000E0FF76010096
:10038000000020206AB605601CE00340A5C3945A13
:1003900000F00740FFFFFFFFFFFFFFFFFFFFFFFF32
:1003A000FFFFFFFFFFFFFFFFFFFFFFFFFFFFFFFF5D
:1003B000FFFFFFFFFFFFFFFFFFFFFFFFFFFFFFFF4D
:1003C000FFFFFFFFFFFFFFFFFFFFFFFFFFFFFFFF3D
:1003D000FFFFFFFFFFFFFFFFFFFFFFFFFFFFFFFF2D
:1003E000FFFFFFFFFFFFFFFFFFFFFFFFFFFFFFFF1D
:1003F000FFFFFFFFFFFFFFFFFFFFFFFFFFFFFFFF0D
:10040000FFFFFFFFFFFFFFFFFFFFFFFFDEF9FFFF23
:1004100010B5054C237833B9044B13B10448AFF33E
:1004200000800123237010BD08AFFF1F00000000F3
:10043000E0E40100084B10B51BB108490848AFF3D0
:1004400000800848036803B910BD074B002BFBD0A0
:10045000BDE81040184700BF000000000CAFFF1FB0
:10046000E0E4010008AFFF1F00000000704700BF7C
:10047000074A10B51378074C41F26C0083F0010372
:1004800020581370194611F0EFFA012010BD00BF7B
:1004900090B7FF1F40C8FF1F70B541F26803284C9A
:1004A0000546E05812F0ACF8B4F81A3DB4F8182D2F
:1004B000181A83B29342A4F81A3D2CD014D86A6952
:1004C000002AC4BF02F1FF326A61AA685279022A87
:1004D00027D04FF0FF30FF22A4F8183D012185F806
:1004E000632285F8621270BDA8686E690FF010FC77
:1004F0002B69C01A864202DA6B6901336B61AB6803
:100500005B79022B09D123780D4A072B12D9B2F857
:100510001A3DA4F8183D002070BDB4F81A3D012022
:10052000D9E722780649002AF3D0013A0A704FF041
:10053000FF30D0E7013313700120B2F81A3DCAE74B
:1005400040C8FF1F024A41F26803D05812F09CB81D
:1005500040C8FF1F10B5044600F5835015F010F891
:1005600004F58250183015F00BF8204610BD00BF7E
:10057000234B1B6803F16402904270B504DA643BBC
:10058000984201DD022070BD1E4B1B6803F164021E
:10059000904204DA643B984201DD032070BD1A4B9F
:1005A0001D680446B5F95800C0F13C0016F0C6FBC2
:1005B0000646B5F95A0016F0C1FB0146304616F062
:1005C000C5FC0646286E16F0B9FB0146304616F00B
:1005D00009FC0646E86D16F0B1FB0146304616F000
:1005E000F9FA16F0C5FD00F164039C4205DA64389F
:1005F0008442D4BF0020012070BD002070BD00BF28
:10060000C0AFFF1FC4AFFF1F10C3FF1FF8B5427A72
:1006100005460E4602B301230A701C46A97A89B129
:10062000C7291CD93831C9B2164FC1EBC1010F44DB
:10063000F018394617F0FEFB384617F061FC2044ED
:10064000C4B22346EA7A1AB10134E4B2F254234622
:100650000022F2542046F8BD13461446DEE70A4F46
:10066000C1EBC101F0183944062217F0B7FCA87A93
:10067000C0EBC000384417F043FC2044C4B223460A
:10068000E0E700BF91D5FF1FB8B901002DE9F041A7
:100690001A4D41F298440646285911F04FFF38B3DD
:1006A000B3685B79022B15D041F29847DFF84C8094
:1006B000E85911F047FF044610B92046BDE8F08123
:1006C00058F8070011F0E6FE0023C6F85432204621
:1006D000BDE8F081D6F85432B3F57A7FE4D901242D
:1006E000002385F8FA4E2046C6F85432BDE8F08162
:1006F000285911F017FFC6F85402D1E740C8FF1F70
:1007000001207047012070472DE9F04F2F4EDFF890
:10071000C89041F26C0585B0735903901A680027A0
:100720004FF01A080197CDF80080146C18462D225E
:100730007B233946A0477059012110F023FA7459E0
:1007400023492368A7822A224FF0010A4FF0040BA5
:100750005B682282A4F812A00822A4F80EB02046FA
:100760009847204614F06CFF039A1A4B745953F8BB
:100770002210A4F80EB0322323820846039117F00A
:10078000BFFB236803995B680246204698472046D2
:1007900014F056FF705903688DE80005252239468C
:1007A000DC6C7B23A04713F009FAD9F8003047F23C
:1007B0002F52C01A904206D9705911F04FF813F019
:1007C000FDF9C9F8000005B0BDE8F08F40C8FF1F73
:1007D00090BD0100548DFF1F3CC8FF1F2DE9F04361
:1007E00090F96332664E013387B0044661D041F21E
:1007F0006C030121F05810F0C5F925696369A06800
:100800001D440FF085FA854280F2A880636927694C
:1008100094F963821F44E368984541F26C0300F049
:10082000A980F3580121002259829A8202AD2946FB
:10083000424620460FF0D0FA284617F061FB0D28FB
:1008400007DC28440DF11602202300F8013B9042FA
:10085000FBD16269E369A16941F26C00C2EB08084F
:100860003658093303EBC8034FF000098DF8169092
:1008700028463382F18117F043FB336802465B68F8
:10088000294630469847304614F0DAFE94F8633231
:1008900001335BB2BB4284F8633202D007B0BDE8DB
:1008A000F083FF2384F8629284F8633207B0BDE8D6
:1008B000F08341F26C050121705910F063F9A368CF
:1008C00072591F68002101205082918218460FF052
:1008D0001FFA00B200EB400102AD07EBC1010E228E
:1008E000284617F07BFB284617F00AFB0D2807DC8B
:1008F00028440DF11602202300F8013B9042FBD161
:1009000041F26C08B4F91C3056F80870A269002155
:100910008DF816102846FA813B8217F0F1FA3B68F1
:10092000024629465B6838469847384614F088FEE8
:10093000E26956F80800A1690568083212B201237D
:100940008DE80C0001F15403AD6C1BB209B2A8474D
:10095000636984F8633207B0BDE8F083A0680FF0E4
:10096000D7F9E36894F963829845074641F26C032E
:100970007FF457AFF3580021012259829A8255E73C
:1009800040C8FF1F70B5044608460D4617F0B8FA78
:1009900023680246294620465B68BDE87040184738
:1009A0002DE9F04F002387B00122437000F6185361
:1009B0004FF00008027000F10409049305904FF015
:1009C0007E53C9F80C304FF0000389F81E304FF009
:1009D0003C03002701244FF0280A89F80A304FF61B
:1009E0001943A9F81C3089F8107089F8117089F83A
:1009F000127089F81370C9F82070C9F82470C9F80A
:100A00002870C9F82C70C9F83070C9F8347089F8AA
:100A1000387089F80470A9F81870A9F81A7089F864
:100A2000084089F80940A9F8144089F80BA038203B
:100A300014F056FF4FF0010606754FF0814606612F
:100A40004FF48066394646603A46ED4BC0F8188050
:100A5000C0F8208080F82470054612F077FA99F8E3
:100A60005A30C9F83C5003F0800367F3C71389F884
:100A70005A30E44BC9F8443040F6FF73C9F860308F
:100A8000E14BC9F864304FF07F0389F86C3089F886
:100A90006D304FF47A73A9F86E304FF0FF3389F858
:100AA00074304FF03C024FF6FF734FF0780B89F82B
:100AB0004E206B604FF07E52D44BC9F850202B6112
:100AC00089F8417089F8404089F8487089F84C40AD
:100AD00089F84D4089F84FA089F8547089F855700D
:100AE00089F8567089F85770A9F85840A9F85C70D1
:100AF000A9F86870A9F85EB0A9F86AB0382014F0B7
:100B0000EFFE46604FF08146224639460661C04BF3
:100B10000475C0F81880C0F8208080F8247005465D
:100B200012F014FA4FF03C0389F87E304FF6194367
:100B3000A9F890304FF07E53C9F8803040F6FF732B
:100B40006B604FF08043C9F8705089F8757089F870
:100B50007C4089F87D4089F87FA089F8847089F805
:100B6000857089F8867089F88770A9F88840C9F877
:100B70009470C9F89870C9F89C70C9F8A070C9F849
:100B8000A470C9F8A87089F8AC7089F87870A9F8D1
:100B90008C70A9F88E7089F892702B61A9F81A7080
:100BA000382014F09DFE4FF4806646604FF0814679
:100BB000394606613A46924B0475C0F81880C0F871
:100BC000208080F82470054612F0C0F98D4AC9F8DB
:100BD000B8204FF03C0299F8CE3089F8C22040F698
:100BE000FF72C9F8D420884AC9F8D82003F08003DE
:100BF0004FF07F0289F8E02089F8E12067F3C713FE
:100C00004FF47A72A9F8E22089F8CE304FF0FF3223
:100C10004FF6FF7389F8E8206B604FF07E527B4BF4
:100C2000C9F8B050C9F8C42089F8B57089F8B44043
:100C300089F8BC7089F8C04089F8C14089F8C3A020
:100C400089F8C87089F8C97089F8CA7089F8CB70BA
:100C5000A9F8CC40A9F8D070A9F8D2B0A9F8DC70F6
:100C6000A9F8DEB02B61382014F03AFE4FF480660C
:100C700046604FF08146224639460661644B047552
:100C8000C0F81880C0F8208080F82470054612F063
:100C90005DF94FF61943A9F804314FF03C0389F888
:100CA000F2304FF07E53C9F8F43040F6FF736B60BA
:100CB0004FF08043C9F8E450A9F88E7089F8E970C4
:100CC00089F8F04089F8F14089F8F3A089F8F870C4
:100CD00089F8F97089F8FA7089F8FB70A9F8FC4076
:100CE000C9F80871C9F80C71C9F81071C9F8147104
:100CF000C9F81871C9F81C7189F8207189F8EC706D
:100D0000A9F80071A9F8027189F806712B613820E1
:100D100014F0E6FD4FF4806646604FF081460546CC
:100D2000374B06613A463946C0F81880C0F8208033
:100D3000047580F8247012F009F94FF6FF736B60A8
:100D4000324B2B612F4BC9F82C314FF03C0389F803
:100D500032314FF0FF3389F8403189F800304FF0DD
:100D60003C0389F863314FF07E53C9F83431C9F838
:100D7000245189F833A189F8297189F8284189F823
:100D8000304189F8314189F8387189F8397189F829
:100D90003A7189F83B71A9F83C4189F83E7189F8AC
:100DA0004471C9F84871C9F8547189F8587189F8C3
:100DB0005C7189F8607189F8617189F8627189F8EC
:100DC000644189F86571C9F86871C9F86C7189F86E
:100DD0007271049B89F8717189F8707109F5BA799B
:100DE00099457FF4ECADDDF814A00A489AF8493D26
:100DF0000949CAF8440D4FF0FF32AAF8182D0DE04A
:100E000017B7D1389F86010001F0FFFF0000604254
:100E10000AD7233C9A99993F52491D3A4FF0000254
:100E20008AF81C2D40F6FF72CAF8202DA24ACAF893
:100E3000242D40F6FF72CAF82C2DCAF8302D9E4A98
:100E4000CAF8342D40F6FF72CAF8382D9A4ACAF80B
:100E50003C2D4FF47A7223434FF0000547F2305493
:100E6000AAF8402D11228AF8493D8AF8485DAAF86F
:100E70001A4DCAF84C1D8AF8502D39466922CAF815
:100E8000287D0AF6515016F05BFD0AF6BC500EF0B4
:100E900041FF8A4B8AF8DC5D8AF8EA5ECAF8BC3DFD
:100EA000FB223946CAF8E07EAAF8E87ECAF8FC7E42
:100EB0000AF5706016F044FD0AF5805341F2040013
:100EC00041F2080541F20C0241F21006CAF8FC7F1B
:100ED0001F604AF8007041F214004AF8057041F2B0
:100EE0001C034AF8027041F215054AF8067041F2F7
:100EF00018024FF000060AF8006041F21D000AF8DF
:100F000005604AF8027041F21E050AF803604FF0CE
:100F1000FF360AF800600AF5815441F21F024FF0D3
:100F200000060AF805604FF0010E07264FF0FF3566
:100F300020460AF802502346276036228AF8F9EE46
:100F4000CAF8CC6D4FF0000E13305D4DCAF8D42DA9
:100F50004FF00106CAF8D07DCAF8D87D8AF8FAEEBB
:100F60008AF8FBEE7F21024684F82460A76284F8A9
:100F700030E0E562033303F8011F834202F8011FEA
:100F8000F9D141F2580100200AF583540AF5825242
:100F900041F270064AF8010041F27405802196275B
:100FA00011772171206084F83000C4F8F40384F8CC
:100FB000F803C4F8FC03C4F8000484F8360441F2D2
:100FC00078024AF806704FF415764AF8056041F247
:100FD0007C0140F212464AF802600AF584534FF44D
:100FE000BA664AF8016041F2840541F2880240F293
:100FF0008E761E6041F28C0140F64C1340F60A36A4
:101000004AF805304AF8026040F6C8450AF5A3538D
:101010000AF5A4524AF801500333014684F8370414
:10102000153203F8011F93424FF00004F9D19420C8
:1010300014F056FC054611F0D9FB41F2540324206C
:101040004AF8035014F04CFC0423072206218DE8D3
:1010500018004FF0FF33054611F07EFA41F26803A5
:1010600010204AF8035014F03BFC044611F0E0F95C
:1010700041F2984313484AF8034010F01DFE0E2138
:10108000104810F081FE642014F02AFC0E4B0393EC
:10109000092108220A238DE80E000A4B40228021F4
:1010A00004460FF06BFF41F26C0350464AF80340D0
:1010B00007B0BDE8F08F00BF01F0FFFF2CD00100AA
:1010C00010DDFF1F5CA2FF1F00127A0030B583B055
:1010D0000546069C002CCABFE0B2007D28752B6136
:1010E0004BB942B2002A02DD194612F04DFD002331
:1010F0002B7003B030BD084BA9601B68019343B24D
:10110000019CEA600121002B6C602970F1DD12F076
:101110003BFD03B030BD00BF14E0FF1F0369F3B116
:1011200010B516490278096882B0012A0191019927
:1011300016D04468C26822448A420ED2002B416015
:1011400002DD013B036143B1037D5AB20121002A54
:10115000017002DD184612F017FD02B010BD704795
:101160004268836813448B42F7D2037D41605AB2D0
:1011700000218A420170EDDCEFE700BF14E0FF1FA1
:1011800070B5064E41F29845705911F0DBF90446EE
:1011900010B1705911F07EF9204670BD40C8FF1F94
:1011A00038B5144C41F268030546E05811F028FAAE
:1011B000B4F81A3DB4F8182D181A83B29342A4F863
:1011C0001A3D15D00C4A11680AD80029CCBF01F18C
:1011D000FF31002111604FF0FF30A4F8183D38BDF9
:1011E000A942B8BF013111600120A4F8183D38BDF3
:1011F000002038BD40C8FF1F74AFFF1F2DE9F04F1E
:10120000914BDFF8789241F26C048FB018590025A9
:10121000402203688DE8240029461E6C2A4680235C
:10122000B047894B012118590FF0ACFC864B874918
:1012300018590368858201265B68C58108220582EA
:1012400046829847804B19781859314414F05EFA59
:101250007D4B7F491859036807225B689847D9F886
:101260000000002800F0D98015F068FD4FF07C5197
:1012700015F0B8FD15F084F9734B1D590096024620
:101280000B46284614F04CFA6F4B72491C592368E0
:1012900032465B6820469847204614F0D1F9002377
:1012A00006936D4B0793DFF8D8810E230593059BBA
:1012B000079E043B1BB20493069B1D4603EB4303AE
:1012C000039300240127039BD9F80020D8F800A03D
:1012D000EB189A4200F09A804FF00003AAF81270BF
:1012E000AAF814300FFA84FBBDF81030AAF81030B9
:1012F00009A8AAF80EB0002D00F09B8016F000FEA1
:10130000DAF8003002465B6809A950469847504613
:1013100014F096F93378002B6CD11E34A4B2782CDB
:1013200006F1010605F10105CDD1059B069A0933A9
:101330009BB20593079B01320433052A069207935B
:10134000B5D141F26C04404A444910593723026830
:10135000038201250023566845828382C3810422CB
:10136000B0473F4B384A196810593E4E14F0CEF939
:10137000354B3D49185903682A465B689847324BFC
:101380003168185914F0C2F92F4B374918590368BE
:101390002A465B689847354B30681E687368C01AE8
:1013A00015F0CCFC0746B06815F0C8FC014638467D
:1013B00015F0CCFD2E4915F015FD15F0E1F8224B86
:1013C0001E59022702460B460097304614F0A8F932
:1013D0001D4B20491E5933682A465B6830469847A2
:1013E000304614F02DF9184B185910F037FA0FB099
:1013F000BDE8F08FD8F80000BDF91420036800970D
:10140000D3F83CA059461823D04786E74FF0000395
:10141000AAF81230AAF8147064E70B4B15491C594E
:10142000236820465B6803229847204614F008F999
:1014300035E7DAF8003010495B68042250469847D7
:10144000504614F0FDF868E740C8FF1F9CBD01003E
:10145000A8BD0100B0BD0100E4B1FF1FC0BD010087
:101460007C92FF1F6497FF1FC8BD0100ECAFFF1FF8
:1014700000002041B4BD0100B8BD010074AFFF1FE2
:10148000ACD8FF1F2DE9F04F9F4BA04AA04C1B6822
:101490001268596892F856609B6841F26C0785B0F3
:1014A000E059029300254022036803918DE824004F
:1014B00029462A46D3F840808023C047E0590121BD
:1014C0000FF060FBE0599349036885820122428254
:1014D000C58105825B680322984721780729C6F3F6
:1014E000411640F2DE806378E059022B03680CBF9E
:1014F00089498A495B6805229847894F3B68002BD8
:1015000040F0C78041F26C01012260584382828220
:10151000036884495B68082298473B68012B00F008
:10152000D58041F26C030122E55800236A82AB8228
:101530002B687D495B68DFF8D8B10322284641F269
:101540006C0A9847284614F07BF854F80A507749FB
:101550002B684FF000084FF0010911225B682A82C6
:10156000A5F812901022A5F81480A5F80E80284640
:101570009847284614F064F83B685BF80A00022B91
:101580004FF01B030382036807BFA0F81280A0F886
:101590001490A0F81290A0F814800022022EC281AC
:1015A0000CBF634963495B68102298473B68032B73
:1015B00041F26C0300F08480E05801220023428253
:1015C0008382252303820368022E4FF0000241F23A
:1015D0006C050CBF58495949C2815B681022984775
:1015E0006059574902680123438237270023078245
:1015F00057688382C3810422B847524B444A1B6810
:10160000002B0DDD504F555903EB83031F44384623
:1016100016F076FC2B68024639465B6828469847E8
:1016200041F26C050322605948490368384F5B68F2
:101630009847474B1868039B022EA0EB03004CD041
:1016400015F07CFB0646029815F078FB0146304603
:1016500015F07CFC3F4915F0C5FB14F091FF7D5956
:10166000022602460B460096284614F059F841F22D
:101670006C060122A55938492B6828465B689847B3
:10168000284613F0DDFFA05905B0BDE8F04F10F07B
:10169000E5B841F26C030122E058002342828382C4
:1016A00036E70131E05914F031F86378E059022B44
:1016B00003680CBF29492A495B68052298471CE743
:1016C000E05800220123428283827AE741F26C01D2
:1016D00000226558AB826A822AE715F02FFB80460C
:1016E000029815F02BFB0146404615F02FFC1D49D2
:1016F00015F078FB14F044FF7D59009602460B4626
:10170000284614F00DF8B2E7ECAFFF1F10C3FF1F1F
:1017100040C8FF1FCCBD0100D0BD0100D8BD0100F5
:1017200074AFFF1FF0BD0100B4BD0100FCBD01009E
:1017300010BE010024BE010038BE01004CBE0100F5
:10174000C0BD01007C92FF1F08BB010060BE01000C
:101750006497FF1F00002041B0BD0100E0BD010003
:10176000E8BD01000000A0402DE9F04F884B894EF4
:1017700041F26C05002458598BB0402203688DE873
:10178000140021461F6C22468023B847804B01215C
:1017900058590FF0F7F97E4B7F4958590368C481B7
:1017A00001275B680482848247820A229847336853
:1017B000002B40F0E080764A5059438287820368CC
:1017C00076495B68082298473368012B00F0D8807F
:1017D00041F26C036E49CC58012200236282A3823D
:1017E00023686F495B68DFF8D09103222046984751
:1017F000204613F025FF41F26C05654B69495C59A1
:1018000023684FF000080A2201265B682282A4F8B0
:101810000E801422A4F81280A68220469847204603
:1018200013F00EFF5A4B60495C592368A4F80E80F0
:1018300025225B682282204614229847204613F016
:10184000FFFE534B53F805A0584B594D0393AAF88C
:101850001260AAF814804FEAA80606EB460659F86B
:1018600004BF06EBC60608F003074FF0000CB6B243
:10187000C7EB071706F113037F00E345AAF8103002
:10188000AAF80E708DF818C064DB05AB06AC9C445A
:10189000A64601209BFBF0F385FB0321DA17C2EB80
:1018A000A10202EB8202A3EB420330330EF8013DAA
:1018B00000EB8000E6454FEA4000EBD105A816F0AA
:1018C0001FFBDAF8003002465B68504605A99847CE
:1018D000384BD3F800A0039B53F8041F039306F181
:1018E0001C030026B142AAF80E70AAF810308DF839
:1018F000186029DB05AB1E44012091FBF0F385FB4A
:101900000327DA17C2EBA70202EB8202A3EB420322
:10191000303304F8013D00EB8000A6424FEA40005E
:10192000EBD105A816F0ECFADAF80030024608F11F
:1019300001085B68504605A99847B8F1080F11D017
:101940001C4BD3F800A086E72D2349428DF81430B4
:101950000126CFE72D23CBF1000B8DF814304FF08B
:10196000010C92E741F26C03094AD0580FF076FF60
:101970000BB0BDE8F08F064B5859478284821EE7B2
:1019800041F26C01024844580022A382628227E798
:1019900040C8FF1F74AFFF1F64BE010070BE01008E
:1019A000B4BD01007CBE010094BE01006CB7FF1FF6
:1019B00067666666ACD8FF1FC4AFFF1F7C4B1A6812
:1019C000F0B40346D46DB2F9580007290CD8DFE80B
:1019D00001F0042D32517292B20D764A106891884E
:1019E0009279186099809A71F0BC7047126E002647
:1019F000A4185E7100F1BD806F4F1E4401200533B5
:101A000094FBF0F287FB0215D117C1EBA50101EBA6
:101A10008101A2EB4102303203F8012D00EB80007E
:101A2000B3424FEA4000EBD1F0BC7047634A106804
:101A30001860F0BC70470026041E5E71C0F2B280D0
:101A40005D4F1E440120053394FBF0F287FB021525
:101A5000D117C1EBA50101EB8101A2EB41023032AC
:101A600003F8012D00EB80009E424FEA4000EBD1CD
:101A7000F0BC7047B2F95A60002536185D7100F16C
:101A80008C804D4F1D440120053396FBF0F287FBFF
:101A90000214D117C1EBA40101EB8101A2EB4102B9
:101AA000303203F8012D00EB8000AB424FEA4000DA
:101AB000EBD1F0BC7047B2F964600025AE425D71B5
:101AC00066DB3D4F1D440120053396FBF0F287FB9A
:101AD0000214D117C1EBA40101EB8101A2EB410279
:101AE000303203F8012D00EB8000AB424FEA40009A
:101AF000EBD1F0BC7047B2F966600025AE425D7173
:101B000041DB2D4F1D440120053396FBF0F287FB8E
:101B10000214D117C1EBA40101EB8101A2EB410238
:101B2000303203F8012D00EB8000AB424FEA400059
:101B3000EBD1F0BC70470026B4425E711EDB1E4F35
:101B40001E440120053394FBF0F287FB0215D117E8
:101B5000C1EBA50101EB8101A2EB4102303203F898
:101B6000012D00EB8000B3424FEA4000EBD1F0BC06
:101B700070472D2264421A7001263DE72D226442EF
:101B80001A700126DBE72D2276421A700125B8E78C
:101B90002D2276421A70012593E72D2276421A7083
:101BA00001256EE72D2264421A70012648E700BF26
:101BB00010C3FF1FACBE010067666666B4BD0100BE
:101BC0002DE9F04F684CDFF8C8A141F26C068BB0EC
:101BD000A0590025402203688DE8240029462A46A2
:101BE0001F6C8023B847A05901210EF0CBFFA059EC
:101BF0005E490368858201225B684282C5810322B7
:101C0000058298472178A059013113F07FFD637850
:101C1000A059022B036808BF55495B6818BF554996
:101C200005229847DAF80030002B40F0838041F21B
:101C30006C01012260584382828203684E495B68CE
:101C400008229847DAF80030012B7BD041F26C0370
:101C50000122E55800236A82AB822B6847495B6802
:101C6000DFF82091032228469847284613F0E8FC25
:101C700041F26C030122E458414923686282002644
:101C800010225B682282A682E68120469847204681
:101C900013F0D6FC1C234FF0020B02934FEA4608C8
:101CA000BDF90830039308F1020818250024D9F87B
:101CB00000300121002259829A82002E49D0DAF8A0
:101CC000002008EB040191424FF001002ED00022C9
:101CD00058829A82BDF80C20DA811D820BEB040138
:101CE00005A8FFF76BFED9F8007005A816F008F9F3
:101CF0003B6802465B6805A9384698470134384678
:101D000013F09EFC0A35022CADB2D0D1029B0136F5
:101D10002A339BB2022E02930BF1020BBED1194B58
:101D200018680FF09BFD0BB0BDE8F08F00215982C1
:101D30009882CFE741F26C030122E05800234282EF
:101D400083827AE741F26C0100226558AB826A8295
:101D500083E718460C4924B1FEF714FE094B1B68B3
:101D6000ADE718460949F7E740C8FF1FCCBD0100A1
:101D7000E0BD0100E8BD0100F0BD0100B4BD0100FF
:101D8000B4BE0100ACD8FF1FC8BE0100D0BE010028
:101D900074AFFF1F30B40D4B5B78012B0C4B0AD98D
:101DA0001C68E56C056094F9500008701B681B6A9C
:101DB000136030BC70471B689C6C046093F94C0046
:101DC00008701B6A136030BC704700BF40C8FF1F1B
:101DD00010C3FF1F2DE9F04F91B008AA0DF11301B8
:101DE00007A8FFF7D7FF0898AC4C14F0A3FFAC4945
:101DF00015F0ACF80146AB4815F0A8F8AA4915F063
:101E0000A5F841F26C060746A05900250368019524
:101E100040220092D3F840802A4680232946C047BA
:101E2000A05901210EF0AEFEA059A0490368858299
:101E300001225B684282C58103220582984721788E
:101E4000A059013113F062FC6378022B00F0798114
:101E5000032B00F06F81012B00F0B580944E3368A6
:101E6000002B40F0A88041F26C01012260584382AF
:101E7000828203688F495B68062298473368012B8A
:101E800000F0518141F26C030122E55800236A827F
:101E9000AB822B6888495B68DFF800A204222846E1
:101EA00041F26C099847284613F0CAFB54F80950D0
:101EB00082492B684FF000080C224FF0010B5B6841
:101EC0002A82A5F812B01222A5F81480A5F80E8077
:101ED00028469847284613F0B3FB54F8090014230A
:101EE000A0F80E80038202210EF04CFE3268022A16
:101EF00070D041F26C019DF9133065580533012112
:101F00006982D9B200200A29A88273D9022A00F076
:101F100084800DF124082B6869495B684FF0010942
:101F20004FF0000A0222A5F81290A5F814A0284646
:101F30009847384614F024FB0B4602466149404658
:101F400015F052FF3368032B00F09B8041F26C03C5
:101F50000122E55800236A82AB82404615F0D0FF8B
:101F60002B6802465B68414628469847284613F08E
:101F700067FB3368032B00F0AF8041F26C05012151
:101F80006059514E454F0EF0FDFD6359002201216D
:101F90009A82598211F012FE336847F22F52C01A0A
:101FA000904205D978590FF059FC11F007FE3060C6
:101FB00011B0BDE8F08F41F26C030122E05800231C
:101FC0004282838255E7A0594049036806225B6834
:101FD000984743E73E4B1B78002B8AD09DF913307E
:101FE0005AF809500533DAB20A2AA5F81280A5F882
:101FF00014B08ED8374A52F82380404615F080FF3F
:102000002B6802465B68284641469847326841F291
:102010006C03022AE5587FF47CAF2D4B1A78002A16
:102020007FF477AF9DF913302A4905330DF11A0C6F
:1020300051F82310CDF808C00DF1180E0DF116035C
:1020400041F26C090DF1240828468DE80840CDF8CE
:102050000C8014230EF0D6FE54F80900BDF92410AC
:10206000056800914FF0010ECDF804E0ED6CBDF96C
:102070001A30BDF91820BDF91610A84754F80950B8
:1020800049E7134B1B78002B3FF460AF41F26C0320
:10209000E558A5F812A0A5F814905EE740C8FF1F08
:1020A00000007A4400606A470000C041CCBD0100D6
:1020B00074AFFF1FACBE0100B8BD0100F0BE01004F
:1020C000ECBE010004BF010044AFFF1FD8BE0100F9
:1020D000C099FF1FD4B801001D4B1B78002B7FF463
:1020E0004CAF41F26C050DF11A03039306AE0DF1EE
:1020F000160205AB605902964146019200933C22BC
:1021000014230EF07FFE6059BDF91A600568009631
:1021100001260196BDF91830BDF91620BDF914103D
:10212000ED6CA84729E741F26C0100226558AB82AB
:102130006A82AEE6A0590749036806225B689847A1
:102140008CE6A0590449036806225B68984785E637
:10215000C099FF1FE8BE0100E0BE010000B5807B12
:1021600000F01F03192B13D8DFE803F014142727FE
:1021700027333A2727272727201A0D141427272724
:1021800027271414140D002043F6FF730860136012
:102190005DF804FBC0F34110012812D0022826D0BC
:1021A00000207F23086013605DF804FB134B0B6075
:1021B00047F6FF7313605DF804FBC0F3411001287C
:1021C000EED16FF07F004FF48073086013605DF80C
:1021D00004FB0B4B0B6041F6FF7313605DF804FBCF
:1021E0006FF063006423086013605DF804FB002057
:1021F0003C23086013605DF804FB00BF0080FFFF14
:1022000000E0FFFF837B01F01F0161F30403837390
:10221000192915D8DFE801F021211515152F3A15D8
:1022200015151515411A0D21211515151515212105
:10223000210D002243F6FF73028282834382C3830F
:102240007047837BC3F34113012B2FD000227F23E0
:10225000028282834382C3837047837BC3F341132B
:10226000012B34D0022B2AD00022782302828283D1
:102270004382C38370474FF4604343F6FF7141F6D6
:10228000FF72038283834182C283704700226423EA
:10229000028282834382C38370474FF4004247F631
:1022A000FF73028282834382C38370477F230021AE
:1022B0004FF6817201824382C38382837047002379
:1022C0003C217822038283834182C2837047782332
:1022D0004FF6C4714FF6887201824382C3838283B2
:1022E000704700BF2DE9F041554D564C2B785649AB
:1022F00062780020012B08607FD0012A40F286809E
:10230000022A7AD0032A52D0504E306890F85620D4
:10231000DFF868814E4FDFF868E1DFF868C112F03E
:10232000600118BF012188F8001000F158013960E0
:10233000C16DCEF80010DFF850E1016ECCF800104E
:102340004449B0F864C0AEF800C0DFF840E1B0F82E
:1023500066C0A1F800C04049B0F858C0AEF800C04F
:10236000B0F85AE0A1F800E003F0FD01012908D11E
:102370003A4BC2F30402483000211A70FFF742FFC3
:102380002B783749374A384D38484FF0010EC1F89D
:1023900000E04FF0FF31116073454FF000022960FB
:1023A00002700DD0324B01201870BDE8F081227808
:1023B000264E4FF4BA7000FB02407C303060A5E737
:1023C0003568386895F856602A4B2B4962F34616F3
:1023D00085F85660D4F8205DD4F8244D84604560BB
:1023E00003F1140003F8012F834241F8042FF9D1BF
:1023F0001F4B01201870BDE8F0812278134E4FF476
:10240000BA7000FB0240083030607FE7052B01D036
:10241000BDE8F081012A7FF477AF114923780A6083
:102420004FF4BA7202FB0343084E0E4D0E4C0F4997
:102430004FF0FF32F03333602A6022600870B1E75A
:1024400051AFFF1F40C8FF1F24AFFF1F10C3FF1F66
:10245000ECAFFF1FC890FF1FF8AFFF1F64AFFF1F57
:1024600074AFFF1F6497FF1F7C92FF1FF0AFFF1F29
:1024700040AFFF1FE3B1FF1F08B7FF1F9CB7FF1F4F
:102480001CC3FF1F30C8FF1FF8DFFF1F80AFFF1FF7
:102490002DE9F043DFF8C8802B4F98F80030052273
:1024A00087B03A707BB1294E3568ADB1A84720B9E5
:1024B0000024204607B0BDE8F083002420463460A5
:1024C00007B0BDE8F083FFF70DFF0028EBD1012432
:1024D000204607B0BDE8F0831D4B18780238FEF7A0
:1024E0005FFE2846FFF776FCFEF74AFE044600280A
:1024F000DED0184B1B68012B06DD023B164A52F852
:10250000233033602C46D4E7144E41F26C03402252
:10251000F05803688DE824002946D3F840902A46F5
:102520008023C84705AA0DF10F0104A888F80050C0
:102530003D70FFF72FFC9DF80F20049B86F8482D77
:10254000C6F8443DB5E700BF51AFFF1F24AFFF1FE2
:102550004894FF1F74AFFF1F608DFF1F40C8FF1F0F
:1025600040AFFF1F2DE9F04FA54BA64D1B7803226E
:1025700083B02A70002B00F0A680A34BA34E1F68E7
:1025800097F85640F86DC4F34114022C00F0B8805F
:1025900014F0D4FB8046B7F95A00B7F958B014F0DC
:1025A000CDFB8246386E14F0C9FB8146CBF1180092
:1025B00014F0C4FB514614F0C9FC494614F012FC57
:1025C000414614F007FB14F0D3FD3060CBF16000FE
:1025D00014F0B4FB514614F0B9FC494614F002FC67
:1025E000414614F0F7FA14F0C3FDDFF85892C9F829
:1025F00000008749874ADFF850A2B7F916300878FB
:10260000B98ACAF800101360FEF7CAFDFEF73AFF58
:10261000FEF7B6FD804600283CD0DFF83082D8F8BF
:102620000000012840F3C680022800F0BD80032886
:1026300000F0B4803568D9F80000022CA0EB05004A
:1026400000F0908014F07AFB0446284614F076FBE4
:1026500021460546204614F0BDFA6F4914F076FC79
:102660000146284614F0B4FA14F082FD6B49054681
:10267000204614F0B7FB684914F068FC14F078FDAC
:10268000674B1B684FF000085D609860404603B0E0
:10269000BDE8F08F2B78032BF8D1BAF80000FDF7D6
:1026A00067FF604A41F21503D35C002BEED000288F
:1026B000ECD05D4B1A788242E8D0DFF89081187038
:1026C000C8F80000ADE7FFF70DFE044600287FF4D0
:1026D00054AF544D55494FF00108FF2205F6DD5027
:1026E00085F8DC8D15F07AFC4FF4FA621123A5F819
:1026F000E44EA5F8E84EC5F8E02EA5F8E63EC5E79D
:1027000014F01CFB8346B7F95A00B7F958A014F02F
:1027100015FB8146386E14F011FB8046CAF10C009F
:1027200014F00CFB494614F011FC414614F05AFB1E
:10273000594614F04FFA14F01BFD3060CAF1300016
:1027400014F0FCFA494614F001FC414614F04AFB2F
:10275000594614F03FFA14F00BFDDFF8E890C9F881
:10276000000046E714F0EAFA0446284614F0E6FAB8
:102770002F490546204614F0E9FB0146284614F08F
:1027800027FA14F0F5FC2B490546204614F02AFBE5
:10279000274914F0DBFB14F0EBFC71E7DAF80000DA
:1027A0003568C9F8000048E7DAF800503560D9F814
:1027B000000042E71B4941F26C030022C858402147
:1027C00003688DE8060011461C6C8023A0470E4B61
:1027D0001868194B48301978FFF714FDD8F8003005
:1027E0003BB90F4B1549164A1B68096812685960B6
:1027F0009A60034A002313702B704FF0010845E7DD
:1028000040AFFF1F51AFFF1F10C3FF1FC0AFFF1F1F
:10281000A8A1FF1F7C92FF1F0000C04000002041C4
:10282000ECAFFF1F40C8FF1FF0AFFF1F0CBF010040
:10283000000040400000A04064AFFF1F1CC3FF1F0A
:1028400030C8FF1FC4AFFF1F6497FF1F74AFFF1F87
:1028500010B582B002AB42F2247243F8042D044654
:10286000017004221846002110F07EFF204601224C
:10287000022110F079FF032002B010BD2DE9F041D4
:10288000804682B018F8041B744D754F0446FFF75C
:10289000DFFF042206460146404610F065FF311D69
:1028A00004F10800042210F05FFF06F1080104F1B2
:1028B0000C00042210F058FF06F10C0104F1100086
:1028C000042210F051FF06F1100104F1140004225B
:1028D00010F04AFF06F1140104F11800042210F070
:1028E00043FF06F1180104F11C00042210F03CFF24
:1028F00006F11C0104F12000042210F035FF06F15E
:10290000200104F13500692210F02EFF06F1890143
:1029100004F12800042210F027FF06F18D0104F1D4
:102920002C00012210F020FF06F18E0104F130008E
:10293000042210F019FF06F1920104F13400012283
:1029400010F012FF0D21474812F0DEFB00230A228F
:102950002178284612F09AFE0221434812F0D4FB57
:102960006168284612F0D2FE3846012112F0CCFBF5
:10297000A168284612F0CAFE3846012112F0C4FBB5
:10298000E168284612F0C2FE3846012112F0BCFB75
:102990002169284612F0BAFE3846012112F0B4FB34
:1029A0006169284612F0B2FE3846012112F0ACFBF4
:1029B000A169284612F0AAFE3846012112F0A4FBB4
:1029C000E169284612F0A2FE3846012112F09CFB74
:1029D000216A284612F09AFE3846012112F094FB33
:1029E000A06A13F0CDFD4FF0020802460B46CDF869
:1029F0000080284612F094FE3846012112F084FB34
:102A000094F92C10284612F081FE3846012112F06C
:102A10007BFB00230A2294F83410284612F036FE7D
:102A20003846012112F070FB206B13F0A9FDCDF8A0
:102A3000008002460B46284612F072FE38460121FD
:102A400012F062FB06F19301284612F05FFE284661
:102A500012F0F6FD962002B0BDE8F08180A4FF1FC1
:102A6000C8BD010020BF01000CC5010070B50646BD
:102A700084B0002010F014FE8DF80E00012010F03C
:102A80000FFE8DF80F00BDF80E2042F224739A421B
:102A900040F00781022010F003FE03288ABFFF23C5
:102AA00030703370F51C0324204610F0F9FD01341A
:102AB000072C05F8010FF7D1F51D204610F0F0FDA9
:102AC00001340B2C05F8010FF7D106F10B05204658
:102AD00010F0E6FD01340F2C05F8010FF7D106F1D7
:102AE0000F05204610F0DCFD0134132C05F8010F12
:102AF000F7D106F11305204610F0D2FD0134172C52
:102B000005F8010FF7D106F11705204610F0C8FDB2
:102B100001341B2C05F8010FF7D106F11B052046E7
:102B200010F0BEFD01341F2C05F8010FF7D106F19E
:102B30001F05204610F0B4FD0134232C05F8010FC9
:102B4000F7D106F13405204610F0AAFD01348C2C93
:102B500005F8010FF7D106F12705204610F0A0FD7A
:102B60000134902C05F8010FF7D1204610F098FDA4
:102B700006F12F0586F82C009124204610F090FDD8
:102B80000134952C05F8010FF7D1204610F088FD8F
:102B90000C2186F83400484812F0B6FA00230A22C5
:102BA0003178464812F072FD0221454812F0ACFA25
:102BB0007168424812F0AAFD0121424812F0A4FABD
:102BC000B1683E4812F0A2FD01213E4812F09CFA85
:102BD000F1683A4812F09AFD01213A4812F094FA4D
:102BE0003169364812F092FD0121364812F08CFA14
:102BF0007169324812F08AFD0121324812F084FADC
:102C0000B1692E4812F082FD01212E4812F07CFAA3
:102C1000F1692A4812F07AFD01212A4812F074FA6B
:102C2000316A264812F072FD0121264812F06CFA32
:102C3000B06A13F0A5FC022402460B4600941F481C
:102C400012F06EFD01211F4812F05EFA96F92C1069
:102C50001A4812F05BFD01211A4812F055FA0023C0
:102C60000A2296F83410154812F010FD012115487B
:102C700012F04AFA306B13F083FC009402460B46C4
:102C80000E4812F04DFD01210E4812F03DFA96213A
:102C90000A4812F03BFD094812F0D2FC962004B01D
:102CA00070BD1B21084812F02FFA044812F0C8FC2E
:102CB000002004B070BD00BF4CBF010080A4FF1F06
:102CC0000CC50100C8BD010030BF01002DE9F8436B
:102CD000099C089E0F46904699461CB1086814F05E
:102CE00047FAA0471D4D41F26803E8580FF088FCF1
:102CF000B5F81A4DB5F8183D201A84B29C42A5F8D3
:102D00001A4D24D094BF06F100403046396813F0C4
:102D100061FF4146064614F003FA58B94946304669
:102D200014F01CFA68B1C7F800900020A5F8184DFF
:102D3000BDE8F883C7F800800020A5F8184DBDE86D
:102D4000F8833E600020A5F8184DBDE8F88341F2F5
:102D50009843E858BDE8F8430FF0F4BB40C8FF1FA4
:102D60002DE9F043284D6B78012B85B0274B44D9D2
:102D70001B68186A03F14C0903F1200413F0DAFF11
:102D8000234914F0E3F80146224814F0DFF8224901
:102D900014F0DCF813F066FA04A9204A41F8040D97
:102DA0004FF07E5380460192009300221C4B1D4839
:102DB000FFF78CFF1C4B039F1870064614493846DA
:102DC00014F0C4F80146134814F0C0F8124914F086
:102DD000BDF814F0F3F941462060384614F0B6F817
:102DE000D9F8001013F0FEFF0346C9F80000304682
:102DF000C5F8443D05B0BDE8F0831C68206A04F1C5
:102E000048092034BAE700BF40C8FF1F10C3FF1FA6
:102E100000007A4400606A470000C041D51D0000F0
:102E20000000FA43FCD5FF1FC099FF1F70B51F4D6E
:102E30006B78022B84B032D0032B29D0012B02D027
:102E400000231B7AFFDE2B784FF4BA7404FB035483
:102E500004F59A7494F9080013F070FF04A9144A59
:102E600041F8040D4FF07E5301920093114A124B2A
:102E70001248FFF72BFF124B06461E70039814F002
:102E800077F940B2207285F8480D304604B070BD25
:102E90002B784FF4BA7404FB0354C434DAE72B786C
:102EA0004FF4BA7404FB03545034D3E740C8FF1FF7
:102EB000D51D00000000A0C00000A040FCD5FF1FF1
:102EC000C099FF1F2DE9F843099CDDF820900E46BC
:102ED00090461F460CB10868A0471C4D41F268039C
:102EE000E8580FF08DFBB5F81A4DB5F8183D201ACB
:102EF00084B29C42A5F81A4D21D0E01A13F01EFFAF
:102F0000494613F06FFF8146306813F017FF014602
:102F1000484613F05FFE14F02BF9404508DB87426A
:102F2000A8BF074637600020A5F8184DBDE8F88314
:102F3000C6F800800020A5F8184DBDE8F88341F2DE
:102F40009843E858BDE8F8430FF0FCBA40C8FF1FAB
:102F50002DE9F047234CBDF82090099D41F2680708
:102F60000646E05990460F469A460FF049FBB4F8E2
:102F70001A3DB4F8181D184480B2A4F81A0D8842FE
:102F800096F861221BD2AB5C013BDBB22F2B98BFC2
:102F90003923AB5428460A22002115F0EFF84045AA
:102FA000386013DAB4F81A0DC7F8008041F298437C
:102FB000A4F8180DE058BDE8F0470FF0C3BAF5D9F2
:102FC0005AB909F1FF3986F86192EFE75045C8BF59
:102FD000C7F800A0B4F81A0DE8E7013A86F86122B4
:102FE000E4E700BF40C8FF1FF8B5204C41F268037A
:102FF0000546E0580E4617460FF002FBB4F81A3D9E
:10300000B4F8181D184480B2A4F81A0D95F861227E
:103010008842B35C1ED20133DBB213F0800F18BFBD
:103020002023B354B4F81A0DA4F8180D41F29843B4
:10303000E0580FF087FA60B195F86132013FBB426A
:1030400007D013B93278202A0ED0013385F86132C7
:103050000020F8BDE8D9013BDBB21F2B98BF7F23CE
:10306000B354B4F81A0DDFE73370F8BD40C8FF1F42
:10307000F0B5DFF844E041F26C0583B008465EF835
:103080000550BDF820601F46144614F039FF04EBCC
:103090004404A4002A68033400EB400312210020FA
:1030A0000190009104EB43031BB2146C39B2284623
:1030B00032B2A04703B0F0BD40C8FF1F2DE9F04F6A
:1030C000DFF8BC8041F26C0785B00E469B4658F88D
:1030D0000700BDF83890012114460DF053FD0BF1A7
:1030E000020058F8075083B21A464FF0010A09F15E
:1030F00005034FF00001EA812B82A5F812A0A982F6
:103100003046039214F0FCFE2B6802465B683146A1
:1031100028469847284612F093FA58F807000221EB
:103120000DF030FD58F807504FF00001A9823046ED
:10313000A5F812A014F0E4FE039A00EB400002EBA5
:10314000400009EB0A03E8812B82304614F0D8FED8
:1031500004EB4404A4002E68CDF804A000EB40006A
:1031600003341222009204EB40031BB20FFA89F2DF
:103170000FFA8BF12846F46CA04705B0BDE8F08F3C
:1031800040C8FF1F2DE9F04F87B01F46BDF84040F3
:1031900004942546BDF844400094A946884602930D
:1031A00016462B463A46054605940391FFF760FF05
:1031B0004B463A46009441462846FFF77FFF41F2CE
:1031C0006C03254A254F52F803B000245B46A14604
:1031D000A3464FF001081C4617E095F861325345AD
:1031E000236804BFA4F81290A4F814801B6816F892
:1031F0000A10984795F861323C68534504BFA4F81B
:103200001280A4F814900BF1010B304614F078FEF4
:103210001FFA8BFA50452046DFD822681049A34692
:1032200054680022A047584612F00AFA029A314622
:103230002846FFF7D9FE58B1059B00932846049B0A
:10324000029A0399FFF714FFFF2385F861320120EA
:1032500007B0BDE8F08F00BF40C8FF1FACD8FF1F0C
:10326000A0C00100F0B5044690F8610287B0FF28C5
:10327000BDF83050BDF834600AD08DE860002046BB
:10328000FFF780FF10B1FF2384F8613207B0F0BD73
:10329000002084F86102104605930491039214F013
:1032A0002FFE059B039A04999842E6D207DA104450
:1032B00002EB030E202700F8017B7045FBD10020B4
:1032C000D054DAE7102B2DE9F84F05460C464FF0A5
:1032D000000E55D8724501F803E057DB9E4518DA19
:1032E000DFF8BCC0E718012692FBF6F18CFB010861
:1032F000C817C0EBA80000EB8000A1EB4001013B28
:1033000006EB8606303173454FEA460607F8011D85
:10331000EADC214ADFF88C9041F26C034FF00008A0
:10332000D758C3464FF0010A17E095F86132B3420F
:103330003B6804BFA7F812B0A7F814A01B68A15DF2
:10334000984795F86132D9F80070B34204BFA7F8E6
:1033500012A0A7F814B008F10108204614F0D0FD1F
:103360001FFA88F6B0423846DFD83B680B495B68E5
:103370003846002298473846BDE8F84F12F060B949
:10338000724581F810E04FF01003A9DA2D21524266
:1033900021704FF0010EA1E740C8FF1FA0C001003F
:1033A00067666666ACD8FF1F2DE9F04788B0044613
:1033B000BDF84450BDF84860BDF84C700097904689
:1033C00089462A469A463346FFF752FE33462A4636
:1033D000494620460097FFF771FE2B46D8F800209B
:1033E000204603A9FFF76EFF94F86132FF2B17D038
:1033F00003AB0193009552464146109B2046FFF7D0
:10340000A7FD50B13346204600972A464946FFF7AC
:103410002FFEFF2384F86132012008B0BDE8F08759
:1034200000224FF07E530192009352464146109B7A
:103430002046FFF747FDE4E7F0B51C4A11784FF44A
:10344000BA7303FB01F3D11887B091F85E00C00690
:1034500025D101F5A074B1F84011059141F21D0389
:103460001249D25C114DFF2A04BF0322CA542D27F2
:103470004FF47A72002304268DE844000C49039728
:1034800005F6BC50029305AAFFF78EFF18B141F272
:103490001D03FF22EA54059B238007B0F0BD1344AF
:1034A000B1F85C1003F15C04D7E700BF40C8FF1F10
:1034B0005CBF01002DE9F0432A4D2B49D5F84C0D96
:1034C000284E87B013F08EFC13F052FE41F21D031C
:1034D0002D21EA5C0590FF2A04BF0422EA54234B05
:1034E0000093052200230391019206F6BC5002933B
:1034F00005AA1F49FFF758FF804638B341F21D0364
:10350000FF22F254059813F019FC174913F01EFD21
:1035100034460146C6F84C0D06F53A67B14601E05F
:10352000D9F84C1D95F8506DD4F8E8000FF030FE36
:10353000304613F0FFFB04F5BA7454F88C3CA742F4
:103540001861EDD1404607B0BDE8F083059813F04F
:10355000F5FB054913F0FAFCC6F84C0D404607B0E0
:10356000BDE8F08340C8FF1F0050C3473F420F0033
:1035700068BF01002DE9F0431C4D1D4995F8503DF1
:1035800087B006AA042642F8043D2D2700234FF4F5
:1035900080748DE8500005F6BC5003970293FFF746
:1035A00003FF9DF8146085F8506D814618B94846B0
:1035B00007B0BDE8F0832C4605F53A67A84601E060
:1035C00098F8506DD4F8E800D5F84C1D0FF0E0FDE8
:1035D000304613F0AFFB04F5BA7454F88C3CBC428F
:1035E0001861EDD1484607B0BDE8F08340C8FF1F21
:1035F00074BF0100F0B52E4D6B78022B87B030D030
:10360000032B27D0012B02D000235B78FFDE2B7821
:103610004FF4BA7202FB035303F59A7306AA5B7860
:10362000234E42F8043D03272D23002401977F27D2
:10363000039320490294234606F6BC500097FFF7F7
:10364000B3FE6B78022B28D0032B1CD0012B0FD09C
:103650006470FFDE2B784FF4BA7202FB0353C4335D
:10366000DCE72B784FF4BA7202FB03535033D5E7F3
:1036700033784FF4BA7202FB036303F59A73059A29
:103680005A7007B0F0BD32784FF4BA7303FB02638F
:10369000C433059A5A7007B0F0BD32784FF4BA734C
:1036A00003FB02635033059A5A7007B0F0BD00BFA8
:1036B00040C8FF1F7CBF0100F0B52E4C6378022B81
:1036C00087B030D0032B27D0012B02D000231B78EA
:1036D000FFDE23784FF4BA7202FB034303F59A73BB
:1036E00006AA1B7842F8043D224E23492D2303935A
:1036F0000025102303278DE8880006F6BC5001231F
:103700000295FFF751FE6378022B28D0BB421CD0F4
:10371000012B0FD02D70FFDE23784FF4BA7202FB1D
:103720000343C433DCE723784FF4BA7202FB03434C
:103730005033D5E733784FF4BA7202FB036303F5D5
:103740009A73059A1A7007B0F0BD32784FF4BA73C5
:1037500003FB0263C433059A1A7007B0F0BD3278D8
:103760004FF4BA7303FB02635033059A1A7007B023
:10377000F0BD00BF40C8FF1F88BF0100F0B5304C4E
:103780006378022B87B036D0032B2DD0012B02D0CB
:1037900000235B68FFDE23784FF4BA7202FB034319
:1037A00003F59A735868264E13F0E2FC06AA2D27FB
:1037B0000321FF23002542F8040D03970191009394
:1037C00006F6BC50012302951E49FFF7EDFD637814
:1037D000022B07462DD0032B24D0012B12D00598A5
:1037E00013F0ACFA6860FFDE23784FF4BA7202FB84
:1037F0000343C433D6E723784FF4BA7202FB034382
:103800005033CFE733784FF4BA7505FB036505F500
:103810009A75059813F092FA6860C4F8440D38461A
:1038200007B0F0BD33784FF4BA7505FB0365C435B6
:10383000EFE733784FF4BA7505FB03655035E8E7D9
:1038400040C8FF1F98BF0100F0B52D4C6378022BD4
:1038500087B032D0032B29D0012B02D000231B7A52
:10386000FFDE23784FF4BA7202FB034303F59A7329
:1038700006AA93F9083042F8043D214E21492D2330
:1038800003930025782304278DE8880006F6BC50B2
:103890006FF077030295FFF787FD6378022B28D03E
:1038A000032B1FD0012B0FD02D72FFDE23784FF496
:1038B000BA7202FB0343C433DAE723784FF4BA72D7
:1038C00002FB03435033D3E733784FF4BA7202FB61
:1038D000036303F59A739DF914201A7284F8482D36
:1038E00007B0F0BD32784FF4BA7303FB0263C43300
:1038F000F1E732784FF4BA7303FB02635033EAE71F
:1039000040C8FF1FA4BF0100F0B5314D6B78022BFA
:1039100087B033D0032B2AD0012B03D0002393F898
:103920002030FFDE2B784FF4BA7202FB035303F50D
:103930009A7306AA93F82030254E42F8043D0327D7
:103940002D23002401977F270393224902942346C5
:1039500006F6BC500097FFF727FD6B78022B2BD0A3
:10396000032B1ED0012B10D084F82040FFDE2B78D3
:103970004FF4BA7202FB0353C433DAE72B784FF4E7
:10398000BA7202FB03535033D3E733784FF4BA7261
:1039900002FB036303F59A73059A83F8202007B0AE
:1039A000F0BD32784FF4BA7303FB0263C433059A57
:1039B00083F8202007B0F0BD32784FF4BA7303FBD0
:1039C00002635033059A83F8202007B0F0BD00BF92
:1039D00040C8FF1FB4BF0100F0B5314D6B78022B1A
:1039E00087B033D0032B2AD0012B03D0002393F8C8
:1039F0002130FFDE2B784FF4BA7202FB035303F53C
:103A00009A7306AA93F82130254E42F8043D032705
:103A10002D23002401977F270393224902942346F4
:103A200006F6BC500097FFF7BFFC6B78022B2BD03B
:103A3000032B1ED0012B10D084F82140FFDE2B7801
:103A40004FF4BA7202FB0353C433DAE72B784FF416
:103A5000BA7202FB03535033D3E733784FF4BA7290
:103A600002FB036303F59A73059A83F8212007B0DC
:103A7000F0BD32784FF4BA7303FB0263C433059A86
:103A800083F8212007B0F0BD32784FF4BA7303FBFE
:103A900002635033059A83F8212007B0F0BD00BFC0
:103AA00040C8FF1FC0BF0100F0B5484C6378022B2F
:103AB00087B048D0032B3CD0012B03D0002393F8D0
:103AC0002030FFDE23784FF4BA7202FB034303F584
:103AD0009A7393F82020D20141F21D0193F821300E
:103AE000605C3A4D1344FF28059304BF04236B54D4
:103AF000364D374943F6FF722D27002305268DE802
:103B0000440005F6BC500397029305AAFFF74CFC4E
:103B100018B141F21D03FF22EA5463782B4C022BAB
:103B20003FD0032B2FD0012B17D0002383F8203058
:103B3000FFDE23784FF4BA7202FB0343C43393F8D9
:103B40002020D201C8E723784FF4BA7202FB034366
:103B5000503393F82020D201BEE7237805994FF423
:103B6000BA7202FB0342002902F59A720B4615DB7A
:103B7000DB1182F82030174B0B40002B1DDB82F845
:103B8000213007B0F0BD237805994FF4BA7202FBDB
:103B90000342002902F1C4020B46E9DA01F17F0376
:103BA000E6E7237805994FF4BA7202FB0342002935
:103BB00002F150020B46DBDAF0E7013B63F07F03D2
:103BC000013382F8213007B0F0BD00BF40C8FF1FAD
:103BD000CCBF01007F000080F0B52E4D6B78022B2A
:103BE00087B030D0032B27D0012B02D000239B7845
:103BF000FFDE2B784FF4BA7202FB035303F59A737E
:103C000006AA9B78234E42F8043D03272D23002467
:103C100001977727039320490294234606F6BC5068
:103C20000097FFF7C1FB6B78022B28D0032B1CD029
:103C3000012B0FD0A470FFDE2B784FF4BA7202FB79
:103C40000353C433DCE72B784FF4BA7202FB0353FF
:103C50005033D5E733784FF4BA7202FB036303F5B0
:103C60009A73059A9A7007B0F0BD32784FF4BA7320
:103C700003FB0263C433059A9A7007B0F0BD327833
:103C80004FF4BA7303FB02635033059A9A7007B07E
:103C9000F0BD00BF40C8FF1FD4BF0100F0B52E4DDE
:103CA0006B78022B87B030D0032B27D0012B02D0AA
:103CB0000023DB78FFDE2B784FF4BA7202FB03534C
:103CC00003F59A7306AADB78234E42F8043D0327D6
:103CD0002D23002401977F27039320490294234634
:103CE00006F6BC500097FFF75FFB6B78022B28D0DD
:103CF000032B1CD0012B0FD0E470FFDE2B784FF488
:103D0000BA7202FB0353C433DCE72B784FF4BA7268
:103D100002FB03535033D5E733784FF4BA7202FBFA
:103D2000036303F59A73059ADA7007B0F0BD327831
:103D30004FF4BA7303FB0263C433059ADA7007B019
:103D4000F0BD32784FF4BA7303FB02635033059A27
:103D5000DA7007B0F0BD00BF40C8FF1FDCBF010034
:103D600070B5214C6378022B28D0032B1FD0012B78
:103D70000FD0002041F214051421FEF743FA635DD1
:103D8000194E73B901237355FFF734FCE8B90020CD
:103D900070BD23784FF4BA7000FB034000F59A70B1
:103DA000E8E7012BF0D0022B16D0012070BD23785C
:103DB0004FF4BA7000FB0340C430DBE723784FF4C4
:103DC000BA7000FB03405030D4E741F214020020E7
:103DD000A35C0133A35470BDFFF760FF0028D6D069
:103DE0000023735570BD00BF40C8FF1FF0B5304CB5
:103DF0006378022B87B036D0032B2DD0012B02D055
:103E000000235B68FFDE23784FF4BA7202FB0343A2
:103E100003F59A735868264E13F0AAF906AA2D27BF
:103E20000321FF23002542F8040D0397019100931D
:103E300006F6BC50012302951E49FFF7B5FA6378D8
:103E4000022B07462DD0032B24D0012B12D005982E
:103E500012F074FF6860FFDE23784FF4BA7202FB41
:103E60000343C433D6E723784FF4BA7202FB03430B
:103E70005033CFE733784FF4BA7505FB036505F58A
:103E80009A75059812F05AFF6860C4F8440D3846D8
:103E900007B0F0BD33784FF4BA7505FB0365C43540
:103EA000EFE733784FF4BA7505FB03655035E8E763
:103EB00040C8FF1F98BF0100F0B52D4C6378022B5E
:103EC00087B032D0032B29D0012B02D000231B7ADC
:103ED000FFDE23784FF4BA7202FB034303F59A73B3
:103EE00006AA93F9083042F8043D214E21492D23BA
:103EF00003930025782304278DE8880006F6BC503C
:103F00006FF077030295FFF74FFA6378022B28D002
:103F1000032B1FD0012B0FD02D72FFDE23784FF41F
:103F2000BA7202FB0343C433DAE723784FF4BA7260
:103F300002FB03435033D3E733784FF4BA7202FBEA
:103F4000036303F59A739DF914201A7284F8482DBF
:103F500007B0F0BD32784FF4BA7303FB0263C43389
:103F6000F1E732784FF4BA7303FB02635033EAE7A8
:103F700040C8FF1FA4BF010070B5344C637888B0FF
:103F800000227F21022B0592069136D0032B2AD0E6
:103F9000012B01D0938BFFDE23784FF4BA7000FB26
:103FA000034000F59A70B0F91C30079306AA05A9E2
:103FB000FEF7D4F8254E069A00922D210522002501
:103FC000059B0391019206F6BC50029507AA204971
:103FD000FFF7EAF96378022B2ED0032B22D0012BB6
:103FE00015D0AD83FFDE23784FF4BA7000FB034099
:103FF000C430B0F91C300793D8E723784FF4BA7077
:1040000000FB03405030B0F91C300793CEE7337803
:104010004FF4BA7202FB036303F59A73079A9A830B
:1040200008B070BD32784FF4BA7303FB0263C43337
:10403000079A9A8308B070BD32784FF4BA7303FBC5
:1040400002635033079A9A8308B070BD40C8FF1FBF
:10405000E8BF010070B5344C637888B000227F213E
:10406000022B0592069136D0032B2AD0012B01D0CA
:10407000D38BFFDE23784FF4BA7000FB034000F5CA
:104080009A70B0F91E30079306AA05A9FEF766F8E4
:10409000254E069A00922D2105220025059B0391AD
:1040A000019206F6BC50029507AA2049FFF77CF959
:1040B0006378022B2ED0032B22D0012B15D0ED8359
:1040C000FFDE23784FF4BA7000FB0340C430B0F930
:1040D0001E300793D8E723784FF4BA7000FB0340F3
:1040E0005030B0F91E300793CEE733784FF4BA72F0
:1040F00002FB036303F59A73079ADA8308B070BD75
:1041000032784FF4BA7303FB0263C433079ADA833D
:1041100008B070BD32784FF4BA7303FB02635033BA
:10412000079ADA8308B070BD40C8FF1FF4BF0100D2
:1041300038B50A4D2C783CB1012C08D1FFF78AFF25
:1041400028B100232B7038BDFFF716FF08B90020F7
:1041500038BD01232B70204638BD00BFE8AFFF1FDC
:10416000F0B52F4D6B78022B87B037D0032B2ED0B4
:10417000012B02D000235B69FFDE2B784FF4BA716C
:1041800001FB035101F59A7106AA4B6942F8043DFF
:104190004FF02D0E8C69224FCDF80CE04FF0060E3B
:1041A000CDF804E0002644F2020E1E4B1E49029692
:1041B00007F6BC50CDF800E0FFF7F6F86B78022B5D
:1041C00026D0032B1DD0012B0FD07661FFDE2B787C
:1041D0004FF4BA7101FB0351C431D5E72B784FF48A
:1041E000BA7101FB03515031CEE73B784FF4BA72FC
:1041F00002FB037303F59A73059A9C615A6107B039
:10420000F0BD3A784FF4BA7303FB0273C433F3E79B
:104210003A784FF4BA7303FB02735033ECE700BFF4
:1042200040C8FF1FFDBFFFFF00C00100F0B5304DCB
:104230006B78022B87B038D0032B2FD0012B02D004
:1042400000235B69FFDE2B784FF4BA7202FB035345
:1042500003F59A735C699869254F264B264906AA8F
:1042600020444FF02D0E42F8040DCDF80CE04FF035
:10427000060ECDF804E0002644F2020E07F6BC500C
:104280000296CDF800E0FFF78FF86B78022B27D06D
:10429000032B1ED0012B0FD07661FFDE2B784FF45D
:1042A000BA7202FB0353C433D4E72B784FF4BA72CB
:1042B00002FB03535033CDE73B784FF4BA7202FB55
:1042C000037303F59A73059A5C61141B9C6107B034
:1042D000F0BD3A784FF4BA7303FB0273C433F2E7CC
:1042E0003A784FF4BA7303FB02735033EBE700BF25
:1042F00040C8FF1FFDBFFFFF08C0010038B50A4DD1
:104300002C783CB1012C08D1FFF790FF28B1002395
:104310002B7038BDFFF724FF08B9002038BD0123FA
:104320002B70204638BD00BFE8AFFF1FF0B5354CFD
:10433000637889B000227F21022B059206913AD042
:10434000032B2CD0012B01D0138AFFDE23784FF4EE
:10435000BA7000FB034000F59A70B0F91030B0F964
:104360001250079306AA05A9FDF7F8FE254F069AF5
:1043700000922D2105220026059B0391019207F64C
:10438000BC50029607AA2049FFF70EF86378022B6B
:1043900030D0032B27D0012B19D03682FFDE2378B3
:1043A0004FF4BA7000FB0340C430B0F91030B0F9DC
:1043B00012500793D6E723784FF4BA7000FB0340FE
:1043C0005030B0F910300793B0F91250CAE73B787B
:1043D0004FF4BA7202FB037303F59A73079A5D8276
:1043E0001A8209B0F0BD3A784FF4BA7303FB027336
:1043F000C433F3E73A784FF4BA7303FB02735033D4
:10440000ECE700BF40C8FF1F10C00100F0B5374CFB
:10441000637889B000227F21022B059206913CD05F
:10442000032B2DD0012B01D0138AFFDE23784FF40C
:10443000BA7000FB034000F59A70B0F91050B0F963
:1044400012302B44079306AA05A9FDF787FE274FD4
:10445000069A00922D2105220026059B03910192C8
:1044600007F6BC50029607AA2149FEF79DFF637824
:10447000022B33D0032B2AD0012B1BD03682FFDE38
:1044800023784FF4BA7000FB0340C430B0F91050E9
:10449000B0F912302B440793D5E723784FF4BA7064
:1044A00000FB03405030B0F91050B0F912302B44EB
:1044B0000793C8E73B784FF4BA7202FB037303F526
:1044C0009A73079A1D82551B5D8209B0F0BD3A7838
:1044D0004FF4BA7303FB0273C433F2E73A784FF434
:1044E000BA7303FB02735033EBE700BF40C8FF1FF2
:1044F0001CC0010038B50A4D2C783CB1012C08D104
:10450000FFF784FF28B100232B7038BDFFF70EFFA3
:1045100008B9002038BD01232B70204638BD00BFEC
:10452000E8AFFF1F2DE9F04F88469BB0D0F864122A
:104530000790BDF890A09DF894500B92994629B928
:104540007A4B1B680D930D9BC0F86432002D00F070
:10455000C780774B2E1F83FB0623A3EBE67602363C
:10456000F600B3B2CAF13F069E424046A8BF1E46BF
:1045700013F0C6FC00EB400047000437BFB241F225
:104580006C046C4B1859AF4233B228BF2F464FF022
:10459000000B1A460FFA8AF50A93036806950FFA7C
:1045A00089F10092CDF804B03AB21D6C099213461D
:1045B0000891069AA8475F4B012118590CF0E2FABE
:1045C0005C4A5B4B1459033F83FB07230AF1040A3F
:1045D000B6B2A3EBE7771FFA8AF30493F31F5D46A5
:1045E00009F10209012205931AABA4F814B00FFADD
:1045F00089F9628203EB070B2E46AA4609E0059B68
:10460000B3EBC20F2BDD56B3B5F5807F27D04A4BF5
:104610001C68049BA4F80E9003EBC50308EB06018D
:1046200023823A460FA813F0D9FC0FA80BF82CAC44
:1046300013F066FC236802465B680FA92046984782
:10464000204610F0FDFF404613F05AFCC01BF31942
:10465000864205F102029EB205F10105CFD9354B24
:104660000A9941F26C04012218591E4603688DE82C
:104670000600069ADD6C0899099BA847079B93F8EA
:104680002E31002B3DD141F26C032A4AD0580DF057
:10469000E5F841F29843274AD0580DF053FF50B93E
:1046A000224A079B1268D3F864320E920B990E9A35
:1046B00019448A4211D941F26C021E49099B88585B
:1046C0000A9A0568009200240194069A08992D6CB4
:1046D000A847079B0120C3F864421BB0BDE8F08FD8
:1046E000404613F00DFC00EB40004700CAF13F06C6
:1046F0003B1DC9F17F05102E9FB2A8BF1026EDB259
:104700003DE73059079E96F83C41D6F83431B6F96A
:104710003221B6F93011B6F93A510294B6F938415E
:104720008DE830000BF0FAFFADE700BF14E0FF1F8B
:10473000ABAAAA2A40C8FF1FACD8FF1F2DE9F0473B
:104740000E4601789DF820800829044691464ED0F7
:104750003B4AD0F8E400D2F8207DD2F82C1D1D464B
:10476000D2F8243D6366D2F8283D27660127C4F8B5
:10477000D430C4F8D81084F8BC7092F850ADD2F898
:104780004C1D0EF005FD504612F0D4FAD4F8E4208A
:10479000242310610021184684F8756023710FF0FE
:1047A00007FA0026252084F8780084F8E99026830B
:1047B00031460FF0FDF9A4F88C6084F8066184F8A6
:1047C000EC5028460DB9BDE8F08702210FF0F0F952
:1047D00084F84081B8F1000F02D13846BDE8F08777
:1047E000404639460FF0E4F93846BDE8F087144BEF
:1047F0001220D3F83C2DD3F8345DD3F8301DD3F814
:10480000383DC4F8D43065662166C4F8D8202071DC
:1048100084F8756000210FF0CBF900251A2084F888
:10482000780084F8E990258329460FF0C1F984F8CF
:10483000EC50A4F88C5084F806512846BDE8F08767
:1048400040C8FF1F2DE9F8430446884616460FF07E
:10485000B5F9236AA06213B9E36A002B44D072B69B
:10486000DFF8AC90254FD9F800103B682448A56AC2
:10487000E26ACB1A80FB0310D917C1EBA000062116
:1048800084F834101F49C5EB030EAA1A0B60236B82
:10489000626285181C4AA06B7344A9B213600EF0C3
:1048A00067FCA26B636AD26A002E62F30F0528468A
:1048B0001FDDB040B340D9F800103A680B44024401
:1048C000C9F800303A6012F035FA414612F03EFB6A
:1048D0000E4912F03BFB12F071FCA36A2062E36206
:1048E00062B60120BDE8F8832063E0621846BDE8A7
:1048F000F883E0D07642F040F340DCE7F4AFFF1FEE
:104900006766666668AFFF1FE4DFFF1F0000C040F8
:104910008CAFFF1F10B50446212094F8711001F0F0
:1049200001010FF031F994F871101820C1F3400122
:104930000FF02AF994F871102020C1F38001BDE82E
:1049400010400FF021B900BF30B50F4B0C4683B0BB
:104950009C424FF000014FF07F02054608BFB0F9BE
:1049600016408DE80600483001AA6946FDF7F6FBBF
:10497000B5F96400844204DBB5F96600A042A8BF23
:10498000204603B030BD00BFF1D8FFFF38B590F826
:104990005C31032B36D8DFE803F0021104021A4819
:1049A00038BD90F8CE3003F01F03062BB0F91A3053
:1049B0001DD0B0F98E1003FB01F104E0B0F91A101C
:1049C000B0F98E30194490F85A301A4604466FF305
:1049D000461280F85A200430C3F34115FFF7B4FFA4
:1049E00094F85A3065F3461384F85A3038BDB0F95C
:1049F0008E20064903FB02F381FB0321DB17C3EB87
:104A00006111E0E70049DEE7F1D8FFFF1F85EB51B8
:104A1000012A08B53DDD90F8563003F01F03192B2D
:104A200040D8DFE803F0101217101010101C1010FF
:104A3000101010262610101010102E2E0D0D10170D
:104A40000B7880F84A30104608BD0B88A0F86A3011
:104A5000104608BD0B7880F84930104608BD124B4F
:104A6000D3F8441DC16493F9483D80F85030104696
:104A700008BD0B7880F869304B7880F868301046B4
:104A800008BD0B7880F849304B7880F84B301046E1
:104A900008BD2221054810F037FB054810F0D0FD75
:104AA000002008BD002008BD40C8FF1F2CC0010029
:104AB00080A4FF1F2DE9F84390F84450574E584CFE
:104AC000002D08BF3446154614BF0A270D277D293F
:104AD00000F2A280DFE801F046A0A0A0A0A0A0A064
:104AE000A0A0A0A0A0A0A0A0A0A0A0A0A0A0A0A0C6
:104AF000A0A0A0A0A0A0A0A0A0A0A0A0A0A0A0A0B6
:104B0000A0A0A0A0A0A0A0A0A0A0A0A0A0A0A0A0A5
:104B1000A0A0A0A0A0A0A0A0A0A0A0A0A0A0A0A095
:104B2000A0A0A0A0A0A0A0A0A0A0A0A0A0A0A0A085
:104B3000A0A0A0A0A0A0A0A0A0A0A0A0A0A0A0A075
:104B4000A0A0A0A0A0A0A0A0A05D6C6267717A80C8
:104B5000868A8E949A3F2A7880F856201D462846E9
:104B6000BDE8F88307EB4707033FDFF8B890A84696
:104B7000064627442379617919F803302A463046DE
:104B8000FFF798FF0334A7420544F3D1C8EB0505AE
:104B9000E5E72A7880F848201D46E0E72A7880F883
:104BA00053201D46DBE72A88A0F854201D46D6E78F
:104BB0002A7880F852201D46D1E7297890F85620AF
:104BC00061F304021D4680F85620C8E7B5F90020BD
:104BD000A0F858201D46C2E7B5F90020A0F85A20D9
:104BE0001D46BCE72A68C2651D46B8E72A6802660A
:104BF0001D46B4E7B5F90020A0F864201D46AEE7D5
:104C0000B5F90020A0F866201D46A8E71A462946F7
:104C1000BDE8F843FFF7FCBE0025A0E700B901009E
:104C2000B4B80100A0B8010010B58AB0044624222F
:104C300001A80EF04FFD01AA204624230021FFF712
:104C400039FF94F84430002B14BF0E2018200AB00E
:104C500010BD00BF012A08B533DD90F8563003F0CF
:104C60001F03192B36D8DFE803F0101217101010AD
:104C7000101010101010101C1C10101010102424F4
:104C80000D0D101790F84A300B70104608BDB0F8A3
:104C90006A300B80104608BD90F849300B70104602
:104CA00008BD90F869300B7090F868304B70104672
:104CB00008BD90F849300B7090F84B304B7010469F
:104CC00008BD2221044810F01FFA044810F0B8FC77
:104CD000002008BD002008BD50C0010080A4FF1FB7
:104CE0002DE9F84390F84450604E614C002D9046F9
:104CF0000ABF34460A270D277D2900F2B380DFE87A
:104D000001F046B1B1B1B1B1B1B1B1B1B1B1B1B16F
:104D1000B1B1B1B1B1B1B1B1B1B1B1B1B1B1B1B183
:104D2000B1B1B1B1B1B1B1B1B1B1B1B1B1B1B1B173
:104D3000B1B1B1B1B1B1B1B1B1B1B1B1B1B1B1B163
:104D4000B1B1B1B1B1B1B1B1B1B1B1B1B1B1B1B153
:104D5000B1B1B1B1B1B1B1B1B1B1B1B1B1B1B1B143
:104D6000B1B1B1B1B1B1B1B1B1B1B1B1B1B1B1B133
:104D7000B1B1B15E73656C7A838A91979DA4AB3FA4
:104D800090F8562088F800201846BDE8F88307EB15
:104D90004707033FDFF8DC90064627444546237962
:104DA000617919F803302A463046FFF799FF03343A
:104DB000BC420544F3D1C8EB0500BDE8F88390F888
:104DC000482088F800201846BDE8F88390F8532062
:104DD00088F800201846BDE8F883B0F85420A8F8F9
:104DE00000201846BDE8F88390F8522088F800208B
:104DF0001846BDE8F88390F85620C2F3040288F8FC
:104E000000201846BDE8F883B0F95820A8F8002023
:104E10001846BDE8F883B0F95A20A8F800201846D3
:104E2000BDE8F883C26DC8F800201846BDE8F883D5
:104E3000026EC8F800201846BDE8F883B0F9642077
:104E4000A8F800201846BDE8F883B0F96620A8F855
:104E500000201846BDE8F8831A464146BDE8F843ED
:104E6000FFF7F8BE0020BDE8F88300BF00B90100DD
:104E7000B4B80100A0B80100F0B58BB00E4601AA8D
:104E8000242300210746FFF72BFF31460246054643
:104E900001A80EF069FC97F844301648002B4FF03B
:104EA0000D0114BF0E24182410F02EF900230A223D
:104EB0003978114810F0EAFB0221104810F024F96B
:104EC00031460D4810F022FC01210D4810F01CF96C
:104ED0002946094810F01AFC0121094810F014F97C
:104EE0002146054810F012FC034810F0A9FB2046AB
:104EF0000BB0F0BD74C0010080A4FF1F0CC5010001
:104F0000C8BD0100012A08B524DD90F852300F2BEE
:104F100029D8DFE803F01A1A0808100E0E0E0E0E3C
:104F20000E0E0E0E0E0E0B7880F845304B7880F882
:104F30004730104608BD0D4BD3F8441D816493F9EA
:104F4000483D80F84C30104608BD0B7880F846305C
:104F5000104608BD2221064810F0D6F8054810F08A
:104F60006FFB002008BD002008BD00BF40C8FF1F28
:104F70002CC0010080A4FF1F80292DE9F8431446AE
:104F800044D00AD9822932D025D3832935D11A4673
:104F90002146BDE8F843FFF7B5BF7E2930D020D8C1
:104FA00059BB1D4DDFF874900646174605F11208EF
:104FB000144601237E2103E02B79697919F8033027
:104FC00022463046FFF7D8FF033545450444F3D168
:104FD000E01BBDE8F8831288A0F850201846BDE811
:104FE000F883127880F84E201846BDE8F8831278CE
:104FF00080F852201846BDE8F8830020BDE8F88309
:10500000127880F844201846BDE8F883127880F8BA
:105010004F201846BDE8F88328B90100A0B8010068
:1050200010B584B00446102268460EF053FB6A4661
:10503000204610230021FFF79FFF082004B010BD79
:1050400070B5054608460E460EF02AFBB41C85F8DE
:105050005C01214605F1EC00FFF7E2FF0444214624
:10506000281DFFF7E1FD0444214605F17800FFF714
:10507000DBFD2044831B2A780249034810F0F8FA2C
:10508000302070BD84C0010080A4FF1F012A10B52C
:1050900014DD90F852400F2C17D80123A3404FF68F
:1050A000F0741C409CB913F00C0F12D113F00303E1
:1050B0000BD090F846300B70104610BD22210948E5
:1050C00010F022F8084810F0BBFA002010BD10467E
:1050D00010BD90F845300B7090F847304B7010467B
:1050E00010BD00BF2CC0010080A4FF1F80292DE946
:1050F000F843144644D00AD9822932D025D38329D3
:1051000035D11A462146BDE8F843FFF7BFBF7E29D7
:1051100030D020D859BB1D4DDFF874900646174695
:1051200005F11208144601237E2103E02B796979E9
:1051300019F8033022463046FFF7D8FF03354545BE
:105140000444F3D1E01BBDE8F883B0F8502022807E
:105150001846BDE8F88390F84E2022701846BDE846
:10516000F88390F8522022701846BDE8F88300209A
:10517000BDE8F88390F8442022701846BDE8F88313
:1051800090F84F2022701846BDE8F88328B9010036
:10519000A0B801002DE9F04184B00F4610236A4603
:1051A00000218046FFF7A2FF184C194D0246064623
:1051B000394668460EF0D8FA0E2116480FF0A4FFC3
:1051C00000230A2298F80010204610F05FFA02210E
:1051D00011480FF099FF3946204610F097FA2846FB
:1051E00001210FF091FF3146204610F08FFA28463A
:1051F00001210FF089FF0821204610F087FA204690
:1052000010F01EFA082004B0BDE8F08180A4FF1F52
:10521000C8BD0100A4C001000CC5010070B5054661
:1052200082B002A895F85C3100F8013D01228C1C87
:105230000E460EF099FA214605F1EC00FFF7AAFFA1
:1052400004442146281DFFF717FE0444214605F1BA
:105250007800FFF711FE1321044416480FF054FFA5
:1052600000230A222978144810F010FA022113486A
:105270000FF04AFF3146104810F048FAA61B0121F2
:105280000F480FF041FF31460B4810F03FFA012163
:105290000B480FF039FF2146074810F037FA06484F
:1052A00010F0CEF92B78082B0CBF3046302002B01E
:1052B00070BD00BFB4C0010080A4FF1F0CC5010079
:1052C000C8BD010070B5FA2982B00C4605463BD333
:1052D000FB2924D9FC2937D1224E2349002385F804
:1052E0002030142206F6FC6012F078FE1F4B1B687B
:1052F000019306F5805342F21071019AC6F8FC1F23
:105300001A60200240F00F000FF0CEFBAB6A5B6D1D
:105310001868036821461B68984702B070BD114E9B
:105320001349012385F82030142206F6FC6012F0A0
:1053300055FE0E4B1B68009306F5805342F2107128
:10534000009AC6F8FC1F1A6004F10803DBB2072BB1
:10535000E3D8012202FA03F313F0DD0FD1D102B03A
:1053600070BD00BF40C8FF1FD4C0010014E0FF1F84
:10537000C8C0010038B504460EF020FC236B226A39
:10538000C31A9A42054616D3636AE26A03EB4303E3
:10539000AD1AAB420ED20C4D0C480D490D4A0023FC
:1053A0002B602362E3622363636284F8343003601A
:1053B0000B60136038BDF8210748FFF783FF226BAD
:1053C000236A13442363DFE7E4DFFF1F68AFFF1F97
:1053D0008CAFFF1FF4AFFF1F64D8FF1F30B50378F9
:1053E00083B0002B38D090F852200D2A044633D0D9
:1053F000042A0D464ED018460EF0CCFB94F83C30F3
:10540000B3B194F83D30984241D02F4B1A680192C5
:10541000019A22641B680093009BB4F850109B1AF9
:10542000021C18BF012284F83D208B4298BF022045
:10543000022811D0A38A98420ED0A08280B994F895
:10544000523003F0FD03012B39D1A27E82F001021C
:105450001346A27611460DE00025284603B030BD64
:1054600094F8523003F0FD03012BF5D000210A46D9
:105470000B46A2762B6094F854000EF085FB94F84E
:105480005230042B11D00125284603B030BD226CC8
:105490000D4BBFE7026A002AADD090F83420002AF5
:1054A000A9D0FFF767FF2378A5E7A57E002DEAD0F6
:1054B00094F94C20A16C2046FFF7C4F9CDE70121F7
:1054C0000A460B46D5E700BF14E0FF1F2DE9F84F51
:1054D0008A46002961D0404BDFF820813F4AC8F856
:1054E000102093E8030000230A0CC8F80000A8F875
:1054F000041088F8062088F814300127384DC82495
:1055000005F1690B07E0BAF1000F36D10735013418
:10551000AB45E4B220D02B78002BF4D07E0006EB14
:10552000070908EBC90948460622294612F056FD2C
:10553000BAF1000F2BD12B4BC9F810303E4408EBC9
:10554000C6060735002301373475AB4504F1010465
:10555000FFB2B371E4B2DED1234B244C93E80700D1
:1055600007EB470308EBC308A8E803000023A8F8EB
:10557000002063713846BDE8F88F1D4A7E0092E82E
:105580000300F31908EBC30248F833009180F319C4
:1055900008EBC303174A1A61D0E7DFF860800E4AB0
:1055A00088F8141092E80300134BC8F800000E0CA2
:1055B000A8F8041093E8070008F1180303C3094D85
:1055C000064CC8F8285088F8066088F82CA0C8F85F
:1055D00010401A80022791E7F0C0010061570000D7
:1055E00091D5FF1F69580000E4C0010014C3FF1FDC
:1055F000DCC00100A9570000F8C00100B0B9FF1FCE
:105600002DE9F84F0021FFF761FFDFF870B0DFF8F8
:105610006090DFF86C80824605460126002705EB86
:10562000450409EBC404204626755946C4F8108089
:105630000622013612F0D2FC0135302EA771EDB2F0
:105640000BF1070B0A4B4FF00004E8D1094A0A4D51
:1056500007CA0AF12F0A5FFA8AFA0AEB4A0603EB35
:10566000C60303C31A806C715046BDE8F88F00BFB3
:10567000B0B9FF1F04C1010014C3FF1FBFB901006F
:1056800069580000324B2DE9F04799424FF0000471
:10569000824644614DD02F4B99420E4650D0A046D1
:1056A000DFF8B89000E0013430460AF031FB844264
:1056B0002146304618DA0AF013FB037D002BF2D0A6
:1056C000214630460AF00CFB07460FCF08EB480591
:1056D00009EBC5050FC597E8030008F1010885E847
:1056E00003005FFA88F8DEE730460AF011FB014656
:1056F00030460AF0F5FA05460FCD08EB480409EBF1
:10570000C4040FC495E8030084E80300124B7279C7
:105710005A71FF2201218AF8632283F804808AF8F3
:1057200062125046C3F800900B49BDE8F0470AF0FA
:10573000ABBBFFF765FFDFF82490074B8046E8E737
:105740000121FFF7C3FEDFF81490034B8046E0E72A
:1057500004DDFF1F68B7FF1F14C3FF1FB0B9FF1F91
:1057600070B50F4C41F26C03D4F8D82DE058D4F842
:10577000D41D0568C2F1400382B01BB200268DE83B
:105780004800C1F1800312B21BB22D6C09B2A847C8
:1057900004F6BC500349FFF775FF012002B070BD4D
:1057A00040C8FF1F04E0FF1F70B541F214032B4CEB
:1057B000E55C82B0D5B12A4B1B78284D2949C3EB53
:1057C000C303E2182D230024019302F6515205F67B
:1057D000BC5000940623FDF745FDB0B141F214031F
:1057E000EC5402B0BDE87040FFF7BABFD4F8C81D52
:1057F000D4F8C40D0AF074FA007D194B00F1380298
:10580000D2B20F2A187002D9012002B070BD61789F
:10581000022905D0032919D001290FD0AD72FFDE6E
:1058200021784FF4BA7505FB0141503141F214055E
:1058300000F1390688721A706655BDE721784FF479
:10584000BA7505FB014101F59A71EFE721784FF434
:10585000BA7505FB0141C431E8E700BF40C8FF1F2E
:105860000CDDFF1F10C1010010B5194B5A78022A38
:1058700026D0032A1DD0012A08D0D3F8C81DD3F89A
:10588000C40D0AF02DFA00239B72FFDE1A784FF444
:10589000BA7404FB023404F59A74D3F8C81DD3F823
:1058A000C40D0AF01DFA037DA372BDE81040FFF796
:1058B00057BF1A784FF4BA7404FB0234C434ECE7CF
:1058C0001A784FF4BA7404FB02345034E5E700BF91
:1058D00040C8FF1F30B5304C637885B02022022BC2
:1058E000ADF80C2034D0032B2BD0012B02D0002399
:1058F0005B7AFFDE23784FF4BA7202FB034303F5B1
:105900009A735B7A03B920238DF80C3000252D2380
:10591000019303AA0123214900952148FDF7A2FC28
:105920009DF80C3062781C49202B08BF8DF80C5074
:10593000022A2AD0032A21D0012A10D000235B7228
:10594000FFDE23784FF4BA7202FB0343C433D8E777
:1059500023784FF4BA7202FB03435033D1E70A783D
:105960004FF4BA7303FB021303F59A739DF80C20EE
:105970005A7208B1FFF7F4FE05B030BD0A784FF453
:10598000BA7303FB0213C433F0E70A784FF4BA7317
:1059900003FB02135033E9E740C8FF1F18C10100A1
:1059A000FCD5FF1F30B5304C637885B02022022B28
:1059B000ADF80C2034D0032B2BD0012B02D00023C8
:1059C000DB7AFFDE23784FF4BA7202FB034303F560
:1059D0009A73DB7A03B920238DF80C3000252D2330
:1059E000019303AA0123214900952148FDF73AFCC0
:1059F0009DF80C3062781C49202B08BF8DF80C50A4
:105A0000022A2AD0032A21D0012A10D00023DB72D7
:105A1000FFDE23784FF4BA7202FB0343C433D8E7A6
:105A200023784FF4BA7202FB03435033D1E70A786C
:105A30004FF4BA7303FB021303F59A739DF80C201D
:105A4000DA7208B1FFF78CFE05B030BD0A784FF46A
:105A5000BA7303FB0213C433F0E70A784FF4BA7346
:105A600003FB02135033E9E740C8FF1F20C10100C8
:105A7000FCD5FF1F70B50F4C41F26C03D4F8D82D44
:105A8000E058D4F8D41D0568C2F1400382B01BB2BF
:105A900000268DE84800C1F1800312B21BB22D6CC4
:105AA00009B2A84704F6BC500349FFF7EBFD0120FB
:105AB00002B070BD40C8FF1F04DDFF1F70B50F4C62
:105AC00041F26C03D4F8D82DE058D4F8D41D056801
:105AD000C2F1400382B01BB200268DE84800C1F13C
