:1000000000800020BD010000851701003D170100A0
:100010003D1701003D1701003D1701003D1701008C
:100020003D1701003D1701003D1701008517010034
:10003000851701003D170100213A0100253B010011
:10004000851701008517010085170100851701003C
:10005000851701008517010085170100851701002C
:10006000851701008517010085170100851701001C
:10007000851701008517010085170100851701000C
:1000800085170100851701008517010085170100FC
:1000900085170100851701008517010085170100EC
:1000A000D5FF0000E1FF0000851701008517010062
:1000B00085170100851701008517010085170100CC
:1000C00085170100851701008517010085170100BC
:1000D00085170100851701008517010085170100AC
:1000E000851701008517010085170100851701009C
:1000F00085170100BD22010085170100394101006B
:100100008517010065420100851701008517010070
:10011000851701008517010085170100851701006B
:10012000851701008517010085170100851701005B
:10013000851701008517010085170100851701004B
:10014000851701008517010085170100851701003B
:10015000FD3C0100113D0100253D0100393D01003C
:10016000851701009D2501008517010085170100F5
:10017000851701008517010085170100851701000B
:1001800085170100851701008517010085170100FB
:1001900085170100851701008517010085170100EB
:1001A00085170100851701008517010085170100DB
:1001B000851701008517010085170100564B4CF289
:1001C000205210B51A804DF628121A8000BF00BFC9
:1001D00011F0DCFA514B4FF010621A60504A9A60ED
:1001E000504ADA60504A136813F4807304D14F49BF
:1001F0000B604FF4A85313604D4B1A78110703D5C9
:100200001A7842F008021A704A4B4B492A221A7097
:100210004A4A4B4B8B4204D252F8040F43F8040B6A
:10022000F8E7484B484900228B4202D243F8042B9E
:10023000FAE74649464A002352F8230041F82300D2
:1002400001336F2BF8D1434B434A802103F8011B44
:100250009342FBD1414B3D4A1A60414B8A221A70AE
:10026000A3F5805324225A70A0221A709A7992071B
:10027000FCD59A79D406FCD43A4A937903F00C035E
:10028000082B384BF9D103221A7140225A719A79FE
:100290009006FCD5334A9179324B4906FBD5324A58
:1002A000324911600221516020221A709A7902F0BD
:1002B0000C020C2AFAD12E4B2E4A1A602E4B2F4AD2
:1002C0001A6000225A60072243F8042C2C4AC3F813
:1002D0000C2D62B611F054FC144B1B68DA0705D5DF
:1002E000284811F0B1FB284B284A1A60284B1B788C
:1002F0005B0609D5244C254B22689A4204D121483B
:1003000011F0A2FB0023236015F066F811F044FA07
:1003100013F07AFEFEE700BF0E2005403080044057
:10032000823F04000100002B10D0034014D0034092
:1003300002D0074000E0074060AFFF1F60B7010038
:10034000308CFF1F60AFFF1F8CE7FF1F0082FF1F75
:100350000000000000E400E05FE400E008ED00E0E1
:100360000050064000400640448004400000030165
:1003700004800440C010050014E000E0FF76010096
:10038000000020200C2E065F1CE00340A5C3945AF9
:1003900000F00740FFFFFFFFFFFFFFFFFFFFFFFF32
:1003A000FFFFFFFFFFFFFFFFFFFFFFFFFFFFFFFF5D
:1003B000FFFFFFFFFFFFFFFFFFFFFFFFFFFFFFFF4D
:1003C000FFFFFFFFFFFFFFFFFFFFFFFFFFFFFFFF3D
:1003D000FFFFFFFFFFFFFFFFFFFFFFFFFFFFFFFF2D
:1003E000FFFFFFFFFFFFFFFFFFFFFFFFFFFFFFFF1D
:1003F000FFFFFFFFFFFFFFFFFFFFFFFFFFFFFFFF0D
:10040000FFFFFFFFFFFFFFFFFFFFFFFFDEF9FFFF23
:1004100010B5054C237833B9044B13B10448AFF33E
:1004200000800123237010BD60AFFF1F000000009B
:100430005CB70100084B10B51BB108490848AFF381
:1004400000800848036803B910BD074B002BFBD0A0
:10045000BDE81040184700BF0000000064AFFF1F58
:100460005CB7010060AFFF1F00000000704700BFD5
:10047000064A074908B51378D1F8F80D83F001034F
:10048000194613700FF098FA012008BD78BAFF1FC3
:10049000C0C9FF1F70B5294C0546D4F8F40D10F003
:1004A00043F8B4F8B63AB4F8B42A181A83B29342AF
:1004B000A4F8B63A2CD014D86A69002AC4BF02F155
:1004C000FF326A61AA685279022A27D04FF0FF30C2
:1004D000FF22A4F8B43A012185F8632285F862125C
:1004E00070BDA8686E690DF083FD2B69C01A864245
:1004F00002DA6B6901336B61AB685B79022B09D15E
:1005000023780E4A062B12D9B2F8B63AA4F8B43AB8
:10051000002070BDB4F8B63A0120D9E72278074927
:10052000002AF3D0013A0A704FF0FF30D0E70133D0
:1005300013700120B2F8B63ACAE700BFC0C9FF1F66
:10054000024BD3F8F40D10F033B800BFC0C9FF1F41
:1005500010B5044600F6EC5013F0AEFB04F6E45080
:1005600013F0AAFB204610BD234B1B6803F1640265
:10057000904270B504DA643B984201DD022070BD00
:100580001E4B1B6803F16402904204DA643B9842FC
:1005900001DD032070BD1A4B1D680446B5F9440007
:1005A000C0F13C0014F076FC0646B5F9460014F0A4
:1005B00071FC0146304614F075FD0646E86C14F0F7
:1005C00069FC0146304614F0B9FC0646A86C14F0EC
:1005D00061FC0146304614F0A9FB14F075FE00F1F1
:1005E00064039C4205DA64388442D4BF00200120B1
:1005F00070BD002070BD00BF10B2FF1F14B2FF1FFE
:1006000000C4FF1FF8B5427A05460E4602B3012327
:100610000A701C46A97A89B1C7291CD93831C9B2D8
:10062000164FC1EBC1010F44F018394615F0B4FC68
:10063000384615F025FD2044C4B22346EA7A1AB1A3
:100640000134E4B2F25423460022F2542046F8BDAD
:1006500013461446DEE70A4FC1EBC101F0183944D6
:10066000062215F07BFDA87AC0EBC000384415F0D7
:1006700007FD2044C4B22346E0E700BF9ED4FF1F1D
:10068000089B010070B5174C054620680FF0EAFE84
:1006900008B3AB685B79022B0FD02068114E0FF0C6
:1006A000E5FE044608B9204670BD30680FF086FEAE
:1006B0000023C5F85432204670BDD5F85432B3F546
:1006C0007A7FEAD9084A0124002382F8864C204622
:1006D000C5F8543270BD20680FF0B8FEC5F854025A
:1006E000D7E700BFE0DFFF1FC0C9FF1F0120704731
:1006F000012070472DE9F04F2F4D304FD5F8F83DD0
:1007000083B01A6800264FF01A080196CDF80080D1
:10071000146C82462D22184631467B23A047D5F81B
:10072000F80D01210EF0D6F9D5F8F84D24492368CB
:10073000A6822A224FF001094FF0040B5B68228247
:10074000A4F812900822A4F80EB02046984720463C
:1007500013F012FB1B4BD5F8F84D53F82AA0A4F860
:100760000EB032232382504615F08AFC23680246DD
:1007700051465B6820469847204613F0FDFAD5F8AD
:10078000F80D03688DE8000325223146DC6C7B23DD
:10079000A04711F085F93B6847F22F52C01A9042EA
:1007A00006D9D5F8F80D0FF001F811F079F9386095
:1007B00003B0BDE8F08F00BFC0C9FF1FBCC9FF1F59
:1007C000589C01005899FF1F2DE9F04390F96332BE
:1007D0005D4E0133044687B04FF00101D6F8F80DA5
:1007E0005CD00EF077F925696369A0681D440DF0AF
:1007F000FFFB854280F2A280276963691F4494F958
:100800006382E3689845D6F8F83D07BF00210122CE
:100810000121002202AD59829A8229464246204691
:100820000DF04AFC284615F02BFC0D2807DC284467
:100830000DF11602202300F8013B9042FBD16169C3
:10084000E369D6F8F86DA269C1EB0808093303EB38
:10085000C8034FF000098DF816902846F2813382C4
:1008600015F00EFC336802465B682946304698470F
:10087000304613F081FA94F8633201335BB2BB4225
:1008800084F8633202D007B0BDE8F083FF2384F818
:10089000629284F8633207B0BDE8F0830EF01AF973
:1008A000A368D6F8F82D1F6800210120508291829C
:1008B00018460DF09DFB00B200EB400102AD07EBC6
:1008C000C1010E22284615F049FC284615F0D8FB38
:1008D0000D2807DC28440DF11602202300F8013B07
:1008E0009042FBD1D6F8F87DB4F91C30A269002102
:1008F0008DF816102846FA813B8215F0C1FB3B6843
:10090000024629465B6838469847384613F034FA61
:10091000E269D6F8F80DA1690568083212B2012320
:100920008DE80C0001F15403AD6C1BB209B2A8476D
:10093000636984F8633207B0BDE8F083A0680DF006
:1009400057FB07465BE700BFC0C9FF1F2DE9F04F0B
:10095000B84BB94C1B68B84E186993F93C708FB00E
:1009600014F094FAB54914F09DFB0146B44814F014
:1009700099FBB44914F096FB8046D4F8F80D002595
:100980000368019540220092D3F840902A468023C4
:100990002946C8470121D4F8F80D0EF09BF8D4F889
:1009A000F80DA9490368858201225B684282C581EE
:1009B0000322058298472178D4F8F80D013113F00D
:1009C00041FA6378022B00F05D81032B00F0528125
:1009D000012B00F0A7809D4ED4F8F80D336801225A
:1009E000002B40F09B8043828282036898495B68B9
:1009F000062298473368D4F8F85D012B00F0168181
:100A0000012200236A82AB822B6892495B68DFF87F
:100A100028A2042228469847284613F0ADF9D4F8B6
:100A2000F85D8D492B684FF000090C224FF0010B47
:100A30005B682A82A5F812B01222A5F81490A5F8D6
:100A40000E9028469847284613F096F9D4F8F80DEA
:100A500014230382A0F80E9002210EF03BF83368B5
:100A6000022B67D00537D4F8F85DFAB201200021D7
:100A70000A2A6882A9826BD9022B7AD007AF2B6829
:100A800076495B684FF001094FF0000A0222A5F891
:100A90001290A5F814A028469847404613F01CFE73
:100AA0000B4602466E49384615F050FA3368D4F8C2
:100AB000F85D032B00F08980012200236A82AB825B
:100AC000384615F0DDFA2B6802465B683946284641
:100AD0009847284613F050F93368032B7FD0012143
:100AE000D4F8F80D5F4D544E0DF0F4FFD4F8F83DF6
:100AF000002201219A82598210F0D2FF2B6847F21E
:100B00002F52C01A904206D9D6F8F80D0EF04EFEBC
:100B100010F0C6FF28600FB0BDE8F08F00234282BE
:100B2000838262E7D6F8F80D4F49036806225B68B6
:100B3000984750E74D4A1278002A93D00537DAF8E3
:100B4000F85DFBB20A2BA5F81290A5F814B095D861
:100B5000474B53F82790484615F092FA2B68024607
:100B60005B682846494698473368D4F8F85D022BFD
:100B700084D13E4B1A78002A80D13D4B0DF11A0CDE
:100B800053F82710CDF808C00DF1180E0DF116031B
:100B900007AF28468DE80840039714230EF0DAF8D3
:100BA000D4F8F80DBDF91C10056800914FF0010E46
:100BB000CDF804E0ED6CBDF91A30BDF91820BDF98F
:100BC0001610A847D4F8F85D59E7284B1B78002B7E
:100BD0003FF472AFA5F812A0A5F8149070E7234B6C
:100BE0001B78002B7FF47BAF0DF11A0606AD0DF1DB
:100BF000160205ABD4F8F80D03963946029501921A
:100C000000933C2214230EF0A5F8D4F8F80DBDF99A
:100C10001A600568009601260196BDF91830BDF9E5
:100C20001620BDF91410ED6CA84758E70022AB82DE
:100C30006A82E9E600C4FF1FC0C9FF1F00007A44B2
:100C400000606A470000C041649C0100C0B1FF1F02
:100C5000809C0100889C0100909C01007C9C01000C
:100C6000A49C010098B1FF1F689C0100DC99FF1F44
:100C70005893FF1FD6F8F80D0649036806225B68F3
:100C80009847A8E6D6F8F80D0349036806225B6882
:100C90009847A0E6789C0100709C010070B504465E
:100CA00008460D4615F0ECF9236802462946204611
:100CB0005B68BDE8704018472DE9F04F002387B00E
:100CC0000122437000F6B423027000F1040B049378
:100CD00005904FF0000300278BF80C304FF61943B6
:100CE000ABF80A30CBF81070CBF81470CBF8187052
:100CF000CBF81C70CBF82070CBF824708BF82870E0
:100D00008BF80470ABF80670ABF80870382013F05D
:100D100083F94FF0814E01244FF48066C0F810E053
:100D20004FF0000EC0F820E03A4639464660ED4BE1
:100D300080F824700475054610F09CF8EA4BCBF857
:100D400034304FF03C038BF83A304FF028038BF8E7
:100D50003B304FF07E53CBF83C3040F6FF73CBF87E
:100D60004C30E24BCBF850304FF47A73ABF85C3038
:100D7000DF4B2B614FF0780A4FF07F084FF0FF09EF
:100D80004FF6FF73CBF82C508BF831708BF838404E
:100D90008BF839408BF840708BF841708BF84270BB
:100DA0008BF84370ABF844408BF84670ABF8487052
:100DB000ABF854708BF85870ABF84AA0ABF856A05B
:100DC0008BF859808BF85A808BF864906B608BF8A5
:100DD0003040382013F020F94FF0010E80F814E075
:100DE0004FF0814EC0F810E04FF0000EC0F820E048
:100DF000224639464660BF4B80F82470054610F005
:100E000039F84FF61943ABF86E3040F6FF736B605C
:100E10004FF08043CBF860508BF86570CBF874705E
:100E2000CBF87870CBF87C70CBF88070CBF88470FE
:100E3000CBF888708BF88C708BF86870ABF86A70A0
:100E4000ABF86C708BF870702B61ABF808703820C1
:100E500013F0E2F84FF0814EC0F810E04FF0000EB2
:100E6000C0F820E03A46394646609E4B047580F84B
:100E7000247005460FF0FEFF9B4BCBF898304FF0E7
:100E80003C038BF89E304FF028038BF89F304FF0D7
:100E90007E53CBF8A03040F6FF73CBF8B030934BC5
:100EA000CBF8B4304FF47A73ABF8C0304FF6FF7321
:100EB0006B608F4BCBF890508BF895708BF894400B
:100EC0008BF89C408BF89D408BF8A4708BF8A57034
:100ED0008BF8A6708BF8A770ABF8A8408BF8AA70B7
:100EE000ABF8AC70ABF8AEA0ABF8B870ABF8BAA08A
:100EF0008BF8BC708BF8BD808BF8BE808BF8C890E7
:100F00002B61382013F088F84FF0814EC0F810E0C4
:100F10004FF0000EC0F820E0224639464660754B7F
:100F2000047580F8247005460FF0A4FF4FF61943AE
:100F3000ABF8D23040F6FF736B604FF08043CBF8D4
:100F4000C450ABF86C708BF8C970CBF8D870CBF884
:100F5000DC70CBF8E070CBF8E470CBF8E870CBF83D
:100F6000EC708BF8F0708BF8CC70ABF8CE70ABF8FF
:100F7000D0708BF8D4702B61382013F04DF8466098
:100F80004FF0814606610026564B04753A463946B5
:100F9000066280F8247005460FF06CFF524BCBF8C8
:100FA000FC304FF03C038BF802314FF028038BF8F4
:100FB00003314FF07E53CBF804314FF6FF736B6073
:100FC0004B4B2B61049BCBF8F4508BF8F9708BF8EA
:100FD000F8408BF800418BF801418BF808718BF8D1
:100FE00009718BF80A718BF80B71ABF80C418BF817
:100FF0000E718BF810918BF81471CBF81871CBF837
:1010000024718BF828718BF82C718BF82F718BF869
:101010002E718BF82D718BF800900BF5987B9B450A
:101020007FF457AEDDF814A04FF0FF32AAF8B42ACF
:101030004FF000028AF8B82A40F6FF72CAF8BC2ABC
:101040002A4ACAF8C02A40F6FF72CAF8C82ACAF863
:10105000CC2A264ACAF8D02A40F6FF72CAF8D42A07
:10106000224ACAF8D82A47F230534FF47A72AAF8C3
:10107000B63A3946AAF8DC2ACAF8C47A69220AF6CE
:10108000DE2014F00FFD0AF648300CF0B3FF1A4BC7
:10109000CAF8483B4FF000028AF8682B8AF8762C91
:1010A0003946FB22CAF86C7CAAF8747CCAF8887CA2
:1010B0000AF68C4014F0F6FC4FF000038AF8A03DCD
:1010C0008AF8A13D8AF8A83D8AF8AA3D4FF00103AD
:1010D0008AF8853C4FF000038AF8863C8AF8873C02
:1010E0000CE000BF17B7D1389F86010001F0FFFF69
:1010F000000060420AD7233CFCA501004FF0010329
:1011000036215F4A8AF8D03D07244FF000030AF6E3
:10111000BF508AF8DC3DCAF8601BCAF8D82DCAF85F
:10112000887DCAF88C7DCAF8907DCAF8947DCAF88B
:10113000987DCAF89C7DCAF8A47D8AF8A99D8AF892
:10114000AB9DCAF8AC7DCAF85C7BCAF8647BCAF870
:10115000D47D4346CAF8584B01460AF6AF5202F80E
:10116000013F824201F8013FF9D141F2DC510022F6
:101170000AF5AF5341F2E85641F21E6541F21F6095
:1011800041F2E4574AF8012080218AF8E81D8AF8E4
:10119000F01DCAF8E42DCAF8EC2D8AF81C2E96240E
:1011A0001A7040F664314AF8072040F2CA734AF8D0
:1011B00006200AF805200AF800204FF4866040F661
:1011C000FE6641F29825CAF8FC4DCAF8000E41F2BD
:1011D000326441F6CC10CAF8043ECAF8081E0AF57B
:1011E000AF530AF5B051CAF80C6ECAF8105ECAF8CF
:1011F000144ECAF8180E0B331D3103F8012F8B4221
:101200004FF00004F9D1942012F006FF05460FF0CC
:1012100081FACAF8E05D242012F0FEFE04230722C2
:1012200006218DE8180005464FF0FF330FF028F92E
:10123000CAF8F45D102012F0EFFE04460FF08CF8AF
:101240000AF5B1530F481C600EF076FF0E210D48D1
:101250000EF0DAFF642012F0DFFE0B4B039309213E
:1012600008220A238DE80E00064B40228021044606
:101270000DF02CFE5046CAF8F84D07B0BDE8F08FCF
:101280000CE0FF1F80A3FF1F00127A0038B5054D48
:1012900028680FF0EBF8044610B128680FF08EF8BC
:1012A000204638BDE0DFFF1F38B5144C0546D4F8A2
:1012B000F40D0FF039F9B4F8B63AB4F8B42A181AA4
:1012C00083B29342A4F8B63A15D00D4A11680AD8F1
:1012D0000029CCBF01F1FF31002111604FF0FF3038
:1012E000A4F8B43A38BDA942B8BF01311160012059
:1012F000A4F8B43A38BD002038BD00BFC0C9FF1FF4
:10130000C0B1FF1FF0B5634B63491C78634A4B784B
:101310000020012C106000F08C80012B40F29280A4
:10132000022B00F08680032B3AD05D48036893F8C7
:101330005420DFF8ACC1DFF89CE15A4E5A4D5B4FA8
:10134000003218BF01228CF8002003F14402CEF8CD
:1013500000209A6C3260DA6C2A60554EB3F8502047
:101360003A80544DB3F85270534A3780B3F8446012
:10137000B3F846302E80138004F0FD03012B18D003
:101380004E4D4F4C4F48504A4FF0FF33012600213D
:101390002E602360036011704C4B01201870F0BD6B
:1013A0000B783F484FF4987202FB03136C330360D1
:1013B000BDE70368464A93F8545093F842601670AC
:1013C000012D4FF0000283F842203ED0022D4AD07A
:1013D0007825A3F84420A3F85020A3F84650A3F89A
:1013E0005250364B364F374E374D01221A60012C82
:1013F0004FF0FF334FF000023B6033602A70CBD1D7
:101400000068344B80F854201868334BD1F8BC5A2C
:10141000D1F8C04A31494560846003F1140003F8F3
:10142000012F834241F8042FF9D1284B0120187075
:10143000F0BD0B781A484FF4987202FB031308337F
:10144000036074E7052C19D0F0BD78224FF6C476FE
:101450004FF68875A3F84460A3F84620A3F85220FD
:10146000A3F85050BDE73C267825A3F84420A3F804
:101470005020A3F84660A3F85250B2E7012B7FF446
:1014800054AF0B7806484FF4987202FB0313D03325
:10149000036071E79DB1FF1FC0C9FF1F7CAFFF1F35
:1014A00000C4FF1F0CC4FF1FB0C9FF1FD0E2FF1F05
:1014B000A88FFF1FCCB1FF1F48B2FF1FC0B1FF1F95
:1014C000A497FF1F5C91FF1F40B2FF1FD8B1FF1F01
:1014D000B0B1FF1F3CB2FF1F33B4FF1FE8B9FF1FBD
:1014E00084BAFF1F2DE9F041DFF8A880234F98F858
:1014F0000030052282B03A707BB1214E3568ADB123
:10150000A84720B90024204602B0BDE8F08100249D
:101510002046346002B0BDE8F081FFF7F3FE0028FA
:10152000EBD10124204602B0BDE8F081154B1878BC
:101530000238FFF7B9FE2846FFF708FAFFF7A6FEC4
:1015400004460028DED0104B1B68012B06DD023B51
:101550000E4A52F8233033602C46D4E70C4BD3F8B4
:10156000F80D402203688DE8240029461E6C2A46A7
:101570008023B04788F800503D70C4E79DB1FF1F3D
:101580007CAFFF1FE1A1FF1FC0B1FF1F888DFF1FB0
:10159000C0C9FF1FD8B1FF1F2DE9F04FDFF87092CF
:1015A000DFF87082D9F8F80D8FB000240368019439
:1015B000402200921D6C224680232146A847D9F87C
:1015C000F80D01210DF086FAD9F8F80D8449036869
:1015D000848201255B68C481082204824582984781
:1015E00099F80010D9F8F80D294412F02BFCD9F81D
:1015F000F80D7C49036807225B689847D8F800001B
:10160000002800F0D58013F045FC4FF07C5113F01A
:1016100095FC13F061F8D9F8F84D009502460B4699
:10162000204612F019FCD9F8F84D6F4923682A4674
:101630005B6820469847204612F09EFB00230693E5
:101640006A4B07930E230593059B079E043B1BB231
:101650000493069B1D4603EB4303039300240127D9
:10166000039BD8F80020D9F8F8ADEB189A4200F0A7
:1016700098804FF00003AAF81270AAF814300FFAFD
:1016800084FBBDF81030AAF8103009A8AAF80EB0F3
:10169000002D00F0998014F0F3FCDAF800300246D7
:1016A0005B6809A950469847504612F065FB3378AD
:1016B000002B6AD11E34A4B2782C06F1010605F184
:1016C0000105CDD1059B069A09339BB20593079B73
:1016D00001320433052A06920793B5D1D9F8F80DE3
:1016E00043490368434D5E68012400233722028288
:1016F000448204228382C381B0473F4BD9F8F80D5E
:10170000196812F09FFBD9F8F80D3C49036822468E
:101710005B6898472968D9F8F80D12F093FBD9F85F
:10172000F80D3649036822465B689847344B2868B1
:101730001D686B68C01A13F0ADFB0646A86813F06D
:10174000A9FB0146304613F0ADFC2E4913F0F6FB21
:1017500012F0C2FFD9F8F85D022602460B46009649
:10176000284612F079FBD9F8F85D1F492B6822460C
:101770005B6828469847284612F0FEFAD9F8F80D1B
:101780000EF014F80FB0BDE8F08FD9F8F80DBDF9E0
:10179000142003680097D3F83CA059461823D0477B
:1017A00088E74FF00003AAF81230AAF8147066E731
:1017B000D9F8F84D1449236820465B6803229847FE
:1017C000204612F0D9FA39E7DAF800300F495B68A1
:1017D000042250469847504612F0CEFA6AE700BFFE
:1017E000AC9C0100B89C0100C09C010034B4FF1FF8
:1017F000C89C0100A497FF1F5C91FF1FD09C0100B3
:101800003CB2FF1F00002041C49C0100889C0100E5
:10181000C0C9FF1FC0B1FF1F2DE9F04F984B994C75
:101820001B68994AD4F8F80D1168D3F804B09B6886
:10183000026891F8547085B00025039340238DE829
:10184000280029468023166C2A46B047D4F8F80DA4
:1018500001210DF03FF9D4F8F80D8C490368858219
:1018600001224282C58105825B6803229847217864
:10187000072940F2D8806378D4F8F80D022B03686A
:101880000CBF834983495B6805229847824ED4F890
:10189000F80D33680122002B40F0C1804382828220
:1018A00003687E495B68082298473368D4F8F85D7E
:1018B000012B00F0C980012200236A82AB822B68D1
:1018C00077495B68DFF8BCA1032228469847284681
:1018D00012F052FAD4F8F85D72492B684FF0000804
:1018E0004FF0010911225B682A82A5F8129010229C
:1018F000A5F81480A5F80E8028469847284612F0CF
:101900003BFA3368DAF8F80D5E4D022B4FF01B03FB
:101910000382036807BFA0F81280A0F81490A0F813
:101920001290A0F814800022022F0CBF5E495F497C
:10193000C2815B68102298473368D4F8F80D032BF6
:101940000CBF0123002383824FF025030CBF00222C
:101950000122038203684282022F4FF000020CBF73
:1019600053495449C2815B6810229847D4F8F80D56
:10197000514903685E6801234382372303820023B1
:101980008382C3810422B0474C4B1B68002B0EDDC1
:101990004B4ED5F8F85D03EB83031E44304614F03C
:1019A0006FFB2B68024631465B6828469847D4F89F
:1019B000F80D44490368334D5B6803229847424B56
:1019C0001868022FCBEB000042D013F063FA0646F2
:1019D000039813F05FFA0146304613F063FB3B496E
:1019E00013F0ACFA12F078FED5F8F85D0226024644
:1019F0000B460096284612F02FFAD4F8F85D3449C9
:101A00002B6801225B6828469847284612F0B4F9F3
:101A1000D4F8F80D05B0BDE8F04F0DF0C7BE0023B7
:101A2000428283823CE70131D4F8F80D12F00AFAC1
:101A30006378D4F8F80D022B03680CBF25492649BA
:101A40005B680522984721E70022AB826A8236E76D
:101A500013F020FA0646039813F01CFA01463046AC
:101A600013F020FB1D4913F069FA12F035FED5F88A
:101A7000F85D009702460B46284612F0EDF9BCE7E8
:101A80003CB2FF1FC0C9FF1F00C4FF1F649C0100C0
:101A9000D49C0100DC9C0100C0B1FF1FF49C01003C
:101AA000C49C0100009D0100149D0100289D0100BF
:101AB0003C9D0100509D0100C89C01005C91FF1FEE
:101AC000849FFF1F649D0100A497FF1F0000204119
:101AD000C09C0100E49C0100EC9C01000000A040BF
:101AE0002DE9F04FDFF82C92814DD9F8F80D8BB02D
:101AF000002403680194402200921E6C2246802339
:101B00002146B047D9F8F80D01210CF0E3FFD9F8D0
:101B1000F80D78490368C48101265B6804828482D9
:101B200046820A2298472B68D9F8F80D002B40F01E
:101B3000D7804382868203686F495B680822984792
:101B40002B68D9F8F84D012B00F0CD80012200233D
:101B50006282A3822368694A69495B6802922046CF
:101B600003229847204612F007F9D9F8F84D654945
:101B70002368654D5B684FF000080A220126228227
:101B8000A4F80E801422A4F81280A682204698475A
:101B9000204612F0F1F8D9F8F84D5C492368A4F812
:101BA0000E8025225B682282204614229847204618
:101BB00012F0E2F8D9F8F8AD554B0393AAF8126089
:101BC000AAF81480029B4FEAA80606EB460653F8D3
:101BD00004BF029306EBC60608F003074FF0000CA3
:101BE000B6B2C7EB071706F113037F00E345AAF867
:101BF0001030AAF80E708DF818C062DB05AB06AC89
:101C00009C44A64601209BFBF0F385FB0321DA17D9
:101C1000C2EBA10202EB8202A3EB420330330EF8C7
:101C2000013D00EB8000E6454FEA4000EBD105A8FE
:101C300014F026FADAF8003002465B68504605A92F
:101C40009847039BD9F8F8AD53F8041F039306F1A6
:101C50001C030026B142AAF80E70AAF810308DF8C5
:101C6000186028DB05AB1E44012091FBF0F385FBD7
:101C70000327DA17C2EBA70202EB8202A3EB4203AF
:101C8000303304F8013D00EB8000A6424FEA4000EB
:101C9000EBD105A814F0F4F9DAF80030024608F1A7
:101CA00001085B68504605A99847B8F1080F10D0A5
:101CB000D9F8F8AD86E72D2349428DF81430012676
:101CC000D0E72D23CBF1000B8DF814304FF0010C31
:101CD00094E7D9F8F80D0DF069FD0BB0BDE8F08F71
:101CE0004682848227E70022A382628232E700BF15
:101CF000C0B1FF1F689D0100749D010014B2FF1F59
:101D0000C49C0100809D010067666666989D010085
:101D100054BAFF1FC0C9FF1F7C4B1A68F0B40346BA
:101D2000946CB2F9440007290CD8DFE801F0042DC7
:101D300032517292B20D764A106891889279186089
:101D400099809A71F0BC7047D26C0026A4185E711D
:101D500000F1BD806F4F1E440120053394FBF0F26B
:101D600087FB0215D117C1EBA50101EB8101A2EBA5
:101D70004102303203F8012D00EB8000B3424FEAFC
:101D80004000EBD1F0BC7047634A10681860F0BCAB
:101D900070470026041E5E71C0F2B2805D4F1E4483
:101DA0000120053394FBF0F287FB0215D117C1EB3C
:101DB000A50101EB8101A2EB4102303203F8012DB4
:101DC00000EB80009E424FEA4000EBD1F0BC704730
:101DD000B2F94660002536185D7100F18C804D4FD8
:101DE0001D440120053396FBF0F287FB0214D11746
:101DF000C1EBA40101EB8101A2EB4102303203F8F7
:101E0000012D00EB8000AB424FEA4000EBD1F0BC6B
:101E10007047B2F950600025AE425D7166DB3D4F00
:101E20001D440120053396FBF0F287FB0214D11705
:101E3000C1EBA40101EB8101A2EB4102303203F8B6
:101E4000012D00EB8000AB424FEA4000EBD1F0BC2B
:101E50007047B2F952600025AE425D7141DB2D4FF3
:101E60001D440120053396FBF0F287FB0214D117C5
:101E7000C1EBA40101EB8101A2EB4102303203F876
:101E8000012D00EB8000AB424FEA4000EBD1F0BCEB
:101E900070470026B4425E711EDB1E4F1E440120B7
:101EA000053394FBF0F287FB0215D117C1EBA501B6
:101EB00001EB8101A2EB4102303203F8012D00EB6E
:101EC0008000B3424FEA4000EBD1F0BC70472D22B6
:101ED00064421A7001263DE72D2264421A700126E1
:101EE000DBE72D2276421A700125B8E72D227642D3
:101EF0001A70012593E72D2276421A7001256EE7AC
:101F00002D2264421A70012648E700BF00C4FF1F5B
:101F1000809C010067666666C49C01002DE9F04F55
:101F2000664EDFF8BCA1D6F8F80D8BB0002403682C
:101F30000194402200921D6C224680232146A8472E
:101F4000D6F8F80D01210CF0C5FDD6F8F80D5C4966
:101F50000368848201225B684282C4810322048276
:101F600098473178D6F8F80D013111F06BFF73788E
:101F7000D6F8F80D022B036808BF52495B6818BFFA
:101F8000514905229847DAF80030D6F8F80D0122B9
:101F9000002B7FD14382828203684C495B68082210
:101FA0009847DAF80030D6F8F84D012B76D00122A8
:101FB00000236282A382236845495B68032220468E
:101FC0009847204611F0D8FED6F8F84D41492368CD
:101FD0000027102201205B6860822282A782E781AD
:101FE00020469847204611F0C7FE1C234FF0020BF5
:101FF0000293B8464FEA4809BDF90830039309F146
:10200000020918250024D6F8F83D01210022598242
:102010009A82B8F1000F45D0DAF8002009EB0401EC
:1020200091424FF0010031D0002258829A82BDF8CF
:102030000C20DA811D820BEB040105A8FFF76CFE72
:10204000D6F8F87D05A814F01BF83B6802465B68DB
:1020500005A9384698470134384611F08DFE0A35F7
:10206000022CADB2CFD1029B08F101082A339BB2FA
:10207000B8F1020F02930BF1020BBBD10F4BD3F857
:10208000F80D0DF093FB0BB0BDE8F08F00215982E5
:102090009882CCE70023428283827DE70022A382DC
:1020A000628288E718460C492CB1FEF7F7FD034B16
:1020B000D3F8F83DB0E718460849F6E7C0C9FF1F56
:1020C000649C0100E49C0100EC9C0100F49C010074
:1020D000C49C0100B09D0100C49D0100CC9D010085
:1020E000C0B1FF1F00B5837B172B12D8DFE803F0C8
:1020F0001313262626323926262626261F190C11CA
:102100001326262626261313002043F6FF730860A5
:1021100013605DF804FB90F82030012B12D0022BE5
:1021200026D000207F23086013605DF804FB134B6A
:102130000B6047F6FF7313605DF804FB90F82030E6
:10214000012BEED16FF07F004FF4807308601360B5
:102150005DF804FB0A4B0B6041F6FF7313605DF8FA
:1021600004FB6FF063006423086013605DF804FBF8
:1021700000203C23086013605DF804FB0080FFFF33
:1021800000E0FFFF817317290DD8DFE801F029294E
:102190000D0D0D36410D0D0D0D0D1811210C290DD4
:1021A0000D0D0D0D2929704790F82030012B36D0E8
:1021B00000227F23028282834382C38370474FF4CD
:1021C000004247F6FF73028282834382C3837047D3
:1021D000002243F6FF73028282834382C3837047E7
:1021E00090F82030012B2FD0022B25D0002278230D
:1021F000028282834382C38370474FF4604343F675
:10220000FF7141F6FF72038283834182C28370476C
:1022100000226423028282834382C383704710B406
:1022200080214FF6C0744FF681727F230482418271
:102230008283C38310BC704700233C217822038231
:1022400083834182C283704778234FF6C4714FF66F
:10225000887201824382C383828370472DE9F04FE5
:10226000A34BA44C1B78032283B02270002B00F0F8
:10227000A380A14BA14E1F6897F85450B86C022D53
:1022800000F0B78012F006FE8046B7F94600B7F9B5
:1022900044B012F0FFFD8246F86C12F0FBFD81465F
:1022A000CBF1180012F0F6FD514612F0FBFE494644
:1022B00012F044FE414612F039FD13F005F830608B
:1022C000CBF1600012F0E6FD514612F0EBFE4946FC
:1022D00012F034FE414612F029FD12F0F5FFDFF84E
:1022E0005492C9F800008649864ADFF84CA2B7F933
:1022F000043008787988CAF800101360FEF7D4FF1C
:10230000FFF78AFAFEF7C2FF804600283CD0DFF8CC
:102310002C82D8F80000012840F3C580022800F084
:10232000BC80032800F0B3803468D9F80000022D87
:10233000A0EB040000F08F8012F0ACFD05462046B3
:1023400012F0A8FD29460446284612F0EFFC6E491B
:1023500012F0A8FE0146204612F0E6FC12F0B4FF8F
:102360006A490446284612F0E9FD674912F09AFED0
:1023700012F0AAFF664B1B684FF000085C60986083
:10238000404603B0BDE8F08F2378032BF8D1BAF8AC
:102390000000FEF7E9F85F4B93F8A13D002BEFD06A
:1023A0000028EDD05C4B1A788242E9D0DFF88C81AE
:1023B0001870C8F80000AEE7FEF7A4FF0546002835
:1023C0007FF457AF534C55494FF00108FF2204F6F4
:1023D000693084F8688B13F0C1FE4FF4FA62112360
:1023E000A4F8705CA4F8745CC4F86C2CA4F8723C7B
:1023F000C6E712F04FFD8346B7F94600B7F944A08F
:1024000012F048FD8146F86C12F044FD8046CAF196
:102410000C0012F03FFD494612F044FE414612F016
:102420008DFD594612F082FC12F04EFF3060CAF169
:10243000300012F02FFD494612F034FE414612F0F2
:102440007DFD594612F072FC12F03EFFDFF8E49079
:10245000C9F8000047E712F01DFD0546204612F0BE
:1024600019FD2F490446284612F01CFE014620465D
:1024700012F05AFC12F028FF2A490446284612F0AE
:102480005DFD274912F00EFE12F01EFF72E7DAF82A
:1024900000003468C9F8000049E7DAF80040346009
:1024A000D9F8000043E71B4BD3F8F80D002203686E
:1024B0000192402100911D6C11468023A8470E4BCC
:1024C0001868194B34301978FFF75CFED8F80030E3
:1024D0003BB90F4B1549164A1B68096812685960C9
:1024E0009A60034A0023137023704FF0010847E7F6
:1024F000D8B1FF1F9DB1FF1F00C4FF1F10B2FF1F07
:10250000A4A2FF1F5C91FF1F0000C04000002041FB
:102510003CB2FF1FC0C9FF1F40B2FF1FD49D010086
:10252000000040400000A040B0B1FF1F0CC4FF1FDE
:10253000B0C9FF1F14B2FF1FA497FF1FC0B1FF1F38
:1025400010B582B002AB42F2B76243F8042D0446E4
:1025500001700422184600210FF078F8204601226D
:1025600002210FF073F802B010BD00BF70B582B049
:1025700002AB42F2B76243F8042D04460422184627
:1025800000210FF063F82046012202210FF05EF8CF
:10259000201D042203210FF059F804F10800042241
:1025A00007210FF053F804F10C0004220B210FF067
:1025B0004DF804F1100004220F210FF047F804F148
:1025C0001400042213210FF041F804F11800042232
:1025D00017210FF03BF804F11C0004221B210FF01F
:1025E00035F804F1200004221F21314D314E0FF047
:1025F0002DF804F12600692223210FF027F80D2180
:102600002D4811F0A7F800230A222178284611F05E
:10261000D9FB0221294811F09DF86168284611F084
:1026200011FC3046012111F095F8A168284611F0FF
:1026300009FC3046012111F08DF8E168284611F0BF
:1026400001FC3046012111F085F82169284611F07E
:10265000F9FB3046012111F07DF86169284611F03F
:10266000F1FB3046012111F075F8A169284611F0FF
:10267000E9FB3046012111F06DF8E169284611F0BF
:10268000E1FB3046012111F065F8216A284611F07E
:10269000D9FB3046012111F05DF88C21284611F05C
:1026A000D1FB284611F068FB962002B070BD00BF38
:1026B000C8A4FF1FD09C0100E89D0100ACA201004E
:1026C00070B5064682B000200EF07EFF8DF8060041
:1026D00001200EF079FF8DF80700BDF8062042F2C8
:1026E000B7639A4240F0B98002200EF06DFF0128D6
:1026F0008ABFFF2330703370F51C032420460EF090
:1027000063FF0134072C05F8010FF7D1F51D2046B2
:102710000EF05AFF01340B2C05F8010FF7D106F12A
:102720000B0520460EF050FF01340F2C05F8010F69
:10273000F7D106F10F0520460EF046FF0134132CA9
:1027400005F8010FF7D106F1130520460EF03CFF06
:102750000134172C05F8010FF7D106F117052046B3
:102760000EF032FF01341B2C05F8010FF7D106F1F2
:102770001B0520460EF028FF01341F2C05F8010F21
:10278000F7D106F11F0520460EF01EFF0134232C61
:1027900005F8010FF7D106F1250520460EF014FFCC
:1027A00001348C2C05F8010FF7D10C21304810F0C2
:1027B000D1FF00230A2231782E4811F003FB0221B9
:1027C0002D4810F0C7FF71682A4811F03BFB01212A
:1027D0002A4810F0BFFFB168264811F033FB0121F1
:1027E000264810F0B7FFF168224811F02BFB0121B9
:1027F000224810F0AFFF31691E4811F023FB012180
:102800001E4810F0A7FF71691A4811F01BFB012147
:102810001A4810F09FFFB169164811F013FB01210F
:10282000164810F097FFF169124811F00BFB0121D7
:10283000124810F08FFF316A0E4811F003FB01219E
:102840000E4810F087FF21460A4811F0FBFA0948AC
:1028500011F092FA962002B070BD1B21084810F0CA
:1028600079FF044811F088FA002002B070BD00BF63
:10287000149E0100C8A4FF1FACA20100D09C01005F
:10288000F89D01002DE9F843099C089E0F469046EB
:1028900099461CB1086812F017FDA0471D4DD5F8E8
:1028A000F40D0DF041FEB5F8B64AB5F8B43A201A69
:1028B00084B29C42A5F8B64A24D094BF06F10040E9
:1028C0003046396812F032FA4146064612F0D4FC1E
:1028D00058B94946304612F0EDFC68B1C7F800908F
:1028E0000020A5F8B44ABDE8F883C7F800800020AE
:1028F000A5F8B44ABDE8F8833E600020A5F8B44AC4
:10290000BDE8F88305F5B1552868BDE8F8430DF03A
:10291000ADBD00BFC0C9FF1F2DE9F041274B5B785B
:10292000012B84B0264B42D91B68186903F1380883
:1029300003F1100412F0AAFA224912F0B3FB014687
:10294000214812F0AFFB214912F0ACFB11F03CFD25
:1029500004A91F4A41F8040D4FF07E530746019227
:10296000009300221B4B1C48FFF78CFF1B4B039E60
:10297000187005461349304612F094FB0146124880
:1029800012F090FB114912F08DFB12F0C3FC394696
:102990002060304612F086FB0146D8F8000012F0A5
:1029A000CDFAC8F80000284604B0BDE8F0811C68E4
:1029B000206904F138081034BCE700BFC0C9FF1F0C
:1029C00000C4FF1F00007A4400606A470000C04155
:1029D0004D0900000000FA4308D5FF1FDC99FF1FD6
:1029E00030B51E4A5378022B85B02FD0032B26D04A
:1029F000012B02D000231B7AFFDE13784FF498746A
:102A000004FB032404F5827494F9080012F042FADE
:102A100004A9134A41F8040D4FF07E53019200932C
:102A2000104A114B1148FFF72DFF114B05461D7041
:102A3000039812F049FC2072284605B030BD137887
:102A40004FF4987404FB0324A034DDE713784FF4AB
:102A5000987404FB03243C34D6E700BFC0C9FF1FB1
:102A60004D0900000000A0C00000A04008D5FF1FD5
:102A7000DC99FF1F2DE9F843099CDDF820900E46F4
:102A800090461F460CB10868A0471C4DD5F8F40DC0
:102A90000DF04AFDB5F8B64AB5F8B43A201A84B23A
:102AA0009C42A5F8B64A21D0E01A12F0F3F9494643
:102AB00012F044FA8146306812F0ECF901464846BB
:102AC00012F034F912F000FC404508DB8742A8BF41
:102AD000074637600020A5F8B44ABDE8F883C6F879
:102AE00000800020A5F8B44ABDE8F88305F5B1558B
:102AF0002868BDE8F8430DF0B9BC00BFC0C9FF1F8E
:102B00002DE9F047224CBDF82090099D0646D4F8E7
:102B1000F40D0F4690469A460DF006FDB4F8B63A0D
:102B2000B4F8B41A184480B2A4F8B60A884296F8E9
:102B300061221AD2AB5C013BDBB22F2B98BF392349
:102B4000AB5428460A22002113F0D8FB40453860D8
:102B500012DAB4F8B60AC7F800800E4BA4F8B40A2B
:102B60001868BDE8F0470DF081BCF6D95AB909F1F3
:102B7000FF3986F86192F0E75045C8BFC7F800A05A
:102B8000B4F8B60AE9E7013A86F86122E5E700BF42
:102B9000C0C9FF1FE0DFFF1FF8B51F4F0446D7F87D
:102BA000F40D0D4616460DF0BFFCB7F8B63AB7F86F
:102BB000B41A184480B2A7F8B60A94F86122884281
:102BC000AB5C1DD20133DBB213F0800F18BF2023A2
:102BD000AB54B7F8B60A114BA7F8B40A18680DF051
:102BE00045FC60B194F86132013EB34207D013B99D
:102BF0002A78202A0ED0013384F861320020F8BDF3
:102C0000E9D9013BDBB21F2B98BF7F23AB54B7F848
:102C1000B60AE0E72B70F8BDC0C9FF1FE0DFFF1F59
:102C2000F0B5104883B0D0F8F85DBDF820600846D4
:102C30001F46144613F024FA04EB4404A4002A6847
:102C4000033400EB4003122100200190009104EBBB
:102C500043031BB2146C39B2284632B2A04703B00A
:102C6000F0BD00BFC0C9FF1F2DE9F04F2E4F85B04A
:102C70000E469A46D7F8F80DBDF838800121144663
:102C80000BF028FF0AF10200D7F8F85D83B21A466C
:102C90004FF0010908F105034FF0000BEA812B8288
:102CA000A5F81290A5F814B03046039213F0E8F995
:102CB0002B6802465B68314628469847284611F043
:102CC0005BF80221D7F8F80D0BF004FFD7F8F85D98
:102CD0003046A5F814B0A5F8129013F0D1F9039A74
:102CE00000EB400002EB400008EB0903E8812B8277
:102CF000304613F0C5F904EB4404A4002E68CDF867
:102D0000049000EB400003341222009204EB4003D5
:102D10001BB20FFA88F20FFA8AF12846F46CA0472A
:102D200005B0BDE8F08F00BFC0C9FF1F2DE9F04F0F
:102D300087B09846BDF8404004942546BDF844400D
:102D4000009489460293AA462B46164605464246FB
:102D50002A4F05940391FFF763FF009453464246C0
:102D600049462846FFF780FFD7F8F8BD00245B46A8
:102D7000A146A3464FF001081C4618E095F86132C1
:102D80005345236804BFA4F81290A4F814801B686C
:102D900016F80A10984795F86132D7F8F84D534560
:102DA00004BFA4F81280A4F814900BF1010B304674
:102DB00013F066F91FFA8BFA50452046DED82268D8
:102DC0000F49A34654680022A047584610F0D4FF8C
:102DD000029A31462846FFF7DFFE58B1059B009363
:102DE0002846049B029A0399FFF71AFFFF2385F8F0
:102DF0006132012007B0BDE8F08F00BFC0C9FF1FDE
:102E0000CC9F0100F0B5044690F8610287B0FF281E
:102E1000BDF83050BDF834600AD08DE8600020461F
:102E2000FFF784FF10B1FF2384F8613207B0F0BDD3
:102E3000002084F86102104605930491039213F078
:102E40001FF9059B039A04999842E6D207DA1044C9
:102E500002EB030E202700F8017B7045FBD1002018
:102E6000D054DAE7102B2DE9F84F05460C464FF009
:102E7000000E53D8724501F803E055DB9E4518DA81
:102E8000DFF8B4C0E718012692FBF6F18CFB0108CD
:102E9000C817C0EBA80000EB8000A1EB4001013B8C
:102EA00006EB8606303173454FEA460607F8011DEA
:102EB000EADCDFF888904FF00008D9F8F87DC346C7
:102EC0004FF0010A17E095F86132B3423B6804BF46
:102ED000A7F812B0A7F814A01B68A15D984795F851
:102EE0006132D9F8F87DB34204BFA7F812A0A7F861
:102EF00014B008F10108204613F0C2F81FFA88F652
:102F0000B0423846DFD83B680A495B683846002241
:102F100098473846BDE8F84F10F02EBF724581F84B
:102F200010E04FF01003ABDA2D21524221704FF028
:102F3000010EA3E7CC9F010067666666C0C9FF1F4C
:102F40002DE9F04788B00446BDF84450BDF848600C
:102F5000BDF84C700097904689462A469A463346FB
:102F6000FFF75EFE33462A46494620460097FFF7A4
:102F70007BFE2B46D8F80020204603A9FFF772FFFE
:102F800094F86132FF2B17D003AB019300955246A2
:102F90004146109B2046FFF7B3FD50B13346204613
:102FA00000972A464946FFF73BFEFF2384F861322B
:102FB000012008B0BDE8F08700224FF07E53019257
:102FC000009352464146109B2046FFF753FDE4E72D
:102FD000F0B51B4A11784FF4987303FB01F3D11835
:102FE00087B091F84A0020BB01F58874B1F8101140
:102FF00092F8A93D124A124D0591FF2B04BF0323FD
:1030000082F8A93D2D274FF47A72002304268DE81B
:1030100044000C49039705F64830029305AAFFF7D0
:103020008FFF10B1FF2385F8A93D059B238007B0D2
:10303000F0BD1344B1F8481003F14804D8E700BFCD
:10304000C0C9FF1F249E0100F0B52E4D6B78022BE6
:1030500087B030D0032B27D0012B02D000235B7820
:10306000FFDE2B784FF4987202FB035303F5827353
:1030700006AA5B78234E42F8043D03272D23002443
:1030800001977F27039320490294234606F6483090
:103090000097FFF755FF6B78022B28D0032B1CD02D
:1030A000012B0FD06470FFDE2B784FF4987202FB77
:1030B0000353A033DCE72B784FF4987202FB0353E1
:1030C0003C33D5E733784FF4987202FB036303F582
:1030D0008273059A5A7007B0F0BD32784FF4987336
:1030E00003FB0263A033059A5A7007B0F0BD327833
:1030F0004FF4987303FB02633C33059A5A7007B090
:10310000F0BD00BFC0C9FF1F309E01001D494B78B4
:10311000022B30D0032B27D0012B02D000239B732E
:10312000FFDE0A784FF4987303FB021303F58273F2
:1031300093F820200221012A997307D000217F22D1
:10314000198299835A82DA83FFF77EBF10B48020F8
:103150004FF6C0744FF681717F221C82588299838A
:10316000DA8310BCFFF770BF0A784FF4987303FB43
:103170000213A033DCE70A784FF4987303FB0213C1
:103180003C33D5E7C0C9FF1FF0B52E4C6378022B46
:1031900087B030D0032B27D0012B02D000231B781F
:1031A000FFDE23784FF4987202FB034303F582732A
:1031B00006AA1B7842F8043D224E23492D2303938F
:1031C0000025102303278DE8880006F648300123E8
:1031D0000295FFF7B5FE6378022B28D0BB421CD0C6
:1031E000012B0FD02D70FFDE23784FF4987202FB75
:1031F0000343A033DCE723784FF4987202FB0343C8
:103200003C33D5E733784FF4987202FB036303F540
:103210008273059A1A7007B0F0BD32784FF4987334
:1032200003FB0263A033059A1A7007B0F0BD327831
:103230004FF4987303FB02633C33059A1A7007B08E
:10324000F0BD00BFC0C9FF1F3C9E0100F0B52F4D6F
:103250006B78022B87B036D0032B2DD0012B02D0F8
:1032600000235B68FFDE2B784FF4987202FB035358
:1032700003F582735868254E12F026F806AA2D270A
:103280000321FF23002442F8040D039701910093CA
:1032900006F64830012302941D49FFF751FE6B7872
:1032A000022B07462BD0032B22D0012B12D00598DE
:1032B00011F0F0FD6060FFDE2B784FF4987202FB96
:1032C0000353A033D6E72B784FF4987202FB0353D5
:1032D0003C33CFE733784FF4987404FB036404F570
:1032E0008274059811F0D6FD6060384607B0F0BDD5
:1032F00033784FF4987404FB0364A034F1E7337817
:103300004FF4987404FB03643C34EAE7C0C9FF1F20
:103310004C9E0100F0B52F4C6378022B87B032D061
:10332000032B29D0012B02D000231B7AFFDE237848
:103330004FF4987202FB034303F5827306AA93F9D4
:10334000083042F8043D234E23492D2303930025E2
:10335000782304278DE8880006F648306FF077035D
:103360000295FFF7EDFD6378022B28D0032B1CD0CC
:10337000012B0FD02D72FFDE23784FF4987202FBE1
:103380000343A033DAE723784FF4987202FB034338
:103390003C33D3E733784FF4987202FB036303F5B1
:1033A0008273059A1A7207B0F0BD32784FF49873A1
:1033B00003FB0263A033059A1A7207B0F0BD32789E
:1033C0004FF4987303FB02633C33059A1A7207B0FB
:1033D000F0BD00BFC0C9FF1F589E0100F0B5314DC0
:1033E0006B78022B87B033D0032B2AD0012B03D06C
:1033F000002393F82130FFDE2B784FF4987202FB04
:10340000035303F5827306AA93F82130254E42F840
:10341000043D03272D23002401977F27039322498E
:103420000294234606F648300097FFF789FD6B7833
:10343000022B2BD0032B1ED0012B10D084F821405F
:10344000FFDE2B784FF4987202FB0353A033DAE7C8
:103450002B784FF4987202FB03533C33D3E7337855
:103460004FF4987202FB036303F58273059A83F8A5
:10347000212007B0F0BD32784FF4987303FB02634C
:10348000A033059A83F8212007B0F0BD32784FF4BD
:10349000987303FB02633C33059A83F8212007B03D
:1034A000F0BD00BFC0C9FF1F689E0100F0B5314DDF
:1034B0006B78022B87B033D0032B2AD0012B03D09B
:1034C000002393F82230FFDE2B784FF4987202FB32
:1034D000035303F5827306AA93F82230254E42F86F
:1034E000043D03272D23002401977F2703932249BE
:1034F0000294234606F648300097FFF721FD6B78CB
:10350000022B2BD0032B1ED0012B10D084F822408D
:10351000FFDE2B784FF4987202FB0353A033DAE7F7
:103520002B784FF4987202FB03533C33D3E7337884
:103530004FF4987202FB036303F58273059A83F8D4
:10354000222007B0F0BD32784FF4987303FB02637A
:10355000A033059A83F8222007B0F0BD32784FF4EB
:10356000987303FB02633C33059A83F8222007B06B
:10357000F0BD00BFC0C9FF1F749E0100F0B5474CED
:103580006378022B87B047D0032B3BD0012B03D0AD
:10359000002393F82130FFDE23784FF4987202FB6A
:1035A000034303F5827393F82120D20193F822306C
:1035B00094F8A91D3948394D1344FF29059304BFD8
:1035C000042380F8A93D43F6FF722D27002305262A
:1035D0008DE844003249039705F64830029305AA66
:1035E000FFF7AEFC10B1FF2385F8A93D63782B4CA3
:1035F000022B3FD0032B2FD0012B17D0002383F8B1
:103600002130FFDE23784FF4987202FB0343A0338E
:1036100093F82120D201C9E723784FF4987202FB76
:1036200003433C3393F82120D201BFE72378059967
:103630004FF4987202FB0342002902F582720B4696
:1036400015DBDB1182F82130164B0B40002B1DDB04
:1036500082F8223007B0F0BD237805994FF49872B4
:1036600002FB0342002902F1A0020B46E9DA01F154
:103670007F03E6E7237805994FF4987202FB034233
:10368000002902F13C020B46DBDAF0E7013B63F074
:103690007F03013382F8223007B0F0BDC0C9FF1F9D
:1036A000809E01007F000080F0B52E4D6B78022BCC
:1036B00087B030D0032B27D0012B02D000239B787A
:1036C000FFDE2B784FF4987202FB035303F58273ED
:1036D00006AA9B78234E42F8043D03272D2300249D
:1036E00001977727039320490294234606F6483032
:1036F0000097FFF725FC6B78022B28D0032B1CD0FA
:10370000012B0FD0A470FFDE2B784FF4987202FBD0
:103710000353A033DCE72B784FF4987202FB03537A
:103720003C33D5E733784FF4987202FB036303F51B
:103730008273059A9A7007B0F0BD32784FF498738F
:1037400003FB0263A033059A9A7007B0F0BD32788C
:103750004FF4987303FB02633C33059A9A7007B0E9
:10376000F0BD00BFC0C9FF1F889E0100F0B52E4DFF
:103770006B78022B87B030D0032B27D0012B02D0DF
:103780000023DB78FFDE2B784FF4987202FB0353A3
:1037900003F5827306AADB78234E42F8043D032723
:1037A0002D23002401977F27039320490294234669
:1037B00006F648300097FFF7C3FB6B78022B28D042
:1037C000032B1CD0012B0FD0E470FFDE2B784FF4BD
:1037D000987202FB0353A033DCE72B784FF4987206
:1037E00002FB03533C33D5E733784FF4987202FB66
:1037F000036303F58273059ADA7007B0F0BD32787F
:103800004FF4987303FB0263A033059ADA7007B094
:10381000F0BD32784FF4987303FB02633C33059A92
:10382000DA7007B0F0BD00BFC0C9FF1F909E010055
:1038300038B52B4C6378022B3DD0032B34D0012BB1
:1038400002D000239B73FFDE23784FF4987202FBB3
:10385000034303F5827393F820201421012A9973FE
:1038600017D000217F22198299835A82DA8394F833
:10387000A03D1B4D3BB9012385F8A03DFFF7E4FBBC
:1038800000BB002038BD012BF8D0022B20D0012036
:1038900038BD4FF6C07580204FF681717F221D82A2
:1038A00058829983DA83E2E723784FF4987202FB17
:1038B0000343A033CFE723784FF4987202FB03430E
:1038C0003C33C8E794F8A03D013384F8A03DD8E725
:1038D000FFF74CFF0028D4D0002385F8A03D38BD69
:1038E000C0C9FF1FF0B52F4D6B78022B87B036D0C3
:1038F000032B2DD0012B02D000235B68FFDE2B7839
:103900004FF4987202FB035303F582735868254EF7
:1039100011F0DAFC06AA2D270321FF23002442F828
:10392000040D03970191009306F648300123029499
:103930001D49FFF705FB6B78022B07462BD0032BA5
:1039400022D0012B12D0059811F0A4FA6060FFDE9E
:103950002B784FF4987202FB0353A033D6E72B78F1
:103960004FF4987202FB03533C33CFE733784FF4A4
:10397000987404FB036404F58274059811F08AFAC4
:103980006060384607B0F0BD33784FF4987404FB9C
:103990000364A034F1E733784FF4987404FB0364B4
:1039A0003C34EAE7C0C9FF1F4C9E0100F0B52F4C24
:1039B0006378022B87B032D0032B29D0012B02D0A1
:1039C00000231B7AFFDE23784FF4987202FB034337
:1039D00003F5827306AA93F9083042F8043D234E9A
:1039E00023492D2303930025782304278DE888009D
:1039F00006F648306FF077030295FFF7A1FA637877
:103A0000022B28D0032B1CD0012B0FD02D72FFDEF0
:103A100023784FF4987202FB0343A033DAE723784C
:103A20004FF4987202FB03433C33D3E733784FF4EF
:103A3000987202FB036303F58273059A1A7207B04A
:103A4000F0BD32784FF4987303FB0263A033059AFC
:103A50001A7207B0F0BD32784FF4987303FB02631B
:103A60003C33059A1A7207B0F0BD00BFC0C9FF1FF2
:103A7000589E010070B5344C637888B000227F21D5
:103A8000022B0592069136D0032B2AD0012B01D0B0
:103A9000938BFFDE23784FF4987000FB034000F512
:103AA0008270B0F91C30079306AA05A9FEF71AFB2D
:103AB000254E069A00922D2105220025059B039193
:103AC000019206F64830029507AA2049FFF738FA16
:103AD0006378022B2ED0032B22D0012B15D0AD837F
:103AE000FFDE23784FF4987000FB0340A030B0F95C
:103AF0001C300793D8E723784FF4987000FB0340FD
:103B00003C30B0F91C300793CEE733784FF498720D
:103B100002FB036303F58273079A9A8308B070BDB2
:103B200032784FF4987303FB0263A033079A9A83A9
:103B300008B070BD32784FF4987303FB02633C33D6
:103B4000079A9A8308B070BDC0C9FF1F9C9E0100F0
:103B500070B5344C637888B000227F21022B059227
:103B6000069136D0032B2AD0012B01D0D38BFFDE58
:103B700023784FF4987000FB034000F58270B0F991
:103B80001E30079306AA05A9FEF7ACFA254E069A41
:103B900000922D2105220025059B0391019206F636
:103BA0004830029507AA2049FFF7CAF96378022B2B
:103BB0002ED0032B22D0012B15D0ED83FFDE2378EE
:103BC0004FF4987000FB0340A030B0F91E3007930B
:103BD000D8E723784FF4987000FB03403C30B0F9ED
:103BE0001E300793CEE733784FF4987202FB0363DD
:103BF00003F58273079ADA8308B070BD32784FF408
:103C0000987303FB0263A033079ADA8308B070BD90
:103C100032784FF4987303FB02633C33079ADA83DC
:103C200008B070BDC0C9FF1FA89E010038B50A4D7D
:103C30002C783CB1012C08D1FFF78AFF28B1002372
:103C40002B7038BDFFF716FF08B9002038BD0123DF
:103C50002B70204638BD00BF38B2FF1FF0B52F4D86
:103C60006B78022B87B037D0032B2ED0012B02D0DC
:103C700000235B69FFDE2B784FF4987101FB035141
:103C800001F5827106AA4B6942F8043D4FF02D0EF2
:103C90008C69224FCDF80CE04FF0060ECDF804E011
:103CA000002644F2020E1E4B1E49029607F64830CB
:103CB000CDF800E0FFF744F96B78022B26D0032BF8
:103CC0001DD0012B0FD07661FFDE2B784FF4987159
:103CD00001FB0351A031D5E72B784FF4987101FB1C
:103CE00003513C31CEE73B784FF4987202FB0373EB
:103CF00003F58273059A9C615A6107B0F0BD3A786A
:103D00004FF4987303FB0273A033F3E73A784FF450
:103D1000987303FB02733C33ECE700BFC0C9FF1F7D
:103D2000FDBFFFFFB49E0100F0B5304D6B78022B54
:103D300087B038D0032B2FD0012B02D000235B6932
:103D4000FFDE2B784FF4987202FB035303F5827366
:103D50005C699869254F264B264906AA20444FF0F6
:103D60002D0E42F8040DCDF80CE04FF0060ECDF804
:103D700004E0002644F2020E07F648300296CDF821
:103D800000E0FFF7DDF86B78022B27D0032B1ED065
:103D9000012B0FD07661FFDE2B784FF4987202FB77
:103DA0000353A033D4E72B784FF4987202FB0353EC
:103DB0003C33CDE73B784FF4987202FB037303F575
:103DC0008273059A5C61141B9C6107B0F0BD3A7860
:103DD0004FF4987303FB0273A033F2E73A784FF481
:103DE000987303FB02733C33EBE700BFC0C9FF1FAE
:103DF000FDBFFFFFBC9E010038B50A4D2C783CB1D9
:103E0000012C08D1FFF790FF28B100232B7038BD9B
:103E1000FFF724FF08B9002038BD01232B7020468E
:103E200038BD00BF38B2FF1FF0B5354C637889B09C
:103E300000227F21022B059206913AD0032B2CD031
:103E4000012B01D0138AFFDE23784FF4987000FB1A
:103E5000034000F58270B0F91030B0F912500793AA
:103E600006AA05A9FEF73EF9254F069A00922D21D4
:103E700005220026059B0391019207F64830029621
:103E800007AA2049FFF75CF86378022B30D0032B98
:103E900027D0012B19D03682FFDE23784FF498709B
:103EA00000FB0340A030B0F91030B0F91250079376
:103EB000D6E723784FF4987000FB03403C30B0F90C
:103EC00010300793B0F91250CAE73B784FF498725C
:103ED00002FB037303F58273079A5D821A8209B0AD
:103EE000F0BD3A784FF4987303FB0273A033F3E705
:103EF0003A784FF4987303FB02733C33ECE700BF4E
:103F0000C0C9FF1FC49E0100F0B5374C637889B06B
:103F100000227F21022B059206913CD0032B2DD04D
:103F2000012B01D0138AFFDE23784FF4987000FB39
:103F3000034000F58270B0F91050B0F912302B44F4
:103F4000079306AA05A9FEF7CDF8274F069A009217
:103F50002D2105220026059B0391019207F648308A
:103F6000029607AA2149FEF7EBFF6378022B33D0B4
:103F7000032B2AD0012B1BD03682FFDE23784FF48F
:103F8000987000FB0340A030B0F91050B0F9123027
:103F90002B440793D5E723784FF4987000FB034038
:103FA0003C30B0F91050B0F912302B440793C8E7F9
:103FB0003B784FF4987202FB037303F58273079A00
:103FC0001D82551B5D8209B0F0BD3A784FF498739D
:103FD00003FB0273A033F2E73A784FF4987303FBC4
:103FE00002733C33EBE700BFC0C9FF1FD09E010046
:103FF00038B50A4D2C783CB1012C08D1FFF784FF6D
:1040000028B100232B7038BDFFF70EFF08B9002040
:1040100038BD01232B70204638BD00BF38B2FF1FCA
:104020002DE9F04F88469DB0D0F864120990BDF894
:1040300098A09DF89C700D929B4629B9754B1B6802
:104040000F930F9BC0F86432002F00F0BD80724BBD
:104050003D1F83FB0523A3EBE5750235ED00ABB2F5
:10406000CAF13F059D424046A8BF1D4612F008F820
:1040700000EB4000430004339BB2DFF8A091D9F875
:10408000F80D9F422AB24FF0000628BF1F46036872
:104090000C928DE844000FFA8AF43AB20FFA8BF1D1
:1040A00008940B921C6C0A911346089AA0470121B0
:1040B000D9F8F80D0AF00EFD574BD9F8F84D033F2B
:1040C00083FB07230AF1040AAAB21FFA8AF10BF153
:1040D000020B073AA3EBE777059101230FFA8BF167
:1040E00007921CAA3546069102EB070BA682638253
:1040F000B24609E0079BB3EBC20F2CDD5EB3B5F50A
:10410000807F28D0D9F8F84D059BBDF81820E281B2
:1041100003EBC50308EB060123823A4611A812F00F
:104120001DF811A80BF82CAC11F0AAFF2368024669
:104130005B6811A92046984720460FF01DFE4046B7
:1041400011F09EFFC01BF319864205F102029EB2D8
:1041500005F10105CED9D9F8F80D0C9A0368009243
:1041600001220192DC6C089A0B9B0A992B4DA04707
:10417000099B93F82E31002B37D1D9F8F80D0BF0AD
:1041800015FB274B18680CF071F950B9214A099BAF
:104190001268D3F8643210920D99109A19448A4229
:1041A0000FD9D9F8F80D0C9B0568009300240194F1
:1041B0000B9B089A0A992D6CA847099B0120C3F80C
:1041C00064421DB0BDE8F08F404611F059FF00EB8E
:1041D0004000CAF13F0543000433CBF17F07102DA7
:1041E0009BB2A8BF1025FFB247E7099ED5F8F80D8E
:1041F00096F83C41D6F83431B6F93221B6F930118F
:10420000B6F93A510294B6F938418DE830000AF017
:104210002DFAB2E7ECE2FF1FABAAAA2AC0C9FF1F22
:10422000E0DFFF1F2DE9F0410E4601789DF8188070
:1042300008290446174645D0384A3949D2F8C00AF9
:104240001D46D2F8BC3AE364D2F8C83AD2F8C42A80
:10425000C4F8B0202065C4F8B430D4F8C4000CF021
:104260002BFFD4F8C4302F4A1A61162084F86560F9
:10427000207100210DF00EFC0026102084F868004B
:1042800084F8C970E68031460DF004FCA4F86A6039
:1042900084F8D46084F8CC5028460DB9BDE8F0818C
:1042A00002210DF0F7FB84F81081B8F1000F02D164
:1042B0000120BDE8F081404601210DF0EBFB01201B
:1042C000BDE8F081154BD3F8CC1AD3F8D82AD3F82F
:1042D000D00AD3F8D43AE1644FF0100800210D461B
:1042E0002065C4F8B030C4F8B420404684F8656056
:1042F00084F804800DF0CEFB404684F8688084F892
:10430000C970E58029460DF0C5FB84F8CC50A4F8AF
:104310006A5084F8D4502846BDE8F081C0C9FF1F18
:104320006F12033A000040412DE9F041054608466E
:1043300088460DF049F908F1020785F82C0108F1CB
:1043400012083C4605F1FF0620460DF03DF9013408
:10435000444506F8010FF7D105F1370607F1380893
:1043600020460DF031F90134444506F8010FF7D12C
:104370009B3507F1600620460DF026F90134B44262
:1043800005F8010FF7D16220BDE8F0812DE9F04F6B
:10439000044695B08B46164663492278684611F06C
:1043A000D5FD684611F06CFE014668460FF0D2F963
:1043B0000DF076FB2369A0611BB9E369002B00F0C7
:1043C000A68072B6DFF87C81584FD8F800103B68A1
:1043D000574DA269E069DFF870A1DFF87091CB1A40
:1043E00085FB0315D917101AC1EBA505216A606179
:1043F00005449A1A4FF0060E0A4484F824E0A9B244
:10440000A06ACAF80020C9F800300CF045FEA26A84
:104410006369D26A002E62F30F057EDDB34005FAB0
:1044200006F03A68D8F8001002440B443A60C8F825
:10443000003010F02BFD594610F034FE3D4910F0CD
:1044400031FE10F067FF072120613B480FF082F931
:1044500000230A2294F8241038480FF0B3FC0121FD
:1044600037480FF077F900230A22294633480FF026
:10447000A9FC012132480FF06DF900230A2261697D
:104480002E480FF09FFC01212D480FF063F9002307
:104490000A22216929480FF095FC012128480FF0D4
:1044A00059F9DAF8001025480FF0CCFC0121244816
:1044B0000FF050F9D8F80010204800230A220FF01E
:1044C00081FC01211E480FF045F900230A223968BA
:1044D0001A480FF077FC012119480FF03BF9616988
:1044E0001648491B0FF0AEFC012115480FF032F9B8
:1044F000D9F8001011480FF0A5FC10480FF03CFC53
:10450000A369E36162B6012015B0BDE8F08F2062B7
:10451000E061184615B0BDE8F08F1DBF7642F3404C
:1045200025FA06F028467CE7E09E010044B2FF1F12
:10453000676666660000C040F09E0100C8A4FF1FC9
:10454000D09C0100DCB1FF1FBCE2FF1FB4B1FF1F14
:1045500010B50446022094F8611001F001010DF03D
:1045600085FA94F861100320C1F340010DF07EFA42
:1045700094F861100420C1F38001BDE810400DF0F3
:1045800075BA00BF30B50F4B0C4683B09C424FF05C
:1045900000014FF07F02054608BFB0F904408DE8E6
:1045A0000600343001AA6946FDF79CFDB5F95000BC
:1045B000844204DBB5F95200A042A8BF204603B0F4
:1045C00030BD00BFF1D8FFFF38B590F82C31032B78
:1045D0002CD8DFE803F0020F0402154838BD90F82C
:1045E000AA30062BB0F9083015D0B0F96C1003FBD7
:1045F00001F104E0B0F90810B0F96C301944044638
:10460000002390F8585080F858300430FFF7BAFF74
:1046100084F8585038BDB0F96C20064903FB02F30A
:1046200081FB0321DB17C3EB6111E8E70049E6E7F3
:10463000F1D8FFFF1F85EB51F8B52822174C184F12
:10464000064634300D460DF001F80D2115480FF0E7
:1046500081F800230A22317820460FF0B3FB0221B3
:1046600011480FF077F8294620460FF0EBFB28267B
:10467000384601210FF06EF8314620460FF0E2FB7C
:104680003544384601210FF065F8294620460FF0E1
:10469000D9FB20460FF070FB3046F8BDC8A4FF1FC1
:1046A000D09C0100F89E0100ACA20100F8B51022D8
:1046B000174C184F064634300D460CF0C7FF0E213C
:1046C00015480FF047F800230A22317820460FF0F2
:1046D00079FB022111480FF03DF8294620460FF0E2
:1046E000B1FB1026384601210FF034F83146204640
:1046F0000FF0A8FB3544384601210FF02BF829466E
:1047000020460FF09FFB20460FF036FB3046F8BDE9
:10471000C8A4FF1FD09C0100089F0100ACA20100AB
:104720002DE9F041064682B002A896F82C3100F837
:10473000013D01228C1C0F460CF088FF214606F13A
:10474000CC00FFF7B3FF04442146301DFFF774FF90
:104750000444214606F16800FFF76EFF164DDFF8AE
:1047600064800444132115480EF0F4FF00230A224C
:10477000317828460FF026FB022111480EF0EAFF9F
:10478000394628460FF05EFB404601210EF0E2FF5D
:10479000E11B28460FF056FB404601210EF0DAFFE0
:1047A000214628460FF04EFB28460FF0E5FA62201E
:1047B00002B0BDE8F08100BFC8A4FF1F189F010030
:1047C000ACA20100D09C010010B504464FF4C050CB
:1047D0000DF098FAA46AA06C036847F61221DB6911
:1047E0009847002303214FF6FF7284F8641084F881
:1047F0004C3084F84E3084F84D3084F8653084F8BD
:10480000673084F86830A365636584F8E93084F81C
:104810006630E265226610BD70B5FA2982B00C469A
:10482000054638D3FB2922D9FC2934D1204E214911
:10483000002385F82030142206F6884011F08EFC03
:104840001D4B1B68019342F21072019BC6F8882D24
:10485000C6F88C3D200240F00F000EF04BFCAB6A16
:10486000986C036821461B68984702B070BD104ED3
:104870001249012385F82030142206F6884011F0F1
:104880006DFC0D4B1B68009342F21072009BC6F842
:10489000882DC6F88C3D04F10803DBB2072BE4D861
:1048A000012202FA03F313F0DD0FD3D102B070BD81
:1048B000C0C9FF1F389F0100ECE2FF1F2C9F0100C1
:1048C00038B504460DF0ECF8236A2269C31A9A42FF
:1048D000054616D36369E26903EB4303AD1AAB42A5
:1048E0000ED20C4D0C480D490D4A00232B6023615C
:1048F000E3612362636184F8243003600B6013601A
:1049000038BDF8210748FFF787FF226A236913445F
:104910002362DFE7BCE2FF1FB4B1FF1FDCB1FF1F62
:1049200044B2FF1F70D7FF1F2DE9F84F8A460029B8
:1049300061D0404BDFF820813F4AC8F8102093E84F
:10494000030000230A0CC8F80000A8F8041088F837
:10495000062088F814300127384DC82405F1690B6A
:1049600007E0BAF1000F36D107350134AB45E4B2A8
:1049700020D02B78002BF4D07E0006EB070908EB43
:10498000C90948460622294611F0E8FBBAF1000F92
:104990002BD12B4BC9F810303E4408EBC606073527
:1049A000002301373475AB4504F10104FFB2B37144
:1049B000E4B2DED1234B244C93E8070007EB470316
:1049C00008EBC308A8E803000023A8F800206371DF
:1049D0003846BDE8F88F1D4A7E0092E80300F319BF
:1049E00008EBC30248F833009180F31908EBC303C6
:1049F000174A1A61D0E7DFF860800E4A88F8141071
:104A000092E80300134BC8F800000E0CA8F804103D
:104A100093E8070008F1180303C3094D064CC8F8D2
:104A2000285088F8066088F82CA0C8F810401A8032
:104A3000022791E7549F0100BD4B00009ED4FF1F49
:104A4000BD4C0000489F010004C4FF1F409F0100AF
:104A5000054C00005C9F0100A0BAFF1F2DE9F84F34
:104A60000021FFF761FFDFF870B0DFF86090DFF83A
:104A70006C80824605460126002705EB450409EBBC
:104A8000C404204626755946C4F810800622013613
:104A900011F064FB0135302EA771EDB20BF1070B5D
:104AA0000A4B4FF00004E8D1094A0A4D07CA0AF13F
:104AB0002F0A5FFA8AFA0AEB4A0603EBC60303C31E
:104AC0001A806C715046BDE8F88F00BFA0BAFF1F76
:104AD000689F010004C4FF1F0F9B0100BD4C000034
:104AE000324B2DE9F04799424FF000048246446171
:104AF0004DD02F4B99420E4650D0A046DFF8B890CB
:104B000000E00134304609F073FA84422146304611
:104B100018DA09F055FA037D002BF2D02146304611
:104B200009F04EFA07460FCF08EB480509EBC5051B
:104B30000FC597E8030008F1010885E803005FFA54
:104B400088F8DEE7304609F053FA0146304609F0AE
:104B500037FA05460FCD08EB480409EBC4040FC42F
:104B600095E8030084E80300124B72795A71FF2222
:104B700001218AF8632283F804808AF86212504681
:104B8000C3F800900B49BDE8F04709F0EDBAFFF714
:104B900065FFDFF82490074B8046E8E70121FFF727
:104BA000C3FEDFF81490034B8046E0E78CBAFF1F8A
:104BB00050BAFF1F04C4FF1FA0BAFF1F70B50F4CEF
:104BC000D4F8642BD4F8F80DD4F8601B0568C2F152
:104BD000400382B01BB200268DE84800C1F180037B
:104BE00012B21BB22D6C09B2A84704F64830044932
:104BF000FFF776FF012002B070BD00BFC0C9FF1FE4
:104C0000DCE2FF1F30B52A4C94F8A05D83B0CDB133
:104C1000284B1B78264D2849C3EBC303E2182D23EC
:104C20000024019302F6DE2205F6483000940623A4
:104C3000FEF7E8F8A8B185F8A04D03B0BDE8304014
:104C4000FFF7BCBFD4F8541BD4F8500B09F0B8F9E7
:104C5000007D184B00F13802D2B20F2A187002D929
:104C6000012003B030BD6178022905D0032918D096
:104C700001290ED0AD72FFDE21784FF4987505FB47
:104C800001413C3100F1390588721A7084F8A05D49
:104C9000BFE721784FF4987505FB014101F582715A
:104CA000F0E721784FF4987505FB0141A031E9E761
:104CB000C0C9FF1F08E0FF1F749F010010B5194B0A
:104CC0005A78022A26D0032A1DD0012A08D0D3F808
:104CD000541BD3F8500B09F073F900239B72FFDECD
:104CE0001A784FF4987404FB023404F58274D3F8F4
:104CF000541BD3F8500B09F063F9037DA372BDE890
:104D00001040FFF75BBF1A784FF4987404FB02342D
:104D1000A034ECE71A784FF4987404FB02343C3466
:104D2000E5E700BFC0C9FF1F30B5304C637885B0E0
:104D30002022022BADF80C2034D0032B2BD0012BDA
:104D400002D000235B7AFFDE23784FF4987202FBD7
:104D5000034303F582735B7A03B920238DF80C308B
:104D600000252D23019303AA012321490095214801
:104D7000FEF748F89DF80C3062781C49202B08BFDC
:104D80008DF80C50022A2AD0032A21D0012A10D0F3
:104D900000235B72FFDE23784FF4987202FB03431B
:104DA000A033D8E723784FF4987202FB03433C33D7
:104DB000D1E70A784FF4987303FB021303F582736B
:104DC0009DF80C205A7208B1FFF7F8FE05B030BD0F
:104DD0000A784FF4987303FB0213A033F0E70A78C4
:104DE0004FF4987303FB02133C33E9E7C0C9FF1F7C
:104DF0007C9F010008D5FF1F30B5304C637885B02B
:104E00002022022BADF80C2034D0032B2BD0012B09
:104E100002D00023DB7AFFDE23784FF4987202FB86
:104E2000034303F58273DB7A03B920238DF80C303A
:104E300000252D23019303AA012321490095214830
:104E4000FDF7E0FF9DF80C3062781C49202B08BF6D
:104E50008DF80C50022A2AD0032A21D0012A10D022
:104E60000023DB72FFDE23784FF4987202FB0343CA
:104E7000A033D8E723784FF4987202FB03433C3306
:104E8000D1E70A784FF4987303FB021303F582739A
:104E90009DF80C20DA7208B1FFF790FE05B030BD26
:104EA0000A784FF4987303FB0213A033F0E70A78F3
:104EB0004FF4987303FB02133C33E9E7C0C9FF1FAB
:104EC000849F010008D5FF1F70B50F4CD4F8642BE8
:104ED000D4F8F80DD4F8601B0568C2F1400382B025
:104EE0001BB200268DE84800C1F1800312B21BB24C
:104EF0002D6C09B2A84704F648300449FFF7F0FDCD
:104F0000012002B070BD00BFC0C9FF1F8CBAFF1FD7
:104F100070B50F4CD4F8642BD4F8F80DD4F8601B9E
:104F20000568C2F1400382B01BB200268DE848003C
:104F3000C1F1800312B21BB22D6C09B2A84704F66E
:104F400048300449FFF7CCFD012002B070BD00BF1E
:104F5000C0C9FF1F74B2FF1F21494B78022B2FD00D
:104F6000032B26D0012B02D000239B73FFDE0A788F
:104F70004FF4987303FB021303F5827393F8202018
:104F800001218A42997309D0022A20D00021782277
:104F9000198299835A82DA83FFF7BABF78224FF6D3
:104FA000C4704FF6887118825A82DA839983FFF7AA
:104FB000AFBF0A784FF4987303FB0213A033DDE709
:104FC0000A784FF4987303FB02133C33D6E70022B0
:104FD0003C2078211A829A835882D983FFF798BFA0
:104FE000C0C9FF1F70B50F4CD4F8642BD4F8F80D6E
:104FF000D4F8601B0568C2F1400382B01BB20026E2
:105000008DE84800C1F1800312B21BB22D6C09B2C9
:10501000A84704F648300449FFF762FD012002B0BA
:1050200070BD00BFC0C9FF1FD0B1FF1F30B5144C09
:10503000144883B0012109F07BF82378DB0703D4FF
:105040000121104809F058F8D4F8642BD4F8F80D71
:10505000D4F8601B0468C2F140031BB200258DE840
:105060002800C1F1800312B21BB2246C09B2A04720
:1050700004490548FFF734FD012003B030BD00BFEF
:10508000C0C9FF1FC0E2FF1F08D5FF1F30B50621B2
:1050900083B01748174C09F04BF80721144809F062
:1050A00047F82378082B1AD0D4F8642BD4F8F80DDD
:1050B000D4F8601B0468C2F140031BB200258DE8E0
:1050C0002800C1F1800312B21BB2246C09B2A047C0
:1050D00007490948FFF704FD012003B030BD062150
:1050E000034809F009F80721014809F005F8DBE752
:1050F000A0B1FF1FC0C9FF1F08D5FF1F70B50F4C1F
:10510000D4F8642BD4F8F80DD4F8601B0568C2F10C
:10511000400382B01BB200268DE84800C1F1800335
:1051200012B21BB22D6C09B2A84704F648300449EC
:10513000FFF7D6FC012002B070BD00BFC0C9FF1F41
:105140002CB4FF1F70B50F4CD4F8642BD4F8F80DB5
:10515000D4F8601B0568C2F1400382B01BB2002680
:105160008DE84800C1F1800312B21BB22D6C09B268
:10517000A84704F648300449FFF7B2FC012002B00A
:1051800070BD00BFC0C9FF1FB8B1FF1F30B5324CA2
:10519000D4F8642BD4F8F80DD4F8601B012383B045
:1051A0006370C2F140031BB20568009300230193B2
:1051B000C1F180031BB212B22D6C09B2A8470321C2
:1051C000264808F0B5FF0421244808F0B1FF052166
:1051D000224808F0ADFF0621204808F0A9FF07216A
:1051E0001E4808F0A5FF08211C4808F0A1FF2378FD
:1051F0004FF4987505FB034393F81231042B14D038
:10520000012B1DD9023B012B06D914491448FFF785
:1052100067FC012003B030BD0421104808F06CFF8A
:1052200005210E4808F068FFEFE708210B4808F059
:1052300063FF237805FB034595F81231012BE1D874
:105240000321064808F058FF23784FF4987202FBB8
:10525000034494F81231D5E7C0C9FF1F80AFFF1F88
:1052600008D5FF1F08B5FFF791FF012008BD00BF5B
:1052700008B513494B78022B1AD0032B11D0012B00
:1052800002D000239B73FFDE0A784FF4987303FB70
:10529000021303F582730D229A73FFF777FF012043
:1052A00008BD0A784FF4987303FB0213A033F2E7AA
:1052B0000A784FF4987303FB02133C33EBE700BF0B
:1052C000C0C9FF1F10B515494B78022B1ED0032B08
:1052D00015D0012B02D000239B73FFDE0A784FF418
:1052E000987303FB021303F5827300229A73FEF78F
:1052F000DBF9044608B1FFF749FF204610BD0A78E4
:105300004FF4987303FB0213A033EEE70A784FF4CF
:10531000987303FB02133C33E7E700BFC0C9FF1FCC
:1053200010B515494B78022B1ED0032B15D0012B3D
:1053300002D000239B73FFDE0A784FF4987303FBBF
:10534000021303F5827301229A73FEF7ADF9044646
:1053500008B1FFF71BFF204610BD0A784FF4987381
:1053600003FB0213A033EEE70A784FF4987303FBB4
:1053700002133C33E7E700BFC0C9FF1F38B5234C19
:105380006378022B2AD0032B21D0012B02D00023DB
:105390009B73FFDE23784FF4987202FB034303F5FF
:1053A000827302229A7394F8A03D184D3BB90123F1
:1053B00085F8A03DFDF748FE10BB002038BD012B4D
:1053C000F8D0022B11D0FFF7E1FE012038BD237881
:1053D0004FF4987202FB0343A033E2E723784FF4C3
:1053E000987202FB03433C33DBE7FEF7BFF900286A
:1053F000E3D0002385F8A03DFFF7C8FE012038BDAB
:1054000094F8A03D013384F8A03DD6E7C0C9FF1F42
:1054100038B5234C6378022B2AD0032B21D0012BE3
:1054200002D000239B73FFDE23784FF4987202FBB7
:10543000034303F5827303229A7394F8A03D184D39
:105440003BB9012385F8A03DFDF7FEFD10BB002010
:1054500038BD012BF8D0022B11D0FFF797FE0120A9
:1054600038BD23784FF4987202FB0343A033E2E780
:1054700023784FF4987202FB03433C33DBE7FEF7DB
:1054800075F90028E3D0002385F8A03DFFF77EFEE4
:10549000012038BD94F8A03D013384F8A03DD6E743
:1054A000C0C9FF1F10B515494B78022B1ED0032B26
:1054B00015D0012B02D000239B73FFDE0A784FF436
:1054C000987303FB021303F5827304229A73FCF7AB
:1054D00009F8044608B1FFF759FE204610BD0A78C6
:1054E0004FF4987303FB0213A033EEE70A784FF4EE
:1054F000987303FB02133C33E7E700BFC0C9FF1FEB
:1055000008B513494B78022B1AD0032B11D0012B6D
:1055100002D000239B73FFDE0A784FF4987303FBDD
:10552000021303F5827305229A73FFF72FFE012001
:1055300008BD0A784FF4987303FB0213A033F2E717
:105540000A784FF4987303FB02133C33EBE700BF78
:10555000C0C9FF1F08B513494B78022B1AD0032B83
:1055600011D0012B02D000239B73FFDE0A784FF489
:10557000987303FB021303F5827306229A73FFF7F5
:1055800005FE012008BD0A784FF4987303FB02134F
:10559000A033F2E70A784FF4987303FB02133C330D
:1055A000EBE700BFC0C9FF1F08B513494B78022BBA
:1055B0001AD0032B11D0012B02D000239B73FFDEE6
:1055C0000A784FF4987303FB021303F582730722E2
:1055D0009A73FFF7DBFD012008BD0A784FF498733A
:1055E00003FB0213A033F2E70A784FF4987303FB2E
:1055F00002133C33EBE700BFC0C9FF1F08B51349D6
:105600004B78022B1AD0032B11D0012B02D0002390
:105610009B73FFDE0A784FF4987303FB021303F5C4
:10562000827308229A73FFF7B1FD012008BD0A7842
:105630004FF4987303FB0213A033F2E70A784FF498
:10564000987303FB02133C33EBE700BFC0C9FF1F95
:1056500008B513494B78022B1AD0032B11D0012B1C
:1056600002D000239B73FFDE0A784FF4987303FB8C
:10567000021303F5827309229A73FFF787FD012055
:1056800008BD0A784FF4987303FB0213A033F2E7C6
:105690000A784FF4987303FB02133C33EBE700BF27
:1056A000C0C9FF1F08B513494B78022B1AD0032B32
:1056B00011D0012B02D000239B73FFDE0A784FF438
:1056C000987303FB021303F582730B229A73FFF79F
:1056D0005DFD012008BD0A784FF4987303FB0213A7
:1056E000A033F2E70A784FF4987303FB02133C33BC
:1056F000EBE700BFC0C9FF1F08B513494B78022B69
:105700001AD0032B11D0012B02D000239B73FFDE94
:105710000A784FF4987303FB021303F582730A228D
:105720009A73FFF733FD012008BD0A784FF4987390
:1057300003FB0213A033F2E70A784FF4987303FBDC
:1057400002133C33EBE700BFC0C9FF1F08B5134984
:105750004B78022B1AD0032B11D0012B02D000233F
:105760009B73FFDE0A784FF4987303FB021303F573
:1057700082730C229A73FFF709FD012008BD0A7895
:105780004FF4987303FB0213A033F2E70A784FF447
:10579000987303FB02133C33EBE700BFC0C9FF1F44
:1057A000F0B5134CD4F8642BD4F8F80DD4F8601B82
:1057B000012683B084F8856CC2F140030768002598
:1057C0001BB200930195C1F180033F6C84F8865CA5
:1057D00012B21BB284F8875C09B2B84704F64830AD
:1057E0000449FFF77DF9304684F8A85D03B0F0BDA9
:1057F000C0C9FF1F98BAFF1FF0B51B4B1B4C1B689D
:105800001B4A1C49C4F87C2C83B003260193019BDE
:10581000C4F8A43D01251823A4F87A6C802700263B
:1058200004F66930FF22A4F8823CA4F8807C84F856
:10583000A15D84F8765C84F8845C84F8685BA4F8E5
:10584000786C10F08BFC40F6B8327F23A4F8706CB3
:10585000A4F8726CC4F86C2CA4F8743CFFF7A0FF99
:10586000284603B0F0BD00BFECE2FF1FC0C9FF1F18
:1058700010990100909A01002DE9F04F87B05F4A1E
:105880005F4C01925F4A4FF07E5302F6483000931E
:10589000214602230022FDF7EDF8002800F0AA803F
:1058A0002368002B00F09780581EDFF86CC1564E1D
:1058B000DFF868E1554F564D564C00EBC00262448C
:1058C0004FF4B47803926C2208FB00F102FB00F263
:1058D0004FF000098E4407EB0108B118AA18494E91
:1058E0000491059204EBC31CCA46039A12F8013BCB
:1058F000039286F83031774606F13C050EF1200B15
:105900003C460FCC5C4528606960AA60EB60274686
:1059100005F11005F4D120682860049B4B4493E8FE
:105920000700A388AB8006F14C0383E807004746D5
:1059300006F1A00508F1200B3C460FCC5C45286021
:105940006960AA60EB60274605F11005F4D1206874
:105950002860059B4B4493E80700A388AB80294B44
:1059600006F1B004D3F8C47AD3F8C85ABAF1080FD4
:1059700084E80700C6F8B470C6F8B8501BD0ACF184
:10598000800307CB06F58274C6F8040118889B785B
:10599000C6F80811C6F80C210AF1010A0EF1280E0A
:1059A00009F10C0908F128080CF1100C06F598769D
:1059B000A081A37399E7D3F8D04AD3F8CC0AD3F8DF
:1059C000D81AD3F8D42AC3F8D449C3F8D009C3F8F5
:1059D000381AC3F8342A0B4BD3F8F80D00210368AA
:1059E00001911A2200921C6C2D227B23A047FFF705
:1059F000D7FE012007B0BDE8F08F00BFF50600001C
:105A000088BAFF1FC0C9FF1F08E1FF1F4CB4FF1F6A
:105A10007CB2FF1F98AFFF1FE4DFFF1F10C4FF1F02
:105A200070B53C4C2378082B82B048D002236370B9
:105A300006213948374E08F07BFB0721364808F02D
:105A400077FB0821344808F073FB0921324808F03D
:105A50006FFB0A21304808F06BFB0B212E4808F041
:105A600067FB0C212C4808F063FB23784FF49875F2
:105A700005FB034393F84A30072B29D0A3F10D020D
:105A8000012A32D9012B1ED0D4F8642BD4F8F80D9A
:105A9000D4F8601B0468C2F140031BB200258DE8F6
:105AA0002800C1F1800312B209B2246C1BB2A047D6
:105AB00019491A48FFF714F8012002B070BD637845
:105AC000012BB5D8F8E70B21134808F015FBDBE7ED
:105AD0000821114808F010FB337805FB036595F8A1
