:1000000000800020BD010000CD4A0100854A0100AA
:10001000854A0100854A0100854A0100854A0100A0
:10002000854A0100854A0100854A0100CD4A010048
:10003000CD4A0100854A0100016701000567010002
:10004000CD4A0100CD4A0100CD4A0100CD4A010050
:10005000CD4A0100CD4A0100CD4A0100CD4A010040
:10006000CD4A0100CD4A0100CD4A0100CD4A010030
:10007000CD4A0100CD4A0100CD4A0100CD4A010020
:10008000CD4A0100CD4A0100CD4A0100CD4A010010
:10009000CD4A0100CD4A0100CD4A0100CD4A010000
:1000A000ED300100F9300100CD4A0100CD4A0100D8
:1000B000CD4A0100CD4A0100CD4A0100CD4A0100E0
:1000C000CD4A0100CD4A0100CD4A0100CD4A0100D0
:1000D000CD4A0100CD4A0100CD4A0100CD4A0100C0
:1000E000CD4A0100CD4A0100CD4A0100CD4A0100B0
:1000F000CD4A0100C9730100CD4A0100CD4A01007B
:10010000CD4A0100CD4A0100CD4A0100CD4A01008F
:10011000CD4A0100CD4A0100CD4A0100CD4A01007F
:10012000CD4A0100CD4A0100CD4A0100CD4A01006F
:10013000CD4A0100CD4A01001D430100CD4A010016
:10014000CD4A0100CD4A0100CD4A0100CD4A01004F
:10015000F168010005690100196901002D690100BC
:10016000CD4A01005D510100CD4A0100CD4A010098
:10017000CD4A0100CD4A0100CD4A0100CD4A01001F
:10018000CD4A0100CD4A0100CD4A0100CD4A01000F
:10019000CD4A0100CD4A0100CD4A0100CD4A0100FF
:1001A000CD4A0100CD4A0100CD4A0100CD4A0100EF
:1001B000CD4A0100CD4A0100CD4A0100524B4CF21C
:1001C000205210B51A804DF628121A8000BF00BFC9
:1001D00014F080FC4D4B4FF010621A604C4A9A604C
:1001E0004C4ADA6003F5533303F2D2331A7811071D
:1001F00003D51A7842F008021A70474B47492A2261
:100200001A70474A474B8B4204D252F8040F43F806
:10021000040BF8E7444B454900228B4202D243F8D5
:10022000042BFAE74249434A002352F8230041F8DD
:10023000230001336F2BF8D13F4B404A802103F854
:10024000011B9342FBD13E4B394A1A603D4B8A2237
:100250001A70A3F5805324225A70A0221A709A793A
:100260009207FCD59A79D406FCD4374A937903F0E7
:100270000C03082B344BF9D103221A7140225A7116
:100280009A799006FCD5304A91792F4B4906FBD5D7
:100290002E4A2F4911600221516020221A709A794A
:1002A00002F00C020C2AFAD12A4B2B4A1A602B4B73
:1002B0002B4A1A6000225A60072243F8042C294A6C
:1002C000C3F80C2D62B614F0FFFD274B1B68DA074C
:1002D00005D5264814F05CFD254B264A1A60264BAE
:1002E0001B785B0609D5224C224B22689A4204D126
:1002F0001E4814F04DFD0023236018F0A9FC14F0F3
:10030000EFFB16F079FCFEE70E200540308004403C
:10031000823F04000100002B00E0074018ACFF1FE3
:10032000B80802004088FF1F18ACFF1FC4E9FF1F78
:100330000082FF1F0000000000E400E05FE400E036
:1003400008ED00E0005006400040064044800440B4
:100350000000030104800440C010050014E000E028
:10036000FF7601000000202014D00340481E986052
:100370001CE00340A5C3945A00F00740FFFFFFFFB5
:10038000FFFFFFFFFFFFFFFFFFFFFFFFFFFFFFFF7D
:10039000FFFFFFFFFFFFFFFFFFFFFFFFFFFFFFFF6D
:1003A000FFFFFFFFFFFFFFFFFFFFFFFFFFFFFFFF5D
:1003B000FFFFFFFFFFFFFFFFFFFFFFFFFFFFFFFF4D
:1003C000FFFFFFFFFFFFFFFFFFFFFFFFFFFFFFFF3D
:1003D000FFFFFFFFFFFFFFFFFFFFFFFFFFFFFFFF2D
:1003E000FFFFFFFFFFFFFFFFFFFFFFFFFFFFFFFF1D
:1003F000FFFFFFFFFFFFFFFFFFFFFFFFFFFFFFFF0D
:10040000FFFFFFFFFFFFFFFFFFFFFFFFDEF9FFFF23
:1004100010B5054C237833B9044B13B10448AFF33E
:1004200000800123237010BD18ACFF1F00000000E6
:10043000B4080200084B10B51BB108490848AFF3D7
:1004400000800848036803B910BD074B002BFBD0A0
:10045000BDE81040184700BF000000001CACFF1FA3
:10046000B408020018ACFF1F000000000023FF22A8
:10047000427183618375437503750371C360836043
:1004800003617047083070475430704754307047EC
:10049000704700BF074A10B51378074C41F6340087
:1004A00083F0010320581370194612F0BBF90120A4
:1004B00010BD00BF20D1FF1F98ACFF1F70B541F6E3
:1004C0003003284C0546E05812F078FFB4F8363F68
:1004D000B4F8342F181A83B29342A4F8363F2CD0C4
:1004E00014D86A69002AC4BF02F1FF326A61AA689F
:1004F0005279022A27D04FF0FF30FF22A4F8343F70
:10050000012185F8632285F8621270BDA8686E69C2
:1005100010F0B2FA2B69C01A864202DA6B69013315
:100520006B61AB685B79022B09D123780D4A072BED
:1005300012D9B2F8363FA4F8343F002070BDB4F8A9
:10054000363F0120D9E722780649002AF3D0013A44
:100550000A704FF0FF30D0E7013313700120B2F87A
:10056000363FCAE798ACFF1F024A41F63003D05825
:1005700012F068BF98ACFF1F10B5044600F5C150DB
:10058000083016F093F904F5C15016F08FF92046A3
:1005900010BD00BF234B1B6803F16402904270B58D
:1005A00004DA643B984201DD022070BD1E4B1B68DB
:1005B00003F16402904204DA643B984201DD0320B7
:1005C00070BD1A4B1D680446B5F96400C0F13C00CB
:1005D00018F0A2F80646B5F9660018F09DF8014635
:1005E000304618F0A1F90646E86E18F095F8014675
:1005F000304618F0E5F80646A86E18F08DF801466A
:10060000304617F0D5FF18F0A1FA00F164039C42C0
:1006100005DA64388442D4BF0020012070BD002078
:1006200070BD00BF68C9FF1F6CC9FF1FA8DCFF1F9A
:10063000F8B5427A05460E4602B301230A701C46FD
:10064000A97A89B1C7291CD93831C9B2164FC1EB73
:10065000C1010F44F018394619F0FAF8384619F07C
:100660006FF92044C4B22346EA7A1AB10134E4B2E5
:10067000F25423460022F2542046F8BD1346144695
:10068000DEE70A4FC1EBC101F0183944062219F028
:10069000C5F9A87AC0EBC000384419F051F92044DC
:1006A000C4B22346E0E700BFB1C1FF1F0CDD01006B
:1006B0002DE9F0411B4D41F68C440646285912F0B5
:1006C0001BFE40B3B3685B79022B15D041F68C4713
:1006D000DFF85080E85912F013FE044610B92046A6
:1006E000BDE8F08158F8070012F0B2FD0023C6F80B
:1006F00054322046BDE8F081D6F85432B3F57A7F03
:10070000E4D941F2C26201240023AC542046C6F869
:100710005432BDE8F081285912F0E2FDC6F85402C7
:10072000D0E700BF98ACFF1F012070470120704741
:100730000268084952688A420BD10022FF21826177
:100740008275427502750271C260826002614171F8
:10075000704710476D04000038B50E4B01EB4101A6
:1007600005461944144619F059F900232B550A4A35
:1007700041F634032846D45819F0E2F823680246BB
:1007800029465B68204698472046BDE8384016F069
:10079000EDB800BF5CDE010098ACFF1F30B5044629
:1007A00085B0A9B108460D4619F0CAF80146284699
:1007B00015F046FEA07D617DA569237D62790190DB
:1007C000009102950549064816F0E8F805B030BDDD
:1007D0000221044815F034FEECE700BF28DF0100D9
:1007E00090A1FF1FA4E001002DE9F04F2F4EDFF88C
:1007F000C89041F6340585B0735903901A680027F4
:100800004FF01A080197CDF80080146C18462D227D
:100810007B233946A0477059012111F091F8745992
:1008200023492368A7822A224FF0010A4FF0040BC4
:100830005B682282A4F812A00822A4F80EB0204619
:100840009847204616F092F8039A1A4B745953F8B9
:100850002210A4F80EB0322323820846039119F027
:100860006FF8236803995B68024620469847204644
:1008700016F07CF8705903688DE80005252239468A
:10088000DC6C7B23A04714F0AFFAD9F8003047F2B4
:100890002F52C01A904206D9705911F0BDFE14F0C3
:1008A000A3FAC9F8000005B0BDE8F08F98ACFF1FAF
:1008B00048DF01006489FF1FECE1FF1F2DE9F043D1
:1008C00090F96332664E013387B0044661D041F639
:1008D00034030121F05811F033F825696369A068E9
:1008E0001D4410F0C9F8854280F2A8806369276929
:1008F00094F963821F44E368984541F6340300F09D
:10090000A980F3580121002259829A8202AD29461A
:100910004246204610F014F9284619F011F80D2827
:1009200007DC28440DF11602202300F8013B904219
:10093000FBD16269E369A16941F63400C2EB0808A2
:100940003658093303EBC8034FF000098DF81690B1
:1009500028463382F18118F0F3FF336802465B6862
:10096000294630469847304616F000F894F863322E
:1009700001335BB2BB4284F8633202D007B0BDE8FA
:10098000F083FF2384F8629284F8633207B0BDE8F5
:10099000F08341F634050121705910F0D1FFA368AE
:1009A00072591F680021012050829182184610F070
:1009B00063F800B200EB400102AD07EBC1010E226B
:1009C000284619F02BF8284618F0BAFF0D2807DC46
:1009D00028440DF11602202300F8013B9042FBD180
:1009E00041F63408B4F91C3056F80870A2690021A9
:1009F0008DF816102846FA813B8218F0A1FF3B685B
:100A0000024629465B6838469847384615F0AEFFDF
:100A1000E26956F80800A1690568083212B201239C
:100A20008DE80C0001F15403AD6C1BB209B2A8476C
:100A3000636984F8633207B0BDE8F083A06810F002
:100A40001BF8E36894F963829845074641F634033E
:100A50007FF457AFF3580021012259829A8255E75B
:100A600098ACFF1F70B5044608460D4618F068FFA5
:100A700023680246294620465B68BDE87040184757
:100A80002DE9F04F002387B00122437000F6347344
:100A900004904FF07E564FF00008027000F1040BF6
:100AA0000593EE4BCBF804304FF000038BF83C304D
:100AB0004FF0280300274FF001094FF03C0A8BF854
:100AC0000F304FF61943ABF82030CBF810608BF89D
:100AD00014708BF815708BF816708BF81770ABF8D4
:100AE0001870CBF82470CBF82870CBF82C70CBF8AA
:100AF0003070CBF83470CBF83870CBF84C70CBF842
:100B000050708BF854708BF80870ABF81C70ABF811
:100B10001E708BF822708BF80C908BF80D908BF870
:100B20000EA0382016F070F84FF0814505614FF4A3
:100B30008065394645603A46C94B80F81490C0F844
:100B40001880C0F8208080F82470044613F0DCF888
:100B50009BF86630CBF8404003F0C00367F387137F
:100B60008BF866304FF4FA73CBF84C30BD4BCBF8B2
:100B700048304FF07803ABF86A30ABF8763040F687
:100B8000FF73CBF86C30B84BCBF870304FF07F036D
:100B90008BF878308BF879304FF47A73ABF87A3081
:100BA0004FF0FF338BF880304FF028024FF6FF7381
:100BB0008BF85B206360AD4AAD4BCBF8042023611A
:100BC0008BF845708BF844908BF855708BF85890E3
:100BD0008BF859908BF85AA08BF860708BF8617085
:100BE0008BF862708BF86370ABF864708BF8677089
:100BF000ABF86870ABF87470CBF85C60382016F016
:100C000003F845604FF081454A4639460561994BE6
:100C100080F81490C0F81880C0F8208080F8247004
:100C2000044613F071F84FF028038BF88F304FF61D
:100C30001943ABF8A030904BCBF80430874BCBF87E
:100C4000843040F6FF7363604FF08043CBF87C4004
:100C5000CBF8B470CBF8B8708BF8BC70CBF8CC7014
:100C6000CBF8D0708BF8D4702361ABF81E708BF882
:100C700081708BF88C908BF88D908BF88EA08BF810
:100C800094708BF895708BF896708BF89770ABF822
:100C90009870CBF8A470CBF8A870CBF8AC70CBF8F8
:100CA000B0708BF88870ABF89C70ABF89E708BF8C6
:100CB000A270CBF89060382015F0A6FF4FF4806545
:100CC00045604FF08145394605613A46644B80F8EE
:100CD0001490C0F81880C0F8208080F82470044672
:100CE00013F012F84FF4FA72CBF8CC205D4ACBF82F
:100CF000C8204FF028028BF8DB204FF07802ABF8C9
:100D0000EA2040F6FF729BF8E630CBF8EC20564A1A
:100D1000CBF8F0204FF07802ABF8F62003F0C003D8
:100D20004FF07F028BF8F8208BF8F92067F38713D8
:100D30004FF47A72ABF8FA208BF8E6304FF0FF32BE
:100D40004FF6FF738BF800216360484A484BCBF89D
:100D5000C0408BF8C5708BF8C4908BF8D5708BF8B9
:100D6000D8908BF8D9908BF8DAA08BF8E0708BF8DC
:100D7000E1708BF8E2708BF8E370ABF8E4708BF8FD
:100D8000E770ABF8E870ABF8F470CBF88420CBF8E0
:100D9000DC602361382015F037FF4FF48065456033
:100DA0004FF081454A4639460561324B80F8149030
:100DB000C0F81880C0F8208080F82470044612F033
:100DC000A3FF4FF61943ABF820314FF028038BF8FF
:100DD0000F31294BCBF88430204BCBF8043140F64F
:100DE000FF7363604FF08043CBF8FC408BF80171D8
:100DF0008BF80C918BF80D918BF80EA18BF8147178
:100E00008BF815718BF816718BF81771ABF8187198
:100E1000CBF82471CBF81061CBF82871CBF82C718A
:100E2000CBF83071CBF83471CBF838718BF83C715A
:100E3000CBF84C71CBF850718BF854718BF808716A
:100E4000ABF81C71ABF81E718BF822712361ABF803
:100E50009E70382015F0D8FE10E000BFE0D10100F0
:100E600017B7D1389F86010001F0FFFFF8D10100CC
:100E7000000060420AD7233C04D201004FF4806591
:100E800045604FF0814504463A463946D14B0561ED
:100E9000C0F81880C0F8208080F8149080F8247082
:100EA00012F032FF4FF6FF706060CB4820614FF4C4
:100EB000FA70CBF84C01C9489BF88821CBF848015F
:100EC0004FF028008BF85B014FF0FF308BF8680182
:100ED0004FF0FF3367F303020821C148CBF84041CC
:100EE0008BF85AA1CBF80401CBF85C618BF88DA18B
:100EF0008BF845718BF844918BF858918BF8599188
:100F00008BF860718BF861718BF862718BF863718B
:100F10008BF88E91ABF864718BF866718BF86C71FD
:100F2000CBF87071CBF87C718BF880718BF8847181
:100F30008BF88A718BF88C718BF888218BF88B1168
:100F4000CBF88F718BF80030059BCBF893718BF841
:100F500097718BF89871CBF89C71CBF8A071CBF896
:100F6000A871ABF8A471ABF8A6718BF8AE718BF8D1
:100F7000AD718BF8AC710BF5D87B9B457FF491ADCF
:100F8000049E4FF0000096F8382F86F83A0F4FF085
:100F9000000086F83B1F86F83C0F47F230514FF0B7
:100FA00000004FF0FF33A6F8361F86F8480F67F3AE
:100FB00003024FF000014FF00000A6F8343F86F81E
:100FC000382F86F8471F86F85C0F86F83DAF86F805
:100FD0003E9FC6F83F7F4FF4AF62C6F8437F81491A
:100FE000C6F84C7FC6F8507FC6F8587FA6F8547FE5
:100FF000A6F8567F06F5766013F0F6F941F2D84070
:1010000006F5A75341F2DC41375041F2E44218465D
:10101000775040F6FF744FF000011F60B1548460B8
:10102000714CC46040F6FF74446184616E4C90F86A
:101030003130C46140F6FF7404624FF47A7E6A4C2A
:10104000446243EA090306F5AC54A0F828E0674976
:10105000674A80F831304FF0000E1125043480F8D3
:1010600030E0C162426380F8385069223946076136
:10107000393018F053F941F2845520460FF0FEFC48
:101080005C4B73514FF0000384F8203084F82E310C
:1010900004F5A270C4F82471A4F82C71C4F840714E
:1010A000FB22394618F03AF94FF0000384F8583221
:1010B00084F8593284F860324FF0FF3384F861329B
:1010C0004FF0000306F5BF5584F862324FF0FF334E
:1010D00084F8633236214FF0000328464FF0070EA4
:1010E00084F83E3184F83F31A161C4F84072C4F8FD
:1010F0004472C4F84872C4F84C72C4F85072C4F810
:101100005472C4F85C72C4F864726761E76184F871
:101110003D91C4F810E0384E85F82C901B302A46DB
:101120004FF000047F2301462F6385F838406E633B
:101130000B3202F8013F824201F8013FF9D1049DD0
:1011400041F6280605F5C15200201446802141F6DB
:1011500038071171106041F63C0EA85111739622A8
:1011600084F83800C4F8280484F82C04C4F8300447
:10117000C4F8340484F86A0405F5C253EA5140F215
:10118000672245F80E202F4641F644014FF487624E
:101190001A6041F6480640F209637B5041F64C055F
:1011A00041F6500240F2DA73BB5141F6540140F669
:1011B000AB1340F67C367B51BE5040F64D5507F5DB
:1011C000E25307F5E4527D501733014684F86B046F
:1011D000093213E017B7D138000060429F86010042
:1011E000ECD1010008D2010001F0FFFF9A99993F6C
:1011F00052491D3A34EC010034E2FF1F03F8011F8D
:1012000093424FF00004F9D1942015F0FDFC0546FF
:1012100012F0CAF9049E41F61C032420F55015F083
:10122000F3FC0423072206218DE818004FF0FF335A
:10123000054612F06FF841F630031020F55015F016
:10124000E3FC044611F0D2FF41F68C430F48F45002
:1012500011F010FC0E210D4811F074FC642015F003
:10126000D3FC0B4B0393092108220A238DE80E00BF
:10127000064B40228021044610F05EFD41F6340307
:101280003046F45007B0BDE8F08F00BF6C9FFF1FE1
:1012900000127A0030B583B00546069C002CCABF08
:1012A000E0B2007D28752B614BB942B2002A02DD05
:1012B000194613F07FFD00232B7003B030BD084B9F
:1012C000A9601B68019343B2019CEA600121002BD5
:1012D0006C602970F1DD13F06DFD03B030BD00BF0F
:1012E0003CE6FF1F0369F3B110B51649027809689F
:1012F00082B0012A0191019916D04468C268224443
:101300008A420ED2002B416002DD013B036143B1F2
:10131000037D5AB20121002A017002DD184613F044
:1013200049FD02B010BD70474268836813448B4288
:10133000F7D2037D41605AB200218A420170EDDC90
:10134000EFE700BF3CE6FF1F70B5064E41F68C4547
:10135000705911F0D5FF044610B1705911F078FFA3
:10136000204670BD98ACFF1F38B5144C41F63003D1
:101370000546E05812F022F8B4F8363FB4F8342F9E
:10138000181A83B29342A4F8363F15D00C4A11685C
:101390000AD80029CCBF01F1FF31002111604FF0C4
:1013A000FF30A4F8343F38BDA942B8BF0131116005
:1013B0000120A4F8343F38BD002038BD98ACFF1F91
:1013C0008CACFF1F10B5084941F634030022C85801
:1013D00082B0402103688DE8060011461C6C802312
:1013E000A04702B010BD00BF98ACFF1F2DE9F04F21
:1013F000914BDFF8789241F634048FB018590025EC
:10140000402203688DE8240029461E6C2A4680236A
:10141000B047894B0121185910F092FA864B874941
:1014200018590368858201265B68C58108220582F8
:1014300046829847804B19781859314415F0FCFAC8
:101440007D4B7F491859036807225B689847D9F894
:101450000000002800F0D98017F05EF94FF07C51B1
:1014600017F0AEF916F02AFD734B1D59009602468F
:101470000B46284615F0E8FA6F4B72491C59236851
:1014800032465B6820469847204615F06FFA0023E5
:1014900006936D4B0793DFF8D8810E230593059BC8
:1014A000079E043B1BB20493069B1D4603EB4303BC
:1014B000039300240127039BD9F80020D8F800A04B
:1014C000EB189A4200F09A804FF00003AAF81270CD
:1014D000AAF814300FFA84FBBDF81030AAF81030C7
:1014E00009A8AAF80EB0002D00F09B8018F028FA89
:1014F000DAF8003002465B6809A950469847504622
:1015000015F034FA3378002B6CD11E34A4B2782C49
:1015100006F1010605F10105CDD1059B069A0933B7
:101520009BB20593079B01320433052A0692079369
:10153000B5D141F63404404A444910593723026872
:10154000038201250023566845828382C3810422D9
:10155000B0473F4B384A196810593E4E15F06CFAA7
:10156000354B3D49185903682A465B689847324B0A
:101570003168185915F060FA2F4B3749185903682C
:101580002A465B689847354B30681E687368C01AF6
:1015900017F0C2F80746B06817F0BEF801463846A3
:1015A00017F0C2F92E4917F00BF916F087FC224B01
:1015B0001E59022702460B460097304615F044FAA2
:1015C0001D4B20491E5933682A465B6830469847B0
:1015D000304615F0CBF9184B185911F01DF80FB023
:1015E000BDE8F08FD8F80000BDF91420036800971B
:1015F000D3F83CA059461823D04786E74FF00003A4
:10160000AAF81230AAF8147064E70B4B15491C595C
:10161000236820465B6803229847204615F0A6F908
:1016200035E7DAF8003010495B68042250469847E5
:10163000504615F09BF968E798ACFF1F54DF010096
:1016400060DF010068DF0100C8E1FF1F78DF0100F3
:101650001093FF1FA896FF1F80DF010094C9FF1F92
:10166000000020416CDF010070DF01008CACFF1F27
:10167000CCC4FF1F2DE9F04F9F4BA04AA04C1B6824
:101680001268596892F862609B6841F6340785B029
:10169000E059029300254022036803918DE824005D
:1016A00029462A46D3F840808023C047E0590121CB
:1016B00010F046F9E059934903688582012242827D
:1016C000C58105825B6803229847217807294FEA84
:1016D000961640F2DE806378E059022B03680CBF57
:1016E00089498A495B6805229847894F3B68002BE6
:1016F00040F0C78041F63401012260584382828263
:10170000036884495B68082298473B68012B00F016
:10171000D58041F634030122E55800236A82AB826A
:101720002B687D495B68DFF8D8B10322284641F673
:10173000340A9847284615F019F954F80A507749A1
:101740002B684FF000084FF0010911225B682A82D4
:10175000A5F812901022A5F81480A5F80E8028464E
:101760009847284615F002F93B685BF80A00022BFF
:101770004FF01B030382036807BFA0F81280A0F894
:101780001490A0F81290A0F814800022022EC281BA
:101790000CBF634963495B68102298473B68032B81
:1017A00041F6340300F08480E05801220023428295
:1017B0008382252303820368022E4FF0000241F644
:1017C00034050CBF58495949C2815B6810229847BB
:1017D0006059574902680123438237270023078253
:1017E00057688382C3810422B847524B444A1B681E
:1017F000002B0DDD504F555903EB83031F44384632
:1018000018F09EF82B68024639465B6828469847D0
:1018100041F634050322605948490368384F5B6834
:101820009847474B1868039B022EA0EB03004CD04F
:1018300016F072FF0646029816F06EFF014630461B
:1018400017F072F83F4916F0BBFF16F037FB7D59D1
:10185000022602460B460096284615F0F5F841F69A
:1018600034060122A55938492B6828465B689847F9
:10187000284615F07BF8A05905B0BDE8F04F10F0F0
:10188000CBBE41F634030122E0580023428283821A
:1018900036E70131E05915F0CFF86378E059022BB3
:1018A00003680CBF29492A495B68052298471CE751
:1018B000E05800220123428283827AE741F6340114
:1018C00000226558AB826A822AE716F025FF80461F
:1018D000029816F021FF0146404617F025F81D49F1
:1018E00016F06EFF16F0EAFA7D59009602460B4696
:1018F000284615F0A9F8B2E794C9FF1FA8DCFF1F1E
:1019000098ACFF1F84DF010088DF010090DF010039
:101910008CACFF1FA8DF01006CDF0100B4DF010009
:10192000C8DF0100DCDF0100F0DF010004E001009E
:1019300078DF01001093FF1F34D9010018E0010087
:10194000A896FF1F0000204168DF010098DF01001A
:10195000A0DF01000000A0402DE9F04F884B894E28
:1019600041F63405002458598BB0402203688DE8B5
:10197000140021461F6C22468023B847804B01216A
:1019800058590FF0DDFF7E4B7F4958590368C481D9
:1019900001275B680482848247820A229847336861
:1019A000002B40F0E080764A5059438287820368DA
:1019B00076495B68082298473368012B00F0D8808D
:1019C00041F634036E49CC58012200236282A3827F
:1019D00023686F495B68DFF8D0910322204698475F
:1019E000204614F0C3FF41F63405654B69495C5944
:1019F00023684FF000080A2201265B682282A4F8BF
:101A00000E801422A4F81280A68220469847204611
:101A100014F0ACFF5A4B60495C592368A4F80E805F
:101A200025225B682282204614229847204614F023
:101A30009DFF534B53F805A0584B594D0393AAF8FB
:101A40001260AAF814804FEAA80606EB460659F879
:101A500004BF06EBC60608F003074FF0000CB6B251
:101A6000C7EB071706F113037F00E345AAF8103010
:101A7000AAF80E708DF818C064DB05AB06AC9C4468
:101A8000A64601209BFBF0F385FB0321DA17C2EB8E
:101A9000A10202EB8202A3EB420330330EF8013DB8
:101AA00000EB8000E6454FEA4000EBD105A817F0B7
:101AB00047FFDAF8003002465B68504605A99847B0
:101AC000384BD3F800A0039B53F8041F039306F18F
:101AD0001C030026B142AAF80E70AAF810308DF847
:101AE000186029DB05AB1E44012091FBF0F385FB58
:101AF0000327DA17C2EBA70202EB8202A3EB420331
:101B0000303304F8013D00EB8000A6424FEA40006C
:101B1000EBD105A817F014FFDAF80030024608F1FF
:101B200001085B68504605A99847B8F1080F11D025
:101B30001C4BD3F800A086E72D2349428DF81430C2
:101B40000126CFE72D23CBF1000B8DF814304FF099
:101B5000010C92E741F63403094AD05810F05CFDBD
:101B60000BB0BDE8F08F064B5859478284821EE7C0
:101B700041F63401024844580022A382628227E7DA
:101B800098ACFF1F8CACFF1F1CE0010028E0010097
:101B90006CDF010034E001004CE00100FCD0FF1FCD
:101BA00067666666CCC4FF1F6CC9FF1F7C4B1A6852
:101BB000F0B40346946EB2F9640007290CD8DFE84C
:101BC00001F0042D32517292B20D764A106891885C
:101BD0009279186099809A71F0BC7047D26E002695
:101BE000A4185E7100F1BD806F4F1E4401200533C3
:101BF00094FBF0F287FB0215D117C1EBA50101EBB5
:101C00008101A2EB4102303203F8012D00EB80008C
:101C1000B3424FEA4000EBD1F0BC7047634A106812
:101C20001860F0BC70470026041E5E71C0F2B280DE
:101C30005D4F1E440120053394FBF0F287FB021533
:101C4000D117C1EBA50101EB8101A2EB41023032BA
:101C500003F8012D00EB80009E424FEA4000EBD1DB
:101C6000F0BC7047B2F96660002536185D7100F16E
:101C70008C804D4F1D440120053396FBF0F287FB0D
:101C80000214D117C1EBA40101EB8101A2EB4102C7
:101C9000303203F8012D00EB8000AB424FEA4000E8
:101CA000EBD1F0BC7047B2F970600025AE425D71B7
:101CB00066DB3D4F1D440120053396FBF0F287FBA8
:101CC0000214D117C1EBA40101EB8101A2EB410287
:101CD000303203F8012D00EB8000AB424FEA4000A8
:101CE000EBD1F0BC7047B2F972600025AE425D7175
:101CF00041DB2D4F1D440120053396FBF0F287FB9D
:101D00000214D117C1EBA40101EB8101A2EB410246
:101D1000303203F8012D00EB8000AB424FEA400067
:101D2000EBD1F0BC70470026B4425E711EDB1E4F43
:101D30001E440120053394FBF0F287FB0215D117F6
:101D4000C1EBA50101EB8101A2EB4102303203F8A6
:101D5000012D00EB8000B3424FEA4000EBD1F0BC14
:101D600070472D2264421A7001263DE72D226442FD
:101D70001A700126DBE72D2276421A700125B8E79A
:101D80002D2276421A70012593E72D2276421A7091
:101D900001256EE72D2264421A70012648E700BF34
:101DA000A8DCFF1F64E00100676666666CDF010067
:101DB0002DE9F04F684CDFF8C8A141F634068BB02E
:101DC000A0590025402203688DE8240029462A46B0
:101DD0001F6C8023B847A05901210FF0B1FDA05915
:101DE0005E490368858201225B684282C5810322C5
:101DF000058298472178A059013114F01DFE6378BF
:101E0000A059022B036808BF55495B6818BF5549A4
:101E100005229847DAF80030002B40F0838041F625
:101E20003401012260584382828203684E495B6814
:101E300008229847DAF80030012B7BD041F63403B2
:101E40000122E55800236A82AB822B6847495B6810
:101E5000DFF82091032228469847284614F086FD93
:101E600041F634030122E458414923686282002686
:101E700010225B682282A682E6812046984720468F
:101E800014F074FD1C234FF0020B02934FEA460836
:101E9000BDF90830039308F1020818250024D9F889
:101EA00000300121002259829A82002E49D0DAF8AE
:101EB000002008EB040191424FF001002ED00022D7
:101EC00058829A82BDF80C20DA811D820BEB040146
:101ED00005A8FFF76BFED9F8007005A817F030FDD4
:101EE0003B6802465B6805A9384698470134384686
:101EF00014F03CFD0A35022CADB2D0D1029B013664
:101F00002A339BB2022E02930BF1020BBED1194B66
:101F1000186810F081FB0BB0BDE8F08F00215982EA
:101F20009882CFE741F634030122E0580023428231
:101F300083827AE741F6340100226558AB826A82D7
:101F400083E718460C4924B1FEF78CFD094B1B684A
:101F5000ADE718460949F7E798ACFF1F84DF010099
:101F600098DF0100A0DF0100A8DF01006CDF0100A5
:101F70006CE00100CCC4FF1F80E0010088E001009C
:101F80008CACFF1F30B40D4B5B78012B0C4B0AD986
:101F90001C68A56D056094F95C0008701B685B6A9D
:101FA000136030BC70471B689C6D046093F95C0043
:101FB00008705B6A136030BC704700BF98ACFF1FAD
:101FC000A8DCFF1F2DE9F04F91B008AA0DF1130115
:101FD00007A8FFF7D7FF0898AC4C16F099FBAC495F
:101FE00016F0A2FC0146AB4816F09EFCAA4916F07A
:101FF0009BFC41F634060746A0590025036801956D
:1020000040220092D3F840802A4680232946C047C8
:10201000A05901210FF094FCA059A04903688582C2
:1020200001225B684282C58103220582984721789C
:10203000A059013114F000FD6378022B00F0798182
:10204000032B00F06F81012B00F0B580944E3368B4
:10205000002B40F0A88041F63401012260584382F1
:10206000828203688F495B68062298473368012B98
:1020700000F0518141F634030122E55800236A82C1
:10208000AB822B6888495B68DFF800A204222846EF
:1020900041F634099847284614F068FC54F8095072
:1020A00082492B684FF000080C224FF0010B5B684F
:1020B0002A82A5F812B01222A5F81480A5F80E8085
:1020C00028469847284614F051FC54F80900142378
:1020D000A0F80E80038202210FF032FC3268022A3F
:1020E00070D041F634019DF9133065580533012154
:1020F0006982D9B200200A29A88273D9022A00F085
:1021000084800DF124082B6869495B684FF0010950
:102110004FF0000A0222A5F81290A5F814A0284654
:102120009847384615F0CAFE0B46024661494046BC
:1021300017F068FB3368032B00F09B8041F63403F3
:102140000122E55800236A82AB82404617F0F8FB73
:102150002B6802465B68414628469847284614F09B
:1021600005FC3368032B00F0AF8041F634050121F4
:102170006059514E454F0FF0E3FB63590022012196
:102180009A82598212F030FE336847F22F52C01AF9
:10219000904205D9785910F03FFA12F025FE3060D0
:1021A00011B0BDE8F08F41F634030122E05800235E
:1021B0004282838255E7A0594049036806225B6842
:1021C000984743E73E4B1B78002B8AD09DF913308C
:1021D0005AF809500533DAB20A2AA5F81280A5F890
:1021E00014B08ED8374A52F82380404617F0A8FB27
:1021F0002B6802465B68284641469847326841F69C
:102200003403022AE5587FF47CAF2D4B1A78002A5C
:102210007FF477AF9DF913302A4905330DF11A0C7D
:1022200051F82310CDF808C00DF1180E0DF116036A
:1022300041F634090DF1240828468DE80840CDF810
:102240000C8014230FF0BCFC54F80900BDF92410D5
:10225000056800914FF0010ECDF804E0ED6CBDF97A
:102260001A30BDF91820BDF91610A84754F80950C6
:1022700049E7134B1B78002B3FF460AF41F6340362
:10228000E558A5F812A0A5F814905EE798ACFF1FDA
:1022900000007A4400606A470000C04184DF01000A
:1022A0008CACFF1F64E0010070DF0100A8E00100BA
:1022B000A4E00100BCE0010054ACFF1F90E001006D
:1022C0005C98FF1FE0D801001D4B1B78002B7FF4AA
:1022D0004CAF41F634050DF11A03039306AE0DF130
:1022E000160205AB605902964146019200933C22CA
:1022F00014230FF065FC6059BDF91A60056800965B
:1023000001260196BDF91830BDF91620BDF914104B
:10231000ED6CA84729E741F6340100226558AB82ED
:102320006A82AEE6A0590749036806225B689847AF
:102330008CE6A0590449036806225B68984785E645
:102340005C98FF1FA0E0010098E0010000B5807BD1
:1023500000F03F03202B17D8DFE803F01F1F5F5F5B
:102360005F5F323A5F5F5F5F5F2A24181F1F5F5F06
:102370005F5F5F1F1F1F1840464C5258110000201E
:102380004FF49673088013805DF804FB002043F639
:10239000FF73088013805DF804FB800901283FD09B
:1023A000022845D000207F23088013805DF804FBBD
:1023B0004FF4004047F6FF73088013805DF804FB7C
:1023C0004FF4604041F6FF73088013805DF804FB12
:1023D00000206423088013805DF804FB002007239D
:1023E000088013805DF804FB0020332308801380ED
:1023F0005DF804FB08201323088013805DF804FBBC
:1024000000200B23088013805DF804FB00204FF4AC
:102410007A73088013805DF804FB80090128C1D11C
:102420004FF680704FF48073088013805DF804FBD2
:1024300000203C23088013805DF804FB837B01F0BF
:102440003F0161F30503837320291ED8DFE801F003
:102450002D2D111111111E1E11111111111E1E1EF3
:102460002D2D11111111112D2D2D1E1E1E1E1E1E82
:102470001E00837B9B09012B24D17F2300214FF673
:10248000817201824382C3838283704710B5044600
:1024900000F11E0200F11C01FFF758FFB4F91C20E7
:1024A000E38B22829B1A638210BD837B9B09012BE5
:1024B00017D0022B0DD00022782302828283438220
:1024C000C383704700227F23028282834382C383B7
:1024D000704700233C217822038283834182C28398
:1024E000704778234FF6C4714FF688720182438299
:1024F000C3838283704700BF2DE9F041584D594C8A
:102500002B78594962780020012B086000F0848004
:10251000012A40F28A80022A7ED0032A54D0534EE8
:10252000306890F862205249524FDFF874E1DFF8CA
:1025300074C15FEA921814BF4FF001084FF0000811
:1025400081F8008000F164013960816ECEF80010DE
:10255000DFF854E1C16ECCF800104749B0F870C004
:10256000AEF800C0DFF844E1B0F872C0A1F800C0D6
:102570004249B0F864C0AEF800C0B0F866E0A1F817
:1025800000E003F0FD01012908D13D4BC2F3050233
:10259000543000211A70FFF751FF2B7839493A4A1D
:1025A0003A4D3B484FF0010EC1F800E04FF0FF31CB
:1025B000116073454FF00002296002700DD0354B59
:1025C00001201870BDE8F0812278284E4FF4D870B1
:1025D00000FB024088303060A3E73568386895F822
:1025E00062602D4B2D4962F3871685F8626041F2D7
:1025F000E84741F2EC46E559A4598460456003F18F
:10260000140003F8012F834241F8042FF9D1214B24
:1026100001201870BDE8F0812278144E4FF4D87074
:1026200000FB0240083030607BE7052B01D0BDE89D
:10263000F081012A7FF473AF124923780A604FF4C6
:10264000D87202FB0343094E0F4D104C10494FF056
:10265000FF3203F5847333602A6022600870AEE7AE
:1026600061ACFF1F98ACFF1F34ACFF1FA8DCFF1F3D
:1026700034D1FF1F94C9FF1F7C8FFF1FA0C9FF1F0C
:102680007CACFF1F8CACFF1FA896FF1F1093FF1F91
:1026900098C9FF1F50ACFF1FC7E1FF1F98D0FF1F55
:1026A00028E2FF1FE0E1FF1F1CE5FF1F28C9FF1FF5
:1026B0002DE9F043DFF8CC802C4F98F8003005224C
:1026C00087B03A707BB12A4E3568ADB1A84720B9C2
:1026D0000024204607B0BDE8F08300242046346083
:1026E00007B0BDE8F083FFF707FF0028EBD1012416
:1026F000204607B0BDE8F0831E4B18780238FEF77D
:1027000033FE2846FFF75EFCFEF71EFE0446002857
:10271000DED0194B1B68012B06DD023B174A52F82D
:10272000233033602C46D4E7154E41F63403402263
:10273000F05803688DE824002946D3F840902A46D3
:102740008023C84705AA0DF10F0104A888F800509E
:102750003D70FFF717FC41F2105141F20C539DF808
:102760000F00049A7054F250B3E700BF61ACFF1F32
:1027700034ACFF1F5C93FF1F8CACFF1F7089FF1FE1
:1027800098ACFF1F50ACFF1F2DE9F04FA74BA84D91
:102790001B78032283B02A70002B00F0A580A54B84
:1027A000A54E1F6897F86240B86EA409022C00F08D
:1027B000BD8015F0B1FF8046B7F96600B7F964B087
:1027C00015F0AAFF8246F86E15F0A6FF8146CBF100
:1027D000180015F0A1FF514616F0A6F8494615F06D
:1027E000EFFF414615F0E4FE16F0B0F93060CBF192
:1027F000600015F091FF514616F096F8494615F025
:10280000DFFF414615F0D4FE16F0A0F9DFF8649220
:10281000C9F8000089498A4ADFF85CA2B7F91A3082
:102820000878398BCAF800101360FEF79DFDFEF79B
:1028300021FFFEF789FD804600283CD0DFF83C826E
:10284000D8F80000012840F3CB80022800F0C280B5
:10285000032800F0B9803568D9F80000022CA0EBFD
:10286000050000F0958015F057FF0446284615F046
:1028700053FF21460546204615F09AFE714916F091
:1028800053F80146284615F091FE16F05FF96E499F
:102890000546204615F094FF6A4916F045F816F0F3
:1028A00055F96A4B1B684FF000085D609860404620
:1028B00003B0BDE8F08F2B78032BF8D1BAF80000F5
:1028C000FDF768FE624A41F2DD73D35C002BEED067
:1028D0000028ECD05F4B1A788242E8D0DFF89C8168
:1028E0001870C8F80000ADE7FFF706FE04460028A0
:1028F0007FF455AF564D5849584841F2A4534FF014
:102900000108FF2205F8038017F088F841F2A8615A
:1029100041F2AC6041F2AE6241F2B0634FF4FA664C
:102920006E5011212C52A952EC52C0E715F0F4FE62
:102930008346B7F96600B7F964A015F0EDFE81464D
:10294000F86E15F0E9FE8046CAF10C0015F0E4FEC1
:10295000494615F0E9FF414615F032FF594615F09A
:1029600027FE16F0F3F83060CAF1300015F0D4FEFF
:10297000494615F0D9FF414615F022FF594615F09A
:1029800017FE16F0E3F8DFF8EC90C9F8000041E715
:1029900015F0C2FE0446284615F0BEFE3049054635
:1029A000204615F0C1FF0146284615F0FFFD16F040
:1029B000CDF82C490546204615F002FF284915F0B0
:1029C000B3FF16F0C3F86CE7DAF800003568C9F811
:1029D000000043E7DAF800503560D9F800003DE721
:1029E0001B4941F634030022C858402103688DE892
:1029F000060011461C6C8023A0470E4B18681A4B2A
:102A000054301978FFF71AFDD8F800303BB90F4B56
:102A10001649174A1B680968126859609A60034A88
:102A2000002313702B704FF0010840E750ACFF1FDC
:102A300061ACFF1FA8DCFF1F68C9FF1F689FFF1F55
:102A40001093FF1F0000C0400000204194C9FF1FE9
:102A500098ACFF1F98C9FF1FC4E001003DC2FF1FD3
:102A6000000040400000A0407CACFF1F28E2FF1F98
:102A7000E0E1FF1F6CC9FF1FA896FF1F8CACFF1F72
:102A800010B582B002AB42F2267243F8042D044620
:102A9000017004221846002111F07CFF204601221B
:102AA000022111F077FF032002B010BD70B5064679
:102AB000044616F8041BFFF7E3FF0422054601460F
:102AC000304611F067FF291D04F10800042211F0BF
:102AD00061FF05F1080104F10C00042211F05AFF16
:102AE00005F10C0104F11000042211F053FF05F16F
:102AF000100104F11400042211F04CFF05F114013F
:102B000004F11800042211F045FF05F1180104F149
:102B10001C00042211F03EFF05F11C0104F120000D
:102B2000042211F037FF05F1200104F1350069227C
:102B300011F030FF05F1890104F12800042211F0A1
:102B400029FF05F18D0104F12C00012211F022FF73
:102B500005F18E0104F13000042211F01BFF04F195
:102B6000340005F19201012211F014FF962070BD8E
:102B700070B5064682B0002011F0A8FE8DF8060060
:102B8000012011F0A3FE8DF80700BDF8062042F2E7
:102B900026739A4203D00023184602B070BD02206B
:102BA00011F094FE03288ABFFF2330703370F51CA8
:102BB0000324204611F08AFE0134072C05F8010F8A
:102BC000F7D1F51D204611F081FE01340B2C05F8DC
:102BD000010FF7D106F10B05204611F077FE013405
:102BE0000F2C05F8010FF7D106F10F05204611F063
:102BF0006DFE0134132C05F8010FF7D106F1130512
:102C0000204611F063FE0134172C05F8010FF7D1AF
:102C100006F11705204611F059FE01341B2C05F86A
:102C2000010FF7D106F11B05204611F04FFE0134CC
:102C30001F2C05F8010FF7D106F11F05204611F0F2
:102C400045FE0134232C05F8010FF7D106F13405B8
:102C5000204611F03BFE01348C2C05F8010FF7D112
:102C600006F12705204611F031FE0134902C05F8BD
:102C7000010FF7D1204611F029FE06F12F0586F845
:102C80002C009124204611F021FE0134952C05F8EA
:102C9000010FF7D1204611F019FE962386F8340073
:102CA000184602B070BD00BF2DE9F843099C089E8C
:102CB0000F46904699461CB1086815F047FFA0479B
:102CC0001D4D41F63003E85810F078FBB5F8364F4B
:102CD000B5F8343F201A84B29C42A5F8364F24D070
:102CE00094BF06F100403046396815F061FC41465A
:102CF000064615F003FF58B94946304615F01CFF4B
:102D000068B1C7F800900020A5F8344FBDE8F883FB
:102D1000C7F800800020A5F8344FBDE8F8833E6076
:102D20000020A5F8344FBDE8F88341F68C43E858FD
:102D3000BDE8F84310F0E4BA98ACFF1F2DE9F0436A
:102D4000284D6B78012B85B0274B45D91B68586AF5
:102D500003F1580903F1240415F0DAFC234915F0B6
:102D6000E3FD0146224815F0DFFD224915F0DCFDA8
:102D700014F00AFC04A9204A41F8040D4FF07E53D8
:102D800080460192009300221C4B1D48FFF78CFFE8
:102D90001C4B039F187006461449384615F0C4FDB5
:102DA0000146134815F0C0FD124915F0BDFD15F0A0
:102DB000F3FE41462060384615F0B6FDD9F8001004
:102DC00015F0FEFC41F20C520346C9F800003046F3
:102DD000AB5005B0BDE8F0831C68606A04F1580987
:102DE0002434B9E798ACFF1FA8DCFF1F00007A4429
:102DF00000606A470000C041C51F00000000FA43A0
:102E00001CC2FF1F5C98FF1F70B5204D6B78022B12
:102E100084B033D0032B2AD0012B02D000231B7A9D
:102E2000FFDE2B784FF4D87404FB035404F5AE7422
:102E300094F9080015F070FC04A9154A41F8040D36
:102E40004FF07E5301920093124A134B1348FFF741
:102E50002BFF134B06461E70039815F077FE41F2C8
:102E6000105340B22072E854304604B070BD2B7845
:102E70004FF4D87404FB0354DC34D9E72B784FF4B7
:102E8000D87404FB03545C34D2E700BF98ACFF1F36
:102E9000C51F00000000A0C00000A0401CC2FF1F12
:102EA0005C98FF1F2DE9F843099CDDF820900E4641
:102EB00090461F460CB10868A0471C4D41F63003F0
:102EC000E85810F07BFAB5F8364FB5F8343F201AC1
:102ED00084B29C42A5F8364F21D0E01A15F01CFCB4
:102EE000494615F06DFC8146306815F015FC014629
:102EF000484615F05DFB15F029FE404508DB87428A
:102F0000A8BF074637600020A5F8344FBDE8F88316
:102F1000C6F800800020A5F8344FBDE8F88341F6DC
:102F20008C43E858BDE8F84310F0EAB998ACFF1FAD
:102F30002DE9F047234CBDF82090099D41F630075C
:102F40000646E05990460F469A4610F037FAB4F814
:102F5000363FB4F8341F184480B2A4F8360F8842C4
:102F600096F861221BD2AB5C013BDBB22F2B98BFE2
:102F70003923AB5428460A22002116F01FFE404593
:102F8000386013DAB4F8360FC7F8008041F68C4386
:102F9000A4F8340FE058BDE8F04710F0B1B9F5D906
:102FA0005AB909F1FF3986F86192EFE75045C8BF79
:102FB000C7F800A0B4F8360FE8E7013A86F86122B6
:102FC000E4E700BF98ACFF1FF8B5204C41F6300392
:102FD0000546E0580E46174610F0F0F9B4F8363FB3
:102FE000B4F8341F184480B2A4F8360F95F8612263
:102FF0008842B35C1ED20133DBB213F0800F18BFDE
:103000002023B354B4F8360FA4F8340F41F68C43A0
:10301000E05810F075F960B195F86132013FBB429C
:1030200007D013B93278202A0ED0013385F86132E7
:103030000020F8BDE8D9013BDBB21F2B98BF7F23EE
:10304000B354B4F8360FDFE73370F8BD98ACFF1F08
:10305000F0B5DFF844E041F6340583B008465EF889
:103060000550BDF820601F46144616F069FC04EBBD
:103070004404A4002A68033400EB4003122100201A
:103080000190009104EB43031BB2146C39B2284643
:1030900032B2A04703B0F0BD98ACFF1F2DE9F04F4E
:1030A000DFF8BC8041F6340785B00E469B4658F8E1
:1030B0000700BDF83890012114460EF041FC0BF1D9
:1030C000020058F8075083B21A464FF0010A09F17E
:1030D00005034FF00001EA812B82A5F812A0A98216
:1030E0003046039216F02CFC2B6802465B68314692
:1030F00028469847284613F039FC58F80700022163
:103100000EF01EFC58F807504FF00001A98230461F
:10311000A5F812A016F014FC039A00EB400002EB95
:10312000400009EB0A03E8812B82304616F008FCC8
:1031300004EB4404A4002E68CDF804A000EB40008A
:1031400003341222009204EB40031BB20FFA89F2FF
:103150000FFA8BF12846F46CA04705B0BDE8F08F5C
:1031600098ACFF1F2DE9F04F87B01F46BDF84040D7
:1031700004942546BDF844400094A946884602932D
:1031800016462B463A46054605940391FFF760FF25
:103190004B463A46009441462846FFF77FFF41F6EA
:1031A0003403254A254F52F803B000245B46A1465C
:1031B000A3464FF001081C4617E095F861325345CD
:1031C000236804BFA4F81290A4F814801B6816F8B2
:1031D0000A10984795F861323C68534504BFA4F83B
:1031E0001280A4F814900BF1010B304616F0A8FBE6
:1031F0001FFA8BFA50452046DFD822681049A346B3
:1032000054680022A047584613F0B0FB029A31469A
:103210002846FFF7D9FE58B1059B00932846049B2A
:10322000029A0399FFF714FFFF2385F8613201200A
:1032300007B0BDE8F08F00BF98ACFF1FCCC4FF1FE4
:1032400044DF0100F0B5044690F8610287B0FF2822
:10325000BDF83050BDF834600AD08DE860002046DB
:10326000FFF780FF10B1FF2384F8613207B0F0BD93
:10327000002084F86102104605930491039216F031
:103280005FFB059B039A04999842E6D207DA104443
:1032900002EB030E202700F8017B7045FBD10020D4
:1032A000D054DAE7102B2DE9F84F05460C464FF0C5
:1032B000000E55D8724501F803E057DB9E4518DA39
:1032C000DFF8BCC0E718012692FBF6F18CFB010881
:1032D000C817C0EBA80000EB8000A1EB4001013B48
:1032E00006EB8606303173454FEA460607F8011DA6
:1032F000EADC214ADFF88C9041F634034FF00008F5
:10330000D758C3464FF0010A17E095F86132B3422F
:103310003B6804BFA7F812B0A7F814A01B68A15D12
:10332000984795F86132D9F80070B34204BFA7F806
:1033300012A0A7F814B008F10108204616F000FB0F
:103340001FFA88F6B0423846DFD83B680B495B6805
:103350003846002298473846BDE8F84F13F006BBC0
:10336000724581F810E04FF01003A9DA2D21524286
:1033700021704FF0010EA1E798ACFF1F44DF010060
:1033800067666666CCC4FF1F2DE9F04F89B005461D
:10339000BDF84C40BDF85060BDF8547000978B46A6
:1033A0009046994622463346FFF752FE3346009731
:1033B000224659462846FFF771FE169B0DF10C0A6E
:1033C0005BB350462246D8F80010984795F8613212
:1033D000FF2B16D08DE810044A464146129B284622
:1033E000FFF7A6FD50B133462846009722465946BE
:1033F000FFF72EFEFF2385F86132012009B0BDE8FA
:10340000F08F00224FF07E53019200934A464146CE
:10341000129B2846FFF746FDE4E751462346D8F8BD
:1034200000202846FFF73EFFD0E700BF30B51C4A1A
:1034300011784FF4D87303FB01F3D11889B091F8D8
:103440006A00800625D101F5B474B1F868110791BE
:1034500041F2E5731249D25C114DFF2A04BF0322E9
:10346000CA542D20002304214FF4FA6203900191E5
:1034700000920493029307AA0A490B48FFF784FFBE
:1034800018B141F2E573FF22EA54079B238009B08B
:1034900030BD1344B1F8681003F16804D7E700BFEA
:1034A00098ACFF1FD8E001001CC2FF1F2DE9F043BC
:1034B00041F214532B4C2C49E0582A4D89B015F099
:1034C0007FF915F043FB41F2E5730790E25CFF2AB8
:1034D00004BF0422E2542D2000230521234A039037
:1034E000019100920493029307AA21492148FFF712
:1034F0004BFF814648B341F2E573FF22EA54079837
:103500001D4F15F009F9184915F00EFA41F2145340
:10351000A7F1040801462C46E85005F5586601E07D
:10352000D8F800103D78D4F8000110F00FFD2846BF
:1035300015F0EEF804F5D87454F8B03CA6421861C2
:10354000EED1484609B0BDE8F083079815F0E4F8DD
:10355000054915F0E9F941F21453E850484609B01D
:10356000BDE8F08398ACFF1F0050C3473F420F00F7
:10357000E4E001001CC2FF1FB0C1FF1FF0B5144CF6
:10358000144A2378144989B04FF4D87505FB0343D6
:10359000049293F88C3108AA1B092D2642F8043DA9
:1035A00004F5AC500023039602270B2602938DE806
:1035B000C0000430FFF7E8FE2378079905FB0343BA
:1035C00093F88C2161F3071283F88C2109B0F0BDC8
:1035D00098ACFF1F59070000F0E001002DE9F0430F
:1035E0001C4C1D491D4889B041F2185608AAA35D1C
:1035F00042F8043D2D250023039504274FF48075E0
:103600008DE8A00004930293FFF7BEFE9DF81C50C6
:10361000A555814618B9484609B0BDE8F083104F5A
:1036200004F5586607F1040801E098F80050D4F852
:103630000001396810F08AFC284615F069F804F595
:10364000D87454F8B03CB4421861EED1484609B081
:10365000BDE8F08398ACFF1FFCE001001CC2FF1F17
:10366000ACC1FF1F70B52E4D6B78022B88B030D0E7
:10367000032B27D0012B02D000235B78FFDE2B78B1
:103680004FF4D87202FB035303F5AE7308AA5B78BC
:1036900042F8043D00242D2603207F212346039673
:1036A00001900091049402941E491F481C4EFFF79C
:1036B0006BFE6B78022B28D0032B1CD0012B0FD074
:1036C0006470FFDE2B784FF4D87202FB0353DC33B7
:1036D000DCE72B784FF4D87202FB03535C33D5E759
:1036E00033784FF4D87202FB036303F5AE73079A85
:1036F0005A7008B070BD32784FF4D87303FB026380
:10370000DC33079A5A7008B070BD32784FF4D87322
:1037100003FB02635C33079A5A7008B070BD00BFA8
:1037200098ACFF1F04E101001CC2FF1F70B52E4DB5
:103730006B78022B88B030D0032B27D0012B02D01E
:1037400000231B78FFDE2B784FF4D87202FB035363
:1037500003F5AE7308AA1B7842F8043D00242D201F
:1037600003211023039001910093049401230294F8
:103770001E491F481C4EFFF707FE6B78022B28D00E
:10378000032B1CD0012B0FD02470FFDE2B784FF4BD
:10379000D87202FB0353DC33DCE72B784FF4D8728A
:1037A00002FB03535C33D5E733784FF4D87202FB46
:1037B000036303F5AE73079A1A7008B070BD3278D0
:1037C0004FF4D87303FB0263DC33079A1A7008B016
:1037D00070BD32784FF4D87303FB02635C33079AF1
:1037E0001A7008B070BD00BF98ACFF1F10E1010057
:1037F0001CC2FF1F2DE9F041314C6378022B88B0C9
:1038000036D0032B2DD0012B02D000235B68FFDEC6
:1038100023784FF4D87202FB034303F5AE73586864
:10382000274F15F093F908AA002642F8040D03214A
:103830002D20FF230390019100930496012302960B
:1038400020492148FFF7A0FD6378022B80462FD046
:10385000032B26D0012B12D0079814F05DFF706067
:10386000FFDE23784FF4D87202FB0343DC33D6E744
:1038700023784FF4D87202FB03435C33CFE73B78E5
:103880004FF4D87505FB037505F5AE75079814F070
:1038900043FF41F20C536860E050404608B0BDE879
:1038A000F0813B784FF4D87505FB0375DC35EDE707
:1038B0003B784FF4D87505FB03755C35E6E700BF30
:1038C00098ACFF1F20E101001CC2FF1F70B52E4CF9
:1038D0006378022B88B032D0032B29D0012B02D081
:1038E00000231B7AFFDE23784FF4D87202FB0343D8
:1038F00003F5AE7308AA93F9083042F8043D002599
:103900002D200421782303900191009304956FF0FA
:10391000770302951D491E481B4EFFF735FD63785E
:10392000022B29D0032B20D0012B0FD02D72FFDECC
:1039300023784FF4D87202FB0343DC33DAE72378B1
:103940004FF4D87202FB03435C33D3E733784FF470
:10395000D87202FB036303F5AE739DF91C201A7243
:1039600041F21051625408B070BD32784FF4D873F0
:1039700003FB0263DC33F0E732784FF4D87303FBC8
:1039800002635C33E9E700BF98ACFF1F2CE1010044
:103990001CC2FF1F70B5314D6B78022B88B033D03D
:1039A000032B2AD0012B03D0002393F82030FFDE15
:1039B0002B784FF4D87202FB035303F5AE7308AAB9
:1039C00093F8203042F8043D00242D2603207F2167
:1039D00023460396019000910494029420492148C3
:1039E0001E4EFFF7D1FC6B78022B2BD0032B1ED081
:1039F000012B10D084F82040FFDE2B784FF4D872D2
:103A000002FB0353DC33DAE72B784FF4D87202FB66
:103A100003535C33D3E733784FF4D87202FB03636C
:103A200003F5AE73079A83F8202008B070BD327892
:103A30004FF4D87303FB0263DC33079A83F820202A
:103A400008B070BD32784FF4D87303FB02635C3367
:103A5000079A83F8202008B070BD00BF98ACFF1F04
:103A60003CE101001CC2FF1F70B5314D6B78022B89
:103A700088B033D0032B2AD0012B03D0002393F836
:103A80002130FFDE2B784FF4D87202FB035303F58D
:103A9000AE7308AA93F8213042F8043D00242D2685
:103AA00003207F2123460396019000910494029401
:103AB000204921481E4EFFF767FC6B78022B2BD064
:103AC000032B1ED0012B10D084F82140FFDE2B7871
:103AD0004FF4D87202FB0353DC33DAE72B784FF450
:103AE000D87202FB03535C33D3E733784FF4D872B8
:103AF00002FB036303F5AE73079A83F8212008B035
:103B000070BD32784FF4D87303FB0263DC33079A3D
:103B100083F8212008B070BD32784FF4D87303FBCE
:103B200002635C33079A83F8212008B070BD00BFA0
:103B300098ACFF1F48E101001CC2FF1F30B5484C84
:103B40006378022B89B048D0032B3CD0012B03D0E3
:103B5000002393F82030FFDE23784FF4D87202FB65
:103B6000034303F5AE7393F82020D20141F2E571CF
:103B700093F82130605C3A4D1344FF28079304BF4B
:103B800004236B542D200023052143F6FF7203907C
:103B9000019100920493029307AA32493248304DB2
:103BA000FFF7F2FB18B141F2E573FF22EA546378A4
:103BB0002B4C022B3FD0032B2FD0012B17D00023EF
:103BC00083F82030FFDE23784FF4D87202FB0343E2
:103BD000DC3393F82020D201C8E723784FF4D87261
:103BE00002FB03435C3393F82020D201BEE7237825
:103BF00007994FF4D87202FB0342002902F5AE7216
:103C00000B4615DBDB1182F82030184B0B40002BE4
:103C10001DDB82F8213009B030BD237807994FF4BD
:103C2000D87202FB0342002902F1DC020B46E9DAFA
:103C300001F17F03E6E7237807994FF4D87202FB7E
:103C40000342002902F15C020B46DBDAF0E7013B9C
:103C500063F07F03013382F8213009B030BD00BF2B
:103C600098ACFF1F54E101001CC2FF1F7F000080C1
:103C700070B52E4D6B78022B88B030D0032B27D037
:103C8000012B02D000239B78FFDE2B784FF4D872F3
:103C900002FB035303F5AE7308AA9B7842F8043D78
:103CA00000242D26032077212346039601900091BE
:103CB000049402941E491F481C4EFFF765FB6B7865
:103CC000022B28D0032B1CD0012B0FD0A470FFDEB9
:103CD0002B784FF4D87202FB0353DC33DCE72B78EC
:103CE0004FF4D87202FB03535C33D5E733784FF4BB
:103CF000D87202FB036303F5AE73079A9A7008B09B
:103D000070BD32784FF4D87303FB0263DC33079A3B
:103D10009A7008B070BD32784FF4D87303FB026319
:103D20005C33079A9A7008B070BD00BF98ACFF1F53
:103D30005CE101001CC2FF1F70B52E4D6B78022B99
:103D400088B030D0032B27D0012B02D00023DB78A2
:103D5000FFDE2B784FF4D87202FB035303F5AE73EA
:103D600008AADB7842F8043D00242D2603207F2199
:103D70002346039601900091049402941E491F4823
:103D80001C4EFFF701FB6B78022B28D0032B1CD0B5
:103D9000012B0FD0E470FFDE2B784FF4D87202FBBA
:103DA0000353DC33DCE72B784FF4D87202FB035368
:103DB0005C33D5E733784FF4D87202FB036303F525
:103DC000AE73079ADA7008B070BD32784FF4D873CA
:103DD00003FB0263DC33079ADA7008B070BD3278F7
:103DE0004FF4D87303FB02635C33079ADA7008B0B0
:103DF00070BD00BF98ACFF1F64E101001CC2FF1F33
:103E000070B5214C6378022B28D0032B1FD0012BD7
:103E10000FD0002041F2DC751521FEF70FFB635D2A
:103E2000194E73B901237355FFF71CFCE8B9002044
:103E300070BD23784FF4D87000FB034000F5AE70DE
:103E4000E8E7012BF0D0022B16D0012070BD2378BB
:103E50004FF4D87000FB0340DC30DBE723784FF4ED
:103E6000D87000FB03405C30D4E741F2DC720020E4
:103E7000A35C0133A35470BDFFF75EFF0028D6D0CA
:103E80000023735570BD00BF98ACFF1F2DE9F041B2
:103E9000314C6378022B88B036D0032B2DD0012B08
:103EA00002D000235B68FFDE23784FF4D87202FB58
:103EB000034303F5AE735868274F14F047FE08AA72
:103EC000002642F8040D03212D20FF2303900191C9
:103ED000009304960123029620492148FFF754FAE3
:103EE0006378022B80462FD0032B26D0012B12D0D3
:103EF000079814F011FC7060FFDE23784FF4D8723D
:103F000002FB0343DC33D6E723784FF4D87202FB7D
:103F100003435C33CFE73B784FF4D87505FB03755B
:103F200005F5AE75079814F0F7FB41F20C53686085
:103F3000E050404608B0BDE8F0813B784FF4D875BA
:103F400005FB0375DC35EDE73B784FF4D87505FBD1
:103F500003755C35E6E700BF98ACFF1F20E1010068
:103F60001CC2FF1F70B52E4C6378022B88B032D074
:103F7000032B29D0012B02D000231B7AFFDE2378EC
:103F80004FF4D87202FB034303F5AE7308AA93F90A
:103F9000083042F8043D00252D20042178230390A9
:103FA0000191009304956FF0770302951D491E4817
:103FB0001B4EFFF7E9F96378022B29D0032B20D0A1
:103FC000012B0FD02D72FFDE23784FF4D87202FB45
:103FD0000343DC33DAE723784FF4D87202FB034360
:103FE0005C33D3E733784FF4D87202FB036303F5F5
:103FF000AE739DF91C201A7241F21051625408B040
:1040000070BD32784FF4D87303FB0263DC33F0E702
:1040100032784FF4D87303FB02635C33E9E700BFE7
:1040200098ACFF1F2CE101001CC2FF1F70B5374C7C
:10403000637888B000227F21022BADF81820ADF8FC
:104040001A1039D0032B2DD0012B01D0938BFFDE1A
:1040500023784FF4D87000FB034000F5AE70B0F940
:104060001C3007930DF11A0206A9FEF76FF9BDF98E
:104070001A20009200252D210522BDF91830039148
:1040800001920495029507AA214922481F4EFFF785
:104090007BF96378022B2ED0032B22D0012B15D075
:1040A000AD83FFDE23784FF4D87000FB0340DC3093
:1040B000B0F91C300793D5E723784FF4D87000FB94
:1040C00003405C30B0F91C300793CBE733784FF4F2
:1040D000D87202FB036303F5AE73079A9A8308B0A4
:1040E00070BD32784FF4D87303FB0263DC33079A58
:1040F0009A8308B070BD32784FF4D87303FB026323
:104100005C33079A9A8308B070BD00BF98ACFF1F5C
:1041100070E101001CC2FF1F70B5374C637888B096
:1041200000227F21022BADF81820ADF81A1039D0EB
:10413000032B2DD0012B01D0D38BFFDE23784FF43E
:10414000D87000FB034000F5AE70B0F91E30079345
:104150000DF11A0206A9FEF7F9F8BDF91A2000922E
:1041600000252D210522BDF91830039101920495F7
:10417000029507AA214922481F4EFFF705F96378E7
:10418000022B2ED0032B22D0012B15D0ED83FFDE86
:1041900023784FF4D87000FB0340DC30B0F91E30B8
:1041A0000793D5E723784FF4D87000FB03405C30C9
:1041B000B0F91E300793CBE733784FF4D87202FB87
:1041C000036303F5AE73079ADA8308B070BD3278E3
:1041D0004FF4D87303FB0263DC33079ADA8308B029
:1041E00070BD32784FF4D87303FB02635C33079AD7
:1041F000DA8308B070BD00BF98ACFF1F7CE10100FE
:104200001CC2FF1F38B50A4D2C783CB1012C08D1D7
:10421000FFF782FF28B100232B7038BDFFF706FFA0
:1042200008B9002038BD01232B70204638BD00BFDF
:1042300090C9FF1FF0B52C4D6B78022B89B032D09E
:10424000032B29D0012B02D000235B69FFDE2B78E2
:104250004FF4D87404FB035404F5AE7408AA6369E0
:1042600042F8043D00262D20062144F2020303906B
:1042700001910093049602961C4B1D491D48A469A8
:10428000194FFFF781F86B78022B26D0032B1DD036
:10429000012B0FD07661FFDE2B784FF4D87404FB2E
:1042A0000354DC34DAE72B784FF4D87404FB03545E
:1042B0005C34D3E73B784FF4D87202FB037303F509
:1042C000AE73079A9C615A6109B0F0BD3A784FF419
:1042D000D87303FB0273DC33F3E73A784FF4D873F7
:1042E00003FB02735C33ECE798ACFF1FFDBFFFFFDD
:1042F00088E101001CC2FF1FF0B52E4D6B78022B28
:1043000089B034D0032B2BD0012B02D000235B6962
:10431000FFDE2B784FF4D87202FB035303F5AE7324
:104320005C699E692449254B254808AA26442D2707
:1043300042F8046D4FF0060E0026039744F2020780
:10434000049602968DE88040FFF71EF86A781949B6
:10435000022A27D0032A1ED0012A0FD07661FFDE61
:104360002B784FF4D87202FB0353DC33D8E72B7859
:104370004FF4D87202FB03535C33D1E70A784FF451
:10438000D87303FB021303F5AE73079A5C61141B29
:104390009C6109B0F0BD0A784FF4D87303FB021397
:1043A000DC33F2E70A784FF4D87303FB02135C3373
:1043B000EBE700BF98ACFF1F90E10100FDBFFFFFDE
:1043C0001CC2FF1F38B50A4D2C783CB1012C08D116
:1043D000FFF792FF28B100232B7038BDFFF72AFFAB
:1043E00008B9002038BD01232B70204638BD00BF1E
:1043F00090C9FF1FF0B5374C637889B000227F2148
:10440000022BADF81820ADF81A103DD0032B2FD099
:10441000012B01D0138AFFDE23784FF4D87000FB04
:10442000034000F5AE70B0F91030B0F912500793A8
:104430000DF11A0206A9FDF789FFBDF91A200092B5
:1044400000262D210522BDF9183003910192049612
:10445000029607AA204921481E4FFEF795FF637870
:10446000022B30D0032B27D0012B19D03682FFDE50
:1044700023784FF4D87000FB0340DC30B0F91030E3
:10448000B0F912500793D3E723784FF4D87000FBAC
:1044900003405C30B0F910300793B0F91250C7E711
:1044A0003B784FF4D87202FB037303F5AE73079A9F
:1044B0005D821A8209B0F0BD3A784FF4D87303FBDD
:1044C0000273DC33F3E73A784FF4D87303FB0273DB
:1044D0005C33ECE798ACFF1F98E101001CC2FF1FA2
:1044E000F0B5394C637889B000227F21022BADF8FA
:1044F0001820ADF81A103FD0032B30D0012B01D07B
:10450000138AFFDE23784FF4D87000FB034000F5D8
:10451000AE70B0F91050B0F912302B4407930DF182
:104520001A0206A9FDF712FFBDF91A200092002613
:104530002D210522BDF918300391019204960296AF
:1045400007AA22492248204FFEF71EFF6378022B5C
:1045500033D0032B2AD0012B1BD03682FFDE2378E9
:104560004FF4D87000FB0340DC30B0F91050B0F9C4
:1045700012302B440793D2E723784FF4D87000FB16
:1045800003405C30B0F91050B0F912302B4407935F
:10459000C5E73B784FF4D87202FB037303F5AE73A3
:1045A000079A1D82551B5D8209B0F0BD3A784FF421
:1045B000D87303FB0273DC33F2E73A784FF4D87315
:1045C00003FB02735C33EBE798ACFF1FA4E101002F
:1045D0001CC2FF1F38B50A4D2C783CB1012C08D104
:1045E000FFF77EFF28B100232B7038BDFFF702FFD5
:1045F00008B9002038BD01232B70204638BD00BF0C
:1046000090C9FF1F2DE9F04F88469BB0D0F8641287
:104610000790BDF890A09DF894500B92994629B947
:104620007A4B1B680D930D9BC0F86432002D00F08F
:10463000C780774B2E1F83FB0623A3EBE67602365B
:10464000F600B3B2CAF13F069E424046A8BF1E46DE
:1046500015F076F900EB400047000437BFB241F691
:1046600034046C4B1859AF4233B228BF2F464FF079
:10467000000B1A460FFA8AF50A93036806950FFA9B
:1046800089F10092CDF804B03AB21D6C099213463C
:104690000891069AA8475F4B012118590DF050F96F
:1046A0005C4A5B4B1459033F83FB07230AF1040A5E
:1046B000B6B2A3EBE7771FFA8AF30493F31F5D46C4
:1046C00009F10209012205931AABA4F814B00FFAFC
:1046D00089F9628203EB070B2E46AA4609E0059B87
:1046E000B3EBC20F2BDD56B3B5F5807F27D04A4B15
:1046F0001C68049BA4F80E9003EBC50308EB0601AD
:1047000023823A460FA815F089F90FA80BF82CACB4
:1047100015F016F9236802465B680FA920469847F2
:10472000204612F023F9404615F00AF9C01BF31990
:10473000864205F102029EB205F10105CFD9354B43
:104740000A9941F63404012218591E4603688DE87F
:104750000600069ADD6C0899099BA847079B93F809
:104760002E31002B3DD141F634032A4AD0580DF0AA
:1047700053FF41F68C43274AD0580EF0C1FD50B983
:10478000224A079B1268D3F864320E920B990E9A54
:1047900019448A4211D941F634021E49099B8858AE
:1047A0000A9A0568009200240194069A08992D6CD3
:1047B000A847079B0120C3F864421BB0BDE8F08FF7
:1047C000404615F0BDF800EB40004700CAF13F0637
:1047D0003B1DC9F17F05102E9FB2A8BF1026EDB278
:1047E0003DE73059079E96F83C41D6F83431B6F98A
:1047F0003221B6F93011B6F93A510294B6F938417E
:104800008DE830000CF068FEADE700BF3CE6FF1F0E
:10481000ABAAAA2A98ACFF1FCCC4FF1F2DE9F04712
:104820000E4601789DF8208008290446914657D00D
:10483000424AD0F8FC0041F2EC4E41F2E84741F226
:10484000F44141F2F04CD75951581D4652F80E3000
:10485000236752F80C30E766C4F8F010012741F2E4
:104860001851C4F8EC3084F8D57041F2145312F8A2
:1048700001A0D1580FF06AFB504613F049FFD4F85D
:10488000FC20242310610021184684F881602372E3
:1048900010F0A4FA0026252084F8880084F80191FD
:1048A000A683314610F09AFAA4F89C6084F822613D
:1048B00084F8085128460DB9BDE8F087022110F0B0
:1048C0008DFA84F86881B8F1000F02D13846BDE84E
:1048D000F0874046394610F081FA3846BDE8F08747
:1048E000164B41F2F84003F5A85241F2045541F24B
:1048F000FC411858126859585B59E066122021672C
:10490000C4F8EC20C4F8F030207284F881600021F3
:1049100010F064FA00251A2084F8880084F80191C8
:10492000A583294610F05AFA84F80851A4F89C503F
:1049300084F822512846BDE8F08700BF98ACFF1FDD
:104940002DE9F84304468846164610F04DFA636A8E
:10495000E06213B9236B002B44D072B6DFF8AC9041
:10496000254FD9F800103B682448E56A226BCB1A22
:1049700080FB0310D917C1EBA000062184F8381082
:104980001F49C5EB030EAA1A0B60636BA262851860
:104990001C4AE06B7344A9B213600FF0C7FAE26BD4
:1049A000A36AD26A002E62F30F0528461FDDB040CD
:1049B000B340D9F800103A680B440244C9F80030FB
:1049C0003A6013F0A5FE414613F0AEFF0E4913F016
:1049D000ABFF14F0E1F8E36A6062236362B6012082
:1049E000BDE8F883606320631846BDE8F883E0D033
:1049F0007642F040F340DCE79CC9FF1F67666666BD
:104A000080ACFF1F08E5FF1F0000C04034C9FF1F36
:104A100010B50446212094F87D1001F0010110F03A
:104A2000C9F994F87D101820C1F3400110F0C2F9C3
:104A300094F87D102020C1F38001BDE8104010F0F3
:104A4000B9B900BF30B5104B83B00C469C424FF053
:104A500000014FF07F02054608BFB0F91A40ADF8DB
:104A60000410ADF8062054300DF1060201A9FDF73F
:104A70006DFCB5F97000844204DBB5F97200A04208
:104A8000A8BF204603B030BDF1D8FFFF38B590F87D
:104A90008431032B35D8DFE803F0021104021A48F1
:104AA00038BD90F8E63003F03F03072BB0F91E3015
:104AB0001CD0B0F99E1003FB01F104E0B0F91E1008
:104AC000B0F99E30194490F866301A4604466FF3E8
:104AD000871280F8662004309D09FFF7B3FF94F831
:104AE000663065F3871384F8663038BDB0F99E20D0
:104AF000064903FB02F381FB0321DB17C3EB6111C2
:104B0000E1E70149DFE700BFF1D8FFFF1F85EB5167
:104B1000012A49DD10B490F8623003F03F031E2BE8
:104B200044D8DFE803F016191E16161616162316BB
:104B300016161616101016161616162F2F373716AD
:104B40001E3C3C3C3C000B7880F875304B7880F87C
:104B50007430104610BC70470B88A0F876301046B1
:104B6000F8E70B7880F855301046F3E7104B41F228
:104B70000C5441F210511C5984655B5680F85C302E
:104B80001046E7E70B7880F855304B7880F85730BF
:104B90001046DFE70B7880F856301046DAE70B78DE
:104BA00080F863301046D5E7002070470020D1E739
:104BB00098ACFF1F2DE9F84390F85150574E584CD0
:104BC000002D08BF3446154614BF0A270D277D293E
:104BD00000F2A280DFE801F046A0A0A0A0A0A0A063
:104BE000A0A0A0A0A0A0A0A0A0A0A0A0A0A0A0A0C5
:104BF000A0A0A0A0A0A0A0A0A0A0A0A0A0A0A0A0B5
:104C0000A0A0A0A0A0A0A0A0A0A0A0A0A0A0A0A0A4
:104C1000A0A0A0A0A0A0A0A0A0A0A0A0A0A0A0A094
:104C2000A0A0A0A0A0A0A0A0A0A0A0A0A0A0A0A084
:104C3000A0A0A0A0A0A0A0A0A0A0A0A0A0A0A0A074
:104C4000A0A0A0A0A0A0A0A0A05D6C6267717A80C7
:104C5000868A8E949A3F2A7880F862201D462846DC
:104C6000BDE8F88307EB4707033FDFF8B890A84695
:104C7000064627442379617919F803302A463046DD
:104C8000FFF798FF0334A7420544F3D1C8EB0505AD
:104C9000E5E72A7880F854201D46E0E72A7880F876
:104CA0005F201D46DBE72A88A0F860201D46D6E776
:104CB0002A7880F85E201D46D1E7297890F8622096
:104CC00061F305021D4680F86220C8E7B5F90020AF
:104CD000A0F864201D46C2E7B5F90020A0F86620C0
:104CE0001D46BCE72A6882661D46B8E72A68C26688
:104CF0001D46B4E7B5F90020A0F870201D46AEE7C8
:104D0000B5F90020A0F872201D46A8E71A462946EA
:104D1000BDE8F843FFF7FCBE0025A0E70CD9010071
:104D2000C0D80100ACD8010010B58AB004462422D6
:104D300001A80FF0E5FD01AA204624230021FFF77A
:104D400039FF94F85130002B14BF0E2018200AB000
:104D500010BD00BF012A42DD00B590F8623003F0BB
:104D60003F031E2B3DD8DFE803F0161F251616164D
:104D70001616161616161616101016161616162BCA
:104D80002B34341625191919190090F875300B7049
:104D900090F874304B7010465DF804FB90F8633067
:104DA0000B7010465DF804FBB0F876300B801046AF
:104DB0005DF804FB90F855300B7010465DF804FB6D
:104DC00090F855300B7090F857304B7010465DF8E6
:104DD00004FB90F856300B7010465DF804FB002081
:104DE000704700205DF804FB2DE9F84390F851501E
:104DF000604E614C002D90460ABF34460A270D27AD
:104E00007D2900F2B380DFE801F046B1B1B1B1B164
:104E1000B1B1B1B1B1B1B1B1B1B1B1B1B1B1B1B182
:104E2000B1B1B1B1B1B1B1B1B1B1B1B1B1B1B1B172
:104E3000B1B1B1B1B1B1B1B1B1B1B1B1B1B1B1B162
:104E4000B1B1B1B1B1B1B1B1B1B1B1B1B1B1B1B152
:104E5000B1B1B1B1B1B1B1B1B1B1B1B1B1B1B1B142
:104E6000B1B1B1B1B1B1B1B1B1B1B1B1B1B1B1B132
:104E7000B1B1B1B1B1B1B1B1B1B1B15E73656C7A7B
:104E8000838A91979DA4AB3F90F8622088F8002018
:104E90001846BDE8F88307EB4707033FDFF8DC90CF
:104EA0000646274445462379617919F803302A4696
:104EB0003046FFF799FF0334BC420544F3D1C8EBF9
:104EC0000500BDE8F88390F8542088F800201846C3
:104ED000BDE8F88390F85F2088F800201846BDE808
:104EE000F883B0F86020A8F800201846BDE8F883E1
:104EF00090F85E2088F800201846BDE8F88390F806
:104F00006220C2F3050288F800201846BDE8F88345
:104F1000B0F96420A8F800201846BDE8F883B0F97D
:104F20006620A8F800201846BDE8F883826EC8F80D
:104F300000201846BDE8F883C26EC8F80020184665
:104F4000BDE8F883B0F97020A8F800201846BDE845
:104F5000F883B0F97220A8F800201846BDE8F8835D
:104F60001A464146BDE8F843FFF7F4BE0020BDE80D
:104F7000F88300BF0CD90100C0D80100ACD80100F3
:104F800030B58BB00D4601AA242300210446FFF75B
:104F90002BFF2946024601A80FF0FCFC94F8513083
:104FA000002B14BF0E2018200BB030BD80292DE936
:104FB000F8434ED014D982293FD02FD3832939D139
:104FC000012B37DD90F862100F2933D8DFE801F0AC
:104FD000606057574A47474747474747474747470C
:104FE0007E2930D020D829BB2C4DDFF8B890174649
:104FF000064605F11208144601237E2103E02B79B1
:10500000697919F8033022463046FFF7CFFF0335A0
:1050100045450444F3D1E01BBDE8F8831288A0F8AD
:1050200060201846BDE8F883127880F85E201846A4
:10503000BDE8F8830020BDE8F883127880F862208C
:105040001846BDE8F883127880F854201846BDE869
:10505000F883127880F85F201846BDE8F883184678
:10506000BDE8F8830E4A41F20C5441F21051145934
:105070008465525680F85C201846BDE8F8831178A4
:1050800080F85510527880F857201846BDE8F8830C
:10509000127880F856201846BDE8F883F4DC010049
:1050A00098ACFF1FACD8010010B584B004461022A4
:1050B00068460FF025FC6A46204610230021FFF7C2
:1050C00075FF082004B010BD70B5054608460C46B3
:1050D0000FF0FCFB85F88401601C0FF0F7FB85F8EE
:1050E0008801A01C0FF0F2FB05F5C476014630469E
:1050F0000BF00CFBE01C0FF0E9FB043401463046DA
:105100000BF008FB214605F58270FFF7CDFF044444
:105110002146281DFFF708FE211805F18400FFF73E
:1051200003FE322070BD00BF012A20DD10B490F8CC
:1051300062400F2C0DD80123A3404FF6F0741C40A1
:1051400054B913F00C0F0AD113F0030311D1184610
:1051500000E0002010BC7047104610BC704790F86B
:1051600055300B7090F857304B701046F2E7002026
:10517000704790F856300B701046EBE780292DE908
:10518000F843144644D00AD9822932D025D3832942
:1051900035D11A462146BDE8F843FFF7C5BF7E2941
:1051A00030D020D859BB1D4DDFF874900646174605
:1051B00005F11208144601237E2103E02B79697959
:1051C00019F8033022463046FFF7D8FF033545452E
:1051D0000444F3D1E01BBDE8F883B0F860202280DE
:1051E0001846BDE8F88390F85E2022701846BDE8A6
:1051F000F88390F8622022701846BDE8F8830020FA
:10520000BDE8F88390F8542022701846BDE8F88372
:1052100090F85F2022701846BDE8F883F4DC0100A6
:10522000ACD8010010B584B00C466A4610230021AA
:10523000FFF7A4FF2146024668460FF0ABFB0820AB
:1052400004B010BDF0B583B002AE90F8843106F81A
:10525000013D04460F46304601220FF09BFB94F8B7
:1052600088318DF807303046791C01220FF092FB0F
:1052700094F88A318DF807303046B91C01220FF0BE
:1052800089FB3D1D94F88B318DF8073001223046A3
:10529000F91C0FF07FFB294604F58270FFF7C2FF6F
:1052A00005442946201DFFF76BFE0544294604F1FD
:1052B0008400FFF765FE2378082B06BF2D18E81B36
:1052C000322003B0F0BD00BF70B5FA2982B00C46A1
:1052D00005463BD3FB2924D9FC2937D1002380F88C
:1052E0002030142220492148214E14F097FB214BF5
:1052F0001B68019341F2C87241F2C4730199B15025
:1053000042F21072F250200240F00F0010F052FDF5
:10531000AB6A5B6D1868036821461B68984702B04A
:1053200070BD012380F82030142213490F48104E1D
:1053300014F074FB0F4B1B68009341F2C87241F2EA
:10534000C4730099B15042F21072F25004F1080394
:10535000DBB2072BE3D8012202FA03F313F0DD0FCF
:10536000D1D102B070BD00BFBCE101005CC3FF1F22
:1053700098ACFF1F3CE6FF1FB0E1010038B50446C2
:105380000FF032FD636B626AC31A9A42054616D368
:10539000A36A226B03EB4303AD1AAB420ED20C4D52
:1053A0000C480D490D4A00232B606362236363633D
:1053B000A36284F8383003600B60136038BDF821B5
:1053C0000748FFF781FF626B636A13446363DFE79B
:1053D00008E5FF1F80ACFF1F34C9FF1F9CC9FF1FDA
:1053E00084C4FF1F70B50379002B41D090F8623060
:1053F0000D2B04463CD0042B0D4652D0E36C002B01
:1054000039D120790FF0DCFC94F840300546002BB0
:1054100051D094F841309D4202D00FF0E5FC606419
:105420000FF0E2FC636CA26CC01A2B1C18BF0123A6
:1054300084F8413090428CBF28460220022817D0C1
:10544000238B984214D02083002840D194F86230F6
:1054500003F0FD03012B42D00126B4F860500FF099
:10546000C3FC4FF47A7303FB050084F85060E064DA
:105470000025284670BD0FF0B7FCE36C9842C0D9F8
:10548000002394F85010E364A177296094F8640035
:105490000FF090FC94F86230042B0ED001252846C2
:1054A00070BD436A002BA9D090F83830002BA5D0EE
:1054B000FFF764FFA2E72846C0E7A57F002DEDD0E7
:1054C00094F95C20A16D2046FFF73AFAD1E794F8F1
:1054D000623003F0FD03012BCAD00026BDE7A67F92
:1054E00086F00106B9E700BFF0B52F4E7378022BA6
:1054F00089B035D0032B2CD0012B02D00023DB7BCD
:10550000FFDE33784FF4D87202FB036303F5AE730A
:10551000DB7B26492648244D08AAC3F383030133C5
:105520002D2742F8043D0024012303970827019307
:10553000049402940097FDF727FF7378022B2CD078
:10554000032B23D0012B12D0E37B64F38503E37399
:10555000FFDE33784FF4D87202FB0363DC33D7E706
:1055600033784FF4D87202FB03635C33D0E72B78B7
:105570004FF4D87202FB035303F5AE73079AD97B3D
:10558000013A62F38501D97309B0F0BD2A784FF46E
:10559000D87303FB0253DC33F0E72A784FF4D87357
:1055A00003FB02535C33E9E798ACFF1F54DF0100B3
:1055B0001CC2FF1F2DE9F84F8A46002961D0404BDD
:1055C000DFF820813F4AC8F8102093E80300002349
:1055D0000A0CC8F80000A8F8041088F8062088F81B
:1055E00014300127384DC82405F1690B07E0BAF1E2
:1055F000000F36D107350134AB45E4B220D02B780B
:10560000002BF4D07E0006EB070908EBC9094846D9
:105610000622294614F002FABAF1000F2BD12B4BC7
:10562000C9F810303E4408EBC606073500230137A1
:105630003475AB4504F10104FFB2B371E4B2DED1BD
:10564000234B244C93E8070007EB470308EBC30800
:10565000A8E803000023A8F8002063713846BDE8DD
:10566000F88F1D4A7E0092E80300F31908EBC3028D
:1056700048F833009180F31908EBC303174A1A6105
:10568000D0E7DFF860800E4A88F8141092E8030033
:10569000134BC8F800000E0CA8F8041093E807009C
:1056A00008F1180303C3094D064CC8F8285088F8C0
:1056B000066088F82CA0C8F810401A80022791E7ED
:1056C000D8E10100595A0000B1C1FF1F715B000011
:1056D000CCE10100ACDCFF1FC4E10100A95A0000CD
:1056E000E0E1010048D3FF1F2DE9F84F0021FFF74B
:1056F00061FFDFF870B0DFF86090DFF86C80824601
:1057000005460126002705EB450409EBC4042046A5
:1057100026755946C4F810800622013614F07EF929
:105720000135302EA771EDB20BF1070B0A4B4FF08C
:105730000004E8D1094A0A4D07CA0AF12F0A5FFAA4
:105740008AFA0AEB4A0603EBC60303C31A806C719C
:105750005046BDE8F88F00BF48D3FF1FECE10100C1
:10576000ACDCFF1F13DD0100715B0000324B2DE943
:10577000F04799424FF00004824644614DD02F4BD0
:1057800099420E4650D0A046DFF8B89000E00134B0
:1057900030460BF071F984422146304618DA0BF09E
:1057A00053F9037D002BF2D0214630460BF04CF923
:1057B00007460FCF08EB480509EBC5050FC597E86D
:1057C000030008F1010885E803005FFA88F8DEE7C6
:1057D00030460BF051F9014630460BF035F90546DD
:1057E0000FCD08EB480409EBC4040FC495E803008F
:1057F00084E80300124B72795A71FF2201218AF862
:10580000632283F804808AF862125046C3F800903D
:105810000B49BDE8F0470BF0EBB9FFF765FFDFF888
:105820002490074B8046E8E70121FFF7C3FEDFF82D
:105830001490034B8046E0E720E2FF1FF8D0FF1FE3
:10584000ACDCFF1F48D3FF1F70B54F4C2378082BEB
:1058500082B069D0022262704FF4D87202FB034317
:1058600093F86A3003F03F03182B51D904214748BD
:105870000BF0A2F906214548434E0BF09DF9072194
:1058800042480BF099F9082140480BF095F909219D
:105890003E480BF091F90A213C480BF08DF90B21A1
:1058A0003A480BF089F90C2138480BF085F9237838
:1058B0004FF4D87505FB034393F86A1001F03F01DC
:1058C000082935D001F1320303F03F03012B3FD902
:1058D000012954D02E4D41F634032A68E05841F294
:1058E0009C51C2F140031BB20026615804688DE848
:1058F0004800C1F1800312B209B2246C1BB2A04768
:10590000A5F11C002149FFF731FF012002B070BD55
:105910000121204A99400A400AB9002BA6D104214E
:105920001A480BF02DF9A5E76278012A94D8ECE724
:1059300016480BF025F9337805FB036595F86A10D6
:1059400001F03F0101F1320303F03F03012BBFD807
:105950000C210E480BF014F90A210C480BF010F939
:1059600009210A480BF00CF923784FF4D87202FB96
:10597000034393F86A1001F03F010129AAD10B21DA
:1059800002480BF0FDF8A5E798ACFF1F44E3FF1FAA
:1059900038C2FF1F001FFE01024B02225A70FFF7A0
:1059A00053BF00BF98ACFF1F024B03225A70FFF792
:1059B0004BBF00BF98ACFF1F70B5114C04F5AD5242
:1059C00041F634031268E05841F29C51C2F14003A1
:1059D00082B01BB20026615805688DE84800C1F10D
:1059E000800312B21BB22D6C09B2A84704F5AC506B
:1059F00004300449FFF7BAFE012002B070BD00BFB9
:105A000098ACFF1F2CD1FF1F70B5114C04F5AD529F
:105A100041F634031268E05841F29C51C2F1400350
:105A200082B01BB20026615805688DE84800C1F1BC
:105A3000800312B21BB22D6C09B2A84704F5AC501A
:105A400004300449FFF792FE012002B070BD00BF90
:105A500098ACFF1F6CACFF1F70B5114C04F5AD5234
:105A600041F634031268E05841F29C51C2F1400300
:105A700082B01BB20026615805688DE84800C1F16C
:105A8000800312B21BB22D6C09B2A84704F5AC50CA
:105A900004300449FFF76AFE012002B070BD00BF68
:105AA00098ACFF1F20E5FF1F70B541F2DC732C4C52
:105AB000E55C82B0D5B12B4B1B782B492B48284D88
:105AC000C3EBC303E21802F5A8522D23002401936F
:105AD000193200940623FDF7B5FBC0B141F2DC7327
