:1000000000800020BD010000C9F3000081F3000062
:1000100081F3000081F3000081F3000081F3000010
:1000200081F3000081F3000081F30000C9F30000B8
:10003000C9F3000081F30000A5E90000A9EA00006F
:10004000C9F30000C9F30000C9F30000C9F30000C0
:10005000C9F30000C9F30000C9F30000C9F30000B0
:10006000C9F30000C9F30000C9F30000C9F30000A0
:10007000C9F30000C9F30000C9F30000C9F3000090
:10008000C9F30000C9F30000C9F30000C9F3000080
:10009000C9F30000C9F30000C9F30000C9F3000070
:1000A000F5C9000001CA0000C9F30000C9F300004F
:1000B000C9F30000C9F30000C9F30000C9F3000050
:1000C000C9F30000C9F30000C9F30000C9F3000040
:1000D000C9F30000C9F30000C9F30000C9F3000030
:1000E000C9F30000C9F30000C9F30000C9F3000020
:1000F000C9F300004DFF0000C9F30000A91601007C
:10010000C9F30000D5170100C9F30000C9F30000CE
:10011000C9F30000C9F30000C9F30000C9F30000EF
:10012000C9F30000C9F30000C9F30000C9F30000DF
:10013000C9F30000C9F30000C9F30000C9F30000CF
:10014000C9F30000C9F30000C9F30000C9F30000BF
:1001500081EC000095EC0000A9EC0000BDEC000073
:10016000C9F300002D020100C9F30000C9F300002B
:10017000C9F30000C9F30000C9F30000C9F300008F
:10018000C9F30000C9F30000C9F30000C9F300007F
:10019000C9F30000C9F30000C9F30000C9F300006F
:1001A000C9F30000C9F30000C9F30000C9F300005F
:1001B000C9F30000C9F30000C9F30000564B4CF22C
:1001C000205210B51A804DF628121A8000BF00BFC9
:1001D0000FF0FEF8514B4FF010621A60504A9A60CF
:1001E000504ADA60504A136813F4807304D14F49BF
:1001F0000B604FF4A85313604D4B1A78110703D5C9
:100200001A7842F008021A704A4B4B492A221A7097
:100210004A4A4B4B8B4204D252F8040F43F8040B6A
:10022000F8E7484B484900228B4202D243F8042B9E
:10023000FAE74649464A002352F8230041F82300D2
:1002400001336F2BF8D1434B434A802103F8011B44
:100250009342FBD1414B3D4A1A60414B8A221A70AE
:10026000A3F5805324225A70A0221A709A7992071B
:10027000FCD59A79D406FCD43A4A937903F00C035E
:10028000082B384BF9D103221A7140225A719A79FE
:100290009006FCD5334A9179324B4906FBD5324A58
:1002A000324911600221516020221A709A7902F0BD
:1002B0000C020C2AFAD12E4B2E4A1A602E4B2F4AD2
:1002C0001A6000225A60072243F8042C2C4AC3F813
:1002D0000C2D62B60FF0A0FA144B1B68DA0705D597
:1002E00028480FF0FDF9284B284A1A60284B1B7844
:1002F0005B0609D5244C254B22689A4204D121483B
:100300000FF0EEF90023236012F0AAFC0FF066F85C
:100310000EF094FFFEE700BF0E2005403080044041
:10032000823F04000100002B10D0034014D0034092
:1003300002D0074000E00740E8AFFF1FB083010094
:10034000308CFF1FE8AFFF1F0CD8FF1F0082FF1F7C
:100350000000000000E400E05FE400E008ED00E0E1
:100360000050064000400640448004400000030165
:1003700004800440C010050014E000E0FF76010096
:100380000000202059E2A55D1CE00340A5C3945A5B
:1003900000F00740FFFFFFFFFFFFFFFFFFFFFFFF32
:1003A000FFFFFFFFFFFFFFFFFFFFFFFFFFFFFFFF5D
:1003B000FFFFFFFFFFFFFFFFFFFFFFFFFFFFFFFF4D
:1003C000FFFFFFFFFFFFFFFFFFFFFFFFFFFFFFFF3D
:1003D000FFFFFFFFFFFFFFFFFFFFFFFFFFFFFFFF2D
:1003E000FFFFFFFFFFFFFFFFFFFFFFFFFFFFFFFF1D
:1003F000FFFFFFFFFFFFFFFFFFFFFFFFFFFFFFFF0D
:10040000FFFFFFFFFFFFFFFFFFFFFFFFDEF9FFFF23
:1004100010B5054C237833B9044B13B10448AFF33E
:1004200000800123237010BDE8AFFF1F0000000013
:10043000AC830100084B10B51BB108490848AFF365
:1004400000800848036803B910BD074B002BFBD0A0
:10045000BDE81040184700BF00000000ECAFFF1FD0
:10046000AC830100E8AFFF1F0000000001207047CF
:10047000704700BF014B18680CF006BC94B3FF1F17
:10048000054A064808B5137883F00103194613702E
:100490000BF020FE012008BDD4C2FF1FE8B2FF1FF1
:1004A000F8B5224B224D234E044618680CF082FC0E
:1004B0002B883288181A83B293422B8031D00DD802
:1004C0006269002AC4BF02F1FF326261A2685279F8
:1004D000022A16D04FF0FF303380F8BDA06867695C
:1004E0000AF090FA2369C01A874202DA636901337D
:1004F0006361A3685B79022B0CD02B8833800120C9
:10050000F8BD0D4A10780028E6D0013810704FF081
:10051000FF30E1E7084A1378072B04D80133137042
:10052000EBE70020F8BD2B880020D5E794B3FF1F30
:10053000729DFF1F108DFF1F4490FF1F10B50446D2
:100540000EF07CFB204610BD10B5044614480CF09C
:1005500049FBF0B1A3685B79022B0ED010480CF078
:1005600045FB044608B9204610BD0D480CF0E0FAE2
:100570000C4B00221A60204610BD0A4B1A68B2F5D7
:100580007A7FEBDD0849012400220C701A602046B6
:1005900010BD03480CF01AFB024B1860DAE700BFED
:1005A000C0B3FF1F38B5FF1F10B0FF1F01207047F9
:1005B0000120704770B5044608460D4613F040FB15
:1005C00023680246294620465B68BDE8704018470C
:1005D00010B58E4C8E4801233C2202210BF048FCC2
:1005E00020460BF0CBFE20460E210BF02FFF2046BD
:1005F0004FF060510BF000FF012108200FF082F84E
:100600000A200FF0BBF8002108200FF07BF86420CF
:100610000FF0B4F8012108200FF074F80021092030
:100620000FF070F800210A200FF06CF823684FF0EB
:100630000041AE22D9625A63DA6A002AFCDA4FF02E
:100640000041D522986BD9625A63DA6A002AFCDA33
:100650004FF000418022986BD9625A63DA6A002A0F
:10066000FCDA4FF00041A822986BD9625A63DA6A2B
:10067000002AFCDA4FF000413F22986BD9625A639E
:10068000DA6A002AFCDA4FF00041D322986BD96273
:100690005A63DA6A002AFCDA4FF000410022986BB4
:1006A000D9625A63DA6A002AFCDA4FF0004140222C
:1006B000986BD9625A63DA6A002AFCDA4FF000417B
:1006C0008D22986BD9625A63DA6A002AFCDA4FF0FD
:1006D00000411422986BD9625A63DA6A002AFCDA64
:1006E0004FF000412022986BD9625A63DA6A002ADF
:1006F000FCDA4FF000410022986BD9625A63DA6A43
:10070000002AFCDA4FF00041A122986BD9625A63AB
:10071000DA6A002AFCDA4FF00041C822986BD962ED
:100720005A63DA6A002AFCDA4FF00041DA22986B49
:10073000D9625A63DA6A002AFCDA4FF000411222C9
:10074000986BD9625A63DA6A002AFCDA4FF00041EA
:100750008122986BD9625A63DA6A002AFCDA4FF078
:100760000041CF22986BD9625A63DA6A002AFCDA18
:100770004FF00041D922986BD9625A63DA6A002A95
:10078000FCDA4FF00041F122986BD9625A63DA6AC1
:10079000002AFCDA4FF00041DB22986BD9625A63E1
:1007A000DA6A002AFCDA4FF000414022986BD962E5
:1007B0005A63DA6A002AFCDA4FF00041A422986BEF
:1007C000D9625A63DA6A002AFCDA4FF00041A622A5
:1007D000986BD9625A63DA6A002AFCDA4FF000415A
:1007E000AF22986BD9625A63DA6A002AFCDA0848A9
:1007F0009B6B0BF0CDFA002105480BF01DF8002291
:1008000001210348BDE810400BF012B82CA3FF1FD4
:10081000E8B2FF1F30B5102083B00EF017FE04229F
:1008200000238DE80C000621FF23072205460CF06B
:10083000E7F90C4B0C4C0D490D481D604BF67F320F
:100840000EF0B2F902210C200EF070FF20460C21B0
:100850000CF048F92046052103B0BDE830400CF00B
:1008600065B900BF94B3FF1FC0B3FF1F750400003C
:10087000A4C2FF1F10B5184C4FF0FF3220680121B1
:100880000CF012FB20684FF0FF3210210CF0EEFA52
:1008900020684FF0FF3205210CF0F2FA20684FF08B
:1008A000FF3204210CF0F6FA0122206811460CF008
:1008B000FBFA2068012210210CF0D8FA20684FF0D2
:1008C000FF3205210CF0DCFA206801220421BDE88A
:1008D00010400CF0DFBA00BF88B2FF1F0369F3B10C
:1008E00010B516490278096882B0012A0191019970
:1008F00016D04468C26822448A420ED2002B41605E
:1009000002DD013B036143B1037D5AB20121002A9C
:10091000017002DD18460EF0F5FE02B010BD704702
:100920004268836813448B42F7D2037D41605AB218
:1009300000218A420170EDDCEFE700BF8CD3FF1F7E
:1009400010B505480CF052F9044610B102480CF0FD
:10095000EFF8204610BD00BFC0B3FF1F38B5124BE3
:10096000054618680CF026FA104A114913880C88BD
:10097000181A83B2A342138013D00E4A106809D804
:100980000028CCBF00F1FF30002010600B804FF03A
:10099000FF3038BDA842B8BF013010600B80012085
:1009A00038BD002038BD00BF94B3FF1F729DFF1FEC
:1009B000108DFF1F94B2FF1FF0B55E4A5E4B127898
:1009C0005E491B780020012A086000F08E80012B10
:1009D00040F29E80022B00F08880032B38D05848CC
:1009E000036893F84810DFF8A8C1DFF890E1554C90
:1009F000554F564D564E003118BF01218CF800104E
:100A000003F13801CEF80010D96B2160196C396000
:100A1000504CB3F8447050492F80B3F846701D8F86
:100A20005B8F378025800B8002F0FD03012B1BD0EC
:100A30004A4D4B4C4B484C4A4FF0FF3301260021A6
:100A40002E60236003601170484B01201870F0BDC8
:100A50004749484B09783A4801EB011103EB011172
:100A600001F158030360BCE70368434C93F8355029
:100A700093F848102570002483F8354000293FD0B2
:100A800078214FF6C4754FF688741D875987A3F8EF
:100A90004610A3F84440314C314E324D32490127C3
:100AA0004FF0FF332760BA424FF0000433602B60F1
:100AB0000C70C9D1314B324A07681868314B9568C0
:100AC00056683149314A87F848408560466003F1ED
:100AD000280533F8020F02F8014FAB4241F8040F2A
:100AE000F7D1224B01201870F0BD2149214B097824
:100AF000134801EB011103EB01110B1D036070E7BB
:100B000078241987A3F844105C87A3F84640C2E70D
:100B1000052A00D0F0BD012B7FF461AF144B1549BD
:100B20001B78074803EB031301EB0313AC3303609B
:100B30007AE700BF78B2FF1F4CD1FF1F04B0FF1F40
:100B4000E0CEFF1F40D2FF1F08CFFF1F54D3FF1F6F
:100B5000709DFF1F10B3FF1FBABFFF1F94B2FF1F8E
:100B60000C99FF1FA094FF1F9CB3FF1F20B3FF1F12
:100B70004490FF1F14B6FF1F84B2FF1F98B3FF1FDE
:100B800060B3FF1F96B2FF1F1CC2FF1FA3BFFF1F52
:100B90006CCBFF1F2D4B1B78032B70B50FD02C494E
:100BA000012231F8023F5D1DA842A3F1050301DADD
:100BB000984215DC0132142AF3D1002070BD254B78
:100BC0001B6803F1640290420CDB234B1B6803F1AA
:100BD000640290420BDA643B984208DD032070BD4A
:100BE000D0B270BD643B9842EFDD022070BD1B4B5C
:100BF0001D680446B5F93800C0F13C0011F002FC54
:100C00000646B5F93A0011F0FDFB0146304611F0F9
:100C100001FD0646286C11F0F5FB0146304611F047
:100C200045FC0646E86B11F0EDFB0146304611F03D
:100C300035FB11F001FE00F164039C42BDDA64381B
:100C40008442D4BF0020012070BD00BF78B2FF1FD6
:100C500098B2FF1F58B3FF1F5CB3FF1FE0CEFF1F0A
:100C60007C4B1A68F0B40346D46BB2F938000729FC
:100C70000CD8DFE801F0042D32517292B20D764AA1
:100C8000106891889279186099809A71F0BC7047C9
:100C9000126C0026A4185E7100F1BD806F4F1E44D7
:100CA0000120053394FBF0F287FB0215D117C1EB4D
:100CB000A50101EB8101A2EB4102303203F8012DC5
:100CC00000EB8000B3424FEA4000EBD1F0BC70472C
:100CD000634A10681860F0BC70470026041E5E71FD
:100CE000C0F2B2805D4F1E440120053394FBF0F248
:100CF00087FB0215D117C1EBA50101EB8101A2EB26
:100D00004102303203F8012D00EB80009E424FEA91
:100D10004000EBD1F0BC7047B2F93A6000253618BC
:100D20005D7100F18C804D4F1D440120053396FB11
:100D3000F0F287FB0214D117C1EBA40101EB810192
:100D4000A2EB4102303203F8012D00EB8000AB42F0
:100D50004FEA4000EBD1F0BC7047B2F94460002587
:100D6000AE425D7166DB3D4F1D440120053396FBAD
:100D7000F0F287FB0214D117C1EBA40101EB810152
:100D8000A2EB4102303203F8012D00EB8000AB42B0
:100D90004FEA4000EBD1F0BC7047B2F94660002545
:100DA000AE425D7141DB2D4F1D440120053396FBA2
:100DB000F0F287FB0214D117C1EBA40101EB810112
:100DC000A2EB4102303203F8012D00EB8000AB4270
:100DD0004FEA4000EBD1F0BC70470026B4425E7190
:100DE0001EDB1E4F1E440120053394FBF0F287FBEF
:100DF0000215D117C1EBA50101EB8101A2EB410264
:100E0000303203F8012D00EB8000B3424FEA40007E
:100E1000EBD1F0BC70472D2264421A7001263DE7E9
:100E20002D2264421A700126DBE72D2276421A70C9
:100E30000125B8E72D2276421A70012593E72D226D
:100E400076421A7001256EE72D2264421A7001263F
:100E500048E700BFE0CEFF1FB0710100676666661D
:100E6000B871010000B5437A102B0FD8DFE803F00A
:100E700010101010101A2E10101010102128090E2A
:100E80001000002043F6FF73086013605DF804FB58
:100E9000037F13B36FF07F004FF48073086013601B
:100EA0005DF804FB0F4B0B6041F6FF7313605DF8B8
:100EB00004FB0D4B0B6047F6FF7313605DF804FBFA
:100EC00000207F23086013605DF804FB6FF063006F
:100ED0006423086013605DF804FB7F200B601060E2
:100EE0005DF804FB00E0FFFF0080FFFF4172102966
:100EF0000AD8DFE801F012121F1F1F2F4A1F1F1F01
:100F00001F1F3A430A0912007047002243F6FF737D
:100F100082810283C38143837047037F002B3BD0D0
:100F200078234FF6C4714FF688728181C381438361
:100F300002837047037F002B34D010B480214FF61A
:100F4000C0744FF681727F238481C1810283438301
:100F500010BC70474FF4604343F6FF7141F6FF72D7
:100F600083810383C181428370474FF4004247F677
:100F7000FF7382810283C3814383704700227F23F2
:100F800082810283C381438370470022642382816C
:100F90000283C38143837047782283810383C281A4
:100FA000428370477F2283810383C28142837047DB
:100FB0002DE9F04F074685B0284C01704FF000082E
:100FC00042704FF07E5187F8088087F80980A56845
:100FD000606801937960BDF944307D617821F981C1
:100FE00002933861BDF94830A7F80C80039311F0E3
:100FF00009FA0646284611F005FA9DF838B09DF822
:101000003CA09DF84090164C0546404611F0FAF978
:10101000144911F0FFFA294611F048FA314611F04F
:101020003DF911F02FFC08F10108B8F1150F24F873
:10103000020FEAD1384687F81CB087F81DA087F860
:101040001E900199FFF752FFBDF808303B83BDF8B1
:101050000C307B83384605B0BDE8F08F60B3FF1FCE
:1010600096B2FF1F0000A04110B582B002AB42F261
:10107000B46243F8042D044601700422184600218E
:101080000EF064F82046012202210EF05FF802B053
:1010900010BD00BF70B5054682B000200EF014F8F8
:1010A0008DF8060001200EF00FF88DF80700BDF84E
:1010B000062042F2B4639A4202D0002002B070BD12
:1010C00002200EF001F801288ABFFF2328702B7040
:1010D000EE1C032420460DF0F7FF0134072C06F820
:1010E000010FF7D1EE1D20460DF0EEFF01340B2C61
:1010F00006F8010FF7D105F10B0620460DF0E4FFCD
:1011000001340F2C06F8010FF7D105F10F06204628
:101110000DF0DAFF0134132C06F8010FF7D105F1B9
:10112000130620460DF0D0FF0134172C06F8010FEE
:10113000F7D105F1170620460DF0C6FF01341B2C30
:1011400006F8010FF7D105F11B0620460DF0BCFF94
:1011500001341F2C06F8010FF7D11F3520460DF082
:10116000B3FF0134232C05F8010FF7D1642002B03E
:1011700070BD00BF2DE9F843089C0646884691469D
:101180001D461CB1006811F057FBA047194B1A4FC0
:1011900018680BF00FFE194B3A881C88201A84B28D
:1011A00094421C8021D094BF05F10040284631684C
:1011B00011F074F84146054611F016FB50B9494646
:1011C000284611F02FFB58B1C6F8009000203C8053
:1011D000BDE8F883C6F8008000203C80BDE8F883B5
:1011E000356000203C80BDE8F8830548BDE8F84341
:1011F0000BF0FCBC94B3FF1F108DFF1F729DFF1FEF
:10120000C0B3FF1F70B52D4D2B78022B84B02ED0AC
:10121000032B23D0012B02D000235B68FFDE284E76
:10122000284C337803EB031304EB0313D83304A8DF
:101230005B6840F8043D244B00934FF08042234B01
:101240000021FFF797FF2B78022B2DD0032B21D005
:10125000012B15D00023039A5A60FFDE184E194C5B
:10126000337803EB031304EB03138433DFE7144EEB
:10127000144C337803EB031304EB03133033D6E73A
:10128000337803EB031304EB0314D834039B63603C
:1012900004B070BD337803EB031304EB0314843400
:1012A000039B636004B070BD337803EB031304EB5E
:1012B00003143034039B636004B070BD4CD1FF1F36
:1012C0004490FF1F14B6FF1FB99100006F12833ABC
:1012D000F0B52E4D2B78022B85B032D0032B27D0C2
:1012E000012B02D000231B7AFFDE294E294C3378D4
:1012F00003EB031304EB0313D83393F9080011F045
:1013000081F804AB244A43F8040D2449009218469E
:10131000234A4FF07E53FFF72DFF2B78022B074611
:101320002CD0032B23D0012B14D000231B72FFDE03
:10133000174E184C337803EB031304EB0313843379
:10134000DBE7134E134C337803EB031304EB031367
:101350003033D2E7337803EB031304EB0314D834B0
:10136000039811F069FA2072384605B0F0BD337861
:1013700003EB031304EB03148434F1E7337803EB3A
:10138000031304EB03143034EAE700BF4CD1FF1F12
:101390004490FF1F14B6FF1FB99100000000A0C0C9
:1013A0000000A0402DE9F047089C0646894690467B
:1013B0001D460CB10068A047174B184F18680BF07A
:1013C000F9FC174BB7F800A01C88201A84B25445CA
:1013D0001C801CD0306811F015F85445014694BFAC
:1013E00005F10040284610F059FF11F025FA484554
:1013F00007DB4045A8BF404630603C800020BDE888
:10140000F087C6F8009000203C80BDE8F0870548D2
:10141000BDE8F0470BF0EABB94B3FF1F108DFF1F30
:10142000729DFF1FC0B3FF1F2DE9F0410E460178EA
:101430009DF8188008290446174641D01D46334BB5
:1014400033499A6842645A6802641A69DB68C0F8D2
:101450009820C0F89430D0F8A4000CF05DFAD4F8CD
:10146000A4302C4A1A61242084F855602071002190
:101470000EF05CF90026252084F8580084F8A97045
:10148000E68031460EF052F9A4F85A6084F8B46050
:1014900084F8AC5028460DB9BDE8F08102210EF069
:1014A00045F984F8F080B8F1000F02D10120BDE8C1
:1014B000F081404601210EF039F90120BDE8F081AC
:1014C000124B80F8556098691A6A59696064DB6943
:1014D00021641220C4F89820C4F8943020710021AF
:1014E0000EF024F900251A2084F8580084F8A97019
:1014F000E58029460EF01AF984F8AC50A4F85A5049
:1015000084F8B4502846BDE8F08100BF60B3FF1FE7
:101510006F12833A000040412DE9F04F85B0504BE7
:1015200003930223DFF848B14E4C9A464FF00C0962
:10153000162200264FF001087F2735E0A087E187BB
:10154000A4F84820A4F84A7094F8A02084F8848075
:1015500005F10E034FF6C07E80204FF6817184F8AE
:101560008DA084F83130002A3AD0A4F890E0A4F895
:101570009200A4F89C10A4F89E700122164417351E
:1015800009F10C03092E84F8E69084F8855084F85C
:10159000D8805FFA83F904F588742AD003991BF880
:1015A000013F11F8012F0391F5B2009229462A4616
:1015B00020462570FFF738FF94F84C3084F83080CF
:1015C0004FF6C07080214FF6817284F839A0002B4D
:1015D000B4D1A387E787A4F84830A4F84A70B3E7EA
:1015E000A4F89020A4F89270A4F89C20A4F89E700F
:1015F000C3E71D4B1D489D684561A0F5F4653E2776
:10160000A0F5F464174985F8F6715B6884F8BC2787
:10161000A0F5F46780F8DC203C26402441220361D9
:1016200091F8A91785F8E66043234526472587F8F2
:10163000064387F816244824202287F826352123DC
:1016400087F8366687F8465787F8564887F8B128EE
:1016500087F8053905B0BDE8F04FFFF747BC00BF7C
:10166000AC6F010014B6FF1F60B3FF1FB4BDFF1FB6
:101670009C7701002DE9F0410546084688460DF0AB
:1016800023FD08F1080785F80C0108F118083C460D
:1016900005F1D70620460DF017FD0134444506F844
:1016A000010FF7D107F1160405F12F0607F13608EF
:1016B00020460DF009FD0134444506F8010FF7D12D
:1016C000833507F13C0407F15C0620460DF0FCFC75
:1016D0000134B44205F8010FF7D16A20BDE8F0816A
:1016E000F8B504460F4616460EF026F82369A061A9
:1016F0000BB9E36923B372B6E169A369A06A5B1A07
:101700000622636199B284F824201D460CF0F6F895
:10171000A36ADB6A002E63F30F05284614DDB04090
:1017200010F06CFE394610F075FF094910F072FF99
:1017300011F0A8F8A3692061E36162B60120F8BD49
:101740002062E0611846F8BD1CBF7642F040E7E732
:101750000000C04010B50446212094F8511001F05B
:1017600001010DF0CFFF94F851101820C1F3400192
:101770000DF0C8FF94F851102020C1F38001BDE89E
:1017800010400DF0BFBF00BF30B5124B0D4683B007
:101790009D424FF000014FF07F028DE8060008BF28
:1017A000B0F90450044601AA69462C30FFF75AFBF1
:1017B000009B9D4203DB019BAB42A8BF2B46B4F9C3
:1017C0004400834204DBB4F946009842A8BF18469F
:1017D00003B030BDF1D8FFFF38B590F80C31032BC2
:1017E0002FD8DFE803F0020F0402174838BD90F845
:1017F0008D30062BB0F9083018D0B0F95C1003FB1F
:1018000001F104E0B0F90810B0F95C30194490F827
:101810004C500023ED1A044680F84C3018BF0125C7
:101820000430FFF7B1FF84F84C5038BDB0F95C20AC
:10183000064903FB02F381FB0321DB17C3EB6111B4
:10184000E5E70149E3E700BFF1D8FFFF1F85EB5152
:1018500010B50468A06C036847F61221DB6998474D
:10186000002303214FF6FF7284F8641084F84C3093
:1018700084F84E3084F84D3084F8653084F8673051
:1018800084F86830A365636584F8E93084F86630CD
:10189000E265226610BD00BF30B5A1F1F80383B048
:1018A0000C460546042B16D8DFE803F03B1503036E
:1018B0001C00012380F8243014222049204812F013
:1018C0007DFA204B204A1B68009300991F4B116042
:1018D00042F210721A6004F10803DBB2072B25D91B
:1018E00003B030BD002380F8243014221849144876
:1018F00012F064FA134B144A1B6801930199134BBD
:10190000116042F210721A60200240F00F000FF0D6
:1019100035FA2B68986C036821461B68984703B01A
:1019200030BD90F82430002BEED1D9E7012202FA25
:1019300003F313F0DD0FD3D0E6E700BFBC71010065
:101940004CD2FF1F8CD3FF1F48D1FF1F78CCFF1F45
:10195000C871010038B504460DF0EEFE236A226915
:10196000C31A9A4205460ED36369E26903EB430347
:10197000AD1AAB4206D200232361E36123626361A7
:1019800084F8243038BDF8210348FFF785FF226A28
:10199000236913442362E7E774C2FF1F30B503785D
:1019A00083B0002B37D090F835200C2A044632D073
:1019B000042A0D464DD018460DF0AAFE94F83C308E
:1019C000ABB194F83D30984240D02E4B1A6801924A
:1019D000019A22641B680093009B218F9B1A021CB2
:1019E00018BF012284F83D208B4298BF02200228B4
:1019F00011D0638898420ED0608080B994F8353059
:101A000003F0FD03012B39D1227A82F00102134643
:101A1000227211460DE00025284603B030BD94F82F
:101A2000353003F0FD03012BF5D000210A460B46AB
:101A300022722B6094F844000DF064FE94F8353067
:101A4000042B11D00125284603B030BD226C0D4B6C
:101A5000C0E70269002AAED090F82420002AAAD05C
:101A6000FFF778FF2378A6E7257A002DEAD094F9CE
:101A70003420216B2046FFF733FECDE701210A46D3
:101A80000B46D5E78CD3FF1F00232DE9F047824694
:101A90001C46DFF88C9043610E46984600E0013406
:101AA000304608F0AFFF84422146304616DA08F08F
:101AB00091FF037D002BF2D02146304608F08AFFCB
:101AC00007460FCF08EB480509EBC5050FC597E89A
:101AD000030008F1010885E80300E0E7304608F05C
:101AE00091FF0146304608F075FF05460FCD08EB23
:101AF000480409EBC4040FC495E80300074B84E8CD
:101B0000030083F804807279C3F8009050461946A8
:101B1000BDE8F0475A7109F031B800BFE4CEFF1FAD
:101B200088CCFF1F70B5A6B0044608A811F084FE4B
:101B3000864B024603CB1D889B781060516015814F
:101B4000937208A901A80CF071FB182066680DF0CB
:101B50007DFC054631460BF00FFF2B78032B00F080
:101B6000D580039902980131890011F035FC0028D5
:101B700000F0CC80039B02905A1C40F82350039243
:101B80001820A6680DF062FC054631460BF0F4FE05
:101B90002B78032B00F0D68003990298013189003D
:101BA00011F01AFC002800F0CD80039B02905A1C13
:101BB00040F8235003921820E6680DF047FC0546D4
:101BC00031460BF0D9FE2B78032B00F0B780039938
:101BD00002980131890011F0FFFB002800F0AE806F
:101BE000039B02905A1C40F8235003921820266948
:101BF0000DF02CFC054631460BF0BEFE2B78032B76
:101C000000F09880039902980131890011F0E4FBFB
:101C1000002800F08F80039B02905A1C40F823504C
:101C20000392182066690DF011FC054631460BF051
:101C3000A3FE2B78032B79D00399029801318900F8
:101C400011F0CAFB002871D0039B02905A1C40F887
:101C5000235003921820A6690DF0F8FB0546314683
:101C60000BF08AFE2B78032B5CD00399029801318C
:101C7000890011F0B1FB002854D0039B02905A1C3C
:101C800040F8235003921820E6690DF0DFFB05466B
:101C900031460BF071FE2B78032B3FD0039902984D
:101CA0000131890011F098FB002837D0039B029086
:101CB0005A1C40F8235003921820256A0DF0C6FBE9
:101CC000044629460BF058FE2378032B22D00399B3
:101CD00002980131890011F07FFBD8B1039B02907B
:101CE0005A1C40F823400392194809F0C9F81849D2
:101CF00001A80CF0BDFA164809F0D0F801A80CF0C4
:101D0000FFF801A80CF02EF926B070BD03238DF862
:101D1000103035E703238DF81030E5E703238DF805
:101D20001030C9E703238DF81030ACE703238DF89A
:101D300010308FE703238DF8103072E703238DF8FE
:101D4000103053E703238DF8103034E7D0710100D1
:101D500020B5FF1FF0B59FB01EAF42F2B46347F845
:101D6000783D04460422384600210DF0EFF9204664
:101D7000012202210DF0EAF9201D042203210DF0B9
:101D8000E5F904F10800042207210DF0DFF904F160
:101D90000C0004220B210DF0D9F904F110000422EB
:101DA0000F210DF0D3F904F11400042213210DF0DA
:101DB000CDF904F11800042217210DF0C7F90C4EDB
:101DC00004F11C0004221B210DF0C0F904F12000D5
:101DD00004221F210DF0BAF90FCE3D460FC533681E
:101DE0002B6020463946FFF79DFE64201FB0F0BDF2
:101DF000DC71010038B50C460546002120460CF088
:101E0000B7F928B1204600210CF0BAF885F80C018A
:101E100038BD00BF70B5A6B0044608A811F00CFD8F
:101E2000484B024603CB1B8810601381516001A808
:101E300008A90CF0FBF9182026780DF007FB0546E1
:101E400031460BF0A3FD2B78032B6AD0039902983F
:101E50000131890011F0C0FA002862D0039B029082
:101E60005A1C40F823500392182066780DF0EEFAC1
:101E7000054631460BF08AFD2B78032B5DD0039984
:101E800002980131890011F0A7FA002855D0039B70
:101E900002905A1C40F823500392182066680DF0F7
:101EA000D5FA054631460BF07BFD2B78032B40D04D
:101EB000039902980131890011F08EFA002838D078
:101EC000039B02905A1C40F823500392182094F967
:101ED00008500DF0BBFA044629460BF057FD237855
:101EE000032B22D0039902980131890011F074FA72
:101EF000D8B1039B02905A1C40F823400392124829
:101F000008F0BEFF104901A80CF0B2F90E4808F025
:101F1000C5FF01A80BF0F4FF01A80CF023F826B0D0
:101F200070BD03238DF810309EE703238DF8103029
:101F3000E5E703238DF81030C8E703238DF8103050
:101F4000ABE700BF9472010020B5FF1F38B50C4607
:101F50000546002120460CF00BF900B938BD0121DF
:101F600020460CF005F90028F8D0022120460CF09C
:101F700003F90028F2D0032120460CF0F9F80028DC
:101F8000ECD0002120460BF0FBFF012128702046F9
:101F90000BF0F6FF0221687020460CF021F80321B7
:101FA000686020460BF0ECFF287238BD38B50C464F
:101FB0000546002120460CF0DBF800B938BD0121B0
:101FC00020460CF0D5F80028F8D0022120460CF06D
:101FD000D3F80028F2D0032120460CF0C9F80028DD
:101FE000ECD0002120460BF0CBFF012128702046C9
:101FF0000BF0C6FF0221687020460BF0F1FF0321B1
:10200000686020460BF0BCFF287238BD38B50C461E
:102010000546002120460CF0ABF800B938BD01217F
:1020200020460CF0A5F80028F8D0022120460CF03C
:102030009FF80028F2D0032120460CF099F80028E0
:10204000ECD0042120460CF093F80028E6D00521BE
:1020500020460CF08DF80028E0D0002120460BF03F
:102060008FFF0121687220460BF08AFF022128832E
:1020700020460BF085FF0321688320460BF080FF8C
:102080000421287720460BF07BFF05216877204646
:102090000BF076FFA87738BD70B50D46A6B00446A4
:1020A000FFF7B8FE294608A811F0C6FB464B0246CA
:1020B00003CB1060516001A808A90CF0B7F81820F4
:1020C000667A0DF0C3F9054631460BF05FFC2B78BC
:1020D000032B69D0039902980131890011F07CF932
:1020E000002861D0039B02905A1C40F823500392B1
:1020F0001820A67A0DF0AAF9054631460BF046FCE9
:102100002B78032B5CD0039902980131890011F0E0
:1021100063F9002854D0039B02905A1C40F82350C6
:1021200003921820A6890DF091F9054631460BF06F
:102130002DFC2B78032B3FD00399029801318900A5
:1021400011F04AF9002837D0039B02905A1C40F83E
:10215000235003921820A57B0DF078F904462946F8
:102160000BF014FC2378032B22D003990298013141
:10217000890011F031F9D8B1039B02905A1C40F844
:1021800023400392114808F07BFE104901A80CF08F
:102190006FF80E4808F082FE01A80BF0B1FE01A80E
:1021A0000BF0E0FE26B070BD03238DF810309FE7E2
:1021B00003238DF81030E5E703238DF81030C9E7CD
:1021C00003238DF81030ACE7F071010020B5FF1F3C
:1021D00038B50C460546002120460BF0C9FF00B972
:1021E00038BD012120460BF0C3FF0028F8D00221A2
:1021F00020460BF0BDFF0028F2D0032120460BF053
:10220000B7FF0028ECD0002120460BF0B9FE0121D9
:10221000687220460BF0B4FE0221A87220460BF033
:10222000AFFE0321A88120460BF0AAFEA87338BD9B
:1022300070B5A6B0044608A811F0FEFA494A034654
:1022400095881068927918609D809A7108A901A8F4
:102250000BF0ECFF1820B4F900600DF0F7F805461C
:1022600031460BF093FB2B78032B6AD0039902982D
:102270000131890011F0B0F8002862D0039B029070
:102280005A1C40F8235003921820B4F902600DF054
:10229000DDF8054631460BF079FB2B78032B5CD03B
:1022A000039902980131890011F096F8002854D062
:1022B000039B02905A1C40F8235003921820666832
:1022C0000DF0C4F8054631460BF056FB2B78032B76
:1022D0003FD0039902980131890011F07DF8002860
:1022E00037D0039B02905A1C40F8235003921820C9
:1022F000A5680DF0ABF8044629460BF03DFB2378AA
:10230000032B22D0039902980131890011F064F85F
:10231000D8B1039B02905A1C40F823400392124804
:1023200008F0AEFD104901A80BF0A2FF0E4808F01E
:10233000B5FD01A80BF0E4FD01A80BF013FE26B0DB
:1023400070BD03238DF810309EE703238DF8103005
:10235000E5E703238DF81030C9E703238DF810302B
:10236000ACE700BFB472010020B5FF1F70B50D4689
:10237000A6B00446FFF74EFD294604F10C00FFF716
:1023800057FF294608A811F057FA684B024603CBBD
:102390001B7810601372516001A808A90BF046FF6A
:1023A0001820667A0DF052F8054631460BF0EEFA29
:1023B0002B78032B00F0A18003990298013189004A
:1023C00011F00AF8002800F09880039B02905A1C34
:1023D00040F8235003921820B4F918600DF036F835
:1023E000054631460BF0D2FA2B78032B00F099808A
:1023F000039902980131890010F0EEFF002800F0E7
:102400009080039B02905A1C40F82350039218209E
:10241000B4F91A600DF01AF8054631460BF0B6FA19
:102420002B78032B79D0039902980131890010F0A1
:10243000D3FF002871D0039B02905A1C40F8235010
:1024400003921820267F0DF001F8054631460BF067
:102450009DFA2B78032B5CD00399029801318900F7
:1024600010F0BAFF002854D0039B02905A1C40F889
:10247000235003921820667F0CF0E8FF0546314692
:102480000BF084FA2B78032B3FD00399029801318B
:10249000890010F0A1FF002837D0039B02905A1C3E
:1024A00040F8235003921820A57F0CF0CFFF04467C
:1024B00029460BF06BFA2378032B22D0039902985C
:1024C0000131890010F088FFD8B1039B02905A1C9B
:1024D00040F823400392164808F0D2FC144901A8A2
:1024E0000BF0C6FE124808F0D9FC01A80BF008FD5D
:1024F00001A80BF037FD26B070BD03238DF8103016
:1025000069E703238DF81030E5E703238DF81030D9
:10251000C9E703238DF81030ACE703238DF81030A2
:102520008FE703238DF8103071E700BFA47201001C
:1025300020B5FF1FF0B5A7B0044608A80D4611F05E
:102540007BF9334B024603CB1B881060138151602B
:1025500001A808A90BF06AFE182094F80C710CF081
:1025600075FF064639460BF011FA3378032B4AD033
:10257000039902980131890010F02EFF002842D003
:10258000039B02905A1C40F823600392214808F0F4
:1025900077FC204901A80BF06BFE1E4808F07EFC7A
:1025A00001A80BF0ADFC294608A811F045F91A4A1C
:1025B00003461068186008A904F13000FFF7D6FE42
:1025C000294608A811F038F9144A03461068127910
:1025D00018601A7108A904F18400FFF7C7FE2946A4
:1025E00008A811F029F90E4A03461068928818606D
:1025F00008A99A8004F1D800FFF74EFD01A80BF05E
:10260000B1FC27B0F0BD03238DF81030BEE700BF4A
:10261000F871010020B5FF1F04720100087201006B
:102620001072010070B59EB01EAD90F80C3105F827
:10263000783D04460E46284601220CF087FD06F13F
:10264000080104F1D80010220CF080FD06F11E01F3
:1026500004F1300020220CF079FD06F1440104F170
:10266000840020220CF072FD2278064901322846AF
:1026700011F0BCF820462946FFF75CFF6A201EB027
:1026800070BD00BF1872010038B50C460546002128
:1026900020460BF06DFD00B938BD012120460BF03E
:1026A00067FD0028F8D0022120460BF061FD0028CC
:1026B000F2D0032120460BF05BFD0028ECD0002176
:1026C00020460BF05DFC0121288020460BF058FCD1
:1026D0000221688020460BF053FC032168602046ED
:1026E0000BF04EFCA86038BDF0B5AFB00446002238
:1026F00001A90BF075FD204600226D490BF060FD2D
:1027000058BB00226B4920460BF03EFD08B92FB0A4
:10271000F0BD0246684920460BF036FD0028F6D190
:102720009DF81150313D082DF1D80E226349204605
:102730000BF02AFD002840D10E22614920460BF003
:1027400023FD002842D05F4B05EB051503EB051078
:1027500021463030FFF7FAFBD9E7002120460BF085
:102760000FFD0028CDD015AA6423002120460BF0D0
:1027700067FC15A8544911F087F805460028C0D118
:10278000DFF86CE14F4EBEE80F0015AF0FC7DEF863
:1027900000304E483B6015A9FFF7C4F901352A46C1
:1027A0004B4915A811F022F8304615A9FFF7C2FED3
:1027B000092D06F58876F1D1A3E7424805EB05150A
:1027C000214600EB0510FFF715FBA0E70E2241495B
:1027D00020460BF0D9FC48B13A4B05EB051503EB4D
:1027E000051021463030FFF711FC90E70E223A49E0
:1027F00020460BF0C9FC48B1324B05EB051503EB45
:10280000051021463C30FFF73FFF80E70E22334999
:1028100020460BF0B9FC48B12A4B05EB051503EB3C
:10282000051021468430FFF791FB70E70E222C49FA
:1028300020460BF0A9FC48B1224B05EB051503EB34
:10284000051021468430FFF7E1FB60E70E222549A1
:1028500020460BF099FC48B11A484FF4887303FBEB
:10286000050021469030FFF70FFF50E70E221E496A
:1028700020460BF089FC48B112484FF4887303FBE3
:1028800005002146D830FFF791FB40E70E2217499B
:1028900020460BF079FC00283FF439AF094B4FF488
:1028A000887000FB05302146D830FFF791FC2EE7F9
:1028B000287201003872010054720100F8710100A1
:1028C0006872010014B6FF1F4872010060B3FF1F59
:1028D0001872010078720100847201009072010088
:1028E000A0720100B0720100BC720100CC72010044
:1028F000DC71010030B589B00D46014601A80BF02E
:1029000095FC18200CF0A2FD044629460BF03EF879
:102910002378032B1ED0039902980131890010F00F
:102920005BFDB8B1039B02905A1C40F82340039210
:102930000A4808F0A5FA094901A80BF099FC0748D4
:1029400008F0ACFA01A80BF0DBFA01A80BF00AFBC7
:1029500009B030BD03238DF81030E9E720B5FF1F23
:1029600030B589B00D46014601A80BF05FFC182078
:102970000CF06CFD044629460BF012F82378032B6B
:102980001ED0039902980131890010F025FDB8B1DD
:10299000039B02905A1C40F8234003920A4808F017
:1029A0006FFA094901A80BF063FC074808F076FAB2
:1029B00001A80BF0A5FA01A80BF0D4FA09B030BDBC
:1029C00003238DF81030E9E720B5FF1F2DE9F04F04
:1029D0003F4C9BB00CF0B0FE23684CF25032C01A52
:1029E000904202D81BB0BDE8F08F0EF087FD14288E
:1029F000F8DD0CF0A1FE374E374DDFF8EC80DFF844
:102A0000EC90206006F112070124B5F806A036F814
:102A1000023F3249C3EB0A0EBEF1050F224601A860
:102A2000CAEB030301DC052B13DD10F0DFFE50467B
:102A30000FF0E8FC8346D9F800000FF0E3FC0146F4
:102A400058460FF0E7FD014601A8FFF789FFA6F8F9
:102A500000A0B5F85AA037F8023F2149C3EB0A0E8F
:102A6000BEF1050F224601A8CAEB030301DC052BCA
:102A700013DD10F0BBFE50460FF0C4FC8346D9F8BE
:102A800000000FF0BFFC014658460FF0C3FD0146A1
:102A900001A8FFF765FFA7F800A095F8B4B038F8D3
:102AA000023F10491FFA8BFA534505F5887509D086
:102AB000224601A810F09AFE594601A8FFF71AFF16
:102AC000A8F800A001340A2C9FD11BB0BDE8F08FFC
:102AD00058D1FF1FFECFFF1F14B6FF1FDC7201008D
:102AE000E8720100F8720100EACEFF1F4090FF1F5C
:102AF00070B50A4D06462846FEF7CCFA20B12B7871
:102B000086F82030012070BD04462846FFF722F9E0
:102B10002B7886F82030204670BD00BF60B3FF1FC1
:102B20002DE9F0414B1C0CBF90F820600E46012EA1
:102B300082B0804603D9002002B0BDE8F08150F891
:102B4000265028460CF0C0FA8DF80600681C0CF0E0
:102B5000BBFA8DF80700BDF8062042F2B4639A4232
:102B600016D1184C103504F5196729462046FEF792
:102B700081FD04F58874BC420544F6D188F82060D4
:102B800031461148FEF770FA012002B0BDE8F0812D
:102B90000E4C0F49012304F12100FF2284F820305C
:102BA00011F00CF9002041F288321123C4F82421DD
:102BB000A4F82A31A4F82801A4F82C0102B0BDE839
:102BC000F08100BF14B6FF1F60B3FF1FD8B3FF1F13
:102BD0000873010070B54B1C0CBF90F820400C46E8
:102BE000012C054601D9002070BD90F84C381BB16E
:102BF00090F88A289A4217D0254C2649012304F1DF
:102C00002100FF2284F8203011F0D8F8002341F28F
:102C100088311122C4F82411A4F82A21A4F82831FB
:102C2000A4F82C31002070BDD0F8542800F27D4665
:102C3000023A3146233009F019FF0128C5F8480847
:102C400095F87D2409D900F27C402844334613F8D6
:102C5000011F834282EA0102F9D112F07F02CBD038
:102C600095F88B389A42C7D1B5F87D2442F2B46307
:102C70009A42B8D1304655F8241040F2CA320CF0CE
:102C800065FA21462846BDE87040FFF749BF00BFFE
:102C9000D8B3FF1F207301002DE9F04F5F48D30028
:102CA00080FB034003449B109BB00F3323F00703CA
:102CB00000AFF026ADEB030D7D250020F723012AA0
:102CC000E9460C7887F8286087F8295087F82F00A4
:102CD00087F8673007D94B1C8E1813F8015BB34295
:102CE00084EA0504F9D1084609F1020109F08EFED3
:102CF0004B4E4C4B00F10208A3FB082332683A61AB
:102D0000C3EB080203EB52033A69C3F34713C3EB67
:102D1000C3011FFA82FE0EF11A5EC3EBC102904599
:102D200088BF01330EF5501E054604F07F0407F1FD
:102D30001C01042207F1080089F8013089F80040DD
:102D4000C7F808E009F062FE07F11C01024607F12E
:102D50002A000CF07BFA3368FB604FF0000BFA6836
:102D6000353D5C461E325FFA8BFC04E033687B61C4
:102D70007B699A421DD3A542F8D8C4EB080809EB39
:102D80000401424607F1300087F82FC00CF05EFACC
:102D900007F16803984407F12800F7230022402137
:102DA00008F8383C0EF038F801206C37BD46BDE815
:102DB000F08F09EB040E0EF1300387F82FC07B6013
:102DC00007F1300ADEF80C30DEF80000DEF80410FF
:102DD000DEF80820D446ACE80F007B680EF1100E38
:102DE0009E45E246EED1DEF80000CCF80000BEF8C9
:102DF00004209EF806308CF80630ACF80420402100
:102E0000002207F128000EF007F83368BB61373461
:102E1000A4B20BF1010BBA69A4E700BF9324499255
:102E20008CD3FF1F9F12E4292DE9F0474B1C0CBFE8
:102E300090F820600E46012EADF5747D074604D94A
:102E400000200DF5747DBDE8F0870DF1040850F801
:102E500026101C4C42F2B46340460422C8F80030ED
:102E60000CF074F957F8265004F5196910354FEA3B
:102E7000860A29462046FFF7D5FB04F58874A1454C
:102E80000544F6D187F8206031460F48FEF7ECF88C
:102E900057F80A500DF2CE36C8EB050544462819FE
:102EA0000CF012F904F8010BA642F8D1414638465D
:102EB00040F2CA32FFF7F0FE01200DF5747DBDE847
:102EC000F08700BF14B6FF1F60B3FF1F012938B59C
:102ED00002D90024204638BD80F820104FF0FF3181
:102EE0000546FFF7A1FF04460028F2D0034895F8F5
:102EF00020300370FEF72EFFECE700BF60B3FF1F2A
:102F000070B50A4B1C78012C02D90025284670BDEB
:102F100080F8204021460646FFF702FE05460028BD
:102F2000F4D121463046FFF77FFFEFE760B3FF1F84
:102F300053787D2B01D0002070472DE9F04FA1F18F
:102F40000A03362B99B000F2DA8016460F460522A6
:102F5000054601A9B01C09F089FD019B42F2B4624B
:102F6000B2EB134F40F0B18096F8079005EB0902E1
:102F700023F0704B92F85838CDF804B023B1D5F84F
:102F800050389B4500F0E480724A734B95F84C48EA
:102F900007CA83FB09CE83FB04C84FEA9E0E4FEAA3
:102FA000980883FB0ECA83FB08C30DF1100CACE834
:102FB00003004FEA9A0A0AEB8A0A0EEB8E009B087E
:102FC000AEEB4A01A9EB400008EB880E03EB83034C
:102FD000ACF80020A8EB430301F130023030A4EB41
:102FE0004E0EDFF888A18DF81A2030330EF1300E26
:102FF0004FF02F084FF0000C8DF81B0004A914228D
:1030000056488DF81D308DF81C808DF81EE08DF827
:103010001FC010F0D3FEDAF800300393DFF85491AC
:10302000039BDFF85481C9F8003042F21073C8F8EE
:10303000003024B1D5F850389B4500F0858000243D
:10304000C5F8544885F88A4885F88B48C5F848483B
:1030500005F6570305F6890103F8014F99424FF031
:103060000002F9D13E49C5F850B801230A6085F83D
:103070004C38F3792B44012283F85828F37933B97B
:10308000337A85F88B38737A85F88A38F379C3EB0D
:10309000C300C3EBC00305F12100A7F109021844E6
:1030A00006F108010CF0D2F8D5F8543895F84C2800
:1030B000093B1F44C5F854781AB195F88A389342F1
:1030C00031D0012019B0BDE8F08F264C26490123EC
:1030D000FF2204F1210084F8203010F06FFE4FF43D
:1030E0007A710A2214230020C4F82411A4F828219C
:1030F000A4F82A31A4F82C0119B0BDE8F08F1B4BBD
:103100001B4D1B6804930FCD144C1A4E0FC4049A28
:10311000194B29683260002042F2107221601A6057
:1031200019B0BDE8F08F154DDAF8003002930FCDDD
:103130000A4C0FC4029B2A68C9F8003042F210738F
:103140002260C8F80030BCE7013485F84C4890E7AD
:103150000020D1E75C730100676666664CD2FF1FF2
:103160001CB3FF1FD8B3FF1F487301008CD3FF1F90
:103170003073010048D1FF1F78CCFF1F6873010036
:103180002DE9F0479DF82040013CE4B20F2C03D814
:103190004EB2002E0D4601DBBDE8F087E0290FD9C5
:1031A000F729F9D90835EDB2012303FA05F515F031
:1031B000DD0FF1D0806C0368BDE8F0471B6818474D
:1031C0008146806C1F46036846EA0401C9B21B6849
:1031D00090469847D9F84800036808F07F011B68BB
:1031E00005F0EF059847C02DD6D0D9F84800036800
:1031F00007F07F011B68BDE8F04718472DE9F04351
:10320000140604F0FE4481465D1E080444F4104494
:10321000984644F0090409EB050300F4FE002D0272
:1032200083B005F47065204316460F461971284394
:103230000DF0A4FDD9F80000CDF8008033463A46E1
:103240009021FFF79DFF03B0BDE8F0832DE9F04327
:103250005D1E14062D0205F4706504F0FE442C4337
:1032600044F400440D0483B0814644F0080405F49E
:10327000FE001E461746884620430DF07FFDD9F814
:10328000000000963B4642468021FFF779FF03B0DD
:10329000BDE8F0832DE9F04390F83530072B83B07B
:1032A00004460F4600F0A18094F84810002964D02D
:1032B000012117200CF026FA94F95020531C05D058
:1032C00012F1FF3218BF012284F85020514B2178AF
:1032D000186809F0F3FDC0F30B11E06C0AF00EFB67
:1032E000E36CB4F93860DD6A6580ADB23D603046AC
:1032F0000FF088F8B4F93A70814638460FF082F83A
:10330000804628460FF07EF80546E06B0FF07AF80D
:10331000014628460EF0C0FF0546206C0FF072F8FB
:10332000014628460FF076F9414605464FF07C509D
:103330000FF070F9014628460EF0B0FF4FF07E51B5
:1033400005460FF06FFA00285BD04FF07E514046E3
:103350000FF0ACF849460EF0A1FF0FF06DFAB4F98A
:10336000043083421ED094F8353000B2072BA08081
:1033700007D0012003B0BDE8F08317200CF0C2F99C
:103380009AE7254B83FB0723A3EBE77706FA87F63B
:10339000B042EEDD94F93420216B2046FEF7A0F90F
:1033A0000120E7E7E368E3B11C4A1288CAB11C496F
:1033B000096801910199CB1A934212D994F83530DA
:1033C000012B0ED194F82C30A17916480022FFF77A
:1033D0003DFF00204FF61943E380E06003B0BDE8F5
:1033E000F083002003B0BDE8F0830369002B3FF4B5
:1033F0005BAF90F82430002B3FF456AFFEF7AAFAEB
:1034000052E7002128460FF0EFF908B929469EE758
:1034100000219CE788B2FF1F565555552C9BFF1F76
:103420008CD3FF1F74C2FF1F70B5044684B01646CC
:103430001D4651BB56B9C5B994F80E0194F80D213B
:1034400094F80F311343184304B070BD261D304665
:10345000FEF780F9304601A9FFF71CFF94F80D3103
:10346000184384F80D01002DE6D004F158052846D4
:10347000FEF770F9284602A9FFF70CFF94F80E3109
:103480001843C0B284F80E01D8E703A9AC30FEF7A8
:1034900085FA94F80F31184384F80F01002ECAD032
:1034A000D4E700BF2DE9F843DFF8E48098F8003056
:1034B0000BB1BDE8F8830123324F88F8003038683B
:1034C000314D00EB001005EB00100430FEF742F91F
:1034D0002C4605F5196600231A4601212046FFF700
:1034E000A3FF04F1F40004F58874FDF7F7F9B44282
:1034F000F1D1264C26684EB33868002300EB00104B
:1035000005EB001019460122FFF78EFF3B681D4AAC
:10351000072B236804BF01332360082BC4BF00239B
:1035200023603B6801333B603B68082BC4BF00232A
:103530001360386800EB001005EB00100430FEF754
:1035400009F9002388F80030BDE8F883DFF84490DB
:103550004FF0FF32D9F80000252109F0AFFCD9F86F
:1035600000004FF0FF32252109F0A8FC386800EB7D
:10357000001005EB0010012332463146FFF754FFDF
:10358000C4E700BF3CD2FF1F14B6FF1F34B5FF1FB6
:1035900070B2FF1F88B2FF1F2DE9F0435D1E1406B5
:1035A0002D0205F4706504F0FE442C4344F43044CD
:1035B0000D0483B0814644F00B0405F4FE001E4662
:1035C0001746884620430DF0D9FBD9F80000009635
:1035D0003B464246B021FFF7D3FD03B0BDE8F08380
:1035E00000B52F4A90F83530126883B0023B019243
:1035F000019AC260092B12D8DFE803F005051126F5
:10360000413039141822027A90F82C30002A40D028
:1036100090F8362090F82D102248FFF7BDFF03B038
:103620005DF804FB037A002BF9D010E0037A002B3D
:10363000F5D0FC211B48FEF72FF903B05DF804FB21
:10364000037A002BEBD01DE0037A002BF1D0FA2196
:103650001448FEF721F903B05DF804FB037A002B50
:10366000DDD0104B93F82430002BF0D0E1E7037A43
:10367000002BD4D00B4B93F824301BB1D9E7037A3D
:10368000002BD6D0FB210748FEF706F903B05DF802
:1036900004FB90F82D100348FFF77EFFBFE700BF43
:1036A0008CD3FF1F74C2FF1F2DE9F0410746C51CD4
:1036B00000F113080124E6B215F8011F3346002279
:1036C0003846FFF7C3FD334600227B213846FFF71B
:1036D00063FF454504F10104EDD1012387F824304F
:1036E000BDE8F08108B50248FFF7DEFF012008BD04
:1036F00074C2FF1F08B50648FFF7D6FF64210220F9
:103700000BF0FCFC034B044A1A60012008BD00BF0B
:1037100074C2FF1F0CED00E00400FA0570B54C1EEA
:10372000064624020F4804F4706482B020430D461C
:103730000DF024FB0C4820430DF020FB346800956D
:1037400020467F236222B021FFF71AFD0095204614
:103750007F236322B021FFF713FD4FF6FF7323662B
:1037600002B070BD0BB0637F0BB0627F2DE9F041FA
:10377000541E240204F47064154644F4D6234A040B
:1037800002F0FE4243F00B0382B00E46804642EA4E
:1037900003000DF0F3FAF7B20E4B3806234300F0A6
:1037A000FE4018430DF0EAFAD8F800400095C6F341
:1037B000C61320460622B021FFF7E2FC07F07F0384
:1037C000204600952622B021FFF7DAFC02B0BDE8C2
:1037D000F08100BF0BB026002DE9F041541E2402F9
:1037E000184B04F4706416464A04234302F0FE4268
:1037F0000D4682B0804642EA03000DF0BFFAEFB2F8
:10380000114A3806224300F0FE4010430DF0B6FA8C
:10381000D8F80040236EAB4210D007F07F0362223D
:10382000B02120460096FFF7ABFC0096C5F3C61307
:103830006322B0212046FFF7A3FC256602B0BDE855
:10384000F08100BF0BB063000BB06200531EF0B5F7
:103850001B0201F30D0404F5005403F470631646D3
:1038600043F46043220443F00E0302F4FE026404B6
:10387000074604F0FE4443EA020083B00D462043AD
:103880000DF07CFA05F5005238680096C2F3C613B5
:10389000E02102F07F02FFF773FC03B0F0BD00BF30
:1038A00070B5541E0B04240204F4706403F4FE0388
:1038B000234382B0044643F4404016460D4640F090
:1038C0000C000DF05BFA206800962A460023C02108
:1038D000FFF756FC02B070BDF0B5534B994208BFDC
:1038E000B0F90410044683B01646FDF74DFFB4F955
:1038F0000610884205462BD094F83530102B21D87D
:10390000DFE803F0262A3D464C53202009202020E2
:1039100020715A202800B4F93A30444AB4F93800EA
:10392000B4F9041082FB0362A2EBE37300FA83F3A1
:103930009942237A6FDC2BB1FC213D48FDF7ACFFA7
:10394000002323723B4BE5801B680193019BE360DE
:1039500003B0F0BD002EFBD0354F94F82C30384624
:10396000C9B20022FFF772FC94F82C305E1E3E4470
:10397000E9B23846327D3171FFF740FCE2E794F856
:103980002C3094F82D102A48EAB2FFF705FED9E74B
:10399000274A94F82C301344D874D3E794F82C2099
:1039A0002348E9B2FFF77CFFCCE794F82C202048AD
:1039B0002946FFF74BFFC5E794F84A3094F84910C1
:1039C00094F82C201A4803EBC111FFF705FFA9B2A8
:1039D00094F82C201648FFF7C9FE94F82C101448D0
:1039E000FFF79CFEAEE794F84A3094F8491094F83B
:1039F0002C200F4803EBC111FFF7EEFE94F82C309A
:103A00000B48EAB20621FFF7C7FD94F82C100848CE
:103A1000FFF784FE96E7002B94D1FA210448FDF7C6
:103A20003BFF012323728DE7F1D8FFFF5655555513
:103A300074C2FF1F8CD3FF1F2DE9F0410446FDF730
:103A4000CBFE94F80F3194F8B45006466BB194F85D
:103A50000C31032B50D094F8E120012A27D9002201
:103A6000924904F1AC00FFF7BBFD94F80D316BB93E
:103A700094F80E31CBB194F80C315BB92A4604F1BD
:103A800058008A49BDE8F041FFF726BF94F80C3191
:103A9000002B47D0022B01D9BDE8F0812A463146E0
:103AA000201DBDE8F041FFF717BFBDE8F081002DF4
:103AB00042D0002B73D094F83970002F79D1014691
:103AC000201DFDF761FEB4F90A30002B5FFA80F883
:103AD00007DD3A4694F8303094F8B0107448FFF798
:103AE000B5FB94F830307248A4F80A80C2184146F9
:103AF000D27CFFF783FBB8E7B5B3B4F90810201DFB
:103B0000FDF742FEB4F9B010C7B2002961D194F8B4
:103B100030306748A4F8B070C2183946D27CFFF73D
:103B20006DFBA2E72A466149201DFFF7D5FE94F8F8
:103B30000E31002BB0D0A1E70BBB94F8393013F055
:103B4000EF0F4ED094F88D3013F0EF0F1BD194F897
:103B5000843094F85E1056480022FFF777FB4FF64A
:103B60001943A4F85E3080E794F8303094F8B01030
:103B70004F482A46FFF76AFBA4F8B05075E794F85F
:103B80003930002B7FD094F8D83094F8B0104848E2
:103B90000022FFF75BFB0023A4F8B03065E794F840
:103BA000392012F0EF072DD094F88D3013F0EF0F7D
:103BB0007AD0B4F9B01094F8E67000296CD1A4F86A
:103BC000B070394694F8D83039487F22FFF716FB99
:103BD0004BE7C9B294F8303035480022FFF736FB86
:103BE00095E794F83030A17A31482A46FFF72EFB4A
:103BF00094F88D304FF6194213F0EF0F62817FF485
:103C000034AFA4E7B4F90810201DFDF7BDFDB4F9E9
:103C10000A1000295FFA80F806DD3A46C9B294F826
:103C200030302348FFF712FB94F83030204FA4F8CF
:103C30000A80FA184146D27C3846FFF7DFFA94F83A
:103C40008D3013F0EF0F7FF410AFB4F95C1004F176
:103C50005800FDF799FDB4F95E1000295FFA80F86D
:103C600006DDC9B294F8843011480022FFF7EEFA5D
:103C700094F88430A4F85E801F444146FA7C0C48D6
:103C8000FFF7BCFAF1E694F83030A17A08482A46EA
:103C9000FFF7DCFA6581E8E6C9B294F8D830044849
:103CA0000022FFF7D3FA8AE7014FCEE7F1D8FFFFF2
:103CB00074C2FF1F70B50D4C90F80D5190F80E11A5
:103CC00090F80F2124780D43154304B90DB9284607
:103CD00070BD04F0FF060446FFF7AEFE84F80F61E6
:103CE00084F80E6184F80D61284670BD70B2FF1F24
:103CF000F8B50446806C03681B69984708B9002032
:103D0000F8BDA06C03685B699847C3B203F0FB027F
:103D1000F92AF4D0A26D82B994F84D2084F84F307E
:103D2000150600F19E8040B20028C0F26481002098
:103D300084F84D00A0656065F8BD010669D494F86B
:103D40004F10F02904EB020140D081F84F30616D33
:103D50004B1E9A4240D394F84F20F02AE7D0130626
:103D60003DD4002384F86630B02B4CD0A02B4AD031
:103D7000D02B48D0E02B46D0C02B44D0002084F874
:103D80006500032994F8500008BF94F8515084F856
:103D9000670018BF002500210120B02B84F868506F
:103DA000A165616584F8E90000F0B78000F2AE809B
:103DB000902B00F0B280A02B00F0AF80802B00F0A1
:103DC000AC80002384F84D300120F8BD81F86930C3
:103DD000636D013B9A42AAD20132A2658FE702F1DC
:103DE0000C03DBB2012BBCD902F0FB03F92BB8D0DA
:103DF000EF2A00F2FE8002F0F003802B84F8663098
:103E000001D0902BB0D102F00F00013084F8650092
:103E1000B7E7A3F1F701082991D8012505FA01F0C8
:103E200010F4DD7F40F09680002988D194F8693045
:103E3000F02B7FF47CAF561C2244F720370A82F81F
:103E4000690084F8676084F8687084F8651084F805
:103E50004D10284684F8663084F8E950A165616504
:103E6000F8BD02F10C01CDB2012D7FF65CAF02F07E
:103E7000FB05F92D3FF457AFEF2A2ED802F0F006DC
:103E8000802E2BD140B20028FFF64EAF012084F8DF
:103E90004F2084F85030A065C9B201297FF647AFA2
:103EA00002F0FB03F92B3FF442AFEF2A5FD802F098
:103EB000F003B02B26D01ED9D02B04D0E02B21D07C
:103EC000C02B7FF434AF022363650121A36D9942B7
:103ED00027D90133A3650020F8BD164606F0DF059B
:103EE000902DCFD006F0BF05A02DCBD006F0EF0669
:103EF000C02EC7D017E7902B04D0A02B02D0802B68
:103F00007FF415AF032363650221DFE7D02B04D0D4
:103F1000E02B02D0C02B7FF454AF84F84D20012059
:103F2000F8BDEF2A94BF02F0F005154602F00F022B
:103F30000023013294F8501084F86520012084F8A1
:103F4000671084F8683084F86650A365636584F868
:103F5000E900F8BD002284F8672084F8682084F81E
:103F6000652084F8663084F8E9502846F8BDA2F14F
:103F7000F0030F2B3FF6DBAE01A151F823F000BF99
:103F8000C13F0000C73E0000053F0000C73E0000E3
:103F90002F3D00002F3D0000D53F00002F3D0000C9
:103FA000D53F00002F3D0000D53F0000D53F000069
:103FB000D53F00002F3D0000D53F0000D53F000059
:103FC00000218020F02384F84D10606584F869306A
:103FD0007F217BE70023012084F8653084F8673077
:103FE00084F8683084F86620A365636584F8E90086
:103FF000F8BD1346B6E61A4603F10C014CE700BFC4
:1040000090F86630803B7F2B43D8DFE803F04742CF
:104010004242424242424242424242424242514271
:104020004242424242424242424242424242AE4204
:104030004242424242424242424242424242A642FC
:104040004242424242424242424242424242AA42E8
:104050004242424242424242424242424242814201
:1040600042424242424242424242424242428942E9
:1040700042424242424242424242424242429B40C9
:104080005563424269426D42717579427D43036ACC
:104090001BBB7047436C002BFBD018470368002BF9
:1040A000F7D090F8682090F8671090F865001847EE
:1040B0004368002BF5D1ECE7426A002AE9D090F87A
:1040C000683090F86700DB0103F47E5300F07F0056
:1040D00018431047836A002BDBD090F8670018471D
:1040E000C36A002BD9D1D4E7036B002BD5D1D0E71D
:1040F000436B002BD1D1CCE7836B002BCDD1C8E72C
:10410000C36B002BC9D1C4E7036C002BC5D1C0E73A
:104110004369002BBDD090F8671090F865001847F0
:104120008269002AB5D090F8681090F8673090F84E
:104130006500C90101F47E5103F07F031943A1F525
:1041400000511047C369002BA3D0B0F86710802935
:1041500000F1690028BF80211847C368002BA0D157
:1041600097E70369002BD6D193E78368002B98D19A
:104170008FE700BF90F86430DA0718D513F0FE0F10
:1041800015D070B590F8665085F08002602A82B034
:1041900004460DD890F865608E4231D081B35B083B
:1041A000012B32D0032B00F0988002B070BD704715
:1041B000A5F1F0030F2BF8D801A252F823F000BFAD
:1041C000B3420000934200006542000045420000F7
:1041D000AB410000AB4100001F420000AB410000BA
:1041E0001F420000AB4100001F4200001F420000C0
:1041F0001F420000AB4100001F4200001F420000B0
:104200005B08012B01D0022BCFD194F8683094F8D1
:104210006720009629462046FEF7B2FFC5E705F164
:104220000803DBB2072BC0D8012202FA03F313F014
:10423000DD0FBAD0A06C03681B68294602B0BDE848
:1042400070401847806C94F867500368F3211B682E
:104250009847A06C0368DB6C05F07F0102B0BDE8F5
:1042600070401847806C94F86730026894F8685082
:104270001268F22143EAC5159047A06C036805F067
:104280007F019B6C9847A06C0368C5F3C6119B6CBB
:10429000E4E7806C94F8675094F8683002682D0168
:1042A00003F00F0305F070051268F1211D439047DC
:1042B000C0E7B0F86760802E28BF802600F169054E
:1042C000002E3FF472AF2E44A06C15F8011B03685A
:1042D0001B689847B542F7D167E794F8683094F8BF
:1042E000672000962946FEF74BFF5EE72DE9F04F69
:1042F000DFF8ACA3D74ED84C89B00AF09DFED74961
:10430000D74806F09DFDDAF8003073605A42002568
:104310004FF4B270B260B261326233617361F361C3
:104320003570F5600BF092F8074608F06DFDCD4B47
:10433000CD481F6008220A23092107F011FDCB4850
:1043400008F0C4FBCA4BCB4ACB491D6018468027F6
:104350001F710EF043FCC94BC64AC7491D60184681
:104360001F710EF03BFC00254FF619436381382086
:1043700025616561A561E5612562656284F8285063
:104380002571E580258125730BF060F8BC4FBD4B8E
:10439000069780462A46294609F08CF97268B76864
:1043A000C4F82C804FF6FF7101234FF07E5EC8F8F1
:1043B000041078211046C4F834E0226484F83030C8
:1043C00084F83130E187676484F8385084F83950D4
:1043D000A5870EF017F8804638460EF013F8A84F60
:1043E000814628460EF00EF8A7490EF013F949460B
:1043F0000EF05CF841460DF051FF0EF043FA013526
:10440000152D27F8020FECD100257F234FF07809F6
:10441000FF22A4F84A9084F84D3084F84E3084F896
:1044200054203820A4F8485084F84C500BF00EF873
:1044300029468046954B924F012209F03BF9DAF864
:104440000020C8F804204FF619434FF08041C8F807
:104450001010C4F85080A4F85E303820258184F80C
:1044600055506566A566E56625676567A56784F8A6
:104470007C5084F85850A4F85A50A4F85C5084F842
:1044800060500AF0E3FF2A4629467E4B804609F039
:1044900011F97268D6F808B0A4F8929001234FF68B
:1044A000FF714FF07E5EC8F804101046C4F880809B
:1044B000C4F888E0C4F8942084F8843084F8853007
:1044C00084F88C5084F88D50A4F89050C4F898B0BB
:1044D0000DF098FF804658460DF094FF814628461F
:1044E0000DF090FF68490EF095F849460DF0DEFF9B
:1044F00041460DF0D3FE0EF0C5F90135152D27F814
:10450000020FECD1002578234FF0FF087F27A4F895
:104510009E30A4F89C5084F8A05084F8A17084F8D0
:10452000A27084F8A88038200AF090FF29468146BE
:10453000564B012209F0BEF8DAF80020C4F8A49026
:104540004FF619434FF08041A4F8B230C9F810106B
:10455000A4F85C50C4F8B850C4F8BC50C4F8C050BB
:10456000C4F8C450C4F8C850C4F8CC5084F8D05033
:1045700084F8AC50A4F8AE50A4F8B05084F8B4500D
:10458000C9F8042084F8A95038200AF05FFF2A46B1
:1045900029463C4B814609F08DF83D49C4F8EC10A2
:1045A00001234FF07E523C203A49C4F8DC20C4F885
:1045B000D49084F8E05084F8E15084F8E25084F814
:1045C000F08084F8F450C4F8F850C4F8045184F82A
:1045D000085184F8E95084F80C5184F80F5184F89C
:1045E0000E5184F80D5184F8D83084F8D930A4F8ED
:1045F000E43084F8E83084F8E60084F8008004F5BC
:1046000088744FF6FF728C42C9F804207FF4ABAE79
:10461000214C224994F864E0E2654EEA030E63F30C
:10462000470E2266A1648022294604F1690084F8BD
:10463000655084F8665084F8675084F8685084F8B0
:10464000E950079384F864E084F84C5084F84D50A6
:1046500028E000BF60B3FF1F14B6FF1F48A5FF1F6F
:1046600020B5FF1F88B2FF1FE8B2FF1FC0B3FF1FB6
:10467000A4C2FF1F0C8DFF1F3D05000000CFFF1FD0
:1046800096B2FF1F6F12833A0000A0410AD7233C65
:104690009F860100A4BFFF1F14CFFF1F3CA4FF1F74
:1046A0004090FF1F84F84E506565A5650EF042FEF0
:1046B000B74AB849256020466560A560E560256178
:1046C0006561A561E56125626562A562E5622563B4
:1046D0006563A563E563256465640EF07FFAAE4803
:1046E000079B80F82430024600F1130142F8034B87
:1046F0000B4602F8017F8A4203F8017FF9D1A74AED
:10470000642440F22E404FF4FF6340F6C23114603F
:1047100050609360D16041F6EA23002140F68C7529
:1047200041F256344FF4B950D36115615461906130
:1047300082F82010C2F8481882F84C18C2F85018B5
:10474000C2F8541882F88A1882F88B1802F65703B8
:1047500002F6890203F8011F93424FF00004F9D1D9
:104760008F4FDFF810938F4D384606F04DF98E4B82
:10477000DFF804C33B604FF0070B36238B48BB6167
:10478000C7F810B087F82040C7F82441A7F82C419B
:1047900087F82E417C61FC61854FCCF800700827BA
:1047A0008CF8047083490771834FDFF8D0E207600B
:1047B000824F0F600927824A0F718EF80470814F73
:1047C000CEF80070804B814FC9F800301760804BE5
:1047D000447105274FF0020817717E4F7E4889F813
:1047E000048089F805801F604FF0010903278EF8C7
:1047F00005901F714FF0060E4C715C717749784B34
:1048000080F804E08CF805400360547180F805904E
:10481000744A75480860754B75480F711060754F84
:10482000754883F8048083F805901860734B81F80D
:1048300005903B607249734887F8059004233B71EB
:10484000714F81F8048081F805900F606F49704FB7
:104850000371076044716F4F6F480B710F604C71AB
:104860006E4F6F4907606F4F80F804B00F6044715E
:104870000B276D480F716D4F4C7107606C49447187
:104880000D2707716B4882F804E00F7108604C71C6
:1048900054716949694A6A4817710988694F1760F4
:1048A00054710371684A694B694F0360C1F140015B
:1048B00044716848398082F805801460147109F0E9
:1048C00017FB334A644963480EF088F96348039440
:1048D0007F2704970297019700944346494680F842
:1048E000009080F8019080F8029080F8039080F8A2
:1048F000059080F8069080F8079080F8099080F87D
:104900000A9080F80B9080F80C9080F80D9080F859
:104910000E9080F80F9080F81090142204710472A9
:1049200044744F48FCF744FB4346494604970297BA
:1049300001971822039400944A48FCF739FB434638
:1049400049460497029701970E2203940094464823
:10495000FCF72EFB434649460497029701970F2226
:10496000039400944148FCF723FB434649460497CF
:10497000029701971722039400943D48FCF718FB17
:1049800043464946049702970197652278E000BFA5
:104990000C8DFF1F7104000074C2FF1FE0C2FF1FD7
:1049A000D8B3FF1F64D1FF1FB0770100E0B2FF1F33
:1049B000E08DFF1F08B0FF1F749DFF1FBC8EFF1FFF
:1049C00018B5FF1F809CFF1F8C8DFF1FCC96FF1F0B
:1049D00084B3FF1F4890FF1F4CD3FF1F28B3FF1F56
:1049E000D89BFF1F8CB2FF1FA494FF1F14B0FF1FA2
:1049F000309BFF1F0CCFFF1F0495FF1FAC8FFF1FC5
:104A000058D3FF1F5CD1FF1F4C9EFF1F9CC2FF1F8E
:104A1000148DFF1F5C97FF1FD8C2FF1F1099FF1F47
:104A200050D1FF1F0893FF1F44D2FF1F4C95FF1F5B
:104A30007CB2FF1FBC97FF1FDC8DFF1F14B3FF1F4D
:104A400030B3FF1FDC99FF1FE4CEFF1F2894FF1F28
:104A50004ED1FF1FC4B2FF1F65DF000028D1FF1F2A
:104A6000BCBFFF1FDCBFFF1FFCBFFF1F1CC0FF1F21
:104A70003CC0FF1F80CCFF1F20B0FF1FACC2FF1F38
:104A800003940094C748FCF793FA434649460497B9
:104A9000029701976F2203940094C348FCF788FAA9
:104AA000434649460497029701976722039400946E
:104AB000BE48DFF82883FCF77BFA4FF0780A4946B6
:104AC0005B460497029701971E2203940094B8480E
:104AD000FCF76EFA02970197CDF810A023460C223E
:104AE0000A2103940094B348FCF762FACDF810A0B1
:104AF0000297019723460C220A2103940094AE48A2
:104B0000FCF756FACDF810A00297019723460C2225
:104B10000A2103940094A948FCF74AFACDF810A0A2
:104B20000297019723460C220A2103940094A4487B
:104B3000FCF73EFACDF810A00297019723460C220D
:104B40000A21039400949F48FCF732FACDF810A094
:104B50000297019723460C220A21039400949A4855
:104B6000FCF726FACDF810A00297019723460C22F5
:104B70000A21039400949548FCF71AFACDF810A086
:104B80000297019723460C220A210394009490482F
:104B9000FCF70EFA5B460C220A21CDF810A0029712
:104BA0000197039400948B48FCF702FAD6F804A00E
:104BB000D6F808906F8050462C80C5F804A0C5F840
:104BC00008900DF01FFC074648460DF01BFC83467D
:104BD00020460DF017FC80490DF01CFD59460DF0E4
:104BE00065FC39460DF05AFB0DF04CFE0134152CD6
:104BF00028F8020FECD100247F23DFF8E081C5F80C
:104C000010A0C5F81490AC81EB8120460DF0FAFBA2
:104C100071490DF0FFFC59460DF048FC39460DF086
:104C20003DFB0DF02FFE0134152C28F8020FECD1BE
:104C300000247F23DFF8A481C5F81CA0C5F82090CC
:104C40002C836B8320460DF0DDFB63490DF0E2FC05
:104C500059460DF02BFC39460DF020FB0DF012FEED
:104C60000134152C28F8020FECD100247F23DFF843
:104C70006C81C5F828A0C5F82C90AC84EB84204644
:104C80000DF0C0FB54490DF0C5FC59460DF00EFC6B
:104C900039460DF003FB0DF0F5FD0134152C28F815
:104CA000020FECD100247F23DFF83081C5F834A057
:104CB000C5F838902C866B8620460DF0A3FB46493C
:104CC0000DF0A8FC59460DF0F1FB39460DF0E6FA5F
:104CD0000DF0D8FD0134152C28F8020FECD100247A
:104CE0007F23DFF8F880C5F840A0C5F84490AC8772
:104CF000EB8720460DF086FB37490DF08BFC5946BB
:104D00000DF0D4FB39460DF0C9FA0DF0BBFD0134AE
:104D1000152C28F8020FECD100247F23DFF8BC808B
:104D2000C5F84CA0C5F85090A5F84840A5F84A3001
:104D300020460DF067FB28490DF06CFC59460DF03C
:104D4000B5FB39460DF0AAFA0DF09CFD0134152C87
:104D500028F8020FECD100247F23DFF88080C5F80B
:104D600058A0C5F85C90A5F85440A5F856302046E8
:104D70000DF048FB18490DF04DFC59460DF096FB1F
:104D800039460DF08BFA0DF07DFD0134152C28F815
:104D9000020FECD100247F23DFF84080C5F864A027
:104DA0001EE000BF5CC0FF1F7CC0FF1F9CC0FF1F38
:104DB000BCC0FF1FDCC0FF1FFCC0FF1F1CC1FF1FCA
:104DC0003CC1FF1F5CC1FF1F7CC1FF1F9CC1FF1FB7
:104DD000BCC1FF1FDCC1FF1F0000A04196B2FF1F36
:104DE000C5F86890A5F86040A5F8623020460DF03F
:104DF00009FBD5490DF00EFC59460DF057FB39461D
:104E00000DF04CFA0DF03EFD0134152C28F8020F80
:104E1000ECD128221723DFF86083C5F870A0C5F80D
:104E20007490A5F86C20A5F86E30002420460DF093
:104E3000E9FAC5490DF0EEFB59460DF037FB39464E
:104E40000DF02CFA0DF01EFD0134152C28F8020F80
:104E5000ECD128221723DFF82083C5F87CA0C5F801
:104E60008090A5F87820A5F87A30002420460DF02F
:104E7000C9FAB5490DF0CEFB59460DF017FB39467E
:104E80000DF00CFA0DF0FEFC0134152C28F8020F81
:104E9000ECD128221723DFF8E082C5F888A0C5F8F6
:104EA0008C90A5F88420A5F88630002420460DF0CB
:104EB000A9FAA5490DF0AEFB59460DF0F7FA3946AF
:104EC0000DF0ECF90DF0DEFC0134152C28F8020F82
:104ED000ECD128221723DFF8A082C5F894A0C5F8EA
:104EE0009890A5F89020A5F89230002420460DF067
:104EF00089FA95490DF08EFB59460DF0D7FA3946DF
:104F00000DF0CCF90DF0BEFC0134152C28F8020F81
:104F1000ECD128221723DFF86082C5F8A0A0C5F8DD
:104F2000A490A5F89C20A5F89E30002420460DF002
:104F300069FA85490DF06EFB59460DF0B7FA39460E
:104F40000DF0ACF90DF09EFC0134152C28F8020F81
:104F5000ECD128221723DFF82082C5F8ACA0C5F8D1
:104F6000B090A5F8A820A5F8AA30002420460DF09E
:104F700049FA75490DF04EFB59460DF097FA39463E
:104F80000DF08CF90DF07EFC0134152C28F8020F81
:104F9000ECD128221723DFF8E081C5F8B8A0C5F8C6
:104FA000BC90A5F8B420A5F8B630002420460DF03A
:104FB00029FA65490DF02EFB59460DF077FA39466E
:104FC0000DF06CF90DF05EFC0134152C28F8020F81
:104FD000ECD128221723DFF8A081C5F8C4A0C5F8BA
:104FE000C890A5F8C020A5F8C230002420460DF0D6
:104FF00009FA55490DF00EFB59460DF057FA39469E
:105000000DF04CF90DF03EFC0134152C28F8020F80
:10501000ECD100247F23DFF86081C5F8D0A0C5F86B
:10502000D490A5F8CC40A5F8CE3020460DF0EAF992
:1050300045490DF0EFFA59460DF038FA39460DF0B2
:105040002DF90DF01FFC0134152C28F8020FECD1BE
:105050007F25002404950295019503940094022372
:105060001422012139483A4FFBF7A2FF8DE83000A6
:105070000495039402950223182201213548FBF779
:1050800097FF8DE8300004950394029502230E22C9
:1050900001213148FBF78CFF8DE830000495039423
:1050A000029502230F2201212C48FBF781FF8DE896
:1050B000300004950394029502231E220121284802
:1050C000FBF776FF8DE830000495039402950223E8
:1050D000652201212348FBF76BFF8DE83000049522
:1050E0000394029502236F2201211F48FBF760FF02
:1050F0008DE8300004950394029502236722012174
:105100001A484FF07808FBF753FF8DE830000495FC
:105110000394029508231E2201211548FBF748FF3E
:105120008DE83000234603940295CDF810800C22C0
:105130000A211048FBF73CFF8DE830002346CDF8EC
:10514000108003941AE000BF0000A04130B0FF1FA0
:105150003CB5FF1F50B0FF1F70B0FF1F90B0FF1F86
:10516000B0B0FF1FD0B0FF1FF0B0FF1F10B1FF1F86
:1051700030B1FF1F50B1FF1F96B2FF1F02950C22E6
:105180000A21D648FBF714FF8DE830002346CDF8FE
:105190001080039402950C220A21D148FBF708FFE6
:1051A0008DE830002346CDF81080039402950C2240
:1051B0000A21CC48FBF7FCFE8DE830002346CDF8F1
:1051C0001080039402950C220A21C748FBF7F0FED9
:1051D0008DE830002346CDF81080039402950C2210
:1051E0000A21C248FBF7E4FE8DE830002346CDF8E3
:1051F0001080039402950C220A21BD48FBF7D8FECB
:105200008DE830002346CDF81080039402950C22DF
:105210000A21B848FBF7CCFE8DE8300008230C22A9
:105220000A21CDF8108003940295B348DFF8D082AC
:10523000FBF7BEFED6F80490D6F808A07D803C802F
:105240004846C7F80490C7F808A00DF0DBF80546FB
:1052500050460DF0D7F82646044630460DF0D2F8F9
:10526000A6490DF0D7F921460DF020F929460DF099
:1052700015F80DF007FB0136152E28F8020FECD1BA
:1052800000267F23DFF87882C7F81090C7F814A0B3
:10529000BE81FB8130460DF0B5F898490DF0BAF9A2
:1052A00021460DF003F929460CF0F8FF0DF0EAFA5B
:1052B0000136152E28F8020FECD100267F23DFF8E7
:1052C0004082C7F81C90C7F820A03E837B833046FD
:1052D0000DF098F889490DF09DF921460DF0E6F89A
:1052E00029460CF0DBFF0DF0CDFA0136152E28F81B
:1052F000020FECD100267F23DFF80482C7F8289044
:10530000C7F82CA0BE84FB8430460DF07BF87B49A7
:105310000DF080F921460DF0C9F829460CF0BEFFCA
:105320000DF0B0FA0136152E28F8020FECD1002648
:105330007F23DFF8CC81C7F83490C7F838A03E86C9
:105340007B8630460DF05EF86C490DF063F921461E
:105350000DF0ACF829460CF0A1FF0DF093FA0136E0
:10536000152E28F8020FECD100267F23DFF890815C
:10537000C7F84090C7F844A0BE87FB8730460DF0C1
:1053800041F85E490DF046F921460DF08FF82946A7
:105390000CF084FF0DF076FA0136152E28F8020F76
:1053A000ECD100267F23DFF85881C7F84C90C7F86E
:1053B00050A0A7F84860A7F84A3030460DF022F810
:1053C0004E490DF027F921460DF070F829460CF0F2
:1053D00065FF0DF057FA0136152E28F8020FECD1B3
:1053E00000267F23DFF81881C7F85890C7F85CA023
:1053F000A7F85460A7F8563030460DF003F83F493F
:105400000DF008F921460DF051F829460CF046FF41
:105410000DF038FA0136152E28F8020FECD10026CF
:105420007F23DFF8DC80C7F86490C7F868A0A7F88E
:105430006060A7F8623030460CF0E4FF2F490DF0B1
:10544000E9F821460DF032F829460CF027FF0DF05F
:1054500019FA0136152E28F8020FECD1282217234D
:10546000DFF89C80C7F87090C7F874A0A7F86C208C
:10547000A7F86E30002630460CF0C4FF1F490DF02F
:10548000C9F821460DF012F829460CF007FF0DF07F
:10549000F9F90136152E28F8020FECD1282217232E
:1054A000DFF85C80C7F87C90C7F880A0A7F8782068
:1054B000A7F87A30002630460CF0A4FF0F490DF013
:1054C000A9F821460CF0F2FF29460CF0E7FE0DF09A
:1054D000D9F90136152E28F8020F13E070B1FF1F1D
:1054E00090B1FF1FB0B1FF1FD0B1FF1FF0B1FF1F80
:1054F00010B2FF1F30B2FF1F50B2FF1F0000A041CB
:1055000096B2FF1FD7D128221723DFF8C883C7F828
:105510008890C7F88CA0A7F88420A7F886300026CA
:1055200030460CF06FFFE9490DF074F821460CF09D
:10553000BDFF29460CF0B2FE0DF0A4F90136152E80
:1055400028F8020FECD128221723DFF88883C7F848
:105550009490C7F898A0A7F89020A7F8923000265A
:1055600030460CF04FFFD9490DF054F821460CF0AD
:105570009DFF29460CF092FE0DF084F90136152EA0
:1055800028F8020FECD128221723DFF84883C7F848
:10559000A090C7F8A4A0A7F89C20A7F89E300026EA
:1055A00030460CF02FFFC9490DF034F821460CF0BD
:1055B0007DFF29460CF072FE0DF064F90136152EC0
:1055C00028F8020FECD128221723DFF80883C7F848
:1055D000AC90C7F8B0A0A7F8A820A7F8AA3000267A
:1055E00030460CF00FFFB9490DF014F821460CF0CD
:1055F0005DFF29460CF052FE0DF044F90136152EE0
:1056000028F8020FECD128221723DFF8C882C7F848
:10561000B890C7F8BCA0A7F8B420A7F8B630002609
:1056200030460CF0EFFEA9490CF0F4FF21460CF0D7
:105630003DFF29460CF032FE0DF024F90136152EFF
:1056400028F8020FECD128221723DFF88882C7F848
:10565000C490C7F8C8A0A7F8C020A7F8C230002699
:1056600030460CF0CFFE99490CF0D4FF21460CF0E7
:105670001DFF29460CF012FE0DF004F90136152E1F
:1056800028F8020FECD100267F23C7F8D090C7F886
:10569000D4A0A7F8CC60A7F8CE30069F30460CF017
:1056A000B1FE8A490CF0B6FF21460CF0FFFE2946F8
:1056B0000CF0F4FD0DF0E6F80136152E27F8020F78
:1056C000ECD1834B4FF01F0E83F821E070224FF096
:1056D0003E0E742133262D24342566274FF07E504C
:1056E0005A705974012200219E7783F82A400326BC
:1056F000322483F82E5083F831700225352783F841
:105700000AE083F81AE04FF00D0E5E725E7683F8C1
:10571000295083F8395083F83A7083F83E70586006
:105720001A709A811A749A8383F820209A8583F8D4
:1057300030209A875861586258631972197683F835
:10574000281083F838109C73692783F8402083F869
:10575000496083F8595083F8695083F8796083F879
:105760007A5083F84AE046264FF0370E6D2583F8CD
:10577000517083F85A6083F85EE083F861505E27C9
:1057800038264FF04B0E392583F86A7083F86E6027
:105790001C270A2683F871E083F87E504FF0360C00
:1057A0004FF0160E172583F84170586483F848109F
:1057B000A3F84C2083F85020586583F85810A3F8BC
:1057C0005C2083F86020586683F86810A3F86C208A
:1057D00083F87020586783F87810A3F87C2083F84A
:1057E0004EC083F8806083F881E083F891504FF0D9
:1057F000180E192583F8A1E083F8B1504FF01A0E66
:105800003C2583F8C1E0C3F8840083F8881083F84E
:105810008910A3F88C2083F88E4083F89060C3F839
:10582000940083F8981083F89910A3F89C2083F8CB
:105830009E4083F8A060C3F8A40083F8A81083F802
:10584000A910A3F8AC2083F8AE4083F8B060C3F889
:10585000B40083F8B81083F8B910A3F8BC2083F81B
:10586000BE4083F8C0604FF01B0E83F88A5083F867
:105870009A5083F8AA5083F8BA50C3F8C40083F84A
:10588000E1701D2783F8C81083F8C91083F8CA5047
:10589000A3F8CC2083F8CE4083F8D060C3F8D400BE
:1058A00083F8D81083F8D91083F8DA50A3F8DC20F5
:1058B00083F8DE4083F8E060C3F8E40083F8E81082
:1058C00083F8E91083F8EA5006E000BF0000A04129
:1058D00078CBFF1F96B2FF1FA3F8EC2083F8EE40B1
:1058E00083F8F060C3F8F40083F8F81083F8F91037
:1058F00083F8FA50A3F8FC2083F8FE4083F8D1E047
:1059000083F8F17009B0BDE8F08F00BF00B5C2693F
:10591000816983B00023C2F14000019300B2C1F15C
:105920008003009012B21BB209B2034805F0E0FBFD
:1059300003B05DF804FB00BFE8B2FF1F70B5134B66
:10594000134A1C781348144B144E154D04EB0411E4
:1059500002EB0112082C0CBF1C46044692F80C21E5
:10596000013A0021012A317029704FF002010AD951
:1059700005F0CCF80B48FFF7C9FF21460948FCF7B2
:1059800083F8012070BD05F0DDF8F3E74490FF1FB8
:1059900014B6FF1F18B5FF1F84B3FF1F4CD1FF1FA4
:1059A000B88EFF1FD8B3FF1F054B064A1B7803EBC9
:1059B000031302EB0313002283F80C21FFF7BEBF91
:1059C0004490FF1F14B6FF1F38B50C4D0C4C2878BF
:1059D00000EB001000012318184693F839108430AA
:1059E000FBF784FA2B7803EB031304EB0314012376
:1059F00084F80C31BDE83840FFF7A0BF4490FF1F8A
:105A000014B6FF1F30B40D4B0D491B7803EB031385
:105A10001B01CA1813460624002064210225A2F89F
:105A20009000A2F8921082F88D40A3F89C00A3F891
:105A30009E1082F80C5130BCFFF780BF4490FF1FCE
:105A400014B6FF1F10B5054C2046FFF75FFF204638
:105A50000349FCF719F8012010BD00BFD8B3FF1FA0
:105A6000E0B2FF1F10B5054C2046FFF74FFF204660
:105A70000349FCF709F8012010BD00BFD8B3FF1F90
:105A800020B0FF1F70B50A4E0A4A0B4B0B49002489
:105A9000304601251C700D701470FFF737FF30463B
:105AA0000749FBF7F1FF074B28461C7070BD00BF8C
:105AB000D8B3FF1F10B0FF1F7CCCFF1FB88EFF1F95
:105AC00080CCFF1FFCC1FF1FF0B51B4B1B4A1B689E
:105AD0001B4C1C4E1C49C4F8346183B00325019350
